:100000000C947E030C949E030C949E030C949E030C
:100010000C949E030C949E030C949E030C949E03DC
:100020000C949E030C949E030C949B0C0C949E03C6
:100030000C949E030C949E030C949E030C949E03BC
:100040000C949E030C949E030C949E030C949E03AC
:100050000C949E030C949E030C949E030C949E039C
:100060000C949E030C949E030C949E030C949E038C
:100070000C949E030C949E030C949E030C949E037C
:100080000C949E030C949E030C949E03072C7AA55B
:10009000BA6CC590DA3B9365FC8BBC53F810FD3C01
:1000A0005692834DBD879D3AB63DCBC9BF5BBE73AB
:1000B000DA0FC93F6D61696E000A004A6F794F53CC
:1000C0002076302E322E332020202050726573731C
:1000D00020474F002020202020202020206D656D0B
:1000E0006F72792066756C6C006865617020736949
:1000F0007A653A2025642062797465730A005F5F2F
:100100006D616C6C6F635F686561705F656E6420C4
:100110003D2025700A005F5F6D616C6C6F635F68E6
:100120006561705F7374617274203D2025700A00F0
:1001300072756E6177617920636F6465000A526F32
:10014000756E6420656E64000A526F626F7420726F
:10015000656164792E2020202050726573732027FA
:10016000476F2700496E6974206661696C3A2025E3
:10017000730A0D005541525430206F70656E6564EE
:100180002061742025640A0D004861707079626FE7
:1001900061726420696E697420737461727465643D
:1001A0000A0D00486172647761726520766572732A
:1001B000696F6E2025582E253032580A0D00426F87
:1001C00061726420494420253034580A0D00426F82
:1001D00061726420636F6E666967204F4B0A0D0081
:1001E00042617474657279204F4B3A2025646D56D4
:1001F0000A0D0046504741207625642E25640A0DDD
:100200000046504741206661696C757265004C6F0D
:100210007720626174746572790042616420436F73
:100220006E666967000A70616E69633A2025730023
:1002300070616E69633A2025730A002074687265E4
:100240006164202874696420256429202725732788
:10025000207374617475732025642072756E732029
:1002600025750A00207468726561642028746964C9
:100270002025642920756E616C6C6F636174656400
:100280000A0044756D70696E6720746872656164F8
:10029000207374617465733A0A0020504320202053
:1002A0003A20253038700A002053524547203A2022
:1002B000253032700A002053502020203A2025306B
:1002C00034700A002046502020203A202530347017
:1002D0000A00203C6F6D697474696E672072302D5E
:1002E0007233313E0A0044756D70696E67206A6D25
:1002F000705F6275663A0A006F7574206F662074CD
:1003000068726561647300736C6565700079696516
:100310006C64006E6F2063757272656E745F7468D2
:100320007265616400737461636B206F76657266D9
:100330006C6F7700726573657276656420737061A7
:1003400063653A20257020746F2025700A0073744D
:1003500061636B746F703A2025700A0070632061CE
:10036000742025700A007370206F6620272573277C
:1003700020286964202564292069732025700A00DB
:100380000A737461636B206F766572666C6F770AAF
:100390000053502061626F7665006E6F2069646C57
:1003A00065006D616C6C6F63207370616365205BC9
:1003B00025702C25705D0A00746872656164735B3A
:1003C000305D2E74685F737461747573206174207E
:1003D00025700A00746872656164735B305D20612A
:1003E000742025700A0074696D65202564002D2D28
:1003F000206E6F2069646C6520746872656164208A
:100400002D2D0A007363686564756C65004F6F700D
:10041000732E2E2E207468657265277320612072FA
:10042000756E6E61626C65207468726561642074BB
:1004300068617473206E6F742069646C650A0020B3
:1004400074687265616420287469642025642920B9
:1004500027257327207374617475732025640A003F
:100460002074687265616420287469642025642999
:1004700020756E616C6C6F63617465640A006964F9
:100480006C652066726565002869642025642920F2
:10049000737461636B205B25702C2570290A0074CE
:1004A0006872656164207461626C6520656E6420A9
:1004B00061742025700A007468726561642074613B
:1004C000626C652073746172742061742025700AF7
:1004D0000025203564202020253470202020253060
:1004E00032780A003D3D3D3D3D3D3D3D3D3D3D3D7C
:1004F0003D3D3D3D3D3D3D3D0A00494E4445582072
:1005000020204144445220202056414C55450A00A9
:1005100000000A0000110E0000000A0000111F0078
:1005200000000A00000E1100000E1F1111111F0023
:100530000000000000001500000E0E0E1F0E04004B
:100540006469676974616C5F72656164006C6F6394
:100550006B2068656C6420627920616E6F746865D9
:10056000720072656C6561736520756E68656C6498
:10057000206C6F636B0072656C65617365206E75CE
:100580006C6C206C6F636B0069735F68656C6420D2
:100590006E756C6C206C6F636B0061637175697252
:1005A000656420746F6F206D616E792074696D656C
:1005B000730061637175697265206E756C6C206C77
:1005C0006F636B00696E6974206E756C6C206C6F64
:1005D000636B00616E616C6F675F72656164006D73
:1005E000637033303038206661696C006D6370333E
:1005F000303038206661696C006E616E00696E662D
:100600000000407A10F35A00A0724E18090010A59D
:10061000D4E80000E87648170000E40B540200001C
:10062000CA9A3B000000E1F50500008096980000A2
:100630000040420F000000A08601000000102700CB
:10064000000000E803000000006400000000000A51
:1006500000000000000100000000002C76D888DCBB
:10066000674F0823DFC1DFAE59E1B1B796E5E3E498
:1006700053C63AE651997696E8E6C28426EB898C11
:100680009B62ED407C6FFCEFBC9C9F40F2BAA56F73
:10069000A5F490055A2AF75C936B6CF9676DC11B42
:1006A000FCE0E40D47FEF520E6B500D0ED902E030A
:1006B00000943577050080841E080000204E0A0053
:1006C0000000C80C333333330F986E12831141EF9F
:1006D0008D2114893BE65516CFFEE6DB18D1844BFD
:1006E000381BF77C1D901DA4BBE424203284725E6D
:1006F000228100C9F124ECA1E53D270011241FBE91
:10070000CFEFD0E1DEBFCDBF12E0A0E0B1E0E6EA7E
:10071000F2E400E00BBF02C007900D92A032B107D7
:10072000D9F71BBE13E0A0E2B2E001C01D92AA3BC4
:10073000B107E1F70E94AC050C94130B0C94750CF7
:10074000AF92BF92CF92DF92EF92FF920F931F93DF
:100750005B016C0179018A010E945E1E18162CF063
:10076000C801B701A60195010CC0C601B501A801D9
:1007700097010E94F91D9B01AC0160E070E084EBE1
:1007800093E40E94F91D7B018C0120E030E044E3FA
:1007900053E40E94E81F181654F4C801B70120E082
:1007A00030E044EB53E40E94F91D7B018C01B7015A
:1007B000C8011F910F91FF90EF90DF90CF90BF90F5
:1007C000AF900895EF92FF920F931F930E94EB1D3D
:1007D00021EE3EE245E652E40E94EC1F7B018C01D3
:1007E00020E030E040E050E00E945E1E882354F498
:1007F000C801B70120E030E044EB53E40E94FA1D49
:100800007B018C01B701C8011F910F91FF90EF9000
:1008100008952F923F924F925F926F927F928F92A4
:100820009F92AF92BF92CF92DF92EF92FF920F937F
:100830001F93CF93DF936C01EB01FC016084718403
:10084000828493846081718182819381288139813E
:100850004A815B810E94F91D9B01AC010E94EC1F43
:100860007B018C01F60164817581868197812C81E1
:100870003D814E815F810E94F91D9B01AC010E9468
:10088000EC1F9B01AC01C801B7010E94FA1D0E9438
:1008900053201B012C016C817D818E819F81F6018B
:1008A00024813581468157810E94F91DA201910161
:1008B0000E94621E0E94E2035B016C0100D000D026
:1008C00000D080E091E0EDB7FEB792838183638230
:1008D0007482858296820E94D40C8DB79EB706964C
:1008E0000FB6F8949EBF0FBE8DBF88EE93E00E94B6
:1008F000310B00D000D000D08FE091E0EDB7FEB713
:1009000092838183A382B482C582D6820E94D40C52
:100910008DB79EB706960FB6F8949EBF0FBE8DBFDB
:1009200088EE93E00E94310BC401B301A60195014A
:100930000E945E1E18162CF0C601B501A401930199
:100940000CC0C401B301A60195010E94F91D9B01D1
:10095000AC0160E070E084EB93E40E94F91D7B0140
:100960008C0120E030E044E353E40E94E81F1816B5
:1009700054F4C801B70120E030E044EB53E40E9496
:10098000F91D7B018C0100D000D000D080E291E005
:10099000EDB7FEB792838183E382F48205831683E9
:1009A0000E94D40C8DB79EB706960FB6F8949EBFE2
:1009B0000FBE8DBF88EE93E00E94310B00D000D0B7
:1009C00000D081E391E0EDB7FEB79283818323826B
:1009D0003482458256820E94D40C8DB79EB706960B
:1009E0000FB6F8949EBF0FBE8DBF88EE93E00E94B5
:1009F000310BE884F9840A851B85C601B501A8017D
:100A000097010E945E1E18162CF0C801B701A601BE
:100A100095010CC0C601B501A80197010E94F91DFE
:100A20009B01AC0160E070E084EB93E40E94F91D4F
:100A30007B018C0120E030E044E353E40E94E81F96
:100A4000181654F4C801B70120E030E044EB53E439
:100A50000E94F91D7B018C0100D000D000D080E203
:100A600091E0EDB7FEB792838183E382F482058340
:100A700016830E94D40C8DB79EB706960FB6F894D5
:100A80009EBF0FBE8DBF88EE93E00E94310BDF91B9
:100A9000CF911F910F91FF90EF90DF90CF90BF907B
:100AA000AF909F908F907F906F905F904F903F900E
:100AB0002F9008950E9409040895DF93CF93CDB736
:100AC000DEB768970FB6F894DEBF0FBECDBF80E0EB
:100AD00090E0A0E0BFE389839A83AB83BC838D83DE
:100AE0009E83AF83B88780E090E0A0EAB1E4898775
:100AF0009A87AB87BC8780E090E0A0E0B0E48D8768
:100B00009E87AF87B88B80E090E0A0E4B0E4898B4B
:100B10009A8BAB8BBC8B80E090E0A0E0B0E08D8B3B
:100B20009E8BAF8BB88FCE010196BE01635F7F4F66
:100B30000E94090468960FB6F894DEBF0FBECDBFC1
:100B4000CF91DF91089580E00E94A90580E090E0B8
:100B5000089580935F010895CFEFD0E1DEBFCDBF50
:100B60008091200290912102892B21F080E391E075
:100B70000E94A70783E897E090931F0280931E02CC
:100B80000E94D70680911C0290911D029F938F9323
:100B900086E191E09F938F930E94820E80911E02C6
:100BA00090911F029F938F938EEF90E09F938F936E
:100BB0000E94820E80911E0290911F0220911C02C1
:100BC00030911D02821B930B880F991F9F938F9367
:100BD00089EE90E09F938F930E94820E8DB79EB70F
:100BE0000C960FB6F8949EBF0FBE8DBF20911C02CD
:100BF00030911D0280911E0290911F022817390723
:100C000020F084ED90E00E94A7070E94D2110BEB28
:100C100010E01F930F930E94AF121F930F930E9437
:100C2000820E89EB90E09F938F930E94820E0E9428
:100C300066150E94FC0B27E431E040E060E071E0C3
:100C400086E396E00E949F0B0E94F50984EB90E0FA
:100C50000E94A7078DB79EB706960FB6F8949EBF61
:100C60000FBE8DBF80E090E00C94130B0E94A30593
:100C700088E491E09F938F930E94AF120E946615C3
:100C80000E94D21125E531E040E060E071E08DE5A1
:100C900095E00E949F0B0F900F9080915F01882339
:100CA00019F40E94E80AFDCF80E69AEE0E94310B0B
:100CB0008DE391E09F938F930E94AF120E94FB08F7
:100CC0000F900F9080E090E008950F931F93CF93C3
:100CD000DF93CDB7DEB761970FB6F894DEBF0FBED6
:100CE000CDBF8C0141E150E0BC01CE0101960E94D4
:100CF0002B1D198A1F930F9384E691E09F938F9386
:100D00000E94820E80E10E94E9111F930F930E94BE
:100D1000EC128FE10E94E91160E070E083E00E9434
:100D2000FF118DB79EB706960FB6F8949EBF0FBE03
:100D30008DBFFFCF60E070E080E090E00E94D40FB4
:100D400060E372E08AE090E00E94880F0E94EB105E
:100D5000E0E3F2E020E030E081913827032E0294B6
:100D6000902D9F709327832F8025880F807E982752
:100D7000802D8327807F8695032E000C881F369553
:100D8000369536953F7138273227292F82E0E83390
:100D9000F80711F740E050E0809138029091390255
:100DA0002817390711F441E050E0CA0108950E9464
:100DB000710D1F9A80E09BE40E94370E8FEB91E04B
:100DC0009093B9038093B80380E09BE49F938F9343
:100DD00084E791E09F938F930E94820E89E891E0CF
:100DE0009F938F930E94820E0E9483140E94C414CA
:100DF0000E94FF0D0E943A140E9492130E94081351
:100E000086ED91E09093B7038093B6030E94CB0DDB
:100E10000E94740C0E949A062DB73EB72A5F3F4F7E
:100E20000FB6F8943EBF0FBE2DBF882321F48AE190
:100E300092E00E9465068EEC91E09F938F930E9452
:100E4000820E80913002909131029C0130703F936C
:100E50002F93892F99279F938F9383EA91E09F93F4
:100E60008F930E94820E80913202909133029F9361
:100E70008F938EEB91E09F938F930E94820E8091CF
:100E80003002909131029C0130703F932F93892F53
:100E900099279F938F9380E691E09F938F930E9471
:100EA000EC120E94E3142DB73EB72E5E3F4F0FB6F3
:100EB000F8943EBF0FBE2DBF8C549D4120F48EE0B0
:100EC00092E00E9465060E94E3149F938F9380EE48
:100ED00091E09F938F930E94820E609136027091F1
:100EE000370280E091E00E94DB0E0F900F900F9090
:100EF0000F90882321F481E092E00E9465068091A2
:100F0000FF112091FE1199279F938F9333273F93D1
:100F10002F9383EF91E09F938F930E94820E8FE136
:100F20000E94E91160E070E081E00E94FF111E98CC
:100F300064EC79E082EC91E00E9476158DB79EB763
:100F400006960FB6F8949EBF0FBE8DBF0895CF933F
:100F5000DF93CDB7DEB76A970FB6F894DEBF0FBE4A
:100F6000CDBFBC01F894892B41F04AE150E0CE019D
:100F700001960E942B1D1A8E01C0198210929703B0
:100F800010929B0310929A03CE0101969F938F9328
:100F900085E292E09F938F930E94AF120E94FB081C
:100FA0000F900F900F900F906A960FB6F894DEBFD7
:100FB0000FBECDBFDF91CF910895CF93DF93EC01AA
:100FC000F8941092970310929B0310929A030E9438
:100FD000D211209711F4C4E8D1E0DF93CF9380E3DE
:100FE00092E09F938F930E94AF120E94FB080F9094
:100FF0000F900F900F90DF91CF91089583E085BD02
:1010000083E884BD86B7806486BF87B7806487BF66
:1010100008952FB7F8946091220270912302809175
:101020002402909125023FB72078322B3FBF0895CC
:101030003FB7F894609122027091230280912402BC
:10104000909125022FB73078232B2FBF28EE33E065
:1010500040E050E00E94B42008959C01F894E4E838
:10106000F2E041E08081833031F4828593858217FC
:10107000930709F44083BC9683E0EC38F80791F7B6
:101080007894089577278CE291E0689F9001699F9A
:10109000300D789F300D112487EB9FE0821B930B5E
:1010A0000895FF920F931F93CF93DF93FFB6F894A9
:1010B00082E892E09F938F930E94820E00E010E0FE
:1010C000C8E5D2E00F900F902881222369F41F9386
:1010D0000F9384E692E09F938F930E94820E0F906D
:1010E0000F900F900F9020C08A819B81AC81BD81B1
:1010F000BF93AF939F938F93822F99279F938F9343
:101100008C859D859F938F931F930F938BE392E024
:101110009F938F930E94820E8DB79EB70C960FB649
:10112000F8949EBF0FBE8DBF0F5F1F4FAC96073068
:10113000110551F68FB790E8F9228F298FBFDF9103
:10114000CF911F910F91FF9008950F931F938C01E2
:1011500086EE92E09F938F930E94820E82ED92E042
:101160009F938F930E94820EF80180899189AA270C
:10117000BB27BF93AF939F938F9384EC92E09F9391
:101180008F930E94820EF80182899389AA27BB2738
:10119000BF93AF939F938F9386EB92E09F938F9330
:1011A0000E94820EF80184899927AA27BB27BF9342
:1011B000AF939F938F9388EA92E09F938F930E94BF
:1011C000820EF80185899689AA27BB27BF93AF9322
:1011D0009F938F938AE992E09F938F930E94820E50
:1011E0008DB79EB74C960FB6F8949EBF0FBE8DBFBD
:1011F0001F910F910895CF93DF93F8941092A1035C
:101200001092A5031092A403C0E0D0E08C2F0E949E
:10121000F1132196C630D105C9F7FFCF0F931F9365
:10122000CF93DF93EC0108E512E080915802813002
:1012300009F44BC08EEE93E09F938F930E94820E31
:101240008091220290912302A0912402B091250264
:10125000BF93AF939F938F9386EE93E09F938F936B
:101260000E94820E0E5110401F930F93025E1F4F7B
:1012700084ED93E09F938F930E94820E1F930F93B0
:1012800088EB93E09F938F930E94820E80911E02C1
:1012900090911F029F938F9380911C0290911D0249
:1012A0009F938F9382EA93E09F938F930E94820E85
:1012B0008AE993E00E94A7074DB75EB74A5E5F4F89
:1012C0000FB6F8945EBF0FBE4DBF8D8D99272CE2EF
:1012D00031E0A901849F9001859F300D949F300DCE
:1012E000112487EB9FE0821B930B2A893B8982178D
:1012F000930720F481E993E00E94A707898D9A8DD6
:101300002A893B89821B930B2B8D3C8D281739072B
:1013100008F04CC080E893E09F938F930E94820E68
:101320008A899B899F938F938D8D99279F938F9304
:101330008AA59BA59F938F9386E693E09F938F93B7
:101340000E94820ECE010E94A5088D899E899F93DE
:101350008F938CE593E09F938F930E94820E898DEB
:101360009A8D9F938F938EE493E09F938F930E9427
:10137000820E898D9A8D9F938F932B8D3C8D821B2E
:10138000930B01969F938F9384E393E09F938F93A6
:101390000E94820E85E293E00E94A7078DB79EB758
:1013A00048960FB6F8949EBF0FBE8DBFDF91CF91C8
:1013B0001F910F91089590932102809320020E9423
:1013C0000E09E0912002F091210280A191A1A2A139
:1013D000B3A10196A11DB11D80A391A3A2A3B3A3A4
:1013E00061E070E0CF010E940A1DAF92BF92CF92E0
:1013F000DF92EF92FF920F931F93CF93DF93E091D1
:101400002002F0912102309719F4AA24BB2403C0D2
:10141000858DA82EBB2481E0C82ED12C750108949F
:10142000E11CF11CC70167E070E00E94D3208C0131
:10143000892B09F455C08CE290E0089FE001099FD8
:10144000D00D189FD00D1124C65CDD4F8E8D8430D9
:10145000B1F4209122023091230240912402509154
:1014600025028CA19DA1AEA1BFA1281739074A076B
:101470005B0750F081E08E8FCE010E94DB098E8DDC
:10148000813011F4CE012AC06CE270E0A69EF0011A
:10149000A79EF00DB69EF00D1124E65CFD4F868DE3
:1014A0008430F1F4209122023091230240912402F1
:1014B0005091250284A195A1A6A1B7A128173907AB
:1014C0004A075B0768F081E0868F069FC001079F8F
:1014D000900D169F900D1124865C9D4F0E94DB0994
:1014E0000894C11CD11C0894E11CF11C88E0C816AA
:1014F000D10409F097CF80915802813021F48AE31A
:1015000092E00E94DB09F89400E010E0C8E5D2E028
:101510008881882369F41F930F9380E694E09F935A
:101520008F930E94820E0F900F900F900F9022C009
:1015300099279F938F938C859D859F938F931F935E
:101540000F938FE394E09F938F930E94820E8DB749
:101550009EB708960FB6F8949EBF0FBE8DBF8881C8
:10156000813041F48DE094E09F938F930E94820E2E
:101570000F900F900F5F1F4FAC960730110541F68B
:1015800084E094E00E94A707DF91CF911F910F9113
:10159000FF90EF90DF90CF90BF90AF900895809133
:1015A000200290912102892B21F483E193E00E9493
:1015B000A70780912002909121020E94EA1C892BAA
:1015C00031F461E070E08EE693E00E940A1D089518
:1015D000F8941F920F922F933F934F935F936F93C3
:1015E0007F938F939F93AF93BF93EF93FF938091DC
:1015F000200290912102892B21F48DE093E00E943A
:10160000A7070E94CF0AFF91EF91BF91AF919F91E1
:101610008F917F916F915F914F913F912F910F909B
:101620001F90789408950E94E80AFDCFCF93DF932E
:10163000EC01F8948091200290912102892B21F4F1
:1016400087E093E00E94A707E0912002F091210239
:10165000D1A7C0A783E0868F0E94E80ADF91CF91CF
:101660000895EF92FF920F931F938C010FB607FC22
:1016700037C0B801882777FD8095982F0E94F81E03
:1016800017FF06C020E030E040E857E40E94FA1D52
:1016900020E030E04AEF54E40E94EC1F7B018C0113
:1016A00020E030E040E85FE30E945E1E88231CF4E7
:1016B00081E090E012C020E03FEF4FE757E4C8011F
:1016C000B7010E94E81F18161CF480E090E005C0E6
:1016D000C801B7010E94CA1ECB010197F1F720C0D3
:1016E000F894E0912002F091210284E0868F8091AD
:1016F000220290912302A0912402B0912502E09150
:101700002002F0912102980144275527820F931F50
:10171000A41FB51F84A395A3A6A3B7A30E94E80A9C
:101720001F910F91FF90EF9008950E94510888EB50
:101730009BE00E94310BF9CF0E94E80AFDCF0F9386
:101740001F93CF93DF938C016FB7F89440E050E084
:10175000E8E5F2E08081882359F04F5F5F4FBC9647
:1017600047305105B9F788EF92E00E94A707FFCFF5
:101770008CE290E0489FD001499FB00D589FB00D7A
:101780001124A65CBD4F81E0ED018E8F3BA72AA7F7
:10179000FD0110A211A212A213A22CE231E0348F9B
:1017A000238F89E119928A95E9F7842F9927F90106
:1017B0008E9F90018F9F300D9E9F300D1124E7EB7F
:1017C000FFE0E21BF30B23E13BE020833197232F63
:1017D000332720833197ED01FB8BEA8B1E8B0D8B1A
:1017E0002C8920682C8B2FB76078262B2FBFDF9198
:1017F000CF911F910F910895EF92FF920F931F9336
:10180000CF93DF930AE312E01F930F9387EB94E0EB
:101810009F938F930E94820E8EE693E09F938F9307
:101820008FE994E09F938F930E94820EE801EE244B
:10183000FF2407EB1FE08DB79EB708960FB6F8940C
:101840009EBF0FBE8DBFED8E1E8EC8011A8F098FF1
:1018500018A219A21AA21BA20C5211401F930F9397
:101860009F938F93FF92EF9288E894E09F938F93DA
:101870000E94820E0894E11CF11CAC968DB79EB7B5
:1018800008960FB6F8949EBF0FBE8DBF97E0E9167D
:10189000F104C9F625E831E040E060E071E08CE950
:1018A0009BE00E949F0B80915802882321F48EE7D1
:1018B00094E00E94A7078EE693E00E94EA1C8FEF57
:1018C00090E1909381038093800385EF99E090935A
:1018D0008403809383030E94FE07DF91CF911F91C1
:1018E0000F91FF90EF90089508951F920F920FB6F9
:1018F0000F9211242F933F934F935F936F937F9396
:101900008F939F93AF93BF93EF93FF938AE891E0F8
:101910000E94A707FF91EF91BF91AF919F918F9187
:101920007F916F915F914F913F912F910F900FBEDB
:101930000F901F9018951F920F920FB60F921124BF
:101940002F933F934F935F936F937F938F939F93C7
:10195000AF93BF93EF93FF9383E884BD80912202FE
:1019600090912302A0912402B09125020196A11D1D
:10197000B11D8093220290932302A0932402B0937E
:1019800025020E94CF0AFF91EF91BF91AF919F91E5
:101990008F917F916F915F914F913F912F910F9018
:1019A0000FBE0F901F901895CF92DF92EF92FF928B
:1019B0000F931F93CF93DF93CDB7DEB722970FB668
:1019C000F894DEBF0FBECDBF8E01035F1F4FF8013D
:1019D000E190F1908F0187E9C82E83E0D82EC601EF
:1019E0000E9481161A830983A801B70186ED91E050
:1019F0000E9487178C01C6010E941B16C8012296FF
:101A00000FB6F894DEBF0FBECDBFDF91CF911F910F
:101A10000F91FF90EF90DF90CF900895FF920F937A
:101A20001F93CF93DF938C01F62E8AEF94E09F9360
:101A30008F930E94820E84EE94E09F938F930E9476
:101A4000820EE80100E010E00F900F900F900F90D1
:101A500019C0888199279F938F93DF93CF931F930A
:101A60000F9381ED94E09F938F930E94820E0F5FFE
:101A70001F4F21968DB79EB708960FB6F8949EBF5C
:101A80000FBE8DBF8F2D99270817190714F3DF910B
:101A9000CF911F910F91FF900895CF93DF93EC01A9
:101AA000892BD1F00E94D211DF93CF938CE991E082
:101AB0009F938F930E94EC12DF93CF938FE991E075
:101AC0009F938F930E94BF0E8DB79EB708960FB657
:101AD000F8949EBF0FBE8DBF0E946615DF91CF9117
:101AE000089585B7806885BFECE6F0E080818F7748
:101AF0008083EDE6F0E080818D7F808385B78F7BEA
:101B000085BF83EF87BBC69A8CEF81BB8EEC82B911
:101B100083B1806383B98DE080936100109264008B
:101B2000E2E6F0E08081846080831A9AC09A808126
:101B3000816080831B9A0895EF92FF920F931F9309
:101B4000CF93DF938C017B01EA0187E893E00E9449
:101B5000811607950027079500640E2907B987EDC0
:101B600086B9349BFECF349A24B185B133279927A7
:101B7000982F8827282B392B3983288387E893E0EF
:101B80000E941B1680E090E0DF91CF911F910F9192
:101B9000FF90EF90089563EA71E087E893E00E9478
:101BA0006B1608959C01369527956065622B6DB97B
:101BB00080FF02C0709A01C0709887B3876087BBAE
:101BC0000895AC0120E00AC0FA01E20FF11D808106
:101BD0008FB9779BFECF8FB180832F5F2617A1F738
:101BE00080E090E008958CE893E00E941B16089531
:101BF0008CE893E00E94811680E090E008956CEA02
:101C000071E08CE893E00E946B1608951E9A5D9B2C
:101C1000FECF8CB91E98992787FD909508951F9344
:101C2000182F8A3019F48DE00E940F0E812F0E9428
:101C3000060E1F910895CF93DF93EC0103C0219608
:101C40000E94060E88818823D1F7DF91CF910895F5
:101C50001E9A5F9BFECF1E988CB1992787FD9095A9
:101C600008958BB18078992787FD909508959C0100
:101C70004427552794E0220F331F441F551F9A9580
:101C8000D1F760E072E18AE790E00E94E620822FBF
:101C9000815089B92150304040405040232F342F8B
:101CA000452F5527209390001BB886E08093950020
:101CB00088E18AB965EB71E081E993E00E946B16D7
:101CC0000895CF92DF92EF92FF920F931F936C01D2
:101CD0008B0121E9E22E23E0F22EC7010E9481163A
:101CE000A801B6018FEB91E00E947C1D8C01C70119
:101CF0000E941B16C8011F910F91FF90EF90DF907B
:101D0000CF900895CF93DF93CDB7DEB722970FB66C
:101D1000F894DEBF0FBECDBFFE0137968191919141
:101D2000FA83E983BF010E94610E22960FB6F894F0
:101D3000DEBF0FBECDBFDF91CF910895CF92DF926E
:101D4000EF92FF920F931F936C018B0131E9E32E09
:101D500033E0F32EC7010E948116A801B6018FEB74
:101D600091E00E9487178C01C7010E941B16C801D1
:101D70001F910F91FF90EF90DF90CF900895CF9338
:101D8000DF93CDB7DEB722970FB6F894DEBF0FBE54
:101D9000CDBFFE01379681919191FA83E983BF010E
:101DA0000E949E0E22960FB6F894DEBF0FBECDBFE6
:101DB000DF91CF910895DF92EF92FF920F931F93DF
:101DC000CF93DF93CDB7DEB728970FB6F894DEBF79
:101DD0000FBECDBF8C017B01B801882799270E94D7
:101DE000D40F8F3FC9F3C69880E08A95F1F7C69A61
:101DF00000E010E041C00E945A0F682F0F5F1F4F94
:101E0000807C803C19F041E0D42E08C03FE3D32E03
:101E1000D6220E945A0F682F0F5F1F4F40E050E0FC
:101E2000A1E0B0E0FE01319627E030E0CD01022EC6
:101E300002C0880F991F0A94E2F7862381934F5FAF
:101E40005F4F215030404830510581F790E012C07B
:101E5000FE0131969E01275F3F4F8081882311F05C
:101E6000C59A01C0C598C79AC7983196E217F3077B
:101E7000A1F79F5F9D1561F70E151F0508F4BBCFF5
:101E80000E94EB1080916300992723E09695879537
:101E90002A95E1F78170907028960FB6F894DEBF0E
:101EA0000FBECDBFDF91CF911F910F91FF90EF90AB
:101EB000DF9008951F93CF93DF93CDB7DEB72297BE
:101EC0000FB6F894DEBF0FBECDBF61E0CE01019624
:101ED0000E94E10D809196038F3F49F410E061E08C
:101EE000CE0102960E94E10D1F5F1830C1F780916C
:101EF00096038F5F809396038981992722960FB668
:101F0000F894DEBF0FBECDBFDF91CF911F91089532
:101F1000EF92FF920F931F93CF93DF937C01C0E06A
:101F2000D0E08B0106C00E945A0FF80181938F0107
:101F30002196CE15DF05B9F780E090E0DF91CF91D3
:101F40001F910F91FF90EF900895CF93DF93CDB73E
:101F5000DEB721970FB6F894DEBF0FBECDBF87ED79
:101F60008983809162008B7F8093620061E0CE0163
:101F700001960E94E10D61E0CE0101960E94E10D03
:101F8000898187FFF8CF809162008460809362002E
:101F900082E08A95F1F721960FB6F894DEBF0FBE66
:101FA000CDBFDF91CF910895EF92FF920F931F93D2
:101FB000CF93DF93CDB7DEB724970FB6F894DEBF8B
:101FC0000FBECDBF7B018C010E94F80D8F3F19F42D
:101FD0008FEF9FEF2EC060E081E090E00E94D20D75
:101FE00088EE8983D801C7012FE0B695A79597950C
:101FF00087952A95D1F78A83BB27A12F902F8F2D04
:10200000880F8B83E0929603EC820E94A50F80914B
:1020100062008B7F8093620064E08E010F5F1F4F30
:10202000C8010E94E10D64E0C8010E94E10D80E05A
:1020300090E024960FB6F894DEBF0FBECDBFDF91BF
:10204000CF911F910F91FF90EF9008958F929F92E3
:10205000AF92BF92CF92DF92EF92FF920F931F93B6
:10206000CF93DF93CDB7DEB724970FB6F894DEBFDA
:102070000FBECDBF6B017C014A0159010E94F80DD2
:102080008F3F19F42FEF3FEF3EC060E081E090E01A
:102090000E94D20D84E889831A821B82CC828091AF
:1020A00062008B7F8093620064E0CE0101960E9403
:1020B000E10D2C2D3327C9018A0D9B1D81509140C4
:1020C00028F0A12C41E0B42EA21AB30A00E010E0DF
:1020D00074010BC0F70181917F01898361E0CE011A
:1020E00001960E94E10D0F5F1F4F0A151B0591F726
:1020F0008091620084608093620082E08A95F1F7AB
:102100000E94F30D9501C90124960FB6F894DEBF25
:102110000FBECDBFDF91CF911F910F91FF90EF9038
:10212000DF90CF90BF90AF909F908F900895EF92E7
:10213000FF920F931F93CF93DF93CDB7DEB7249712
:102140000FB6F894DEBF0FBECDBF7B018C010E949D
:10215000F80D8F3F19F48FEF9FEF30C060E081E002
:1021600090E00E94D20D83E58983D801C7016FE01A
:10217000B695A795979587956A95D1F78A83BB27DA
:10218000A12F902F8F2D880F8B831C820E94A50F6B
:10219000809162008B7F8093620064E0CE010196A3
:1021A0000E94E10D8091620084608093620082E071
:1021B0008A95F1F70E94F30D80E090E024960FB627
:1021C000F894DEBF0FBECDBFDF91CF911F910F916D
:1021D000FF90EF900895E2E6F0E0808184608083D4
:1021E00082E08A95F1F70E94F30D08950F931F93F3
:1021F000CF93DF93CDB7DEB722970FB6F894DEBF4B
:102200000FBECDBF8C0187ED89831A820E94F80D25
:102210008F3F19F48FEF9FEF1EC060E081E090E0E8
:102220000E94D20D809162008B7F8093620062E0F9
:10223000CE0101960E94E10D80916200846080933E
:10224000620082E08A95F1F70E94F30D8A81F8011D
:10225000808380E090E022960FB6F894DEBF0FBE38
:10226000CDBFDF91CF911F910F910895EF92FF9213
:102270000F931F93CF93DF93CDB7DEB724970FB69D
:10228000F894DEBF0FBECDBF7B018C010E94F80D1C
:102290008F3F19F48FEF9FEF30C060E081E090E056
:1022A0000E94D20D83E88983D801C701EFE0B6957B
:1022B000A79597958795EA95D1F78A83BB27A12F94
:1022C000902F8F2D880F8B831C820E94A50F8091E9
:1022D00062008B7F8093620064E0CE0101960E94D1
:1022E000E10D8091620084608093620082E08A95B3
:1022F000F1F70E94F30D80E090E024960FB6F89479
:10230000DEBF0FBECDBFDF91CF911F910F91FF9028
:10231000EF90089580912602992708950F931F93B7
:10232000082F162F87E993E00E948116812F82954E
:102330008F70002329F0979A880F880F806C04C053
:102340009798880F880F806482BB80ED97E0FC012E
:102350003197F1F796980197F1F7612F77270023CE
:1023600049F06F707070660F771F660F771F862FAA
:10237000806C08C06F707070660F771F660F771FD4
:10238000862F806482BB80ED97E0FC013197F1F7E6
:1023900096980197F1F787E993E00E941B161F9129
:1023A0000F9108950F931F9307E913E0C8010E944E
:1023B000811661E080E00E948E1162E080E00E9460
:1023C0008E1110922602C8010E941B161F910F91B8
:1023D00008951F93182F87E993E00E9481161093A8
:1023E0002602103108F0105D1068612F80E00E9415
:1023F0008E1187E993E00E941B161F9108951F9389
:10240000182F87E993E00E94811680912702882384
:1024100039F00E94D21180E00E94E9111092270247
:102420001A3031F481E0809327021092260211C005
:10243000612F81E00E948E11809126028F3021F45D
:1024400060EC80E00E948E11809126028F5F809365
:10245000260287E993E00E941B16812F992787FDAA
:1024600090951F9108950F931F93CF93DF93EC01E5
:1024700087E993E00E94811600E010E01AC02196DF
:102480006A3039F460E880E00E948E1110922602D2
:1024900003C081E00E948E110F3021F460EC80E0D7
:1024A0000E948E11809126028F5F809326020F5F1B
:1024B0001F4F6881662319F787E993E00E941B1676
:1024C000DF91CF911F910F910895FF920F931F936A
:1024D000CF93DF93F82E8B0187E993E00E9481165A
:1024E000FF0CFF0CFF0CE80100E06F2D600F606433
:1024F00080E00E948E11FE01649181E00E948E11A5
:102500000F5F2196083089F787E993E00E941B1638
:10251000DF91CF911F910F91FF900895CF92DF929D
:10252000EF92FF920F931F936C018B0127E9E22E2C
:1025300023E0F22EC7010E948116A801B60186EDA4
:1025400091E00E947C1D8C01C7010E941B16C801EE
:102550001F910F91FF90EF90DF90CF900895CF9350
:10256000DF93CDB7DEB722970FB6F894DEBF0FBE6C
:10257000CDBFFE01379681919191FA83E983BF0126
:102580000E948E1222960FB6F894DEBF0FBECDBF0A
:10259000DF91CF910895CF92DF92EF92FF920F9348
:1025A0001F936C018B0137E9E32E33E0F32EC70153
:1025B0000E948116A801B60186ED91E00E9487175E
:1025C0008C01C7010E941B16C8011F910F91FF903B
:1025D000EF90DF90CF900895CF93DF93CDB7DEB724
:1025E00022970FB6F894DEBF0FBECDBFFE0137961F
:1025F00081919191FA83E983BF010E94CB122296C7
:102600000FB6F894DEBF0FBECDBFDF91CF91089516
:1026100080E090E00197F1F763E380E00E948E1183
:1026200062E380E00E948E1160E175E081E00E942B
:10263000651268E175E082E00E94651260E275E073
:1026400083E00E94651268E275E084E00E946512F2
:1026500060E375E085E00E94651268E375E086E05E
:102660000E94651261E080E00E948E1162E080E0CD
:102670000E948E1166E080E00E948E116CE080E086
:102680000E948E116DEC71E087E993E00E946B1659
:1026900008950895CF92DF92EF92FF920F931F93C8
:1026A000082F7B019CE9C92E93E0D92EC6010E9418
:1026B0008116000F005E112700501F4EF801E192B5
:1026C000EF2CFF24E082C6010E941B161F910F9180
:1026D000FF90EF90DF90CF900895FF920F931F939C
:1026E000F82E8B01B801882777FD8095982F0E94DE
:1026F000F81E17FF06C020E030E040E857E40E94D3
:10270000FA1D21E632EC44E85FE30E94EC1F0E94D0
:10271000CA1E6F5B7F4F8F2D0E944A131F910F912E
:10272000FF90089564EE71E08CE993E00E946B16CF
:1027300008951F93CF93DF93CDB7DEB728970FB6D9
:10274000F894DEBF0FBECDBF182F81EA93E00E9440
:102750008116DE011396EAEFF1E086E001900D921A
:102760008150E1F7FE01E10FF11D63817727685F7A
:102770007F4FAE014F5F5F4F80E090E00E94B81640
:1027800081EA93E00E941B1689819A8128960FB6F0
:10279000F894DEBF0FBECDBFDF91CF911F9108959A
:1027A0000F931F930E9499138C01B801882777FD1E
:1027B0008095982F0E94F81E17FF06C020E030E099
:1027C00040E857E40E94FA1D28E431EE40E851E465
:1027D0000E94EC1F0E94CA1EDC01CB011F910F91C9
:1027E0000895FF920F931F93F82E01EA13E0C8019A
:1027F0000E948116FF0CEF2DFF27E050FF4E83E073
:102800008083C8010E941B161F910F91FF900895AD
:102810001F93CF93DF93182FEB0181EA93E00E947F
:102820008116110F1C161D0634F4E12FFF27E0500E
:10283000FF4E81E007C0E12FFF27209729F0E050ED
:10284000FF4E82E0808303C0E050FF4E1082E12FF4
:10285000FF27EF5FFE4EBE01D7FF03C07095619565
:102860007F4F608381EA93E00E941B16DF91CF9136
:102870001F9108956FEE71E081EA93E00E946B165C
:102880000895EF92FF921F9386EAE82E83E0F82ED8
:10289000C7010E94811610911E11C7010E941B16CC
:1028A0001095812F99271F91FF90EF9008951F9306
:1028B000182F8830A8F486EA93E00E948116809150
:1028C0001E1199278095909502C0959587951A9528
:1028D000E2F7182F117086EA93E00E941B160FC0D2
:1028E000883140F40E943A1710E08150924038F04D
:1028F00011E005C080E495E00E94A70710E0812F59
:1029000099271F91089560E072E086EA93E00E94A3
:102910006B160895EF92FF920F931F93082F3BEAD7
:10292000E32E33E0F32EC7010E948116A02FBB27B0
:10293000AA0FBB1FEA2FE452FF27E050FF4E819100
:1029400000811127102F00279927082B192BA85039
:10295000BE4F8D919C91081B190BC7010E941B163D
:10296000C8011F910F91FF90EF9008951F93182FAA
:102970000E948A14E12FFF27EE0FFF1FE850FE4F41
:10298000918380831F9108956DE072E08BEA93E05C
:102990000E946B16089581B1992725E09695879539
:1029A0002A95E1F78095909581709070089581B196
:1029B000992734E0969587953A95E1F7809590951B
:1029C0008170907008950F931F93CF93DF93CDB7CD
:1029D000DEB722970FB6F894DEBF0FBECDBFAE01B3
:1029E0004F5F5F4F6FE070E080E090E00E94B816AC
:1029F00009811A81B801882777FD8095982F0E9458
:102A0000F81E17FF06C020E030E040E857E40E94BF
:102A1000FA1D2CE135E441E251E40E94EC1F0E94D2
:102A2000CA1EDC01CB0122960FB6F894DEBF0FBEA2
:102A3000CDBFDF91CF911F910F910895CF93DF9379
:102A4000CDB7DEB722970FB6F894DEBF0FBECDBF6D
:102A5000AE014F5F5F4F61E070E080E090E00E9468
:102A60009C0D89819A8122960FB6F894DEBF0FBE25
:102A7000CDBFDF91CF910895CF92DF92EF92FF9279
:102A80000F931F936C017B010E941E15AA27BB2781
:102A9000EC18FD080894E11CF11C00271127BC016B
:102AA000CD01A80197010E94B4204AE09695879530
:102AB000779567954A95D1F7C60ED71EC6011F9127
:102AC0000F91FF90EF90DF90CF9008950D99FECF7A
:102AD00080E08A95F1F70D9BFECF08950C99FECF0B
:102AE00080E08A95F1F70C9BFECF08952F923F92DC
:102AF0004F925F926F927F928F929F92AF92BF920E
:102B0000CF92DF92EF92FF920F931F93CF93DF93B9
:102B10007B019C014427552760E874E88EE190E032
:102B20000E94E620E901C9019695879596958795BB
:102B30001C014424552400271127C801B7012CE2A9
:102B400031E040E050E00E94B4203B014C01AA2457
:102B5000BB24650157C0C49ABE01882777FD8095C4
:102B6000982F0E94F81ED7FF06C020E030E040E812
:102B700057E40E94FA1D2BEA3AEA4AE250E40E9426
:102B8000EC1F7B018C0120E030E040E85FE30E9415
:102B90005E1E882314F461E010C020E030E04FE7AF
:102BA00053E4C801B7010E94E81F181614F460E04E
:102BB00004C0C801B7010E94CA1E6A95F1F7C49803
:102BC00020E030E040E85FE3C801B7010E945E1EEC
:102BD000882314F461E010C020E030E04FE753E4B4
:102BE000C801B7010E94E81F181614F460E004C081
:102BF000C801B7010E94CA1E6A95F1F7A20CB31C66
:102C0000C41CD51CA614B704C804D90408F4A3CF67
:102C1000DF91CF911F910F91FF90EF90DF90CF90B8
:102C2000BF90AF909F908F907F906F905F904F90EC
:102C30003F902F9008951F93CF93DF93EC01892B42
:102C400021F486E795E00E94A7071FB7F8948881D2
:102C5000882321F482E695E00E94A7072B813C811E
:102C600080912002909121022817390721F08DE4EC
:102C700095E00E94A707888181508883882311F4FA
:102C80001C821B828FB71078812B8FBFDF91CF9171
:102C90001F910895CF93DF93EC01892B21F488E8ED
:102CA00095E00E94A70720912002309121028B819C
:102CB0009C812817390719F080E090E009C090E066
:102CC0008881882309F491E081E09827892F99274A
:102CD000DF91CF9108950F931F93CF93DF93EC0172
:102CE0008B01892B21F484EC95E00E94A7071882C0
:102CF0001A8309831C821B82DF91CF911F910F9150
:102D00000895CF93DF93EC01892B21F482EB95E0BA
:102D10000E94A70788818F3F21F48AE995E00E94ED
:102D2000A7075FB75078F8942B813C8180912002EF
:102D30009091210248812817390719F44F5F488381
:102D40000AC0442361F481E088838091200290913D
:102D500021029C838B838FB7852B8FBF06C08FB7D3
:102D6000852B8FBF0E94E80ADCCFDF91CF910895B9
:102D7000CF92DF92EF92FF920F931F93CF93DF9347
:102D8000CDB7DEB723970FB6F894DEBF0FBECDBF29
:102D90008C017B016A010E94F80D8F3F19F48FEFBF
:102DA0009FEF59C08E2D880F880F8064898360E063
:102DB00082E090E00E94D20D0130110571F00130E7
:102DC000110520F002301105D1F40EC01A9863E00D
:102DD000CE0101960E94E10D21C0C09863E0CE01B2
:102DE00001960E94E10D1CC0809162008E7F80934D
:102DF000620063E0CE0101960E94E10D13C063E022
:102E0000CE0101960E94E10D0130110549F001301B
:102E1000110520F00230110551F404C01A9A07C0C0
:102E2000C09A05C0809162008160809362008A81AF
:102E30009927982F88272B813327822B932B26E0E5
:102E4000969587952A95E1F7F601918380830E94F4
:102E5000F30D80E090E023960FB6F894DEBF0FBE2E
:102E6000CDBFDF91CF911F910F91FF90EF90DF9039
:102E7000CF9008951F93CF93DF93CDB7DEB72297FE
:102E80000FB6F894DEBF0FBECDBF182F8850883024
:102E900038F014C08CEE95E00E94A7070E94E80A63
:102EA00067E170E0611B7109AE014F5F5F4F81E028
:102EB00090E00E94B816882369F71DC0812F8051C9
:102EC000883038F014C08FED95E00E94A7070E946B
:102ED000E80A6FE170E0611B7109AE014F5F5F4F5F
:102EE00082E090E00E94B816882369F704C083ED61
:102EF00095E00E94A70789819A8122960FB6F894DF
:102F0000DEBF0FBECDBFDF91CF911F910895A1E12C
:102F1000B0E0EDE8F7E10C9408213C017F876E8773
:102F20006A01FC0117821682838181FD03C06FEF65
:102F30007FEF71C39E012F5F3F4F398B288BF301C9
:102F40002381EE85FF8523FD859123FF8191FF87F6
:102F5000EE87882309F45CC3853251F4EE85FF8542
:102F600023FD859123FF8191FF87EE87853229F428
:102F700090E0B3010E94501DE2CF982F10E088240A
:102F800099241032B0F49B3269F09C3228F49032CC
:102F900051F0933271F40BC09D3239F0903349F403
:102FA000116028C01260146025C0186023C0106131
:102FB00021C017FD2AC0892F80538A3078F416FF6C
:102FC00006C0FAE09F9E902C1124980E13C03AE0A0
:102FD000839E802C1124880E10620CC09E3221F436
:102FE00016FD16C3106406C09C3611F4106802C0AA
:102FF000983659F4EE85FF8523FD959123FF919135
:10300000FF87EE87992309F0BCCF892F8554833041
:1030100020F4812F8061905E07C0892F8556833010
:1030200008F0A1C1812F8F7E86FD02C076E0972E29
:103030006FE3F62EF822953619F4F0E4FF2A07C064
:10304000963619F420E8F22A02C091109A94F7FEFD
:103050000BC03BE3391520F427E05CE3B52E0EC02E
:10306000B92CB39427E00AC047E0491528F427E0BB
:10307000BB2447E0942E02C0292DBB24C601049630
:103080009D878C87F6016081718182819381AE0179
:103090004F5F5F4F0B2D0E94121C6C010981202E87
:1030A000332400FF04C003FD02C01DE209C0F1FE8D
:1030B00002C01BE205C0F2FC02C010E001C010E239
:1030C000C1018C709070892BB9F1112311F483E048
:1030D00001C084E0881510F088240AC0881AF3FC27
:1030E00007C080E290E0B3010E94501D8A94C9F7A6
:1030F000112329F0812F90E0B3010E94501D23FE7F
:1031000003C009EF15E00EC00DEF15E00BC0E11490
:10311000F10409F0805290E0B3010E94501D0F5F4E
:103120001F4F05C0EF2CFF24F0E1EF22FF24F80130
:103130008491882361F714C1F7FE12C0BC0C24FEF1
:1031400004C08A81813309F4BA941B141CF0BB2497
:10315000B3942DC0F8E0FB1550F538E0B32E27C02E
:10316000F6FC25C0892D90E08C159D054CF02CEFC8
:10317000C2162FEFD20624F030E8F32A01C09A9449
:10318000992049F0E2E0F0E0EC0FFD1FE90DF11DA0
:1031900080818033A1F3F7FE0AC0B92CB394892D46
:1031A00090E0C816D90614F0992401C09C18F7FCC9
:1031B00003C025E030E009C01C141D041CF021E010
:1031C00030E003C096012F5F3F4F112311F02F5FB6
:1031D0003F4F992029F0892D90E00196280F391F43
:1031E000882D90E02817390714F0882401C0821A2E
:1031F0004F2C5524C20189709070892B39F008C07A
:1032000080E290E0B3010E94501D8A948820C1F7AB
:10321000112329F0812F90E0B3010E94501D43FE3D
:1032200007C008C080E390E0B3010E94501D8A945B
:103230008820C1F7F7FE46C08601D7FE02C000E035
:1032400010E076010894E11CF11CE01AF10A41E05B
:1032500050E04C0F5D1FE40EF51E26014B1851087F
:10326000892D90E0AA24BB24A81AB90A5FEF0F3F6A
:10327000150729F48EE290E0B3010E94501DC0169C
:10328000D10634F0401651061CF4F701808101C0CC
:1032900080E3015010400894E11CF11C0A151B0545
:1032A0002CF090E0B3010E94501DE0CF0C151D05DD
:1032B00039F49A81963318F4953311F424FE81E39E
:1032C00090E04BC08A81813309F00F7E90E0B3011A
:1032D0000E94501D9920A1F08EE290E0B3010E945F
:1032E000501D12E0E1E0F0E0EC0FFD1FE10FF11DD9
:1032F0001F5F808190E0B3010E94501D9A9491F766
:1033000044FC03C085E690E002C085E490E0B30190
:103310000E94501DD7FC05C0C114D10441F404FF24
:1033200006C0D094C194D108D3948DE201C08BE241
:1033300090E0B3010E94501D80E305C08F5F26EF2F
:103340003FEFC20ED31E3AE0C316D104BCF790E0A3
:10335000B3010E94501DC601C096B3010E94501DCA
:10336000CC84DD8452C1933631F0933799F0933594
:1033700009F059C023C0F601808189835E01089459
:10338000A11CB11C22E030E0C20ED31E21E0E22ECF
:10339000F12C12C0F601A080B18016FD03C06FEFC2
:1033A0007FEF02C0692D70E022E030E0C20ED31E34
:1033B000C5010E94451D7C011F7713C0F601A08046
:1033C000B18016FD03C06FEF7FEF02C0692D70E082
:1033D00022E030E0C20ED31EC5010E943A1D7C01DE
:1033E000106813FF07C01BC080E290E0B3010E9489
:1033F000501D8A94882D90E0E816F906A8F30FC0B6
:10340000F50117FD859117FF81915F0190E0B301F0
:103410000E94501D81108A940894E108F108E1147B
:10342000F10471F7F2C0943611F0993689F517FF5F
:1034300008C0F601208131814281538184E090E00F
:103440000AC0F601808191819C01442737FD409597
:10345000542F82E090E0C80ED91E9FE6F92EF1228B
:1034600057FF09C050954095309521953F4F4F4FDC
:103470005F4F90E8F92ACA01B901AE014F5F5F4F73
:103480002AE030E00E948D1DE82EE889EE1A41C046
:10349000953721F41F7E2AE030E01CC0197F9F364B
:1034A00061F0903720F4983509F0B2C00FC0903722
:1034B00039F0983709F0ACC004C028E030E00AC009
:1034C000106114FD146020E130E004C014FD1660AA
:1034D00020E132E017FF08C0F6016081718182812E
:1034E000938144E050E008C0F60180819181BC01E5
:1034F00080E090E042E050E0C40ED51EAE014F5F88
:103500005F4F0E948D1DE82E5889E51A8FE7F82E2F
:10351000F122F6FE0BC08EEFF822E91438F4F4FE27
:1035200007C0F2FC05C09FEEF92202C01E2D01C0AB
:10353000192DF4FE0DC0FE01EE0DF11D80818033CA
:1035400019F4E9EEFE2208C01F5FF2FE05C003C0B9
:103550008F2D867809F01F5F0F2DF3FC14C0F0FE4D
:103560000FC0181510F09E2C0BC09E2C980C911AB1
:10357000182D06C080E290E0B3010E94501D1F5F2D
:103580001815C0F304C0181510F4811A01C088245E
:1035900004FF0FC080E390E0B3010E94501D02FFC2
:1035A0001DC001FD03C088E790E00EC088E590E0F3
:1035B0000BC0802F867891F001FF02C08BE201C022
:1035C00080E2F7FC8DE290E0B3010E94501D06C03E
:1035D00080E390E0B3010E94501D9A94E914C0F377
:1035E000EA94E1E0F0E0EC0FFD1FEE0DF11D8081AB
:1035F00090E0B3010E94501DEE2091F706C080E2DA
:1036000090E0B3010E94501D8A948820C1F797CCA6
:10361000F30166817781CB016196E2E10C9424216C
:10362000CF93DF93BC018230910510F462E070E02B
:10363000A091B203B091B303ED01E0E0F0E040E00F
:1036400050E021C0888199818617970769F48A81A3
:103650009B81309719F09383828304C09093B303C6
:103660008093B203FE0134C06817790738F441151E
:10367000510519F08417950708F4AC01FE018A8101
:103680009B819C01E9012097E9F641155105A9F1BB
:10369000CA01861B970B049708F4BA01E0E0F0E03A
:1036A0002AC08D919C91119784179507F9F464179E
:1036B000750781F412968D919C911397309719F0AC
:1036C0009383828304C09093B3038093B203FD017C
:1036D00032964CC0CA01861B970BFD01E80FF91FFB
:1036E0006193719302978D939C9340C0FD018281F9
:1036F00093819C01D9011097A1F68091B00390911C
:10370000B103892B41F480911C0290911D0290938A
:10371000B1038093B00340911E0250911F024115E6
:10372000510541F44DB75EB780911A0290911B028A
:10373000481B590B2091B0033091B103CA01821B81
:10374000930B8617970780F0AB014E5F5F4F84178E
:10375000950750F0420F531F5093B1034093B003AD
:10376000F9016193719302C0E0E0F0E0CF01DF91D5
:10377000CF910895CF93DF93009709F450C0EC01E7
:1037800022971B821A82A091B203B091B3031097C3
:1037900009F140E050E0AC17BD0708F1BB83AA83F4
:1037A000FE0121913191E20FF31FAE17BF0779F4AB
:1037B0008D919C911197280F391F2E5F3F4F3983B0
:1037C000288312968D919C9113979B838A83411530
:1037D000510571F4D093B303C093B20320C0129685
:1037E0008D919C911397AD01009711F0DC01D3CF1F
:1037F000FA01D383C28321913191E20FF31FCE17D7
:10380000DF0769F488819981280F391F2E5F3F4FA8
:10381000FA01318320838A819B8193838283DF91A4
:10382000CF910895283008F027E03327DA01990F67
:10383000311D87FD916000966105710539F4326094
:103840002E5F3D9330E32A95E1F708959F3F30F0D6
:1038500080387105610509F03C5F3C5F3D93913014
:1038600008F08068911DDF93CF931F930F93FF9211
:10387000EF92192F987F9695E92F96959695E90FD7
:10388000FF27E55AF94F99273327EE24FF24A70194
:10389000E70105900894079428F4360FE71EF81EF8
:1038A000491F511D660F771F881F991F0694A1F7A6
:1038B0000590079428F4E70EF81E491F561FC11DF6
:1038C000770F881F991F661F0694A1F7059007942C
:1038D00028F4F80E491F561FC71FD11D880F991FC6
:1038E000661F771F0694A1F70590079420F4490FEF
:1038F000561FC71FD81F990F661F771F881F069472
:10390000A9F784911095177041F0D695C7955795F2
:103910004795F794E7941A95C1F7E1E0F6E06894CB
:103920001590159135916591959105907FE273956C
:10393000E118F10A430B560BC90BD009C0F7E10C93
:10394000F11E431F561FC91FD01D7EF4703311F4A2
:103950008A95E6CFE894015030F0080F0AF400276A
:10396000021708F4202F2395022F7A3328F079E3E9
:103970007D932A95E9F710C07D932A9589F60694E0
:1039800097956795379517951794E118F10A430BAA
:10399000560BC90BD00998F023957E9173957A3315
:1039A00008F070E37C932013B8F77E9170617D93EB
:1039B00030F0839571E37D9370E32A95E1F711244C
:1039C000EF90FF900F911F91CF91DF91992787FD85
:1039D00090950895DC012D923D924D925D926D92ED
:1039E0007D928D929D92AD92BD92CD92DD92ED929F
:1039F000FD920D931D93CD93DD93FF91EF918DB7C4
:103A00008D938EB78D938FB78D93ED93FD9388270C
:103A100099270994DC01CB0181309105811D2D90FE
:103A20003D904D905D906D907D908D909D90AD906E
:103A3000BD90CD90DD90ED90FD900D911D91CD91BB
:103A4000DD91ED91FD910D90F894FEBF0FBEEDBF9D
:103A5000ED91FD910994FB01DC014150504048F08B
:103A600005900D920020C9F701C01D9241505040B1
:103A7000E0F70895FC010590615070400110D8F7FF
:103A8000809590958E0F9F1F0895FC0161507040A6
:103A900001900110D8F7809590958E0F9F1F089583
:103AA0000F931F93CF93DF938C01EB018B8181FFE9
:103AB0001BC082FF0DC02E813F818C819D81281704
:103AC000390764F4E881F9810193F983E88306C03A
:103AD000E885F985802F0995892B31F48E819F81A6
:103AE00001969F838E8302C00FEF1FEFC801DF9105
:103AF000CF911F910F9108950F931F938C01FC019B
:103B0000838188608383C8010E948717F80123811D
:103B1000277F23831F910F910895FA01AA27283048
:103B200051F1203181F1E8946F936E7F6E5F7F4F8A
:103B30008F4F9F4FAF4FB1E03ED0B4E03CD0670F06
:103B4000781F891F9A1FA11D680F791F8A1F911D59
:103B5000A11D6A0F711D811D911DA11D20D009F4A9
:103B600068943F912AE0269F11243019305D3193EB
:103B7000DEF6CF010895462F4770405D4193B3E0D4
:103B80000FD0C9F7F6CF462F4F70405D4A3318F07B
:103B9000495D31FD4052419302D0A9F7EACFB4E02C
:103BA000A6959795879577956795BA95C9F70097E4
:103BB0006105710508959B01AC010A2E0694579585
:103BC000479537952795BA95C9F7620F731F841FDC
:103BD000951FA01D08959F939F7745D10F900020BA
:103BE0003AF49058A2EA2AED3FE049E450E413D0B9
:103BF000B5C15058BB27AA270ED0B0C1A1D130F013
:103C0000A6D120F031F49F3F11F41EF471C10EF4DF
:103C1000E095E7FB67C1E92FB2D180F3BA176207DD
:103C200073078407950718F071F49EF5CAC10EF466
:103C3000E0950B2EBA2FA02D0B01B90190010C01BC
:103C4000CA01A0011124FF27591B99F0593F50F4D4
:103C5000503E68F11A16F040A22F232F342F44272C
:103C6000585FF3CF469537952795A795F040539524
:103C7000C9F77EF41F16BA0B620B730B840BBAF0F4
:103C80009150A1F0FF0FBB1F661F771F881FC2F75F
:103C90000EC0BA0F621F731F841F48F48795779573
:103CA0006795B795F7959E3F08F0B3CF9395880F2A
:103CB00008F09927EE0F979587950895EFD008F4AF
:103CC00081E008950CD04AC142D140F039D130F0A2
:103CD00021F45F3F19F006C1511174C109C14FD1E0
:103CE00098F39923C9F35523B1F3951B550BBB27C3
:103CF000AA2762177307840738F09F5F5F4F220F70
:103D0000331F441FAA1FA9F333D00E2E3AF0E0E868
:103D100030D091505040E695001CCAF729D0FE2FB4
:103D200027D0660F771F881FBB1F26173707480746
:103D3000AB07B0E809F0BB0B802DBF01FF279358FC
:103D40005F4F2AF09E3F510568F0CCC03BC15F3FFA
:103D5000ECF3983EDCF3869577956795B795F795E4
:103D60009F5FC9F7880F911D9695879597F90895DC
:103D7000E1E0660F771F881FBB1F62177307840778
:103D8000BA0720F0621B730B840BBA0BEE1F88F787
:103D9000E0950895FCD088F09F5790F0B92F9927AF
:103DA000B751A0F0D1F0660F771F881F991F1AF046
:103DB000BA95C9F712C0B13081F003D1B1E00895CE
:103DC00000C1672F782F8827B85F39F0B93FCCF34F
:103DD000869577956795B395D9F73EF4909580953C
:103DE000709561957F4F8F4F9F4F0895E89409C05C
:103DF00097FB3EF490958095709561957F4F8F4F1E
:103E00009F4F9923A9F0F92F96E9BB279395F69533
:103E1000879577956795B795F111F8CFFAF4BB0FB1
:103E200011F460FF1BC06F5F7F4F8F4F9F4F16C015
:103E3000882311F096E911C0772321F09EE8872F9F
:103E4000762F05C0662371F096E8862F70E060E05B
:103E50002AF09A95660F771F881FDAF7880F9695D4
:103E6000879597F90895DF93CF931F930F938B0155
:103E7000EC01ECE8F0E03FD071D09801AE018B018D
:103E8000EC0160E070E080E89FE3B3DE0CD19801C4
:103E9000AE010F911F91CF91DF91AAC0990F000839
:103EA000550FAA0BE0E8FEEF16161706E807F9070C
:103EB000C0F012161306E407F50798F0621B730BA7
:103EC000840B950B39F40A2661F0232B242B252B28
:103ED00021F408950A2609F4A140A6958FEF811DCB
:103EE000811D089597F99F6780E870E060E008956C
:103EF0009FEF80EC0895DF93CF931F930F93FF9272
:103F0000EF92DF927B018C01689405C0DA2EEF01FD
:103F10006FD0FE01E894A591259135914591559179
:103F2000AEF3EF0178DEFE019701A801DA9479F78C
:103F3000DF90EF90FF900F911F91CF91DF91089547
:103F400000240A9416161706180609060895002478
:103F50000A9412161306140605060895092E0394F2
:103F6000000C11F4882352F0BB0F40F4BF2B11F466
:103F700060FF04C06F5F7F4F8F4F9F4F089557FDC5
:103F80009058440F551F59F05F3F71F04795880FC7
:103F900097FB991F61F09F3F79F08795089512165E
:103FA00013061406551FF2CF4695F1DF08C016160A
:103FB00017061806991FF1CF8695710561050894BB
:103FC0000895E894BB2766277727CB0197F90895D2
:103FD00065DF08F48FEF08950BD0C0CFB1DF28F074
:103FE000B6DF18F0952309F07DCF82CF1124EACFF8
:103FF000C6DFA0F3959FD1F3950F50E0551F629F48
:10400000F001729FBB27F00DB11D639FAA27F00D31
:10401000B11DAA1F649F6627B00DA11D661F829F58
:104020002227B00DA11D621F739FB00DA11D621F3D
:10403000839FA00D611D221F749F3327A00D611D5A
:10404000231F849F600D211D822F762F6A2F11243C
:104050009F5750408AF0E1F088234AF0EE0FFF1F8F
:10406000BB1F661F771F881F91505040A9F79E3FC6
:10407000510570F037CFA6CF5F3FECF3983EDCF3ED
:10408000869577956795B795F795E7959F5FC1F703
:10409000FE2B880F911D9695879597F9089511F439
:1040A0000EF426CF4AC073DFD0F39923D9F3CEF3B1
:1040B0009F57550B87FF51D056959795B0E020F448
:1040C000660F771F881FBB1F1F930F93002490015B
:1040D000A0018001F001A0E80E0F1F1F0A1E511D54
:1040E000601B710B8009B50B48F4600F711F801DB8
:1040F000B51F0E1B1F0B0A0A510907C02E0F3F1FC9
:104100004A1F0E0F1F1F0A1E511D660F771F881FA3
:10411000BB1FA695F795E795F8F60617170708064B
:104120005B07211D311D411D0F911F91B901842F86
:104130009158880F9695879508959F3F49F0915023
:1041400028F4869577956795B7959F5F80389F4F40
:10415000880F9695879597F9089591505040660F6E
:10416000771F881FD2F70895629FD001739FF001D7
:10417000829FE00DF11D649FE00DF11D929FF00DF7
:10418000839FF00D749FF00D659FF00D9927729F2E
:10419000B00DE11DF91F639FB00DE11DF91FBD01B9
:1041A000CF011124089597FB092E07260AD077FD29
:1041B00004D065D006D000201AF4709561957F4F29
:1041C0000895F6F7909581959F4F0895A1E21A2ED4
:1041D000AA1BBB1BFD010DC0AA1FBB1FEE1FFF1FAB
:1041E000A217B307E407F50720F0A21BB30BE40BFB
:1041F000F50B661F771F881F991F1A9469F7609542
:104200007095809590959B01AC01BD01CF010895FB
:104210002F923F924F925F926F927F928F929F92D6
:10422000AF92BF92CF92DF92EF92FF920F931F93C4
:10423000CF93DF93CDB7DEB7CA1BDB0B0FB6F89475
:10424000DEBF0FBECDBF09942A88398848885F84B5
:104250006E847D848C849B84AA84B984C884DF8026
:10426000EE80FD800C811B81AA81B981CE0FD11D0A
:104270000FB6F894DEBF0FBECDBFED010895AA1BA7
:10428000BB1B51E107C0AA1FBB1FA617B70710F041
:10429000A61BB70B881F991F5A95A9F78095909573
:0642A000BC01CD010895F0
:1042A6000A696E697420616E676C65202566000A6E
:1042B600506F6C69776869726C2069732025660097
:1042C6000A5475726E20256620646567726565738B
:1042D600000A4D6F766520666F72776172642025DD
:1042E60066206665657400726F626F74206D6F6E0E
:1042F60069746F720075736572206D61696E000175
:104306004861707079626F617264207625582E2537
:10431600303258202020202020202020202020203D
:10432600202005000069646C6500756E6B6E6F7702
:104336006E20696E7465727275707400257300253F
:10434600730A00616463206C6F636B00737069208D
:104356006C6F636B0055415254206C6F636B0000A9
:10436600000002000000000F0E000000004C434455
:10437600206C6F636B000000000200000000FF115C
:1043860000000000736572766F206C6F636B006DC2
:104396006F746F72206C6F636B000405020300017B
:1043A6006469676974616C206C6F636B00656E632A
:1043B6006F646572206C6F636B002000BA030000A7
:00000001FF
