:100000000C946A030C948A030C948A030C948A035C
:100010000C948A030C948A030C948A030C948A032C
:100020000C948A030C948A030C94470E0C948A0354
:100030000C948A030C948A030C948A030C948A030C
:100040000C948A030C948A030C948A030C948A03FC
:100050000C948A030C948A030C948A030C948A03EC
:100060000C948A030C948A030C948A030C948A03DC
:100070000C948A030C948A030C948A030C948A03CC
:100080000C948A030C948A030C948A03616E616C4D
:100090006F675F72656164006D6370333030382064
:1000A0006661696C006D6370333030382066616959
:1000B0006C006D61696E000A004A6F794F532076BB
:1000C000302E322E3320202020507265737320474B
:1000D0004F002020202020202020206D656D6F7291
:1000E000792066756C6C00686561702073697A654B
:1000F0003A2025642062797465730A005F5F6D6140
:100100006C6C6F635F686561705F656E64203D2035
:1001100025700A005F5F6D616C6C6F635F6865617D
:10012000705F7374617274203D2025700A007275CF
:100130006E6177617920636F6465000A526F756E36
:100140006420656E64000A526F626F74207265618C
:1001500064792E2020202050726573732027476F0A
:1001600027006C6F636B2068656C64206279206186
:100170006E6F746865720072656C65617365207579
:100180006E68656C64206C6F636B0072656C656192
:100190007365206E756C6C206C6F636B0069735FA8
:1001A00068656C64206E756C6C206C6F636B0061AD
:1001B0006371756972656420746F6F206D616E790B
:1001C0002074696D65730061637175697265206E75
:1001D000756C6C206C6F636B00696E6974206E7552
:1001E0006C6C206C6F636B00496E6974206661698A
:1001F0006C3A2025730A0D005541525430206F701F
:10020000656E65642061742025640A0D0048617084
:100210007079626F61726420696E697420737461B1
:10022000727465640A0D00486172647761726520BA
:1002300076657273696F6E2025582E253032580A04
:100240000D00426F61726420494420253034580A01
:100250000D00426F61726420636F6E666967204FA4
:100260004B0A0D0042617474657279204F4B3A203D
:1002700025646D560A0D0046504741207625642EB0
:1002800025640A0D0046504741206661696C75720D
:1002900065004C6F77206261747465727900426109
:1002A0006420436F6E666967000A70616E69633A25
:1002B0002025730070616E69633A2025730A00205F
:1002C000746872656164202874696420256429203B
:1002D0002725732720737461747573202564207239
:1002E000756E732025750A0020746872656164203C
:1002F000287469642025642920756E616C6C6F63B5
:10030000617465640A0044756D70696E6720746875
:1003100072656164207374617465733A0A002050D9
:10032000432020203A20253038700A0020535245BF
:1003300047203A20253032700A00205350202020D8
:100340003A20253034700A002046502020203A20E0
:10035000253034700A00203C6F6D697474696E67D3
:100360002072302D7233313E0A0044756D70696E13
:1003700067206A6D705F6275663A0A006F75742057
:100380006F66207468726561647300736C65657074
:10039000007969656C64006E6F2063757272656EBA
:1003A000745F74687265616400737461636B206F5D
:1003B000766572666C6F77007265736572766564D8
:1003C0002073706163653A20257020746F2025705A
:1003D0000A00737461636B746F703A2025700A00B1
:1003E00070632061742025700A007370206F66208E
:1003F0002725732720286964202564292069732014
:1004000025700A000A737461636B206F76657266EB
:100410006C6F770A0053502061626F7665006E6FD3
:100420002069646C65006D616C6C6F632073706132
:100430006365205B25702C25705D0A007468726509
:100440006164735B305D2E74685F7374617475737F
:100450002061742025700A00746872656164735BA2
:10046000305D2061742025700A0074696D65202557
:1004700064002D2D206E6F2069646C652074687295
:10048000656164202D2D0A007363686564756C6571
:10049000004F6F70732E2E2E20746865726527735F
:1004A00020612072756E6E61626C65207468726581
:1004B0006164207468617473206E6F742069646C69
:1004C000650A00207468726561642028746964207C
:1004D0002564292027257327207374617475732080
:1004E00025640A0020746872656164202874696458
:1004F0002025642920756E616C6C6F63617465647E
:100500000A0069646C65206672656500286964206C
:1005100025642920737461636B205B25702C257022
:10052000290A00746872656164207461626C6520D8
:10053000656E642061742025700A007468726561BC
:1005400064207461626C65207374617274206174DC
:100550002025700A002520356420202025347020B5
:100560002020253032780A003D3D3D3D3D3D3D3D5A
:100570003D3D3D3D3D3D3D3D3D3D3D3D0A00494EFE
:100580004445582020204144445220202056414CCC
:1005900055450A0000000A0000110E0000000A0084
:1005A00000111F0000000A00000E1100000E1F11B4
:1005B00011111F000000000000001500000E0E0EBB
:1005C0001F0E04006469676974616C5F7265616421
:1005D000006E616E00696E660000407A10F35A008A
:1005E000A0724E18090010A5D4E80000E87648175C
:1005F0000000E40B54020000CA9A3B000000E1F541
:1006000005000080969800000040420F000000A006
:100610008601000000102700000000E80300000031
:10062000006400000000000A00000000000100005B
:100630000000002C76D888DC674F0823DFC1DFAECE
:1006400059E1B1B796E5E3E453C63AE65199769697
:10065000E8E6C28426EB898C9B62ED407C6FFCEF60
:10066000BC9C9F40F2BAA56FA5F490055A2AF75C8E
:10067000936B6CF9676DC11BFCE0E40D47FEF52040
:10068000E6B500D0ED902E03009435770500808408
:100690001E080000204E0A000000C80C333333331C
:1006A0000F986E12831141EF8D2114893BE6551688
:1006B000CFFEE6DB18D1844B381BF77C1D901DA4C0
:1006C000BBE424203284725E228100C9F124ECA1B3
:1006D000E53D270011241FBECFEFD0E1DEBFCDBF27
:1006E00011E0A0E0B1E0EEEDFEE300E00BBF02C0E0
:1006F00007900D92AE3DB107D9F71BBE13E0AEEDEA
:10070000B1E001C01D92A837B107E1F70E94BB0616
:100710000C94BF0C0C94210E2F923F924F925F923B
:100720006F927F928F929F92AF92BF92CF92DF9201
:10073000EF92FF920F931F93CF93DF93C0E0D1E02E
:100740000E94030680E060EC7FEF0E94E20481E0FB
:1007500060E470E00E94E2040F2EF0E02F2EF0E043
:100760003F2EF4E34F2EF3E45F2EF02D0E94B509E7
:100770003B014C0100D000D000D0EDB7FEB7D283D2
:10078000C18323823482458256820E94800E8DB7B7
:100790009EB706960FB6F8949EBF0FBE8DBF0E94FF
:1007A000B5097B018C0188E00E941B05A0E0B0E048
:1007B000BC01CD010E94B71D20E030EA4CEF53E4AC
:1007C0000E94B51C5B016C01E618F708B701882789
:1007D00077FD8095982F0E94B91D9B01AC01C60141
:1007E000B5010E946D1E20E030E04AE754E40E940B
:1007F0001E1D26E93DEB4DE25FE30E946D1E9B014D
:10080000AC01C201B1010E94B61C1B012C0120E009
:1008100030E044EB53E40E94691E18164CF4C20108
:10082000B10120E030E044EB53E40E94B51C12C05B
:10083000C201B10120E030E040E050E00E941A1D0A
:10084000882354F4C201B10120E030E044EB53E4CA
:100850000E94B61C1B012C01C201B10120E030E056
:1008600047E853E40E94B51C20E030E040EF51E43B
:100870000E94B51C0E94861D9B01AC0180E0B9015D
:100880000E94E20460E070E087E893E4A201910135
:100890000E94B51C20E030E040EF51E40E94B61CFD
:1008A0000E94861D9B01AC0181E0B9010E94E20417
:1008B000C201B10120E030E047E853E40E941A1D74
:1008C00087FD54CF80E060E070E00E94E20481E0A8
:1008D00060E070E00E94E20433CF80E00E94B8063E
:1008E00080E090E008951F93CF93DF93CDB7DEB7FC
:1008F00028970FB6F894DEBF0FBECDBF182F88EF34
:1009000091E00E94DA07DE011396EFE0F1E086E065
:1009100001900D928150E1F7FE01E10FF11D63811D
:100920007727685F7F4FAE014F5F5F4F80E090E0B9
:100930000E94061188EF91E00E94740789819A81D4
:1009400028960FB6F894DEBF0FBECDBFDF91CF91D2
:100950001F9108950F931F930E9473048C01B80197
:10096000882777FD8095982F0E94B91D17FF06C034
:1009700020E030E040E857E40E94B61C28E431EE65
:1009800040E851E40E946D1E0E948B1DDC01CB01EA
:100990001F910F910895FF920F931F93F82E08EF68
:1009A00011E0C8010E94DA07FF0CEF2DFF27E0508D
:1009B000FF4E83E08083C8010E9474071F910F914E
:1009C000FF9008951F93CF93DF93182FEB0188EFCB
:1009D00091E00E94DA07110F1C161D0634F4E12F76
:1009E000FF27E050FF4E81E007C0E12FFF2720974F
:1009F00029F0E050FF4E82E0808303C0E050FF4EBC
:100A00001082E12FFF27EF5FFE4EBE01D7FF03C02C
:100A1000709561957F4F608388EF91E00E94740725
:100A2000DF91CF911F91089564E071E088EF91E02C
:100A30000E94C40708951F93CF93DF93CDB7DEB70D
:100A400022970FB6F894DEBF0FBECDBF182F885087
:100A5000883038F014C085EA90E00E9453090E9463
:100A6000940C67E170E0611B7109AE014F5F5F4F4D
:100A700081E090E00E940611882369F71DC0812F54
:100A80008051883038F014C088E990E00E94530902
:100A90000E94940C6FE170E0611B7109AE014F5F21
:100AA0005F4F82E090E00E940611882369F704C03E
:100AB0008CE890E00E94530989819A8122960FB6B2
:100AC000F894DEBF0FBECDBFDF91CF911F91089587
:100AD00081B1992725E0969587952A95E1F780952C
:100AE000909581709070089581B1992734E0969522
:100AF00087953A95E1F7809590958170907008956B
:100B00000F931F93CF93DF93CDB7DEB722970FB626
:100B1000F894DEBF0FBECDBFAE014F5F5F4F6FE0F9
:100B200070E080E090E00E94061109811A81B8010E
:100B3000882777FD8095982F0E94B91D17FF06C062
:100B400020E030E040E857E40E94B61C2CE135E498
:100B500041E251E40E946D1E0E948B1DDC01CB011D
:100B600022960FB6F894DEBF0FBECDBFDF91CF91B6
:100B70001F910F910895CF93DF93CDB7DEB72297E2
:100B80000FB6F894DEBF0FBECDBFAE014F5F5F4F13
:100B900061E070E080E090E00E94480F89819A81D6
:100BA00022960FB6F894DEBF0FBECDBFDF91CF9176
:100BB0000895CF92DF92EF92FF920F931F936C01F3
:100BC0007B010E94BB05AA27BB27EC18FD080894EF
:100BD000E11CF11C00271127BC01CD01A8019701E0
:100BE0000E94D01E4AE096958795779567954A951D
:100BF000D1F7C60ED71EC6011F910F91FF90EF903F
:100C0000DF90CF9008950D99FECF80E08A95F1F79F
:100C10000D9BFECF08950C99FECF80E08A95F1F7E9
:100C20000C9BFECF08952F923F924F925F926F924E
:100C30007F928F929F92AF92BF92CF92DF92EF926C
:100C4000FF920F931F93CF93DF937B019C01442767
:100C5000552760E874E88EE190E00E94021FE901E8
:100C6000C90196958795969587951C01442455242E
:100C700000271127C801B7012CE231E040E050E025
:100C80000E94D01E3B014C01AA24BB24650157C021
:100C9000C49ABE01882777FD8095982F0E94B91DC0
:100CA000D7FF06C020E030E040E857E40E94B61CC1
:100CB0002BEA3AEA4AE250E40E946D1E7B018C0165
:100CC00020E030E040E85FE30E941A1D882314F41E
:100CD00061E010C020E030E04FE753E4C801B70105
:100CE0000E94691E181614F460E004C0C801B70120
:100CF0000E948B1D6A95F1F7C49820E030E040E82F
:100D00005FE3C801B7010E941A1D882314F461E053
:100D100010C020E030E04FE753E4C801B7010E9463
:100D2000691E181614F460E004C0C801B7010E94DF
:100D30008B1D6A95F1F7A20CB31CC41CD51CA6141C
:100D4000B704C804D90408F4A3CFDF91CF911F9151
:100D50000F91FF90EF90DF90CF90BF90AF909F905A
:100D60008F907F906F905F904F903F902F9008955D
:100D700080932D010895CFEFD0E1DEBFCDBF8091EC
:100D8000DE019091DF01892B21F08EE291E00E943B
:100D9000530983E897E09093DC018093DB010E9484
:100DA00083088091D9019091DA019F938F9384E118
:100DB00091E09F938F930E942E108091DB01909180
:100DC000DC019F938F938CEF90E09F938F930E9411
:100DD0002E108091DB019091DC012091D90130919E
:100DE000DA01821B930B880F991F9F938F9387EED5
:100DF00090E09F938F930E942E108DB79EB70C9614
:100E00000FB6F8949EBF0FBE8DBF2091D9013091CF
:100E1000DA018091DB019091DC012817390720F07D
:100E200082ED90E00E9453090E94001409EB10E04B
:100E30001F930F930E94DD141F930F930E942E1097
:100E400087EB90E09F938F930E942E100E940306E1
:100E50000E94A80D25E131E040E060E071E085E40A
:100E600097E00E944B0D0E94A10B82EB90E00E9444
:100E700053098DB79EB706960FB6F8949EBF0FBE66
:100E80008DBF80E090E00C94BF0C0E946D0486E45E
:100E900091E09F938F930E94DD140E9403060E94AD
:100EA000001423E231E040E060E071E08CE893E080
:100EB0000E944B0D0F900F9080912D01882319F403
:100EC0000E94940CFDCF80E69AEE0E94DD0C8BE32D
:100ED00091E09F938F930E94DD140E94A70A0F90C8
:100EE0000F9080E090E008951F93CF93DF93EC0183
:100EF000892B21F48BE891E00E9453091FB7F894E5
:100F00008881882321F487E791E00E9453092B818F
:100F10003C818091DE019091DF012817390721F093
:100F200082E691E00E94530988818150888388235A
:100F300011F41C821B828FB71078812B8FBFDF9139
:100F4000CF911F910895CF93DF93EC01892B21F46A
:100F50008DE991E00E9453092091DE013091DF017B
:100F60008B819C812817390719F080E090E009C037
:100F700090E08881882309F491E081E09827892F07
:100F80009927DF91CF9108950F931F93CF93DF930C
:100F9000EC018B01892B21F489ED91E00E9453092A
:100FA00018821A8309831C821B82DF91CF911F91C3
:100FB0000F910895CF93DF93EC01892B21F487ECF7
:100FC00091E00E94530988818F3F21F48FEA91E0DC
:100FD0000E9453095FB75078F8942B813C8180912F
:100FE000DE019091DF0148812817390719F44F5F1E
:100FF00048830AC0442361F481E088838091DE0144
:101000009091DF019C838B838FB7852B8FBF06C0A8
:101010008FB7852B8FBF0E94940CDCCFDF91CF91CF
:1010200008950F931F93CF93DF93CDB7DEB76197EA
:101030000FB6F894DEBF0FBECDBF8C0141E150E08A
:10104000BC01CE0101960E94F51B198A1F930F93D4
:1010500088EE91E09F938F930E942E1080E10E9472
:1010600017141F930F930E941A158FE10E941714F3
:1010700060E070E083E00E942D148DB79EB7069665
:101080000FB6F8949EBF0FBE8DBFFFCF60E070E03B
:1010900080E090E00E9402126EEE71E08AE090E043
:1010A0000E94B6110E941913EEEEF1E020E030E04C
:1010B00081913827032E0294902D9F709327832FC0
:1010C0008025880F807E9827802D8327807F8695B6
:1010D000032E000C881F3695369536953F713827BC
:1010E0003227292F81E0E63FF80711F740E050E072
:1010F0008091F6019091F7012817390711F441E02A
:1011000050E0CA0108950E941D0F1F9A80E09BE4E1
:101110000E94E30F8DE891E090937703809376032C
:1011200080E09BE49F938F9388EF91E09F938F9350
:101130000E942E108DE092E09F938F930E942E10BC
:101140000E9409160E944A160E94AB0F0E941405C5
:101150000E94C0150E94361584EA91E090937503B1
:10116000809374030E94770F0E94200E0E9446080D
:101170002DB73EB72A5F3F4F0FB6F8943EBF0FBE64
:101180002DBF882321F48EE992E00E94110882E5A8
:1011900092E09F938F930E942E108091EE01909188
:1011A000EF019C0130703F932F93892F99279F93D4
:1011B0008F9387E292E09F938F930E942E108091ED
:1011C000F0019091F1019F938F9382E492E09F93BD
:1011D0008F930E942E108091EE019091EF019C015F
:1011E00030703F932F93892F99279F938F938EE28F
:1011F00091E09F938F930E941A150E9480052DB74E
:101200003EB72E5E3F4F0FB6F8943EBF0FBE2DBFC8
:101210008C549D4120F482E992E00E9411080E94C2
:1012200080059F938F9384E692E09F938F930E9413
:101230002E106091F4017091F50180E091E00E9420
:1012400087100F900F900F900F90882321F485E85E
:1012500092E00E9411088091FF112091FE119927C0
:101260009F938F9333273F932F9387E792E09F932A
:101270008F930E942E108FE10E94171460E070E09F
:1012800081E00E942D141E9864EC79E082EC91E0DC
:101290000E9413068DB79EB706960FB6F8949EBFB0
:1012A0000FBE8DBF0895CF93DF93CDB7DEB76A979A
:1012B0000FB6F894DEBF0FBECDBFBC01F894892BEA
:1012C00041F04AE150E0CE0101960E94F51B1A8ED2
:1012D00001C0198210925A0310925E0310925D03AE
:1012E000CE0101969F938F9389EA92E09F938F930B
:1012F0000E94DD140E94A70A0F900F900F900F908C
:101300006A960FB6F894DEBF0FBECDBFDF91CF91C6
:101310000895CF93DF93EC01F89410925A03109242
:101320005E0310925D030E940014209711F4C2E541
:10133000D1E0DF93CF9384EB92E09F938F930E9451
:10134000DD140E94A70A0F900F900F900F90DF916D
:10135000CF91089583E085BD83E884BD86B780641E
:1013600086BF87B7806487BF08952FB7F8946091D0
:10137000E0017091E1018091E2019091E3013FB7BA
:101380002078322B3FBF08953FB7F8946091E00179
:101390007091E1018091E2019091E3012FB73078E3
:1013A000232B2FBF28EE33E040E050E00E94D01EF8
:1013B00008959C01F894E7E4F2E041E080818330F5
:1013C00031F4828593858217930709F44083BC9694
:1013D00083E0EF34F80791F77894089577278CE24B
:1013E00091E0689F9001699F300D789F300D112426
:1013F00087EB9FE0821B930B0895FF920F931F933F
:10140000CF93DF93FFB6F89486E093E09F938F939A
:101410000E942E1000E010E0CBE1D2E00F900F9080
:101420002881222369F41F930F9388EE92E09F9303
:101430008F930E942E100F900F900F900F9020C04E
:101440008A819B81AC81BD81BF93AF939F938F9322
:10145000822F99279F938F938C859D859F938F9340
:101460001F930F938FEB92E09F938F930E942E1008
:101470008DB79EB70C960FB6F8949EBF0FBE8DBF6A
:101480000F5F1F4FAC960730110551F68FB790E8EC
:10149000F9228F298FBFDF91CF911F910F91FF907C
:1014A00008950F931F938C018AE693E09F938F9387
:1014B0000E942E1086E593E09F938F930E942E103A
:1014C000F80180899189AA27BB27BF93AF939F9387
:1014D0008F9388E493E09F938F930E942E10F801DE
:1014E00082899389AA27BB27BF93AF939F938F933A
:1014F0008AE393E09F938F930E942E10F8018489D2
:101500009927AA27BB27BF93AF939F938F938CE212
:1015100093E09F938F930E942E10F80185899689FE
:10152000AA27BB27BF93AF939F938F938EE193E03E
:101530009F938F930E942E108DB79EB74C960FB637
:10154000F8949EBF0FBE8DBF1F910F910895CF934A
:10155000DF93F8941092F8011092FC011092FB01B5
:10156000C0E0D0E08C2F0E94CB042196C630D1057C
:10157000C9F7FFCF0F931F93CF93DF93EC010BE1DC
:1015800012E080911B02813009F44BC082E794E0A5
:101590009F938F930E942E108091E0019091E10122
:1015A000A091E201B091E301BF93AF939F938F931A
:1015B0008AE694E09F938F930E942E100E51104064
:1015C0001F930F93025E1F4F88E594E09F938F93C4
:1015D0000E942E101F930F938CE394E09F938F93A0
:1015E0000E942E108091DB019091DC019F938F93DC
:1015F0008091D9019091DA019F938F9386E294E0D4
:101600009F938F930E942E108EE194E00E945309C5
:101610004DB75EB74A5E5F4F0FB6F8945EBF0FBE20
:101620004DBF8D8D99272CE231E0A901849F900157
:10163000859F300D949F300D112487EB9FE0821B16
:10164000930B2A893B898217930720F485E194E064
:101650000E945309898D9A8D2A893B89821B930B9D
:101660002B8D3C8D2817390708F04CC084E094E09E
:101670009F938F930E942E108A899B899F938F93AB
:101680008D8D99279F938F938AA59BA59F938F9369
:101690008AEE93E09F938F930E942E10CE010E94BA
:1016A000510A8D899E899F938F9380EE93E09F933B
:1016B0008F930E942E10898D9A8D9F938F9382ED28
:1016C00093E09F938F930E942E10898D9A8D9F9304
:1016D0008F932B8D3C8D821B930B01969F938F9341
:1016E00088EB93E09F938F930E942E1089EA93E0FA
:1016F0000E9453098DB79EB748960FB6F8949EBFC7
:101700000FBE8DBFDF91CF911F910F9108959093E0
:10171000DF018093DE010E94BA0AE091DE01F091C0
:10172000DF0180A191A1A2A1B3A10196A11DB11DCC
:1017300080A391A3A2A3B3A361E070E0CF010E94B4
:10174000D41BAF92BF92CF92DF92EF92FF920F9392
:101750001F93CF93DF93E091DE01F091DF0130978B
:1017600019F4AA24BB2403C0858DA82EBB2481E0D4
:10177000C82ED12C75010894E11CF11CC70167E04B
:1017800070E00E94EF1E8C01892B09F455C08CE299
:1017900090E0089FE001099FD00D189FD00D112403
:1017A000C350DE4F8E8D8430B1F42091E001309132
:1017B000E1014091E2015091E3018CA19DA1AEA114
:1017C000BFA1281739074A075B0750F081E08E8FC9
:1017D000CE010E94870B8E8D813011F4CE012AC07C
:1017E0006CE270E0A69EF001A79EF00DB69EF00D93
:1017F0001124E350FE4F868D8430F1F42091E001F6
:101800003091E1014091E2015091E30184A195A161
:10181000A6A1B7A1281739074A075B0768F081E03E
:10182000868F069FC001079F900D169F900D112473
:1018300083509E4F0E94870B0894C11CD11C0894B2
:10184000E11CF11C88E0C816D10409F097CF809103
:101850001B02813021F48DEF91E00E94870BF894F8
:1018600000E010E0CBE1D2E08881882369F41F9387
:101870000F9384EE94E09F938F930E942E100F900D
:101880000F900F900F9022C099279F938F938C8574
:101890009D859F938F931F930F9383EC94E09F9369
:1018A0008F930E942E108DB79EB708960FB6F894AE
:1018B0009EBF0FBE8DBF8881813041F481E994E0E5
:1018C0009F938F930E942E100F900F900F5F1F4FCA
:1018D000AC960730110541F688E894E00E94530960
:1018E000DF91CF911F910F91FF90EF90DF90CF90FC
:1018F000BF90AF9008958091DE019091DF01892B18
:1019000021F487E993E00E9453098091DE019091D0
:10191000DF010E94B41B892B31F461E070E081E3A8
:1019200093E00E94D41B0895F8941F920F922F9376
:101930003F934F935F936F937F938F939F93AF9357
:10194000BF93EF93FF938091DE019091DF01892B8C
:1019500021F481E993E00E9453090E947B0CFF91DE
:10196000EF91BF91AF919F918F917F916F915F9117
:101970004F913F912F910F901F90789408950E945E
:10198000940CFDCFCF93DF93EC01F8948091DE01AE
:101990009091DF01892B21F48BE893E00E94530999
:1019A000E091DE01F091DF01D1A7C0A783E0868F2F
:1019B0000E94940CDF91CF910895EF92FF920F93C4
:1019C0001F938C010FB607FC37C0B801882777FD3D
:1019D0008095982F0E94B91D17FF06C020E030E0C7
:1019E00040E857E40E94B61C20E030E04AEF54E49F
:1019F0000E946D1E7B018C0120E030E040E85FE337
:101A00000E941A1D88231CF481E090E012C020E09F
:101A10003FEF4FE757E4C801B7010E94691E18164F
:101A20001CF480E090E005C0C801B7010E948B1D46
:101A3000CB010197F1F720C0F894E091DE01F0911D
:101A4000DF0184E0868F8091E0019091E101A09117
:101A5000E201B091E301E091DE01F091DF01980134
:101A600044275527820F931FA41FB51F84A395A356
:101A7000A6A3B7A30E94940C1F910F91FF90EF9023
:101A800008950E94FD0988EB9BE00E94DD0CF9CFD0
:101A90000E94940CFDCF0F931F93CF93DF938C0183
:101AA0006FB7F89440E050E0EBE1F2E080818823EA
:101AB00059F04F5F5F4FBC9647305105B9F78CE73F
:101AC00093E00E945309FFCF8CE290E0489FD00141
:101AD000499FB00D589FB00D1124A350BE4F81E017
:101AE000ED018E8F3BA72AA7FD0110A211A212A221
:101AF00013A22CE231E0348F238F89E119928A9569
:101B0000E9F7842F9927F9018E9F90018F9F300D5F
:101B10009E9F300D1124E7EBFFE0E21BF30B2FEB50
:101B20003CE020833197232F332720833197ED0129
:101B3000FB8BEA8B1E8B0D8B2C8920682C8B2FB78F
:101B40006078262B2FBFDF91CF911F910F910895C1
:101B5000EF92FF920F931F93CF93DF930DEF11E05E
:101B60001F930F938BE395E09F938F930E942E100A
:101B700081E393E09F938F9383E295E09F938F930C
:101B80000E942E10E801EE24FF2407EB1FE08DB722
:101B90009EB708960FB6F8949EBF0FBE8DBFED8E10
:101BA0001E8EC8011A8F098F18A219A21AA21BA291
:101BB0000C5211401F930F939F938F93FF92EF92BC
:101BC0008CE095E09F938F930E942E100894E11C67
:101BD000F11CAC968DB79EB708960FB6F8949EBFD1
:101BE0000FBE8DBF97E0E916F104C9F623E531E099
:101BF00040E060E071E088E49DE00E944B0D809140
:101C00001B02882321F482E095E00E94530981E3BE
:101C100093E00E94B41B8FEF90E190934403809374
:101C2000430381EA9BE090934703809346030E941D
:101C3000AA09DF91CF911F910F91FF90EF90089526
:101C400008951F920F920FB60F9211242F933F9376
:101C50004F935F936F937F938F939F93AF93BF93B4
:101C6000EF93FF9388E591E00E945309FF91EF9174
:101C7000BF91AF919F918F917F916F915F914F91A4
:101C80003F912F910F900FBE0F901F9018951F92AC
:101C90000F920FB60F9211242F933F934F935F93A0
:101CA0006F937F938F939F93AF93BF93EF93FF9324
:101CB00083E884BD8091E0019091E101A091E2016F
:101CC000B091E3010196A11DB11D8093E0019093B5
:101CD000E101A093E201B093E3010E947B0CFF912C
:101CE000EF91BF91AF919F918F917F916F915F9194
:101CF0004F913F912F910F900FBE0F901F9018950D
:101D0000CF92DF92EF92FF920F931F93CF93DF93C7
:101D1000CDB7DEB722970FB6F894DEBF0FBECDBFAA
:101D20008E01035F1F4FF801E190F1908F018AE56A
:101D3000C82E83E0D82EC6010E94DA071A830983D1
:101D4000A801B70184EA91E00E9451168C01C601F6
:101D50000E947407C80122960FB6F894DEBF0FBE2A
:101D6000CDBFDF91CF911F910F91FF90EF90DF904A
:101D7000CF900895FF920F931F93CF93DF938C0121
:101D8000F62E8EE795E09F938F930E942E1088E6A3
:101D900095E09F938F930E942E10E80100E010E0E1
:101DA0000F900F900F900F9019C0888199279F93E3
:101DB0008F93DF93CF931F930F9385E595E09F93C8
:101DC0008F930E942E100F5F1F4F21968DB79EB7E5
:101DD00008960FB6F8949EBF0FBE8DBF8F2D992722
:101DE0000817190714F3DF91CF911F910F91FF90FE
:101DF0000895CF93DF93EC01892BD1F00E9400145A
:101E0000DF93CF938AE691E09F938F930E941A15F8
:101E1000DF93CF938DE691E09F938F930E946B1099
:101E20008DB79EB708960FB6F8949EBF0FBE8DBFB4
:101E30000E940306DF91CF91089585B7806885BF22
:101E4000ECE6F0E080818F778083EDE6F0E0808142
:101E50008D7F808385B78F7B85BF83EF87BBC69AD5
:101E60008CEF81BB8EEC82B983B1806383B98DE046
:101E70008093610010926400E2E6F0E0808184606B
:101E800080831A9AC09A8081816080831B9A08950A
:101E9000EF92FF920F931F93CF93DF938C017B01FF
:101EA000EA018AE493E00E94DA0707950027079584
:101EB00000640E2907B987ED86B9349BFECF349AAA
:101EC00024B185B133279927982F8827282B392BC0
:101ED000398328838AE493E00E94740780E090E0CD
:101EE000DF91CF911F910F91FF90EF90089561E7DF
:101EF00071E08AE493E00E94C40708959C0136953E
:101F000027956065622B6DB980FF02C0709A01C091
:101F1000709887B3876087BB0895AC0120E00AC042
:101F2000FA01E20FF11D80818FB9779BFECF8FB14F
:101F300080832F5F2617A1F780E090E008958FE45B
:101F400093E00E94740708958FE493E00E94DA07FB
:101F500080E090E008956AE771E08FE493E00E94EA
:101F6000C40708951E9A5D9BFECF8CB91E989927D1
:101F700087FD909508951F93182F8A3019F48DE0EE
:101F80000E94BB0F812F0E94B20F1F910895CF9323
:101F9000DF93EC0103C021960E94B20F8881882351
:101FA000D1F7DF91CF9108951E9A5F9BFECF1E98C7
:101FB0008CB1992787FD909508958BB180789927EA
:101FC00087FD909508959C014427552794E0220FA2
:101FD000331F441F551F9A95D1F760E072E18AE7DD
:101FE00090E00E94021F822F815089B92150304019
:101FF00040405040232F342F452F552720939000E9
:102000001BB886E08093950088E18AB963E871E0A7
:1020100084E593E00E94C4070895CF92DF92EF9287
:10202000FF920F931F936C018B0124E5E22E23E0B6
:10203000F22EC7010E94DA07A801B6018DE891E0EF
:102040000E94461C8C01C7010E947407C8011F91A1
:102050000F91FF90EF90DF90CF900895CF93DF9393
:10206000CDB7DEB722970FB6F894DEBF0FBECDBF57
:10207000FE01379681919191FA83E983BF010E9415
:102080000D1022960FB6F894DEBF0FBECDBFDF91C4
:10209000CF910895CF92DF92EF92FF920F931F930B
:1020A0006C018B0134E5E32E33E0F32EC7010E946F
:1020B000DA07A801B6018DE891E00E9451168C0163
:1020C000C7010E947407C8011F910F91FF90EF9004
:1020D000DF90CF900895CF93DF93CDB7DEB72297EF
:1020E0000FB6F894DEBF0FBECDBFFE0137968191CB
:1020F0009191FA83E983BF010E944A1022960FB69C
:10210000F894DEBF0FBECDBFDF91CF910895DF926F
:10211000EF92FF920F931F93CF93DF93CDB7DEB76C
:1021200028970FB6F894DEBF0FBECDBF8C017B01A0
:10213000B801882799270E9402128F3FC9F3C698D9
:1021400080E08A95F1F7C69A00E010E041C00E9455
:102150008811682F0F5F1F4F807C803C19F041E091
:10216000D42E08C03FE3D32ED6220E948811682FB8
:102170000F5F1F4F40E050E0A1E0B0E0FE0131965C
:1021800027E030E0CD01022E02C0880F991F0A948B
:10219000E2F7862381934F5F5F4F215030404830F4
:1021A000510581F790E012C0FE0131969E01275F34
:1021B0003F4F8081882311F0C59A01C0C598C79A06
:1021C000C7983196E217F307A1F79F5F9D1561F756
:1021D0000E151F0508F4BBCF0E94191380916300F0
:1021E000992723E0969587952A95E1F7817090705D
:1021F00028960FB6F894DEBF0FBECDBFDF91CF910A
:102200001F910F91FF90EF90DF900895CF92DF9292
:10221000EF92FF920F931F93CF93DF93CDB7DEB76B
:1022200023970FB6F894DEBF0FBECDBF8C017B01A4
:102230006A010E94A40F8F3F19F48FEF9FEF59C0DE
:102240008E2D880F880F8064898360E082E090E0A3
:102250000E947E0F0130110571F00130110520F050
:1022600002301105D1F40EC01A9863E0CE01019638
:102270000E948D0F21C0C09863E0CE0101960E949C
:102280008D0F1CC0809162008E7F8093620063E09E
:10229000CE0101960E948D0F13C063E0CE0101961E
:1022A0000E948D0F0130110549F00130110520F019
:1022B0000230110551F404C01A9A07C0C09A05C033
:1022C000809162008160809362008A819927982FB3
:1022D00088272B813327822B932B26E09695879591
:1022E0002A95E1F7F601918380830E949F0F80E099
:1022F00090E023960FB6F894DEBF0FBECDBFDF91FE
:10230000CF911F910F91FF90EF90DF90CF900895A4
:102310001F93CF93DF93CDB7DEB722970FB6F89414
:10232000DEBF0FBECDBF61E0CE0101960E948D0FD2
:10233000809159038F3F49F410E061E0CE0102968D
:102340000E948D0F1F5F1830C1F7809159038F5F76
:10235000809359038981992722960FB6F894DEBF9E
:102360000FBECDBFDF91CF911F910895EF92FF92E5
:102370000F931F93CF93DF937C01C0E0D0E08B01DC
:1023800006C00E948811F80181938F012196CE1515
:10239000DF05B9F780E090E0DF91CF911F910F91B9
:1023A000FF90EF900895CF93DF93CDB7DEB72197DD
:1023B0000FB6F894DEBF0FBECDBF87ED8983809145
:1023C00062008B7F8093620061E0CE0101960E94E3
:1023D0008D0F61E0CE0101960E948D0F898187FFEC
:1023E000F8CF8091620084608093620082E08A95D9
:1023F000F1F721960FB6F894DEBF0FBECDBFDF9187
:10240000CF910895EF92FF920F931F93CF93DF9395
:10241000CDB7DEB724970FB6F894DEBF0FBECDBFA1
:102420007B018C010E94A40F8F3F19F48FEF9FEF67
:102430002EC060E081E090E00E947E0F88EE8983EC
:10244000D801C7012FE0B695A795979587952A954E
:10245000D1F78A83BB27A12F902F8F2D880F8B83D5
:10246000E0925903EC820E94D311809162008B7F2D
:102470008093620064E08E010F5F1F4FC8010E94CD
:102480008D0F64E0C8010E948D0F80E090E02496DB
:102490000FB6F894DEBF0FBECDBFDF91CF911F9175
:1024A0000F91FF90EF9008958F929F92AF92BF92FD
:1024B000CF92DF92EF92FF920F931F93CF93DF9310
:1024C000CDB7DEB724970FB6F894DEBF0FBECDBFF1
:1024D0006B017C014A0159010E94A40F8F3F19F43E
:1024E0002FEF3FEF3EC060E081E090E00E947E0F62
:1024F00084E889831A821B82CC82809162008B7F60
:102500008093620064E0CE0101960E948D0F2C2D15
:102510003327C9018A0D9B1D8150914028F0A12CC1
:1025200041E0B42EA21AB30A00E010E074010BC01F
:10253000F70181917F01898361E0CE0101960E94BC
:102540008D0F0F5F1F4F0A151B0591F780916200D9
:1025500084608093620082E08A95F1F70E949F0F69
:102560009501C90124960FB6F894DEBF0FBECDBF0A
:10257000DF91CF911F910F91FF90EF90DF90CF905F
:10258000BF90AF909F908F900895EF92FF920F931E
:102590001F93CF93DF93CDB7DEB724970FB6F89490
:1025A000DEBF0FBECDBF7B018C010E94A40F8F3F09
:1025B00019F48FEF9FEF30C060E081E090E00E945F
:1025C0007E0F83E58983D801C7016FE0B695A79593
:1025D000979587956A95D1F78A83BB27A12F902F6E
:1025E0008F2D880F8B831C820E94D31180916200F3
:1025F0008B7F8093620064E0CE0101960E948D0F74
:102600008091620084608093620082E08A95F1F795
:102610000E949F0F80E090E024960FB6F894DEBFF2
:102620000FBECDBFDF91CF911F910F91FF90EF9023
:102630000895E2E6F0E080818460808382E08A95FC
:10264000F1F70E949F0F08950F931F93CF93DF938D
:10265000CDB7DEB722970FB6F894DEBF0FBECDBF61
:102660008C0187ED89831A820E94A40F8F3F19F491
:102670008FEF9FEF1EC060E081E090E00E947E0F30
:10268000809162008B7F8093620062E0CE010196B0
:102690000E948D0F8091620084608093620082E0CE
:1026A0008A95F1F70E949F0F8A81F801808380E06C
:1026B00090E022960FB6F894DEBF0FBECDBFDF913B
:1026C000CF911F910F910895EF92FF920F931F9357
:1026D000CF93DF93CDB7DEB724970FB6F894DEBF64
:1026E0000FBECDBF7B018C010E94A40F8F3F19F458
:1026F0008FEF9FEF30C060E081E090E00E947E0F9E
:1027000083E88983D801C701EFE0B695A79597952F
:102710008795EA95D1F78A83BB27A12F902F8F2D1C
:10272000880F8B831C820E94D311809162008B7F63
:102730008093620064E0CE0101960E948D0F80912B
:10274000620084608093620082E08A95F1F70E94C3
:102750009F0F80E090E024960FB6F894DEBF0FBE86
:10276000CDBFDF91CF911F910F91FF90EF90089512
:102770008091E401992708950F931F93082F162F36
:102780008AE593E00E94DA07812F82958F700023FB
:1027900029F0979A880F880F806C04C09798880F4B
:1027A000880F806482BB80ED97E0FC013197F1F7E0
:1027B00096980197F1F7612F7727002349F06F7002
:1027C0007070660F771F660F771F862F806C08C0AA
:1027D0006F707070660F771F660F771F862F80648B
:1027E00082BB80ED97E0FC013197F1F79698019755
:1027F000F1F78AE593E00E9474071F910F91089505
:102800000F931F930AE513E0C8010E94DA0761E005
:1028100080E00E94BC1362E080E00E94BC13109232
:10282000E401C8010E9474071F910F9108951F933E
:10283000182F8AE593E00E94DA071093E401103123
:1028400008F0105D1068612F80E00E94BC138AE5DB
:1028500093E00E9474071F9108951F93182F8AE533
:1028600093E00E94DA078091E501882339F00E9405
:10287000001480E00E9417141092E5011A3031F420
:1028800081E08093E5011092E40111C0612F81E0A5
:102890000E94BC138091E4018F3021F460EC80E051
:1028A0000E94BC138091E4018F5F8093E4018AE56C
:1028B00093E00E947407812F992787FD90951F91BF
:1028C00008950F931F93CF93DF93EC018AE593E074
:1028D0000E94DA0700E010E01AC021966A3039F44D
:1028E00060E880E00E94BC131092E40103C081E024
:1028F0000E94BC130F3021F460EC80E00E94BC13F6
:102900008091E4018F5F8093E4010F5F1F4F688126
:10291000662319F78AE593E00E947407DF91CF914F
:102920001F910F910895FF920F931F93CF93DF9301
:10293000F82E8B018AE593E00E94DA07FF0CFF0C6A
:10294000FF0CE80100E06F2D600F606480E00E94E2
:10295000BC13FE01649181E00E94BC130F5F2196BD
:10296000083089F78AE593E00E947407DF91CF91E0
:102970001F910F91FF900895CF92DF92EF92FF92F7
:102980000F931F936C018B012AE5E22E23E0F22EB8
:10299000C7010E94DA07A801B60184EA91E00E940B
:1029A000461C8C01C7010E947407C8011F910F913A
:1029B000FF90EF90DF90CF900895CF93DF93CDB746
:1029C000DEB722970FB6F894DEBF0FBECDBFFE0173
:1029D000379681919191FA83E983BF010E94BC14DB
:1029E00022960FB6F894DEBF0FBECDBFDF91CF9118
:1029F0000895CF92DF92EF92FF920F931F936C0195
:102A00008B013AE5E32E33E0F32EC7010E94DA078B
:102A1000A801B60184EA91E00E9451168C01C70119
:102A20000E947407C8011F910F91FF90EF90DF90F3
:102A3000CF900895CF93DF93CDB7DEB722970FB62F
:102A4000F894DEBF0FBECDBFFE0137968191919104
:102A5000FA83E983BF010E94F91422960FB6F89415
:102A6000DEBF0FBECDBFDF91CF91089580E090E033
:102A70000197F1F763E380E00E94BC1362E380E01A
:102A80000E94BC1364E975E081E00E9493146CE934
:102A900075E082E00E94931464EA75E083E00E948E
:102AA00093146CEA75E084E00E94931464EB75E083
:102AB00085E00E9493146CEB75E086E00E9493140D
:102AC00061E080E00E94BC1362E080E00E94BC13E1
:102AD00066E080E00E94BC136CE080E00E94BC13C2
:102AE0006BE971E08AE593E00E94C40708950895B8
:102AF000CF92DF92EF92FF920F931F93082F7B01EB
:102B00009FE5C92E93E0D92EC6010E94DA07000F77
:102B1000005E112700501F4EF801E192EF2CFF24B8
:102B2000E082C6010E9474071F910F91FF90EF9001
:102B3000DF90CF900895FF920F931F93F82E8B0193
:102B4000B801882777FD8095982F0E94B91D17FF3F
:102B500006C020E030E040E857E40E94B61C21E6C1
:102B600032EC44E85FE30E946D1E0E948B1D6F5B98
:102B70007F4F8F2D0E9478151F910F91FF90089520
:102B800062EB71E08FE593E00E94C4070895EF9235
:102B9000FF921F9384E6E82E83E0F82EC7010E947F
:102BA000DA0710911E11C7010E9474071095812F3A
:102BB00099271F91FF90EF9008951F93182F883049
:102BC000A8F484E693E00E94DA0780911E11992709
:102BD0008095909502C0959587951A95E2F7182FE4
:102BE000117084E693E00E9474070FC0883140F4AE
:102BF0000E941B0510E08150924038F011E005C0A2
:102C000084EC95E00E94530910E0812F99271F91D1
:102C100008956DEB71E084E693E00E94C407089587
:102C2000EF92FF920F931F93082F39E6E32E33E0C4
:102C3000F32EC7010E94DA07A02FBB27AA0FBB1FE4
:102C4000EA2FE452FF27E050FF4E819100811127C7
:102C5000102F00279927082B192BAA54BE4F8D91AE
:102C60009C91081B190BC7010E947407C8011F9192
:102C70000F91FF90EF9008951F93182F0E94101648
:102C8000E12FFF27EE0FFF1FEA54FE4F9183808351
:102C90001F9108956AEC71E089E693E00E94C407F1
:102CA0000895A1E1B0E0E7E5F6E10C94241F3C01B2
:102CB0007F876E876A01FC0117821682838181FDFE
:102CC00003C06FEF7FEF71C39E012F5F3F4F398BC2
:102CD000288BF3012381EE85FF8523FD859123FF5A
:102CE0008191FF87EE87882309F45CC3853251F414
:102CF000EE85FF8523FD859123FF8191FF87EE8778
:102D0000853229F490E0B3010E941A1CE2CF982F7B
:102D100010E0882499241032B0F49B3269F09C3280
:102D200028F4903251F0933271F40BC09D3239F097
:102D3000903349F4116028C01260146025C01860F7
:102D400023C0106121C017FD2AC0892F80538A300B
:102D500078F416FF06C0FAE09F9E902C1124980E7E
:102D600013C03AE0839E802C1124880E10620CC0A0
:102D70009E3221F416FD16C3106406C09C3611F471
:102D8000106802C0983659F4EE85FF8523FD9591B1
:102D900023FF9191FF87EE87992309F0BCCF892FFC
:102DA0008554833020F4812F8061905E07C0892F85
:102DB0008556833008F0A1C1812F8F7E86FD02C029
:102DC00076E0972E6FE3F62EF822953619F4F0E4AC
:102DD000FF2A07C0963619F420E8F22A02C09110A3
:102DE0009A94F7FE0BC03BE3391520F427E05CE32F
:102DF000B52E0EC0B92CB39427E00AC047E04915A0
:102E000028F427E0BB2447E0942E02C0292DBB24E0
:102E1000C60104969D878C87F6016081718182814D
:102E20009381AE014F5F5F4F0B2D0E94DC1A6C0146
:102E30000981202E332400FF04C003FD02C01DE2DF
:102E400009C0F1FE02C01BE205C0F2FC02C010E0A6
:102E500001C010E2C1018C709070892BB9F111236F
:102E600011F483E001C084E0881510F088240AC0C2
:102E7000881AF3FC07C080E290E0B3010E941A1C9C
:102E80008A94C9F7112329F0812F90E0B3010E94A1
:102E90001A1C23FE03C001ED15E00EC005ED15E080
:102EA0000BC0E114F10409F0805290E0B3010E94DC
:102EB0001A1C0F5F1F4F05C0EF2CFF24F0E1EF221B
:102EC000FF24F8018491882361F714C1F7FE12C032
:102ED000BC0C24FE04C08A81813309F4BA941B140B
:102EE0001CF0BB24B3942DC0F8E0FB1550F538E07E
:102EF000B32E27C0F6FC25C0892D90E08C159D05CA
:102F00004CF02CEFC2162FEFD20624F030E8F32A53
:102F100001C09A94992049F0E2E0F0E0EC0FFD1F27
:102F2000E90DF11D80818033A1F3F7FE0AC0B92CB1
:102F3000B394892D90E0C816D90614F0992401C0E5
:102F40009C18F7FC03C025E030E009C01C141D04E8
:102F50001CF021E030E003C096012F5F3F4F1123AA
:102F600011F02F5F3F4F992029F0892D90E00196B5
:102F7000280F391F882D90E02817390714F088246E
:102F800001C0821A4F2C5524C20189709070892B80
:102F900039F008C080E290E0B3010E941A1C8A94C4
:102FA0008820C1F7112329F0812F90E0B3010E94FE
:102FB0001A1C43FE07C008C080E390E0B3010E94E2
:102FC0001A1C8A948820C1F7F7FE46C08601D7FEF6
:102FD00002C000E010E076010894E11CF11CE01A48
:102FE000F10A41E050E04C0F5D1FE40EF51E260192
:102FF0004B185108892D90E0AA24BB24A81AB90ABD
:103000005FEF0F3F150729F48EE290E0B3010E94B5
:103010001A1CC016D10634F0401651061CF4F701F4
:10302000808101C080E3015010400894E11CF11C34
:103030000A151B052CF090E0B3010E941A1CE0CF8A
:103040000C151D0539F49A81963318F4953311F453
:1030500024FE81E390E04BC08A81813309F00F7E2A
:1030600090E0B3010E941A1C9920A1F08EE290E03A
:10307000B3010E941A1C12E0E1E0F0E0EC0FFD1F2A
:10308000E10FF11D1F5F808190E0B3010E941A1CC7
:103090009A9491F744FC03C085E690E002C085E471
:1030A00090E0B3010E941A1CD7FC05C0C114D104E2
:1030B00041F404FF06C0D094C194D108D3948DE2AA
:1030C00001C08BE290E0B3010E941A1C80E305C0AE
:1030D0008F5F26EF3FEFC20ED31E3AE0C316D10436
:1030E000BCF790E0B3010E941A1CC601C096B30160
:1030F0000E941A1CCC84DD8452C1933631F0933780
:1031000099F0933509F059C023C0F6018081898375
:103110005E010894A11CB11C22E030E0C20ED31E57
:1031200021E0E22EF12C12C0F601A080B18016FD44
:1031300003C06FEF7FEF02C0692D70E022E030E046
:10314000C20ED31EC5010E940F1C7C011F7713C045
:10315000F601A080B18016FD03C06FEF7FEF02C0C3
:10316000692D70E022E030E0C20ED31EC5010E943E
:10317000041C7C01106813FF07C01BC080E290E0B4
:10318000B3010E941A1C8A94882D90E0E816F90673
:10319000A8F30FC0F50117FD859117FF81915F011D
:1031A00090E0B3010E941A1C81108A940894E108EF
:1031B000F108E114F10471F7F2C0943611F0993678
:1031C00089F517FF08C0F6012081318142815381C2
:1031D00084E090E00AC0F601808191819C0144273F
:1031E00037FD4095542F82E090E0C80ED91E9FE62F
:1031F000F92EF12257FF09C0509540953095219541
:103200003F4F4F4F5F4F90E8F92ACA01B901AE0115
:103210004F5F5F4F2AE030E00E94571CE82EE8899C
:10322000EE1A41C0953721F41F7E2AE030E01CC021
:10323000197F9F3661F0903720F4983509F0B2C0BD
:103240000FC0903739F0983709F0ACC004C028E0BF
:1032500030E00AC0106114FD146020E130E004C0C9
:1032600014FD166020E132E017FF08C0F60160810E
:1032700071818281938144E050E008C0F601808131
:103280009181BC0180E090E042E050E0C40ED51E88
:10329000AE014F5F5F4F0E94571CE82E5889E51A18
:1032A0008FE7F82EF122F6FE0BC08EEFF822E9141C
:1032B00038F4F4FE07C0F2FC05C09FEEF92202C00C
:1032C0001E2D01C0192DF4FE0DC0FE01EE0DF11DE5
:1032D0008081803319F4E9EEFE2208C01F5FF2FE00
:1032E00005C003C08F2D867809F01F5F0F2DF3FCFA
:1032F00014C0F0FE0FC0181510F09E2C0BC09E2CB1
:10330000980C911A182D06C080E290E0B3010E943B
:103310001A1C1F5F1815C0F304C0181510F4811A89
:1033200001C0882404FF0FC080E390E0B3010E9435
:103330001A1C02FF1DC001FD03C088E790E00EC00B
:1033400088E590E00BC0802F867891F001FF02C0E5
:103350008BE201C080E2F7FC8DE290E0B3010E94B5
:103360001A1C06C080E390E0B3010E941A1C9A94D4
:10337000E914C0F3EA94E1E0F0E0EC0FFD1FEE0D7C
:10338000F11D808190E0B3010E941A1CEE2091F79C
:1033900006C080E290E0B3010E941A1C8A94882043
:1033A000C1F797CCF30166817781CB016196E2E1A9
:1033B0000C94401FCF93DF93BC018230910510F431
:1033C00062E070E0A0917003B0917103ED01E0E064
:1033D000F0E040E050E021C088819981861797078E
:1033E00069F48A819B81309719F09383828304C0AA
:1033F0009093710380937003FE0134C068177907BE
:1034000038F44115510519F08417950708F4AC01FB
:10341000FE018A819B819C01E9012097E9F6411513
:103420005105A9F1CA01861B970B049708F4BA014C
:10343000E0E0F0E02AC08D919C91119784179507E8
:10344000F9F46417750781F412968D919C91139786
:10345000309719F09383828304C090937103809313
:103460007003FD0132964CC0CA01861B970BFD010B
:10347000E80FF91F6193719302978D939C9340C05D
:10348000FD01828193819C01D9011097A1F6809161
:103490006E0390916F03892B41F48091D901909133
:1034A000DA0190936F0380936E034091DB0150919A
:1034B000DC014115510541F44DB75EB78091D7014C
:1034C0009091D801481B590B20916E0330916F03E6
:1034D000CA01821B930B8617970780F0AB014E5FE2
:1034E0005F4F8417950750F0420F531F50936F039F
:1034F00040936E03F9016193719302C0E0E0F0E044
:10350000CF01DF91CF910895CF93DF93009709F416
:1035100050C0EC0122971B821A82A0917003B091D7
:103520007103109709F140E050E0AC17BD0708F1B6
:10353000BB83AA83FE0121913191E20FF31FAE17E5
:10354000BF0779F48D919C911197280F391F2E5F39
:103550003F4F3983288312968D919C9113979B83BB
:103560008A834115510571F4D0937103C0937003A0
:1035700020C012968D919C911397AD01009711F088
:10358000DC01D3CFFA01D383C28321913191E20FC1
:10359000F31FCE17DF0769F488819981280F391F3F
:1035A0002E5F3F4FFA01318320838A819B81938371
:1035B0008283DF91CF910895283008F027E03327E8
:1035C000DA01990F311D87FD916000966105710543
:1035D00039F432602E5F3D9330E32A95E1F7089588
:1035E0009F3F30F080387105610509F03C5F3C5F1A
:1035F0003D93913008F08068911DDF93CF931F9326
:103600000F93FF92EF92192F987F9695E92F969539
:103610009695E90FFF27ED5CF94F99273327EE24A4
:10362000FF24A701E70105900894079428F4360FBA
:10363000E71EF81E491F511D660F771F881F991F2F
:103640000694A1F70590079428F4E70EF81E491F89
:10365000561FC11D770F881F991F661F0694A1F77B
:103660000590079428F4F80E491F561FC71FD11D57
:10367000880F991F661F771F0694A1F7059007947E
:1036800020F4490F561FC71FD81F990F661F771FB9
:10369000881F0694A9F784911095177041F0D6956C
:1036A000C79557954795F794E7941A95C1F7E9EDB3
:1036B000F5E0689415901591359165919591059077
:1036C0007FE27395E118F10A430B560BC90BD00941
:1036D000C0F7E10CF11E431F561FC91FD01D7EF419
:1036E000703311F48A95E6CFE894015030F0080F5A
:1036F0000AF40027021708F4202F2395022F7A33AB
:1037000028F079E37D932A95E9F710C07D932A95F7
:1037100089F6069497956795379517951794E1184C
:10372000F10A430B560BC90BD00998F023957E91F3
:1037300073957A3308F070E37C932013B8F77E9189
:1037400070617D9330F0839571E37D9370E32A95EA
:10375000E1F71124EF90FF900F911F91CF91DF912E
:10376000992787FD90950895DC012D923D924D9209
:103770005D926D927D928D929D92AD92BD92CD9211
:10378000DD92ED92FD920D931D93CD93DD93FF910C
:10379000EF918DB78D938EB78D938FB78D93ED93FA
:1037A000FD93882799270994DC01CB01813091058D
:1037B000811D2D903D904D905D906D907D908D90F0
:1037C0009D90AD90BD90CD90DD90ED90FD900D91D0
:1037D0001D91CD91DD91ED91FD910D90F894FEBF7D
:1037E0000FBEEDBFED91FD910994FB01DC0141504D
:1037F000504048F005900D920020C9F701C01D927D
:1038000041505040E0F70895FC0105906150704030
:103810000110D8F7809590958E0F9F1F0895FC0199
:103820006150704001900110D8F7809590958E0FEF
:103830009F1F08950F931F93CF93DF938C01EB018C
:103840008B8181FF1BC082FF0DC02E813F818C8147
:103850009D812817390764F4E881F9810193F98380
:10386000E88306C0E885F985802F0995892B31F416
:103870008E819F8101969F838E8302C00FEF1FEF81
:10388000C801DF91CF911F910F9108950F931F935E
:103890008C01FC01838188608383C8010E945116DA
:1038A000F8012381277F23831F910F910895FA0147
:1038B000AA27283051F1203181F1E8946F936E7F6F
:1038C0006E5F7F4F8F4F9F4FAF4FB1E03ED0B4E060
:1038D0003CD0670F781F891F9A1FA11D680F791FA1
:1038E0008A1F911DA11D6A0F711D811D911DA11DB2
:1038F00020D009F468943F912AE0269F11243019C2
:10390000305D3193DEF6CF010895462F4770405D5C
:103910004193B3E00FD0C9F7F6CF462F4F70405D0B
:103920004A3318F0495D31FD4052419302D0A9F766
:10393000EACFB4E0A6959795879577956795BA9560
:10394000C9F700976105710508959B01AC010A2E26
:1039500006945795479537952795BA95C9F7620FFD
:10396000731F841F951FA01D08955058BB27AA27B9
:103970000ED075C166D130F06BD120F031F49F3F8D
:1039800011F41EF45BC10EF4E095E7FB51C1E92F81
:1039900077D180F3BA17620773078407950718F089
:1039A00071F49EF58FC10EF4E0950B2EBA2FA02D69
:1039B0000B01B90190010C01CA01A0011124FF27DC
:1039C000591B99F0593F50F4503E68F11A16F040D7
:1039D000A22F232F342F4427585FF3CF46953795D6
:1039E0002795A795F0405395C9F77EF41F16BA0B9B
:1039F000620B730B840BBAF09150A1F0FF0FBB1F49
:103A0000661F771F881FC2F70EC0BA0F621F731F91
:103A1000841F48F4879577956795B795F7959E3FEE
:103A200008F0B3CF9395880F08F09927EE0F97957C
:103A300087950895D9D008F481E008950CD00FC17E
:103A400007D140F0FED030F021F45F3F19F0F0C014
:103A5000511139C1F3C014D198F39923C9F35523F7
:103A6000B1F3951B550BBB27AA2762177307840771
:103A700038F09F5F5F4F220F331F441FAA1FA9F327
:103A800033D00E2E3AF0E0E830D091505040E69519
:103A9000001CCAF729D0FE2F27D0660F771F881F7A
:103AA000BB1F261737074807AB07B0E809F0BB0B69
:103AB000802DBF01FF2793585F4F2AF09E3F51058D
:103AC00068F0B6C000C15F3FECF3983EDCF386952A
:103AD00077956795B795F7959F5FC9F7880F911D03
:103AE0009695879597F90895E1E0660F771F881FEF
:103AF000BB1F621773078407BA0720F0621B730BA2
:103B0000840BBA0BEE1F88F7E095089504D06894F3
:103B1000B111D9C00895BCD088F09F5790F0B92F4B
:103B20009927B751A0F0D1F0660F771F881F991F12
:103B30001AF0BA95C9F712C0B13081F0C3D0B1E024
:103B40000895C0C0672F782F8827B85F39F0B93F34
:103B5000CCF3869577956795B395D9F73EF4909514
:103B60008095709561957F4F8F4F9F4F0895E89492
:103B700009C097FB3EF490958095709561957F4FB5
:103B80008F4F9F4F9923A9F0F92F96E9BB27939563
:103B9000F695879577956795B795F111F8CFFAF473
:103BA000BB0F11F460FF1BC06F5F7F4F8F4F9F4FA4
:103BB00016C0882311F096E911C0772321F09EE802
:103BC000872F762F05C0662371F096E8862F70E068
:103BD00060E02AF09A95660F771F881FDAF7880F42
:103BE0009695879597F90895990F0008550FAA0B98
:103BF000E0E8FEEF16161706E807F907C0F0121600
:103C00001306E407F50798F0621B730B840B950B02
:103C100039F40A2661F0232B242B252B21F4089557
:103C20000A2609F4A140A6958FEF811D811D0895F4
:103C300097F99F6780E870E060E008959FEF80EC5F
:103C4000089500240A941616170618060906089502
:103C500000240A9412161306140605060895092E68
:103C60000394000C11F4882352F0BB0F40F4BF2BD7
:103C700011F460FF04C06F5F7F4F8F4F9F4F089517
:103C800057FD9058440F551F59F05F3F71F047950D
:103C9000880F97FB991F61F09F3F79F087950895F2
:103CA000121613061406551FF2CF4695F1DF08C011
:103CB000161617061806991FF1CF8695710561052E
:103CC00008940895E894BB2766277727CB0197F9D6
:103CD00008958ADF08F48FEF08950BD0C0CFB1DFCD
:103CE00028F0B6DF18F0952309F0A2CFA7CF112452
:103CF000EACFC6DFA0F3959FD1F3950F50E0551F93
:103D0000629FF001729FBB27F00DB11D639FAA2730
:103D1000F00DB11DAA1F649F6627B00DA11D661F7F
:103D2000829F2227B00DA11D621F739FB00DA11DA0
:103D3000621F839FA00D611D221F749F3327A00D5A
:103D4000611D231F849F600D211D822F762F6A2FF6
:103D500011249F5750408AF0E1F088234AF0EE0F7B
:103D6000FF1FBB1F661F771F881F91505040A9F788
:103D70009E3F510570F05CCFA6CF5F3FECF3983EBD
:103D8000DCF3869577956795B795F795E7959F5FEF
:103D9000C1F7FE2B880F911D9695879597F9089589
:103DA000629FD001739FF001829FE00DF11D649F1F
:103DB000E00DF11D929FF00D839FF00D749FF00DAB
:103DC000659FF00D9927729FB00DE11DF91F639F4C
:103DD000B00DE11DF91FBD01CF011124089597FB1E
:103DE000092E07260AD077FD04D065D006D0002022
:103DF0001AF4709561957F4F0895F6F79095819527
:103E00009F4F0895A1E21A2EAA1BBB1BFD010DC0F6
:103E1000AA1FBB1FEE1FFF1FA217B307E407F5077A
:103E200020F0A21BB30BE40BF50B661F771F881F56
:103E3000991F1A9469F760957095809590959B01EC
:103E4000AC01BD01CF0108952F923F924F925F9236
:103E50006F927F928F929F92AF92BF92CF92DF929A
:103E6000EF92FF920F931F93CF93DF93CDB7DEB7FF
:103E7000CA1BDB0B0FB6F894DEBF0FBECDBF099493
:103E80002A88398848885F846E847D848C849B84EA
:103E9000AA84B984C884DF80EE80FD800C811B81F8
:103EA000AA81B981CE0FD11D0FB6F894DEBF0FBE27
:103EB000CDBFED010895AA1BBB1B51E107C0AA1F8E
:103EC000BB1FA617B70710F0A61BB70B881F991FBB
:0E3ED0005A95A9F780959095BC01CD010895F3
:103EDE000A2566006D6F746F72206C6F636B000441
:103EEE000502030001726F626F74206D6F6E69744C
:103EFE006F720075736572206D61696E00014861A5
:103F0E00707079626F617264207625582E2530327A
:103F1E00582020202020202020202020202020205B
:103F2E0005000069646C6500756E6B6E6F776E20B0
:103F3E00696E746572727570740025730025730A4C
:103F4E0000616463206C6F636B00737069206C6F2B
:103F5E00636B0055415254206C6F636B0000000080
:103F6E000200000000BB0F000000004C4344206C18
:103F7E006F636B0000000002000000002D140000B3
:103F8E000000736572766F206C6F636B00646967F7
:103F9E006974616C206C6F636B00656E636F646532
:0E3FAE0072206C6F636B00200078030000002F
:00000001FF
