:100000000C9409040C9429040C9429040C942904DC
:100010000C9429040C9429040C9429040C942904AC
:100020000C9429040C9429040C94A0210C94290408
:100030000C9429040C9429040C9429040C9429048C
:100040000C9429040C9429040C9429040C9429047C
:100050000C9429040C9429040C9429040C9429046C
:100060000C9429040C9429040C9429040C9429045C
:100070000C9429040C9429040C9429040C9429044C
:100080000C9429040C9429040C9429046C11781103
:100090007D11821187118C1191119A119F11A81154
:1000A000B111B611BF11C811CD11D211D711DC1188
:1000B000084AD73B3BCE016E84BCBFFDC12F3D6CCF
:1000C00074319ABD56833DDA3D00C77F11BED9E435
:1000D000BB4C3E916BAAAABE000000803F072C7A61
:1000E000A5BA6CC590DA3B9365FC8BBC53F810FD48
:1000F0003C5692834DBD879D3AB63DCBC9BF5BBE92
:1001000073DA0FC93F0A43616C6962726174696E88
:1001100067206F66667365742E000A5374616269A6
:100120006C697A696E67000A507265737320676F35
:100130002E007570646174655F7069643A206E6F3B
:1001400020696E707574007570646174655F7069A4
:10015000643A207069642064697361626C6564004C
:100160006572726F722025302E33660A00637572D5
:1001700072656E742076616C75652025302E33664D
:100180000A00696E69745F7069643A20706964205E
:100190006E756C6C00616E616C6F675F7265616437
:1001A000006D637033303038206661696C006D63B8
:1001B0007033303038206661696C006D61696E00A3
:1001C0000A004A6F794F532076302E322E342D524A
:1001D000433420202020507265737320474F002045
:1001E00020202020202020206D656D6F72792066F0
:1001F000756C6C00686561702073697A653A2025BA
:10020000642062797465730A005F5F6D616C6C6F66
:10021000635F686561705F656E64203D2025700ACC
:10022000005F5F6D616C6C6F635F686561705F73C9
:1002300074617274203D2025700A0072756E6177BA
:10024000617920636F6465000A526F756E64206582
:100250006E64000A526F626F742072656164792E59
:100260002020202050726573732027476F27006C71
:100270006F636B2068656C6420627920616E6F74B7
:100280006865720072656C6561736520756E68657E
:100290006C64206C6F636B0072656C6561736520C4
:1002A0006E756C6C206C6F636B0069735F68656C56
:1002B00064206E756C6C206C6F636B00616371758C
:1002C0006972656420746F6F206D616E7920746946
:1002D0006D65730061637175697265206E756C6C14
:1002E000206C6F636B00696E6974206E756C6C2096
:1002F0006C6F636B00496E6974206661696C3A20AB
:1003000025730A0D005541525430206F70656E659B
:10031000642061742025640A0D0048617070796260
:100320006F61726420696E697420737461727465A0
:10033000640A0D00486172647761726520766572A7
:1003400073696F6E2025582E253032580A0D0042F1
:100350006F61726420494420253034580A0D0042F0
:100360006F61726420636F6E666967204F4B0A0D80
:100370000042617474657279204F4B3A2025646D98
:10038000560A0D0046504741207625642E25640A02
:100390000D0046504741206661696C757265004CDE
:1003A0006F772062617474657279004261642043E2
:1003B0006F6E666967000A70616E69633A20257323
:1003C0000070616E69633A2025730A0020746872B8
:1003D00065616420287469642025642920272573B9
:1003E00027207374617475732025642072756E7391
:1003F0002025750A0020746872656164202874697C
:10040000642025642920756E616C6C6F636174656E
:10041000640A0044756D70696E6720746872656166
:1004200064207374617465733A0A0020504320207D
:10043000203A20253038700A002053524547203A90
:1004400020253032700A002053502020203A2025E9
:100450003034700A002046502020203A20253034C5
:10046000700A00203C6F6D697474696E6720723089
:100470002D7233313E0A0044756D70696E67206AD3
:100480006D705F6275663A0A006F7574206F662042
:100490007468726561647300736C65657000796976
:1004A000656C64006E6F2063757272656E745F7444
:1004B000687265616400737461636B206F76657246
:1004C000666C6F7700726573657276656420737011
:1004D0006163653A20257020746F2025700A0073CF
:1004E0007461636B746F703A2025700A007063202A
:1004F00061742025700A007370206F6620272573B1
:100500002720286964202564292069732025700A22
:10051000000A737461636B206F766572666C6F7727
:100520000A0053502061626F7665006E6F20696427
:100530006C65006D616C6C6F632073706163652026
:100540005B25702C25705D0A0074687265616473A8
:100550005B305D2E74685F737461747573206174B1
:100560002025700A00746872656164735B305D20D9
:1005700061742025700A0074696D65202564002D62
:100580002D206E6F2069646C6520746872656164EB
:10059000202D2D0A007363686564756C65004F6FCC
:1005A00070732E2E2E20746865726527732061206B
:1005B00072756E6E61626C6520746872656164202C
:1005C0007468617473206E6F742069646C650A00CE
:1005D0002074687265616420287469642025642928
:1005E0002027257327207374617475732025640A8E
:1005F0000020746872656164202874696420256431
:100600002920756E616C6C6F63617465640A0069A2
:10061000646C65206672656500286964202564291C
:1006200020737461636B205B25702C2570290A0090
:10063000746872656164207461626C6520656E64C3
:100640002061742025700A007468726561642074EA
:1006500061626C652073746172742061742025700E
:100660000A002520356420202025347020202025F4
:100670003032780A003D3D3D3D3D3D3D3D3D3D3DF7
:100680003D3D3D3D3D3D3D3D3D0A00494E444558C3
:100690002020204144445220202056414C55450AF8
:1006A0000000000A0000110E0000000A0000111FE7
:1006B0000000000A00000E1100000E1F1111111F92
:1006C000000000000000001500000E0E0E1F0E04BA
:1006D000006469676974616C5F7265616400525897
:1006E000206C656E3A20253032580A00525820702E
:1006F0006970653A20253032580A00545820414329
:100700004B207374617475733A20253032580A0097
:100710006E616E00696E660000407A10F35A00A0A8
:10072000724E18090010A5D4E80000E876481700BA
:1007300000E40B54020000CA9A3B000000E1F505FA
:10074000000080969800000040420F000000A08644
:1007500001000000102700000000E8030000000076
:100760006400000000000A0000000000010000001A
:1007700000002C76D888DC674F0823DFC1DFAE5934
:10078000E1B1B796E5E3E453C63AE651997696E8C7
:10079000E6C28426EB898C9B62ED407C6FFCEFBC4B
:1007A0009C9F40F2BAA56FA5F490055A2AF75C9376
:1007B0006B6CF9676DC11BFCE0E40D47FEF520E6AC
:1007C000B500D0ED902E0300943577050080841E8F
:1007D000080000204E0A000000C80C333333330FEA
:1007E000986E12831141EF8D2114893BE65516CF87
:1007F000FEE6DB18D1844B381BF77C1D901DA4BB93
:10080000E424203284725E228100C9F124ECA1E547
:100810003D2711241FBECFEFD0E1DEBFCDBF13E0D7
:10082000A0E0B1E0E8EFF2E700E00BBF02C0079004
:100830000D92AE37B107D9F71BBE15E0AEE7B3E0B6
:1008400001C01D92A93BB107E1F70E94131A0C9455
:10085000A8200C947A210F931F930E944D05182F06
:10086000092F0E941705BC01812F902F0E94BD0403
:10087000812F902F1F910F910895EF92FF921F9358
:10088000CF93DF930E942B047C0110E0E12FF0E076
:10089000EE0FFF1FEE0DFF1DEF0163968389948914
:1008A000009739F00E94B704892B19F4E880F98089
:1008B000ECCF1F5F143050F3E8CF0F931F9380E00D
:1008C0000E94101A00D087E291E0EDB7FEB7928344
:1008D00081830E9467340F900F900E94431700D0CD
:1008E0008AE191E0EDB7FEB7928381830E9467347D
:1008F0000F900F9064EF71E080E090E00E94C620BE
:1009000000D085E091E0EDB7FEB7928381830E942D
:1009100067340F900F9088E04CE054E268EA79E485
:1009200008E813E120E030E00E94871981E095E3B8
:1009300064E070E00E9432150E94571280E090E05F
:10094000A0E0B0E08093AE039093AF03A093B00318
:10095000B093B1038093B2039093B303A093B40315
:10096000B093B50380E090E01F910F910895FC01D2
:1009700020813181F901099508959C01DC01E0E0B5
:10098000F0E053968D919C915497892B39F4EE0F9A
:10099000FF1FE20FF31F748B638B0895319612963D
:1009A000E430F10571F7089500D000D0EDB7FEB73F
:1009B000319622E031E0ADB7BEB712963C932E934C
:1009C0001197DC0152968C91828313820E94D92167
:1009D0000F900F900F900F9064EF71E080E090E027
:1009E0000E94C6200E94D716882319F020E030E02C
:1009F00006C00E94E3168823A9F321E030E0C90174
:100A000008951F93182F8BE190E00E94FB31FC01A9
:100A100024ED34E031832083128B148A138A168AE2
:100A2000158A108E178A128E118E1F9108958BE1F0
:100A300090E00E94FB31FC012EE236E031832083FE
:100A4000148A138A168A158A108E178A128E118EAE
:100A500008958BE190E00E94FB31FC012FE13CE026
:100A600031832083148A138A168A158A108E178A76
:100A7000128E118E08958BE190E00E94FB31FC01F3
:100A800024E63BE031832083148A138A168A158A70
:100A9000108E178A128E118E08958BE190E00E94BD
:100AA000FB31FC01148A138A168A158A108E178A64
:100AB000128E118E0895CF92EF92FF920F931F9393
:100AC000DF93CF93CDB7DEB72C970FB6F894DEBF88
:100AD0000FBECDBFE982FA820B831C832D833E8338
:100AE0004F83588769877A878B879C878BE190E053
:100AF0000E94FB31FC018AE49FE0DF018D939D930E
:100B0000AD019E012F5F3F4F8CE0D9010D909D01FB
:100B1000DA010D92AD018150C1F7C28A148A138A9D
:100B2000168A158A108E178A128E118ECF012C9676
:100B30000FB6F894DEBF0FBECDBFCF91DF911F91EE
:100B40000F91FF90EF90CF900895EF92FF920F9347
:100B50001F93DF93CF93CDB7DEB72C970FB6F894E2
:100B6000DEBF0FBECDBFE982FA820B831C832D83CB
:100B70003E834F8358872D813E814F8158858981DF
:100B80009A81AB81BC818093AE039093AF03A09315
:100B9000B003B093B1032093B2033093B3034093F7
:100BA000B4035093B5032C960FB6F894DEBF0FBE76
:100BB000CDBFCF91DF911F910F91FF90EF900895DE
:100BC00020910104309102044091030450910404E7
:100BD000B901CA0108950895AF92BF92CF92DF92F2
:100BE000EF92FF920F931F935B016C0179018A01D1
:100BF0000E94D13518162CF0C801B701A601950145
:100C00000CC0C601B501A80197010E940A359B01DD
:100C1000AC0160E070E084EB93E40E940A357B0154
:100C20008C0120E030E044E353E40E94EC371816D6
:100C300054F4C801B70120E030E044EB53E40E94D3
:100C40000A357B018C01B701C8011F910F91FF90FC
:100C5000EF90DF90CF90BF90AF9008956F927F920A
:100C60008F929F92AF92BF92CF92DF92EF92FF92BC
:100C70000F931F93CF93DF9397EA692E9FEF792EFF
:100C80008CE0882E81E0982E0E9401180E94773611
:100C90006B017C01882799278C199D090E942E12CF
:100CA000BC0181E00E94701568EE73E080E090E086
:100CB0000E94C62087E190E00E943B15A0E0B0E0D2
:100CC000BC01CD010E94AC362CE53FE842E250E485
:100CD0000E94D5350E947C36A62EC3018C199D0931
:100CE0000E942E12BC0181E00E94701568EE73E034
:100CF00080E090E00E94C62087E190E00E943B15D2
:100D0000A0E0B0E0BC01CD010E94AC362CE53FE88C
:100D100042E250E40E94D5350E947C36B62E0A2D60
:100D200010E0E62EFF24C60168E671E00E94F53867
:100D3000EC018DB79EB708970FB6F8949EBF0FBE13
:100D40008DBFEDB7FEB73196ADB7BEB712969C9288
:100D50008E92119713830283F582E482D783C68330
:100D60000E94D9218DB79EB708960FB6F8949EBF02
:100D70000FBE8DBF1C161D063CF06B2D70E080E091
:100D800090E00E94AC363EC0CB35D10584F46A2D8C
:100D900070E080E090E00E94AC366093AE03709308
:100DA000AF038093B0039093B1036B2D1BC0B701C9
:100DB000882777FD8095982FC53BD105CCF40E94FC
:100DC000AE369B01AC0160E070E080E992E40E94E5
:100DD0000A356093AE037093AF038093B003909392
:100DE000B1036A2D70E080E090E00E94AC3621C033
:100DF0000E94AE369B01AC0160E070E080E992E4B5
:100E00000E940A356093AE037093AF038093B003E2
:100E10009093B103B801882777FD8095982F0E94A1
:100E2000AE369B01AC0160E070E080EC92E40E9481
:100E30000A356093B2037093B3038093B403909325
:100E4000B503BE01882777FD8095982F0E94AE36A6
:100E50006093B6037093B7038093B8039093B9037C
:100E600013CF2F923F924F925F926F927F928F9209
:100E70009F92AF92BF92CF92DF92EF92FF920F9329
:100E80001F93DF93CF9300D000D00F92CDB7DEB782
:100E900029833A834B835C83270138018D8241E0AB
:100EA000242E312C32E0832E912C23E0E22EF12CE3
:100EB000B3C001301105E9F10130110540F00230F5
:100EC000110509F478C00330110599F7A1C000D0CD
:100ED00000D000D0EDE2F1E0ADB7BEB71296FC93C2
:100EE000EE93119713964D925D926D927C921697A8
:100EF0000E94D921EDB7FEB736960FB6F894FEBF23
:100F00000FBEEDBF68EE73E080E090E00E94C62067
:100F10004092E4035092E5036092E6037092E70387
:100F20003092E9032092E8039092EC038092EB0365
:100F300073C000D000D000D0ECE3F1E0ADB7BEB795
:100F40001296FC93EE93119789819A81AB81BC81B3
:100F5000EDB7FEB783839483A583B6830E94D9211E
:100F60008DB79EB706960FB6F8949EBF0FBE8DBF85
:100F700068EE73E080E090E00E94C6209D81992396
:100F800029F09092E9038092E80304C0F092E9030B
:100F9000E092E80389819A81AB81BC818093ED0363
:100FA0009093EE03A093EF03B093F0033092EC0321
:100FB0002092EB0331C000D000D000D0EDE2F1E090
:100FC000ADB7BEB71296FC93EE9311971396AD9200
:100FD000BD92CD92DC9216970E94D921EDB7FEB753
:100FE00036960FB6F894FEBF0FBEEDBF68EE73E005
:100FF00080E090E00E94C620A092E403B092E50356
:10100000C092E603D092E703F092E903E092E8038E
:101010001093EC030093EB030091E8031091E903B4
:101020008091EB039091EC03892B09F442CF0F9050
:101030000F900F900F900F90CF91DF911F910F9114
:10104000FF90EF90DF90CF90BF90AF909F908F90E8
:101050007F906F905F904F903F902F900895DF9218
:10106000EF92FF920F931F93CF93DF93282F84313A
:1010700031F0863111F001E003C000E001C002E070
:10108000C02FD0E0CE01880F991FFC0133E0EE0F96
:10109000FF1F3A95E1F7E81BF90BE654FC4FD080AF
:1010A00081E08D1510F092E0D92E8E0183E0000FC3
:1010B000111F8A95E1F70C1B1D0BF801EE0FFF1FA6
:1010C000E454FC4FE080F180822F0E9426164D2DC3
:1010D00050E0F801E40FF51FEE0FFF1FE654FC4F40
:1010E00011821082E816F90620F481E090E09183E5
:1010F0008083CE01880F991F9C0163E0220F331F6C
:101100006A95E1F7281B390BF901E654FC4FCA0137
:10111000019765E070E00E94F5388E5F8083118250
:10112000F901E254FC4F30E022E080819181892B6B
:1011300009F03F5F2F5F32962730B9F780E03330F8
:1011400008F481E0DF91CF911F910F91FF90EF9014
:10115000DF9008950F931F9384E10E942F08182FAA
:1011600085E10E942F08082F86E10E942F08110FA9
:10117000110F000F100F180F1093EA031F910F911A
:101180000895AF92BF92CF92DF92EF92FF920F93AA
:101190001F93CF93DF931092EA037CE6A72E71E0B2
:1011A000B72E68E7C62E61E0D62E53E8E52E51E053
:1011B000F52E06E511E0C2E6D1E08091EA03833026
:1011C00071F1843030F4813051F0823009F05AC02E
:1011D00016C08430A1F1863009F054C040C081E0CF
:1011E0006EEA70E00E94ED1580E06AE970E00E940E
:1011F000ED1500D0EDB7FEB7128301833FC081E04B
:1012000064EA70E00E94ED1580E064EA70E00E94FC
:10121000ED1500D0EDB7FEB7D283C1832FC081E0BA
:1012200069EA70E00E94ED1580E06FE970E00E94CD
:10123000ED1500D0EDB7FEB7B282A1821FC081E0EC
:101240006AE970E00E94ED1580E06EEA70E00E94AD
:10125000ED1500D0EDB7FEB7D282C1820FC081E09C
:101260006FE970E00E94ED1580E069EA70E00E948D
:10127000ED1500D0EDB7FEB7F282E1820E94D921D0
:101280000F900F906AE070E080E090E00E94C6202E
:101290000E94AA0892CF0F931F93CF93DF930E94CF
:1012A000E316882339F083E090E09093EC03809379
:1012B000EB0346C089E10E94B216EC0100911504CF
:1012C0001091160488E10E94B21620911304309107
:1012D0001404C01BD10BC21BD30BC80FD91FD6954A
:1012E000C7956091ED037091EE038091EF039091AB
:1012F000F00320E030E040EF51E40E94F73720E0B7
:1013000030E040E451E40E94D5352CE33AE94FE562
:1013100050E40E94F7370E947C36CB0177FF03C070
:10132000909581959F4FC817D90750F085E090E0C0
:101330009093EC038093EB0388EC90E00E94C2143E
:10134000DF91CF911F910F910895CF92DF92EF928D
:10135000FF920F931F93CF93DF9300D08EE891E01D
:10136000EDB7FEB7928381830E94D9210F900F9031
:1013700089E10E94B216909316048093150488E1C7
:101380000E94B21690931404809313046091ED03AD
:101390007091EE038091EF039091F00320E030E034
:1013A00040E050E00E94D13588231CF4CFEFDFEFFE
:1013B00037C0C1E0D0E034C00E940118AB01BC01CD
:1013C00081EF93E00E9461100E9477367B018C01CF
:1013D0008FE990E0E80EF91EEC9EB001ED9E700DD5
:1013E000FC9E700D1124E1E6FFEFEE0EFF1E80E083
:1013F0000E94ED15C6018E199F098C9FB0018D9F2B
:10140000700D9C9F700D112481E00E94ED1562E328
:1014100070E080E090E00E94C6200E944B0903C06B
:10142000F9EACF2ED12C8091EB039091EC03019738
:1014300019F2DF91CF911F910F91FF90EF90DF9004
:10144000CF9008950F931F93CF93DF930E94E316DD
:10145000882339F083E090E09093EC038093EB03D2
:1014600049C089E10E94B216EC0100911504109167
:10147000160488E10E94B2162091130430911404DE
:10148000C01BD10BC21BD30BC80FD91FD695C79554
:101490006091ED037091EE038091EF039091F00362
:1014A0002CE53FE842E250E40E94F7372CE33AE9AA
:1014B0004FE550E40E94F7370E947C36CB0177FF5E
:1014C00003C0909581959F4FC817D90798F0109247
:1014D000EC031092EB038091E8039091E9038330D1
:1014E000910521F49093EC038093EB0388EC90E05A
:1014F0000E94C214DF91CF911F910F910895CF9256
:10150000DF92EF92FF920F931F93CF93DF9300D060
:1015100081EA91E0EDB7FEB7928381830E94D921E1
:101520000F900F9089E10E94B21690931604809359
:10153000150488E10E94B21690931404809313045A
:101540006091ED037091EE038091EF039091F003B1
:1015500020E030E040E050E00E94D13588231CF4C8
:10156000CFEFDFEF37C0C1E0D0E034C00E940118F8
:10157000AB01BC0181EF93E00E9461100E947736BD
:101580007B018C018FE990E0E80EF91EEC9EB00122
:10159000ED9E700DFC9E700D1124E1E6FFEFEE0E46
:1015A000FF1E80E00E94ED15C6018E199F098C9FD9
:1015B000B0018D9F700D9C9F700D112481E00E94E1
:1015C000ED1564E170E080E090E00E94C6200E948A
:1015D000220A03C0B9EACB2ED12C8091EB03909163
:1015E000EC03019719F2DF91CF911F910F91FF90BA
:1015F000EF90DF90CF90089500D08FEA91E0EDB7A3
:10160000FEB7928381830E94D92181E090E090937C
:10161000EC038093EB0380E090E0A8ECB2E48093CD
:10162000ED039093EE03A093EF03B093F0030F90BC
:101630000F9002C00E947F0A8091EB039091EC030F
:1016400081309105B9F320E030E0049711F021E0FA
:1016500030E0C9010895EF92FF920F931F937B0131
:101660008C0100D08CEB91E0EDB7FEB792838183C3
:101670000E94D92181E090E09093EC038093EB03EA
:1016800083E090E09093E9038093E803E092ED0318
:10169000F092EE030093EF031093F0030F900F907E
:1016A00005C081309105E9F70E947F0A8091EB0324
:1016B0009091EC0383309105A1F780E090E01F91B9
:1016C0000F91FF90EF900895CF93DF9381E06FEF3C
:1016D00070E00E94701568EE73E080E090E00E9478
:1016E000C62087E190E00E943B15EC0181E060E0BC
:1016F00070E00E94701568EE73E080E090E00E9458
:10170000C62087E190E00E943B159C0180E02E31CD
:10171000310508F481E0CE31D10508F044C08823BA
:1017200009F100D000D000D0EDB7FEB7319681EDC1
:1017300091E0ADB7BEB712969C938E931197D38369
:10174000C283358324830E94D9218DB79EB7069624
:101750000FB6F8949EBF0FBE8DBF60E070E084E3CB
:1017600093E464C000D000D000D0EDB7FEB731964E
:101770008CED91E0ADB7BEB712969C938E93119706
:10178000D383C283358324830E94D9218DB79EB72A
:1017900006960FB6F8949EBF0FBE8DBF60E070E056
:1017A00084EB92EC43C0882309F100D000D000D034
:1017B000EDB7FEB7319687EE91E0ADB7BEB71296A2
:1017C0009C938E931197D383C283358324830E9485
:1017D000D9218DB79EB706960FB6F8949EBF0FBE5F
:1017E0008DBF60E070E084EB92E420C000D000D0B8
:1017F00000D0EDB7FEB7319681EF91E0ADB7BEB73F
:1018000012969C938E931197D383C283358324833E
:101810000E94D9218DB79EB706960FB6F8949EBF49
:101820000FBE8DBF60E070E080E090E00E94C217C4
:101830000E94431780E090E0DF91CF910895EF92EE
:10184000FF920F931F9300D08AEF91E0EDB7FEB7A0
:10185000928381830E94D9210F900F9081E06FEFD6
:1018600071E00E94701560E070E080EC90E40E94EE
:101870002B0B0E94111D7B018C0116C081E06AEFC9
:1018800070E00E94701564EF71E080E090E00E94CB
:10189000C62081E065EF71E00E94701564EF71E091
:1018A00080E090E00E94C6200E94111D6E197F0901
:1018B000800B910B6858734180409040F8F284EFA0
:1018C00091E00E94C21480E090E01F910F91FF9080
:1018D000EF900895EF92FF920F931F930E94FC34B4
:1018E00021EE3EE245E652E40E94F7377B018C018F
:1018F00020E030E040E050E00E94D135882354F4ED
:10190000C801B70120E030E044EB53E40E940B35FE
:101910007B018C01B701C8011F910F91FF90EF90DF
:1019200008954F925F926F927F928F929F92AF92A3
:10193000BF92CF92DF92EF92FF920F931F932B01F2
:101940003C0181EF93E040E050E060EE7FE30DEC7E
:101950001CEC2CEC3EE30F2EF0E0CF2EF0E0DF2E5F
:10196000F0E0EF2EF0E0FF2EF02DAA24BB24882417
:1019700099240E94FF0F4092010450920204609249
:101980000304709204041F910F91FF90EF90DF9079
:10199000CF90BF90AF909F908F907F906F905F900F
:1019A0004F9008954F925F926F927F928F929F9285
:1019B000AF92BF92CF92DF92EF92FF920F931F935D
:1019C0000E94E316882339F083E090E09093EC03C3
:1019D0008093EB036CC00E9401187B018C01609125
:1019E000E4037091E5038091E6039091E70320E022
:1019F00030E040E450E40E940A359B01AC01C8018C
:101A0000B7010E94EC3718160CF051C00E94011863
:101A10007B018C014090E4035090E5036090E60365
:101A20007090E703C301B20120E030E040E450E4ED
:101A30000E940B359B01AC01C801B7010E94D13552
:101A40008823ACF581EF93E040E050E060EE7FE367
:101A50000DEC1CEC2CEC3EE30F2EF0E0CF2EF0E072
:101A6000DF2EF0E0EF2EF0E0FF2EF02DAA24BB24B5
:101A7000882499240E94FF0F40920104509202048E
:101A800060920304709204041092EC031092EB0332
:101A90008091E8039091E9038330910521F49093BC
:101AA000EC038093EB0384EF91E00E94C2141F913A
:101AB0000F91FF90EF90DF90CF90BF90AF909F90ED
:101AC0008F907F906F905F904F900895AF92BF92EC
:101AD000CF92DF92EF92FF920F931F9300D08CE092
:101AE00092E0EDB7FEB7928381830E94D9210F90D7
:101AF0000F90CAC00E9401185B016C01E090E403E2
:101B0000F090E5030091E6031091E703C801B701E7
:101B1000A60195010E94EC3718160CF04DC0C801C3
:101B2000B701A60195010E940A3520E030E040E0AF
:101B30005EE30E94F73720E030E044E352E40E9485
:101B40000B3520E030E044E253EC0F2EF0E0EF2EB6
:101B5000F0E0FF2EF4E20F2FF3E41F2FF02D0E9490
:101B6000F8110E9477369B01AC0180E0B9010E9418
:101B7000ED15C601B5012091E4033091E5034091D4
:101B8000E6035091E7030E940A3520E030E040E090
:101B90005EE30E94F73720E030E044E352E40E9425
:101BA0000A3520E030E040EA50E40E940A3520E0A7
:101BB00030E049E253EC56C0C801B701A6019501D7
:101BC0000E940A3520E030E040E05EE30E94F737F3
:101BD00020E030E044E352E40E940A3520E030E0A7
:101BE00044E253EC0F2EF0E0EF2EF0E0FF2EF4E293
:101BF0000F2FF3E41F2FF02D0E94F8110E9477366B
:101C00009B01AC0180E0B9010E94ED15C601B50150
:101C10002091E4033091E5034091E6035091E703FE
:101C20000E940A3520E030E040E05EE30E94F73792
:101C300020E030E044E352E40E940B3520E030E045
:101C400040EA50E40E940B3520E030E044E253ECDF
:101C50000F2EF0E0EF2EF0E0FF2EF9E20F2FF3E46D
:101C60001F2FF02D0E94F8110E9477369B01AC01C6
:101C700081E0B9010E94ED1562E370E080E090E040
:101C80000E94C6200E94D20C8091EB039091EC033D
:101C9000029709F42FCF1F910F91FF90EF90DF90E3
:101CA000CF90BF90AF90089522E030E03093EC03E6
:101CB0002093EB0323E030E03093E9032093E80323
:101CC0006093E4037093E5038093E6039093E70346
:101CD00005C082309105E9F70E94660D8091EB0303
:101CE0009091EC0383309105A1F780E090E0089596
:101CF0002F923F924F925F926F927F928F929F921C
:101D0000AF92BF92CF92DF92EF92FF920F931F9309
:101D1000DF93CF93CDB7DEB761970FB6F894DEBFF0
:101D20000FBECDBF9E878D87798B688B4F8792C002
:101D300000D0EBE1F2E0ADB7BEB71296FC93EE93A4
:101D400011970E94D9210F900F9068EE73E080E008
:101D500090E00E94C6200E94011869837A838B83D9
:101D60009C83AD85BE858D919D910D90BC91A02DDC
:101D700089879A87AB87BC87A889B9898D919D91FE
:101D80000D90BC91A02D8D839E83AF83B88769850C
:101D90007A858B859C852D813E814F8158850E9457
:101DA0000A359B01AC010E94F7377B018C01ED8560
:101DB000FE852480358046805780A889B98914968D
:101DC000AD90BD90CD90DC901797C201B101A601F6
:101DD00095010E940A359B01AC010E94F7379B01D7
:101DE000AC01C801B7010E940B350E945E383B016F
:101DF0004C016D817E818F81988529853A854B853F
:101E00005C850E940A357B018C01C601B501A201E7
:101E100091010E940A359B01AC01C801B7010E94E3
:101E20007E357B018C016092ED037092EE0380920F
:101E3000EF039092F003E889F989A084B184C28409
:101E4000D38469817A818B819C81A40193018F84E1
:101E50000E9431078091EB039091EC03892B09F4E8
:101E600067CF61960FB6F894DEBF0FBECDBFCF919E
:101E7000DF911F910F91FF90EF90DF90CF90BF9077
:101E8000AF909F908F907F906F905F904F903F901A
:101E90002F900895AF92BF92CF92DF92EF92FF9270
:101EA0000F931F93DF93CF93CDB7DEB7A4970FB6F1
:101EB000F894DEBF0FBECDBFFC0122813381448187
:101EC0005581E680F78000851185A284B384C4849F
:101ED000D58462898091AE039091AF03A091B00345
:101EE000B091B10389839A83AB83BC838091B203A1
:101EF0009091B303A091B403B091B5038D839E83F9
:101F0000AF83B8878091B6039091B703A091B803CF
:101F1000B091B90389879A87AB87BC872D873E87A5
:101F20004F87588BE98AFA8A0B8B1C8BAD8ABE8A45
:101F3000CF8AD88E162F611111E01092EC03109207
:101F4000EB031092E9031092E8030DE0C02ED12CB0
:101F5000CC0EDD1E7E010894E11CF11C15C0813001
:101F6000910569F08130910520F082309105B9F733
:101F700009C0C701B601412F0E94780E05C00E941A
:101F80007F0A02C00E94660D8091EB039091EC03E2
:101F90008330910521F7DE015996FE013D968CE0D4
:101FA00001900D928150E1F72D8D3E8D4F8D58A1FE
:101FB000898D9A8DAB8DBC8D8093AE039093AF03CA
:101FC000A093B003B093B1032093B2033093B30353
:101FD0004093B4035093B50380E090E0A4960FB60D
:101FE000F894DEBF0FBECDBFCF91DF911F910F914F
:101FF000FF90EF90DF90CF90BF90AF9008952F9219
:102000003F924F925F926F927F928F929F92AF9288
:10201000BF92CF92DF92EF92FF920F931F93DF93C5
:10202000CF9300D000D0CDB7DEB73C011A012B0111
:1020300009831A832B833C83009721F482E891E083
:102040000E94AF1CD3012D923D924D925C9213974A
:1020500089819A81AB81BC81F30184839583A683B6
:10206000B783D3011896CD92DD92ED92FC921B9727
:102070001D96BC92AE921C971F969C928E921E97B4
:1020800080E090E0A0E0B0E0848B958BA68BB78BCE
:10209000108E11A20F900F900F900F90CF91DF91A3
:1020A0001F910F91FF90EF90DF90CF90BF90AF9076
:1020B0009F908F907F906F905F904F903F902F9068
:1020C00008952F923F924F925F926F927F928F92DC
:1020D0009F92AF92BF92CF92DF92EF92FF920F93B7
:1020E0001F93CF93DF93EC011A012B0100D000D096
:1020F00000D08DE691E0EDB7FEB7928381834383F4
:102100005483658376830E948C23688979898A89C0
:102110009B89A20191010E940A355B016C0180E656
:1021200091E0EDB7FEB792838183A382B482C5822A
:10213000D6820E948C23C601B501288139814A814B
:102140005B810E94F7377B018C018DB79EB70696A5
:102150000FB6F8949EBF0FBE8DBF888D882359F4AB
:102160000F2EF0E0AF2EF0E0BF2EF0E0CF2EF0E02B
:10217000DF2EF02D52C00E94111D2D8D3E8D4F8DF2
:1021800058A1621B730B840B950B0E94AC362FE693
:1021900032E143E85AE30E94F7373B014C01A601C4
:1021A00095010E94F7372C893D894E895F890E94ED
:1021B0000B355B016C012C813D814E815F810E945A
:1021C000F7379B01AC01C801B7010E940B357B01B9
:1021D0008C01C401B30120E030E040E050E00E94F7
:1021E000D1358823D1F0C201B101298D3A8D4B8DB3
:1021F0005C8D0E940A35288539854A855B850E9459
:10220000F737A40193010E94D5359B01AC01C801A9
:10221000B7010E940B357B018C0181E0888FAC8A6D
:10222000BD8ACE8ADF8A298E3A8E4B8E5C8E0E94C2
:10223000111D6D8F7E8F8F8F98A3EE85FF85309750
:1022400019F0C801B7010995B701C801DF91CF9115
:102250001F910F91FF90EF90DF90CF90BF90AF90C4
:102260009F908F907F906F905F904F903F902F90B6
:102270000895CF93DF93EC0189A1882321F487E4AB
:1022800091E00E94AF1C8C859D85892B21F482E30F
:1022900091E00E94AF1CEC85FD850995AB01BC0166
:1022A000CE010E946110DF91CF910895CF93DF930B
:1022B000EC01CE010E943911FCCFCF93DF93EC01EA
:1022C000FB016231710568F4EA5BFF4FEE0FFF1FFF
:1022D0000590F491E02D099420E030E04CE952E4BF
:1022E00052C020E030E040E050E0DA01C9016CC0AB
:1022F00020E030E04CE952E463C020E030E040E709
:1023000052E413C020E030E040E752E433C020E064
:1023100030E048E552E417C020E030E048E552E400
:102320001BC020E030E040E452E480E090E0A0E90F
:10233000B1E44AC020E030E040E452E41BC020E0B9
:1023400030E048E252E480E090E0A0ECB0E43CC031
:1023500020E030E048E252E480E090E0A4E8B2E41B
:1023600033C020E030E040E152E4DFCF20E030E055
:1023700040E152E480E090E0A8E5B2E425C020E02E
:1023800030E040E951E480E090E0A0ECB1E41CC012
:1023900020E030E040E951E413C020E030E040E7C5
:1023A00052E4F1CF20E030E040E752E409C020E001
:1023B00030E040E152E4E7CF20E030E040E152E499
:1023C00080E090E0A0E4B2E42C833D834E835F8301
:1023D00088839983AA83BB8380E090E0A0E0B0E08B
:1023E00088879987AA87BB87CE01DF91CF9108950F
:1023F0006F927F928F929F92AF92BF92CF92DF9215
:10240000EF92FF920F931F93962E872E782E692EB0
:1024100059016A010E94D13587FD11C0692D782DBF
:10242000872D962D9701A8010E94EC3718162CF0E5
:10243000A92CB82CC72CD62C02C057016801B501B5
:10244000C6011F910F91FF90EF90DF90CF90BF904A
:10245000AF909F908F907F906F900895AA2797FDDF
:10246000A095BA2FBC01CD010E94AE3620E030E02D
:1024700040E853E40E94F73720E030E044EB52E4B8
:102480000E94D53520E030E04FE753E40E940B3541
:102490000E947736DC01CB0160E072E00E94F538E3
:1024A0009C0197FF02C020503E4FC90108952F9212
:1024B0003F924F925F926F927F928F929F92AF92D4
:1024C000BF92CF92DF92EF92FF920F931F93DF9311
:1024D000CF93CDB7DEB7A0970FB6F894DEBF0FBE8F
:1024E000CDBF20E030E00BC01192119201968730F1
:1024F0009105D1F72F5F3F4F2330310581F0C9019E
:10250000880F991FFC0143E0EE0FFF1F4A95E1F78A
:10251000E81BF90BE654FC4F80E090E0E5CF00D0DB
:102520008BE292E0ADB7BEB712969C938E93119753
:102530000E94D9210F900F900E94431700E010E0F5
:1025400080E090E0A0E0B0E08D8F9E8FAF8FB8A3C9
:10255000898F9A8FAB8FBC8F8D8B9E8BAF8BB88FF3
:10256000C5C084E10E9426167C0185E10E942616E2
:102570003C0186E10E94261698878F83D801119628
:10258000BC83AB83B80180E090E00E94AC361B01B5
:102590002C016D8D7E8D8F8D98A1A20191010E94DD
:1025A000F7375B016C0100E010E0C801B7010E9441
:1025B000AC369B01AC01C601B5010E940B357B0115
:1025C0008C01EB81FC81BF0180E090E00E94AC3681
:1025D0005B016C01C801B701A60195010E94D535C8
:1025E0006D8F7E8F8F8F98A3698D7A8D8B8D9C8D4B
:1025F000A20191010E94F7377B018C018824992464
:10260000C401B3010E94AC369B01AC01C801B70103
:102610000E940B35A60195010E94D535698F7A8FEE
:102620008B8F9C8F6D897E898F89988DA2019101F6
:102630000E94F7377B018C012F813885B90180E03A
:1026400090E00E94AC369B01AC01C801B7010E942A
:102650000B35A60195010E94D5356D8B7E8B8F8B36
:10266000988F8DB79EB708970FB6F8949EBF0FBE90
:102670008DBF0DB71EB70F5F1F4FE7E5F2E0ADB797
:10268000BEB71296FC93EE9311976D8D7E8D8F8D54
:1026900098A10E947736D80113967C936E93129777
:1026A000698D7A8D8B8D9C8D0E947736F8017583AC
:1026B00064836D897E898F89988D0E947736D801D1
:1026C00017967C936E9316970E94D921EDB7FEB7AB
:1026D00038960FB6F894FEBF0FBEEDBF62E370E010
:1026E00080E090E00E94C6200B811C810E94E316CE
:1026F000882309F436CF00D089E692E0ADB7BEB7A3
:1027000012969C938E9311970E94D9210F900F904F
:102710000E94431700E010E080E090E0A0E0B0E00D
:10272000898B9A8BAB8BBC8B8D879E87AF87B88B41
:1027300089879A87AB87BC87C5C084E10E9426162B
:102740007C0185E10E9426163C0186E10E94261646
:102750009E838D83D8011196BA83A983B80180E046
:1027600090E00E94AC361B012C0169897A898B8923
:102770009C89A20191010E94F7375B016C0100E086
:1027800010E0C801B7010E94AC369B01AC01C60144
:10279000B5010E940B357B018C01E981FA81BF01F3
:1027A00080E090E00E94AC365B016C01C801B7018B
:1027B000A60195010E94D535698B7A8B8B8B9C8BFA
:1027C0006D857E858F859889A20191010E94F737DA
:1027D0007B018C0188249924C401B3010E94AC368A
:1027E0009B01AC01C801B7010E940B35A601950100
:1027F0000E94D5356D877E878F87988B69857A850E
:102800008B859C85A20191010E94F7377B018C0189
:102810002D813E81B90180E090E00E94AC369B01A1
:10282000AC01C801B7010E940B35A60195010E94B9
:10283000D53569877A878B879C878DB79EB7089730
:102840000FB6F8949EBF0FBE8DBF0DB71EB70F5FBA
:102850001F4FE7E5F2E0ADB7BEB71296FC93EE93DB
:10286000119769897A898B899C890E947736D8016A
:1028700013967C936E9312976D857E858F859889CC
:102880000E947736F8017583648369857A858B8524
:102890009C850E947736D80117967C936E93169785
:1028A0000E94D921EDB7FEB738960FB6F894FEBF57
:1028B0000FBEEDBF62E370E080E090E00E94C620B2
:1028C00009811A810E94E316882309F436CF6989A9
:1028D0007A898B899C892D8D3E8D4F8D58A10E94C0
:1028E0000B3520E030E040E05FE30E94F7370E94C4
:1028F0007C367093D9036093D8036D857E858F8570
:102900009889298D3A8D4B8D5C8D0E940B3520E086
:1029100030E040E05FE30E94F7370E947C3670931E
:10292000CB036093CA0369857A858B859C852D8945
:102930003E894F89588D0E940B3520E030E040E001
:102940005FE30E94F7370E947C367093BD0360936B
:10295000BC03A0960FB6F894DEBF0FBECDBFCF91DB
:10296000DF911F910F91FF90EF90DF90CF90BF907C
:10297000AF909F908F907F906F905F904F903F901F
:102980002F900895EF92FF920F931F937C0180E0A8
:1029900060E070E00E94ED1581E060E070E00E9470
:1029A000ED150027F7FC0095102FC801B7010E9414
:1029B000C6201F910F91FF90EF90089580E06FEF78
:1029C00070E00E94ED1581E06FEF70E00E94ED1560
:1029D00082E06FEF70E00E94ED1564EF71E080E03F
:1029E00090E00E94C62080E061E07FEF0E94ED153C
:1029F00081E06FEF70E00E94ED1564EF71E080E020
:102A000090E00E94C62082E061E07FEF0E94ED1519
:102A100080E06FEF70E00E94ED1581E061E07FEFF4
:102A20000E94ED1564EF71E080E090E00E94C62006
:102A300080E061E07FEF0E94ED1581E061E07FEFD3
:102A40000E94ED1564EF71E080E090E00E94C620E6
:102A500082E060E070E00E94ED1581E090E00E946D
:102A6000C2140895909318048093170470931A0465
:102A70006093190408950E942616BC0180911704E2
:102A8000909118040E94E1388091190490911A04E1
:102A9000681B790BCB0108950895CF92DF92EF92D6
:102AA000FF920F931F93082F7B019BE1C92E94E0A7
:102AB000D92EC6010E94341B000F005E1127005062
:102AC0001F4EF801E192EF2CFF24E082C6010E9424
:102AD000CE1A1F910F91FF90EF90DF90CF90089545
:102AE0001F93182F882799270E94AC3621E632ECD5
:102AF00044E85FE30E94F7370E947C366F5B7F4FAC
:102B0000812F0E944D151F91089564E972E08BE1B9
:102B100094E00E941E1B08951F93CF93DF93CDB7BF
:102B2000DEB728970FB6F894DEBF0FBECDBF182FC3
:102B300080E294E00E94341BDE011396EAEAF2E0A0
:102B400086E001900D928150E1F7FE01E10FF11D49
:102B500063817727685F7F4FAE014F5F5F4F80E0F3
:102B600090E00E94B82480E294E00E94CE1A89810D
:102B70009A8128960FB6F894DEBF0FBECDBFDF91C5
:102B8000CF911F9108950E948C15AA27BB27BC01E5
:102B9000CD010E94AC3628E431EE40E851E40E94B9
:102BA000F7370E947C36DC01CB010895FF920F932A
:102BB0001F93F82E00E214E0C8010E94341BFF0CA2
:102BC000EF2DFF27E050FF4E83E08083C8010E9475
:102BD000CE1A1F910F91FF9008951F93CF93DF930B
:102BE000182FEB0180E294E00E94341B110F1C1699
:102BF0001D0634F4E12FFF27E050FF4E81E007C0AF
:102C0000E12FFF27209729F0E050FF4E82E08083DC
:102C100003C0E050FF4E1082E12FFF27EF5FFE4E12
:102C2000BE01D7FF03C0709561957F4F608380E23E
:102C300094E00E94CE1ADF91CF911F9108956FE921
:102C400072E080E294E00E941E1B0895CF92DF9212
:102C5000EF92FF920F931F93CF93DF93CDB7DEB721
:102C600022970FB6F894DEBF0FBECDBF982F8850C5
:102C70008830E0F406C0C7010E94AF1C0E947D208E
:102C80000CC007E110E0091B11096E010894C11C7A
:102C9000D11C9EEAE92E91E0F92EA601B80181E04F
:102CA00090E00E94B824882331F724C0892F8051F6
:102CB000883038F01BC0C7010E94AF1C0E947D20E5
:102CC0000CC00FE110E0091B11096E010894C11C32
:102CD000D11C81EAE82E81E0F82EA601B80182E03D
:102CE00090E00E94B824882331F704C085E991E080
:102CF0000E94AF1C89819A8122960FB6F894DEBF9C
:102D00000FBECDBFDF91CF911F910F91FF90EF903C
:102D1000DF90CF900895CF92DF92EF92FF920F93C2
:102D20001F93082F95E2C92E94E0D92EC6010E9468
:102D3000341B000F0452112700501F4EF801E19080
:102D40000081C6010E94CE1A1127102F0027FF24F0
:102D5000C8018E299F291F910F91FF90EF90DF905E
:102D6000CF9008951F93182F0E948B16E12FFF27F5
:102D7000EE0FFF1FE25BFC4F20813181821B930B22
:102D80001F9108951F93182F0E948B16E12FFF2784
:102D9000EE0FFF1FE25BFC4F918380831F9108952C
:102DA00060EB72E085E294E00E941E1B089581B101
:102DB000992725E0969587952A95E1F78095909536
:102DC00081709070089581B1992734E09695879528
:102DD0003A95E1F780959095817090700895AF9243
:102DE000BF92CF92DF92EF92FF920F931F939B01BE
:102DF0007C010027112744275527CA01B901A801E2
:102E000097010E94C23828EE33E040E050E00E9473
:102E1000083959016A0160E271EA87E090E0A8018F
:102E200097010E9408397901002711270AC0C49A26
:102E3000C801B7010E94E523C498C801B7010E94E8
:102E4000E5230894A108B108C108D1088FEFA8169E
:102E50008FEFB8068FEFC8068FEFD80641F71F91A6
:102E60000F91FF90EF90DF90CF90BF90AF900895BB
:102E70000C99FECF64E670E080E090E00E94E523CC
:102E80000C9BFECF08950D99FECF64E670E080E0C4
:102E900090E00E94E5230D9BFECF0895CF93DF9332
:102EA000CDB7DEB722970FB6F894DEBF0FBECDBF09
:102EB000AE014F5F5F4F6FE070E080E090E00E94F6
:102EC000B82469817A81882799270E94AC362CE141
:102ED00035E441E251E40E94F7370E947C36DC0180
:102EE000CB0122960FB6F894DEBF0FBECDBFDF91A7
:102EF000CF910895CF93DF93CDB7DEB722970FB66A
:102F0000F894DEBF0FBECDBFAE014F5F5F4F61E0F3
:102F100070E080E090E00E94A92289819A81229647
:102F20000FB6F894DEBF0FBECDBFDF91CF910895ED
:102F3000CF92DF92EF92FF920F931F936C017B0170
:102F40000E947A17AA27BB27EC18FD080894E11CF9
:102F5000F11C00271127BC01CD01A80197010E9497
:102F6000C2384AE096958795779567954A95D1F747
:102F7000C60ED71EC6011F910F91FF90EF90DF90F4
:102F8000CF9008958F929F92AF92BF92CF92DF928F
:102F9000EF92FF920F931F937B018C018AE2882EA0
:102FA00084E0982EC4010E94341B20918603309146
:102FB00087034091880350918903C801B7010E949B
:102FC000F7370E943D3620938A0330938B0340935A
:102FD0008C0350938D0360938E0370938F038093C3
:102FE000900390939103C4010E94CE1A1F910F91F8
:102FF000FF90EF90DF90CF90BF90AF909F908F9019
:1030000008958F929F92AF92BF92CF92DF92EF92EC
:10301000FF920F931F939AE2892E94E0992EC40198
:103020000E94341BA0908A03B0908B03C0908C0345
:10303000D0908D03E0908E03F0908F030091900369
:10304000109191032A2D3B2D4C2D5D2D6E2D7F2D42
:10305000802F912F0E94A8362091860330918703FC
:1030600040918803509189030E94D5357B018C01E2
:10307000C4010E94CE1AC801B7011F910F91FF90A1
:10308000EF90DF90CF90BF90AF909F908F9008957A
:103090002F923F924F925F926F927F928F929F9268
:1030A000AF92BF92CF92DF92EF92FF920F931F9356
:1030B000CF93DF93CDB7DEB760970FB6F894DEBF3E
:1030C0000FBECDBF0E94201D5B016C018091CC0220
:1030D0000E9426167C01002711278091970390916A
:1030E0009803AA27BB27E81AF90A0A0B1B0B0E94B0
:1030F000201D1B012C01DC01CB018A199B09AC09A5
:10310000BD095C016D01C801B701A60195010E94CE
:10311000C2383B014C012091990330919A03442716
:103120005527C601B5010E94C2387B018C018AE295
:1031300094E00E94341B8091920390919303A0919C
:103140009403B09195038E0D9F1DA01FB11F809316
:10315000920390939303A0939403B0939503A0904C
:103160009203B0909303C0909403D0909503E090A5
:103170002F04F09030040027112760919203709182
:1031800093038091940390919503A80197010E9465
:103190002A396093920370939303809394039093DE
:1031A000950390918A039983A0918B03AA83B09190
:1031B0008C03BB83E0918D03EC83F0918E03FD8340
:1031C00080918F038E83909190039F83A0919103B0
:1031D000A887C601B501A80197010E942A39621A81
:1031E000730A840A950AD401C301BB0F880B982F78
:1031F000DC0169867A868B869C868D878E878F8791
:10320000888BA980B985AB1A81E0E981EA1508F0BD
:1032100080E0BA80FA85BF1A21E09A819B1508F0F8
:1032200020E0AB2DA81B8A2F91E0BA1608F090E0A1
:10323000292BB82ECB80BB85CB1A31E0EB81EC1566
:1032400008F030E08C2D821B91E0C81608F090E069
:10325000392BC82EDC80FC85DF1A21E08C818D158E
:1032600008F020E08D2D831B91E0D81608F090E047
:10327000292BD82EED809D85E91A31E0AD81AE1560
:1032800008F030E08E2D821B91E0E81608F090E007
:10329000392BE82EFE80BE85FB1A21E0EE81EF156A
:1032A00008F020E08F2D831B91E0F81608F090E0E5
:1032B000292BF82E0F81FF850F1B91E08F8180173E
:1032C00008F090E0802F821B21E0081708F020E032
:1032D000922B1885A8891A1BE12FE91BA0928A035B
:1032E000B0928B03C0928C03D0928D03E0928E0338
:1032F000F0928F0380939003E09391038AE294E02D
:103300000E94CE1A0E947D2062015101DFCE2F92D1
:103310003F924F925F926F927F928F929F92AF9265
:10332000BF92CF92DF92EF92FF920F931F931801FB
:1033300029018093CC0240938603509387036093C6
:103340008803709389030E94111D3B014C01AA243C
:10335000BB246501EE24FF2487010FC08091CC02BD
:103360000E942616AA27BB27E80EF91E0A1F1B1F5C
:103370000894A11CB11CC11CD11C0E94111D66190E
:10338000770988099909621573058405950530F355
:10339000C801B701A60195010E940839309398032E
:1033A00020939703C801B701A60195010E9408392F
:1033B00070939A0360939903B0923004A0922F0403
:1033C00010928A0310928B0310928C0310928D033B
:1033D00010928E0310928F0310929003109291031B
:1033E0006DEB72E08AE294E00E941E1B27EC32E053
:1033F00040E060E071E088E498E10E94421E1F9185
:103400000F91FF90EF90DF90CF90BF90AF909F9083
:103410008F907F906F905F904F903F902F90089586
:103420008093E5020895CFEFD0E1DEBFCDBF80915C
:103430009B0390919C03892B21F08BE392E00E94E7
:10344000AF1C83E897E090937C0380937B030E94FA
:10345000DD1B8091790390917A039F938F9381E292
:1034600092E09F938F930E948C2380917B03909195
:103470007C039F938F9389E092E09F938F930E94A8
:103480008C2380917B0390917C0320917903309170
:103490007A03821B930B880F991F9F938F9384EF5E
:1034A00091E09F938F930E948C238DB79EB70C96CB
:1034B0000FB6F8949EBF0FBE8DBF20917903309157
:1034C0007A0380917B0390917C032817390720F0C1
:1034D0008FED91E00E94AF1C0E94092902EC11E0DF
:1034E0001F930F930E94A2271F930F930E948C2378
:1034F00080EC91E09F938F930E948C230E9443174E
:103500000E94F8202DEC32E040E060E071E08DE9AF
:103510009AE10E94421E0E94871F8BEB91E00E945D
:10352000AF1C8DB79EB706960FB6F8949EBF0FBE20
:103530008DBF80E090E00C94A8200E945D0483E59C
:1035400092E09F938F930E94A2270E9443170E94AC
:1035500009292BED32E040E060E071E08DE394E07A
:103560000E94421E0F900F908091E502882319F46B
:103570000E947D20FDCF60E97FE581E090E00E9420
:10358000C62088E492E09F938F930E94A2270E9416
:103590002F1E0F900F9080E090E008951F93CF931F
:1035A000DF93EC01892B21F488E992E00E94AF1CA3
:1035B0001FB7F8948881882321F484E892E00E9460
:1035C000AF1C2B813C8180919B0390919C03281719
:1035D000390721F08FE692E00E94AF1C888181506C
:1035E0008883882311F41C821B828FB71078182BD4
:1035F0001FBFDF91CF911F910895CF93DF93EC010F
:10360000892B21F48AEA92E00E94AF1C20919B034F
:1036100030919C038B819C812817390719F080E039
:1036200090E009C090E08881882309F491E081E06E
:103630009827892F9927DF91CF9108950F931F9392
:10364000CF93DF93EC018B01892B21F486EE92E07E
:103650000E94AF1C18821A8309831C821B82DF918F
:10366000CF911F910F910895CF93DF93EC01892B98
:1036700021F484ED92E00E94AF1C88818F3F21F4F9
:103680008CEB92E00E94AF1C5FB75078F8942B81CE
:103690003C8180919B0390919C03488128173907B6
:1036A00019F44F5F48830AC0442361F481E08883A2
:1036B00080919B0390919C039C838B838FB7582BA5
:1036C0005FBF06C08FB7582B5FBF0E947D20DCCF45
:1036D000DF91CF9108950F931F93CF93DF93CDB7D1
:1036E000DEB761970FB6F894DEBF0FBECDBF8C0179
:1036F00041E150E0BC01CE0101960E941634198AC6
:103700001F930F9385EF92E09F938F930E948C23DA
:1037100080E10E9426291F930F930E94DF278FE1EB
:103720000E94262960E070E083E00E9442298DB764
:103730009EB706960FB6F8949EBF0FBE8DBFFFCF03
:1037400060E070E080E090E00E94B52564EA73E0FC
:103750008AE090E00E9460250E941827E4EAF3E0E6
:1037600020E030E081913827032E0294902D9F7045
:103770009327832F8025880F807E9827802D83278D
:10378000807F8695032E000C881F369536953695DA
:103790003F7138273227292F83E0EC3AF80711F7D9
:1037A00040E050E08091AC039091AD0328173907B9
:1037B00011F441E050E0CA0108950E947E221F9A50
:1037C00080E09BE40E94412385E493E09093B80558
:1037D0008093B70580E09BE49F938F9385E093E00F
:1037E0009F938F930E948C238AE193E09F938F9302
:1037F0000E948C230E94712A0E94D0160E940923E5
:103800000E941F160E9485150E94E4298CE593E012
:103810009093B6058093B5050E94D8220E94D22BC2
:103820000E9479210E94A01B2DB73EB72A5F3F4F0F
:103830000FB6F8943EBF0FBE2DBF882321F48BEA4C
:1038400093E00E946B1B8FE593E09F938F930E9400
:103850008C238091A4039091A5039C0130703F9329
:103860002F93892F99279F938F9384E393E09F93BE
:103870008F930E948C238091A6039091A7039F931E
:103880008F938FE493E09F938F930E948C2380917A
:10389000A4039091A5039C0130703F932F93892F2F
:1038A00099279F938F9386EE92E09F938F930E9428
:1038B000DF270E944E172DB73EB72E5E3F4F0FB643
:1038C000F8943EBF0FBE2DBF8C549D4120F48FE96C
:1038D00093E00E946B1B0E944E179F938F9381E78A
:1038E00093E09F938F930E948C236091AA03709121
:1038F000AB0380E091E00E9428240F900F900F907E
:103900000F90882321F482E993E00E946B1B809141
:10391000FF112091FE1199279F938F9333273F9397
:103920002F9384E893E09F938F930E948C238FE1E1
:103930000E94262960E070E081E00E9442291E98E2
:1039400068EE73E080E793E00E94EF168DB79EB7B4
:1039500006960FB6F8949EBF0FBE8DBF0895CF9305
:10396000DF93CDB7DEB76A970FB6F894DEBF0FBE10
:10397000CDBFBC01F894892B41F04AE150E0CE0163
:1039800001960E9416341A8E01C0198210927E058B
:103990001092820510928105CE0101969F938F931C
:1039A00086EB93E09F938F930E94A2270E942F1E85
:1039B0000F900F900F900F906A960FB6F894DEBF9D
:1039C0000FBECDBFDF91CF910895CF93DF93EC0170
:1039D000F89410927E0510928205109281050E9443
:1039E0000929209711F4CAE0D3E0DF93CF9381EC4B
:1039F00093E09F938F930E94A2270E942F1E0F9007
:103A00000F900F900F90DF91CF91089583E085BDC7
:103A100083E884BD86B7806486BF87B7806487BF2C
:103A200008952FB7F89460919D0370919E03809143
:103A30009F039091A0033FB72078232B2FBF0895B9
:103A4000EF92FF920F931F932FB7F89460919D030D
:103A500070919E0380919F039091A00344B53FB75E
:103A60002078232B2FBF242F332723583040790170
:103A70000027F7FC0095102F2DE730E040E050E0E4
:103A80000E94C238E60EF71E081F191F83E0EE0CD5
:103A9000FF1C001F111F8A95D1F7C801B7011F91A4
:103AA0000F91FF90EF9008959C01F894E7E7F4E000
:103AB0008081833039F4828593858217930711F4CE
:103AC00081E08083BA9685E0E337F80789F7789438
:103AD000089577278CE291E0689F9001699F300DEF
:103AE000789F300D112487EB9FE0821B930B089584
:103AF000AF92BF92CF92DF92FF920F931F93CF931B
:103B0000DF93FFB6F89483E194E09F938F930E9434
:103B10008C230DE414E0C0E0D0E00F900F902CEC6B
:103B2000A22E23E0B22E95EFC92E93E0D92EF801F4
:103B30002081222359F4DF93CF93DF92CF920E940A
:103B40008C230F900F900F900F901EC0F801828170
:103B50009381A481B581332744855585BF93AF9365
:103B60009F938F933F932F935F934F93DF93CF93C5
:103B7000BF92AF920E948C238DB79EB70C960FB662
:103B8000F8949EBF0FBE8DBF2196065D1F4FC730B4
:103B9000D10569F68FB790E8F922F82AFFBEDF91C8
:103BA000CF911F910F91FF90DF90CF90BF90AF907A
:103BB00008950F931F938C0187E794E09F938F9351
:103BC0000E948C2383E694E09F938F930E948C2322
:103BD000F80180899189AA27BB27BF93AF939F9350
:103BE0008F9385E594E09F938F930E948C23F80137
:103BF00082899389AA27BB27BF93AF939F938F9303
:103C000087E494E09F938F930E948C23F80184892A
:103C10009927AA27BB27BF93AF939F938F9389E3DD
:103C200094E09F938F930E948C23F8018589968955
:103C3000AA27BB27BF93AF939F938F938BE294E008
:103C40009F938F930E948C238DB79EB74C960FB68F
:103C5000F8949EBF0FBE8DBF1F910F910895CF9313
:103C6000DF93F894109220041092240410922304FD
:103C7000C0E0D0E08C2F0E94D6152196C630D10529
:103C8000C9F7FFCF0F931F93CF93DF938C016FB7CB
:103C9000F894EDE4F4E040E050E08081882359F0AE
:103CA0004F5F5F4FBA9647305105B9F789E894E006
:103CB0000E94AF1CFFCF8AE290E0489FD001499F4D
:103CC000B00D589FB00D1124AF5CBB4F81E0ED01EA
:103CD0008C8F39A728A7FD01168E178E10A211A26E
:103CE0002CE231E0328F218F87E119928A95E9F732
:103CF000842F9927F9018E9F90018F9F300D9E9FF1
:103D0000300D1124E7EBFFE0E21BF30B28EA30E271
:103D100020833197232F332720833197ED01FB8BAD
:103D2000EA8B1E8B0D8B2C8920682C8B2FB760782B
:103D3000622B6FBFDF91CF911F910F9108950F9369
:103D40001F93CF93DF93EC010DE414E080914D04B9
:103D5000813009F44BC08FE795E09F938F930E94C9
:103D60008C2380919D0390919E03A0919F03B0911D
:103D7000A003BF93AF939F938F9387E795E09F93A3
:103D80008F930E948C230C5110401F930F93045E5D
:103D90001F4F85E695E09F938F930E948C231F937E
:103DA0000F9389E495E09F938F930E948C238091D9
:103DB0007B0390917C032091790330917A039F9348
:103DC0008F933F932F9383E395E09F938F930E946C
:103DD0008C238BE295E00E94AF1C4DB75EB74A5E24
:103DE0005F4F0FB6F8945EBF0FBE4DBF8B8D992706
:103DF0002CE231E0A901849F9001859F300D949FB2
:103E0000300D112487EB9FE0821B930B2A893B899D
:103E10008217930720F482E295E00E94AF1C8F89FD
:103E2000988D2A893B89821B930B298D3A8D2817FF
:103E3000390708F04DC081E195E09F938F930E9470
:103E40008C234A895B898B8D992728A539A55F9397
:103E50004F939F938F933F932F9387EF94E09F937C
:103E60008F930E948C23CE010E94D91D8D899E893B
:103E70009F938F938DEE94E09F938F930E948C235A
:103E80008F89988D9F938F938FED94E09F938F935D
:103E90000E948C234F89588DCA010196298D3A8D35
:103EA000821B930B5F934F939F938F9385EC94E0CA
:103EB0009F938F930E948C2386EB94E00E94AF1C0B
:103EC0008DB79EB748960FB6F8949EBF0FBE8DBFB4
:103ED000DF91CF911F910F91089590939C03809350
:103EE0009B030E949F1EE0919B03F0919C03868D93
:103EF000978DA0A1B1A10196A11DB11D868F978FAD
:103F0000A0A3B1A361E070E0CF010E94F533AF92AE
:103F1000BF92CF92DF92EF92FF920F931F93CF93B6
:103F2000DF93E0919B03F0919C03309719F4AA244E
:103F3000BB2403C0838DA82EBB24F1E0EF2EF12C0F
:103F4000EAE2CE2ED12CAC9C8001AD9C100DBC9C25
:103F5000100D11240F5C1B4FC7018A0D9B1D67E0DC
:103F600070E00E94F538EC01009709F448C08C9D80
:103F7000F0018D9DF00D9C9DF00D1124EF5CFB4F29
:103F8000848D8430B1F420919D0330919E03409143
:103F90009F035091A00382A193A1A4A1B5A12817CA
:103FA00039074A075B0728F081E0848FCF010E9420
:103FB0006D1FCC9DF001CD9DF00DDC9DF00D112409
:103FC000EF5CFB4F848D8130B9F0E8018C8D84303B
:103FD000B1F420919D0330919E0340919F03509135
:103FE000A0038AA19BA1ACA1BDA1281739074A074C
:103FF0005B0728F081E08C8FCF010E946D1F089431
:10400000E11CF11CE8E0EE16F10409F0A5CF809167
:104010004D04813021F481E394E00E946D1FF894F7
:104020000DE414E0C0E0D0E070EDA72E75E0B72EEF
:104030006EE9C62E65E0D62E51EFE52E55E0F52E41
:10404000F8018081882359F4DF93CF93FF92EF9298
:104050000E948C230F900F900F900F9020C09927F3
:10406000F801248535859F938F933F932F93DF939A
:10407000CF93BF92AF920E948C238DB79EB70896C4
:104080000FB6F8949EBF0FBE8DBFF80180818130BE
:1040900031F4DF92CF920E948C230F900F902196E3
:1040A000065D1F4FC730D10559F685E995E00E949E
:1040B000AF1CDF91CF911F910F91FF90EF90DF9098
:1040C000CF90BF90AF90089580919B0390919C03F7
:1040D000892B21F484EA94E00E94AF1C80919B0319
:1040E00090919C030E94D533892B31F461E070E0FC
:1040F00087E595E00E94F5330895F8941F920F929A
:104100002F933F934F935F936F937F938F939F93DF
:10411000AF93BF93EF93FF9380919B0390919C0388
:10412000892B21F48EE994E00E94AF1C0E94642048
:10413000FF91EF91BF91AF919F918F917F916F917F
:104140005F914F913F912F910F901F907894089518
:104150000E947D20FDCFCF93DF93EC01F8948091F6
:104160009B0390919C03892B21F488E994E00E94A1
:10417000AF1CE0919B03F0919C03D7A3C6A383E0FF
:10418000848F0E947D20DF91CF9108959B01AC0127
:104190000FB607FC03C00E9405240895F894E0912F
:1041A0009B03F0919C0384E0848F80919D03909108
:1041B0009E03A0919F03B091A003E0919B03F09117
:1041C0009C03820F931FA41FB51F82A393A3A4A3D4
:1041D000B5A30E947D2008950E94781D68EB7BE0C6
:1041E00080E090E00E94C620F7CF0E947D20FDCFA6
:1041F000CF92DF92EF92FF920F931F93CF93DF93B3
:1042000001E314E01F930F9388E496E09F938F934C
:104210000E948C2387E595E09F938F9380E396E03F
:104220009F938F930E948C23E80120E030E007EBFE
:104230001FE08DB79EB708960FB6F8949EBF0FBECD
:104240008DBFA9E1CA2EA6E0DA2E2B8F1C8EC801E5
:10425000188F0F8B1E8E1F8E18A219A27901089439
:10426000E11CF11C0C5211401F930F939F938F93ED
:104270003F932F93DF92CF920E948C23AA968DB703
:104280009EB708960FB6F8949EBF0FBE8DBF97E0FD
:10429000E916F10411F09701D8CF2BE033E040E0AC
:1042A00060E071E085EF90E20E94421E80914D0433
:1042B000882321F48FE096E00E94AF1C87E595E00B
:1042C0000E94D5338FEF90E190936A058093690542
:1042D00087E89FE190936D0580936C050E94061D11
:1042E000DF91CF911F910F91FF90EF90DF90CF90D2
:1042F000089508951F920F920FB60F9211242F93D5
:104300003F934F935F936F937F938F939F93AF935D
:10431000BF93EF93FF9380E193E00E94AF1CFF9166
:10432000EF91BF91AF919F918F917F916F915F912D
:104330004F913F912F910F900FBE0F901F901895A6
:104340001F920F920FB60F9211242F933F934F930A
:104350005F936F937F938F939F93AF93BF93EF93ED
:10436000FF9383E884BD80919D0390919E03A0916B
:104370009F03B091A0030196A11DB11D80939D03E1
:1043800090939E03A0939F03B093A0030E94642088
:10439000FF91EF91BF91AF919F918F917F916F911D
:1043A0005F914F913F912F910F900FBE0F901F90F3
:1043B0001895CF92DF92EF92FF920F931F93CF93B6
:1043C000DF93CDB7DEB722970FB6F894DEBF0FBEEE
:1043D000CDBF8E01035F1F4FF801E190F1908F0177
:1043E0008EE7C82E85E0D82EC6010E94341B1A83A2
:1043F0000983A801B7018CE593E00E94722E8C011D
:10440000C6010E94CE1AC80122960FB6F894DEBFEC
:104410000FBECDBFDF91CF911F910F91FF90EF9015
:10442000DF90CF900895CF92DF92EF92FF920F939B
:104430001F93CF93DF938C01F62E8BE896E09F932A
:104440008F930E948C2385E796E09F938F930E9421
:104450008C23E80100E010E00F900F900F900F9078
:10446000EF2CFF2492E6C92E96E0D92E17C0888142
:1044700099279F938F93DF93CF931F930F93DF928F
:10448000CF920E948C230F5F1F4F21968DB79EB74E
:1044900008960FB6F8949EBF0FBE8DBF0E151F0570
:1044A00031F7DF91CF911F910F91FF90EF90DF9047
:1044B000CF900895CF93DF93EC01892BD1F00E9428
:1044C0000929DF93CF9382E293E09F938F930E9419
:1044D000DF27DF93CF9385E293E09F938F930E9432
:1044E000C9238DB79EB708960FB6F8949EBF0FBE2E
:1044F0008DBF0E944317DF91CF91089585B78068E3
:1045000085BFECE6F0E080818F778083EDE6F0E018
:1045100080818D7F808385B78F7B85BF83EF87BB4D
:10452000C69A8CEF81BB8EEC82B983B1806383B96C
:104530008DE08093610010926400E2E6F0E08081FB
:10454000846080831A9AC09A8081816080831B9ADC
:104550000895EF92FF920F931F93CF93DF938C01F7
:104560007B01EA018EE695E00E94341B0795002747
:1045700007950E29006407B987ED86B9349BFECFF5
:10458000349A24B185B19927982F88273327822B15
:10459000932B998388838EE695E00E94CE1A80E063
:1045A00090E0DF91CF911F910F91FF90EF900895D0
:1045B00069E273E08EE695E00E941E1B0895606537
:1045C0009C0136952795622B6DB980FF02C0709AC9
:1045D00001C0709887B3876087BB0895FC0190E0A5
:1045E00007C080818FB9779BFECF8FB181939F5F8A
:1045F0009617B9F780E090E0089583E795E00E9470
:10460000CE1A089583E795E00E94341B80E090E085
:10461000089562E373E083E795E00E941E1B08950E
:104620001E9A5D9BFECF8CB91E98992787FD9095A9
:1046300008951F93182F8A3019F48DE00E941923D2
:10464000812F0E9410231F910895CF93DF93EC01D7
:1046500003C021960E94102388818823D1F7DF911F
:10466000CF9108951E9A5F9BFECF1E988CB199271B
:1046700087FD909508958BB18078992787FD909557
:1046800008959C014427552794E0220F331F441FAF
:10469000551F9A95D1F760E072E18AE790E00E9499
:1046A0000839822F815089B9215030404040504014
:1046B000232F342F452F5527209390001BB886E0D9
:1046C0008093950088E18AB96BE373E088E795E011
:1046D0000E941E1B0895CF92DF92EF92FF920F93DC
:1046E0001F936C018B0128E7E22E25E0F22EC70113
:1046F0000E94341BA801B60185E493E00E948D342A
:104700008C01C7010E94CE1AC8011F910F91FF9022
:10471000EF90DF90CF900895CF93DF93CDB7DEB7C2
:1047200022970FB6F894DEBF0FBECDBFFE013796BD
:1047300081919191FA83E983BF010E946B232296B4
:104740000FB6F894DEBF0FBECDBFDF91CF910895B5
:10475000CF92DF92EF92FF920F931F936C018B0128
:1047600038E7E32E35E0F32EC7010E94341BA80181
:10477000B60185E493E00E94722E8C01C7010E946D
:10478000CE1AC8011F910F91FF90EF90DF90CF904C
:104790000895CF93DF93CDB7DEB722970FB6F89485
:1047A000DEBF0FBECDBFFE01379681919191FA8396
:1047B000E983BF010E94A82322960FB6F894DEBFBA
:1047C0000FBECDBFDF91CF9108959B01AC0107C013
:1047D00080E08A95F1F72056304040405040213625
:1047E000310541055105A0F7CA01B90120E032E1C8
:1047F0004AE750E00E94C23820EC36EC4DE250E02F
:104800000E9408392A95F1F708959B01AC0108C070
:1048100080E09AEF0197F1F720523040404050403D
:10482000213231054105510598F7CA01B90120E04F
:1048300032E14AE750E00E94C23820EA3FE040E01F
:1048400050E00E940839DA01C9010197F1F7089593
:104850009F92AF92BF92CF92DF92EF92FF920F930F
:104860001F93CF93DF93CDB7DEB728970FB6F89499
:10487000DEBF0FBECDBF6B017C0100271127C80131
:10488000B7010E94B5258F3FD1F3C69864E670E06A
:1048900080E090E00E94E523C69A00E010E07E01EF
:1048A0000894E11CF11C49E0A42EB12CAC0EBD1EF5
:1048B0003DC00E942A25682F0F5F1F4F807C803CDF
:1048C00019F09924939408C03FE3932E96220E94F6
:1048D0002A25682F0F5F1F4F40E050E0F701E40FDB
:1048E000F51F27E030E0241B350B81E090E002C08B
:1048F000880F991F2A95E2F7862380834F5F5F4FC9
:104900004830510559F790E00DC08081882311F09F
:10491000C59A01C0C598C79AC7983196EA15FB0594
:10492000A1F79F5F991511F0F701EFCF0C151D0549
:1049300008F4BFCF0E94182780916300992723E0D5
:10494000969587952A95E1F78170907028960FB615
:10495000F894DEBF0FBECDBFDF91CF911F910F91B5
:10496000FF90EF90DF90CF90BF90AF909F90089511
:10497000CF92DF92EF92FF920F931F93CF93DF932B
:10498000CDB7DEB723970FB6F894DEBF0FBECDBF0D
:104990008C017B016A010E9402238F3F19F48FEF83
:1049A0009FEF49C08E2D880F880F8064898360E057
:1049B00082E090E00E94DF220130110549F00130D1
:1049C000110520F00230110551F404C01A9807C0F7
:1049D000C09805C0809162008E7F8093620063E082
:1049E000CE0101960E94EE220130110549F00130FE
:1049F000110520F00230110551F404C01A9A07C0C5
:104A0000C09A05C0809162008160809362008A81B3
:104A10009927982F88272B813327822B932B26E0E9
:104A2000969587952A95E1F7F601918380830E94F8
:104A3000FD2280E090E023960FB6F894DEBF0FBE13
:104A4000CDBFDF91CF911F910F91FF90EF90DF903D
:104A5000CF900895EF92FF921F93CF93DF93CDB73E
:104A6000DEB722970FB6F894DEBF0FBECDBF61E070
:104A7000CE0101960E94EE2280917D058F3F69F460
:104A800010E082E0E82EF12CEC0EFD1E61E0C70183
:104A90000E94EE221F5F1830C9F780917D058F5F5D
:104AA00080937D058981992722960FB6F894DEBF01
:104AB0000FBECDBFDF91CF911F91FF90EF90089572
:104AC000EF92FF920F931F93CF93DF937C018B01A3
:104AD000C0E0D0E007C00E942A25F801EC0FFD1FBE
:104AE00080832196CE15DF05B1F780E090E0DF915D
:104AF000CF911F910F91FF90EF9008950F931F9307
:104B0000CF93DF93CDB7DEB721970FB6F894DEBF12
:104B10000FBECDBF87ED8983809162008B7F80932C
:104B2000620061E08E010F5F1F4FC8010E94EE22FC
:104B300061E0C8010E94EE22898187FFF9CF809150
:104B4000620084608093620061E070E080E090E049
:104B50000E94E52321960FB6F894DEBF0FBECDBFAD
:104B6000DF91CF911F910F910895EF92FF920F93D4
:104B70001F93CF93DF93CDB7DEB724970FB6F8948A
:104B8000DEBF0FBECDBF7B018C010E9402238F3F91
:104B900019F48FEF9FEF2EC060E081E090E00E945B
:104BA000DF2288EE8983D801C7012FE0B695A7954B
:104BB000979587952A95D1F78A83BB27A12F902FA8
:104BC0008F2D880F8B83E0927D05EC820E947E25DD
:104BD000809162008B7F8093620064E08E010F5FA2
:104BE0001F4FC8010E94EE2264E0C8010E94EE221D
:104BF00080E090E024960FB6F894DEBF0FBECDBFE4
:104C0000DF91CF911F910F91FF90EF9008958F92B8
:104C10009F92AF92BF92CF92DF92EF92FF920F934B
:104C20001F93CF93DF93CDB7DEB724970FB6F894D9
:104C3000DEBF0FBECDBF6B017C014A0159010E944E
:104C400002238F3F19F42FEF3FEF44C060E081E073
:104C500090E00E94DF2284E889831A821B821C2D47
:104C6000CC82809162008B7F8093620064E07E0141
:104C70000894E11CF11CC7010E94EE22212F33276A
:104C8000C501820F931F8150914028F0A12C41E073
:104C9000B42EA21AB30A00E010E00BC0F401E00F3A
:104CA000F11F8081898361E0C7010E94EE220F5FBE
:104CB0001F4F0A151B0591F7809162008460809355
:104CC000620061E070E080E090E00E94E5230E94D5
:104CD000FD229501C90124960FB6F894DEBF0FBEE0
:104CE000CDBFDF91CF911F910F91FF90EF90DF909B
:104CF000CF90BF90AF909F908F900895EF92FF92CA
:104D00000F931F93CF93DF93CDB7DEB724970FB6E2
:104D1000F894DEBF0FBECDBF7B018C010E94022341
:104D20008F3F19F48FEF9FEF33C060E081E090E098
:104D30000E94DF2283E88983D801C7016FE0B6951E
:104D4000A795979587956A95D1F78A83BB27A12F59
:104D5000902F8F2D880F8B831C820E947E2580913F
:104D600062008B7F8093620064E0CE0101960E9416
:104D7000EE228091620084608093620061E070E0C6
:104D800080E090E00E94E5230E94FD2280E090E018
:104D900024960FB6F894DEBF0FBECDBFDF91CF9142
:104DA0001F910F91FF90EF9008950F931F93CF9352
:104DB000DF93CDB7DEB722970FB6F894DEBF0FBEF4
:104DC000CDBF8C0187ED89831A820E9402238F3F19
:104DD00019F48FEF9FEF21C060E081E090E00E9426
:104DE000DF22809162008B7F8093620062E0CE01BF
:104DF00001960E94EE22809162008460809362009E
:104E000061E070E080E090E00E94E5230E94FD22D6
:104E10008A81F801808380E090E022960FB6F894B2
:104E2000DEBF0FBECDBFDF91CF911F910F910895CF
:104E3000E2E6F0E080818460808361E070E080E001
:104E400090E00E94E5230E94FD220895EF92FF92D8
:104E50000F931F93CF93DF93CDB7DEB724970FB691
:104E6000F894DEBF0FBECDBF7B018C010E940223F0
:104E70008F3F19F48FEF9FEF33C060E081E090E047
:104E80000E94DF2283E58983D801C701EFE0B69550
:104E9000A79597958795EA95D1F78A83BB27A12F88
:104EA000902F8F2D880F8B831C820E947E258091EE
:104EB00062008B7F8093620064E0CE0101960E94C5
:104EC000EE228091620084608093620061E070E075
:104ED00080E090E00E94E5230E94FD2280E090E0C7
:104EE00024960FB6F894DEBF0FBECDBFDF91CF91F1
:104EF0001F910F91FF90EF9008958091A103992742
:104F00000895CF92DF92EF92FF920F931F936C015F
:104F10008B018EE7E82E85E0F82EC7010E94341B36
:104F2000A801B6018CE593E00E948D348C01C70185
:104F30000E94CE1AC8011F910F91FF90EF90DF9051
:104F4000CF900895CF93DF93CDB7DEB722970FB6FA
:104F5000F894DEBF0FBECDBFFE01379681919191CF
:104F6000FA83E983BF010E94812722960FB6F89445
:104F7000DEBF0FBECDBFDF91CF910895CF92DF92FC
:104F8000EF92FF920F931F936C018B019EE7E92E26
:104F900095E0F92EC7010E94341BA801B6018CE5EB
:104FA00093E00E94722E8C01C7010E94CE1AC801A4
:104FB0001F910F91FF90EF90DF90CF900895CF93C6
:104FC000DF93CDB7DEB722970FB6F894DEBF0FBEE2
:104FD000CDBFFE01379681919191FA83E983BF019C
:104FE0000E94BE2722960FB6F894DEBF0FBECDBF3B
:104FF000DF91CF9108950F931F93082F162F8EE7FF
:1050000095E00E94341B912F92959F70002329F008
:10501000979A82B38370806C04C0979882B3837030
:105020008064990F990F982B92BB60E670E080E046
:1050300090E00E94E52360E670E080E090E00E944E
:10504000E52360E670E080E090E00E94E52360E602
:1050500070E080E090E00E94E52360E670E080E090
:1050600090E00E94E52360E670E080E090E00E941E
:10507000E52360E670E080E090E00E94E52360E6D2
:1050800070E080E090E00E94E52360E370E080E063
:1050900090E00E94E523969860E670E080E090E062
:1050A0000E94E52360E670E080E090E00E94E52346
:1050B00060E670E080E090E00E94E52360E670E04A
:1050C00080E090E00E94E52360E670E080E090E000
:1050D0000E94E52360E670E080E090E00E94E52316
:1050E00060E670E080E090E00E94E52360E670E01A
:1050F00080E090E00E94E52360E370E080E090E0D3
:105100000E94E523612F7727002321F082B383706B
:10511000806C03C082B3837080646F707070660FA0
:10512000771F660F771F862B82BB60E670E080E0FA
:1051300090E00E94E52360E670E080E090E00E944D
:10514000E52360E670E080E090E00E94E52360E601
:1051500070E080E090E00E94E52360E670E080E08F
:1051600090E00E94E52360E670E080E090E00E941D
:10517000E52360E670E080E090E00E94E52360E6D1
:1051800070E080E090E00E94E52360E370E080E062
:1051900090E00E94E523969860E670E080E090E061
:1051A0000E94E52360E670E080E090E00E94E52345
:1051B00060E670E080E090E00E94E52360E670E049
:1051C00080E090E00E94E52360E670E080E090E0FF
:1051D0000E94E52360E670E080E090E00E94E52315
:1051E00060E670E080E090E00E94E52360E670E019
:1051F00080E090E00E94E52360E370E080E090E0D2
:105200000E94E5238EE795E00E94CE1A1F910F9130
:1052100008958EE795E00E94341B61E080E00E94D3
:10522000FB2762E080E00E94FB27E3E8F5E080E2F4
:10523000819385E0E33AF807D1F71092A103109229
:10524000A2038EE795E00E94CE1A08951F93182FAF
:105250008EE795E00E94341B1093A1038091A20376
:10526000181751F01093A203103108F0105D106868
:10527000612F80E00E94FB278EE795E00E94CE1A06
:105280001F9108951F93182F8EE795E00E94341BFD
:105290008091A303882321F00E9409291092A3037F
:1052A0008091A103803211F41092A1031A3021F4ED
:1052B00081E08093A30324C09091A103903119F45D
:1052C0008FEF8093A203E92FFF27ED57FA4F8081DC
:1052D000811789F010838091A203891719F0892F13
:1052E0000E942629612F81E00E94FB278091A20362
:1052F0008F5F8093A2038091A1038F5F8093A103AE
:105300008EE795E00E94CE1A812F992787FD909510
:105310001F9108950F931F93CF93DF938C018EE716
:1053200095E00E94341BE8011AC06A3039F460E845
:1053300080E00E94FB271092A10303C081E00E943D
:10534000FB279E01201B2F3021F460EC80E00E949F
:10535000FB278091A1038F5F8093A1032196688131
:10536000662319F78EE795E00E94CE1ADF91CF9160
:105370001F910F910895FF920F931F93CF93DF9387
:10538000F82E8B018EE795E00E94341BFF0CFF0C7A
:10539000FF0CE80100E0602F6F0D606480E00E9468
:1053A000FB27FE01649181E00E94FB270F5F21969D
:1053B000083089F78EE795E00E94CE1ADF91CF91F1
:1053C0001F910F91FF90089564E670E080E090E0F7
:1053D0000E94052463E380E00E94FB2762E380E0F3
:1053E0000E94FB2761EA76E081E00E94BB2969EA1E
:1053F00076E082E00E94BB2961EB76E083E00E94C8
:10540000BB2969EB76E084E00E94BB2961EC76E081
:1054100085E00E94BB2969EC76E086E00E94BB290A
:1054200061E080E00E94FB2762E080E00E94FB27B1
:10543000E3E8F5E080E2819385E0E33AF807D1F70D
:1054400066E080E00E94FB276CE080E00E94FB2782
:1054500063E573E08EE795E00E941E1B0895EF92CE
:10546000FF921F9383EAE82E85E0F82EC7010E9481
:10547000341B10911E11C7010E94CE1A1095812F66
:1054800099271F91FF90EF9008951F93182F883050
:10549000A8F483EA95E00E94341B80911E1199279D
:1054A0008095909502C0959587951A95E2F7182FEB
:1054B000117083EA95E00E94CE1A0FC0883140F443
:1054C0000E94261610E08150924038F011E005C08D
:1054D00081ED96E00E94AF1C10E0812F99271F916B
:1054E00008956AE673E083EA95E00E941E1B089522
:1054F000E2E6F0E08081877F808366E970E080E00B
:1055000090E00E94E5236EE080E00E94CE2D089599
:105510000F931F9302E610E0F8018081877F80835C
:1055200066E970E080E090E00E94E5236FE080E0B3
:105530000E94CE2DF80180818860808366E970E04A
:1055400080E090E00E94E5231F910F910895CF9293
:10555000DF92FF920F931F93CF93DF936C018B0128
:10556000EA01F22E0E94882A87E00E94492E982F95
:1055700096959770988386FD04C0973011F4FF20AC
:1055800099F7892F99279F938F938CEE96E09F939D
:105590008F930E948C2348810F900F900F900F9053
:1055A000463030F5842F8F5E0E94492EF8018083AB
:1055B00099279F938F938EED96E09F938F930E94F0
:1055C0008C23F80160810F900F900F900F90613243
:1055D00018F00E94E92C0CC0662351F0C6010E940D
:1055E000332D60E487E00E94CE2D81E090E002C080
:1055F00080E090E0DF91CF911F910F91FF90DF90BD
:10560000CF900895CF93DF93CDB7DEB721970FB634
:10561000F894DEBF0FBECDBF20E0AE014F5F5F4FFD
:105620000E94A72A992721960FB6F894DEBF0FBED5
:10563000CDBFDF91CF910895DF92EF92FF920F934C
:105640001F93F82E8B01E42E0E94782A8AE00E9494
:10565000492ED82E6F2D8AE00E94CE2D6F2D80E12D
:105660000E94CE2D6E2DC8010E948B2C809162006D
:1056700088608093620064E170E080E090E00E94C6
:10568000E52380916200877F8093620002C00E94C0
:105690007D2087E00E94492E082FE82EFF24C701B5
:1056A00080739070892B99F3FF92EF928BEF96E0C5
:1056B0009F938F930E948C230073602F87E00E943A
:1056C000CE2D6D2D8AE00E94CE2D0E940E2D0E94BF
:1056D000882A85E0F694E7948A95E1F70F900F9079
:1056E0000F900F90C701817090701F910F91FF90E4
:1056F000EF90DF900895DF92EF92FF920F931F9348
:10570000CF93DF93D82E7B01042F10E0C42FDD2729
:1057100010C0612F7727AE01461B570B4132510550
:1057200014F040E250E06E0D7F1D8D2D0E941C2B69
:10573000105E101770F381E090E0DF91CF911F9120
:105740000F91FF90EF90DF9008950F931F930E94A9
:10575000782A66EB86E00E94CE2D66E970E080E054
:1057600090E00E94E52302E610E0F8018081886065
:10577000808364E670E080E090E00E940524F801F8
:105780008081877F808366E970E080E090E00E94FE
:10579000E52366E286E00E94CE2D0E94882A1F91B2
:1057A0000F9108950F931F93CF93DF93CDB7DEB77B
:1057B00023970FB6F894DEBF0FBECDBF9091A8051A
:1057C000E92FFF27E050FF4F80819F5F8823C1F7BB
:1057D00091509093A8059F5F20E030E040E008C022
:1057E000F901E855FA4FD901A150BF4F8C91808340
:1057F0002F5F3F4F4F5F491799F764E670E080E0F5
:1058000090E00E94052463E080E00E94CE2D65E0D8
:1058100070E080E090E00E94052401E010E0B80113
:105820000090A80502C0660F771F0A94E2F7615046
:1058300081E00E94CE2D61E083E00E94CE2D6FE1D9
:1058400084E00E94CE2D62E085E00E94CE2D66E2CB
:1058500086E00E94CE2D64E08DE10E94CE2D009066
:10586000A80502C0000F111F0A94E2F70150602F33
:105870008CE10E94CE2D8091A905898380E78A83DF
:1058800082E68B8343E08E010F5F1F4FB8018AE0F1
:105890000E94922D8091A805823040F08091AA0547
:1058A000898343E0B8018BE00E94922D00E010E074
:1058B00008C0FF27E755FA4F6081802F855F0E945F
:1058C000CE2DE02FEE5F0F5F1F4F8091A805E817E8
:1058D00080F3198243E0BE016F5F7F4F80E10E9439
:1058E000922D61E070E00090A80502C0660F771F5E
:1058F0000A94E2F7615082E00E94CE2D0E94882A2D
:1059000023960FB6F894DEBF0FBECDBFDF91CF91C7
:105910001F910F910895FF920F931F93CF93DF93E1
:10592000CDB7DEB729970FB6F894DEBF0FBECDBF57
:105930008C01F62E0E94022380EA8983D801FE01A1
:10594000319690E004C08D9181839F5F31969F15C1
:10595000D1F760E082E090E00E94DF221B98F39490
:105960006F2DCE0101960E94EE221B9A0E94FD220D
:1059700029960FB6F894DEBF0FBECDBFDF91CF9151
:105980001F910F91FF900895CF93DF93CDB7DEB7AE
:1059900021970FB6F894DEBF0FBECDBF0E94022341
:1059A00083EE898360E082E090E00E94DF221B9812
:1059B00061E0CE0101960E94EE221B9A0E94FD2218
:1059C00021960FB6F894DEBF0FBECDBFDF91CF9109
:1059D0000895CF93DF93CDB7DEB721970FB6F89434
:1059E000DEBF0FBECDBF0E94022382EE898360E03E
:1059F00082E090E00E94DF221B9861E0CE010196D8
:105A00000E94EE221B9A0E94FD2221960FB6F89466
:105A1000DEBF0FBECDBFDF91CF910895CF93DF934F
:105A2000CDB7DEB721970FB6F894DEBF0FBECDBF5E
:105A30000E94022381EE898360E082E090E00E9470
:105A4000DF221B9861E0CE0101960E94EE221B9A94
:105A50000E94FD2221960FB6F894DEBF0FBECDBF87
:105A6000DF91CF910895FF920F931F93CF93DF9310
:105A7000CDB7DEB729970FB6F894DEBF0FBECDBF06
:105A80008C01F62E0E94022381E6898360E082E089
:105A900090E00E94DF221B986F2D6F5FCE01019670
:105AA0000E94EE221B9A0E94FD22DE011296F8014E
:105AB00090E003C08D9181939F5F9F15D9F7299640
:105AC0000FB6F894DEBF0FBECDBFDF91CF911F910F
:105AD0000F91FF900895CF93DF93CDB7DEB7229754
