:100000000C94B6030C94D6030C94D6030C94D6032C
:100010000C94D6030C94D6030C94D6030C94D603FC
:100020000C94D6030C94D6030C940A160C94D603A5
:100030000C94D6030C94D6030C94D6030C94D603DC
:100040000C94D6030C94D6030C94D6030C94D603CC
:100050000C94D6030C94D6030C94D6030C94D603BC
:100060000C94D6030C94D6030C94D6030C94D603AC
:100070000C94D6030C94D6030C94D6030C94D6039C
:100080000C94D6030C94D6030C94D603757064615B
:1000900074655F7069643A206E6F20696E70757464
:1000A000007570646174655F7069643A207069649A
:1000B0002064697361626C6564006572726F72209E
:1000C00025302E33660A0063757272656E74207671
:1000D000616C75652025302E33660A00696E69747F
:1000E0005F7069643A20706964206E756C6C006D95
:1000F00061696E000A004A6F794F532076302E32C4
:100100002E342D52433420202020507265737320EA
:10011000474F002020202020202020206D656D6F7B
:1001200072792066756C6C00686561702073697AFD
:10013000653A2025642062797465730A005F5F6DFB
:10014000616C6C6F635F686561705F656E64203DB4
:100150002025700A005F5F6D616C6C6F635F68657E
:1001600061705F7374617274203D2025700A0072A3
:10017000756E6177617920636F6465000A526F75EF
:100180006E6420656E64000A526F626F742072653F
:100190006164792E202020205072657373202747D8
:1001A0006F27006C6F636B2068656C642062792038
:1001B000616E6F746865720072656C65617365204D
:1001C000756E68656C64206C6F636B0072656C653E
:1001D000617365206E756C6C206C6F636B00697366
:1001E0005F68656C64206E756C6C206C6F636B006F
:1001F000616371756972656420746F6F206D616EE3
:10020000792074696D657300616371756972652029
:100210006E756C6C206C6F636B00696E6974206E18
:10022000756C6C206C6F636B00496E69742066613D
:10023000696C3A2025730A0D005541525430206FE5
:1002400070656E65642061742025640A0D00486144
:10025000707079626F61726420696E697420737462
:1002600061727465640A0D00486172647761726539
:100270002076657273696F6E2025582E25303258AE
:100280000A0D00426F6172642049442025303458C1
:100290000A0D00426F61726420636F6E66696720A9
:1002A0004F4B0A0D0042617474657279204F4B3ACE
:1002B0002025646D560A0D0046504741207625647E
:1002C0002E25640A0D0046504741206661696C7511
:1002D0007265004C6F7720626174746572790042B8
:1002E000616420436F6E666967000A70616E6963BE
:1002F0003A2025730070616E69633A2025730A0005
:1003000020746872656164202874696420256429FA
:10031000202725732720737461747573202564204A
:1003200072756E732025750A0020746872656164A9
:1003300020287469642025642920756E616C6C6FB7
:1003400063617465640A0044756D70696E6720743A
:100350006872656164207374617465733A0A002081
:1003600050432020203A20253038700A0020535274
:100370004547203A20253032700A00205350202073
:10038000203A20253034700A002046502020203AA0
:1003900020253034700A00203C6F6D697474696EDA
:1003A000672072302D7233313E0A0044756D7069DA
:1003B0006E67206A6D705F6275663A0A006F7574C9
:1003C000206F66207468726561647300736C656584
:1003D00070007969656C64006E6F20637572726578
:1003E0006E745F74687265616400737461636B201E
:1003F0006F766572666C6F7700726573657276658D
:10040000642073706163653A20257020746F202525
:10041000700A00737461636B746F703A2025700A00
:100420000070632061742025700A007370206F666D
:1004300020272573272028696420256429206973D3
:100440002025700A000A737461636B206F766572F1
:10045000666C6F770A0053502061626F7665006E9C
:100460006F2069646C65006D616C6C6F63207370E4
:10047000616365205B25702C25705D0A00746872CD
:10048000656164735B305D2E74685F73746174754D
:10049000732061742025700A00746872656164734A
:1004A0005B305D2061742025700A0074696D6520E1
:1004B0002564002D2D206E6F2069646C65207468A2
:1004C00072656164202D2D0A007363686564756C24
:1004D00065004F6F70732E2E2E207468657265272D
:1004E0007320612072756E6E61626C652074687233
:1004F000656164207468617473206E6F7420696430
:100500006C650A00207468726561642028746964EF
:10051000202564292027257327207374617475733F
:100520002025640A0020746872656164202874695B
:10053000642025642920756E616C6C6F636174653D
:10054000640A0069646C65206672656500286964E8
:100550002025642920737461636B205B25702C2532
:1005600070290A00746872656164207461626C6548
:1005700020656E642061742025700A0074687265BD
:100580006164207461626C652073746172742061AF
:10059000742025700A002520356420202025347021
:1005A000202020253032780A003D3D3D3D3D3D3D37
:1005B0003D3D3D3D3D3D3D3D3D3D3D3D3D0A0049CF
:1005C0004E4445582020204144445220202056418A
:1005D0004C55450A0000000A0000110E0000000AF8
:1005E0000000111F0000000A00000E1100000E1F85
:1005F0001111111F000000000000001500000E0E78
:100600000E1F0E0400616E616C6F675F726561643E
:10061000006D637033303038206661696C006D6343
:100620007033303038206661696C006469676974C2
:10063000616C5F72656164005258206C656E3A208F
:10064000253032580A00525820706970653A2025CA
:100650003032580A0054582041434B20737461745F
:1006600075733A20253032580A006E616E00696E4B
:10067000660000407A10F35A00A0724E180900106C
:10068000A5D4E80000E87648170000E40B54020007
:1006900000CA9A3B000000E1F50500008096980032
:1006A000000040420F000000A0860100000010275B
:1006B00000000000E80300000000640000000000EB
:1006C0000A00000000000100000000002C76D8881D
:1006D000DC674F0823DFC1DFAE59E1B1B796E5E330
:1006E000E453C63AE651997696E8E6C28426EB8949
:1006F0008C9B62ED407C6FFCEFBC9C9F40F2BAA5E6
:100700006FA5F490055A2AF75C936B6CF9676DC17D
:100710001BFCE0E40D47FEF520E6B500D0ED902E81
:100720000300943577050080841E080000204E0ADF
:10073000000000C80C333333330F986E128311411D
:10074000EF8D2114893BE65516CFFEE6DB18D184E8
:100750004B381BF77C1D901DA4BBE424203284720F
:100760005E228100C9F124ECA1E53D2711241FBEC2
:10077000CFEFD0E1DEBFCDBF12E0A0E0B1E0ECE80A
:10078000FAE500E00BBF02C007900D92A233B1075B
:10079000D9F71BBE14E0A2E3B2E001C01D92A03362
:1007A000B107E1F70E947D0E0C9412150C94E4152C
:1007B00020917C0230917D0240917E0250917F0217
:1007C000B901CA0108956F927F928F929F92AF9262
:1007D000BF92CF92DF92EF92FF920F931F93962ECC
:1007E000872E782E692E59016A010E944A2A87FDB8
:1007F00011C0692D782D872D962D9701A8010E9493
:10080000252C18162CF0A92CB82CC72CD62C02C0DD
:1008100057016801B501C6011F910F91FF90EF903C
:10082000DF90CF90BF90AF909F908F907F906F9010
:1008300008958EE692E064E670E00E94590B64E64B
:1008400070E080E090E00E9430158EE692E064E671
:1008500070E00E94590B64E670E080E090E00E9436
:1008600030158EE692E068EC70E00E94590B68EC5F
:1008700070E080E090E00E9430158EE692E064E641
:1008800070E00E94590B64E670E080E090E00E9406
:1008900030158EE692E064E670E00E94590B64E643
:1008A00070E080E090E00E9430158EE692E068EC07
:1008B00070E00E94590B68EC70E080E090E00E94CC
:1008C00030158BE092E060E971E00E94590B60E91D
:1008D00071E080E090E00E9430158BE092E064E6E9
:1008E00070E00E94590B64E670E080E090E00E94A6
:1008F00030158BE092E064E670E00E94590B64E6EC
:1009000070E080E090E00E9430158EE692E068ECA6
:1009100070E00E94590B68EC70E080E090E00E946B
:1009200030158EE692E064E670E00E94590B64E6B2
:1009300070E080E090E00E9430158EE692E064E680
:1009400070E00E94590B64E670E080E090E00E9445
:1009500030158EE692E068EC70E00E94590B68EC6E
:1009600070E080E090E00E9430158BE092E060E95A
:1009700071E00E94590B60E971E080E090E00E9414
:10098000301580E193E068EC70E00E94590B68EC50
:1009900070E080E090E00E9430158BEB92E068EC14
:1009A00070E00E94590B68EC70E080E090E00E94DB
:1009B000301580E193E060E971E00E94590B60E935
:1009C00071E080E090E00E94301533CFEF92FF920B
:1009D0000F931F937C0180E060E070E00E94BC0AEE
:1009E00081E060E070E00E94BC0A0027F7FC0095FF
:1009F000102FC801B7010E9430151F910F91FF9071
:100A0000EF9008950E94410B882331F081E090E03F
:100A100090936B0280936A02089582E390E00E94B3
:100A2000E6040AC00E946B0C62E370E080E090E094
:100A30000E9430150E94020580916A0290916B021B
:100A4000039781F308950E944D0B882319F083E0EA
:100A500090E00CC00E947B1160935C0270935D0279
:100A600080935E0290935F0281E090E090936B022E
:100A700080936A020895EF92FF920F931F930E9452
:100A80004D0B882339F083E090E090936B028093C4
:100A90006A0238C089E10E941C0B8C01E090900230
:100AA000F090910288E10E941C0B20918E023091FF
:100AB0008F020E191F09021B130B080F191F065472
:100AC000134000F1609158027091590280915A02CE
:100AD00090915B0220E030E044EB52E40E94E62972
:100AE000609358027093590280935A0290935B026C
:100AF00083E090E090936B0280936A0288EC90E030
:100B00000E94E6041F910F91FF90EF9008954F927D
:100B10005F926F927F928F929F92AF92BF92CF928D
:100B2000DF92EF92FF920F931F932B013C018CE613
:100B300092E040E050E060EE7FE30DEC1CEC2CEC2A
:100B40003EE30F2EF0E0CF2EF0E0DF2EF0E0EF2EB0
:100B5000F0E0FF2EF02DAA24BB24882499240E94C3
:100B6000FD0840927C0250927D0260927E0270925B
:100B70007F021F910F91FF90EF90DF90CF90BF9079
:100B8000AF909F908F907F906F905F904F9008955F
:100B90004F925F926F927F928F929F92AF92BF928D
:100BA000CF92DF92EF92FF920F931F930E944D0B13
:100BB000882339F083E090E090936B0280936A027F
:100BC0006DC00E946B0C7B018C016091580270918A
:100BD000590280915A0290915B0220E030E040E49B
:100BE00050E40E94E5299B01AC01C801B7010E94B5
:100BF000252C18160CF052C00E946B0C7B018C0146
:100C0000409058025090590260905A0270905B02D6
:100C1000C301B20120E030E040E450E40E94E62944
:100C20009B01AC01C801B7010E944A2A8823B4F590
:100C30008CE692E040E050E060EE7FE30DEC1CECCF
:100C40002CEC3EE30F2EF0E0CF2EF0E0DF2EF0E0B4
:100C5000EF2EF0E0FF2EF02DAA24BB248824992447
:100C60000E94FD0840927C0250927D0260927E02BA
:100C700070927F020E947B1160935C0270935D0210
:100C800080935E0290935F0281E090E090936B020C
:100C900080936A0284EF91E00E94E6041F910F9115
:100CA000FF90EF90DF90CF90BF90AF909F908F908C
:100CB0007F906F905F904F900895AF92BF92CF92C8
:100CC000DF92EF92FF920F931F9300D080E091E0AC
:100CD000EDB7FEB7928381830E9443160F900F9069
:100CE00041C10E946B0C5B016C01E0905802F090D6
:100CF000590200915A0210915B02C801B701A60186
:100D000095010E94252C18160CF08EC0C801B70161
:100D1000A60195010E94E52920E030E040E05EE375
:100D20000E94292C20E030E044E352E40E94E629AE
:100D30007B018C0120E030E040E852EC0E944A2A1E
:100D400088235CF40F2EF0E0EF2EF0E0FF2EF0E8A9
:100D50000F2FF2EC1F2FF02D14C0C801B70120E0B7
:100D600030E040E852E40E94252C181654F40F2E6F
:100D7000F0E0EF2EF0E0FF2EF0E80F2FF2E41F2F4F
:100D8000F02DC801B7010E94F02A9B01AC0180E060
:100D9000B9010E94BC0AC601B501209158023091E8
:100DA000590240915A0250915B020E94E52920E0CD
:100DB00030E040E05EE30E94292C20E030E044E394
:100DC00052E40E94E52920E030E040EA50E40E942D
:100DD000E5297B018C0120E030E044E952EC0E94DF
:100DE0004A2A88235CF40F2EF0E0EF2EF0E0FF2E6D
:100DF000F4E90F2FF2EC1F2FF02DA2C0C801B701AC
:100E000020E030E040E852E40E94252C18160CF057
:100E100097C00F2EF0E0EF2EF0E0FF2EF0E80F2F3E
:100E2000F2E41F2FF02D8CC0C801B701A601950177
:100E30000E94E52920E030E040E05EE30E94292C9A
:100E400020E030E044E352E40E94E5297B018C017C
:100E500020E030E040E852EC0E944A2A88235CF40B
:100E60000F2EF0E0EF2EF0E0FF2EF0E80F2FF2EC67
:100E70001F2FF02D14C0C801B70120E030E040E87A
:100E800052E40E94252C181654F40F2EF0E0EF2E99
:100E9000F0E0FF2EF0E80F2FF2E41F2FF02DC80135
:100EA000B7010E94F02A9B01AC0180E0B9010E94C9
:100EB000BC0AC601B50120915802309159024091F7
:100EC0005A0250915B020E94E52920E030E040E0A8
:100ED0005EE30E94292C20E030E044E352E40E94CB
:100EE000E62920E030E040EA50E40E94E6297B0158
:100EF0008C0120E030E040E852EC0E944A2A88232E
:100F00005CF40F2EF0E0EF2EF0E0FF2EF0E80F2F54
:100F1000F2EC1F2FF02D14C0C801B70120E030E023
:100F200044E952E40E94252C181654F40F2EF0E0E8
:100F3000EF2EF0E0FF2EF4E90F2FF2E41F2FF02D3B
:100F4000C801B7010E94F02A9B01AC0181E0B90100
:100F50000E94BC0A64E170E080E090E00E943015DD
:100F60000E94C80580916A0290916B02029709F471
:100F7000B8CE1F910F91FF90EF90DF90CF90BF9070
:100F8000AF900895AF92BF92CF92DF92EF92FF920F
:100F90000F931F93CF93DF9300D08FE091E0EDB7D5
:100FA000FEB7928381830E9443160F900F9089E1D0
:100FB0000E941C0B909391028093900288E10E9402
:100FC0001C0B90938F0280938E020F2EF0E0AF2EB9
:100FD000F0E0BF2EF0E0CF2EF0E0DF2EF02DCBE5DD
:100FE000D0E021C00E946B0CAB01BC018CE692E00A
:100FF0000E945F095B016C010E94F02A7B018C0159
:101000006F5A7F4F80E00E94BC0ABE016E197F09B3
:1010100081E00E94BC0A62E370E080E090E00E9400
:1010200030150E943B0580916A0290916B020197F6
:10103000C9F200D000D00DB71EB70F5F1F4F8DE172
:1010400091E0EDB7FEB792838183C601B5010E949E
:10105000F02AF801738362830E9443160F900F9069
:101060000F900F90DF91CF911F910F91FF90EF9014
:10107000DF90CF90BF90AF9008952F923F924F9204
:101080005F926F927F928F929F92AF92BF92CF9218
:10109000DF92EF92FF920F931F93CF93DF938BE238
:1010A000282E81E0382EC8E3D1E00F2EF0E04F2E3D
:1010B000F0E05F2EF0E06F2EF0E07F2EF02D5CC0B0
:1010C00000D081E291E0EDB7FEB7928381830E9468
:1010D00043160F900F900E94AD0B00D0EDB7FEB7F6
:1010E000328221820E9443160F900F9068EE73E0C7
:1010F00080E090E00E94301500D0EDB7FEB7D283BB
:10110000C1830E9443160F900F9088E043E550EE94
:101110006CEA79E408E813E120E030E00E94F10D88
:10112000409258025092590260925A0270925B02A9
:101130008CE692E040E050E060EE7FE30DEC1CECCA
:101140002CEC3EE30F2EF0E0CF2EF0E0DF2EF0E0AF
:10115000EF2EF0E0FF2EF02DAA24BB248824992442
:101160000E94FD0840927C0250927D0260927E02B5
:1011700070927F020E94230580916A0290916B0217
:10118000892B09F49DCFDF91CF911F910F91FF9093
:10119000EF90DF90CF90BF90AF909F908F907F9017
:1011A0006F905F904F903F902F90089510926B0238
:1011B00010926A0280916A0290916B0281309105CF
:1011C00069F08130910538F08230910551F083301B
:1011D0009105A1F709C00E943D08ECCF0E94C2070B
:1011E000E9CF0E945D06E6CF0E940D05E3CF80E0C7
:1011F0000E947A0E80E090E008952F923F924F92E5
:101200005F926F927F928F929F92AF92BF92CF9296
:10121000DF92EF92FF920F931F93DF93CF9300D053
:1012200000D0CDB7DEB73C011A012B0109831A8328
:101230002B833C83009721F48CED90E00E941911E0
:10124000D3012D923D924D925C92139789819A81A0
:10125000AB81BC81F30184839583A683B783D301DB
:101260001896CD92DD92ED92FC921B971D96BC9242
:10127000AE921C971F969C928E921E9780E090E0F3
:10128000A0E0B0E0848B958BA68BB78B108E11A25B
:101290000F900F900F900F90CF91DF911F910F91B2
:1012A000FF90EF90DF90CF90BF90AF909F908F9086
:1012B0007F906F905F904F903F902F9008952F9266
:1012C0003F924F925F926F927F928F929F92AF92D6
:1012D000BF92CF92DF92EF92FF920F931F93CF9323
:1012E000DF93EC011A012B0100D000D000D087EC75
:1012F00090E0EDB7FEB79283818343835483658387
:1013000076830E94F617688979898A899B89A20168
:1013100091010E94E5295B016C018AEB90E0EDB739
:10132000FEB792838183A382B482C582D6820E9453
:10133000F617C601B501288139814A815B810E9477
:10134000292C7B018C018DB79EB706960FB6F894B9
:101350009EBF0FBE8DBF888D882359F40F2EF0E0FD
:10136000AF2EF0E0BF2EF0E0CF2EF0E0DF2EF02D1C
:1013700052C00E947B112D8D3E8D4F8D58A1621B56
:10138000730B840B950B0E94252B2FE632E143E86B
:101390005AE30E94292C3B014C01A60195010E94B1
:1013A000292C2C893D894E895F890E94E6295B01A1
:1013B0006C012C813D814E815F810E94292C9B0113
:1013C000AC01C801B7010E94E6297B018C01C40170
:1013D000B30120E030E040E050E00E944A2A882338
:1013E000D1F0C201B101298D3A8D4B8D5C8D0E94E7
:1013F000E529288539854A855B850E94292CA40129
:1014000093010E944E2A9B01AC01C801B7010E94C2
:10141000E6297B018C0181E0888FAC8ABD8ACE8A67
:10142000DF8A298E3A8E4B8E5C8E0E947B116D8FE7
:101430007E8F8F8F98A3EE85FF85309719F0C801B6
:10144000B7010995B701C801DF91CF911F910F91A5
:10145000FF90EF90DF90CF90BF90AF909F908F90D4
:101460007F906F905F904F903F902F900895CF9313
:10147000DF93EC0189A1882321F481EA90E00E94A6
:1014800019118C859D85892B21F48CE890E00E94B0
:101490001911EC85FD850995AB01BC01CE010E94B7
:1014A0005F09DF91CF910895CF93DF93EC01CE01D7
:1014B0000E94370AFCCF1F93CF93DF93CDB7DEB7DF
:1014C00028970FB6F894DEBF0FBECDBF182F82E964
:1014D00092E00E949E0FDE011396E3E5F1E086E0C4
:1014E00001900D928150E1F7FE01E10FF11D638142
:1014F0007727685F7F4FAE014F5F5F4F80E090E0DE
:101500000E94221982E992E00E94380F89819A8113
:1015100028960FB6F894DEBF0FBECDBFDF91CF91F6
:101520001F9108950E945B0AAA27BB27BC01CD0129
:101530000E94252B28E431EE40E851E40E94292C3A
:101540000E94F52ADC01CB010895FF920F931F93AF
:10155000F82E02E912E0C8010E949E0FFF0CEF2D49
:10156000FF27E050FF4E83E08083C8010E94380FC0
:101570001F910F91FF9008951F93CF93DF93182F22
:10158000EB0182E992E00E949E0F110F1C161D06CE
:1015900034F4E12FFF27E050FF4E81E007C0E12F38
:1015A000FF27209729F0E050FF4E82E0808303C0A0
:1015B000E050FF4E1082E12FFF27EF5FFE4EBE018D
:1015C000D7FF03C0709561957F4F608382E992E0F9
:1015D0000E94380FDF91CF911F91089568E471E068
:1015E00082E992E00E94880F0895CF92DF92EF92F5
:1015F000FF920F931F93082F97E9C92E92E0D92EDF
:10160000C6010E949E0F000F0452112700501F4E6A
:10161000F801E1900081C6010E94380F1127102FB8
:101620000027FF24C8018E299F291F910F91FF9049
:10163000EF90DF90CF9008951F93182F0E94F50A26
:10164000E12FFF27EE0FFF1FEE5FFD4F208131815D
:10165000821B930B1F9108951F93182F0E94F50A68
:10166000E12FFF27EE0FFF1FEE5FFD4F9183808379
:101670001F91089569E571E087E992E00E94880F63
:10168000089581B1992725E0969587952A95E1F7E8
:101690008095909581709070089581B1992734E07C
:1016A000969587953A95E1F7809590958170907021
:1016B0000895AF92BF92CF92DF92EF92FF920F9375
:1016C0001F939B017C010027112744275527CA013E
:1016D000B901A80197010E948C2C28EE33E040E06C
:1016E00050E00E94BE2C59016A0160E271EA87E075
:1016F00090E0A80197010E94BE2C790100271127D4
:101700000AC0C49AC801B7010E944F18C498C80102
:10171000B7010E944F180894A108B108C108D10868
:101720008FEFA8168FEFB8068FEFC8068FEFD80699
:1017300041F71F910F91FF90EF90DF90CF90BF90F6
:10174000AF9008950C99FECF64E670E080E090E0E1
:101750000E944F180C9BFECF08950D99FECF64E6B2
:1017600070E080E090E00E944F180D9BFECF08953E
:10177000CF93DF93CDB7DEB722970FB6F894DEBFD5
:101780000FBECDBFAE014F5F5F4F6FE070E080E0F6
:1017900090E00E94221969817A81882799270E9406
:1017A000252B2CE135E441E251E40E94292C0E94D2
:1017B000F52ADC01CB0122960FB6F894DEBF0FBEEE
:1017C000CDBFDF91CF910895CF93DF93CDB7DEB733
:1017D00022970FB6F894DEBF0FBECDBFAE014F5FAC
:1017E0005F4F61E070E080E090E00E941317898114
:1017F0009A8122960FB6F894DEBF0FBECDBFDF915F
:10180000CF910895CF92DF92EF92FF920F931F93A3
:101810006C017B010E94E40BAA27BB27EC18FD0892
:101820000894E11CF11C00271127BC01CD01A8017F
:1018300097010E948C2C4AE096958795779567953D
:101840004A95D1F7C60ED71EC6011F910F91FF9082
:10185000EF90DF90CF9008958F929F92AF92BF92BA
:10186000CF92DF92EF92FF920F931F937B018C0137
:101870008CE9882E82E0982EC4010E949E0F209150
:101880003A0230913B0240913C0250913D02C80126
:10189000B7010E94292C0E94B62A20933E02309361
:1018A0003F02409340025093410260934202709382
:1018B00043028093440290934502C4010E94380F72
:1018C0001F910F91FF90EF90DF90CF90BF90AF905E
:1018D0009F908F9008958F929F92AF92BF92CF92D8
:1018E000DF92EF92FF920F931F939CE9892E92E073
:1018F000992EC4010E949E0FA0903E02B0903F021C
:10190000C0904002D0904102E0904202F090430229
:1019100000914402109145022A2D3B2D4C2D5D2D46
:101920006E2D7F2D802F912F0E94212B20913A0226
:1019300030913B0240913C0250913D020E944E2A60
:101940007B018C01C4010E94380FC801B7011F91AF
:101950000F91FF90EF90DF90CF90BF90AF909F904E
:101960008F9008952F923F924F925F926F927F9245
:101970008F929F92AF92BF92CF92DF92EF92FF929F
:101980000F931F93CF93DF93CDB7DEB760970FB65A
:10199000F894DEBF0FBECDBF0E948A115B016C01BF
:1019A000809175010E94D91E7C010027112780912A
:1019B0004B0290914C02AA27BB27E81AF90A0A0B9E
:1019C0001B0B0E948A111B012C01DC01CB018A191F
:1019D0009B09AC09BD095C016D01C801B701A601F5
:1019E00095010E948C2C3B014C0120914D023091BD
:1019F0004E0244275527C601B5010E948C2C7B015D
:101A00008C018CE992E00E949E0F80914602909199
:101A10004702A0914802B09149028E0D9F1DA01F60
:101A2000B11F8093460290934702A0934802B0935F
:101A30004902A0904602B0904702C0904802D09060
:101A40004902E090A102F090A202002711276091C4
:101A50004602709147028091480290914902A80184
:101A600097010E94E02C6093460270934702809396
:101A700048029093490290913E029983A0913F02BF
:101A8000AA83B0914002BB83E0914102EC83F091C4
:101A90004202FD83809143028E83909144029F8392
:101AA000A0914502A887C601B501A80197010E942F
:101AB000E02C621A730A840A950AD401C301BB0F91
:101AC000880B982FDC0169867A868B869C868D87A9
:101AD0008E878F87888BA980B985AB1A81E0E981D1
:101AE000EA1508F080E0BA80FA85BF1A21E09A81F1
:101AF0009B1508F020E0AB2DA81B8A2F91E0BA16A9
:101B000008F090E0292BB82ECB80BB85CB1A31E0B2
:101B1000EB81EC1508F030E08C2D821B91E0C816AB
:101B200008F090E0392BC82EDC80FC85DF1A21E01C
:101B30008C818D1508F020E08D2D831B91E0D81647
:101B400008F090E0292BD82EED809D85E91A31E030
:101B5000AD81AE1508F030E08E2D821B91E0E816C5
:101B600008F090E0392BE82EFE80BE85FB1A21E0BC
:101B7000EE81EF1508F020E08F2D831B91E0F81621
:101B800008F090E0292BF82E0F81FF850F1B91E0C4
:101B90008F81801708F090E0802F821B21E00817CA
:101BA00008F020E0922B1885A8891A1BE12FE91B69
:101BB000A0923E02B0923F02C0924002D0924102F7
:101BC000E0924202F092430280934402E093450285
:101BD0008CE992E00E94380F0E94E71462015101E3
:101BE000DFCE2F923F924F925F926F927F928F92B1
:101BF0009F92AF92BF92CF92DF92EF92FF920F939C
:101C00001F93180129018093750140933A02509364
:101C10003B0260933C0270933D020E947B113B01AA
:101C20004C01AA24BB246501EE24FF2487010FC0C8
:101C3000809175010E94D91EAA27BB27E80EF91EC4
:101C40000A1F1B1F0894A11CB11CC11CD11C0E949F
:101C50007B1166197709880999096215730584054E
:101C6000950530F3C801B701A60195010E94BE2C6D
:101C700030934C0220934B02C801B701A601950195
:101C80000E94BE2C70934E0260934D02B092A2024D
:101C9000A092A10210923E0210923F0210924002C6
:101CA000109241021092420210924302109244029A
:101CB0001092450266E671E08CE992E00E94880F7E
:101CC00020E731E040E060E071E082EB9CE00E94C0
:101CD000AC121F910F91FF90EF90DF90CF90BF90CB
:101CE000AF909F908F907F906F905F904F903F90BC
:101CF0002F90089580938E010895CFEFD0E1DEBF3D
:101D0000CDBF80914F0290915002892B21F08FE638
:101D100091E00E94191183E897E09093300280933C
:101D20002F020E94471080912D0290912E029F93C6
:101D30008F9385E591E09F938F930E94F617809192
:101D40002F02909130029F938F938DE391E09F93A8
:101D50008F930E94F61780912F029091300220916C
:101D60002D0230912E02821B930B880F991F9F9397
:101D70008F9388E291E09F938F930E94F6178DB71F
:101D80009EB70C960FB6F8949EBF0FBE8DBF2091E4
:101D90002D0230912E0280912F029091300228174F
:101DA000390720F083E191E00E9419110E94731D10
:101DB00006EF10E01F930F930E940C1C1F930F93CC
:101DC0000E94F61784EF90E09F938F930E94F6177E
:101DD0000E94AD0B0E94621526E731E040E060E012
:101DE00071E087E09FE00E94AC120E94F1138FEE39
:101DF00090E00E9419118DB79EB706960FB6F89421
:101E00009EBF0FBE8DBF80E090E00C9412150E9423
:101E1000F70887E891E09F938F930E940C1C0E9423
:101E2000AD0B0E94731D24E831E040E060E071E0FA
:101E300086ED98E00E94AC120F900F9080918E0179
:101E4000882319F40E94E714FDCF60E97FE581E063
:101E500090E00E9430158CE791E09F938F930E9451
:101E60000C1C0E9499120F900F9080E090E0089552
:101E70001F93CF93DF93EC01892B21F48CEC91E03D
:101E80000E9419111FB7F8948881882321F488EBE8
:101E900091E00E9419112B813C8180914F02909119
:101EA00050022817390721F083EA91E00E941911A6
:101EB000888181508883882311F41C821B828FB70C
:101EC0001078182B1FBFDF91CF911F910895CF93EA
:101ED000DF93EC01892B21F48EED91E00E94191122
:101EE00020914F02309150028B819C812817390735
:101EF00019F080E090E009C090E08881882309F41F
:101F000091E081E09827892F9927DF91CF9108955B
:101F10000F931F93CF93DF93EC018B01892B21F457
:101F20008AE192E00E94191118821A8309831C82A7
:101F30001B82DF91CF911F910F910895CF93DF9373
:101F4000EC01892B21F488E092E00E94191188812C
:101F50008F3F21F480EF91E00E9419115FB7507814
:101F6000F8942B813C8180914F02909150024881DE
:101F70002817390719F44F5F48830AC0442361F4D6
:101F800081E0888380914F02909150029C838B83E3
:101F90008FB7582B5FBF06C08FB7582B5FBF0E940B
:101FA000E714DCCFDF91CF9108950F931F93CF9368
:101FB000DF93CDB7DEB761970FB6F894DEBF0FBEE3
:101FC000CDBF8C0141E150E0BC01CE0101960E94E1
:101FD0002529198A1F930F9389E292E09F938F938B
:101FE0000E94F61780E10E94901D1F930F930E949C
:101FF000491C8FE10E94901D60E070E083E00E9428
:10200000AC1D8DB79EB706960FB6F8949EBF0FBE57
:102010008DBFFFCF60E070E080E090E00E941F1A6B
:1020200060E672E08AE090E00E94CA190E94821B7A
:10203000E0E6F2E020E030E081913827032E0294C0
:10204000902D9F709327832F8025880F807E98275F
:10205000802D8327807F8695032E000C881F369560
:10206000369536953F7138273227292F82E0E8369A
:10207000F80711F740E050E0809168029091690202
:102080002817390711F441E050E0CA0108950E9471
:10209000E8161F9A80E09BE40E94AB178EEE91E059
:1020A00090932F0480932E0480E09BE49F938F9362
:1020B00089E392E09F938F930E94F6178EE492E05B
:1020C0009F938F930E94F6170E94801F0E943A0BE5
:1020D0000E9473170E94EE0A0E94D21E0E944E1E9A
:1020E00085E092E090932D0480932C040E94421787
:1020F0000E94E1200E94E3150E940A102DB73EB70E
:102100002A5F3F4F0FB6F8943EBF0FBE2DBF882306
:1021100021F48FED92E00E94D50F83E992E09F9326
:102120008F930E94F61780916002909161029C014A
:1021300030703F932F93892F99279F938F9388E631
:1021400092E09F938F930E94F61780916202909184
:1021500063029F938F9383E892E09F938F930E94F3
:10216000F61780916002909161029C0130703F935C
:102170002F93892F99279F938F938FE891E09F93B7
:102180008F930E94491C0E94B80B2DB73EB72E5E5C
:102190003F4F0FB6F8943EBF0FBE2DBF8C549D41EC
:1021A00020F483ED92E00E94D50F0E94B80B9F931C
:1021B0008F9385EA92E09F938F930E94F617609128
:1021C00066027091670280E091E00E9492180F9081
:1021D0000F900F900F90882321F486EC92E00E94DC
:1021E000D50F8091FF112091FE1199279F938F9316
:1021F00033273F932F9388EB92E09F938F930E9416
:10220000F6178FE10E94901D60E070E081E00E946F
:10221000AC1D1E9868EE73E080E793E00E94590BB6
:102220008DB79EB706960FB6F8949EBF0FBE8DBFB2
:102230000895CF93DF93CDB7DEB76A970FB6F894C2
:10224000DEBF0FBECDBFBC01F894892B41F04AE13F
:1022500050E0CE0101960E9425291A8E01C01982F4
:102260001092F0031092F4031092F303CE01019642
:102270009F938F938AEE92E09F938F930E940C1C02
:102280000E9499120F900F900F900F906A960FB6C0
:10229000F894DEBF0FBECDBFDF91CF910895CF93ED
:1022A000DF93EC01F8941092F0031092F403109273
:1022B000F3030E94731D209711F4C3EBD1E0DF9369
:1022C000CF9385EF92E09F938F930E940C1C0E9406
:1022D00099120F900F900F900F90DF91CF9108956A
:1022E00083E085BD83E884BD86B7806486BF87B7F9
:1022F000806487BF08952FB7F89460915102709160
:10230000520280915302909154023FB72078232BC0
:102310002FBF0895EF92FF920F931F932FB7F8945A
:102320006091510270915202809153029091540237
:1023300044B53FB72078232B2FBF242F33272358B2
:10234000304079010027F7FC0095102F2DE730E091
:1023500040E050E00E948C2CE60EF71E081F191F6B
:1023600083E0EE0CFF1C001F111F8A95D1F7C801F6
:10237000B7011F910F91FF90EF9008959C01F89481
:10238000E9EEF2E08081833039F48285938582170B
:10239000930711F481E08083BA9683E0E53EF80765
:1023A00089F77894089577278CE291E0689F9001EF
:1023B000699F300D789F300D112487EB9FE0821BC1
:1023C000930B0895AF92BF92CF92DF92FF920F933B
:1023D0001F93CF93DF93FFB6F89487E493E09F9326
:1023E0008F930E94F6170FEB12E0C0E0D0E00F9041
:1023F0000F9020E0A22E23E0B22E99E2C92E93E0A6
:10240000D92EF8012081222359F4DF93CF93DF9254
:10241000CF920E94F6170F900F900F900F901EC052
:10242000F80182819381A481B58133274485558544
:10243000BF93AF939F938F933F932F935F934F934C
:10244000DF93CF93BF92AF920E94F6178DB79EB7DE
:102450000C960FB6F8949EBF0FBE8DBF2196065DF9
:102460001F4FC730D10569F68FB790E8F922F82AD7
:10247000FFBEDF91CF911F910F91FF90DF90CF9022
:10248000BF90AF9008950F931F938C018BEA93E058
:102490009F938F930E94F61787E993E09F938F9302
:1024A0000E94F617F80180899189AA27BB27BF935C
:1024B000AF939F938F9389E893E09F938F930E94AC
:1024C000F617F80182899389AA27BB27BF93AF9398
:1024D0009F938F938BE793E09F938F930E94F617C0
:1024E000F80184899927AA27BB27BF93AF939F93AD
:1024F0008F938DE693E09F938F930E94F617F801D8
:1025000085899689AA27BB27BF93AF939F938F9303
:102510008FE593E09F938F930E94F6178DB79EB738
:102520004C960FB6F8949EBF0FBE8DBF1F910F91B2
:102530000895CF93DF93F89410929202109296022E
:1025400010929502C0E0D0E08C2F0E94A50A21963F
:10255000C630D105C9F7FFCF0F931F93CF93DF93F9
:102560008C016FB7F894EFEBF2E040E050E080812F
:10257000882359F04F5F5F4FBA9647305105B9F73E
:102580008DEB93E00E941911FFCF8AE290E0489F03
:10259000D001499FB00D589FB00D1124AD55BD4FCE
:1025A00081E0ED018C8F39A728A7FD01168E178ECB
:1025B00010A211A22CE231E0328F218F87E1199213
:1025C0008A95E9F7842F9927F9018E9F90018F9FB3
:1025D000300D9E9F300D1124E7EBFFE0E21BF30B63
:1025E00022E135E120833197232F33272083319750
:1025F000ED01FB8BEA8B1E8B0D8B2C8920682C8BBD
:102600002FB76078622B6FBFDF91CF911F910F9131
:1026100008950F931F93CF93DF93EC010FEB12E01C
:102620008091BF02813009F44BC083EB94E09F930B
:102630008F930E94F6178091510290915202A091BF
:102640005302B0915402BF93AF939F938F938BEA41
:1026500094E09F938F930E94F6170C5110401F93A4
:102660000F93045E1F4F89E994E09F938F930E941C
:10267000F6171F930F938DE794E09F938F930E941B
:10268000F61780912F029091300220912D02309107
:102690002E029F938F933F932F9387E694E09F930F
:1026A0008F930E94F6178FE594E00E9419114DB7A1
:1026B0005EB74A5E5F4F0FB6F8945EBF0FBE4DBF68
:1026C0008B8D99272CE231E0A901849F9001859F91
:1026D000300D949F300D112487EB9FE0821B930BEC
:1026E0002A893B898217930720F486E594E00E94AB
:1026F00019118F89988D2A893B89821B930B298D0B
:102700003A8D2817390708F04DC085E494E09F936F
:102710008F930E94F6174A895B898B8D992728A58C
:1027200039A55F934F939F938F933F932F938BE2A2
:1027300094E09F938F930E94F617CE010E9443125C
:102740008D899E899F938F9381E294E09F938F93CD
:102750000E94F6178F89988D9F938F9383E194E061
:102760009F938F930E94F6174F89588DCA01019647
:10277000298D3A8D821B930B5F934F939F938F9379
:1027800089EF93E09F938F930E94F6178AEE93E070
:102790000E9419118DB79EB748960FB6F8949EBF48
:1027A0000FBE8DBFDF91CF911F910F910895909330
:1027B000500280934F020E940913E0914F02F09162
:1027C0005002868D978DA0A1B1A10196A11DB11DCA
:1027D000868F978FA0A3B1A361E070E0CF010E9424
:1027E0000429AF92BF92CF92DF92EF92FF920F93A4
:1027F0001F93CF93DF93E0914F02F09150023097F7
:1028000019F4AA24BB2403C0838DA82EBB24F1E0B5
:10281000EF2EF12CEAE2CE2ED12CAC9C8001AD9CA7
:10282000100DBC9C100D11240D551D4FC7018A0DB4
:102830009B1D67E070E00E94AB2CEC01009709F44F
:1028400048C08C9DF0018D9DF00D9C9DF00D1124D4
:10285000ED55FD4F848D8430B1F4209151023091BB
:102860005202409153025091540282A193A1A4A11B
:10287000B5A1281739074A075B0728F081E0848F44
:10288000CF010E94D713CC9DF001CD9DF00DDC9DB2
:10289000F00D1124ED55FD4F848D8130B9F0E80124
:1028A0008C8D8430B1F420915102309152024091CC
:1028B0005302509154028AA19BA1ACA1BDA128173B
:1028C00039074A075B0728F081E08C8FCF010E940F
:1028D000D7130894E11CF11CE8E0EE16F10409F0AE
:1028E000A5CF8091BF02813021F483EA92E00E945B
:1028F000D713F8940FEB12E0C0E0D0E074E0A72EFD
:1029000075E0B72E62EDC62E64E0D62E55E2E52EB8
:1029100055E0F52EF8018081882359F4DF93CF9399
:10292000FF92EF920E94F6170F900F900F900F906A
:1029300020C09927F801248535859F938F933F9375
:102940002F93DF93CF93BF92AF920E94F6178DB76C
:102950009EB708960FB6F8949EBF0FBE8DBFF801C4
:102960008081813031F4DF92CF920E94F6170F9070
:102970000F902196065D1F4FC730D10559F689EC9F
:1029800094E00E941911DF91CF911F910F91FF9058
:10299000EF90DF90CF90BF90AF90089580914F025D
:1029A00090915002892B21F488ED93E00E94191137
:1029B00080914F02909150020E94E428892B31F4BB
:1029C00061E070E089EC93E00E9404290895F89496
:1029D0001F920F922F933F934F935F936F937F9329
:1029E0008F939F93AF93BF93EF93FF9380914F0289
:1029F00090915002892B21F482ED93E00E941911ED
:102A00000E94CE14FF91EF91BF91AF919F918F9152
:102A10007F916F915F914F913F912F910F901F90F8
:102A2000789408950E94E714FDCFCF93DF93EC01D3
:102A3000F89480914F0290915002892B21F48CECF4
:102A400093E00E941911E0914F02F0915002D7A338
:102A5000C6A383E0848F0E94E714DF91CF9108958D
:102A60009B01AC010FB607FC03C00E946F180895CC
:102A7000F894E0914F02F091500284E0848F8091AD
:102A8000510290915202A0915302B0915402E091F0
:102A90004F02F0915002820F931FA41FB51F82A313
:102AA00093A3A4A3B5A30E94E71408950E94E21182
:102AB00068EB7BE080E090E00E943015F7CF0E9449
:102AC000E714FDCFCF92DF92EF92FF920F931F9307
:102AD000CF93DF9303EA12E01F930F938CE795E007
:102AE0009F938F930E94F61789EC93E09F938F93A7
:102AF00084E695E09F938F930E94F617E80120E00B
:102B000030E007EB1FE08DB79EB708960FB6F8943C
:102B10009EBF0FBE8DBFADE4CA2EA5E0DA2E2B8F6F
:102B20001C8EC801188F0F8B1E8E1F8E18A219A223
:102B300079010894E11CF11C0C5211401F930F9372
:102B40009F938F933F932F93DF92CF920E94F6171C
:102B5000AA968DB79EB708960FB6F8949EBF0FBE83
:102B60008DBF97E0E916F10411F09701D8CF24EB5F
:102B700031E040E060E071E08FE595E10E94AC1249
:102B80008091BF02882321F483E495E00E9419110B
:102B900089EC93E00E94E4288FEF90E19093DC03AE
:102BA0008093DB0381EF93E19093DF038093DE0357
:102BB0000E947011DF91CF911F910F91FF90EF90C4
:102BC000DF90CF90089508951F920F920FB60F9245
:102BD00011242F933F934F935F936F937F938F9322
:102BE0009F93AF93BF93EF93FF9389EB91E00E9484
:102BF0001911FF91EF91BF91AF919F918F917F91AB
:102C00006F915F914F913F912F910F900FBE0F9059
:102C10001F9018951F920F920FB60F9211242F93A9
:102C20003F934F935F936F937F938F939F93AF9354
:102C3000BF93EF93FF9383E884BD809151029091FD
:102C40005202A0915302B09154020196A11DB11DF0
:102C50008093510290935202A0935302B093540276
:102C60000E94CE14FF91EF91BF91AF919F918F91F0
:102C70007F916F915F914F913F912F910F900FBE78
:102C80000F901F901895CF92DF92EF92FF920F93C3
:102C90001F93CF93DF93CDB7DEB722970FB6F8948B
:102CA000DEBF0FBECDBF8E01035F1F4FF801E19065
:102CB000F1908F0180EFC82E83E0D82EC6010E94CC
:102CC0009E0F1A830983A801B70185E092E00E9454
:102CD00081238C01C6010E94380FC80122960FB6CD
:102CE000F894DEBF0FBECDBFDF91CF911F910F9142
:102CF000FF90EF90DF90CF900895CF92DF92EF9208
:102D0000FF920F931F93CF93DF938C01F62E8FEBDF
:102D100095E09F938F930E94F61789EA95E09F9321
:102D20008F930E94F617E80100E010E00F900F90DB
:102D30000F900F90EF2CFF2496E9C92E95E0D92E25
:102D400017C0888199279F938F93DF93CF931F9309
:102D50000F93DF92CF920E94F6170F5F1F4F2196BD
:102D60008DB79EB708960FB6F8949EBF0FBE8DBF65
:102D70000E151F0531F7DF91CF911F910F91FF9035
:102D8000EF90DF90CF900895CF93DF93EC01892BE4
:102D9000D1F00E94731DDF93CF938BEC91E09F9352
:102DA0008F930E94491CDF93CF938EEC91E09F9309
:102DB0008F930E9433188DB79EB708960FB6F8947C
:102DC0009EBF0FBE8DBF0E94AD0BDF91CF910895C6
:102DD00085B7806885BFECE6F0E080818F778083DF
:102DE000EDE6F0E080818D7F808385B78F7B85BFA6
:102DF00083EF87BBC69A8CEF81BB8EEC82B983B11F
:102E0000806383B98DE08093610010926400E2E6F4
:102E1000F0E08081846080831A9AC09A808181600A
:102E200080831B9A0895EF92FF920F931F93CF9385
:102E3000DF938C017B01EA0180EE93E00E949E0FFC
:102E40000795002707950E29006407B987ED86B915
:102E5000349BFECF349A24B185B19927982F8827C7
:102E60003327822B932B9983888380EE93E00E94F3
:102E7000380F80E090E0DF91CF911F910F91FF908C
:102E8000EF90089562ED71E080EE93E00E94880F6C
:102E9000089560659C0136952795622B6DB980FF7A
:102EA00002C0709A01C0709887B3876087BB08958D
:102EB000FC0190E007C080818FB9779BFECF8FB176
:102EC00081939F5F9617B9F780E090E0089585EEB3
:102ED00093E00E94380F089585EE93E00E949E0FC4
:102EE00080E090E008956BED71E085EE93E00E9444
:102EF000880F08951E9A5D9BFECF8CB91E98992766
:102F000087FD909508951F93182F8A3019F48DE04E
:102F10000E948317812F0E947A171F910895CF93E3
:102F2000DF93EC0103C021960E947A1788818823E1
:102F3000D1F7DF91CF9108951E9A5F9BFECF1E9827
:102F40008CB1992787FD909508958BB1807899274A
:102F500087FD909508959C014427552794E0220F02
:102F6000331F441F551F9A95D1F760E072E18AE73D
:102F700090E00E94BE2C822F815089B921503040B0
:102F800040405040232F342F452F55272093900049
:102F90001BB886E08093950088E18AB964EE71E001
:102FA0008AEE93E00E94880F0895CF92DF92EF920D
:102FB000FF920F931F936C018B012AEEE22E23E008
:102FC000F22EC7010E949E0FA801B6018EEE91E07D
:102FD0000E9476298C01C7010E94380FC8011F91F9
:102FE0000F91FF90EF90DF90CF900895CF93DF93F4
:102FF000CDB7DEB722970FB6F894DEBF0FBECDBFB8
:10300000FE01379681919191FA83E983BF010E9475
:10301000D51722960FB6F894DEBF0FBECDBFDF9155
:10302000CF910895CF92DF92EF92FF920F931F936B
:103030006C018B013AEEE32E33E0F32EC7010E94C0
:103040009E0FA801B6018EEE91E00E9481238C01B3
:10305000C7010E94380FC8011F910F91FF90EF9098
:10306000DF90CF900895CF93DF93CDB7DEB722974F
:103070000FB6F894DEBF0FBECDBFFE01379681912B
:103080009191FA83E983BF010E94121822960FB62C
:10309000F894DEBF0FBECDBFDF91CF9108959B01A5
:1030A000AC0107C080E08A95F1F7205630404040DF
:1030B00050402136310541055105A0F7CA01B9013B
:1030C00020E032E14AE750E00E948C2C20EC36EC04
:1030D0004DE250E00E94BE2C2A95F1F708959B0125
:1030E000AC0108C080E09AEF0197F1F72052304020
:1030F00040405040213231054105510598F7CA0141
:10310000B90120E032E14AE750E00E948C2C20EA2D
:103110003FE040E050E00E94BE2CDA01C901019777
:10312000F1F708959F92AF92BF92CF92DF92EF9204
:10313000FF920F931F93CF93DF93CDB7DEB72897FE
:103140000FB6F894DEBF0FBECDBF6B017C01002728
:103150001127C801B7010E941F1A8F3FD1F3C698EB
:1031600064E670E080E090E00E944F18C69A00E0AC
:1031700010E07E010894E11CF11C49E0A42EB12C62
:10318000AC0EBD1E3DC00E949419682F0F5F1F4FEB
:10319000807C803C19F09924939408C03FE3932EDF
:1031A00096220E949419682F0F5F1F4F40E050E055
:1031B000F701E40FF51F27E030E0241B350B81E019
:1031C00090E002C0880F991F2A95E2F7862380833A
:1031D0004F5F5F4F4830510559F790E00DC0808137
:1031E000882311F0C59A01C0C598C79AC79831962F
:1031F000EA15FB05A1F79F5F991511F0F701EFCFD5
:103200000C151D0508F4BFCF0E94821B809163003E
:10321000992723E0969587952A95E1F7817090701C
:1032200028960FB6F894DEBF0FBECDBFDF91CF91C9
:103230001F910F91FF90EF90DF90CF90BF90AF90D4
:103240009F900895CF92DF92EF92FF920F931F937A
:10325000CF93DF93CDB7DEB723970FB6F894DEBFD9
:103260000FBECDBF8C017B016A010E946C178F3F9E
:1032700019F48FEF9FEF49C08E2D880F880F80645F
:10328000898360E082E090E00E94491701301105D7
:1032900049F00130110520F00230110551F404C04D
:1032A0001A9807C0C09805C0809162008E7F8093F5
:1032B000620063E0CE0101960E94581701301105AB
:1032C00049F00130110520F00230110551F404C01D
:1032D0001A9A07C0C09A05C08091620081608093ED
:1032E00062008A819927982F88272B813327822B88
:1032F000932B26E0969587952A95E1F7F601918321
:1033000080830E94671780E090E023960FB6F894C0
:10331000DEBF0FBECDBFDF91CF911F910F91FF9008
:10332000EF90DF90CF900895EF92FF921F93CF938D
:10333000DF93CDB7DEB722970FB6F894DEBF0FBE8E
:10334000CDBF61E0CE0101960E9458178091EF0336
:103350008F3F69F410E082E0E82EF12CEC0EFD1EA8
:1033600061E0C7010E9458171F5F1830C9F78091AC
:10337000EF038F5F8093EF038981992722960FB621
:10338000F894DEBF0FBECDBFDF91CF911F91FF90AC
:10339000EF900895EF92FF920F931F93CF93DF93D7
:1033A0007C018B01C0E0D0E007C00E949419F801B5
:1033B000EC0FFD1F80832196CE15DF05B1F780E06D
:1033C00090E0DF91CF911F910F91FF90EF900895C2
:1033D0000F931F93CF93DF93CDB7DEB721970FB62F
:1033E000F894DEBF0FBECDBF87ED89838091620068
:1033F0008B7F8093620061E08E010F5F1F4FC801D9
:103400000E94581761E0C8010E945817898187FF00
:10341000F9CF8091620084608093620061E070E087
:1034200080E090E00E944F1821960FB6F894DEBF1E
:103430000FBECDBFDF91CF911F910F910895EF92F5
:10344000FF920F931F93CF93DF93CDB7DEB72497EF
:103450000FB6F894DEBF0FBECDBF7B018C010E947A
:103460006C178F3F19F48FEF9FEF2EC060E081E063
:1034700090E00E94491788EE8983D801C7012FE0A8
:10348000B695A795979587952A95D1F78A83BB27F7
:10349000A12F902F8F2D880F8B83E092EF03EC826A
:1034A0000E94E819809162008B7F8093620064E043
:1034B0008E010F5F1F4FC8010E94581764E0C801BA
:1034C0000E94581780E090E024960FB6F894DEBF73
:1034D0000FBECDBFDF91CF911F910F91FF90EF9065
:1034E00008958F929F92AF92BF92CF92DF92EF9208
:1034F000FF920F931F93CF93DF93CDB7DEB724973F
:103500000FB6F894DEBF0FBECDBF6B017C014A0140
:1035100059010E946C178F3F19F42FEF3FEF44C001
:1035200060E081E090E00E94491784E889831A8274
:103530001B821C2DCC82809162008B7F8093620065
:1035400064E07E010894E11CF11CC7010E94581739
:10355000212F3327C501820F931F8150914028F0FE
:10356000A12C41E0B42EA21AB30A00E010E00BC077
:10357000F401E00FF11F8081898361E0C7010E949F
:1035800058170F5F1F4F0A151B0591F780916200B6
:1035900084608093620061E070E080E090E00E94CF
:1035A0004F180E9467179501C90124960FB6F89429
:1035B000DEBF0FBECDBFDF91CF911F910F91FF9066
:1035C000EF90DF90CF90BF90AF909F908F90089535
:1035D000EF92FF920F931F93CF93DF93CDB7DEB798
:1035E00024970FB6F894DEBF0FBECDBF7B018C01D0
:1035F0000E946C178F3F19F48FEF9FEF33C060E08C
:1036000081E090E00E94491783E88983D801C701CF
:103610006FE0B695A795979587956A95D1F78A83B8
:10362000BB27A12F902F8F2D880F8B831C820E9488
:10363000E819809162008B7F8093620064E0CE0184
:1036400001960E9458178091620084608093620006
:1036500061E070E080E090E00E944F180E946717E0
:1036600080E090E024960FB6F894DEBF0FBECDBF89
:10367000DF91CF911F910F91FF90EF9008950F93DD
:103680001F93CF93DF93CDB7DEB722970FB6F89491
:10369000DEBF0FBECDBF8C0187ED89831A820E94E9
:1036A0006C178F3F19F48FEF9FEF21C060E081E02E
:1036B00090E00E944917809162008B7F80936200A6
:1036C00062E0CE0101960E945817809162008460EA
:1036D0008093620061E070E080E090E00E944F180B
:1036E0000E9467178A81F801808380E090E022962B
:1036F0000FB6F894DEBF0FBECDBFDF91CF911F9103
:103700000F910895E2E6F0E080818460808361E0BB
:1037100070E080E090E00E944F180E9467170895C3
:10372000EF92FF920F931F93CF93DF93CDB7DEB746
:1037300024970FB6F894DEBF0FBECDBF7B018C017E
:103740000E946C178F3F19F48FEF9FEF33C060E03A
:1037500081E090E00E94491783E58983D801C70181
:10376000EFE0B695A79597958795EA95D1F78A8367
:10377000BB27A12F902F8F2D880F8B831C820E9437
:10378000E819809162008B7F8093620064E0CE0133
:1037900001960E94581780916200846080936200B5
:1037A00061E070E080E090E00E944F180E9467178F
:1037B00080E090E024960FB6F894DEBF0FBECDBF38
:1037C000DF91CF911F910F91FF90EF90089580911D
:1037D000550299270895CF92DF92EF92FF920F93AF
:1037E0001F936C018B0180EFE82E83E0F82EC70158
:1037F0000E949E0FA801B60185E092E00E94762902
:103800008C01C7010E94380FC8011F910F91FF90D2
:10381000EF90DF90CF900895CF93DF93CDB7DEB7D1
:1038200022970FB6F894DEBF0FBECDBFFE013796CC
:1038300081919191FA83E983BF010E94EB1B22964B
:103840000FB6F894DEBF0FBECDBFDF91CF910895C4
:10385000CF92DF92EF92FF920F931F936C018B0137
:1038600090EFE92E93E0F92EC7010E949E0FA80168
:10387000B60185E092E00E9481238C01C7010E947D
:10388000380FC8011F910F91FF90EF90DF90CF90FC
:103890000895CF93DF93CDB7DEB722970FB6F89494
:1038A000DEBF0FBECDBFFE01379681919191FA83A5
:1038B000E983BF010E94281C22960FB6F894DEBF50
:1038C0000FBECDBFDF91CF9108950F931F93082FA7
:1038D000162F80EF93E00E949E0F912F92959F707C
:1038E000002329F0979A82B38370806C04C0979864
:1038F00082B383708064990F990F982B92BB60E616
:1039000070E080E090E00E944F1860E670E080E098
:1039100090E00E944F1860E670E080E090E00E9426
:103920004F1860E670E080E090E00E944F1860E67B
:1039300070E080E090E00E944F1860E670E080E068
:1039400090E00E944F1860E670E080E090E00E94F6
:103950004F1860E670E080E090E00E944F1860E34E
:1039600070E080E090E00E944F18969860E670E06A
:1039700080E090E00E944F1860E670E080E090E008
:103980000E944F1860E670E080E090E00E944F18BF
:1039900060E670E080E090E00E944F1860E670E022
:1039A00080E090E00E944F1860E670E080E090E0D8
:1039B0000E944F1860E670E080E090E00E944F188F
:1039C00060E670E080E090E00E944F1860E370E0F5
:1039D00080E090E00E944F18612F7727002321F0AC
:1039E00082B38370806C03C082B3837080646F7015
:1039F0007070660F771F660F771F862B82BB60E69D
:103A000070E080E090E00E944F1860E670E080E097
:103A100090E00E944F1860E670E080E090E00E9425
:103A20004F1860E670E080E090E00E944F1860E67A
:103A300070E080E090E00E944F1860E670E080E067
:103A400090E00E944F1860E670E080E090E00E94F5
:103A50004F1860E670E080E090E00E944F1860E34D
:103A600070E080E090E00E944F18969860E670E069
:103A700080E090E00E944F1860E670E080E090E007
:103A80000E944F1860E670E080E090E00E944F18BE
:103A900060E670E080E090E00E944F1860E670E021
:103AA00080E090E00E944F1860E670E080E090E0D7
:103AB0000E944F1860E670E080E090E00E944F188E
:103AC00060E670E080E090E00E944F1860E370E0F4
:103AD00080E090E00E944F1880EF93E00E94380F42
:103AE0001F910F91089580EF93E00E949E0F61E077
:103AF00080E00E94651C62E080E00E94651CE5EFAA
:103B0000F3E080E2819384E0E531F807D1F7109289
:103B100055021092560280EF93E00E94380F0895EC
:103B20001F93182F80EF93E00E949E0F1093550271
:103B300080915602181751F010935602103108F078
:103B4000105D1068612F80E00E94651C80EF93E09B
:103B50000E94380F1F9108951F93182F80EF93E054
:103B60000E949E0F80915702882321F00E94731DAE
:103B70001092570280915502803211F41092550232
:103B80001A3021F481E08093570224C090915502AD
:103B9000903119F48FEF80935602E92FFF27EB50F5
:103BA000FC4F8081811789F010838091560289171C
:103BB00019F0892F0E94901D612F81E00E94651CE1
:103BC000809156028F5F80935602809155028F5FDD
:103BD0008093550280EF93E00E94380F812F992740
:103BE00087FD90951F9108950F931F93CF93DF93B7
:103BF0008C0180EF93E00E949E0FE8011AC06A30AA
:103C000039F460E880E00E94651C1092550203C000
:103C100081E00E94651C9E01201B2F3021F460EC86
:103C200080E00E94651C809155028F5F8093550251
:103C300021966881662319F780EF93E00E94380F80
:103C4000DF91CF911F910F910895FF920F931F93D2
:103C5000CF93DF93F82E8B0180EF93E00E949E0FAD
:103C6000FF0CFF0CFF0CE80100E0602F6F0D60649B
:103C700080E00E94651CFE01649181E00E94651C49
:103C80000F5F2196083089F780EF93E00E94380F8C
:103C9000DF91CF911F910F91FF90089564E670E03E
:103CA00080E090E00E946F1863E380E00E94651C52
:103CB00062E380E00E94651C65ED75E081E00E9492
:103CC000251E6DED75E082E00E94251E65EE75E013
:103CD00083E00E94251E6DEE75E084E00E94251EA3
:103CE00065EF75E085E00E94251E6DEF75E086E0CA
:103CF0000E94251E61E080E00E94651C62E080E079
:103D00000E94651CE5EFF3E080E2819384E0E531F9
:103D1000F807D1F766E080E00E94651C6CE080E067
:103D20000E94651C6CEF71E080EF93E00E94880FA9
:103D300008950895CF92DF92EF92FF920F931F9311
:103D4000082F7B0195E1C92E94E0D92EC6010E946F
:103D50009E0F000F005E112700501F4EF801E192E8
:103D6000EF2CFF24E082C6010E94380F1F910F91B3
:103D7000FF90EF90DF90CF9008951F93182F882722
:103D800099270E94252B21E632EC44E85FE30E944C
:103D9000292C0E94F52A6F5B7F4F812F0E949A1E6B
:103DA0001F91089563E172E085E194E00E94880F1D
:103DB0000895CF92DF92EF92FF920F931F93CF93CC
:103DC000DF93CDB7DEB722970FB6F894DEBF0FBEF4
:103DD000CDBF982F88508830E0F406C0C7010E94FC
:103DE00019110E94E7140CC007E110E0091B11092A
:103DF0006E010894C11CD11C9EE1E92E96E0F92EBB
:103E0000A601B80181E090E00E942219882331F7D1
:103E100024C0892F8051883038F01BC0C7010E9410
:103E200019110E94E7140CC00FE110E0091B1109E1
:103E30006E010894C11CD11C81E1E82E86E0F82EA9
:103E4000A601B80182E090E00E942219882331F790
:103E500004C085E096E00E94191189819A8122961A
:103E60000FB6F894DEBF0FBECDBFDF91CF911F918B
:103E70000F91FF90EF90DF90CF900895EF92FF9217
:103E80001F938AE1E82E84E0F82EC7010E949E0F5E
:103E900010911E11C7010E94380F1095812F99278C
:103EA0001F91FF90EF9008951F93182F8830A8F46A
:103EB0008AE194E00E949E0F80911E1199278095BF
:103EC000909502C0959587951A95E2F7182F117075
:103ED0008AE194E00E94380F0FC0883140F40E94BC
:103EE000D91E10E08150924038F011E005C08BE2FD
:103EF00096E00E94191110E0812F99271F910895D3
:103F00006EE172E08AE194E00E94880F0895E2E693
:103F1000F0E08081877F808366E970E080E090E058
:103F20000E944F186EE080E00E94DD2208950F93FA
:103F30001F9302E610E0F8018081877F808366E9A5
:103F400070E080E090E00E944F186FE080E00E94F7
:103F5000DD22F80180818860808366E970E080E07E
:103F600090E00E944F181F910F910895CF92DF9219
:103F7000FF920F931F93CF93DF936C018B01EA01A4
:103F8000F22E0E94971F87E00E945823982F969543
:103F90009770988386FD04C0973011F4FF2099F73D
:103FA000892F99279F938F9386E496E09F938F9311
:103FB0000E94F61748810F900F900F900F90463097
:103FC00030F5842F8F5E0E945823F8018083992753
:103FD0009F938F9388E396E09F938F930E94F617A9
:103FE000F80160810F900F900F900F90613218F0E0
:103FF0000E94F8210CC0662351F0C6010E944222A3
:1040000060E487E00E94DD2281E090E002C080E071
:1040100090E0DF91CF911F910F91FF90DF90CF90B3
:104020000895CF93DF93CDB7DEB721970FB6F894FD
:10403000DEBF0FBECDBF20E0AE014F5F5F4F0E94DD
:10404000B61F992721960FB6F894DEBF0FBECDBFDD
:10405000DF91CF910895DF92EF92FF920F931F931C
:10406000F82E8B01E42E0E94871F8AE00E945823BD
:10407000D82E6F2D8AE00E94DD226F2D80E10E94F4
:10408000DD226E2DC8010E949A2180916200886015
:104090008093620064E170E080E090E00E944F183D
:1040A00080916200877F8093620002C00E94E714C3
:1040B00087E00E945823082FE82EFF24C701807351
:1040C0009070892B99F3FF92EF9285E596E09F938C
:1040D0008F930E94F6170073602F87E00E94DD2205
:1040E0006D2D8AE00E94DD220E941D220E94971FF2
:1040F00085E0F694E7948A95E1F70F900F900F9082
:104100000F90C701817090701F910F91FF90EF90F9
:10411000DF900895DF92EF92FF920F931F93CF935A
:10412000DF93D82E7B01042F10E0C42FDD2710C0B1
:10413000612F7727AE01461B570B4132510514F012
:1041400040E250E06E0D7F1D8D2D0E942B20105EF1
:10415000101770F381E090E0DF91CF911F910F91E4
:10416000FF90EF90DF9008950F931F930E94871F99
:1041700066EB86E00E94DD2266E970E080E090E078
:104180000E944F1802E610E0F80180818860808369
:1041900064E670E080E090E00E946F18F801808192
:1041A000877F808366E970E080E090E00E944F188E
:1041B00066E286E00E94DD220E94971F1F910F9108
:1041C00008950F931F93CF93DF93CDB7DEB7239757
:1041D0000FB6F894DEBF0FBECDBF90911F04E92F3C
:1041E000FF27EA5BFE4F80819F5F8823C1F79150D4
:1041F00090931F049F5F20E030E040E008C0F90189
:10420000E15EFB4FD901AB5BBE4F8C9180832F5F8A
:104210003F4F4F5F491799F764E670E080E090E008
:104220000E946F1863E080E00E94DD2265E070E08C
:1042300080E090E00E946F1801E010E0B80100906B
:104240001F0402C0660F771F0A94E2F7615081E0F5
:104250000E94DD2261E083E00E94DD226FE184E0C4
:104260000E94DD2262E085E00E94DD2266E286E0B7
:104270000E94DD2264E08DE10E94DD2200901F0497
:1042800002C0000F111F0A94E2F70150602F8CE169
:104290000E94DD2280912004898380E78A8382E660
:1042A0008B8343E08E010F5F1F4FB8018AE00E94AD
:1042B000A12280911F04823040F0809121048983E3
:1042C00043E0B8018BE00E94A12200E010E008C0AA
:1042D000FF27E05EFB4F6081802F855F0E94DD221B
:1042E000E02FEE5F0F5F1F4F80911F04E81780F3F0
:1042F000198243E0BE016F5F7F4F80E10E94A122DF
:1043000061E070E000901F0402C0660F771F0A94FE
:10431000E2F7615082E00E94DD220E94971F2396FF
:104320000FB6F894DEBF0FBECDBFDF91CF911F91C6
:104330000F910895FF920F931F93CF93DF93CDB703
:10434000DEB729970FB6F894DEBF0FBECDBF8C0144
:10435000F62E0E946C1780EA8983D801FE013196FF
:1043600090E004C08D9181839F5F31969F15D1F7B6
:1043700060E082E090E00E9449171B98F3946F2D53
:10438000CE0101960E9458171B9A0E946717299622
:104390000FB6F894DEBF0FBECDBFDF91CF911F9156
:1043A0000F91FF900895CF93DF93CDB7DEB721979C
:1043B0000FB6F894DEBF0FBECDBF0E946C1783EE20
:1043C000898360E082E090E00E9449171B9861E0D9
:1043D000CE0101960E9458171B9A0E9467172196DA
:1043E0000FB6F894DEBF0FBECDBFDF91CF91089519
:1043F000CF93DF93CDB7DEB721970FB6F894DEBF2A
:104400000FBECDBF0E946C1782EE898360E082E010
:1044100090E00E9449171B9861E0CE0101960E942E
:1044200058171B9A0E94671721960FB6F894DEBFA3
:104430000FBECDBFDF91CF910895CF93DF93CDB75E
:10444000DEB721970FB6F894DEBF0FBECDBF0E9436
:104450006C1781EE898360E082E090E00E9449174A
:104460001B9861E0CE0101960E9458171B9A0E948A
:10447000671721960FB6F894DEBF0FBECDBFDF9150
:10448000CF910895FF920F931F93CF93DF93CDB7F2
:10449000DEB729970FB6F894DEBF0FBECDBF8C01F3
:1044A000F62E0E946C1781E6898360E082E090E03E
:1044B0000E9449171B986F2D6F5FCE0101960E94D5
:1044C00058171B9A0E946717DE011296F80190E0B8
:1044D00003C08D9181939F5F9F15D9F729960FB6E1
:1044E000F894DEBF0FBECDBFDF91CF911F910F912A
:1044F000FF900895CF93DF93CDB7DEB722970FB625
:10450000F894DEBF0FBECDBF0E946C1780E6898392
:1045100060E082E090E00E9449171B9862E0CE01C3
:1045200001960E9458171B9A0E9467178A81992743
:1045300022960FB6F894DEBF0FBECDBFDF91CF91AC
:104540000895EF92FF920F931F93CF93DF93CDB710
:10455000DEB726970FB6F894DEBF0FBECDBF182F7B
:104560007B01042F0E946C1710621983D701FE0192
:10457000319690E004C08D9181839F5F31969017B2
:10458000D1F760E082E090E00E9449171B980F5F2E
:10459000602FCE0101960E9458171B9A0E94671740
:1045A00026960FB6F894DEBF0FBECDBFDF91CF9138
:1045B0001F910F91FF90EF9008950F931F93CF934A
:1045C000DF93CDB7DEB722970FB6F894DEBF0FBEEC
:1045D000CDBF182F062F0E946C17106219830A8313
:1045E00060E082E090E00E9449171B9862E0CE01F3
:1045F00001960E9458171B9A0E94671722960FB6C1
:10460000F894DEBF0FBECDBFDF91CF911F910F9108
:1046100008950E946C1760E081E00E94DD2261E055
:1046200082E00E94DD2267E081E10E94DD226BE0F2
:1046300080E00E94DD220E9467170895EF92FF92AA
:104640000F931F93CF93DF93CDB7DEB726970FB6A7
:10465000F894DEBF0FBECDBF182F7B01042F0E9440
:104660006C17198360E082E090E00E9449171B9864
:10467000602F6F5FCE0101960E9458171B9A0E940F
:104680006717DE011296F70190E003C08D918193C8
:104690009F5F9017D9F726960FB6F894DEBF0FBE2E
:1046A000CDBFDF91CF911F910F91FF90EF900895B3
:1046B0001F93CF93DF93CDB7DEB722970FB6F89451
:1046C000DEBF0FBECDBF182F0E946C17198360E0AC
:1046D00082E090E00E9449171B9862E0CE010196AB
:1046E0000E9458171B9A0E9467178A819927229661
:1046F0000FB6F894DEBF0FBECDBFDF91CF911F91F3
:104700000895A1E1B0E0E7E8F3E20C94FB2C3C0152
:104710007F876E876A01FC0117821682838181FD83
:1047200003C06FEF7FEF71C39E012F5F3F4F398B47
:10473000288BF3012381EE85FF8523FD859123FFDF
:104740008191FF87EE87882309F45CC3853251F499
:10475000EE85FF8523FD859123FF8191FF87EE87FD
:10476000853229F490E0B3010E944A29E2CF982FC4
:1047700010E0882499241032B0F49B3269F09C3206
:1047800028F4903251F0933271F40BC09D3239F01D
:10479000903349F4116028C01260146025C018607D
:1047A00023C0106121C017FD2AC0892F80538A3091
:1047B00078F416FF06C0FAE09F9E902C1124980E04
:1047C00013C03AE0839E802C1124880E10620CC026
:1047D0009E3221F416FD16C3106406C09C3611F4F7
:1047E000106802C0983659F4EE85FF8523FD959137
:1047F00023FF9191FF87EE87992309F0BCCF892F82
:104800008554833020F4812F8061905E07C0892F0A
:104810008556833008F0A1C1812F8F7E86FD02C0AE
:1048200076E0972E6FE3F62EF822953619F4F0E431
:10483000FF2A07C0963619F420E8F22A02C0911028
:104840009A94F7FE0BC03BE3391520F427E05CE3B4
:10485000B52E0EC0B92CB39427E00AC047E0491525
:1048600028F427E0BB2447E0942E02C0292DBB2466
:10487000C60104969D878C87F601608171818281D3
:104880009381AE014F5F5F4F0B2D0E940C286C018E
:104890000981202E332400FF04C003FD02C01DE265
:1048A00009C0F1FE02C01BE205C0F2FC02C010E02C
:1048B00001C010E2C1018C709070892BB9F11123F5
:1048C00011F483E001C084E0881510F088240AC048
:1048D000881AF3FC07C080E290E0B3010E944A29E5
:1048E0008A94C9F7112329F0812F90E0B3010E9427
:1048F0004A2923FE03C00AE616E00EC00EE616E0C3
:104900000BC0E114F10409F0805290E0B3010E9461
:104910004A290F5F1F4F05C0EF2CFF24F0E1EF2263
:10492000FF24F8018491882361F714C1F7FE12C0B7
:10493000BC0C24FE04C08A81813309F4BA941B1490
:104940001CF0BB24B3942DC0F8E0FB1550F538E003
:10495000B32E27C0F6FC25C0892D90E08C159D054F
:104960004CF02CEFC2162FEFD20624F030E8F32AD9
:1049700001C09A94992049F0E2E0F0E0EC0FFD1FAD
:10498000E90DF11D80818033A1F3F7FE0AC0B92C37
:10499000B394892D90E0C816D90614F0992401C06B
:1049A0009C18F7FC03C025E030E009C01C141D046E
:1049B0001CF021E030E003C096012F5F3F4F112330
:1049C00011F02F5F3F4F992029F0892D90E001963B
:1049D000280F391F882D90E02817390714F08824F4
:1049E00001C0821A4F2C5524C20189709070892B06
:1049F00039F008C080E290E0B3010E944A298A940D
:104A00008820C1F7112329F0812F90E0B3010E9483
:104A10004A2943FE07C008C080E390E0B3010E942A
:104A20004A298A948820C1F7F7FE46C08601D7FE3E
:104A300002C000E010E076010894E11CF11CE01ACD
:104A4000F10A41E050E04C0F5D1FE40EF51E260117
:104A50004B185108892D90E0AA24BB24A81AB90A42
:104A60005FEF0F3F150729F48EE290E0B3010E943B
:104A70004A29C016D10634F0401651061CF4F7013D
:104A8000808101C080E3015010400894E11CF11CBA
:104A90000A151B052CF090E0B3010E944A29E0CFD3
:104AA0000C151D0539F49A81963318F4953311F4D9
:104AB00024FE81E390E04BC08A81813309F00F7EB0
:104AC00090E0B3010E944A299920A1F08EE290E083
:104AD000B3010E944A2912E0E1E0F0E0EC0FFD1F73
:104AE000E10FF11D1F5F808190E0B3010E944A2910
:104AF0009A9491F744FC03C085E690E002C085E4F7
:104B000090E0B3010E944A29D7FC05C0C114D1042A
:104B100041F404FF06C0D094C194D108D3948DE22F
:104B200001C08BE290E0B3010E944A2980E305C0F6
:104B30008F5F26EF3FEFC20ED31E3AE0C316D104BB
:104B4000BCF790E0B3010E944A29C601C096B301A8
:104B50000E944A29CC84DD8452C1933631F09337C8
:104B600099F0933509F059C023C0F60180818983FB
:104B70005E010894A11CB11C22E030E0C20ED31EDD
:104B800021E0E22EF12C12C0F601A080B18016FDCA
:104B900003C06FEF7FEF02C0692D70E022E030E0CC
:104BA000C20ED31EC5010E943F297C011F7713C08E
:104BB000F601A080B18016FD03C06FEF7FEF02C049
:104BC000692D70E022E030E0C20ED31EC5010E94C4
:104BD00034297C01106813FF07C01BC080E290E0FD
:104BE000B3010E944A298A94882D90E0E816F906BC
:104BF000A8F30FC0F50117FD859117FF81915F01A3
:104C000090E0B3010E944A2981108A940894E10837
:104C1000F108E114F10471F7F2C0943611F09936FD
:104C200089F517FF08C0F601208131814281538147
:104C300084E090E00AC0F601808191819C014427C4
:104C400037FD4095542F82E090E0C80ED91E9FE6B4
:104C5000F92EF12257FF09C05095409530952195C6
:104C60003F4F4F4F5F4F90E8F92ACA01B901AE019B
:104C70004F5F5F4F2AE030E00E948729E82EE889E5
:104C8000EE1A41C0953721F41F7E2AE030E01CC0A7
:104C9000197F9F3661F0903720F4983509F0B2C043
:104CA0000FC0903739F0983709F0ACC004C028E045
:104CB00030E00AC0106114FD146020E130E004C04F
:104CC00014FD166020E132E017FF08C0F601608194
:104CD00071818281938144E050E008C0F6018081B7
:104CE0009181BC0180E090E042E050E0C40ED51E0E
:104CF000AE014F5F5F4F0E948729E82E5889E51A61
:104D00008FE7F82EF122F6FE0BC08EEFF822E914A1
:104D100038F4F4FE07C0F2FC05C09FEEF92202C091
:104D20001E2D01C0192DF4FE0DC0FE01EE0DF11D6A
:104D30008081803319F4E9EEFE2208C01F5FF2FE85
:104D400005C003C08F2D867809F01F5F0F2DF3FC7F
:104D500014C0F0FE0FC0181510F09E2C0BC09E2C36
:104D6000980C911A182D06C080E290E0B3010E94C1
:104D70004A291F5F1815C0F304C0181510F4811AD2
:104D800001C0882404FF0FC080E390E0B3010E94BB
:104D90004A2902FF1DC001FD03C088E790E00EC054
:104DA00088E590E00BC0802F867891F001FF02C06B
:104DB0008BE201C080E2F7FC8DE290E0B3010E943B
:104DC0004A2906C080E390E0B3010E944A299A94E0
:104DD000E914C0F3EA94E1E0F0E0EC0FFD1FEE0D02
:104DE000F11D808190E0B3010E944A29EE2091F7E5
:104DF00006C080E290E0B3010E944A298A9488208C
:104E0000C1F797CCF30166817781CB016196E2E12E
:104E10000C94172DCF93DF93BC018230910510F4D1
:104E200062E070E0A0912804B0912904ED01E0E077
:104E3000F0E040E050E021C0888199818617970713
:104E400069F48A819B81309719F09383828304C02F
:104E50009093290480932804FE0134C068177907D1
:104E600038F44115510519F08417950708F4AC0181
:104E7000FE018A819B819C01E9012097E9F6411599
:104E80005105A9F1CA01861B970B049708F4BA01D2
:104E9000E0E0F0E02AC08D919C911197841795076E
:104EA000F9F46417750781F412968D919C9113970C
:104EB000309719F09383828304C0909329048093E0
:104EC0002804FD0132964CC0CA01861B970BFD01D8
:104ED000E80FF91F6193719302978D939C9340C0E3
:104EE000FD01828193819C01D9011097A1F68091E7
:104EF000260490912704892B41F480912D029091F2
:104F00002E02909327048093260440912F02509103
:104F100030024115510541F44DB75EB780912B0227
:104F200090912C02481B590B2091260430912704A4
:104F3000CA01821B930B8617970780F0AB014E5F67
:104F40005F4F8417950750F0420F531F509327046B
:104F500040932604F9016193719302C0E0E0F0E010
:104F6000CF01DF91CF910895CF93DF93009709F49C
:104F700050C0EC0122971B821A82A0912804B091A4
:104F80002904109709F140E050E0AC17BD0708F183
:104F9000BB83AA83FE0121913191E20FF31FAE176B
:104FA000BF0779F48D919C911197280F391F2E5FBF
:104FB0003F4F3983288312968D919C9113979B8341
:104FC0008A834115510571F4D0932904C0932804B4
:104FD00020C012968D919C911397AD01009711F00E
:104FE000DC01D3CFFA01D383C28321913191E20F47
:104FF000F31FCE17DF0769F488819981280F391FC5
:105000002E5F3F4FFA01318320838A819B819383F6
:105010008283DF91CF910895283008F027E033276D
:10502000DA01990F311D87FD9160009661057105C8
:1050300039F432602E5F3D9330E32A95E1F708950D
:105040009F3F30F080387105610509F03C5F3C5F9F
:105050003D93913008F08068911DDF93CF931F93AB
:105060000F93FF92EF92192F987F9695E92F9695BF
:105070009695E90FFF27E453F94F99273327EE243C
:10508000FF24A701E70105900894079428F4360F40
:10509000E71EF81E491F511D660F771F881F991FB5
:1050A0000694A1F70590079428F4E70EF81E491F0F
:1050B000561FC11D770F881F991F661F0694A1F701
:1050C0000590079428F4F80E491F561FC71FD11DDD
:1050D000880F991F661F771F0694A1F70590079404
:1050E00020F4490F561FC71FD81F990F661F771F3F
:1050F000881F0694A9F784911095177041F0D695F2
:10510000C79557954795F794E7941A95C1F7E2E745
:10511000F6E06894159015913591659195910590FB
:105120007FE27395E118F10A430B560BC90BD009C6
:10513000C0F7E10CF11E431F561FC91FD01D7EF49E
:10514000703311F48A95E6CFE894015030F0080FDF
:105150000AF40027021708F4202F2395022F7A3330
:1051600028F079E37D932A95E9F710C07D932A957D
:1051700089F6069497956795379517951794E118D2
:10518000F10A430B560BC90BD00998F023957E9179
:1051900073957A3308F070E37C932013B8F77E910F
:1051A00070617D9330F0839571E37D9370E32A9570
:1051B000E1F71124EF90FF900F911F91CF91DF91B4
:1051C000992787FD90950895DC012D923D924D928F
:1051D0005D926D927D928D929D92AD92BD92CD9297
:1051E000DD92ED92FD920D931D93CD93DD93FF9192
:1051F000EF918DB78D938EB78D938FB78D93ED9380
:10520000FD93882799270994DC01CB018130910512
:10521000811D2D903D904D905D906D907D908D9075
:105220009D90AD90BD90CD90DD90ED90FD900D9155
:105230001D91CD91DD91ED91FD910D90F894FEBF02
:105240000FBEEDBFED91FD910994FB01DC014150D2
:10525000504048F005900D920020C9F701C01D9202
:1052600041505040E0F70895FC01059061507040B6
:105270000110D8F7809590958E0F9F1F0895FC011F
:105280006150704001900110D8F7809590958E0F75
:105290009F1F08950F931F93CF93DF938C01EB0112
:1052A0008B8181FF1BC082FF0DC02E813F818C81CD
:1052B0009D812817390764F4E881F9810193F98306
:1052C000E88306C0E885F985802F0995892B31F49C
:1052D0008E819F8101969F838E8302C00FEF1FEF07
:1052E000C801DF91CF911F910F9108950F931F93E4
:1052F0008C01FC01838188608383C8010E94812323
:10530000F8012381277F23831F910F910895FA01CC
:10531000AA27283051F1203181F1E8946F936E7FF4
:105320006E5F7F4F8F4F9F4FAF4FB1E03ED0B4E0E5
:105330003CD0670F781F891F9A1FA11D680F791F26
:105340008A1F911DA11D6A0F711D811D911DA11D37
:1053500020D009F468943F912AE0269F1124301947
:10536000305D3193DEF6CF010895462F4770405DE2
:105370004193B3E00FD0C9F7F6CF462F4F70405D91
:105380004A3318F0495D31FD4052419302D0A9F7EC
:10539000EACFB4E0A6959795879577956795BA95E6
:1053A000C9F700976105710508959B01AC010A2EAC
:1053B00006945795479537952795BA95C9F7620F83
:1053C000731F841F951FA01D08955058BB27AA273F
:1053D0000ED001C2F2D130F0F7D120F031F49F3F6E
:1053E00011F41EF4D7C10EF4E095E7FBCDC1E92F0F
:1053F00003D280F3BA17620773078407950718F082
:1054000071F49EF51BC20EF4E0950B2EBA2FA02D61
:105410000B01B90190010C01CA01A0011124FF2761
:10542000591B99F0593F50F4503E68F11A16F0405C
:10543000A22F232F342F4427585FF3CF469537955B
:105440002795A795F0405395C9F77EF41F16BA0B20
:10545000620B730B840BBAF09150A1F0FF0FBB1FCE
:10546000661F771F881FC2F70EC0BA0F621F731F17
:10547000841F48F4879577956795B795F7959E3F74
:1054800008F0B3CF9395880F08F09927EE0F979502
:105490008795089555D108F481E008950CD09BC1FB
:1054A00093D140F08AD130F021F45F3F19F06CC104
:1054B0005111C5C16FC1A0D198F39923C9F35523E8
:1054C000B1F3951B550BBB27AA27621773078407F7
:1054D00038F09F5F5F4F220F331F441FAA1FA9F3AD
:1054E00033D00E2E3AF0E0E830D091505040E6959F
:1054F000001CCAF729D0FE2F27D0660F771F881F00
:10550000BB1F261737074807AB07B0E809F0BB0BEE
:10551000802DBF01FF2793585F4F2AF09E3F510512
:1055200068F032C18CC15F3FECF3983EDCF38695A6
:1055300077956795B795F7959F5FC9F7880F911D88
:105540009695879597F90895E1E0660F771F881F74
:10555000BB1F621773078407BA0720F0621B730B27
:10556000840BBA0BEE1F88F7E0950895BEE304D0D4
:1055700008F490E80895BFE322273327A90144D116
:1055800058F19F5740F1B91738F1BFE3B91B99277C
:10559000B8503AF4660F771F881F991FB395D2F35E
:1055A00016C0B8504AF0232F342F452F562F672F9F
:1055B000782F8827B850BAF7B85F49F08695779565
:1055C00067955795479537952795BA95B9F70EF48E
:1055D000E4D088940895889460E070E0CB01089549
:1055E00004D06894B1112BC108950ED188F09F5753
:1055F00090F0B92F9927B751A0F0D1F0660F771F1F
:10560000881F991F1AF0BA95C9F712C0B13081F0FE
:1056100015D1B1E0089512C1672F782F8827B85FA0
:1056200039F0B93FCCF3869577956795B395D9F75F
:105630003EF490958095709561957F4F8F4F9F4F69
:10564000089597FB0EF4A9D03EC0E89409C097FBDB
:105650003EF490958095709561957F4F8F4F9F4F49
:105660009923A9F0F92F96E9BB279395F69587958D
:1056700077956795B795F111F8CFFAF4BB0F11F450
:1056800060FF1BC06F5F7F4F8F4F9F4F16C08823F7
:1056900011F096E911C0772321F09EE8872F762F2D
:1056A00005C0662371F096E8862F70E060E02AF06E
:1056B0009A95660F771F881FDAF7880F969587955A
:1056C00097F90895E894F92F96EBFF2381F01216CD
:1056D00013061406440B9395F69587957795679571
:1056E00057954040FF23B9F71BC099270895882399
:1056F00051F49850D2F7872B762F652F542F432FD4
:10570000322F20E0B1F3121613061406440B88233F
:105710003AF09A95440F551F661F771F881FCAF7E6
:1057200055234AF4440F551F11F460FF04C06F5F06
:105730007F4F8F4F9F4F880F9695879597F90895C4
:10574000990F0008550FAA0BE0E8FEEF1616170692
:10575000E807F907C0F012161306E407F50798F0FA
:10576000621B730B840B950B39F40A2661F0232B13
:10577000242B252B21F408950A2609F4A140A6958F
:105780008FEF811D811D089597F99F6780E870E074
:1057900060E008959FEF80EC089590958095709556
:1057A000609550954095309521953F4F4F4F5F4FF5
:1057B0006F4F7F4F8F4F9F4F089500240A94161606
:1057C000170618060906089500240A9412161306EF
:1057D000140605060895092E0394000C11F488237D
:1057E00052F0BB0F40F4BF2B11F460FF04C06F5F99
:1057F0007F4F8F4F9F4F089557FD9058440F551F6F
:1058000059F05F3F71F04795880F97FB991F61F042
:105810009F3F79F087950895121613061406551FB9
:10582000F2CF4695F1DF08C0161617061806991F25
:10583000F1CF86957105610508940895E894BB271A
:1058400066277727CB0197F908957ADF08F48FEF61
:1058500008950BD0C0CFB1DF28F0B6DF18F0952344
:1058600009F092CF97CF1124EACFC6DFA0F3959F1E
:10587000D1F3950F50E0551F629FF001729FBB2737
:10588000F00DB11D639FAA27F00DB11DAA1F649FE3
:105890006627B00DA11D661F829F2227B00DA11D96
:1058A000621F739FB00DA11D621F839FA00D611D1C
:1058B000221F749F3327A00D611D231F849F600D3D
:1058C000211D822F762F6A2F11249F5750408AF076
:1058D000E1F088234AF0EE0FFF1FBB1F661F771F02
:1058E000881F91505040A9F79E3F510570F04CCF52
:1058F000A6CF5F3FECF3983EDCF3869577956795EE
:10590000B795F795E7959F5FC1F7FE2B880F911D1F
:105910009695879597F90895629FD001739FF0013E
:10592000829FE00DF11D649FE00DF11D929FF00D2F
:10593000839FF00D749FF00D659FF00D9927729F66
:10594000B00DE11DF91F639FB00DE11DF91FBD01F1
:10595000CF011124089597FB092E07260AD077FD61
:1059600004D080D006D000201AF4709561957F4F46
:105970000895F6F7909581959F4F0895A1E21A2E0C
:10598000AA1BBB1BFD010DC0AA1FBB1FEE1FFF1FE3
:10599000A217B307E407F50720F0A21BB30BE40B33
:1059A000F50B661F771F881F991F1A9469F760957A
:1059B0007095809590959B01AC01BD01CF01089534
:1059C00097FB092E05260ED057FD04D0D7DF0AD04D
:1059D000001C38F450954095309521953F4F4F4F1E
:1059E0005F4F0895F6F790958095709561957F4F7C
:1059F0008F4F9F4F08952F923F924F925F926F92D9
:105A00007F928F929F92AF92BF92CF92DF92EF924E
:105A1000FF920F931F93CF93DF93CDB7DEB7CA1BCF
:105A2000DB0B0FB6F894DEBF0FBECDBF09942A88FA
:105A3000398848885F846E847D848C849B84AA84A2
:105A4000B984C884DF80EE80FD800C811B81AA812F
:105A5000B981CE0FD11D0FB6F894DEBF0FBECDBFFA
:105A6000ED010895AA1BBB1B51E107C0AA1FBB1F74
:105A7000A617B70710F0A61BB70B881F991F5A95DA
:0C5A8000A9F780959095BC01CD01089518
:105A8C000A5475726E696E67207374617465000ACE
:105A9C004D6F76696E67207374617465000A2564B6
:105AAC00000A507265737320676F000A5374616249
:105ABC00696C697A696E67000A496E697469616C10
:105ACC00697A696E670003006D6F746F72206C6F7A
