:100000000C949B030C94BB030C94BB030C94BB0398
:100010000C94BB030C94BB030C94BB030C94BB0368
:100020000C94BB030C94BB030C94680F0C94BB039F
:100030000C94BB030C94BB030C94BB030C94BB0348
:100040000C94BB030C94BB030C94BB030C94BB0338
:100050000C94BB030C94BB030C94BB030C94BB0328
:100060000C94BB030C94BB030C94BB030C94BB0318
:100070000C94BB030C94BB030C94BB030C94BB0308
:100080000C94BB030C94BB030C94BB0375706461AC
:1000900074655F7069643A206E6F20696E70757464
:1000A000007570646174655F7069643A207069649A
:1000B0002064697361626C6564006572726F72209E
:1000C00025302E33660A0063757272656E74207671
:1000D000616C75652025302E33660A00696E69747F
:1000E0005F7069643A20706964206E756C6C006D95
:1000F00061696E000A004A6F794F532076302E32C4
:100100002E3320202020507265737320474F00202B
:1001100020202020202020206D656D6F72792066C0
:10012000756C6C00686561702073697A653A20258A
:10013000642062797465730A005F5F6D616C6C6F37
:10014000635F686561705F656E64203D2025700A9D
:10015000005F5F6D616C6C6F635F686561705F739A
:1001600074617274203D2025700A0072756E61778B
:10017000617920636F6465000A526F756E64206553
:100180006E64000A526F626F742072656164792E2A
:100190002020202050726573732027476F27006C42
:1001A0006F636B2068656C6420627920616E6F7488
:1001B0006865720072656C6561736520756E68654F
:1001C0006C64206C6F636B0072656C656173652095
:1001D0006E756C6C206C6F636B0069735F68656C27
:1001E00064206E756C6C206C6F636B00616371755D
:1001F0006972656420746F6F206D616E7920746917
:100200006D65730061637175697265206E756C6CE4
:10021000206C6F636B00696E6974206E756C6C2066
:100220006C6F636B00496E6974206661696C3A207B
:1002300025730A0D005541525430206F70656E656C
:10024000642061742025640A0D0048617070796231
:100250006F61726420696E69742073746172746571
:10026000640A0D0048617264776172652076657278
:1002700073696F6E2025582E253032580A0D0042C2
:100280006F61726420494420253034580A0D0042C1
:100290006F61726420636F6E666967204F4B0A0D51
:1002A0000042617474657279204F4B3A2025646D69
:1002B000560A0D0046504741207625642E25640AD3
:1002C0000D0046504741206661696C757265004CAF
:1002D0006F772062617474657279004261642043B3
:1002E0006F6E666967000A70616E69633A202573F4
:1002F0000070616E69633A2025730A002074687289
:100300006561642028746964202564292027257389
:1003100027207374617475732025642072756E7361
:100320002025750A0020746872656164202874694C
:10033000642025642920756E616C6C6F636174653F
:10034000640A0044756D70696E6720746872656137
:1003500064207374617465733A0A0020504320204E
:10036000203A20253038700A002053524547203A61
:1003700020253032700A002053502020203A2025BA
:100380003034700A002046502020203A2025303496
:10039000700A00203C6F6D697474696E672072305A
:1003A0002D7233313E0A0044756D70696E67206AA4
:1003B0006D705F6275663A0A006F7574206F662013
:1003C0007468726561647300736C65657000796947
:1003D000656C64006E6F2063757272656E745F7415
:1003E000687265616400737461636B206F76657217
:1003F000666C6F77007265736572766564207370E2
:100400006163653A20257020746F2025700A00739F
:100410007461636B746F703A2025700A00706320FA
:1004200061742025700A007370206F662027257381
:100430002720286964202564292069732025700AF3
:10044000000A737461636B206F766572666C6F77F8
:100450000A0053502061626F7665006E6F206964F8
:100460006C65006D616C6C6F6320737061636520F7
:100470005B25702C25705D0A007468726561647379
:100480005B305D2E74685F73746174757320617482
:100490002025700A00746872656164735B305D20AA
:1004A00061742025700A0074696D65202564002D33
:1004B0002D206E6F2069646C6520746872656164BC
:1004C000202D2D0A007363686564756C65004F6F9D
:1004D00070732E2E2E20746865726527732061203C
:1004E00072756E6E61626C652074687265616420FD
:1004F0007468617473206E6F742069646C650A009F
:1005000020746872656164202874696420256429F8
:100510002027257327207374617475732025640A5E
:100520000020746872656164202874696420256401
:100530002920756E616C6C6F63617465640A006973
:10054000646C6520667265650028696420256429ED
:1005500020737461636B205B25702C2570290A0061
:10056000746872656164207461626C6520656E6494
:100570002061742025700A007468726561642074BB
:1005800061626C65207374617274206174202570DF
:100590000A002520356420202025347020202025C5
:1005A0003032780A003D3D3D3D3D3D3D3D3D3D3DC8
:1005B0003D3D3D3D3D3D3D3D3D0A00494E44455894
:1005C0002020204144445220202056414C55450AC9
:1005D0000000000A0000110E0000000A0000111FB8
:1005E0000000000A00000E1100000E1F1111111F63
:1005F000000000000000001500000E0E0E1F0E048B
:10060000006469676974616C5F7265616400616E42
:10061000616C6F675F72656164006D637033303069
:1006200038206661696C006D637033303038206645
:1006300061696C006E616E00696E660000407A1040
:10064000F35A00A0724E18090010A5D4E80000E883
:100650007648170000E40B54020000CA9A3B0000E1
:1006600000E1F505000080969800000040420F0070
:100670000000A08601000000102700000000E80331
:10068000000000006400000000000A0000000000FC
:100690000100000000002C76D888DC674F0823DFBB
:1006A000C1DFAE59E1B1B796E5E3E453C63AE6518E
:1006B000997696E8E6C28426EB898C9B62ED407CB5
:1006C0006FFCEFBC9C9F40F2BAA56FA5F490055A51
:1006D0002AF75C936B6CF9676DC11BFCE0E40D4776
:1006E000FEF520E6B500D0ED902E03009435770599
:1006F0000080841E080000204E0A000000C80C3351
:100700003333330F986E12831141EF8D2114893BDF
:10071000E65516CFFEE6DB18D1844B381BF77C1D5F
:10072000901DA4BBE424203284725E228100C9F1B2
:1007300024ECA1E53D2711241FBECFEFD0E1DEBFA1
:10074000CDBF11E0A0E0B1E0E8EDF3E400E00BBFC5
:1007500002C007900D92A63FB107D9F71BBE13E068
:10076000A6EFB1E001C01D92A039B107E1F70E94E8
:10077000DC070C94E00D0C94420F3F924F925F9275
:100780006F927F928F929F92AF92BF92CF92DF92A1
:10079000EF92FF920F931F93DF93CF93CDB7DEB706
:1007A000C455D0400FB6F894DEBF0FBECDBF81E078
:1007B00060E040E020E000E0EE240E948F06182F69
:1007C00080E061E040E020E00E948F06382E2E019C
:1007D0000894411C511CC201612F48E10DEC1CEC36
:1007E0002CEC3DE368017901480159010E94430660
:1007F0008BE2682E712C6C0E7D1EC301632D49E1C6
:10080000970186010E944306C2014AE050E060E081
:1008100070E00E94B005C3014AE050E060E070E083
:100820000E94B00500D080E091E0EDB7FEB7928362
:1008300081830E94A10F0F900F90042D452C162D3F
:10084000672C08C0802F942D0E94EB05812F962DD8
:100850000E94EB05802F942D0E94CE05882391F3F2
:10086000812F962D0E94CE05882361F380E060E001
:1008700070E00E945F0781E060E070E00E945F0727
:1008800000D08EE091E0EDB7FEB7928381830E94A5
:10089000A10F0F900F90FFCF80E00E94D90780E05A
:1008A00090E008952F923F924F925F926F927F92C5
:1008B0008F929F92AF92BF92CF92DF92EF92FF9270
:1008C0000F931F93DF93CF9300D000D0CDB7DEB747
:1008D0003C011A012B0109831A832B833C83009767
:1008E00021F48CED90E00E94740AD3012D923D9288
:1008F0004D925C92139789819A81AB81BC81F301FF
:1009000084839583A683B783D3011896CD92DD9215
:10091000ED92FC921B971D96BC92AE921C971F966F
:100920009C928E921E9780E090E0A0E0B0E0848BD5
:10093000958BA68BB78B108E11A20F900F900F90F6
:100940000F90CF91DF911F910F91FF90EF90DF906B
:10095000CF90BF90AF909F908F907F906F905F905F
:100960004F903F902F9008952F923F924F925F9219
:100970006F927F928F929F92AF92BF92CF92DF92AF
:10098000EF92FF920F931F93CF93DF93EC011A0125
:100990002B0100D000D000D087EC90E0EDB7FEB77F
:1009A0009283818343835483658376830E944F11AE
:1009B000688979898A899B89A20191010E94321FE5
:1009C0005B016C018AEB90E0EDB7FEB79283818307
:1009D000A382B482C582D6820E944F11C601B5019E
:1009E000288139814A815B810E94EA207B018C0148
:1009F0008DB79EB706960FB6F8949EBF0FBE8DBFFB
:100A0000888D882359F40F2EF0E0AF2EF0E0BF2E32
:100A1000F0E0CF2EF0E0DF2EF02D52C00E94D60A7B
:100A20002D8D3E8D4F8D58A1621B730B840B950B42
:100A30000E9434202FE632E143E85AE30E94EA2084
:100A40003B014C01A60195010E94EA202C893D89B9
:100A50004E895F890E94331F5B016C012C813D81AF
:100A60004E815F810E94EA209B01AC01C801B70161
:100A70000E94331F7B018C01C401B30120E030E0F0
:100A800040E050E00E94971F8823D1F0C201B101DD
:100A9000298D3A8D4B8D5C8D0E94321F28853985BA
:100AA0004A855B850E94EA20A40193010E949B1F56
:100AB0009B01AC01C801B7010E94331F7B018C016F
:100AC00081E0888FAC8ABD8ACE8ADF8A298E3A8EF1
:100AD0004B8E5C8E0E94D60A6D8F7E8F8F8F98A36F
:100AE000EE85FF85309719F0C801B7010995B70168
:100AF000C801DF91CF911F910F91FF90EF90DF9090
:100B0000CF90BF90AF909F908F907F906F905F90AD
:100B10004F903F902F900895CF93DF93EC0189A1E0
:100B2000882321F481EA90E00E94740A8C859D85D7
:100B3000892B21F48CE890E00E94740AEC85FD85F5
:100B40000995AB01BC01CE010E94B404DF91CF91A5
:100B50000895CF93DF93EC01CE010E948C05FCCF6A
:100B60000F931F938C01CB01BA010E943620F8012C
:100B7000608F718F828F938F1F910F910895861BC5
:100B8000970B9C0140E050E08150904820F02050AD
:100B9000304041405040B901CA010895FF920F937F
:100BA0001F938C01FF24FC01608D718D828D938DCC
:100BB0000E940320F8012081318142815381261750
:100BC00037074807590711F4FF24F3948F2D1F911D
:100BD0000F91FF900895DF92EF92FF920F931F9372
:100BE000CF93DF93EC018C810E9498072D813E8189
:100BF000821B930B9C0140E050E08150904820F014
:100C00002050304041405040688179818A819B81E9
:100C1000620F731F841F951F688379838A839B8368
:100C200028960E943620AB01BC01CE0128970E9475
:100C3000B4047B018C01DF8020E030E04FE753E417
:100C40000E94E62018161CF46FEF70E011C0C80176
:100C5000B70120E030E04FE753EC0E94971F882354
:100C60001CF461E07FEF04C0C801B7010E940320BB
:100C70008D2D0E94CD06DF91CF911F910F91FF9096
:100C8000EF90DF9008952F923F924F925F926F9274
:100C90007F928F929F92AF92BF92CF92DF92EF920C
:100CA000FF920F931F93DF93CF930F92CDB7DEB7D1
:100CB0003C016983842F18012901F30110821182FC
:100CC0001282138244830E949807F30196838583DE
:100CD00089818783C3010896B201A101970186012A
:100CE00075016401AA24BB24882499240E9452041B
:100CF00081E0F30181A70F90CF91DF911F910F91B8
:100D0000FF90EF90DF90CF90BF90AF909F908F902B
:100D10007F906F905F904F903F902F900895EF924B
:100D20000F93582F662311F480E001C082E0411137
:100D300044E0222311F430E001C038E0002311F434
:100D400020E001C020E1EE2011F490E001C090E22B
:100D5000852B842B832B822B892B0F91EF90089569
:100D60000F931F93CF93DF93C0E0D0E0082F10E0E4
:100D7000C8010C2E02C0959587950A94E2F780FF72
:100D800003C08C2F0E9448072196C630D10581F7F9
:100D9000DF91CF911F910F910895EF92FF920F93E2
:100DA0001F93CF93DF937B01C0E0D0E0082F10E0CA
:100DB000C8010C2E02C0959587950A94E2F780FF32
:100DC00004C08C2FB7010E945F072196C630D10561
:100DD00079F7DF91CF911F910F91FF90EF900895D8
:100DE0001F93CF93DF93CDB7DEB728970FB6F89454
:100DF000DEBF0FBECDBF182F80E192E00E94FB083E
:100E0000DE011396E7E2F1E086E001900D92815059
:100E1000E1F7FE01E10FF11D63817727685F7F4FE6
:100E2000AE014F5F5F4F80E090E00E94271280E1AB
:100E300092E00E94950889819A8128960FB6F894CD
:100E4000DEBF0FBECDBFDF91CF911F9108950F93ED
:100E50001F930E94F0068C01B801882777FD8095CA
:100E6000982F0E94362017FF06C020E030E040E8AF
:100E700057E40E94331F28E431EE40E851E40E9419
:100E8000EA200E940820DC01CB011F910F910895F8
:100E9000FF920F931F93F82E00E112E0C8010E9409
:100EA000FB08FF0CEF2DFF27E050FF4E83E080830F
:100EB000C8010E9495081F910F91FF9008951F93FC
:100EC000CF93DF93182FEB0180E192E00E94FB08A3
:100ED000110F1C161D0634F4E12FFF27E050FF4EC2
:100EE00081E007C0E12FFF27209729F0E050FF4E57
:100EF00082E0808303C0E050FF4E1082E12FFF2785
:100F0000EF5FFE4EBE01D7FF03C0709561957F4F26
:100F1000608380E192E00E949508DF91CF911F915C
:100F200008956CE171E080E192E00E94E508089587
:100F3000EF92FF920F931F93082F35E1E32E32E0DB
:100F4000F32EC7010E94FB08A02FBB27AA0FBB1FCF
:100F5000EA2FE452FF27E050FF4E819100811127D4
:100F6000102F00279927082B192BAA53BE4F8D91BC
:100F70009C91081B190BC7010E949508C8011F917D
:100F80000F91FF90EF9008951F93182F0E949807DC
:100F9000E12FFF27EE0FFF1FEA53FE4F918380835F
:100FA0001F9108956DE271E085E192E00E94E508ED
:100FB0000895809352010895CFEFD0E1DEBFCDBFF9
:100FC0008091FE019091FF01892B21F08BE691E049
:100FD0000E94740A83E897E09093F4018093F301F0
:100FE0000E94A4098091F1019091F2019F938F9347
:100FF00081E591E09F938F930E944F118091F301BF
:101000009091F4019F938F9389E391E09F938F9345
:101010000E944F118091F3019091F4012091F10110
:101020003091F201821B930B880F991F9F938F932E
:1010300084E291E09F938F930E944F118DB79EB7EA
:101040000C960FB6F8949EBF0FBE8DBF2091F10194
:101050003091F2018091F3019091F4012817390742
:1010600020F08FE091E00E94740A0E94211506EFA3
:1010700010E01F930F930E94FE151F930F930E9481
:101080004F1184EF90E09F938F930E944F110E9425
:10109000CC170E94C90E2AE331E040E060E071E025
:1010A00086E698E00E946C0E0E94C20C8FEE90E0E3
:1010B0000E94740A8DB79EB706960FB6F8949EBF2D
:1010C0000FBE8DBF80E090E00C94E00D0E944C04B8
:1010D00083E891E09F938F930E94FE150E94CC17A6
:1010E0000E94211528E431E040E060E071E08DEBE2
:1010F00093E00E946C0E0F900F9080915201882314
:1011000019F40E94B50DFDCF80E69AEE0E94FE0D07
:1011100088E791E09F938F930E94FE150E94C80B71
:101120000F900F9080E090E008951F93CF93DF938E
:10113000EC01892B21F488EC91E00E94740A1FB71E
:10114000F8948881882321F484EB91E00E94740A4A
:101150002B813C818091FE019091FF012817390776
:1011600021F08FE991E00E94740A88818150888380
:10117000882311F41C821B828FB71078812B8FBFBC
:10118000DF91CF911F910895CF93DF93EC01892BCD
:1011900021F48AED91E00E94740A2091FE013091C1
:1011A000FF018B819C812817390719F080E090E0BE
:1011B00009C090E08881882309F491E081E09827B4
:1011C000892F9927DF91CF9108950F931F93CF9384
:1011D000DF93EC018B01892B21F486E192E00E94E0
:1011E000740A18821A8309831C821B82DF91CF91B3
:1011F0001F910F910895CF93DF93EC01892B21F478
:1012000084E092E00E94740A88818F3F21F48CEE82
:1012100091E00E94740A5FB75078F8942B813C816A
:101220008091FE019091FF0148812817390719F438
:101230004F5F48830AC0442361F481E08883809132
:10124000FE019091FF019C838B838FB7852B8FBF0D
:1012500006C08FB7852B8FBF0E94B50DDCCFDF9105
:10126000CF9108950F931F93CF93DF93CDB7DEB740
:1012700061970FB6F894DEBF0FBECDBF8C0141E180
:1012800050E0BC01CE0101960E94721E198A1F9384
:101290000F9385E292E09F938F930E944F1180E11C
:1012A0000E9438151F930F930E943B168FE10E94F6
:1012B000381560E070E083E00E944E158DB79EB750
:1012C00006960FB6F8949EBF0FBE8DBFFFCF60E0AD
:1012D00070E080E090E00E94231366E072E08AE014
:1012E00090E00E94D7120E943A14E6E0F2E020E07B
:1012F00030E081913827032E0294902D9F70932720
:10130000832F8025880F807E9827802D8327807FDC
:101310008695032E000C881F3695369536953F71BD
:1013200038273227292F82E0EE30F80711F740E006
:1013300050E080910E0290910F022817390711F4A6
:1013400041E050E0CA0108950E943E101F9A80E0DB
:101350009BE40E94041182EB91E090938F038093B1
:101360008E0380E09BE49F938F9385E392E09F93AD
:101370008F930E944F118AE492E09F938F930E9473
:101380004F110E942A170E94D2070E94CC100E947F
:1013900091070E94E1160E94571689EC91E0909304
:1013A0008D0380938C030E9498100E94410F0E942D
:1013B00067092DB73EB72A5F3F4F0FB6F8943EBF7F
:1013C0000FBE2DBF882321F48BED92E00E943209DD
:1013D0008FE892E09F938F930E944F1180910602B5
:1013E000909107029C0130703F932F93892F99278A
:1013F0009F938F9384E692E09F938F930E944F1167
:1014000080910802909109029F938F938FE792E059
:101410009F938F930E944F11809106029091070233
:101420009C0130703F932F93892F99279F938F931F
:1014300083E591E09F938F930E943B160E9449178A
:101440002DB73EB72E5E3F4F0FB6F8943EBF0FBE8E
:101450002DBF8C549D4120F48FEC92E00E94320904
:101460000E9449179F938F9381EA92E09F938F93F5
:101470000E944F1160910C0270910D0280E091E08A
:101480000E94A8110F900F900F900F90882321F4C5
:1014900082EC92E00E9432098091FF112091FE11AE
:1014A00099279F938F9333273F932F9384EB92E059
:1014B0009F938F930E944F118FE10E94381560E037
:1014C00070E081E00E944E151E9864EC79E082EC99
:1014D00091E00E94DC178DB79EB706960FB6F89480
:1014E0009EBF0FBE8DBF0895CF93DF93CDB7DEB7FC
:1014F0006A970FB6F894DEBF0FBECDBFBC01F8945B
:10150000892B41F04AE150E0CE0101960E94721E03
:101510001A8E01C019821092770310927B031092E9
:101520007A03CE0101969F938F9386EE92E09F936C
:101530008F930E94FE150E94C80B0F900F900F9082
:101540000F906A960FB6F894DEBF0FBECDBFDF9145
:10155000CF910895CF93DF93EC01F8941092770325
:1015600010927B0310927A030E942115209711F4A8
:10157000C7E7D1E0DF93CF9381EF92E09F938F9302
:101580000E94FE150E94C80B0F900F900F900F90B5
:10159000DF91CF91089583E085BD83E884BD86B750
:1015A000806486BF87B7806487BF08952FB7F8949B
:1015B00060910002709101028091020290910302F9
:1015C0003FB72078322B3FBF08953FB7F894609122
:1015D00000027091010280910202909103022FB7E4
:1015E0003078232B2FBF28EE33E040E050E00E94FC
:1015F0004D2108959C01F894E4E6F2E041E08081F9
:10160000833031F4828593858217930709F44083F0
:10161000BC9683E0EC36F80791F778940895772725
:101620008CE291E0689F9001699F300D789F300DAA
:10163000112487EB9FE0821B930B0895FF920F9379
:101640001F93CF93DF93FFB6F89483E493E09F93C7
:101650008F930E944F1100E010E0C8E3D2E00F909A
:101660000F902881222369F41F930F9385E293E062
:101670009F938F930E944F110F900F900F900F9098
:1016800020C08A819B81AC81BD81BF93AF939F9322
:101690008F93822F99279F938F938C859D859F93FE
:1016A0008F931F930F938CEF92E09F938F930E94E1
:1016B0004F118DB79EB70C960FB6F8949EBF0FBE14
:1016C0008DBF0F5F1F4FAC960730110551F68FB7D6
:1016D00090E8F9228F298FBFDF91CF911F910F9151
:1016E000FF9008950F931F938C0187EA93E09F93D7
:1016F0008F930E944F1183E993E09F938F930E94F1
:101700004F11F80180899189AA27BB27BF93AF9316
:101710009F938F9385E893E09F938F930E944F113F
:10172000F80182899389AA27BB27BF93AF939F9320
:101730008F9387E793E09F938F930E944F11F80157
:1017400084899927AA27BB27BF93AF939F938F9331
:1017500089E693E09F938F930E944F11F80185894A
:101760009689AA27BB27BF93AF939F938F938BE54F
:1017700093E09F938F930E944F118DB79EB74C9625
:101780000FB6F8949EBF0FBE8DBF1F910F910895A5
:10179000CF93DF93F89410921002109214021092DB
:1017A0001302C0E0D0E08C2F0E9448072196C6307B
:1017B000D105C9F7FFCF0F931F93CF93DF93EC01B0
:1017C00008E312E080913802813009F44BC08FEABF
:1017D00094E09F938F930E944F118091000290910B
:1017E0000102A0910202B0910302BF93AF939F93B5
:1017F0008F9387EA94E09F938F930E944F110E512D
:1018000010401F930F93025E1F4F85E994E09F9352
:101810008F930E944F111F930F9389E794E09F933A
:101820008F930E944F118091F3019091F4019F9347
:101830008F938091F1019091F2019F938F9383E6B2
:1018400094E09F938F930E944F118BE594E00E9448
:10185000740A4DB75EB74A5E5F4F0FB6F8945EBF2D
:101860000FBE4DBF8D8D99272CE231E0A901849FD9
:101870009001859F300D949F300D112487EB9FE0E0
:10188000821B930B2A893B898217930720F482E5F8
:1018900094E00E94740A898D9A8D2A893B89821B63
:1018A000930B2B8D3C8D2817390708F04CC081E431
:1018B00094E09F938F930E944F118A899B899F93F5
:1018C0008F938D8D99279F938F938AA59BA59F9327
:1018D0008F9387E294E09F938F930E944F11CE01E4
:1018E0000E94720B8D899E899F938F938DE194E066
:1018F0009F938F930E944F11898D9A8D9F938F9301
:101900008FE094E09F938F930E944F11898D9A8D61
:101910009F938F932B8D3C8D821B930B01969F93EE
:101920008F9385EF93E09F938F930E944F1186EEE4
:1019300093E00E94740A8DB79EB748960FB6F8944C
:101940009EBF0FBE8DBFDF91CF911F910F91089564
:101950009093FF018093FE010E94DB0BE091FE015A
:10196000F091FF0180A191A1A2A1B3A10196A11DB7
:10197000B11D80A391A3A2A3B3A361E070E0CF0146
:101980000E94511EAF92BF92CF92DF92EF92FF92D0
:101990000F931F93CF93DF93E091FE01F091FF012E
:1019A000309719F4AA24BB2403C0858DA82EBB242C
:1019B00081E0C82ED12C75010894E11CF11CC701EF
:1019C00067E070E00E946C218C01892B09F455C0FE
:1019D0008CE290E0089FE001099FD00D189FD00D88
:1019E0001124C65EDD4F8E8D8430B1F4209100024B
:1019F0003091010240910202509103028CA19DA1FD
:101A0000AEA1BFA1281739074A075B0750F081E054
:101A10008E8FCE010E94A80C8E8D813011F4CE01E4
:101A20002AC06CE270E0A69EF001A79EF00DB69E63
:101A3000F00D1124E65EFD4F868D8430F1F4209187
:101A4000000230910102409102025091030284A1F0
:101A500095A1A6A1B7A1281739074A075B0768F027
:101A600081E0868F069FC001079F900D169F900D05
:101A70001124865E9D4F0E94A80C0894C11CD11CA5
:101A80000894E11CF11C88E0C816D10409F097CF36
:101A900080913802813021F48AE192E00E94A80C02
:101AA000F89400E010E0C8E3D2E08881882369F46C
:101AB0001F930F9381E295E09F938F930E944F11A4
:101AC0000F900F900F900F9022C099279F938F93A4
:101AD0008C859D859F938F931F930F9380E095E056
:101AE0009F938F930E944F118DB79EB708960FB6A4
:101AF000F8949EBF0FBE8DBF8881813041F48EEC7B
:101B000094E09F938F930E944F110F900F900F5F5F
:101B10001F4FAC960730110541F685EC94E00E940A
:101B2000740ADF91CF911F910F91FF90EF90DF909A
:101B3000CF90BF90AF9008958091FE019091FF01EA
:101B4000892B21F484ED93E00E94740A8091FE01B8
:101B50009091FF010E94311E892B31F461E070E009
:101B60008EE493E00E94511E0895F8941F920F9204
:101B70002F933F934F935F936F937F938F939F9395
:101B8000AF93BF93EF93FF938091FE019091FF017C
:101B9000892B21F48EEC93E00E94740A0E949C0D24
:101BA000FF91EF91BF91AF919F918F917F916F9135
:101BB0005F914F913F912F910F901F9078940895CE
:101BC0000E94B50DFDCFCF93DF93EC01F894809187
:101BD000FE019091FF01892B21F488EC93E00E9493
:101BE000740AE091FE01F091FF01D1A7C0A783E044
:101BF000868F0E94B50DDF91CF910895EF92FF92ED
:101C00000F931F938C010FB607FC37C0B8018827CC
:101C100077FD8095982F0E94362017FF06C020E0A0
:101C200030E040E857E40E94331F20E030E04AEF04
:101C300054E40E94EA207B018C0120E030E040E87F
:101C40005FE30E94971F88231CF481E090E012C09C
:101C500020E03FEF4FE757E4C801B7010E94E620BC
:101C600018161CF480E090E005C0C801B7010E947E
:101C70000820CB010197F1F720C0F894E091FE0114
:101C8000F091FF0184E0868F809100029091010223
:101C9000A0910202B0910302E091FE01F091FF01D8
:101CA000980144275527820F931FA41FB51F84A3B3
:101CB00095A3A6A3B7A30E94B50D1F910F91FF9006
:101CC000EF9008950E941E0B88EB9BE00E94FE0D92
:101CD000F9CF0E94B50DFDCF0F931F93CF93DF93E4
:101CE0008C016FB7F89440E050E0E8E3F2E08081C7
:101CF000882359F04F5F5F4FBC9647305105B9F7C5
:101D000089EB93E00E94740AFFCF8CE290E0489F39
:101D1000D001499FB00D589FB00D1124A65EBD4F54
:101D200081E0ED018E8F3BA72AA7FD0110A211A231
:101D300012A213A22CE231E0348F238F89E1199291
:101D40008A95E9F7842F9927F9018E9F90018F9F3B
:101D5000300D9E9F300D1124E7EBFFE0E21BF30BEB
:101D600020EE3DE020833197232F332720833197C6
:101D7000ED01FB8BEA8B1E8B0D8B2C8920682C8B45
:101D80002FB76078262B2FBFDF91CF911F910F9136
:101D90000895EF92FF920F931F93CF93DF930AE181
:101DA00012E01F930F9388E795E09F938F930E9413
:101DB0004F118EE493E09F938F9380E695E09F937D
:101DC0008F930E944F11E801EE24FF2407EB1FE0E0
:101DD0008DB79EB708960FB6F8949EBF0FBE8DBF05
:101DE000ED8E1E8EC8011A8F098F18A219A21AA291
:101DF0001BA20C5211401F930F939F938F93FF923E
:101E0000EF9289E495E09F938F930E944F1108947D
:101E1000E11CF11CAC968DB79EB708960FB6F894EE
:101E20009EBF0FBE8DBF97E0E916F104C9F628E703
:101E300031E040E060E071E089E69EE00E946C0ED7
:101E400080913802882321F48FE395E00E94740A80
:101E50008EE493E00E94311E8FEF90E19093610336
:101E60008093600382EC9CE090936403809363030F
:101E70000E94CB0ADF91CF911F910F91FF90EF90BD
:101E8000089508951F920F920FB60F9211242F9369
:101E90003F934F935F936F937F938F939F93AF93F2
:101EA000BF93EF93FF938DE791E00E94740AFF9137
:101EB000EF91BF91AF919F918F917F916F915F91C2
:101EC0004F913F912F910F900FBE0F901F9018953B
:101ED0001F920F920FB60F9211242F933F934F939F
:101EE0005F936F937F938F939F93AF93BF93EF9382
:101EF000FF9383E884BD8091000290910102A0913C
:101F00000202B09103020196A11DB11D809300024F
:101F100090930102A0930202B09303020E949C0DD1
:101F2000FF91EF91BF91AF919F918F917F916F91B1
:101F30005F914F913F912F910F900FBE0F901F9087
:101F40001895CF92DF92EF92FF920F931F93CF934A
:101F5000DF93CDB7DEB722970FB6F894DEBF0FBE82
:101F6000CDBF8E01035F1F4FF801E190F1908F010B
:101F700087E7C82E83E0D82EC6010E94FB081A838B
:101F80000983A801B70189EC91E00E94CE188C0169
:101F9000C6010E949508C80122960FB6F894DEBFCC
:101FA0000FBECDBFDF91CF911F910F91FF90EF90AA
:101FB000DF90CF900895FF920F931F93CF93DF93FD
:101FC0008C01F62E8BEB95E09F938F930E944F111F
:101FD00085EA95E09F938F930E944F11E80100E0FE
:101FE00010E00F900F900F900F9019C088819927E3
:101FF0009F938F93DF93CF931F930F9382E995E085
:102000009F938F930E944F110F5F1F4F21968DB7A3
:102010009EB708960FB6F8949EBF0FBE8DBF8F2D4A
:1020200099270817190714F3DF91CF911F910F918A
:10203000FF900895CF93DF93EC01892BD1F00E949C
:102040002115DF93CF938FE891E09F938F930E94A8
:102050003B16DF93CF9382E991E09F938F930E9489
:102060008C118DB79EB708960FB6F8949EBF0FBE21
:102070008DBF0E94CC17DF91CF91089585B78068FE
:1020800085BFECE6F0E080818F778083EDE6F0E0BD
:1020900080818D7F808385B78F7B85BF83EF87BBF2
:1020A000C69A8CEF81BB8EEC82B983B1806383B911
:1020B0008DE08093610010926400E2E6F0E08081A0
:1020C000846080831A9AC09A8081816080831B9A81
:1020D0000895EF92FF920F931F93CF93DF938C019C
:1020E0007B01EA0187E693E00E94FB080795002741
:1020F000079500640E2907B987ED86B9349BFECF9A
:10210000349A24B185B133279927982F8827282B13
:10211000392B3983288387E693E00E94950880E075
:1021200090E0DF91CF911F910F91FF90EF90089574
:1021300066E971E087E693E00E94E50808959C0156
:10214000369527956065622B6DB980FF02C0709A45
:1021500001C0709887B3876087BB0895AC0120E009
:102160000AC0FA01E20FF11D80818FB9779BFECF83
:102170008FB180832F5F2617A1F780E090E008954C
:102180008CE693E00E94950808958CE693E00E9407
:10219000FB0880E090E008956FE971E08CE693E041
:1021A0000E94E50808951E9A5D9BFECF8CB91E988B
:1021B000992787FD909508951F93182F8A3019F459
:1021C0008DE00E94DC10812F0E94D3101F91089592
:1021D000CF93DF93EC0103C021960E94D310888136
:1021E0008823D1F7DF91CF9108951E9A5F9BFECF90
:1021F0001E988CB1992787FD909508958BB18078B2
:10220000992787FD909508959C014427552794E0D0
:10221000220F331F441F551F9A95D1F760E072E1DA
:102220008AE790E00E947F21822F815089B9215056
:10223000304040405040232F342F452F55272093C6
:1022400090001BB886E08093950088E18AB968EA1F
:1022500071E081E793E00E94E5080895CF92DF9254
:10226000EF92FF920F931F936C018B0121E7E22EF7
:1022700023E0F22EC7010E94FB08A801B60182EB01
:1022800091E00E94C31E8C01C7010E949508C801FD
:102290001F910F91FF90EF90DF90CF900895CF9313
:1022A000DF93CDB7DEB722970FB6F894DEBF0FBE2F
:1022B000CDBFFE01379681919191FA83E983BF01E9
:1022C0000E942E1122960FB6F894DEBF0FBECDBF2E
:1022D000DF91CF910895CF92DF92EF92FF920F930B
:1022E0001F936C018B0131E7E32E33E0F32EC7011E
:1022F0000E94FB08A801B60182EB91E00E94CE1873
:102300008C01C7010E949508C8011F910F91FF9091
:10231000EF90DF90CF900895CF93DF93CDB7DEB7E6
:1023200022970FB6F894DEBF0FBECDBFFE013796E1
:1023300081919191FA83E983BF010E946B112296EA
:102340000FB6F894DEBF0FBECDBFDF91CF910895D9
:10235000DF92EF92FF920F931F93CF93DF93CDB74E
:10236000DEB728970FB6F894DEBF0FBECDBF8C0145
:102370007B01B801882799270E9423138F3FC9F357
:10238000C69880E08A95F1F7C69A00E010E041C057
:102390000E94A912682F0F5F1F4F807C803C19F0AC
:1023A00041E0D42E08C03FE3D32ED6220E94A912CA
:1023B000682F0F5F1F4F40E050E0A1E0B0E0FE014A
:1023C000319627E030E0CD01022E02C0880F991F20
:1023D0000A94E2F7862381934F5F5F4F215030408C
:1023E0004830510581F790E012C0FE0131969E0100
:1023F000275F3F4F8081882311F0C59A01C0C5989F
:10240000C79AC7983196E217F307A1F79F5F9D150A
:1024100061F70E151F0508F4BBCF0E943A14809196
:102420006300992723E0969587952A95E1F78170B7
:10243000907028960FB6F894DEBF0FBECDBFDF9127
:10244000CF911F910F91FF90EF90DF900895CF9261
:10245000DF92EF92FF920F931F93CF93DF93CDB74D
:10246000DEB723970FB6F894DEBF0FBECDBF8C0149
:102470007B016A010E94C5108F3F19F48FEF9FEF17
:1024800059C08E2D880F880F8064898360E082E0B8
:1024900090E00E949F100130110571F0013011058C
:1024A00020F002301105D1F40EC01A9863E0CE017D
:1024B00001960E94AE1021C0C09863E0CE01019643
:1024C0000E94AE101CC0809162008E7F80936200DB
:1024D00063E0CE0101960E94AE1013C063E0CE010E
:1024E00001960E94AE100130110549F0013011052E
:1024F00020F00230110551F404C01A9A07C0C09AA6
:1025000005C0809162008160809362008A81992772
:10251000982F88272B813327822B932B26E09695A3
:1025200087952A95E1F7F601918380830E94C01078
:1025300080E090E023960FB6F894DEBF0FBECDBFCB
:10254000DF91CF911F910F91FF90EF90DF90CF908F
:1025500008951F93CF93DF93CDB7DEB722970FB6C1
:10256000F894DEBF0FBECDBF61E0CE0101960E94A0
:10257000AE10809176038F3F49F410E061E0CE0108
:1025800002960E94AE101F5F1830C1F7809176034B
:102590008F5F809376038981992722960FB6F894EE
:1025A000DEBF0FBECDBFDF91CF911F910895EF9297
:1025B000FF920F931F93CF93DF937C01C0E0D0E095
:1025C0008B0106C00E94A912F80181938F01219608
:1025D000CE15DF05B9F780E090E0DF91CF911F9134
:1025E0000F91FF90EF900895CF93DF93CDB7DEB7B3
:1025F00021970FB6F894DEBF0FBECDBF87ED89835C
:10260000809162008B7F8093620061E0CE01019631
:102610000E94AE1061E0CE0101960E94AE10898149
:1026200087FFF8CF8091620084608093620082E02F
:102630008A95F1F721960FB6F894DEBF0FBECDBF95
:10264000DF91CF910895EF92FF920F931F93CF9355
:10265000DF93CDB7DEB724970FB6F894DEBF0FBE79
:10266000CDBF7B018C010E94C5108F3F19F48FEF05
:102670009FEF2EC060E081E090E00E949F1088EE06
:102680008983D801C7012FE0B695A79597958795BF
:102690002A95D1F78A83BB27A12F902F8F2D880FE2
:1026A0008B83E0927603EC820E94F41280916200A8
:1026B0008B7F8093620064E08E010F5F1F4FC80123
:1026C0000E94AE1064E0C8010E94AE1080E090E06D
:1026D00024960FB6F894DEBF0FBECDBFDF91CF9129
:1026E0001F910F91FF90EF9008958F929F92AF925C
:1026F000BF92CF92DF92EF92FF920F931F93CF93EF
:10270000DF93CDB7DEB724970FB6F894DEBF0FBEC8
:10271000CDBF6B017C014A0159010E94C5108F3F5A
:1027200019F42FEF3FEF3EC060E081E090E00E949F
:102730009F1084E889831A821B82CC828091620078
:102740008B7F8093620064E0CE0101960E94AE1000
:102750002C2D3327C9018A0D9B1D8150914028F0F3
:10276000A12C41E0B42EA21AB30A00E010E07401DB
:102770000BC0F70181917F01898361E0CE01019651
:102780000E94AE100F5F1F4F0A151B0591F7809135
:10279000620084608093620082E08A95F1F70E9473
:1027A000C0109501C90124960FB6F894DEBF0FBE84
:1027B000CDBFDF91CF911F910F91FF90EF90DF90F0
:1027C000CF90BF90AF909F908F900895EF92FF921F
:1027D0000F931F93CF93DF93CDB7DEB724970FB638
:1027E000F894DEBF0FBECDBF7B018C010E94C510E7
:1027F0008F3F19F48FEF9FEF30C060E081E090E0F1
:102800000E949F1083E58983D801C7016FE0B695C8
:10281000A795979587956A95D1F78A83BB27A12FAE
:10282000902F8F2D880F8B831C820E94F412809131
:1028300062008B7F8093620064E0CE0101960E946B
:10284000AE108091620084608093620082E08A957D
:10285000F1F70E94C01080E090E024960FB6F89443
:10286000DEBF0FBECDBFDF91CF911F910F91FF90C3
:10287000EF900895E2E6F0E080818460808382E05A
:102880008A95F1F70E94C01008950F931F93CF937C
:10289000DF93CDB7DEB722970FB6F894DEBF0FBE39
:1028A000CDBF8C0187ED89831A820E94C5108F3FAE
:1028B00019F48FEF9FEF1EC060E081E090E00E946E
:1028C0009F10809162008B7F8093620062E0CE0156
:1028D00001960E94AE108091620084608093620035
:1028E00082E08A95F1F70E94C0108A81F801808306
:1028F00080E090E022960FB6F894DEBF0FBECDBF09
:10290000DF91CF911F910F910895EF92FF920F9356
:102910001F93CF93DF93CDB7DEB724970FB6F8940C
:10292000DEBF0FBECDBF7B018C010E94C5108F3F63
:1029300019F48FEF9FEF30C060E081E090E00E94DB
:102940009F1083E88983D801C701EFE0B695A7956A
:1029500097958795EA95D1F78A83BB27A12F902F6A
:102960008F2D880F8B831C820E94F412809162004D
:102970008B7F8093620064E0CE0101960E94AE10CE
:102980008091620084608093620082E08A95F1F712
:102990000E94C01080E090E024960FB6F894DEBF4D
:1029A0000FBECDBFDF91CF911F910F91FF90EF90A0
:1029B000089580910402992708950F931F93082F7B
:1029C000162F87E793E00E94FB08812F82958F7076
:1029D000002329F0979A880F880F806C04C097987D
:1029E000880F880F806482BB80ED97E0FC013197EF
:1029F000F1F796980197F1F7612F7727002349F0B7
:102A00006F707070660F771F660F771F862F806C50
:102A100008C06F707070660F771F660F771F862F64
:102A2000806482BB80ED97E0FC013197F1F79698C6
:102A30000197F1F787E793E00E9495081F910F91A6
:102A400008950F931F9307E713E0C8010E94FB0846
:102A500061E080E00E94DD1462E080E00E94DD140D
:102A600010920402C8010E9495081F910F910895C9
:102A70001F93182F87E793E00E94FB08109304022E
:102A8000103108F0105D1068612F80E00E94DD14A5
:102A900087E793E00E9495081F9108951F93182FD0
:102AA00087E793E00E94FB0880910502882339F0B4
:102AB0000E94211580E00E943815109205021A30FC
:102AC00031F481E0809305021092040211C0612F5D
:102AD00081E00E94DD14809104028F3021F460ECCB
:102AE00080E00E94DD14809104028F5F80930402D5
:102AF00087E793E00E949508812F992787FD90959D
:102B00001F9108950F931F93CF93DF93EC0187E7F5
:102B100093E00E94FB0800E010E01AC021966A30A2
:102B200039F460E880E00E94DD141092040203C0D2
:102B300081E00E94DD140F3021F460EC80E00E94FF
:102B4000DD14809104028F5F809304020F5F1F4F9A
:102B50006881662319F787E793E00E949508DF9163
:102B6000CF911F910F910895FF920F931F93CF93D1
:102B7000DF93F82E8B0187E793E00E94FB08FF0CA0
:102B8000FF0CFF0CE80100E06F2D600F606480E037
:102B90000E94DD14FE01649181E00E94DD140F5F4C
:102BA0002196083089F787E793E00E949508DF9126
:102BB000CF911F910F91FF900895CF92DF92EF92E6
:102BC000FF920F931F936C018B0127E7E22E23E006
:102BD000F22EC7010E94FB08A801B60189EC91E022
:102BE0000E94C31E8C01C7010E949508C8011F9155
:102BF0000F91FF90EF90DF90CF900895CF93DF93E8
:102C0000CDB7DEB722970FB6F894DEBF0FBECDBFAB
:102C1000FE01379681919191FA83E983BF010E9469
:102C2000DD1522960FB6F894DEBF0FBECDBFDF9143
:102C3000CF910895CF92DF92EF92FF920F931F935F
:102C40006C018B0137E7E32E33E0F32EC7010E94BE
:102C5000FB08A801B60189EC91E00E94CE188C0116
:102C6000C7010E949508C8011F910F91FF90EF9036
:102C7000DF90CF900895CF93DF93CDB7DEB7229743
:102C80000FB6F894DEBF0FBECDBFFE01379681911F
:102C90009191FA83E983BF010E941A1622960FB61A
:102CA000F894DEBF0FBECDBFDF91CF91089580E0D5
:102CB00090E00197F1F763E380E00E94DD1462E3A6
:102CC00080E00E94DD1461ED75E081E00E94B415A2
:102CD00069ED75E082E00E94B41561EE75E083E075
:102CE0000E94B41569EE75E084E00E94B41561EFAE
:102CF00075E085E00E94B41569EF75E086E00E94FA
:102D0000B41561E080E00E94DD1462E080E00E9482
:102D1000DD1466E080E00E94DD146CE080E00E943B
:102D2000DD1460EC71E087E793E00E94E508089508
:102D30000895CF92DF92EF92FF920F931F93082F87
:102D40007B019CE7C92E93E0D92EC6010E94FB08A7
:102D5000000F005E112700501F4EF801E192EF2C8A
:102D6000FF24E082C6010E9495081F910F91FF90F9
:102D7000EF90DF90CF900895FF920F931F93F82E5E
:102D80008B01B801882777FD8095982F0E94362007
:102D900017FF06C020E030E040E857E40E94331FF0
:102DA00021E632EC44E85FE30E94EA200E9408201A
:102DB0006F5B7F4F8F2D0E9499161F910F91FF908F
:102DC000089567ED71E08CE793E00E94E5080895AF
:102DD000EF92FF921F9381E8E82E83E0F82EC7015F
:102DE0000E94FB0810911E11C7010E9495081095C2
:102DF000812F99271F91FF90EF9008951F93182F0F
:102E00008830A8F481E893E00E94FB0880911E11AD
:102E100099278095909502C0959587951A95E2F728
:102E2000182F117081E893E00E9495080FC0883137
:102E300040F40E94811810E08150924038F011E077
:102E400005C081E096E00E94740A10E0812F992766
:102E50001F91089562EE71E081E893E00E94E50819
:102E6000089581B1992725E0969587952A95E1F7F0
:102E70008095909581709070089581B1992734E084
:102E8000969587953A95E1F7809590958170907029
:102E900008950F931F93CF93DF93CDB7DEB722979B
:102EA0000FB6F894DEBF0FBECDBFAE014F5F5F4FD0
:102EB0006FE070E080E090E00E94271209811A81A3
:102EC000B801882777FD8095982F0E94362017FF3C
:102ED00006C020E030E040E857E40E94331F2CE1B8
:102EE00035E441E251E40E94EA200E940820DC011E
:102EF000CB0122960FB6F894DEBF0FBECDBFDF9197
:102F0000CF911F910F910895CF93DF93CDB7DEB787
:102F100022970FB6F894DEBF0FBECDBFAE014F5F54
:102F20005F4F61E070E080E090E00E94691089816D
:102F30009A8122960FB6F894DEBF0FBECDBFDF9107
:102F4000CF910895CF92DF92EF92FF920F931F934C
:102F50006C017B010E948417AA27BB27EC18FD088F
:102F60000894E11CF11C00271127BC01CD01A80128
:102F700097010E944D214AE0969587957795679530
:102F80004A95D1F7C60ED71EC6011F910F91FF902B
:102F9000EF90DF90CF9008950D99FECF80E08A9555
:102FA000F1F70D9BFECF08950C99FECF80E08A9536
:102FB000F1F70C9BFECF08952F923F924F925F92B4
:102FC0006F927F928F929F92AF92BF92CF92DF9239
:102FD000EF92FF920F931F93CF93DF937B019C019E
:102FE0004427552760E874E88EE190E00E947F2135
:102FF000E901C90196958795969587951C0144240A
:10300000552400271127C801B7012CE231E040E028
:1030100050E00E944D213B014C01AA24BB246501D4
:1030200057C0C49ABE01882777FD8095982F0E94CB
:103030003620D7FF06C020E030E040E857E40E9489
:10304000331F2BEA3AEA4AE250E40E94EA207B016D
:103050008C0120E030E040E85FE30E94971F882366
:1030600014F461E010C020E030E04FE753E4C80101
:10307000B7010E94E620181614F460E004C0C801ED
:10308000B7010E9408206A95F1F7C49820E030E06B
:1030900040E85FE3C801B7010E94971F882314F43A
:1030A00061E010C020E030E04FE753E4C801B70111
:1030B0000E94E620181614F460E004C0C801B701AD
:1030C0000E9408206A95F1F7A20CB31CC41CD51C01
:1030D000A614B704C804D90408F4A3CFDF91CF9194
:1030E0001F910F91FF90EF90DF90CF90BF90AF9026
:1030F0009F908F907F906F905F904F903F902F9018
:1031000008951F93CF93DF93CDB7DEB722970FB605
:10311000F894DEBF0FBECDBF182F8850883038F02E
:1031200014C087E296E00E94740A0E94B50D67E120
:1031300070E0611B7109AE014F5F5F4F81E090E06D
:103140000E942712882369F71DC0812F8051883083
:1031500038F014C08AE196E00E94740A0E94B50D0E
:103160006FE170E0611B7109AE014F5F5F4F82E05C
:1031700090E00E942712882369F704C08EE096E051
:103180000E94740A89819A8122960FB6F894DEBF54
:103190000FBECDBFDF91CF911F910895A1E1B0E0A7
:1031A000E4EDF8E10C94A1213C017F876E876A0170
:1031B000FC0117821682838181FD03C06FEF7FEFD0
:1031C00071C39E012F5F3F4F398B288BF301238101
:1031D000EE85FF8523FD859123FF8191FF87EE8793
:1031E000882309F45CC3853251F4EE85FF8523FD05
:1031F000859123FF8191FF87EE87853229F490E046
:10320000B3010E94971EE2CF982F10E088249924E2
:103210001032B0F49B3269F09C3228F4903251F0B5
:10322000933271F40BC09D3239F0903349F4116040
:1032300028C01260146025C0186023C0106121C02E
:1032400017FD2AC0892F80538A3078F416FF06C0F4
:10325000FAE09F9E902C1124980E13C03AE0839EB2
:10326000802C1124880E10620CC09E3221F416FDB1
:1032700016C3106406C09C3611F4106802C098365C
:1032800059F4EE85FF8523FD959123FF9191FF87EA
:10329000EE87992309F0BCCF892F8554833020F421
:1032A000812F8061905E07C0892F8556833008F09A
:1032B000A1C1812F8F7E86FD02C076E0972E6FE33D
:1032C000F62EF822953619F4F0E4FF2A07C0963658
:1032D00019F420E8F22A02C091109A94F7FE0BC06C
:1032E0003BE3391520F427E05CE3B52E0EC0B92C82
:1032F000B39427E00AC047E0491528F427E0BB242F
:1033000047E0942E02C0292DBB24C60104969D8758
:103310008C87F6016081718182819381AE014F5F5C
:103320005F4F0B2D0E94591D6C010981202E332403
:1033300000FF04C003FD02C01DE209C0F1FE02C08F
:103340001BE205C0F2FC02C010E001C010E2C101A6
:103350008C709070892BB9F1112311F483E001C0B6
:1033600084E0881510F088240AC0881AF3FC07C08E
:1033700080E290E0B3010E94971E8A94C9F711235E
:1033800029F0812F90E0B3010E94971E23FE03C015
:1033900004E316E00EC008E316E00BC0E114F104EC
:1033A00009F0805290E0B3010E94971E0F5F1F4FFB
:1033B00005C0EF2CFF24F0E1EF22FF24F8018491F7
:1033C000882361F714C1F7FE12C0BC0C24FE04C0B0
:1033D0008A81813309F4BA941B141CF0BB24B39482
:1033E0002DC0F8E0FB1550F538E0B32E27C0F6FCF1
:1033F00025C0892D90E08C159D054CF02CEFC21650
:103400002FEFD20624F030E8F32A01C09A949920D5
:1034100049F0E2E0F0E0EC0FFD1FE90DF11D8081C5
:103420008033A1F3F7FE0AC0B92CB394892D90E044
:10343000C816D90614F0992401C09C18F7FC03C0E3
:1034400025E030E009C01C141D041CF021E030E030
:1034500003C096012F5F3F4F112311F02F5F3F4FA5
:10346000992029F0892D90E00196280F391F882D89
:1034700090E02817390714F0882401C0821A4F2CD5
:103480005524C20189709070892B39F008C080E200
:1034900090E0B3010E94971E8A948820C1F71123FF
:1034A00029F0812F90E0B3010E94971E43FE07C0D0
:1034B00008C080E390E0B3010E94971E8A948820A0
:1034C000C1F7F7FE46C08601D7FE02C000E010E05B
:1034D00076010894E11CF11CE01AF10A41E050E089
:1034E0004C0F5D1FE40EF51E26014B185108892D67
:1034F00090E0AA24BB24A81AB90A5FEF0F3F150772
:1035000029F48EE290E0B3010E94971EC016D10606
:1035100034F0401651061CF4F701808101C080E3AD
:10352000015010400894E11CF11C0A151B052CF0F9
:1035300090E0B3010E94971EE0CF0C151D0539F4F1
:103540009A81963318F4953311F424FE81E390E0C8
:103550004BC08A81813309F00F7E90E0B3010E9455
:10356000971E9920A1F08EE290E0B3010E94971E71
:1035700012E0E1E0F0E0EC0FFD1FE10FF11D1F5F35
:10358000808190E0B3010E94971E9A9491F744FCC9
:1035900003C085E690E002C085E490E0B3010E949C
:1035A000971ED7FC05C0C114D10441F404FF06C026
:1035B000D094C194D108D3948DE201C08BE290E005
:1035C000B3010E94971E80E305C08F5F26EF3FEF97
:1035D000C20ED31E3AE0C316D104BCF790E0B3018B
:1035E0000E94971EC601C096B3010E94971ECC840C
:1035F000DD8452C1933631F0933799F0933509F059
:1036000059C023C0F601808189835E010894A11C02
:10361000B11C22E030E0C20ED31E21E0E22EF12CDC
:1036200012C0F601A080B18016FD03C06FEF7FEFDE
:1036300002C0692D70E022E030E0C20ED31EC50149
:103640000E948C1E7C011F7713C0F601A080B18000
:1036500016FD03C06FEF7FEF02C0692D70E022E01E
:1036600030E0C20ED31EC5010E94811E7C0110688D
:1036700013FF07C01BC080E290E0B3010E94971EB9
:103680008A94882D90E0E816F906A8F30FC0F5019A
:1036900017FD859117FF81915F0190E0B3010E94B2
:1036A000971E81108A940894E108F108E114F1044E
:1036B00071F7F2C0943611F0993689F517FF08C0FA
:1036C000F601208131814281538184E090E00AC07B
:1036D000F601808191819C01442737FD4095542F4C
:1036E00082E090E0C80ED91E9FE6F92EF12257FF26
:1036F00009C050954095309521953F4F4F4F5F4FF2
:1037000090E8F92ACA01B901AE014F5F5F4F2AE084
:1037100030E00E94D41EE82EE889EE1A41C09537A9
:1037200021F41F7E2AE030E01CC0197F9F3661F033
:10373000903720F4983509F0B2C00FC0903739F0B7
:10374000983709F0ACC004C028E030E00AC010612E
:1037500014FD146020E130E004C014FD166020E187
:1037600032E017FF08C0F601608171818281938188
:1037700044E050E008C0F60180819181BC0180E006
:1037800090E042E050E0C40ED51EAE014F5F5F4FA7
:103790000E94D41EE82E5889E51A8FE7F82EF122F0
:1037A000F6FE0BC08EEFF822E91438F4F4FE07C0E1
:1037B000F2FC05C09FEEF92202C01E2D01C0192D9A
:1037C000F4FE0DC0FE01EE0DF11D8081803319F471
:1037D000E9EEFE2208C01F5FF2FE05C003C08F2D78
:1037E000867809F01F5F0F2DF3FC14C0F0FE0FC0A8
:1037F000181510F09E2C0BC09E2C980C911A182DA9
:1038000006C080E290E0B3010E94971E1F5F18156A
:10381000C0F304C0181510F4811A01C0882404FFF5
:103820000FC080E390E0B3010E94971E02FF1DC00D
:1038300001FD03C088E790E00EC088E590E00BC072
:10384000802F867891F001FF02C08BE201C080E2F8
:10385000F7FC8DE290E0B3010E94971E06C080E362
:1038600090E0B3010E94971E9A94E914C0F3EA9481
:10387000E1E0F0E0EC0FFD1FEE0DF11D808190E026
:10388000B3010E94971EEE2091F706C080E290E0FF
:10389000B3010E94971E8A948820C1F797CCF30148
:1038A00066817781CB016196E2E10C94BD21CF93D3
:1038B000DF93BC018230910510F462E070E0A091CA
:1038C0008803B0918903ED01E0E0F0E040E050E0D2
:1038D00021C0888199818617970769F48A819B8125
:1038E000309719F09383828304C090938903809367
:1038F0008803FE0134C06817790738F44115510573
:1039000019F08417950708F4AC01FE018A819B81A8
:103910009C01E9012097E9F641155105A9F1CA0179
:10392000861B970B049708F4BA01E0E0F0E02AC088
:103930008D919C91119784179507F9F46417750779
:1039400081F412968D919C911397309719F093837F
:10395000828304C09093890380938803FD0132968B
:103960004CC0CA01861B970BFD01E80FF91F61933C
:10397000719302978D939C9340C0FD018281938146
:103980009C01D9011097A1F680918603909187033D
:10399000892B41F48091F1019091F201909387037A
:1039A000809386034091F3015091F4014115510534
:1039B00041F44DB75EB78091EF019091F001481B43
:1039C000590B2091860330918703CA01821B930B08
:1039D0008617970780F0AB014E5F5F4F84179507FE
:1039E00050F0420F531F5093870340938603F90111
:1039F0006193719302C0E0E0F0E0CF01DF91CF91DD
:103A00000895CF93DF93009709F450C0EC012297FB
:103A10001B821A82A0918803B0918903109709F143
:103A200040E050E0AC17BD0708F1BB83AA83FE015C
:103A300021913191E20FF31FAE17BF0779F48D91F9
:103A40009C911197280F391F2E5F3F4F3983288390
:103A500012968D919C9113979B838A8341155105F2
:103A600071F4D0938903C093880320C012968D917E
:103A70009C911397AD01009711F0DC01D3CFFA01AF
:103A8000D383C28321913191E20FF31FCE17DF0759
:103A900069F488819981280F391F2E5F3F4FFA0101
:103AA000318320838A819B8193838283DF91CF91AD
:103AB0000895283008F027E03327DA01990F311DE7
:103AC00087FD916000966105710539F432602E5FC3
:103AD0003D9330E32A95E1F708959F3F30F0803819
:103AE0007105610509F03C5F3C5F3D93913008F042
:103AF0008068911DDF93CF931F930F93FF92EF92F6
:103B0000192F987F9695E92F96959695E90FFF279F
:103B1000EA56F94F99273327EE24FF24A701E7013E
:103B200005900894079428F4360FE71EF81E491FE5
:103B3000511D660F771F881F991F0694A1F70590E6
:103B4000079428F4E70EF81E491F561FC11D770F72
:103B5000881F991F661F0694A1F70590079428F403
:103B6000F80E491F561FC71FD11D880F991F661FCA
:103B7000771F0694A1F70590079420F4490F561F6C
:103B8000C71FD81F990F661F771F881F0694A9F7B4
:103B900084911095177041F0D695C7955795479524
:103BA000F794E7941A95C1F7ECE3F6E06894159062
:103BB000159135916591959105907FE27395E11886
:103BC000F10A430B560BC90BD009C0F7E10CF11EEB
:103BD000431F561FC91FD01D7EF4703311F48A9500
:103BE000E6CFE894015030F0080F0AF400270217DE
:103BF00008F4202F2395022F7A3328F079E37D9360
:103C00002A95E9F710C07D932A9589F60694979531
:103C10006795379517951794E118F10A430B560BE2
:103C2000C90BD00998F023957E9173957A3308F0EB
:103C300070E37C932013B8F77E9170617D9330F030
:103C4000839571E37D9370E32A95E1F71124EF905A
:103C5000FF900F911F91CF91DF91992787FD90954C
:103C60000895DC012D923D924D925D926D927D9270
:103C70008D929D92AD92BD92CD92DD92ED92FD928C
:103C80000D931D93CD93DD93FF91EF918DB78D93A0
:103C90008EB78D938FB78D93ED93FD9388279927DA
:103CA0000994DC01CB0181309105811D2D903D905F
:103CB0004D905D906D907D908D909D90AD90BD905C
:103CC000CD90DD90ED90FD900D911D91CD91DD9108
:103CD000ED91FD910D90F894FEBF0FBEEDBFED91FB
:103CE000FD910994FB01DC014150504048F00590E2
:103CF0000D920020C9F701C01D9241505040E0F7DD
:103D00000895FC010590615070400110D8F780952E
:103D100090958E0F9F1F0895FC0161507040019097
:103D20000110D8F7809590958E0F9F1F08950F93DF
:103D30001F93CF93DF938C01EB018B8181FF1BC01D
:103D400082FF0DC02E813F818C819D81281739070C
:103D500064F4E881F9810193F983E88306C0E8857A
:103D6000F985802F0995892B31F48E819F810196E9
:103D70009F838E8302C00FEF1FEFC801DF91CF91A9
:103D80001F910F9108950F931F938C01FC01838164
:103D900088608383C8010E94CE18F8012381277FA1
:103DA00023831F910F910895FA01AA27283051F11A
:103DB000203181F1E8946F936E7F6E5F7F4F8F4F5C
:103DC0009F4FAF4FB1E03ED0B4E03CD0670F781FBB
:103DD000891F9A1FA11D680F791F8A1F911DA11DA0
:103DE0006A0F711D811D911DA11D20D009F46894D9
:103DF0003F912AE0269F11243019305D3193DEF681
:103E0000CF010895462F4770405D4193B3E00FD036
:103E1000C9F7F6CF462F4F70405D4A3318F0495D21
:103E200031FD4052419302D0A9F7EACFB4E0A69504
:103E30009795879577956795BA95C9F70097610526
:103E4000710508959B01AC010A2E0694579547957C
:103E500037952795BA95C9F7620F731F841F951F71
:103E6000A01D08955058BB27AA270ED075C166D152
:103E700030F06BD120F031F49F3F11F41EF45BC1A0
:103E80000EF4E095E7FB51C1E92F77D180F3BA1723
:103E9000620773078407950718F071F49EF58FC1C8
:103EA0000EF4E0950B2EBA2FA02D0B01B901900155
:103EB0000C01CA01A0011124FF27591B99F0593F99
:103EC00050F4503E68F11A16F040A22F232F342FE1
:103ED0004427585FF3CF469537952795A795F0402F
:103EE0005395C9F77EF41F16BA0B620B730B840B44
:103EF000BAF09150A1F0FF0FBB1F661F771F881FFC
:103F0000C2F70EC0BA0F621F731F841F48F4879553
:103F100077956795B795F7959E3F08F0B3CF939542
:103F2000880F08F09927EE0F979587950895D9D0B7
:103F300008F481E008950CD00FC107D140F0FED005
:103F400030F021F45F3F19F0F0C0511139C1F3C0D6
:103F500014D198F39923C9F35523B1F3951B550B4D
:103F6000BB27AA2762177307840738F09F5F5F4F4C
:103F7000220F331F441FAA1FA9F333D00E2E3AF08D
:103F8000E0E830D091505040E695001CCAF729D0A7
:103F9000FE2F27D0660F771F881FBB1F26173707F6
:103FA0004807AB07B0E809F0BB0B802DBF01FF2726
:103FB00093585F4F2AF09E3F510568F0B6C000C18C
:103FC0005F3FECF3983EDCF3869577956795B79560
:103FD000F7959F5FC9F7880F911D9695879597F97B
:103FE0000895E1E0660F771F881FBB1F62177307F4
:103FF0008407BA0720F0621B730B840BBA0BEE1F09
:1040000088F7E095089504D06894B111D9C0089557
:10401000BCD088F09F5790F0B92F9927B751A0F0E6
:10402000D1F0660F771F881F991F1AF0BA95C9F74C
:1040300012C0B13081F0C3D0B1E00895C0C0672F85
:10404000782F8827B85F39F0B93FCCF386957795FC
:104050006795B395D9F73EF49095809570956195E5
:104060007F4F8F4F9F4F0895E89409C097FB3EF410
:1040700090958095709561957F4F8F4F9F4F9923B5
:10408000A9F0F92F96E9BB279395F6958795779533
:104090006795B795F111F8CFFAF4BB0F11F460FFF3
:1040A0001BC06F5F7F4F8F4F9F4F16C0882311F04B
:1040B00096E911C0772321F09EE8872F762F05C05F
:1040C000662371F096E8862F70E060E02AF09A95FA
:1040D000660F771F881FDAF7880F9695879597F9EF
:1040E0000895990F0008550FAA0BE0E8FEEF161689
:1040F0001706E807F907C0F012161306E407F507DC
:1041000098F0621B730B840B950B39F40A2661F04F
:10411000232B242B252B21F408950A2609F4A140F2
:10412000A6958FEF811D811D089597F99F6780E8FF
:1041300070E060E008959FEF80EC089500240A94F9
:104140001616170618060906089500240A94121672
:104150001306140605060895092E0394000C11F4A5
:10416000882352F0BB0F40F4BF2B11F460FF04C052
:104170006F5F7F4F8F4F9F4F089557FD9058440FAB
:10418000551F59F05F3F71F04795880F97FB991FB6
:1041900061F09F3F79F08795089512161306140673
:1041A000551FF2CF4695F1DF08C016161706180600
:1041B000991FF1CF86957105610508940895E894DB
:1041C000BB2766277727CB0197F908958ADF08F484
:1041D0008FEF08950BD0C0CFB1DF28F0B6DF18F015
:1041E000952309F0A2CFA7CF1124EACFC6DFA0F311
:1041F000959FD1F3950F50E0551F629FF001729F7C
:10420000BB27F00DB11D639FAA27F00DB11DAA1F9A
:10421000649F6627B00DA11D661F829F2227B00DE7
:10422000A11D621F739FB00DA11D621F839FA00D72
:10423000611D221F749F3327A00D611D231F849FC2
:10424000600D211D822F762F6A2F11249F57504019
:104250008AF0E1F088234AF0EE0FFF1FBB1F661FB4
:10426000771F881F91505040A9F79E3F510570F06D
:104270005CCFA6CF5F3FECF3983EDCF38695779555
:104280006795B795F795E7959F5FC1F7FE2B880F68
:10429000911D9695879597F90895629FD001739F18
:1042A000F001829FE00DF11D649FE00DF11D929FD2
:1042B000F00D839FF00D749FF00D659FF00D992711
:1042C000729FB00DE11DF91F639FB00DE11DF91F35
:1042D000BD01CF011124089597FB092E07260AD0AE
:1042E00077FD04D065D006D000201AF47095619552
:1042F0007F4F0895F6F7909581959F4F0895A1E21D
:104300001A2EAA1BBB1BFD010DC0AA1FBB1FEE1F4F
:10431000FF1FA217B307E407F50720F0A21BB30B9A
:10432000E40BF50B661F771F881F991F1A9469F716
:1043300060957095809590959B01AC01BD01CF0172
:1043400008952F923F924F925F926F927F928F9239
:104350009F92AF92BF92CF92DF92EF92FF920F9314
:104360001F93CF93DF93CDB7DEB7CA1BDB0B0FB61E
:10437000F894DEBF0FBECDBF09942A8839884888DB
:104380005F846E847D848C849B84AA84B984C88471
:10439000DF80EE80FD800C811B81AA81B981CE0F68
:1043A000D11D0FB6F894DEBF0FBECDBFED0108954D
:1043B000AA1BBB1B51E107C0AA1FBB1FA617B7074B
:1043C00010F0A61BB70B881F991F5A95A9F7809567
:0843D0009095BC01CD01089598
:1043D8000A7374617274696E6720706964000A6791
:1043E8006F616C2072656163686564006D6F746FDE
:1043F80072206C6F636B00040502030001656E6335
:104408006F646572206C6F636B00726F626F7420EB
:104418006D6F6E69746F720075736572206D616976
:104428006E00014861707079626F61726420762550
:10443800582E2530325820202020202020202020CF
:10444800202020202005000069646C6500756E6BD3
:104458006E6F776E20696E74657272757074002560
:10446800730025730A00616463206C6F636B0073CB
:104478007069206C6F636B0055415254206C6F63F8
:104488006B000000000200000000DC1000000000CB
:104498004C4344206C6F636B000000000200000076
:1044A800004E1500000000736572766F206C6F6314
:1044B8006B006469676974616C206C6F636B0020C2
:0644C8000090030000005B
:00000001FF
