:100000000C94F3030C9413040C9413040C94130435
:100010000C9413040C9413040C9413040C94130404
:100020000C9413040C9413040C94D81A0C94130419
:100030000C9413040C9413040C9413040C941304E4
:100040000C9413040C9413040C9413040C941304D4
:100050000C9413040C9413040C9413040C941304C4
:100060000C9413040C9413040C9413040C941304B4
:100070000C9413040C9413040C9413040C941304A4
:100080000C9413040C9413040C9413047F0D8B0D27
:10009000900D950D9A0D9F0DA40DAD0DB20DBB0DDC
:1000A000C40DC90DD20DDB0DE00DE50DEA0DEF0D10
:1000B000072C7AA5BA6CC590DA3B9365FC8BBC53D0
:1000C000F810FD3C5692834DBD879D3AB63DCBC995
:1000D000BF5BBE73DA0FC93F0A43616C696272612C
:1000E00074696E67206F66667365742E000A5374B8
:1000F0006162696C697A696E67000A507265737330
:1001000020676F2E007570646174655F7069643A72
:10011000206E6F20696E707574007570646174650F
:100120005F7069643A207069642064697361626C0D
:100130006564006572726F722025302E33660A0086
:1001400063757272656E742076616C7565202530FA
:100150002E33660A00696E69745F7069643A2070B4
:100160006964206E756C6C00616E616C6F675F72A4
:10017000656164006D637033303038206661696C8E
:10018000006D637033303038206661696C006D61DA
:10019000696E000A004A6F794F532076302E322E56
:1001A000342D524334202020205072657373204731
:1001B0004F002020202020202020206D656D6F72B0
:1001C000792066756C6C00686561702073697A656A
:1001D0003A2025642062797465730A005F5F6D615F
:1001E0006C6C6F635F686561705F656E64203D2055
:1001F00025700A005F5F6D616C6C6F635F6865619D
:10020000705F7374617274203D2025700A007275EE
:100210006E6177617920636F6465000A526F756E55
:100220006420656E64000A526F626F7420726561AB
:1002300064792E2020202050726573732027476F29
:1002400027006C6F636B2068656C642062792061A5
:100250006E6F746865720072656C65617365207598
:100260006E68656C64206C6F636B0072656C6561B1
:100270007365206E756C6C206C6F636B0069735FC7
:1002800068656C64206E756C6C206C6F636B0061CC
:100290006371756972656420746F6F206D616E792A
:1002A0002074696D65730061637175697265206E94
:1002B000756C6C206C6F636B00696E6974206E7571
:1002C0006C6C206C6F636B00496E697420666169A9
:1002D0006C3A2025730A0D005541525430206F703E
:1002E000656E65642061742025640A0D00486170A4
:1002F0007079626F61726420696E697420737461D1
:10030000727465640A0D00486172647761726520D9
:1003100076657273696F6E2025582E253032580A23
:100320000D00426F61726420494420253034580A20
:100330000D00426F61726420636F6E666967204FC3
:100340004B0A0D0042617474657279204F4B3A205C
:1003500025646D560A0D0046504741207625642ECF
:1003600025640A0D0046504741206661696C75722C
:1003700065004C6F77206261747465727900426128
:100380006420436F6E666967000A70616E69633A44
:100390002025730070616E69633A2025730A00207E
:1003A000746872656164202874696420256429205A
:1003B0002725732720737461747573202564207258
:1003C000756E732025750A0020746872656164205B
:1003D000287469642025642920756E616C6C6F63D4
:1003E000617465640A0044756D70696E6720746895
:1003F00072656164207374617465733A0A002050F9
:10040000432020203A20253038700A0020535245DE
:1004100047203A20253032700A00205350202020F7
:100420003A20253034700A002046502020203A20FF
:10043000253034700A00203C6F6D697474696E67F2
:100440002072302D7233313E0A0044756D70696E32
:1004500067206A6D705F6275663A0A006F75742076
:100460006F66207468726561647300736C65657093
:10047000007969656C64006E6F2063757272656ED9
:10048000745F74687265616400737461636B206F7C
:10049000766572666C6F77007265736572766564F7
:1004A0002073706163653A20257020746F20257079
:1004B0000A00737461636B746F703A2025700A00D0
:1004C00070632061742025700A007370206F6620AD
:1004D0002725732720286964202564292069732033
:1004E00025700A000A737461636B206F766572660B
:1004F0006C6F770A0053502061626F7665006E6FF3
:100500002069646C65006D616C6C6F632073706151
:100510006365205B25702C25705D0A007468726528
:100520006164735B305D2E74685F7374617475739E
:100530002061742025700A00746872656164735BC1
:10054000305D2061742025700A0074696D65202576
:1005500064002D2D206E6F2069646C6520746872B4
:10056000656164202D2D0A007363686564756C6590
:10057000004F6F70732E2E2E20746865726527737E
:1005800020612072756E6E61626C652074687265A0
:100590006164207468617473206E6F742069646C88
:1005A000650A00207468726561642028746964209B
:1005B000256429202725732720737461747573209F
:1005C00025640A0020746872656164202874696477
:1005D0002025642920756E616C6C6F63617465649D
:1005E0000A0069646C65206672656500286964208C
:1005F00025642920737461636B205B25702C257042
:10060000290A00746872656164207461626C6520F7
:10061000656E642061742025700A007468726561DB
:1006200064207461626C65207374617274206174FB
:100630002025700A002520356420202025347020D4
:100640002020253032780A003D3D3D3D3D3D3D3D79
:100650003D3D3D3D3D3D3D3D3D3D3D3D0A00494E1D
:100660004445582020204144445220202056414CEB
:1006700055450A0000000A0000110E0000000A00A3
:1006800000111F0000000A00000E1100000E1F11D3
:1006900011111F000000000000001500000E0E0EDA
:1006A0001F0E04006469676974616C5F7265616440
:1006B000005258206C656E3A20253032580A00529C
:1006C0005820706970653A20253032580A00545815
:1006D0002041434B207374617475733A2025303286
:1006E000580A006E616E00696E660000407A10F371
:1006F0005A00A0724E18090010A5D4E80000E87650
:1007000048170000E40B54020000CA9A3B000000A6
:10071000E1F505000080969800000040420F0000BF
:1007200000A08601000000102700000000E8030080
:100730000000006400000000000A0000000000014A
:1007400000000000002C76D888DC674F0823DFC14A
:10075000DFAE59E1B1B796E5E3E453C63AE6519905
:100760007696E8E6C28426EB898C9B62ED407C6F2E
:10077000FCEFBC9C9F40F2BAA56FA5F490055A2AE5
:10078000F75C936B6CF9676DC11BFCE0E40D47FEF1
:10079000F520E6B500D0ED902E03009435770500E6
:1007A00080841E080000204E0A000000C80C33336D
:1007B00033330F986E12831141EF8D2114893BE67C
:1007C0005516CFFEE6DB18D1844B381BF77C1D9005
:1007D0001DA4BBE424203284725E228100C9F1246E
:1007E000ECA1E53D270011241FBECFEFD0E1DEBF15
:1007F000CDBF12E0A0E0B1E0E0E9F4E600E00BBF1D
:1008000002C007900D92A037B107D9F71BBE14E0C4
:10081000A0E7B2E001C01D92A038B107E1F70E9445
:100820004B130C94E0190C94B21A0F931F930E946F
:100830006805182F092F0E944405BC01812F902FB5
:100840000E949F04812F902F1F910F910895EF9286
:10085000FF921F93CF93DF930E9415047C0110E059
:10086000E12FF0E0EE0FFF1FEE0DFF1DEF0163968D
:1008700083899489009739F00E949904892B19F48F
:10088000E880F980ECCF1F5F143050F3E8CF0F936E
:100890001F9380E00E94481300D08AEF90E0EDB7EC
:1008A000FEB7928381830E949F2D0F900F900E942C
:1008B0007B1000D08DEE90E0EDB7FEB79283818380
:1008C0000E949F2D0F900F9064EF71E080E090E008
:1008D0000E94FE1900D088ED90E0EDB7FEB792833C
:1008E00081830E949F2D0F900F9088E04CE054E28E
:1008F00068EA79E408E813E120E030E00E94BF12E2
:1009000080E090E0A0E0B0E08093A0029093A1028C
:10091000A093A202B093A3028093A4029093A50295
:10092000A093A602B093A70280E090E01F910F91E0
:100930000895FC0120813181F901099508959C01F8
:10094000DC01E0E0F0E053968D919C915497892B67
:1009500039F4EE0FFF1FE20FF31F748B638B0895C2
:1009600031961296E430F10571F70895CF93DF9335
:1009700080E090E00E94410EBC0181E00E94A80E40
:1009800068EE73E080E090E00E94FE1987E190E05D
:100990000E94730EEC018AE590E00E94410EBC01BA
:1009A00081E00E94A80E68EE73E080E090E00E9473
:1009B000FE1987E190E00E94730E20E04E9708F444
:1009C00021E06E9760F4222329F060E070E084E378
:1009D00093E410C060E070E084EB92EC0BC0222343
:1009E00029F060E070E084EB92E404C060E070E025
:1009F00080E090E00E94FA1080E090E0DF91CF91DB
:100A0000089500D000D0EDB7FEB7319622E031E076
:100A1000ADB7BEB712963C932E931197DC01529658
:100A20008C91828313820E94111B0F900F900F9064
:100A30000F9064EF71E080E090E00E94FE190E9448
:100A40000F10882319F020E030E006C00E941B1030
:100A50008823A9F321E030E0C90108951F93182FDE
:100A60008BE190E00E94332BFC0121E035E03183E3
:100A70002083128B148A138A168A158A108E178A7D
:100A8000128E118E1F9108958BE190E00E94332BFE
:100A9000FC0127E53AE031832083148A138A168A01
:100AA000158A108E178A128E118E08958BE190E0B0
:100AB0000E94332BFC0126EB34E031832083148A1F
:100AC000138A168A158A108E178A128E118E08952F
:100AD0008BE190E00E94332BFC01148A138A168A62
:100AE000158A108E178A128E118E0895CF92EF926A
:100AF000FF920F931F93DF93CF93CDB7DEB72C9761
:100B00000FB6F894DEBF0FBECDBFE982FA820B8329
:100B10001C832D833E834F83588769877A878B8711
:100B20009C878BE190E00E94332BFC018DE59BE0DC
:100B3000DF018D939D93AD019E012F5F3F4F8CE0B0
:100B4000D9010D909D01DA010D92AD018150C1F7DF
:100B5000C28A148A138A168A158A108E178A128EF0
:100B6000118ECF012C960FB6F894DEBF0FBECDBF0D
:100B7000CF91DF911F910F91FF90EF90CF9008954B
:100B8000EF92FF920F931F93DF93CF93CDB7DEB712
:100B90002C970FB6F894DEBF0FBECDBFE982FA8264
:100BA0000B831C832D833E834F8358872D813E8189
:100BB0004F81588589819A81AB81BC818093A00245
:100BC0009093A102A093A202B093A3022093A40247
:100BD0003093A5024093A6025093A7022C960FB61D
:100BE000F894DEBF0FBECDBFCF91DF911F910F9163
:100BF000FF90EF9008952091C8023091C902409172
:100C0000CA025091CB02B901CA0108950895AF926A
:100C1000BF92CF92DF92EF92FF920F931F935B01EF
:100C20006C0179018A010E94A72E18162CF0C801C8
:100C3000B701A60195010CC0C601B501A801970135
:100C40000E94422E9B01AC0160E070E084EB93E4D3
:100C50000E94422E7B018C0120E030E044E353E40B
:100C60000E94C230181654F4C801B70120E030E0E9
:100C700044EB53E40E94422E7B018C01B701C80172
:100C80001F910F91FF90EF90DF90CF90BF90AF90AA
:100C900008952F923F924F925F926F927F928F9220
:100CA0009F92AF92BF92CF92DF92EF92FF920F93FB
:100CB0001F93DF93CF9300D000D00F92CDB7DEB754
:100CC00029833A834B835C83270138018D8221E09D
:100CD000222E312C92E0892E912C83E0E82EF12CEB
:100CE000B3C001301105E9F10130110540F00230C7
:100CF000110509F478C00330110599F7A1C000D09F
:100D000000D000D0ECE0F1E0ADB7BEB71296FC9396
:100D1000EE93119713964D925D926D927C92169779
:100D20000E94111BEDB7FEB736960FB6F894FEBFC2
:100D30000FBEEDBF68EE73E080E090E00E94FE1908
:100D40004092AC025092AD026092AE027092AF023D
:100D50003092B1022092B0029092B3028092B2021D
:100D600073C000D000D000D0EBE1F1E0ADB7BEB76A
:100D70001296FC93EE93119789819A81AB81BC8185
:100D8000EDB7FEB783839483A583B6830E94111BBE
:100D90008DB79EB706960FB6F8949EBF0FBE8DBF57
:100DA00068EE73E080E090E00E94FE199D81992337
:100DB00029F09092B1028092B00204C0F092B10288
:100DC000E092B00289819A81AB81BC818093B402A8
:100DD0009093B502A093B602B093B7023092B302DB
:100DE0002092B20231C000D000D000D0ECE0F1E09F
:100DF000ADB7BEB71296FC93EE9311971396AD92D2
:100E0000BD92CD92DC9216970E94111BEDB7FEB7F2
:100E100036960FB6F894FEBF0FBEEDBF68EE73E0D6
:100E200080E090E00E94FE19A092AC02B092AD0268
:100E3000C092AE02D092AF02F092B102E092B00244
:100E40001093B3020093B2020091B0021091B1026C
:100E50008091B2029091B302892B09F442CF0F9096
:100E60000F900F900F900F90CF91DF911F910F91E6
:100E7000FF90EF90DF90CF90BF90AF909F908F90BA
:100E80007F906F905F904F903F902F900895EF92DA
:100E9000FF920F931F937C0180E060E070E00E945E
:100EA000250F81E060E070E00E94250F0027F7FC2D
:100EB0000095102FC801B7010E94FE191F910F91D4
:100EC000FF90EF900895EF92FF920F931F930E946F
:100ED000342E21EE3EE245E652E40E94C6307B010C
:100EE0008C0120E030E040E050E00E94A72E8823F3
:100EF00054F4C801B70120E030E044EB53E40E9411
:100F0000432E7B018C01B701C8011F910F91FF9007
:100F1000EF9008950F931F93CF93DF930E941B10C0
:100F2000882339F083E090E09093B3028093B2027B
:100F30004FC089E10E94EA0FEC010091DC021091A0
:100F4000DD0288E10E94EA0F2091DA023091DB0293
:100F5000C01BD10BC21BD30BC80FD91FD695C79589
:100F60006091B4027091B5028091B6029091B7027F
:100F700020E030E040EF51E40E94C63020E030E055
:100F800040E451E40E94AB2E2CE33AE94FE550E4F3
:100F90000E94C6300E94522FCB0177FF03C090956C
:100FA00081959F4FC817D90798F01092B3021092FD
:100FB000B2028091B0029091B1028330910521F488
:100FC0009093B3028093B20288EC90E00E944707AE
:100FD000DF91CF911F910F9108954F925F926F9281
:100FE0007F928F929F92AF92BF92CF92DF92EF92B9
:100FF000FF920F931F932B013C0188EB92E040E09E
:1010000050E060EC7FE30DEC1CEC2CE43DE30F2E94
:10101000F0E0CF2EF0E0DF2EF0E0EF2EF0E0FF2E3C
:10102000F02DAA24BB24882499240E94120C4092FB
:10103000C8025092C9026092CA027092CB021F91FC
:101040000F91FF90EF90DF90CF90BF90AF909F9067
:101050008F907F906F905F904F9008954F925F9226
:101060006F927F928F929F92AF92BF92CF92DF92B8
:10107000EF92FF920F931F930E941B10882339F069
:1010800083E090E09093B3028093B2026CC00E9420
:1010900039117B018C016091AC027091AD0280919D
:1010A000AE029091AF0220E030E040E050E40E94B8
:1010B000422E9B01AC01C801B7010E94C230181634
:1010C0000CF051C00E9439117B018C014090AC02A0
:1010D0005090AD026090AE027090AF02C301B201B9
:1010E00020E030E040E050E40E94432E9B01AC0140
:1010F000C801B7010E94A72E8823ACF588EB92E0C7
:1011000040E050E060EC7FE30DEC1CEC2CE43DE3B0
:101110000F2EF0E0CF2EF0E0DF2EF0E0EF2EF0E02B
:10112000FF2EF02DAA24BB24882499240E94120C9F
:101130004092C8025092C9026092CA027092CB02D9
:101140001092B3021092B2028091B0029091B1025B
:101150008330910521F49093B3028093B20284EF1F
:1011600091E00E9447071F910F91FF90EF90DF9051
:10117000CF90BF90AF909F908F907F906F905F9037
:101180004F9008956F927F928F929F92AF92BF92ED
:10119000CF92DF92EF92FF920F931F93CF93DF9343
:1011A00000D083E391E0EDB7FEB7928381830E9484
:1011B000111BC1E0D0E00F900F90CDC00E943911FB
:1011C0003B014C016091B4027091B5028091B6026E
:1011D0009091B70220E030E040E050E00E94A72E5E
:1011E000882314F4CFEFDFEFE090AC02F090AD0273
:1011F0000091AE021091AF02C801B701A4019301A2
:101200000E94C2309E01442737FD4095542F181686
:101210000CF043C0CA01B9010E94842F5B016C012C
:10122000C801B701A40193010E94422E20E030E0E2
:1012300040E752E40E94432E20E030E044E253ECC9
:101240000F2EF0E0EF2EF0E0FF2EF4E20F2FF3E48C
:101250001F2FF02D0E940B0E9B01AC01C601B501A2
:101260000E94C6300E944D2F9B01AC0180E0B90165
:101270000E94250FC401B3012091AC023091AD0250
:101280004091AE025091AF020E94422E20E030E029
:1012900040E752E40E94422E42C0CA01B9010E94B6
:1012A000842F5B016C01C801B701A40193010E9466
:1012B000422E20E030E040E752E40E94422E20E03F
:1012C00030E044E253EC0F2EF0E0EF2EF0E0FF2E82
:1012D000F4E20F2FF3E41F2FF02D0E940B0E9B0161
:1012E000AC01C601B5010E94C6300E944D2F9B0182
:1012F000AC0180E0B9010E94250FC401B301209127
:10130000AC023091AD024091AE025091AF020E940A
:10131000422E20E030E040E752E40E94432E20E0DD
:1013200030E044E253EC0E940B0E9B01AC01C6017D
:10133000B5010E94C6300E944D2F9B01AC0181E097
:10134000B9010E94250F62E370E080E090E00E9406
:10135000FE190E942E088091B2029091B30202976A
:1013600009F42CCFDF91CF911F910F91FF90EF9057
:10137000DF90CF90BF90AF909F908F907F906F90B5
:10138000089522E030E03093B3022093B20223E0CC
:1013900030E03093B1022093B0026093AC027093BE
:1013A000AD028093AE029093AF0205C082309105EA
:1013B000E9F70E94C2088091B2029091B302833093
:1013C0009105A1F780E090E00895EF92FF920F93CE
:1013D0001F93CF93DF9300D082E491E0EDB7FEB787
:1013E000928381830E94111B0F900F9089E10E94CC
:1013F000EA0F9093DD028093DC0288E10E94EA0FFD
:101400009093DB028093DA02C2EAD0E01FC00E9410
:101410003911AB01BC0188EB92E00E94740C0E9470
:101420004D2F7B018C016A557F4F80E00E94250F74
:10143000BE016E197F0981E00E94250F62E370E012
:1014400080E090E00E94FE190E948A078091B2021B
:101450009091B3020197D9F2DF91CF911F910F9133
:10146000FF90EF90089521E030E03093B302209395
:10147000B20223E030E03093B1022093B0026093D7
:10148000B4027093B5028093B6029093B70205C080
:1014900081309105E9F70E94E5098091B2029091AF
:1014A000B30283309105A1F780E090E00895EF92B8
:1014B000FF920F931F9300D080E591E0EDB7FEB748
:1014C000928381830E94111B0F900F9080E06FEF39
:1014D00071E00E94A80E00D082E691E0EDB7FEB761
:1014E000928381830E94111B0F900F9064EF71E033
:1014F00080E090E00E94FE1960E070E080EC90ECEB
:101500000E94330A80E060E071E00E94250F81E0D4
:1015100060E071E00E94250F0E9449167B018C015A
:101520000AC080E064EF71E00E94A80E80E06FEFD7
:1015300071E00E94A80E0E9449166E197F09800B67
:10154000910B685B7B408040904058F380E090E0D6
:101550001F910F91FF90EF9008952F923F924F921D
:101560005F926F927F928F929F92AF92BF92CF9233
:10157000DF92EF92FF920F931F93DF93CF93CDB73C
:10158000DEB729970FB6F894DEBF0FBECDBF9E839E
:101590008D83798768874F8370C000D086E791E09C
:1015A000EDB7FEB7928381830E94111B0F900F90BD
:1015B00068EE73E080E090E00E94FE190E9439110D
:1015C00069837A838B839C83ED81FE816081718145
:1015D00082819381E885F98520813181428153811F
:1015E0000E94422E9B01AC010E94C6307B018C01FF
:1015F000ED81FE812480358046805780E885F9851D
:10160000A480B580C680D780C201B101A601950132
:101610000E94422E9B01AC010E94C6309B01AC018E
:10162000C801B7010E94432E0E942D313B014C019D
:10163000C601B501A20191010E94422EA4019301AD
:101640000E94AB2E0E9463077B018C016092B40262
:101650007092B5028092B6029092B702E885F98541
:10166000A084B184C284D38469817A818B819C8176
:10167000A40193018F800E9449068091B20290914B
:10168000B302892B09F489CF29960FB6F894DEBFEF
:101690000FBECDBFCF91DF911F910F91FF90EF90C3
:1016A000DF90CF90BF90AF909F908F907F906F9082
:1016B0005F904F903F902F900895AF92BF92CF923E
:1016C000DF92EF92FF920F931F93DF93CF93CDB7EB
:1016D000DEB7A4970FB6F894DEBF0FBECDBFFC01F6
:1016E0002281338144815581E680F7800085118510
:1016F000A284B384C484D58462898091A00290912D
:10170000A102A091A202B091A30289839A83AB8324
:10171000BC838091A4029091A502A091A602B091F1
:10172000A7028D839E83AF83B8878091A802909192
:10173000A902A091AA02B091AB0289879A87AB87D0
:10174000BC872D873E874F87588BE98AFA8A0B8B97
:101750001C8BAD8ABE8ACF8AD88E162F611111E0FC
:101760001092B3021092B2021092B1021092B00223
:101770004DE0C42ED12CCC0EDD1E7E010894E11C60
:10178000F11C15C08130910569F08130910520F080
:1017900082309105B9F709C0C701B601412F0E94F7
:1017A000AD0A05C00E94E50902C00E94C2088091EE
:1017B000B2029091B3028330910521F7DE01599670
:1017C000FE013D968CE001900D928150E1F72D8D48
:1017D0003E8D4F8D58A1898D9A8DAB8DBC8D809398
:1017E000A0029093A102A093A202B093A30220931F
:1017F000A4023093A5024093A6025093A70280E072
:1018000090E0A4960FB6F894DEBF0FBECDBFCF9187
:10181000DF911F910F91FF90EF90DF90CF90BF90DD
:10182000AF9008952F923F924F925F926F927F9266
:101830008F929F92AF92BF92CF92DF92EF92FF92E0
:101840000F931F93DF93CF9300D000D0CDB7DEB7B7
:101850003C011A012B0109831A832B833C830097D7
:1018600021F485E591E00E94E715D3012D923D9288
:101870004D925C92139789819A81AB81BC81F3016F
:1018800084839583A683B783D3011896CD92DD9286
:10189000ED92FC921B971D96BC92AE921C971F96E0
:1018A0009C928E921E9780E090E0A0E0B0E0848B46
:1018B000958BA68BB78B108E11A20F900F900F9067
:1018C0000F90CF91DF911F910F91FF90EF90DF90DC
:1018D000CF90BF90AF909F908F907F906F905F90D0
:1018E0004F903F902F9008952F923F924F925F928A
:1018F0006F927F928F929F92AF92BF92CF92DF9220
:10190000EF92FF920F931F93CF93DF93EC011A0195
:101910002B0100D000D000D080E491E0EDB7FEB7FD
:101920009283818343835483658376830E94C41C9E
:10193000688979898A899B89A20191010E94422E36
:101940005B016C0183E391E0EDB7FEB79283818385
:10195000A382B482C582D6820E94C41CC601B5018E
:10196000288139814A815B810E94C6307B018C01CC
:101970008DB79EB706960FB6F8949EBF0FBE8DBF6B
:10198000888D882359F40F2EF0E0AF2EF0E0BF2EA3
:10199000F0E0CF2EF0E0DF2EF02D52C00E9449166D
:1019A0002D8D3E8D4F8D58A1621B730B840B950BB3
:1019B0000E94822F2FE632E143E85AE30E94C630AC
:1019C0003B014C01A60195010E94C6302C893D893E
:1019D0004E895F890E94432E5B016C012C813D8101
:1019E0004E815F810E94C6309B01AC01C801B701E6
:1019F0000E94432E7B018C01C401B30120E030E042
:101A000040E050E00E94A72E8823D1F0C201B1012E
:101A1000298D3A8D4B8D5C8D0E94422E288539850B
:101A20004A855B850E94C630A40193010E94AB2EBB
:101A30009B01AC01C801B7010E94432E7B018C01C0
:101A400081E0888FAC8ABD8ACE8ADF8A298E3A8E61
:101A50004B8E5C8E0E9449166D8F7E8F8F8F98A360
:101A6000EE85FF85309719F0C801B7010995B701D8
:101A7000C801DF91CF911F910F91FF90EF90DF9000
:101A8000CF90BF90AF909F908F907F906F905F901E
:101A90004F903F902F900895CF93DF93EC0189A151
:101AA000882321F48AE191E00E94E7158C859D85C9
:101AB000892B21F485E091E00E94E715EC85FD85F6
:101AC0000995AB01BC01CE010E94740CDF91CF914E
:101AD0000895CF93DF93EC01CE010E944C0DFCCF13
:101AE000CF93DF93EC01FB016231710568F4EA5B8F
:101AF000FF4FEE0FFF1F0590F491E02D099420E0B9
:101B000030E04CE952E452C020E030E040E050E0E8
:101B1000DA01C9016CC020E030E04CE952E463C056
:101B200020E030E040E752E413C020E030E040E73E
:101B300052E433C020E030E048E552E417C020E032
:101B400030E048E552E41BC020E030E040E452E4DD
:101B500080E090E0A0E9B1E44AC020E030E040E459
:101B600052E41BC020E030E048E252E480E090E024
:101B7000A0ECB0E43CC020E030E048E252E480E079
:101B800090E0A4E8B2E433C020E030E040E152E469
:101B9000DFCF20E030E040E152E480E090E0A8E5D3
:101BA000B2E425C020E030E040E951E480E090E07C
:101BB000A0ECB1E41CC020E030E040E951E413C0E7
:101BC00020E030E040E752E4F1CF20E030E040E7B1
:101BD00052E409C020E030E040E152E4E7CF20E0E9
:101BE00030E040E152E480E090E0A0E4B2E42C83F5
:101BF0003D834E835F8388839983AA83BB8380E080
:101C000090E0A0E0B0E088879987AA87BB87CE01E3
:101C1000DF91CF9108956F927F928F929F92AF92B2
:101C2000BF92CF92DF92EF92FF920F931F93962E67
:101C3000872E782E692E59016A010E94A72E87FDF2
:101C400011C0692D782D872D962D9701A8010E942E
:101C5000C23018162CF0A92CB82CC72CD62C02C0D8
:101C600057016801B501C6011F910F91FF90EF90D8
:101C7000DF90CF90BF90AF909F908F907F906F90AC
:101C80000895AA2797FDA095BA2FBC01CD010E9407
:101C9000842F20E030E040E853E40E94C63020E08A
:101CA00030E044EB52E40E94AB2E20E030E04FE7FE
:101CB00053E40E94432E0E944D2FDC01CB0160E0D3
:101CC00072E00E94C1319C0197FF02C020503E4F3C
:101CD000C90108959093DF028093DE027093E102C0
:101CE0006093E00208950E945E0FBC018091DE02C5
:101CF0009091DF020E94AD318091E0029091E1026B
:101D0000681B790BCB0108950895CF92DF92EF9273
:101D1000FF920F931F93082F7B0192EEC92E92E042
:101D2000D92EC6010E946C14000F005E11270050CE
:101D30001F4EF801E192EF2CFF24E082C6010E94C1
:101D400006141F910F91FF90EF90DF90CF900895B0
:101D50001F93182F882799270E94822F21E632ECA3
:101D600044E85FE30E94C6300E94522F6F5B7F4FB2
:101D7000812F0E94850E1F91089566E871E082EE22
:101D800092E00E94561408951F93CF93DF93CDB72E
:101D9000DEB728970FB6F894DEBF0FBECDBF182F61
:101DA00087EE92E00E946C14DE011396ECE9F1E0FC
:101DB00086E001900D928150E1F7FE01E10FF11DE7
:101DC00063817727685F7F4FAE014F5F5F4F80E091
:101DD00090E00E94F01D87EE92E00E940614898137
:101DE0009A8128960FB6F894DEBF0FBECDBFDF9163
:101DF000CF911F9108950E94C40EAA27BB27BC0152
:101E0000CD010E94822F28E431EE40E851E40E9487
:101E1000C6300E94522FDC01CB010895FF920F9330
:101E20001F93F82E07EE12E0C8010E946C14FF0CFD
:101E3000EF2DFF27E050FF4E83E08083C8010E9412
:101E400006141F910F91FF9008951F93CF93DF9376
:101E5000182FEB0187EE92E00E946C14110F1C16F4
:101E60001D0634F4E12FFF27E050FF4E81E007C04C
:101E7000E12FFF27209729F0E050FF4E82E080837A
:101E800003C0E050FF4E1082E12FFF27EF5FFE4EB0
:101E9000BE01D7FF03C0709561957F4F608387EEC9
:101EA00092E00E940614DF91CF911F91089561E99D
:101EB00071E087EE92E00E9456140895CF92DF926F
:101EC000EF92FF920F931F93CF93DF93CDB7DEB7BF
:101ED00022970FB6F894DEBF0FBECDBF982F885063
:101EE0008830E0F406C0C7010E94E7150E94B519CA
:101EF0000CC007E110E0091B11096E010894C11C18
:101F0000D11C91E8E92E91E0F92EA601B80181E0FB
:101F100090E00E94F01D882331F724C0892F805162
:101F2000883038F01BC0C7010E94E7150E94B51920
:101F30000CC00FE110E0091B11096E010894C11CCF
:101F4000D11C84E7E82E81E0F82EA601B80182E0DA
:101F500090E00E94F01D882331F704C088E691E0EC
:101F60000E94E71589819A8122960FB6F894DEBF08
:101F70000FBECDBFDF91CF911F910F91FF90EF90DA
:101F8000DF90CF900895CF92DF92EF92FF920F9360
:101F90001F93082F9CEEC92E92E0D92EC6010E94F5
:101FA0006C14000F0452112700501F4EF801E190ED
:101FB0000081C6010E9406141127102F0027FF245C
:101FC000C8018E299F291F910F91FF90EF90DF90FC
:101FD000CF9008951F93182F0E94C30FE12FFF2762
:101FE000EE0FFF1FE05CFD4F20813181821B930BC0
:101FF0001F9108951F93182F0E94C30FE12FFF27F1
:10200000EE0FFF1FE05CFD4F918380831F910895C9
:1020100062EA71E08CEE92E00E945614089581B15C
:10202000992725E0969587952A95E1F780959095D3
:1020300081709070089581B1992734E096958795C5
:102040003A95E1F780959095817090700895AF92E0
:10205000BF92CF92DF92EF92FF920F931F939B015B
:102060007C010027112744275527CA01B901A8017F
:1020700097010E948E3128EE33E040E050E00E944C
:10208000D43159016A0160E271EA87E090E0A80169
:1020900097010E94D4317901002711270AC0C49A00
:1020A000C801B7010E941D1DC498C801B7010E9454
:1020B0001D1D0894A108B108C108D1088FEFA8160A
:1020C0008FEFB8068FEFC8068FEFD80641F71F9144
:1020D0000F91FF90EF90DF90CF90BF90AF90089559
:1020E0000C99FECF64E670E080E090E00E941D1D38
:1020F0000C9BFECF08950D99FECF64E670E080E062
:1021000090E00E941D1D0D9BFECF0895CF93DF939D
:10211000CDB7DEB722970FB6F894DEBF0FBECDBFA6
:10212000AE014F5F5F4F6FE070E080E090E00E9493
:10213000F01D69817A81882799270E94822F2CE1DE
:1021400035E441E251E40E94C6300E94522FDC0186
:10215000CB0122960FB6F894DEBF0FBECDBFDF9144
:10216000CF910895CF93DF93CDB7DEB722970FB607
:10217000F894DEBF0FBECDBFAE014F5F5F4F61E091
:1021800070E080E090E00E94E11B89819A812296B4
:102190000FB6F894DEBF0FBECDBFDF91CF9108958B
:1021A000CF92DF92EF92FF920F931F936C017B010E
:1021B0000E94B210AA27BB27EC18FD080894E11C66
:1021C000F11C00271127BC01CD01A80197010E9435
:1021D0008E314AE096958795779567954A95D1F720
:1021E000C60ED71EC6011F910F91FF90EF90DF9092
:1021F000CF9008958F929F92AF92BF92CF92DF922D
:10220000EF92FF920F931F937B018C0181EF882E39
:1022100082E0982EC4010E946C14209178023091C3
:10222000790240917A0250917B02C801B7010E9465
:10223000C6300E94132F20937C0230937D0240937E
:102240007E0250937F02609380027093810280939C
:10225000820290938302C4010E9406141F910F9181
:10226000FF90EF90DF90CF90BF90AF909F908F90B6
:1022700008958F929F92AF92BF92CF92DF92EF928A
:10228000FF920F931F9391EF892E92E0992EC40134
:102290000E946C14A0907C02B0907D02C0907E02DF
:1022A000D0907F02E0908002F09081020091820243
:1022B000109183022A2D3B2D4C2D5D2D6E2D7F2DEF
:1022C000802F912F0E947E2F2091780230917902E9
:1022D00040917A0250917B020E94AB2E7B018C01CF
:1022E000C4010E940614C801B7011F910F91FF900D
:1022F000EF90DF90CF90BF90AF909F908F90089518
:102300002F923F924F925F926F927F928F929F9205
:10231000AF92BF92CF92DF92EF92FF920F931F93F3
:10232000CF93DF93CDB7DEB760970FB6F894DEBFDB
:102330000FBECDBF0E9458165B016C018091BE019B
:102340000E945E0F7C0100271127809189029091E5
:102350008A02AA27BB27E81AF90A0A0B1B0B0E945C
:1023600058161B012C01DC01CB018A199B09AC0911
:10237000BD095C016D01C801B701A60195010E946C
:102380008E313B014C0120918B0230918C0244270D
:102390005527C601B5010E948E317B018C0181EF6A
:1023A00092E00E946C148091840290918502A09129
:1023B0008602B09187028E0D9F1DA01FB11F8093D2
:1023C000840290938502A0938602B0938702A09026
:1023D0008402B0908502C0908602D0908702E0907F
:1023E000F602F090F70200271127609184027091A5
:1023F00085028091860290918702A80197010E9430
:10240000F6316093840270938502809386029093E4
:10241000870290917C029983A0917D02AA83B0915A
:102420007E02BB83E0917F02EC83F0918002FD830A
:10243000809181028E83909182029F83A09183027A
:10244000A887C601B501A80197010E94F631621A5A
:10245000730A840A950AD401C301BB0F880B982F15
:10246000DC0169867A868B869C868D878E878F872E
:10247000888BA980B985AB1A81E0E981EA1508F05B
:1024800080E0BA80FA85BF1A21E09A819B1508F096
:1024900020E0AB2DA81B8A2F91E0BA1608F090E03F
:1024A000292BB82ECB80BB85CB1A31E0EB81EC1504
:1024B00008F030E08C2D821B91E0C81608F090E007
:1024C000392BC82EDC80FC85DF1A21E08C818D152C
:1024D00008F020E08D2D831B91E0D81608F090E0E5
:1024E000292BD82EED809D85E91A31E0AD81AE15FE
:1024F00008F030E08E2D821B91E0E81608F090E0A5
:10250000392BE82EFE80BE85FB1A21E0EE81EF1507
:1025100008F020E08F2D831B91E0F81608F090E082
:10252000292BF82E0F81FF850F1B91E08F818017DB
:1025300008F090E0802F821B21E0081708F020E0CF
:10254000922B1885A8891A1BE12FE91BA0927C0207
:10255000B0927D02C0927E02D0927F02E092800211
:10256000F092810280938202E093830281EF92E0F5
:102570000E9406140E94B51962015101DFCE2F920C
:102580003F924F925F926F927F928F929F92AF9203
:10259000BF92CF92DF92EF92FF920F931F93180199
:1025A00029018093BE014093780250937902609391
:1025B0007A0270937B020E9449163B014C01AA24C7
:1025C000BB246501EE24FF2487010FC08091BE016A
:1025D0000E945E0FAA27BB27E80EF91E0A1F1B1FC9
:1025E0000894A11CB11CC11CD11C0E94491666197B
:1025F000770988099909621573058405950530F3F3
:10260000C801B701A60195010E94D43130938A0216
:1026100020938902C801B701A60195010E94D43117
:1026200070938C0260938B02B092F702A092F60234
:1026300010927C0210927D0210927E0210927F0214
:1026400010928002109281021092820210928302F4
:102650006FEA71E081EF92E00E94561429EB31E0BD
:1026600040E060E071E080E891E10E947A171F91FC
:102670000F91FF90EF90DF90CF90BF90AF909F9021
:102680008F907F906F905F904F903F902F90089524
:102690008093D7010895CFEFD0E1DEBFCDBF809109
:1026A0008D0290918E02892B21F08EE092E00E94A3
:1026B000E71583E897E090936E0280936D020E9485
:1026C000151580916B0290916C029F938F9384EF0C
:1026D00091E09F938F930E94C41C80916D02909112
:1026E0006E029F938F938CED91E09F938F930E9446
:1026F000C41C80916D0290916E0220916B0230910A
:102700006C02821B930B880F991F9F938F9387EC0A
:1027100091E09F938F930E94C41C8DB79EB70C9637
:102720000FB6F8949EBF0FBE8DBF20916B02309103
:102730006C0280916D0290916E022817390720F08B
:1027400082EB91E00E94E7150E94412205E911E029
:102750001F930F930E94DA201F930F930E94C41CB3
:1027600083E991E09F938F930E94C41C0E947B1089
:102770000E94301A2FEB31E040E060E071E085ED1F
:1027800093E10E947A170E94BF188EE891E00E94A0
:10279000E7158DB79EB706960FB6F8949EBF0FBE8D
:1027A0008DBF80E090E00C94E0190E94470486E21F
:1027B00092E09F938F930E94DA200E947B100E94E8
:1027C00041222DEC31E040E060E071E087E294E0EE
:1027D0000E947A170F900F908091D701882319F4E7
:1027E0000E94B519FDCF60E97FE581E090E00E948D
:1027F000FE198BE192E09F938F930E94DA200E9452
:1028000067170F900F9080E090E008951F93CF938B
:10281000DF93EC01892B21F48BE692E00E94E7150F
:102820001FB7F8948881882321F487E592E00E94FD
:10283000E7152B813C8180918D0290918E022817A3
:10284000390721F082E492E00E94E71588818150E7
:102850008883882311F41C821B828FB71078182B71
:102860001FBFDF91CF911F910895CF93DF93EC01AC
:10287000892B21F48DE792E00E94E71520918D02CB
:1028800030918E028B819C812817390719F080E0E6
:1028900090E009C090E08881882309F491E081E00C
:1028A0009827892F9927DF91CF9108950F931F9330
:1028B000CF93DF93EC018B01892B21F489EB92E01C
:1028C0000E94E71518821A8309831C821B82DF91FC
:1028D000CF911F910F910895CF93DF93EC01892B36
:1028E00021F487EA92E00E94E71588818F3F21F466
:1028F0008FE892E00E94E7155FB75078F8942B813B
:102900003C8180918D0290918E0248812817390771
:1029100019F44F5F48830AC0442361F481E088833F
:1029200080918D0290918E029C838B838FB7582B60
:102930005FBF06C08FB7582B5FBF0E94B519DCCFB1
:10294000DF91CF9108950F931F93CF93DF93CDB76E
:10295000DEB761970FB6F894DEBF0FBECDBF8C0116
:1029600041E150E0BC01CE0101960E944E2D198A32
:102970001F930F9388EC92E09F938F930E94C41C47
:1029800080E10E945E221F930F930E9417218FE126
:102990000E945E2260E070E083E00E947A228DB7A0
:1029A0009EB706960FB6F8949EBF0FBE8DBFFFCFA1
:1029B00060E070E080E090E00E94ED1E66E972E069
:1029C0008AE090E00E94981E0E945020E6E9F2E022
:1029D00020E030E081913827032E0294902D9F70E3
:1029E0009327832F8025880F807E9827802D83272B
:1029F000807F8695032E000C881F36953695369578
:102A00003F7138273227292F82E0EE39F80711F776
:102A100040E050E080919E0290919F022817390774
:102A200011F441E050E0CA0108950E94B61B1F9ABC
:102A300080E09BE40E94791C87E392E090937F04FE
:102A400080937E0480E09BE49F938F9388ED92E0D7
:102A50009F938F930E94C41C8DEE92E09F938F935F
:102A60000E94C41C0E94A9230E9408100E94411CBD
:102A70000E94570F0E94BD0E0E941C238EE492E01C
:102A800090937D0480937C040E94101C0E940A2570
:102A90000E94B11A0E94D8142DB73EB72A5F3F4F4B
:102AA0000FB6F8943EBF0FBE2DBF882321F48EE7EA
:102AB00093E00E94A31482E393E09F938F930E947C
:102AC000C41C80919602909197029C0130703F93B4
:102AD0002F93892F99279F938F9387E093E09F935C
:102AE0008F930E94C41C80919802909199029F93A9
:102AF0008F9382E293E09F938F930E94C41C8091F6
:102B00009602909197029C0130703F932F93892FEA
:102B100099279F938F9388ED91E09F938F930E94C5
:102B200017210E9486102DB73EB72E5E3F4F0FB67D
:102B3000F8943EBF0FBE2DBF8C549D4120F482E718
:102B400093E00E94A3140E9486109F938F9384E4C5
:102B500093E09F938F930E94C41C60919C0270919C
:102B60009D0280E091E00E94601D0F900F900F90F9
:102B70000F90882321F485E693E00E94A3148091AE
:102B8000FF112091FE1199279F938F9333273F9335
:102B90002F9387E593E09F938F930E94C41C8FE14E
:102BA0000E945E2260E070E081E00E947A221E981E
:102BB00068EE73E080E793E00E9427108DB79EB720
:102BC00006960FB6F8949EBF0FBE8DBF0895CF93A3
:102BD000DF93CDB7DEB76A970FB6F894DEBF0FBEAE
:102BE000CDBFBC01F894892B41F04AE150E0CE0101
:102BF00001960E944E2D1A8E01C019821092450432
:102C00001092490410924804CE0101969F938F932D
:102C100089E893E09F938F930E94DA200E946717C0
:102C20000F900F900F900F906A960FB6F894DEBF3A
:102C30000FBECDBFDF91CF910895CF93DF93EC010D
:102C4000F8941092450410924904109248040E948E
:102C50004122209711F4CCEFD1E0DF93CF9384E9A8
:102C600093E09F938F930E94DA200E9467170F9042
:102C70000F900F900F90DF91CF91089583E085BD65
:102C800083E884BD86B7806486BF87B7806487BFCA
:102C900008952FB7F89460918F02709190028091FF
:102CA0009102909192023FB72078232B2FBF089575
:102CB000EF92FF920F931F932FB7F89460918F02BA
:102CC00070919002809191029091920244B53FB729
:102CD0002078232B2FBF242F33272358304079010E
:102CE0000027F7FC0095102F2DE730E040E050E082
:102CF0000E948E31E60EF71E081F191F83E0EE0CAE
:102D0000FF1C001F111F8A95D1F7C801B7011F9141
:102D10000F91FF90EF9008959C01F894EEE3F3E09B
:102D20008081833039F4828593858217930711F46B
:102D300081E08083BA9684E0EA33F80789F77894D3
:102D4000089577278CE291E0689F9001699F300D8C
:102D5000789F300D112487EB9FE0821B930B089521
:102D6000AF92BF92CF92DF92FF920F931F93CF93B8
:102D7000DF93FFB6F89486EE93E09F938F930E94C3
:102D8000C41C04E113E0C0E0D0E00F900F902FE9E5
:102D9000A22E23E0B22E98ECC92E93E0D92EF80192
:102DA0002081222359F4DF93CF93DF92CF920E94A8
:102DB000C41C0F900F900F900F901EC0F8018281DD
:102DC0009381A481B581332744855585BF93AF9303
:102DD0009F938F933F932F935F934F93DF93CF9363
:102DE000BF92AF920E94C41C8DB79EB70C960FB6CF
:102DF000F8949EBF0FBE8DBF2196065D1F4FC73052
:102E0000D10569F68FB790E8F922F82AFFBEDF9165
:102E1000CF911F910F91FF90DF90CF90BF90AF9017
:102E200008950F931F938C018AE494E09F938F93EE
:102E30000E94C41C86E394E09F938F930E94C41C5D
:102E4000F80180899189AA27BB27BF93AF939F93ED
:102E50008F9388E294E09F938F930E94C41CF801A3
:102E600082899389AA27BB27BF93AF939F938F93A0
:102E70008AE194E09F938F930E94C41CF801848997
:102E80009927AA27BB27BF93AF939F938F938CE07B
:102E900094E09F938F930E94C41CF80185899689C2
:102EA000AA27BB27BF93AF939F938F938EEF93E097
:102EB0009F938F930E94C41C8DB79EB74C960FB6FC
:102EC000F8949EBF0FBE8DBF1F910F910895CF93B1
:102ED000DF93F8941092E7021092EB021092EA024C
:102EE000C0E0D0E08C2F0E940E0F2196C630D10595
:102EF000C9F7FFCF0F931F93CF93DF938C016FB769
:102F0000F894E4E1F3E040E050E08081882359F058
:102F10004F5F5F4FBA9647305105B9F78CE594E0A3
:102F20000E94E715FFCF8AE290E0489FD001499FB9
:102F3000B00D589FB00D1124A850BD4F81E0ED0198
:102F40008C8F39A728A7FD01168E178E10A211A20B
:102F50002CE231E0328F218F87E119928A95E9F7CF
:102F6000842F9927F9018E9F90018F9F300D9E9F8E
:102F7000300D1124E7EBFFE0E21BF30B20EE39E10B
:102F800020833197232F332720833197ED01FB8B4B
:102F9000EA8B1E8B0D8B2C8920682C8B2FB76078C9
:102FA000622B6FBFDF91CF911F910F9108950F9307
:102FB0001F93CF93DF93EC0104E113E0809114039E
:102FC000813009F44BC082E595E09F938F930E9476
:102FD000C41C80918F0290919002A0919102B091B7
:102FE0009202BF93AF939F938F938AE495E09F9350
:102FF0008F930E94C41C0C5110401F930F93045ECA
:103000001F4F88E395E09F938F930E94C41C1F93EA
:103010000F938CE195E09F938F930E94C41C809145
:103020006D0290916E0220916B0230916C029F9321
:103030008F933F932F9386E095E09F938F930E9409
:10304000C41C8EEF94E00E94E7154DB75EB74A5E50
:103050005F4F0FB6F8945EBF0FBE4DBF8B8D9927A3
:103060002CE231E0A901849F9001859F300D949F4F
:10307000300D112487EB9FE0821B930B2A893B893B
:103080008217930720F485EF94E00E94E7158F895B
:10309000988D2A893B89821B930B298D3A8D28179D
:1030A000390708F04DC084EE94E09F938F930E94FF
:1030B000C41C4A895B898B8D992728A539A55F9304
:1030C0004F939F938F933F932F938AEC94E09F931A
:1030D0008F930E94C41CCE010E9411178D899E8976
:1030E0009F938F9380EC94E09F938F930E94C41CD6
:1030F0008F89988D9F938F9382EB94E09F938F930A
:103100000E94C41C4F89588DCA010196298D3A8DA1
:10311000821B930B5F934F939F938F9388E994E067
:103120009F938F930E94C41C89E894E00E94E71546
:103130008DB79EB748960FB6F8949EBF0FBE8DBF51
:10314000DF91CF911F910F91089590938E028093FC
:103150008D020E94D717E0918D02F0918E02868D2C
:10316000978DA0A1B1A10196A11DB11D868F978F4A
:10317000A0A3B1A361E070E0CF010E942D2DAF921A
:10318000BF92CF92DF92EF92FF920F931F93CF9354
:10319000DF93E0918D02F0918E02309719F4AA240A
:1031A000BB2403C0838DA82EBB24F1E0EF2EF12CAD
:1031B000EAE2CE2ED12CAC9C8001AD9C100DBC9CC3
:1031C000100D112408501D4FC7018A0D9B1D67E08B
:1031D00070E00E94C131EC01009709F448C08C9D59
:1031E000F0018D9DF00D9C9DF00D1124E850FD4FD8
:1031F000848D8430B1F420918F02309190024091FF
:1032000091025091920282A193A1A4A1B5A1281785
:1032100039074A075B0728F081E0848FCF010E94BD
:10322000A518CC9DF001CD9DF00DDC9DF00D112475
:10323000E850FD4F848D8130B9F0E8018C8D8430E9
:10324000B1F420918F0230919002409191025091FF
:1032500092028AA19BA1ACA1BDA1281739074A07F8
:103260005B0728F081E08C8FCF010E94A51808949D
:10327000E11CF11CE8E0EE16F10409F0A5CF809105
:103280001403813021F488EF92E00E94A518F8948D
:1032900004E113E0C0E0D0E073EAA72E75E0B72E9A
:1032A00061E7C62E65E0D62E54ECE52E55E0F52EEE
:1032B000F8018081882359F4DF93CF93FF92EF9236
:1032C0000E94C41C0F900F900F900F9020C0992760
:1032D000F801248535859F938F933F932F93DF9338
:1032E000CF93BF92AF920E94C41C8DB79EB7089631
:1032F0000FB6F8949EBF0FBE8DBFF801808181305C
:1033000031F4DF92CF920E94C41C0F900F9021964F
:10331000065D1F4FC730D10559F688E695E00E943B
:10332000E715DF91CF911F910F91FF90EF90DF9004
:10333000CF90BF90AF90089580918D0290918E02B2
:10334000892B21F487E794E00E94E71580918D0294
:1033500090918E020E940D2D892B31F461E070E076
:103360008EE194E00E942D2D0895F8941F920F9203
:103370002F933F934F935F936F937F938F939F937D
:10338000AF93BF93EF93FF9380918D0290918E0244
:10339000892B21F481E794E00E94E7150E949C1993
:1033A000FF91EF91BF91AF919F918F917F916F911D
:1033B0005F914F913F912F910F901F9078940895B6
:1033C0000E94B519FDCFCF93DF93EC01F894809163
:1033D0008D0290918E02892B21F48BE694E00E945D
:1033E000E715E0918D02F0918E02D7A3C6A383E08A
:1033F000848F0E94B519DF91CF9108959B01AC0194
:103400000FB607FC03C00E943D1D0895F894E0919B
:103410008D02F0918E0284E0848F80918F029091D2
:103420009002A0919102B0919202E0918D02F091F0
:103430008E02820F931FA41FB51F82A393A3A4A380
:10344000B5A30E94B51908950E94B01668EB7BE001
:1034500080E090E00E94FE19F7CF0E94B519FDCFE1
:10346000CF92DF92EF92FF920F931F93CF93DF9350
:1034700008EF12E01F930F938BE196E09F938F93D9
:103480000E94C41C8EE194E09F938F9383E096E0AA
:103490009F938F930E94C41CE80120E030E007EB6B
:1034A0001FE08DB79EB708960FB6F8949EBF0FBE6B
:1034B0008DBFACEECA2EA5E0DA2E2B8F1C8EC80174
:1034C000188F0F8B1E8E1F8E18A219A279010894D7
:1034D000E11CF11C0C5211401F930F939F938F938B
:1034E0003F932F93DF92CF920E94C41CAA968DB770
:1034F0009EB708960FB6F8949EBF0FBE8DBF97E09B
:10350000E916F10411F09701D8CF2DEF31E040E03A
:1035100060E071E08DE29AE10E947A1780911403D5
:10352000882321F482EE95E00E94E7158EE194E075
:103530000E940D2D8FEF90E1909331048093300421
:103540008FEB98E190933404809333040E943E16ED
:10355000DF91CF911F910F91FF90EF90DF90CF906F
:10356000089508951F920F920FB60F9211242F9372
:103570003F934F935F936F937F938F939F93AF93FB
:10358000BF93EF93FF9382E092E00E94E715FF91D3
:10359000EF91BF91AF919F918F917F916F915F91CB
:1035A0004F913F912F910F900FBE0F901F90189544
:1035B0001F920F920FB60F9211242F933F934F93A8
:1035C0005F936F937F938F939F93AF93BF93EF938B
:1035D000FF9383E884BD80918F0290919002A09127
:1035E0009102B09192020196A11DB11D80938F02AC
:1035F00090939002A0939102B09392020E949C1922
:10360000FF91EF91BF91AF919F918F917F916F91BA
:103610005F914F913F912F910F900FBE0F901F9090
:103620001895CF92DF92EF92FF920F931F93CF9353
:10363000DF93CDB7DEB722970FB6F894DEBF0FBE8B
:10364000CDBF8E01035F1F4FF801E190F1908F0114
:1036500085E4C82E84E0D82EC6010E946C141A831B
:103660000983A801B7018EE492E00E94AA278C0189
:10367000C6010E940614C80122960FB6F894DEBF58
:103680000FBECDBFDF91CF911F910F91FF90EF90B3
:10369000DF90CF900895CF92DF92EF92FF920F9339
:1036A0001F93CF93DF938C01F62E8EE596E09F93C8
:1036B0008F930E94C41C88E496E09F938F930E948E
:1036C000C41CE80100E010E00F900F900F900F90E5
:1036D000EF2CFF2495E3C92E96E0D92E17C08881E0
:1036E00099279F938F93DF93CF931F930F93DF922D
:1036F000CF920E94C41C0F5F1F4F21968DB79EB7BB
:1037000008960FB6F8949EBF0FBE8DBF0E151F050D
:1037100031F7DF91CF911F910F91FF90EF90DF90E4
:10372000CF900895CF93DF93EC01892BD1F00E94C5
:103730004122DF93CF9384E192E09F938F930E9485
:103740001721DF93CF9387E192E09F938F930E949D
:10375000011D8DB79EB708960FB6F8949EBF0FBE99
:103760008DBF0E947B10DF91CF91089585B780684F
:1037700085BFECE6F0E080818F778083EDE6F0E0B6
:1037800080818D7F808385B78F7B85BF83EF87BBEB
:10379000C69A8CEF81BB8EEC82B983B1806383B90A
:1037A0008DE08093610010926400E2E6F0E0808199
:1037B000846080831A9AC09A8081816080831B9A7A
:1037C0000895EF92FF920F931F93CF93DF938C0195
:1037D0007B01EA0185E394E00E946C1407950027C1
:1037E00007950E29006407B987ED86B9349BFECF93
:1037F000349A24B185B19927982F88273327822BB3
:10380000932B9983888385E394E00E94061480E0DB
:1038100090E0DF91CF911F910F91FF90EF9008956D
:103820006BE172E085E394E00E94561408956065B0
:103830009C0136952795622B6DB980FF02C0709A66
:1038400001C0709887B3876087BB0895FC0190E042
:1038500007C080818FB9779BFECF8FB181939F5F27
:103860009617B9F780E090E008958AE394E00E940B
:10387000061408958AE394E00E946C1480E090E0BE
:10388000089564E272E08AE394E00E945614089579
:103890001E9A5D9BFECF8CB91E98992787FD909547
:1038A00008951F93182F8A3019F48DE00E94511C3F
:1038B000812F0E94481C1F910895CF93DF93EC0144
:1038C00003C021960E94481C88818823D1F7DF918C
:1038D000CF9108951E9A5F9BFECF1E988CB19927B9
:1038E00087FD909508958BB18078992787FD9095F5
:1038F00008959C014427552794E0220F331F441F4D
:10390000551F9A95D1F760E072E18AE790E00E9436
:10391000D431822F815089B92150304040405040ED
:10392000232F342F452F5527209390001BB886E076
:103930008093950088E18AB96DE272E08FE394E0AC
:103940000E9456140895CF92DF92EF92FF920F9348
:103950001F936C018B012FE3E22E24E0F22EC701AE
:103960000E946C14A801B60187E392E00E94C52D65
:103970008C01C7010E940614C8011F910F91FF908E
:10398000EF90DF90CF900895CF93DF93CDB7DEB760
:1039900022970FB6F894DEBF0FBECDBFFE0137965B
:1039A00081919191FA83E983BF010E94A31C229621
:1039B0000FB6F894DEBF0FBECDBFDF91CF91089553
:1039C000CF92DF92EF92FF920F931F936C018B01C6
:1039D0003FE3E32E34E0F32EC7010E946C14A801EC
:1039E000B60187E392E00E94AA278C01C7010E94DA
:1039F0000614C8011F910F91FF90EF90DF90CF90B8
:103A00000895CF93DF93CDB7DEB722970FB6F89422
:103A1000DEBF0FBECDBFFE01379681919191FA8333
:103A2000E983BF010E94E01C22960FB6F894DEBF26
:103A30000FBECDBFDF91CF9108959B01AC0107C0B0
:103A400080E08A95F1F720563040404050402136C2
:103A5000310541055105A0F7CA01B90120E032E165
:103A60004AE750E00E948E3120EC36EC4DE250E007
:103A70000E94D4312A95F1F708959B01AC0108C04A
:103A800080E09AEF0197F1F72052304040405040DB
:103A9000213231054105510598F7CA01B90120E0ED
:103AA00032E14AE750E00E948E3120EA3FE040E0F8
:103AB00050E00E94D431DA01C9010197F1F708956D
:103AC0009F92AF92BF92CF92DF92EF92FF920F93AD
:103AD0001F93CF93DF93CDB7DEB728970FB6F89437
:103AE000DEBF0FBECDBF6B017C0100271127C801CF
:103AF000B7010E94ED1E8F3FD1F3C69864E670E0D7
:103B000080E090E00E941D1DC69A00E010E07E015A
:103B10000894E11CF11C49E0A42EB12CAC0EBD1E92
:103B20003DC00E94621E682F0F5F1F4F807C803C4B
:103B300019F09924939408C03FE3932E96220E9493
:103B4000621E682F0F5F1F4F40E050E0F701E40F47
:103B5000F51F27E030E0241B350B81E090E002C028
:103B6000880F991F2A95E2F7862380834F5F5F4F66
:103B70004830510559F790E00DC08081882311F03D
:103B8000C59A01C0C598C79AC7983196EA15FB0532
:103B9000A1F79F5F991511F0F701EFCF0C151D05E7
:103BA00008F4BFCF0E94502080916300992723E042
:103BB000969587952A95E1F78170907028960FB6B3
:103BC000F894DEBF0FBECDBFDF91CF911F910F9153
:103BD000FF90EF90DF90CF90BF90AF909F900895AF
:103BE000CF92DF92EF92FF920F931F93CF93DF93C9
:103BF000CDB7DEB723970FB6F894DEBF0FBECDBFAB
:103C00008C017B016A010E943A1C8F3F19F48FEFEF
:103C10009FEF49C08E2D880F880F8064898360E0F4
:103C200082E090E00E94171C0130110549F001303C
:103C3000110520F00230110551F404C01A9807C094
:103C4000C09805C0809162008E7F8093620063E01F
:103C5000CE0101960E94261C0130110549F0013069
:103C6000110520F00230110551F404C01A9A07C062
:103C7000C09A05C0809162008160809362008A8151
:103C80009927982F88272B813327822B932B26E087
:103C9000969587952A95E1F7F601918380830E9496
:103CA000351C80E090E023960FB6F894DEBF0FBE7F
:103CB000CDBFDF91CF911F910F91FF90EF90DF90DB
:103CC000CF900895EF92FF921F93CF93DF93CDB7DC
:103CD000DEB722970FB6F894DEBF0FBECDBF61E00E
:103CE000CE0101960E94261C809144048F3F69F406
:103CF00010E082E0E82EF12CEC0EFD1E61E0C70121
:103D00000E94261C1F5F1830C9F7809144048F5F02
:103D1000809344048981992722960FB6F894DEBFD8
:103D20000FBECDBFDF91CF911F91FF90EF9008950F
:103D3000EF92FF920F931F93CF93DF937C018B0140
:103D4000C0E0D0E007C00E94621EF801EC0FFD1F2A
:103D500080832196CE15DF05B1F780E090E0DF91FA
:103D6000CF911F910F91FF90EF9008950F931F93A4
:103D7000CF93DF93CDB7DEB721970FB6F894DEBFB0
:103D80000FBECDBF87ED8983809162008B7F8093CA
:103D9000620061E08E010F5F1F4FC8010E94261C68
:103DA00061E0C8010E94261C898187FFF9CF8091BC
:103DB000620084608093620061E070E080E090E0E7
:103DC0000E941D1D21960FB6F894DEBF0FBECDBF19
:103DD000DF91CF911F910F910895EF92FF920F9372
:103DE0001F93CF93DF93CDB7DEB724970FB6F89428
:103DF000DEBF0FBECDBF7B018C010E943A1C8F3FFE
:103E000019F48FEF9FEF2EC060E081E090E00E94F8
:103E1000171C88EE8983D801C7012FE0B695A795B6
:103E2000979587952A95D1F78A83BB27A12F902F45
:103E30008F2D880F8B83E0924404EC820E94B61E83
:103E4000809162008B7F8093620064E08E010F5F3F
:103E50001F4FC8010E94261C64E0C8010E94261C56
:103E600080E090E024960FB6F894DEBF0FBECDBF81
:103E7000DF91CF911F910F91FF90EF9008958F9256
:103E80009F92AF92BF92CF92DF92EF92FF920F93E9
:103E90001F93CF93DF93CDB7DEB724970FB6F89477
:103EA000DEBF0FBECDBF6B017C014A0159010E94EC
:103EB0003A1C8F3F19F42FEF3FEF44C060E081E0E0
:103EC00090E00E94171C84E889831A821B821C2DB3
:103ED000CC82809162008B7F8093620064E07E01DF
:103EE0000894E11CF11CC7010E94261C212F3327D6
:103EF000C501820F931F8150914028F0A12C41E011
:103F0000B42EA21AB30A00E010E00BC0F401E00FD7
:103F1000F11F8081898361E0C7010E94261C0F5F29
:103F20001F4F0A151B0591F78091620084608093F2
:103F3000620061E070E080E090E00E941D1D0E9440
:103F4000351C9501C90124960FB6F894DEBF0FBE4B
:103F5000CDBFDF91CF911F910F91FF90EF90DF9038
:103F6000CF90BF90AF909F908F900895EF92FF9267
:103F70000F931F93CF93DF93CDB7DEB724970FB680
:103F8000F894DEBF0FBECDBF7B018C010E943A1CAE
:103F90008F3F19F48FEF9FEF33C060E081E090E036
:103FA0000E94171C83E88983D801C7016FE0B6958A
:103FB000A795979587956A95D1F78A83BB27A12FF7
:103FC000902F8F2D880F8B831C820E94B61E8091AC
:103FD00062008B7F8093620064E0CE0101960E94B4
:103FE000261C8091620084608093620061E070E032
:103FF00080E090E00E941D1D0E94351C80E090E052
:1040000024960FB6F894DEBF0FBECDBFDF91CF91DF
:104010001F910F91FF90EF9008950F931F93CF93EF
:10402000DF93CDB7DEB722970FB6F894DEBF0FBE91
:10403000CDBF8C0187ED89831A820E943A1C8F3F85
:1040400019F48FEF9FEF21C060E081E090E00E94C3
:10405000171C809162008B7F8093620062E0CE012A
:1040600001960E94261C8091620084608093620009
:1040700061E070E080E090E00E941D1D0E94351C10
:104080008A81F801808380E090E022960FB6F89450
:10409000DEBF0FBECDBFDF91CF911F910F9108956D
:1040A000E2E6F0E080818460808361E070E080E09F
:1040B00090E00E941D1D0E94351C0895EF92FF9212
:1040C0000F931F93CF93DF93CDB7DEB724970FB62F
:1040D000F894DEBF0FBECDBF7B018C010E943A1C5D
:1040E0008F3F19F48FEF9FEF33C060E081E090E0E5
:1040F0000E94171C83E58983D801C701EFE0B695BC
:10410000A79597958795EA95D1F78A83BB27A12F25
:10411000902F8F2D880F8B831C820E94B61E80915A
:1041200062008B7F8093620064E0CE0101960E9462
:10413000261C8091620084608093620061E070E0E0
:1041400080E090E00E941D1D0E94351C80E090E000
:1041500024960FB6F894DEBF0FBECDBFDF91CF918E
:104160001F910F91FF90EF900895809193029927EE
:104170000895CF92DF92EF92FF920F931F936C01FD
:104180008B0185E4E82E84E0F82EC7010E946C14B0
:10419000A801B6018EE492E00E94C52D8C01C701F2
:1041A0000E940614C8011F910F91FF90EF90DF90BD
:1041B000CF900895CF93DF93CDB7DEB722970FB698
:1041C000F894DEBF0FBECDBFFE013796819191916D
:1041D000FA83E983BF010E94B92022960FB6F894B2
:1041E000DEBF0FBECDBFDF91CF910895CF92DF929A
:1041F000EF92FF920F931F936C018B0195E4E92ED0
:1042000094E0F92EC7010E946C14A801B6018EE457
:1042100092E00E94AA278C01C7010E940614C801DF
:104220001F910F91FF90EF90DF90CF900895CF9363
:10423000DF93CDB7DEB722970FB6F894DEBF0FBE7F
:10424000CDBFFE01379681919191FA83E983BF0139
:104250000E94F62022960FB6F894DEBF0FBECDBFA7
:10426000DF91CF9108950F931F93082F162F85E4A8
:1042700094E00E946C14912F92959F70002329F076
:10428000979A82B38370806C04C0979882B38370CE
:104290008064990F990F982B92BB60E670E080E0E4
:1042A00090E00E941D1D60E670E080E090E00E94BA
:1042B0001D1D60E670E080E090E00E941D1D60E63C
:1042C00070E080E090E00E941D1D60E670E080E0FC
:1042D00090E00E941D1D60E670E080E090E00E948A
:1042E0001D1D60E670E080E090E00E941D1D60E60C
:1042F00070E080E090E00E941D1D60E370E080E0CF
:1043000090E00E941D1D969860E670E080E090E0CD
:104310000E941D1D60E670E080E090E00E941D1D7F
:1043200060E670E080E090E00E941D1D60E670E0B5
:1043300080E090E00E941D1D60E670E080E090E06B
:104340000E941D1D60E670E080E090E00E941D1D4F
:1043500060E670E080E090E00E941D1D60E670E085
:1043600080E090E00E941D1D60E370E080E090E03E
:104370000E941D1D612F7727002321F082B38370D7
:10438000806C03C082B3837080646F707070660F3E
:10439000771F660F771F862B82BB60E670E080E098
:1043A00090E00E941D1D60E670E080E090E00E94B9
:1043B0001D1D60E670E080E090E00E941D1D60E63B
:1043C00070E080E090E00E941D1D60E670E080E0FB
:1043D00090E00E941D1D60E670E080E090E00E9489
:1043E0001D1D60E670E080E090E00E941D1D60E60B
:1043F00070E080E090E00E941D1D60E370E080E0CE
:1044000090E00E941D1D969860E670E080E090E0CC
:104410000E941D1D60E670E080E090E00E941D1D7E
:1044200060E670E080E090E00E941D1D60E670E0B4
:1044300080E090E00E941D1D60E670E080E090E06A
:104440000E941D1D60E670E080E090E00E941D1D4E
:1044500060E670E080E090E00E941D1D60E670E084
:1044600080E090E00E941D1D60E370E080E090E03D
:104470000E941D1D85E494E00E9406141F910F9177
:10448000089585E494E00E946C1461E080E00E944D
:10449000332162E080E00E943321EAE4F4E080E22C
:1044A000819384E0EA36F807D1F7109293021092D4
:1044B000940285E494E00E94061408951F93182F37
:1044C00085E494E00E946C1410939302809194020E
:1044D000181751F010939402103108F0105D106815
:1044E000612F80E00E94332185E494E00E9406144D
:1044F0001F9108951F93182F85E494E00E946C1477
:1045000080919502882321F00E9441221092950209
:1045100080919302803211F4109293021A3021F4A8
:1045200081E08093950224C090919302903119F418
:104530008FEF80939402E92FFF27E65BFB4F80818A
:10454000811789F0108380919402891719F0892FBF
:104550000E945E22612F81E00E94332180919402AB
:104560008F5F80939402809193028F5F8093930278
:1045700085E494E00E940614812F992787FD909589
:104580001F9108950F931F93CF93DF938C0185E4C0
:1045900094E00E946C14E8011AC06A3039F460E8B3
:1045A00080E00E9433211092930203C081E00E94B8
:1045B00033219E01201B2F3021F460EC80E00E940B
:1045C0003321809193028F5F8093930221966881BB
:1045D000662319F785E494E00E940614DF91CF91D9
:1045E0001F910F910895FF920F931F93CF93DF9325
:1045F000F82E8B0185E494E00E946C14FF0CFF0CF4
:10460000FF0CE80100E0602F6F0D606480E00E9405
:104610003321FE01649181E00E9433210F5F2196D6
:10462000083089F785E494E00E940614DF91CF9169
:104630001F910F91FF90089564E670E080E090E094
:104640000E943D1D63E380E00E94332162E380E02D
:104650000E94332164E776E081E00E94F3226CE758
:1046600076E082E00E94F32264E876E083E00E9434
:10467000F3226CE876E084E00E94F32264E976E0BD
:1046800085E00E94F3226CE976E086E00E94F32246
:1046900061E080E00E94332162E080E00E943321EB
:1046A000EAE4F4E080E2819384E0EA36F807D1F7A7
:1046B00066E080E00E9433216CE080E00E943321BC
:1046C00065E472E085E494E00E9456140895EF9248
:1046D000FF921F938AE6E82E84E0F82EC7010E941D
:1046E0006C1410911E11C7010E9406141095812FA1
:1046F00099271F91FF90EF9008951F93182F8830EE
:10470000A8F48AE694E00E946C1480911E11992707
:104710008095909502C0959587951A95E2F7182F88
:1047200011708AE694E00E9406140FC0883140F4AC
:104730000E945E0F10E08150924038F011E005C0F9
:1047400084EA96E00E94E71510E0812F99271F91D7
:1047500008956CE572E08AE694E00E94561408958C
:10476000E2E6F0E08081877F808366E970E080E0A8
:1047700090E00E941D1D6EE080E00E9406270895D3
:104780000F931F9302E610E0F8018081877F8083FA
:1047900066E970E080E090E00E941D1D6FE080E01F
:1047A0000E940627F80180818860808366E970E0B6
:1047B00080E090E00E941D1D1F910F910895CF92FF
:1047C000DF92FF920F931F93CF93DF936C018B01C6
:1047D000EA01F22E0E94C02387E00E948127982FD1
:1047E00096959770988386FD04C0973011F4FF204A
:1047F00099F7892F99279F938F938FEB96E09F933B
:104800008F930E94C41C48810F900F900F900F90BF
:10481000463030F5842F8F5E0E948127F801808317
:1048200099279F938F9381EB96E09F938F930E949C
:10483000C41CF80160810F900F900F900F906132AF
:1048400018F00E9421260CC0662351F0C6010E9478
:104850006B2660E487E00E94062781E090E002C0BA
:1048600080E090E0DF91CF911F910F91FF90DF905A
:10487000CF900895CF93DF93CDB7DEB721970FB6D2
:10488000F894DEBF0FBECDBF20E0AE014F5F5F4F9B
:104890000E94DF23992721960FB6F894DEBF0FBE42
:1048A000CDBFDF91CF910895DF92EF92FF920F93EA
:1048B0001F93F82E8B01E42E0E94B0238AE00E9401
:1048C0008127D82E6F2D8AE00E9406276F2D80E168
:1048D0000E9406276E2DC8010E94C32580916200A8
:1048E00088608093620064E170E080E090E00E9464
:1048F0001D1D80916200877F8093620002C00E942C
:10490000B51987E00E948127082FE82EFF24C701F0
:1049100080739070892B99F3FF92EF928EEC96E062
:104920009F938F930E94C41C0073602F87E00E94A6
:1049300006276D2D8AE00E9406270E9446260E94C7
:10494000C02385E0F694E7948A95E1F70F900F90E5
:104950000F900F90C701817090701F910F91FF9081
:10496000EF90DF900895DF92EF92FF920F931F93E5
:10497000CF93DF93D82E7B01042F10E0C42FDD27C7
:1049800010C0612F7727AE01461B570B41325105EE
:1049900014F040E250E06E0D7F1D8D2D0E945424D6
:1049A000105E101770F381E090E0DF91CF911F91BE
:1049B0000F91FF90EF90DF9008950F931F930E9447
:1049C000B02366EB86E00E94062766E970E080E08F
:1049D00090E00E941D1D02E610E0F80180818860D1
:1049E000808364E670E080E090E00E943D1DF80165
:1049F0008081877F808366E970E080E090E00E949C
:104A00001D1D66E286E00E9406270E94C0231F91BA
:104A10000F9108950F931F93CF93DF93CDB7DEB718
:104A200023970FB6F894DEBF0FBECDBF90916F04F1
:104A3000E92FFF27E050FF4F80819F5F8823C1F758
:104A4000915090936F049F5F20E030E040E008C0F9
:104A5000F901E159FB4FD901A150BF4F8C918083DF
:104A60002F5F3F4F4F5F491799F764E670E080E092
:104A700090E00E943D1D63E080E00E94062765E013
:104A800070E080E090E00E943D1D01E010E0B80180
:104A900000906F0402C0660F771F0A94E2F761501E
:104AA00081E00E94062761E083E00E9406276FE113
:104AB00084E00E94062762E085E00E94062766E205
:104AC00086E00E94062764E08DE10E9406270090A0
:104AD0006F0402C0000F111F0A94E2F70150602F0B
:104AE0008CE10E94062780917004898380E78A8385
:104AF00082E68B8343E08E010F5F1F4FB8018AE08F
:104B00000E94CA2680916F04823040F08091710427
:104B1000898343E0B8018BE00E94CA2600E010E0E0
:104B200008C0FF27E059FB4F6081802F855F0E94FE
:104B30000627E02FEE5F0F5F1F4F80916F04E8178D
:104B400080F3198243E0BE016F5F7F4F80E10E94D6
:104B5000CA2661E070E000906F0402C0660F771F04
:104B60000A94E2F7615082E00E9406270E94C02367
:104B700023960FB6F894DEBF0FBECDBFDF91CF9165
:104B80001F910F910895FF920F931F93CF93DF937F
:104B9000CDB7DEB729970FB6F894DEBF0FBECDBFF5
:104BA0008C01F62E0E943A1C80EA8983D801FE010E
:104BB000319690E004C08D9181839F5F31969F155F
:104BC000D1F760E082E090E00E94171C1B98F394FC
:104BD0006F2DCE0101960E94261C1B9A0E94351C47
:104BE00029960FB6F894DEBF0FBECDBFDF91CF91EF
:104BF0001F910F91FF900895CF93DF93CDB7DEB74C
:104C000021970FB6F894DEBF0FBECDBF0E943A1CAD
:104C100083EE898360E082E090E00E94171C1B987D
:104C200061E0CE0101960E94261C1B9A0E94351C51
:104C300021960FB6F894DEBF0FBECDBFDF91CF91A6
:104C40000895CF93DF93CDB7DEB721970FB6F894D1
:104C5000DEBF0FBECDBF0E943A1C82EE898360E0AA
:104C600082E090E00E94171C1B9861E0CE01019643
:104C70000E94261C1B9A0E94351C21960FB6F894A0
:104C8000DEBF0FBECDBFDF91CF910895CF93DF93ED
:104C9000CDB7DEB721970FB6F894DEBF0FBECDBFFC
:104CA0000E943A1C81EE898360E082E090E00E94DD
:104CB000171C1B9861E0CE0101960E94261C1B9ACE
:104CC0000E94351C21960FB6F894DEBF0FBECDBFF3
:104CD000DF91CF910895FF920F931F93CF93DF93AE
:104CE000CDB7DEB729970FB6F894DEBF0FBECDBFA4
:104CF0008C01F62E0E943A1C81E6898360E082E0F6
:104D000090E00E94171C1B986F2D6F5FCE010196DB
:104D10000E94261C1B9A0E94351CDE011296F80187
:104D200090E003C08D9181939F5F9F15D9F72996DD
:104D30000FB6F894DEBF0FBECDBFDF91CF911F91AC
:104D40000F91FF900895CF93DF93CDB7DEB72297F1
:104D50000FB6F894DEBF0FBECDBF0E943A1C80E6AE
:104D6000898360E082E090E00E94171C1B9862E05B
:104D7000CE0101960E94261C1B9A0E94351C8A8136
:104D8000992722960FB6F894DEBF0FBECDBFDF91F4
:104D9000CF910895EF92FF920F931F93CF93DF93DC
:104DA000CDB7DEB726970FB6F894DEBF0FBECDBFE6
:104DB000182F7B01042F0E943A1C10621983D7011F
:104DC000FE01319690E004C08D9181839F5F319602
:104DD0009017D1F760E082E090E00E94171C1B98CA
:104DE0000F5F602FCE0101960E94261C1B9A0E9425
:104DF000351C26960FB6F894DEBF0FBECDBFDF91EF
:104E0000CF911F910F91FF90EF9008950F931F93F3
:104E1000CF93DF93CDB7DEB722970FB6F894DEBFFE
:104E20000FBECDBF182F062F0E943A1C10621983A7
:104E30000A8360E082E090E00E94171C1B9862E009
:104E4000CE0101960E94261C1B9A0E94351C2296B8
:104E50000FB6F894DEBF0FBECDBFDF91CF911F918B
:104E60000F9108950E943A1C60E081E00E9406279D
:104E700061E082E00E94062767E081E10E94062748
:104E80006BE080E00E9406270E94351C0895EF9297
:104E9000FF920F931F93CF93DF93CDB7DEB7269783
:104EA0000FB6F894DEBF0FBECDBF182F7B01042FC5
:104EB0000E943A1C198360E082E090E00E94171C77
:104EC0001B98602F6F5FCE0101960E94261C1B9AD3
:104ED0000E94351CDE011296F70190E003C08D910F
:104EE00081939F5F9017D9F726960FB6F894DEBF8F
:104EF0000FBECDBFDF91CF911F910F91FF90EF902B
:104F000008951F93CF93DF93CDB7DEB722970FB6E7
:104F1000F894DEBF0FBECDBF182F0E943A1C198334
:104F200060E082E090E00E94171C1B9862E0CE01D6
:104F300001960E94261C1B9A0E94351C8A81992783
:104F400022960FB6F894DEBF0FBECDBFDF91CF9192
:104F50001F910895A1E1B0E0E0EBF7E20C9411326B
:104F60003C017F876E876A01FC011782168283816C
:104F700081FD03C06FEF7FEF71C39E012F5F3F4F35
:104F8000398B288BF3012381EE85FF8523FD8591E5
:104F900023FF8191FF87EE87882309F45CC3853264
:104FA00051F4EE85FF8523FD859123FF8191FF87D5
:104FB000EE87853229F490E0B3010E94732DE2CF91
:104FC000982F10E0882499241032B0F49B3269F0B5
:104FD0009C3228F4903251F0933271F40BC09D3220
:104FE00039F0903349F4116028C01260146025C074
:104FF000186023C0106121C017FD2AC0892F80537B
:105000008A3078F416FF06C0FAE09F9E902C112497
:10501000980E13C03AE0839E802C1124880E1062F3
:105020000CC09E3221F416FD16C3106406C09C36D7
:1050300011F4106802C0983659F4EE85FF8523FDFF
:10504000959123FF9191FF87EE87992309F0BCCFBB
:10505000892F8554833020F4812F8061905E07C0B2
:10506000892F8556833008F0A1C1812F8F7E86FD60
:1050700002C076E0972E6FE3F62EF822953619F4EB
:10508000F0E4FF2A07C0963619F420E8F22A02C09D
:1050900091109A94F7FE0BC03BE3391520F427E0FA
:1050A0005CE3B52E0EC0B92CB39427E00AC047E0EC
:1050B000491528F427E0BB2447E0942E02C0292D8F
:1050C000BB24C60104969D878C87F601608171819F
:1050D00082819381AE014F5F5F4F0B2D0E94352C73
:1050E0006C010981202E332400FF04C003FD02C09F
:1050F0001DE209C0F1FE02C01BE205C0F2FC02C0C5
:1051000010E001C010E2C1018C709070892BB9F1E0
:10511000112311F483E001C084E0881510F0882485
:105120000AC0881AF3FC07C080E290E0B3010E9435
:10513000732D8A94C9F7112329F0812F90E0B301D0
:105140000E94732D23FE03C003EE16E00EC007EE8F
:1051500016E00BC0E114F10409F0805290E0B301B5
:105160000E94732D0F5F1F4F05C0EF2CFF24F0E14D
:10517000EF22FF24F8018491882361F714C1F7FE20
:1051800012C0BC0C24FE04C08A81813309F4BA9495
:105190001B141CF0BB24B3942DC0F8E0FB1550F594
:1051A00038E0B32E27C0F6FC25C0892D90E08C1581
:1051B0009D054CF02CEFC2162FEFD20624F030E8FC
:1051C000F32A01C09A94992049F0E2E0F0E0EC0F54
:1051D000FD1FE90DF11D80818033A1F3F7FE0AC0A8
:1051E000B92CB394892D90E0C816D90614F09924EF
:1051F00001C09C18F7FC03C025E030E009C01C1476
:105200001D041CF021E030E003C096012F5F3F4FEA
:10521000112311F02F5F3F4F992029F0892D90E045
:105220000196280F391F882D90E02817390714F0B0
:10523000882401C0821A4F2C5524C20189709070B5
:10524000892B39F008C080E290E0B3010E94732DF1
:105250008A948820C1F7112329F0812F90E0B301AF
:105260000E94732D43FE07C008C080E390E0B301A5
:105270000E94732D8A948820C1F7F7FE46C08601EC
:10528000D7FE02C000E010E076010894E11CF11C9A
:10529000E01AF10A41E050E04C0F5D1FE40EF51EEC
:1052A00026014B185108892D90E0AA24BB24A81A86
:1052B000B90A5FEF0F3F150729F48EE290E0B301C2
:1052C0000E94732DC016D10634F0401651061CF40E
:1052D000F701808101C080E3015010400894E11C77
:1052E000F11C0A151B052CF090E0B3010E94732DF0
:1052F000E0CF0C151D0539F49A81963318F49533D7
:1053000011F424FE81E390E04BC08A81813309F0DF
:105310000F7E90E0B3010E94732D9920A1F08EE2E0
:1053200090E0B3010E94732D12E0E1E0F0E0EC0F99
:10533000FD1FE10FF11D1F5F808190E0B3010E940E
:10534000732D9A9491F744FC03C085E690E002C067
:1053500085E490E0B3010E94732DD7FC05C0C11411
:10536000D10441F404FF06C0D094C194D108D39471
:105370008DE201C08BE290E0B3010E94732D80E3C7
:1053800005C08F5F26EF3FEFC20ED31E3AE0C31673
:10539000D104BCF790E0B3010E94732DC601C09602
:1053A000B3010E94732DCC84DD8452C1933631F059
:1053B000933799F0933509F059C023C0F6018081E5
:1053C00089835E010894A11CB11C22E030E0C20E6A
:1053D000D31E21E0E22EF12C12C0F601A080B18094
:1053E00016FD03C06FEF7FEF02C0692D70E022E071
:1053F00030E0C20ED31EC5010E94682D7C011F77CC
:1054000013C0F601A080B18016FD03C06FEF7FEFDF
:1054100002C0692D70E022E030E0C20ED31EC5014B
:105420000E945D2D7C01106813FF07C01BC080E245
:1054300090E0B3010E94732D8A94882D90E0E816C5
:10544000F906A8F30FC0F50117FD859117FF8191AB
:105450005F0190E0B3010E94732D81108A9408943B
:10546000E108F108E114F10471F7F2C0943611F08B
:10547000993689F517FF08C0F601208131814281F4
:10548000538184E090E00AC0F601808191819C0103
:10549000442737FD4095542F82E090E0C80ED91E76
:1054A0009FE6F92EF12257FF09C05095409530959F
:1054B00021953F4F4F4F5F4F90E8F92ACA01B9013C
:1054C000AE014F5F5F4F2AE030E00E94D62DE82EFC
:1054D000E889EE1A41C0953721F41F7E2AE030E0BA
:1054E0001CC0197F9F3661F0903720F4983509F081
:1054F000B2C00FC0903739F0983709F0ACC004C083
:1055000028E030E00AC0106114FD146020E130E0B2
:1055100004C014FD166020E132E017FF08C0F60158
:10552000608171818281938144E050E008C0F6017E
:1055300080819181BC0180E090E042E050E0C40EA7
:10554000D51EAE014F5F5F4F0E94D62DE82E5889C1
:10555000E51A8FE7F82EF122F6FE0BC08EEFF82247
:10556000E91438F4F4FE07C0F2FC05C09FEEF922FE
:1055700002C01E2D01C0192DF4FE0DC0FE01EE0D5E
:10558000F11D8081803319F4E9EEFE2208C01F5F0F
:10559000F2FE05C003C08F2D867809F01F5F0F2D26
:1055A000F3FC14C0F0FE0FC0181510F09E2C0BC0B9
:1055B0009E2C980C911A182D06C080E290E0B30141
:1055C0000E94732D1F5F1815C0F304C0181510F446
:1055D000811A01C0882404FF0FC080E390E0B3016A
:1055E0000E94732D02FF1DC001FD03C088E790E0FB
:1055F0000EC088E590E00BC0802F867891F001FF07
:1056000002C08BE201C080E2F7FC8DE290E0B301C2
:105610000E94732D06C080E390E0B3010E94732DB9
:105620009A94E914C0F3EA94E1E0F0E0EC0FFD1F76
:10563000EE0DF11D808190E0B3010E94732DEE20EC
:1056400091F706C080E290E0B3010E94732D8A9426
:105650008820C1F797CCF30166817781CB016196F1
:10566000E2E10C942D32CF93DF93BC01823091059F
:1056700010F462E070E0A0917804B0917904ED013B
:10568000E0E0F0E040E050E021C088819981861799
:10569000970769F48A819B81309719F093838283FD
:1056A00004C09093790480937804FE0134C0681795
:1056B000790738F44115510519F08417950708F456
:1056C000AC01FE018A819B819C01E9012097E9F6EA
:1056D00041155105A9F1CA01861B970B049708F4DF
:1056E000BA01E0E0F0E02AC08D919C9111978417F7
:1056F0009507F9F46417750781F412968D919C91C2
:105700001397309719F09383828304C090937904A0
:1057100080937804FD0132964CC0CA01861B970B1A
:10572000FD01E80FF91F6193719302978D939C938C
:1057300040C0FD01828193819C01D9011097A1F69F
:105740008091760490917704892B41F480916B02CB
:1057500090916C02909377048093760440916D024F
:1057600050916E024115510541F44DB75EB78091DD
:10577000690290916A02481B590B2091760430917E
:105780007704CA01821B930B8617970780F0AB0141
:105790004E5F5F4F8417950750F0420F531F509391
:1057A000770440937604F9016193719302C0E0E0BD
:1057B000F0E0CF01DF91CF910895CF93DF93009771
:1057C00009F450C0EC0122971B821A82A091780440
:1057D000B0917904109709F140E050E0AC17BD0793
:1057E00008F1BB83AA83FE0121913191E20FF31FDF
:1057F000AE17BF0779F48D919C911197280F391F2F
:105800002E5F3F4F3983288312968D919C91139779
:105810009B838A834115510571F4D0937904C09319
:10582000780420C012968D919C911397AD0100973A
:1058300011F0DC01D3CFFA01D383C28321913191DE
:10584000E20FF31FCE17DF0769F488819981280FD3
:10585000391F2E5F3F4FFA01318320838A819B815C
:1058600093838283DF91CF910895283008F027E059
:105870003327DA01990F311D87FD9160009661058C
:10588000710539F432602E5F3D9330E32A95E1F7DC
:1058900008959F3F30F080387105610509F03C5F45
:1058A0003C5F3D93913008F08068911DDF93CF936A
:1058B0001F930F93FF92EF92192F987F9695E92FE0
:1058C00096959695E90FFF27EB5BF84F99273327BD
:1058D000EE24FF24A701E70105900894079428F41B
:1058E000360FE71EF81E491F511D660F771F881FD0
:1058F000991F0694A1F70590079428F4E70EF81E67
:10590000491F561FC11D770F881F991F661F0694D8
:10591000A1F70590079428F4F80E491F561FC71FDA
:10592000D11D880F991F661F771F0694A1F7059058
:10593000079420F4490F561FC71FD81F990F661FE1
:10594000771F881F0694A9F784911095177041F06E
:10595000D695C79557954795F794E7941A95C1F74B
:10596000EBEEF6E06894159015913591659195915F
:1059700005907FE27395E118F10A430B560BC90BB2
:10598000D009C0F7E10CF11E431F561FC91FD01DDF
:105990007EF4703311F48A95E6CFE894015030F02C
:1059A000080F0AF40027021708F4202F2395022F6E
:1059B0007A3328F079E37D932A95E9F710C07D9337
:1059C0002A9589F6069497956795379517951794B4
:1059D000E118F10A430B560BC90BD00998F0239537
:1059E0007E9173957A3308F070E37C932013B8F7B7
:1059F0007E9170617D9330F0839571E37D9370E3C8
:105A00002A95E1F71124EF90FF900F911F91CF910C
:105A1000DF91992787FD90950895DC012D923D92A5
:105A20004D925D926D927D928D929D92AD92BD92BE
:105A3000CD92DD92ED92FD920D931D93CD93DD936A
:105A4000FF91EF918DB78D938EB78D938FB78D9317
:105A5000ED93FD93882799270994DC01CB018130D0
:105A60009105811D2D903D904D905D906D907D90A4
:105A70008D909D90AD90BD90CD90DD90ED90FD907E
:105A80000D911D91CD91DD91ED91FD910D90F894C9
:105A9000FEBF0FBEEDBFED91FD910994FB01DC014E
:105AA0004150504048F005900D920020C9F701C0C8
:105AB0001D9241505040E0F70895FC01059061505F
:105AC00070400110D8F7809590958E0F9F1F089514
:105AD000FC016150704001900110D8F780959095BD
