:100000000C9485030C94A5030C94A5030C94A503F0
:100010000C94A5030C94A5030C94A5030C94A503C0
:100020000C94A5030C94A5030C94A9110C94A5039E
:100030000C94A5030C94A5030C94A5030C94A503A0
:100040000C94A5030C94A5030C94A5030C94A50390
:100050000C94A5030C94A5030C94A5030C94A50380
:100060000C94A5030C94A5030C94A5030C94A50370
:100070000C94A5030C94A5030C94A5030C94A50360
:100080000C94A5030C94A5030C94A503616E616CFC
:100090006F675F72656164006D6370333030382064
:1000A0006661696C006D6370333030382066616959
:1000B0006C006D61696E000A004A6F794F532076BB
:1000C000302E322E342D52433420202020507265A1
:1000D000737320474F002020202020202020206DF7
:1000E000656D6F72792066756C6C00686561702053
:1000F00073697A653A2025642062797465730A0011
:100100005F5F6D616C6C6F635F686561705F656E8A
:1001100064203D2025700A005F5F6D616C6C6F6329
:100120005F686561705F7374617274203D20257033
:100130000A0072756E6177617920636F6465000AE9
:10014000526F756E6420656E64000A526F626F7440
:100150002072656164792E202020205072657373AF
:100160002027476F27006C6F636B2068656C6420E5
:10017000627920616E6F746865720072656C65618A
:10018000736520756E68656C64206C6F636B0072BC
:10019000656C65617365206E756C6C206C6F636B4C
:1001A0000069735F68656C64206E756C6C206C6FA1
:1001B000636B00616371756972656420746F6F2091
:1001C0006D616E792074696D657300616371756925
:1001D0007265206E756C6C206C6F636B00696E6964
:1001E00074206E756C6C206C6F636B00496E697463
:1001F000206661696C3A2025730A0D0055415254FE
:1002000030206F70656E65642061742025640A0D6E
:10021000004861707079626F61726420696E697400
:1002200020737461727465640A0D004861726477AA
:100230006172652076657273696F6E2025582E2570
:100240003032580A0D00426F617264204944202503
:100250003034580A0D00426F61726420636F6E661D
:100260006967204F4B0A0D004261747465727920F2
:100270004F4B3A2025646D560A0D004650474120E9
:100280007625642E25640A0D00465047412066619C
:10029000696C757265004C6F772062617474657269
:1002A000790042616420436F6E666967000A70617D
:1002B0006E69633A2025730070616E69633A202588
:1002C000730A002074687265616420287469642070
:1002D0002564292027257327207374617475732082
:1002E00025642072756E732025750A00207468726B
:1002F00065616420287469642025642920756E6115
:100300006C6C6F63617465640A0044756D70696E2E
:100310006720746872656164207374617465733AF0
:100320000A002050432020203A20253038700A004F
:100330002053524547203A20253032700A0020537E
:10034000502020203A20253034700A0020465020CA
:1003500020203A20253034700A00203C6F6D6974EB
:1003600074696E672072302D7233313E0A00447515
:100370006D70696E67206A6D705F6275663A0A001B
:100380006F7574206F6620746872656164730073A2
:100390006C656570007969656C64006E6F206375CB
:1003A0007272656E745F7468726561640073746103
:1003B000636B206F766572666C6F7700726573652C
:1003C000727665642073706163653A2025702074CD
:1003D0006F2025700A00737461636B746F703A202C
:1003E00025700A0070632061742025700A00737004
:1003F000206F66202725732720286964202564291B
:100400002069732025700A000A737461636B206F82
:10041000766572666C6F770A0053502061626F7662
:1004200065006E6F2069646C65006D616C6C6F6354
:10043000207370616365205B25702C25705D0A0058
:10044000746872656164735B305D2E74685F737489
:10045000617475732061742025700A007468726578
:100460006164735B305D2061742025700A007469DB
:100470006D65202564002D2D206E6F2069646C65EC
:1004800020746872656164202D2D0A0073636865AD
:1004900064756C65004F6F70732E2E2E2074686526
:1004A0007265277320612072756E6E61626C6520C3
:1004B000746872656164207468617473206E6F740F
:1004C0002069646C650A0020746872656164202884
:1004D000746964202564292027257327207374619B
:1004E0007475732025640A00207468726561642045
:1004F000287469642025642920756E616C6C6F63B3
:10050000617465640A0069646C65206672656500E3
:100510002869642025642920737461636B205B253E
:10052000702C2570290A00746872656164207461FA
:10053000626C6520656E642061742025700A007409
:100540006872656164207461626C652073746172A5
:10055000742061742025700A002520356420202035
:10056000253470202020253032780A003D3D3D3D65
:100570003D3D3D3D3D3D3D3D3D3D3D3D3D3D3D3DAB
:100580000A00494E4445582020204144445220202E
:100590002056414C55450A0000000A0000110E008B
:1005A00000000A0000111F0000000A00000E1100E8
:1005B000000E1F1111111F000000000000001500A7
:1005C000000E0E0E1F0E04006469676974616C5F93
:1005D00072656164005258206C656E3A2025303295
:1005E000580A00525820706970653A2025303258F8
:1005F0000A0054582041434B207374617475733A58
:1006000020253032580A006E616E00696E66000067
:10061000407A10F35A00A0724E18090010A5D4E8D1
:100620000000E87648170000E40B54020000CA9A64
:100630003B000000E1F505000080969800000040B6
:10064000420F000000A086010000001027000000FB
:1006500000E803000000006400000000000A000041
:100660000000000100000000002C76D888DC674FF5
:100670000823DFC1DFAE59E1B1B796E5E3E453C625
:100680003AE651997696E8E6C28426EB898C9B621D
:10069000ED407C6FFCEFBC9C9F40F2BAA56FA5F4C7
:1006A00090055A2AF75C936B6CF9676DC11BFCE0EF
:1006B000E40D47FEF520E6B500D0ED902E03009442
:1006C0003577050080841E080000204E0A000000D7
:1006D000C80C333333330F986E12831141EF8D21E1
:1006E00014893BE65516CFFEE6DB18D1844B381B48
:1006F000F77C1D901DA4BBE424203284725E22810D
:1007000000C9F124ECA1E53D270011241FBECFEF65
:10071000D0E1DEBFCDBF12E0A0E0B1E0E8E1F1E55D
:1007200000E00BBF02C007900D92A432B107D9F7C9
:100730001BBE13E0A4E2B2E001C01D92AC3FB107C2
:10074000E1F70E941C0A0C94B1100C94831182E012
:1007500090E09093570280935602089581E090E0D4
:10076000909357028093560208956F927F928F92D2
:100770009F92AF92BF92CF92DF92EF92FF920F9330
:100780001F93962E872E782E692E59016A010E949A
:10079000902587FD11C0692D782D872D962D970105
:1007A000A8010E946B2718162CF0A92CB82CC72C76
:1007B000D62C02C057016801B501C6011F910F91E7
:1007C000FF90EF90DF90CF90BF90AF909F908F9071
:1007D0007F906F900895AA2797FDA095BA2FBC012E
:1007E000CD010E946D2620E030E040E853E40E94F5
:1007F0006F2720E030E044EB52E40E94942520E093
:1008000030E04FE753E40E942C250E943626DC019D
:10081000CB0160E072E00E9405289C0197FF02C0B6
:1008200020503E4FC9010895EF92FF920F931F93FE
:100830007C0180E060E070E00E94420681E060E0C0
:1008400070E00E9442060027F7FC0095102FC801B7
:10085000B7010E94CF101F910F91FF90EF90089564
:100860000E94E006882331F082E090E090935702E6
:10087000809356020895CF93DF9382E390E00E9425
:100880001404C0E0D1E02AC000D000D000D0EDB701
:10089000FEB73196ADB7BEB71296DC93CE931197E3
:1008A00080914A0290914B029383828380915802F7
:1008B00090915902958384830E94E2118DB79EB76F
:1008C00006960FB6F8949EBF0FBE8DBF62E370E030
:1008D00080E090E00E94CF100E9430048091560288
:1008E00090915702019781F2DF91CF910895AF92D5
:1008F000BF92CF92DF92EF92FF920F931F93CF930D
:10090000DF932CE0C22E21E0D22E96EAE92E9FEF53
:10091000F92E81E0A82EB12C5CC062E370E080E08B
:1009200090E00E94CF100E940A080E943626DC0147
:10093000CB018C0100D000D000D0EDB7FEB73196CE
:10094000CDB7DEB7DA82C9829383828368E671E02D
:100950000E940528958384830E94E2118DB79EB77B
:1009600006960FB6F8949EBF0FBE8DBF88279927B5
:10097000801B910B0E94EB03BC0180E00E94C50527
:1009800068EE73E080E090E00E94CF1087E190E095
:100990000E94900590934B0280934A02C701801BEE
:1009A000910B0E94EB03BC0180E00E94C50568EE3C
:1009B00073E080E090E00E94CF1087E190E00E9419
:1009C00090059093590280935802B0925702A092DA
:1009D00056028091560290915702029709F49DCFDA
:1009E000DF91CF911F910F91FF90EF90DF90CF900B
:1009F000BF90AF900895AF92BF92CF92DF92EF92E7
:100A0000FF920F931F93CF93DF9354E1A52E51E0F4
:100A1000B52E4EE1C42E41E0D42E3BE2E32E31E070
:100A2000F32EC2E0D0E040C010924B0210924A0276
:100A3000109259021092580281E095E364E070E050
:100A40000E94870500D0EDB7FEB7B282A1820E9456
:100A5000E2110F900F900E944C0700D0EDB7FEB747
:100A6000D282C1820E94E2110F900F9068EE73E073
:100A700080E090E00E94CF1000D0EDB7FEB7F28288
:100A8000E1820E94E2110F900F9088E04CE054E266
:100A900068EA79E408E813E120E030E00E94900978
:100AA000D0935702C09356028091560290915702FC
:100AB000892B09F4B9CFDF91CF911F910F91FF904E
:100AC000EF90DF90CF90BF90AF90089510925702B3
:100AD00010925602809156029091570281309105F2
:100AE00069F08130910520F082309105B9F703C09B
:100AF0000E94FB04EFCF0E947704ECCF0E943B04DE
:100B0000E9CF80E00E94190A80E090E00895909378
:100B10005B0280935A0270935D0260935C020895B9
:100B20000E947B06BC0180915A0290915B020E9458
:100B3000F12780915C0290915D02681B790BCB01DB
:100B400008950895CF92DF92EF92FF920F931F9333
:100B5000082F7B019EE5C92E92E0D92EC6010E9486
:100B60003D0B000F005E112700501F4EF801E1926F
:100B7000EF2CFF24E082C6010E94D70A1F910F913B
:100B8000FF90EF90DF90CF9008951F93182F882744
:100B900099270E946B2621E632EC44E85FE30E942D
:100BA0006F270E943B266F5B7F4F812F0E94A2051B
:100BB0001F9108956BE371E08EE592E00E94270B90
:100BC00008951F93CF93DF93CDB7DEB728970FB665
:100BD000F894DEBF0FBECDBF182F83E692E00E94CF
:100BE0003D0BDE011396E1E5F1E086E001900D9208
:100BF0008150E1F7FE01E10FF11D63817727685F06
:100C00007F4FAE014F5F5F4F80E090E00E94C114C4
:100C100083E692E00E94D70A89819A8128960FB6CE
:100C2000F894DEBF0FBECDBFDF91CF911F91089525
:100C30000E94E105AA27BB27BC01CD010E946B26BB
:100C400028E431EE40E851E40E946F270E943B26E1
:100C5000DC01CB010895FF920F931F93F82E03E65A
:100C600012E0C8010E943D0BFF0CEF2DFF27E05062
:100C7000FF4E83E08083C8010E94D70A1F910F9125
:100C8000FF9008951F93CF93DF93182FEB0183E616
:100C900092E00E943D0B110F1C161D0634F4E12F4B
:100CA000FF27E050FF4E81E007C0E12FFF2720978C
:100CB00029F0E050FF4E82E0808303C0E050FF4EF9
:100CC0001082E12FFF27EF5FFE4EBE01D7FF03C06A
:100CD000709561957F4F608383E692E00E94D70A0A
:100CE000DF91CF911F91089566E471E083E692E071
:100CF0000E94270B0895CF92DF92EF92FF920F93FD
:100D00001F93CF93DF93CDB7DEB722970FB6F8943A
:100D1000DEBF0FBECDBF982F88508830E0F406C0EC
:100D2000C7010E94B80C0E9486100CC007E110E0B9
:100D3000091B11096E010894C11CD11C95EAE92E0A
:100D400090E0F92EA601B80181E090E00E94C11464
:100D5000882331F724C0892F8051883038F01BC098
:100D6000C7010E94B80C0E9486100CC00FE110E071
:100D7000091B11096E010894C11CD11C88E9E82ED9
:100D800080E0F82EA601B80182E090E00E94C11434
:100D9000882331F704C08CE890E00E94B80C898168
:100DA0009A8122960FB6F894DEBF0FBECDBFDF91B9
:100DB000CF911F910F91FF90EF90DF90CF9008950A
:100DC00081B1992725E0969587952A95E1F7809539
:100DD000909581709070089581B1992734E096952F
:100DE00087953A95E1F78095909581709070089578
:100DF000AF92BF92CF92DF92EF92FF920F931F9329
:100E00009B017C010027112744275527CA01B901FE
:100E1000A80197010E94D22728EE33E040E050E07D
:100E20000E94182859016A0160E271EA87E090E0A7
:100E3000A80197010E9418287901002711270AC0EC
:100E4000C49AC801B7010E94EE13C498C801B70143
:100E50000E94EE130894A108B108C108D1088FEFD1
:100E6000A8168FEFB8068FEFC8068FEFD80641F7A8
:100E70001F910F91FF90EF90DF90CF90BF90AF90B8
:100E800008950C99FECF64E670E080E090E00E9447
:100E9000EE130C9BFECF08950D99FECF64E670E033
:100EA00080E090E00E94EE130D9BFECF0895CF935B
:100EB000DF93CDB7DEB722970FB6F894DEBF0FBE33
:100EC000CDBFAE014F5F5F4F6FE070E080E090E01C
:100ED0000E94C11469817A81882799270E946B2614
:100EE0002CE135E441E251E40E946F270E943B2649
:100EF000DC01CB0122960FB6F894DEBF0FBECDBF4A
:100F0000DF91CF910895CF93DF93CDB7DEB72297CE
:100F10000FB6F894DEBF0FBECDBFAE014F5F5F4F7F
:100F200061E070E080E090E00E94B21289819A81D5
:100F300022960FB6F894DEBF0FBECDBFDF91CF91E2
:100F40000895CF92DF92EF92FF920F931F936C015F
:100F50007B010E948307AA27BB27EC18FD08089491
:100F6000E11CF11C00271127BC01CD01A80197014C
:100F70000E94D2274AE096958795779567954A957E
:100F8000D1F7C60ED71EC6011F910F91FF90EF90AB
:100F9000DF90CF9008958F929F92AF92BF92CF92A1
:100FA000DF92EF92FF920F931F937B018C0188E6F3
:100FB000882E82E0982EC4010E943D0B20912402CD
:100FC000309125024091260250912702C801B701B5
:100FD0000E946F270E94FC2520932802309329024B
:100FE00040932A0250932B0260932C0270932D029F
:100FF00080932E0290932F02C4010E94D70A1F9162
:101000000F91FF90EF90DF90CF90BF90AF909F90A7
:101010008F9008958F929F92AF92BF92CF92DF925E
:10102000EF92FF920F931F9398E6892E92E0992EEC
:10103000C4010E943D0BA0902802B0902902C090EC
:101040002A02D0902B02E0902C02F0902D02009109
:101050002E0210912F022A2D3B2D4C2D5D2D6E2D31
:101060007F2D802F912F0E9467262091240230919E
:10107000250240912602509127020E9494257B016F
:101080008C01C4010E94D70AC801B7011F910F91BA
:10109000FF90EF90DF90CF90BF90AF909F908F9098
:1010A00008952F923F924F925F926F927F928F920C
:1010B0009F92AF92BF92CF92DF92EF92FF920F93E7
:1010C0001F93CF93DF93CDB7DEB760970FB6F89439
:1010D000DEBF0FBECDBF0E94290D5B016C01809168
:1010E00066010E947B067C01002711278091350252
:1010F00090913602AA27BB27E81AF90A0A0B1B0BA4
:101100000E94290D1B012C01DC01CB018A199B09CE
:10111000AC09BD095C016D01C801B701A6019501CB
:101120000E94D2273B014C012091370230913802B6
:1011300044275527C601B5010E94D2277B018C01A7
:1011400088E692E00E943D0B80913002909131023E
:10115000A0913202B09133028E0D9F1DA01FB11FCE
:101160008093300290933102A0933202B093330205
:10117000A0903002B0903102C0903202D090330281
:10118000E0906D02F0906E0200271127609130020E
:10119000709131028091320290913302A80197013F
:1011A0000E943A2860933002709331028093320299
:1011B00090933302909128029983A0912902AA83E7
:1011C000B0912A02BB83E0912B02EC83F0912C02B8
:1011D000FD8380912D028E8390912E029F83A0919A
:1011E0002F02A887C601B501A80197010E943A28DD
:1011F000621A730A840A950AD401C301BB0F880BD3
:10120000982FDC0169867A868B869C868D878E87EF
:101210008F87888BA980B985AB1A81E0E981EA15AF
:1012200008F080E0BA80FA85BF1A21E09A819B1508
:1012300008F020E0AB2DA81B8A2F91E0BA1608F029
:1012400090E0292BB82ECB80BB85CB1A31E0EB8107
:10125000EC1508F030E08C2D821B91E0C81608F0E8
:1012600090E0392BC82EDC80FC85DF1A21E08C81D0
:101270008D1508F020E08D2D831B91E0D81608F025
:1012800090E0292BD82EED809D85E91A31E0AD81C3
:10129000AE1508F030E08E2D821B91E0E81608F0C4
:1012A00090E0392BE82EFE80BE85FB1A21E0EE810E
:1012B000EF1508F020E08F2D831B91E0F81608F061
:1012C00090E0292BF82E0F81FF850F1B91E08F8175
:1012D000801708F090E0802F821B21E0081708F0AB
:1012E00020E0922B1885A8891A1BE12FE91BA092F8
:1012F0002802B0922902C0922A02D0922B02E092D8
:101300002C02F0922D0280932E02E0932F0288E6A9
:1013100092E00E94D70A0E94861062015101DFCE3E
:101320002F923F924F925F926F927F928F929F92F5
:10133000AF92BF92CF92DF92EF92FF920F931F93E3
:1013400018012901809366014093240250932502DD
:1013500060932602709327020E941A0D3B014C01F4
:10136000AA24BB246501EE24FF2487010FC08091CD
:1013700066010E947B06AA27BB27E80EF91E0A1FFA
:101380001B1F0894A11CB11CC11CD11C0E941A0D6A
:101390006619770988099909621573058405950509
:1013A00030F3C801B701A60195010E9418283093B7
:1013B000360220933502C801B701A60195010E94AB
:1013C00018287093380260933702B0926E02A09290
:1013D0006D02109228021092290210922A02109295
:1013E0002B0210922C0210922D0210922E021092BB
:1013F0002F0267E571E088E692E00E94270B21E664
:1014000031E040E060E071E081E598E00E944B0E41
:101410001F910F91FF90EF90DF90CF90BF90AF9012
:101420009F908F907F906F905F904F903F902F9004
:10143000089580937F010895CFEFD0E1DEBFCDBF47
:101440008091390290913A02892B21F082E391E058
:101450000E94B80C83E897E09093230280932202C5
:101460000E94E60B80912002909121029F938F931E
:1014700088E191E09F938F930E94951380912202BF
:10148000909123029F938F9380E091E09F938F939D
:101490000E949513809122029091230220912002B4
:1014A00030912102821B930B880F991F9F938F937A
:1014B0008BEE90E09F938F930E9495138DB79EB70C
:1014C0000C960FB6F8949EBF0FBE8DBF20912002E0
:1014D000309121028091220290912302281739072E
:1014E00020F086ED90E00E94B80C0E94121909EBE2
:1014F00010E01F930F930E94AB171F930F930E944E
:10150000951387EB90E09F938F930E9495130E9411
:101510004C070E94011127E631E040E060E071E0F5
:1015200086EA9AE00E944B0E0E94900F82EB90E0B8
:101530000E94B80C8DB79EB706960FB6F8949EBF62
:101540000FBE8DBF80E090E00C94B1100E94810529
:101550008AE491E09F938F930E94AB170E944C07FF
:101560000E94121925E731E040E060E071E086E674
:1015700095E00E944B0E0F900F9080917F01882381
:1015800019F40E948610FDCF60E97FE581E090E0CC
:101590000E94CF108FE391E09F938F930E94AB172F
:1015A0000E94380E0F900F9080E090E008951F93F6
:1015B000CF93DF93EC01892B21F48FE891E00E9417
:1015C000B80C1FB7F8948881882321F48BE791E049
:1015D0000E94B80C2B813C818091390290913A0293
:1015E0002817390721F086E691E00E94B80C88811F
:1015F00081508883882311F41C821B828FB7107856
:10160000182B1FBFDF91CF911F910895CF93DF93C8
:10161000EC01892B21F481EA91E00E94B80C209121
:10162000390230913A028B819C812817390719F0D1
:1016300080E090E009C090E08881882309F491E07F
:1016400081E09827892F9927DF91CF9108950F93F3
:101650001F93CF93DF93EC018B01892B21F48DED48
:1016600091E00E94B80C18821A8309831C821B82A5
:10167000DF91CF911F910F910895CF93DF93EC01EC
:10168000892B21F48BEC91E00E94B80C88818F3F6C
:1016900021F483EB91E00E94B80C5FB75078F89486
:1016A0002B813C818091390290913A024881281720
:1016B000390719F44F5F48830AC0442361F481E07D
:1016C00088838091390290913A029C838B838FB7F3
:1016D000582B5FBF06C08FB7582B5FBF0E94861084
:1016E000DCCFDF91CF9108950F931F93CF93DF93BA
:1016F000CDB7DEB761970FB6F894DEBF0FBECDBF92
:101700008C0141E150E0BC01CE0101960E946B24A6
:10171000198A1F930F938CEE91E09F938F930E94F1
:10172000951380E10E942F191F930F930E94E817D1
:101730008FE10E942F1960E070E083E00E944B1956
:101740008DB79EB706960FB6F8949EBF0FBE8DBF9D
:10175000FFCF60E070E080E090E00E94BE156CE496
:1017600072E08AE090E00E9469150E942117ECE483
:10177000F2E020E030E081913827032E0294902D92
:101780009F709327832F8025880F807E9827802D38
:101790008327807F8695032E000C881F369536950B
:1017A00036953F7138273227292F82E0E435F80734
:1017B00011F740E050E080915402909155022817B3
:1017C000390711F441E050E0CA0108950E948712E0
:1017D0001F9A80E09BE40E944A138FED91E0909362
:1017E000FB038093FA0380E09BE49F938F938CEF3D
:1017F00091E09F938F930E94951381E192E09F93D4
:101800008F930E9495130E947A1A0E94C61A0E9412
:1018100012130E9474060E94DA050E94ED1986EFE9
:1018200091E09093F9038093F8030E94E1120E94E3
:10183000271C0E9482110E94A90B2DB73EB72A5F78
:101840003F4F0FB6F8943EBF0FBE2DBF882321F443
:1018500082EA92E00E94740B86E592E09F938F9358
:101860000E94951380914C0290914D029C01307022
:101870003F932F93892F99279F938F938BE292E029
:101880009F938F930E94951380914E0290914F02E7
:101890009F938F9386E492E09F938F930E9495137A
:1018A00080914C0290914D029C0130703F932F9398
:1018B000892F99279F938F9380E891E09F938F932F
:1018C0000E94E8170E9457072DB73EB72E5E3F4F84
:1018D0000FB6F8943EBF0FBE2DBF8C549D4120F42F
:1018E00086E992E00E94740B0E9457079F938F93A2
:1018F00088E692E09F938F930E9495136091520225
:101900007091530280E091E00E9431140F900F908B
:101910000F900F90882321F489E892E00E94740BC5
:101920008091FF112091FE1199279F938F93332768
:101930003F932F938BE792E09F938F930E94951391
:101940008FE10E942F1960E070E081E00E944B1946
:101950001E9868EE73E080E793E00E94F8068DB76A
:101960009EB706960FB6F8949EBF0FBE8DBF089522
:10197000CF93DF93CDB7DEB76A970FB6F894DEBF8B
:101980000FBECDBFBC01F894892B41F04AE150E075
:10199000CE0101960E946B241A8E01C0198210920A
:1019A000BC031092C0031092BF03CE0101969F9317
:1019B0008F938DEA92E09F938F930E94AB170E94C2
:1019C000380E0F900F900F900F906A960FB6F89404
:1019D000DEBF0FBECDBFDF91CF910895CF93DF93D0
:1019E000EC01F8941092BC031092C0031092BF0354
:1019F0000E941219209711F4C4EAD1E0DF93CF932B
:101A000088EB92E09F938F930E94AB170E94380E51
:101A10000F900F900F900F90DF91CF91089583E07A
:101A200085BD83E884BD86B7806486BF87B7806440
:101A300087BF08952FB7F89460913B0270913C02E4
:101A400080913D0290913E023FB72078232B2FBF1B
:101A50000895EF92FF920F931F932FB7F894609120
:101A60003B0270913C0280913D0290913E0244B550
:101A70003FB72078232B2FBF242F33272358304004
:101A800079010027F7FC0095102F2DE730E040E0AA
:101A900050E00E94D227E60EF71E081F191F83E0B0
:101AA000EE0CFF1C001F111F8A95D1F7C801B7016A
:101AB0001F910F91FF90EF9008959C01F894E5EB32
:101AC000F2E08081833039F4828593858217930711
:101AD00011F481E08083BA9683E0E13BF80789F74F
:101AE0007894089577278CE291E0689F9001699F30
:101AF000300D789F300D112487EB9FE0821B930BF4
:101B00000895AF92BF92CF92DF92FF920F931F93EF
:101B1000CF93DF93FFB6F8948AE093E09F938F937F
:101B20000E9495130BE812E0C0E0D0E00F900F90F8
:101B300023ECA22E22E0B22E9CEEC92E92E0D92EEA
:101B4000F8012081222359F4DF93CF93DF92CF92C3
:101B50000E9495130F900F900F900F901EC0F801E8
:101B600082819381A481B581332744855585BF93B4
:101B7000AF939F938F933F932F935F934F93DF93F5
:101B8000CF93BF92AF920E9495138DB79EB70C96DC
:101B90000FB6F8949EBF0FBE8DBF2196065D1F4FF6
:101BA000C730D10569F68FB790E8F922F82AFFBE51
:101BB000DF91CF911F910F91FF90DF90CF90BF9059
:101BC000AF9008950F931F938C018EE693E09F933F
:101BD0008F930E9495138AE593E09F938F930E94C1
:101BE0009513F80180899189AA27BB27BF93AF93EA
:101BF0009F938F938CE493E09F938F930E94951310
:101C0000F80182899389AA27BB27BF93AF939F933B
:101C10008F938EE393E09F938F930E949513F80127
:101C200084899927AA27BB27BF93AF939F938F934C
:101C300080E393E09F938F930E949513F801858929
:101C40009689AA27BB27BF93AF939F938F9382E276
:101C500093E09F938F930E9495138DB79EB74C96F8
:101C60000FB6F8949EBF0FBE8DBF1F910F910895C0
:101C7000CF93DF93F8941092630210926702109250
:101C80006602C0E0D0E08C2F0E942B062196C63061
:101C9000D105C9F7FFCF0F931F93CF93DF938C012B
:101CA0006FB7F894EBE8F2E040E050E080818823E1
:101CB00059F04F5F5F4FBA9647305105B9F780E84A
:101CC00093E00E94B80CFFCF8AE290E0489FD001D9
:101CD000499FB00D589FB00D1124A159BD4F81E00F
:101CE000ED018C8F39A728A7FD01168E178E10A243
:101CF00011A22CE231E0328F218F87E119928A956F
:101D0000E9F7842F9927F9018E9F90018F9F300D5D
:101D10009E9F300D1124E7EBFFE0E21BF30B21EB5C
:101D200030E120833197232F332720833197ED0132
:101D3000FB8BEA8B1E8B0D8B2C8920682C8B2FB78D
:101D40006078622B6FBFDF91CF911F910F91089543
:101D50000F931F93CF93DF93EC010BE812E0809178
:101D60008B02813009F44BC086E794E09F938F93F8
:101D70000E94951380913B0290913C02A0913D02FC
:101D8000B0913E02BF93AF939F938F938EE694E002
:101D90009F938F930E9495130C5110401F930F93A4
:101DA000045E1F4F8CE594E09F938F930E949513E0
:101DB0001F930F9380E494E09F938F930E94951359
:101DC00080912202909123022091200230912102E1
:101DD0009F938F933F932F938AE294E09F938F93E7
:101DE0000E94951382E294E00E94B80C4DB75EB752
:101DF0004A5E5F4F0FB6F8945EBF0FBE4DBF8B8D2E
:101E000099272CE231E0A901849F9001859F300D34
:101E1000949F300D112487EB9FE0821B930B2A893E
:101E20003B898217930720F489E194E00E94B80C63
:101E30008F89988D2A893B89821B930B298D3A8D36
:101E40002817390708F04DC088E094E09F938F93DE
:101E50000E9495134A895B898B8D992728A539A5FE
:101E60005F934F939F938F933F932F938EEE93E0C7
:101E70009F938F930E949513CE010E94E20D8D894E
:101E80009E899F938F9384EE93E09F938F930E94FC
:101E900095138F89988D9F938F9386ED93E09F93F1
:101EA0008F930E9495134F89588DCA010196298DF1
:101EB0003A8D821B930B5F934F939F938F938CEB81
:101EC00093E09F938F930E9495138DEA93E00E9475
:101ED000B80C8DB79EB748960FB6F8949EBF0FBE4C
:101EE0008DBFDF91CF911F910F91089590933A028A
:101EF000809339020E94A80EE0913902F0913A02D3
:101F0000868D978DA0A1B1A10196A11DB11D868FCF
:101F1000978FA0A3B1A361E070E0CF010E944A2493
:101F2000AF92BF92CF92DF92EF92FF920F931F93E7
:101F3000CF93DF93E0913902F0913A02309719F490
:101F4000AA24BB2403C0838DA82EBB24F1E0EF2E6E
:101F5000F12CEAE2CE2ED12CAC9C8001AD9C100D70
:101F6000BC9C100D112401591D4FC7018A0D9B1DEA
:101F700067E070E00E940528EC01009709F448C072
:101F80008C9DF0018D9DF00D9C9DF00D1124E1596B
:101F9000FD4F848D8430B1F420913B0230913C029E
:101FA00040913D0250913E0282A193A1A4A1B5A10E
:101FB000281739074A075B0728F081E0848FCF0193
:101FC0000E94760FCC9DF001CD9DF00DDC9DF00DB3
:101FD0001124E159FD4F848D8130B9F0E8018C8DD9
:101FE0008430B1F420913B0230913C0240913D029B
:101FF00050913E028AA19BA1ACA1BDA1281739072F
:102000004A075B0728F081E08C8FCF010E94760F92
:102010000894E11CF11CE8E0EE16F10409F0A5CFEC
:1020200080918B02813021F48FE692E00E94760F3E
:10203000F8940BE812E0C0E0D0E077ECA72E74E053
:10204000B72E65E9C62E64E0D62E58EEE52E54E094
:10205000F52EF8018081882359F4DF93CF93FF9206
:10206000EF920E9495130F900F900F900F9020C049
:102070009927F801248535859F938F933F932F935C
:10208000DF93CF93BF92AF920E9495138DB79EB707
:1020900008960FB6F8949EBF0FBE8DBFF8018081E1
:1020A000813031F4DF92CF920E9495130F900F9000
:1020B0002196065D1F4FC730D10559F68CE894E094
:1020C0000E94B80CDF91CF911F910F91FF90EF907C
:1020D000DF90CF90BF90AF9008958091390290919A
:1020E0003A02892B21F48BE993E00E94B80C80918D
:1020F000390290913A020E942A24892B31F461E03E
:1021000070E085E993E00E944A240895F8941F92B4
:102110000F922F933F934F935F936F937F938F9380
:102120009F93AF93BF93EF93FF9380913902909168
:102130003A02892B21F485E993E00E94B80C0E94B1
:102140006D10FF91EF91BF91AF919F918F917F9112
:102150006F915F914F913F912F910F901F907894C5
:1021600008950E948610FDCFCF93DF93EC01F89481
:102170008091390290913A02892B21F48FE893E003
:102180000E94B80CE0913902F0913A02D7A3C6A39D
:1021900083E0848F0E948610DF91CF9108959B0188
:1021A000AC010FB607FC03C00E940E140895F8940A
:1021B000E0913902F0913A0284E0848F80913B02F1
:1021C00090913C02A0913D02B0913E02E091390213
:1021D000F0913A02820F931FA41FB51F82A393A30D
:1021E000A4A3B5A30E94861008950E94810D68EBF8
:1021F0007BE080E090E00E94CF10F7CF0E94861035
:10220000FDCFCF92DF92EF92FF920F931F93CF9368
:10221000DF930FE612E01F930F938FE395E09F93F8
:102220008F930E94951385E993E09F938F9387E2A4
:1022300095E09F938F930E949513E80120E030E092
:1022400007EB1FE08DB79EB708960FB6F8949EBFB8
:102250000FBE8DBFA0E1CA2EA5E0DA2E2B8F1C8EFB
:10226000C801188F0F8B1E8E1F8E18A219A279011C
:102270000894E11CF11C0C5211401F930F939F9383
:102280008F933F932F93DF92CF920E949513AA963C
:102290008DB79EB708960FB6F8949EBF0FBE8DBF40
:1022A00097E0E916F10411F09701D8CF25EA31E063
:1022B00040E060E071E08EEF90E10E944B0E809173
:1022C0008B02882321F486E095E00E94B80C85E912
:1022D00093E00E942A248FEF90E19093A8038093CB
:1022E000A70380E99FE09093AB038093AA030E9429
:1022F0000F0DDF91CF911F910F91FF90EF90DF9025
:10230000CF90089508951F920F920FB60F92112447
:102310002F933F934F935F936F937F938F939F93ED
:10232000AF93BF93EF93FF938AEA91E00E94B80CBA
:10233000FF91EF91BF91AF919F918F917F916F919D
:102340005F914F913F912F910F900FBE0F901F9073
:1023500018951F920F920FB60F9211242F933F934F
:102360004F935F936F937F938F939F93AF93BF939D
:10237000EF93FF9383E884BD80913B0290913C02F0
:10238000A0913D02B0913E020196A11DB11D809326
:102390003B0290933C02A0933D02B0933E020E9408
:1023A0006D10FF91EF91BF91AF919F918F917F91B0
:1023B0006F915F914F913F912F910F900FBE0F90B2
:1023C0001F901895CF92DF92EF92FF920F931F9379
:1023D000CF93DF93CDB7DEB722970FB6F894DEBF69
:1023E0000FBECDBF8E01035F1F4FF801E190F1904A
:1023F0008F018CEBC82E83E0D82EC6010E943D0BC6
:102400001A830983A801B70186EF91E00E94C71ED5
:102410008C01C6010E94D70AC80122960FB6F89413
:10242000DEBF0FBECDBFDF91CF911F910F91FF9007
:10243000EF90DF90CF900895CF92DF92EF92FF92CE
:102440000F931F93CF93DF938C01F62E82E895E0D4
:102450009F938F930E9495138CE695E09F938F93A3
:102460000E949513E80100E010E00F900F900F908C
:102470000F90EF2CFF2499E5C92E95E0D92E17C0B7
:10248000888199279F938F93DF93CF931F930F9307
:10249000DF92CF920E9495130F5F1F4F21968DB749
:1024A0009EB708960FB6F8949EBF0FBE8DBF0E154F
:1024B0001F0531F7DF91CF911F910F91FF90EF90A2
:1024C000DF90CF900895CF93DF93EC01892BD1F06B
:1024D0000E941219DF93CF938CEB91E09F938F931F
:1024E0000E94E817DF93CF938FEB91E09F938F9338
:1024F0000E94D2138DB79EB708960FB6F8949EBF70
:102500000FBE8DBF0E944C07DF91CF91089585B714
:10251000806885BFECE6F0E080818F778083EDE610
:10252000F0E080818D7F808385B78F7B85BF83EFCF
:1025300087BBC69A8CEF81BB8EEC82B983B1806376
:1025400083B98DE08093610010926400E2E6F0E0D0
:102550008081846080831A9AC09A808181608083A0
:102560001B9A0895EF92FF920F931F93CF93DF93DF
:102570008C017B01EA018CEA93E00E943D0B0795F8
:10258000002707950E29006407B987ED86B9349BAB
:10259000FECF349A24B185B19927982F8827332705
:1025A000822B932B998388838CEA93E00E94D70A2D
:1025B00080E090E0DF91CF911F910F91FF90EF901D
:1025C000089563EC71E08CEA93E00E94270B089574
:1025D00060659C0136952795622B6DB980FF02C01E
:1025E000709A01C0709887B3876087BB0895FC011B
:1025F00090E007C080818FB9779BFECF8FB1819328
:102600009F5F9617B9F780E090E0089581EB93E023
:102610000E94D70A089581EB93E00E943D0B80E071
:1026200090E008956CEC71E081EB93E00E94270B41
:1026300008951E9A5D9BFECF8CB91E98992787FD41
:10264000909508951F93182F8A3019F48DE00E94F9
:102650002213812F0E9419131F910895CF93DF93A6
:10266000EC0103C021960E94191388818823D1F7B9
:10267000DF91CF9108951E9A5F9BFECF1E988CB17B
:10268000992787FD909508958BB18078992787FDCC
:10269000909508959C014427552794E0220F331FFD
:1026A000441F551F9A95D1F760E072E18AE790E0E8
:1026B0000E941828822F815089B921503040404013
:1026C0005040232F342F452F5527209390001BB8BF
:1026D00086E08093950088E18AB965ED71E086EB2C
:1026E00093E00E94270B0895CF92DF92EF92FF9222
:1026F0000F931F936C018B0126EBE22E23E0F22E49
:10270000C7010E943D0BA801B6018FED91E00E9428
:10271000BC248C01C7010E94D70AC8011F910F91E8
:10272000FF90EF90DF90CF900895CF93DF93CDB7D8
:10273000DEB722970FB6F894DEBF0FBECDBFFE0105
:10274000379681919191FA83E983BF010E947413B6
:1027500022960FB6F894DEBF0FBECDBFDF91CF91AA
:102760000895CF92DF92EF92FF920F931F936C0127
:102770008B0136EBE32E33E0F32EC7010E943D0BB5
:10278000A801B6018FED91E00E94C71E8C01C70120
:102790000E94D70AC8011F910F91FF90EF90DF9020
:1027A000CF900895CF93DF93CDB7DEB722970FB6C2
:1027B000F894DEBF0FBECDBFFE0137968191919197
:1027C000FA83E983BF010E94B11322960FB6F894F1
:1027D000DEBF0FBECDBFDF91CF9108959B01AC014D
:1027E00007C080E08A95F1F72056304040405040C5
:1027F0002136310541055105A0F7CA01B90120E094
:1028000032E14AE750E00E94D22720EC36EC4DE25C
:1028100050E00E9418282A95F1F708959B01AC0119
:1028200008C080E09AEF0197F1F720523040404015
:102830005040213231054105510598F7CA01B901CF
:1028400020E032E14AE750E00E94D22720EA3FE050
:1028500040E050E00E941828DA01C9010197F1F721
:1028600008959F92AF92BF92CF92DF92EF92FF9224
:102870000F931F93CF93DF93CDB7DEB728970FB693
:10288000F894DEBF0FBECDBF6B017C01002711277E
:10289000C801B7010E94BE158F3FD1F3C69864E608
:1028A00070E080E090E00E94EE13C69A00E010E035
:1028B0007E010894E11CF11C49E0A42EB12CAC0E61
:1028C000BD1E3DC00E943315682F0F5F1F4F807CD7
:1028D000803C19F09924939408C03FE3932E9622EC
:1028E0000E943315682F0F5F1F4F40E050E0F70143
:1028F000E40FF51F27E030E0241B350B81E090E06A
:1029000002C0880F991F2A95E2F7862380834F5FC4
:102910005F4F4830510559F790E00DC08081882302
:1029200011F0C59A01C0C598C79AC7983196EA15A3
:10293000FB05A1F79F5F991511F0F701EFCF0C157B
:102940001D0508F4BFCF0E942117809163009927CD
:1029500023E0969587952A95E1F7817090702896E7
:102960000FB6F894DEBF0FBECDBFDF91CF911F91A0
:102970000F91FF90EF90DF90CF90BF90AF909F901E
:102980000895CF92DF92EF92FF920F931F93CF9310
:10299000DF93CDB7DEB723970FB6F894DEBF0FBE37
:1029A000CDBF8C017B016A010E940B138F3F19F48C
:1029B0008FEF9FEF49C08E2D880F880F8064898329
:1029C00060E082E090E00E94E8120130110549F0D9
:1029D0000130110520F00230110551F404C01A989D
:1029E00007C0C09805C0809162008E7F809362000E
:1029F00063E0CE0101960E94F7120130110549F003
:102A00000130110520F00230110551F404C01A9A6A
:102A100007C0C09A05C08091620081608093620007
:102A20008A819927982F88272B813327822B932BF4
:102A300026E0969587952A95E1F7F60191838083A4
:102A40000E94061380E090E023960FB6F894DEBF54
:102A50000FBECDBFDF91CF911F910F91FF90EF90EF
:102A6000DF90CF900895EF92FF921F93CF93DF9363
:102A7000CDB7DEB722970FB6F894DEBF0FBECDBF3D
:102A800061E0CE0101960E94F7128091BB038F3F57
:102A900069F410E082E0E82EF12CEC0EFD1E61E0FE
:102AA000C7010E94F7121F5F1830C9F78091BB035E
:102AB0008F5F8093BB038981992722960FB6F89484
:102AC000DEBF0FBECDBFDF91CF911F91FF90EF9082
:102AD0000895EF92FF920F931F93CF93DF937C01A2
:102AE0008B01C0E0D0E007C00E943315F801EC0F65
:102AF000FD1F80832196CE15DF05B1F780E090E0C1
:102B0000DF91CF911F910F91FF90EF9008950F9358
:102B10001F93CF93DF93CDB7DEB721970FB6F8940D
:102B2000DEBF0FBECDBF87ED8983809162008B7FB2
:102B30008093620061E08E010F5F1F4FC8010E9409
:102B4000F71261E0C8010E94F712898187FFF9CF6F
:102B50008091620084608093620061E070E080E0B8
:102B600090E00E94EE1321960FB6F894DEBF0FBEE0
:102B7000CDBFDF91CF911F910F910895EF92FF92FA
:102B80000F931F93CF93DF93CDB7DEB724970FB684
:102B9000F894DEBF0FBECDBF7B018C010E940B13EA
:102BA0008F3F19F48FEF9FEF2EC060E081E090E03F
:102BB0000E94E81288EE8983D801C7012FE0B695FC
:102BC000A795979587952A95D1F78A83BB27A12F3B
:102BD000902F8F2D880F8B83E092BB03EC820E9495
:102BE0008715809162008B7F8093620064E08E0184
:102BF0000F5F1F4FC8010E94F71264E0C8010E94D6
:102C0000F71280E090E024960FB6F894DEBF0FBE76
:102C1000CDBFDF91CF911F910F91FF90EF9008955D
:102C20008F929F92AF92BF92CF92DF92EF92FF92DC
:102C30000F931F93CF93DF93CDB7DEB724970FB6D3
:102C4000F894DEBF0FBECDBF6B017C014A01590174
:102C50000E940B138F3F19F42FEF3FEF44C060E049
:102C600081E090E00E94E81284E889831A821B8246
:102C70001C2DCC82809162008B7F8093620064E087
:102C80007E010894E11CF11CC7010E94F712212F5C
:102C90003327C501820F931F8150914028F0A12C4A
:102CA00041E0B42EA21AB30A00E010E00BC0F40118
:102CB000E00FF11F8081898361E0C7010E94F71254
:102CC0000F5F1F4F0A151B0591F78091620084600A
:102CD0008093620061E070E080E090E00E94EE137B
:102CE0000E9406139501C90124960FB6F894DEBF21
:102CF0000FBECDBFDF91CF911F910F91FF90EF904D
:102D0000DF90CF90BF90AF909F908F900895EF92FB
:102D1000FF920F931F93CF93DF93CDB7DEB7249726
:102D20000FB6F894DEBF0FBECDBF7B018C010E94B1
:102D30000B138F3F19F48FEF9FEF33C060E081E0FA
:102D400090E00E94E81283E88983D801C7016FE010
:102D5000B695A795979587956A95D1F78A83BB27EE
:102D6000A12F902F8F2D880F8B831C820E94871597
:102D7000809162008B7F8093620064E0CE010196B7
:102D80000E94F7128091620084608093620061E08B
:102D900070E080E090E00E94EE130E94061380E055
:102DA00090E024960FB6F894DEBF0FBECDBFDF9142
:102DB000CF911F910F91FF90EF9008950F931F9364
:102DC000CF93DF93CDB7DEB722970FB6F894DEBF6F
:102DD0000FBECDBF8C0187ED89831A820E940B1331
:102DE0008F3F19F48FEF9FEF21C060E081E090E00A
:102DF0000E94E812809162008B7F8093620062E003
:102E0000CE0101960E94F712809162008460809347
:102E1000620061E070E080E090E00E94EE130E94AA
:102E200006138A81F801808380E090E022960FB635
:102E3000F894DEBF0FBECDBFDF91CF911F910F91F0
:102E40000895E2E6F0E080818460808361E070E0D4
:102E500080E090E00E94EE130E9406130895EF9226
:102E6000FF920F931F93CF93DF93CDB7DEB72497D5
:102E70000FB6F894DEBF0FBECDBF7B018C010E9460
:102E80000B138F3F19F48FEF9FEF33C060E081E0A9
:102E900090E00E94E81283E58983D801C701EFE042
:102EA000B695A79597958795EA95D1F78A83BB271D
:102EB000A12F902F8F2D880F8B831C820E94871546
:102EC000809162008B7F8093620064E0CE01019666
:102ED0000E94F7128091620084608093620061E03A
:102EE00070E080E090E00E94EE130E94061380E004
:102EF00090E024960FB6F894DEBF0FBECDBFDF91F1
:102F0000CF911F910F91FF90EF90089580913F0214
:102F100099270895CF92DF92EF92FF920F931F931C
:102F20006C018B018CEBE82E83E0F82EC7010E9428
:102F30003D0BA801B60186EF91E00E94BC248C01F4
:102F4000C7010E94D70AC8011F910F91FF90EF900F
:102F5000DF90CF900895CF93DF93CDB7DEB7229760
:102F60000FB6F894DEBF0FBECDBFFE01379681913C
:102F70009191FA83E983BF010E948A1722960FB6C6
:102F8000F894DEBF0FBECDBFDF91CF910895CF92F1
:102F9000DF92EF92FF920F931F936C018B019CEBDA
:102FA000E92E93E0F92EC7010E943D0BA801B6015E
:102FB00086EF91E00E94C71E8C01C7010E94D70ACC
:102FC000C8011F910F91FF90EF90DF90CF9008956F
:102FD000CF93DF93CDB7DEB722970FB6F894DEBF5D
:102FE0000FBECDBFFE01379681919191FA83E9839F
:102FF000BF010E94C71722960FB6F894DEBF0FBE1E
:10300000CDBFDF91CF9108950F931F93082F162FF7
:103010008CEB93E00E943D0B912F92959F700023C3
:1030200029F0979A82B38370806C04C0979882B31A
:1030300083708064990F990F982B92BB60E670E0C3
:1030400080E090E00E94EE1360E670E080E090E0A7
:103050000E94EE1360E670E080E090E00E94EE13C4
:1030600060E670E080E090E00E94EE1360E670E0C1
:1030700080E090E00E94EE1360E670E080E090E077
:103080000E94EE1360E670E080E090E00E94EE1394
:1030900060E670E080E090E00E94EE1360E370E094
:1030A00080E090E00E94EE13969860E670E080E089
:1030B00090E00E94EE1360E670E080E090E00E94F5
:1030C000EE1360E670E080E090E00E94EE1360E6B0
:1030D00070E080E090E00E94EE1360E670E080E037
:1030E00090E00E94EE1360E670E080E090E00E94C5
:1030F000EE1360E670E080E090E00E94EE1360E680
:1031000070E080E090E00E94EE1360E370E080E009
:1031100090E00E94EE13612F7727002321F082B305
:103120008370806C03C082B3837080646F70707032
:10313000660F771F660F771F862B82BB60E670E0F5
:1031400080E090E00E94EE1360E670E080E090E0A6
:103150000E94EE1360E670E080E090E00E94EE13C3
:1031600060E670E080E090E00E94EE1360E670E0C0
:1031700080E090E00E94EE1360E670E080E090E076
:103180000E94EE1360E670E080E090E00E94EE1393
:1031900060E670E080E090E00E94EE1360E370E093
:1031A00080E090E00E94EE13969860E670E080E088
:1031B00090E00E94EE1360E670E080E090E00E94F4
:1031C000EE1360E670E080E090E00E94EE1360E6AF
:1031D00070E080E090E00E94EE1360E670E080E036
:1031E00090E00E94EE1360E670E080E090E00E94C4
:1031F000EE1360E670E080E090E00E94EE1360E67F
:1032000070E080E090E00E94EE1360E370E080E008
:1032100090E00E94EE138CEB93E00E94D70A1F917E
:103220000F9108958CEB93E00E943D0B61E080E0EC
:103230000E94041862E080E00E940418E1ECF3E0D0
:1032400080E2819383E0E13EF807D1F710923F02DC
:10325000109240028CEB93E00E94D70A08951F93CE
:10326000182F8CEB93E00E943D0B10933F0280914E
:103270004002181751F010934002103108F0105D11
:103280001068612F80E00E9404188CEB93E00E948C
:10329000D70A1F9108951F93182F8CEB93E00E947B
:1032A0003D0B80914102882321F00E941219109257
:1032B000410280913F02803211F410923F021A3095
:1032C00021F481E08093410224C090913F0290312B
:1032D00019F48FEF80934002E92FFF27EF53FC4F43
:1032E0008081811789F0108380914002891719F03D
:1032F000892F0E942F19612F81E00E94041880916C
:1033000040028F5F8093400280913F028F5F8093E5
:103310003F028CEB93E00E94D70A812F992787FD0B
:1033200090951F9108950F931F93CF93DF938C0176
:103330008CEB93E00E943D0BE8011AC06A3039F42F
:1033400060E880E00E94041810923F0203C081E010
:103350000E9404189E01201B2F3021F460EC80E0B5
:103360000E94041880913F028F5F80933F02219654
:103370006881662319F78CEB93E00E94D70ADF91EE
:10338000CF911F910F910895FF920F931F93CF93A9
:10339000DF93F82E8B018CEB93E00E943D0BFF0C2A
:1033A000FF0CFF0CE80100E0602F6F0D606480E00F
:1033B0000E940418FE01649181E00E9404180F5FCE
:1033C0002196083089F78CEB93E00E94D70ADF91B1
:1033D000CF911F910F91FF90089564E670E080E017
:1033E00090E00E940E1463E380E00E94041862E300
:1033F00080E00E94041868E975E081E00E94C41929
:1034000060EA75E082E00E94C41968EA75E083E032
:103410000E94C41960EB75E084E00E94C41968EB57
:1034200075E085E00E94C41960EC75E086E00E94BA
:10343000C41961E080E00E94041862E080E00E940C
:103440000418E1ECF3E080E2819383E0E13EF807C9
:10345000D1F766E080E00E9404186CE080E00E94F2
:1034600004186DEE71E08CEB93E00E94270B089539
:10347000EF92FF921F9381EEE82E83E0F82EC701B2
:103480000E943D0B10911E11C7010E94D70A109592
:10349000812F99271F91FF90EF9008951F93182F68
:1034A0008830A8F481EE93E00E943D0B80911E11BC
:1034B00099278095909502C0959587951A95E2F782
:1034C000182F117081EE93E00E94D70A0FC0883147
:1034D00040F40E947B0610E08150924038F011E0E9
:1034E00005C088EC95E00E94B80C10E0812F992768
:1034F0001F91089564E072E081EE93E00E94270B33
:103500000895CF92DF92EF92FF920F931F93082FAF
:1035100096EEC92E93E0D92EC6010E943D0B000FF6
:103520000452112700501F4EF801E1900081C6019E
:103530000E94D70A1127102F0027FF24C8018E29C7
:103540009F291F910F91FF90EF90DF90CF900895EA
:103550001F93182F0E94811AE12FFF27EE0FFF1FE4
:10356000EE5EFD4F20813181821B930B1F910895E8
:103570001F93182F0E94811AE12FFF27EE0FFF1FC4
:10358000EE5EFD4F918380831F91089561E172E0AB
:1035900086EE93E00E94270B0895E2E6F0E080813A
:1035A000877F808366E970E080E090E00E94EE1300
:1035B0006EE080E00E94231E08950F931F9302E6A1
:1035C00010E0F8018081877F808366E970E080E009
:1035D00090E00E94EE136FE080E00E94231EF8014D
:1035E00080818860808366E970E080E090E00E94DE
:1035F000EE131F910F910895CF92DF92FF920F93D8
:103600001F93CF93DF936C018B01EA01F22E0E948E
:10361000DD1A87E00E949E1E982F969597709883DA
:1036200086FD04C0973011F4FF2099F7892F992760
:103630009F938F9383EE95E09F938F930E949513B2
:1036400048810F900F900F900F90463030F5842FE7
:103650008F5E0E949E1EF801808399279F938F930F
:1036600085ED95E09F938F930E949513F8016081FB
:103670000F900F900F900F90613218F00E943E1D36
:103680000CC0662351F0C6010E94881D60E487E0EB
:103690000E94231E81E090E002C080E090E0DF9174
:1036A000CF911F910F91FF90DF90CF900895CF930E
:1036B000DF93CDB7DEB721970FB6F894DEBF0FBE0C
:1036C000CDBF20E0AE014F5F5F4F0E94FC1A9927EB
:1036D00021960FB6F894DEBF0FBECDBFDF91CF911C
:1036E0000895DF92EF92FF920F931F93F82E8B01B4
:1036F000E42E0E94CD1A8AE00E949E1ED82E6F2DC5
:103700008AE00E94231E6F2D80E10E94231E6E2DF1
:10371000C8010E94E01C8091620088608093620072
:1037200064E170E080E090E00E94EE13809162001E
:10373000877F8093620002C00E94861087E00E940B
:103740009E1E082FE82EFF24C70180739070892BDE
:1037500099F3FF92EF9282EF95E09F938F930E94EF
:1037600095130073602F87E00E94231E6D2D8AE061
:103770000E94231E0E94631D0E94DD1A85E0F694BC
:10378000E7948A95E1F70F900F900F900F90C70183
:10379000817090701F910F91FF90EF90DF900895CE
:1037A000DF92EF92FF920F931F93CF93DF93D82E68
:1037B0007B01042F10E0C42FDD2710C0612F772775
:1037C000AE01461B570B4132510514F040E250E068
:1037D0006E0D7F1D8D2D0E94711B105E101770F3F2
:1037E00081E090E0DF91CF911F910F91FF90EF90DA
:1037F000DF9008950F931F930E94CD1A66EB86E029
:103800000E94231E66E970E080E090E00E94EE13C3
:1038100002E610E0F80180818860808364E670E051
:1038200080E090E00E940E14F8018081877F808301
:1038300066E970E080E090E00E94EE1366E286E0C8
:103840000E94231E0E94DD1A1F910F9108950F936D
:103850001F93CF93DF93CDB7DEB723970FB6F894BE
:10386000DEBF0FBECDBF9091EB03E92FFF27E75CD2
:10387000FE4F80819F5F8823C1F791509093EB03A7
:103880009F5F20E030E040E008C0F901E551FC4FC7
:10389000D901A85CBE4F8C9180832F5F3F4F4F5F53
:1038A000491799F764E670E080E090E00E940E14FA
:1038B00063E080E00E94231E65E070E080E090E01D
:1038C0000E940E1401E010E0B8010090EB0302C06A
:1038D000660F771F0A94E2F7615081E00E94231E71
:1038E00061E083E00E94231E6FE184E00E94231EBA
:1038F00062E085E00E94231E66E286E00E94231EAD
:1039000064E08DE10E94231E0090EB0302C0000FD3
:10391000111F0A94E2F70150602F8CE10E94231ED0
:103920008091EC03898380E78A8382E68B8343E07E
:103930008E010F5F1F4FB8018AE00E94E71D809142
:10394000EB03823040F08091ED03898343E0B801BE
:103950008BE00E94E71D00E010E008C0FF27E45163
:10396000FC4F6081802F855F0E94231EE02FEE5F59
:103970000F5F1F4F8091EB03E81780F3198243E03C
:10398000BE016F5F7F4F80E10E94E71D61E070E044
:103990000090EB0302C0660F771F0A94E2F76150B4
:1039A00082E00E94231E0E94DD1A23960FB6F8942F
:1039B000DEBF0FBECDBFDF91CF911F910F91089554
:1039C000FF920F931F93CF93DF93CDB7DEB7299765
:1039D0000FB6F894DEBF0FBECDBF8C01F62E0E944D
:1039E0000B1380EA8983D801FE01319690E004C070
:1039F0008D9181839F5F31969F15D1F760E082E0C2
:103A000090E00E94E8121B98F3946F2DCE0101966E
:103A10000E94F7121B9A0E94061329960FB6F8947B
:103A2000DEBF0FBECDBFDF91CF911F910F91FF90F1
:103A30000895CF93DF93CDB7DEB721970FB6F894F3
:103A4000DEBF0FBECDBF0E940B1383EE898360E003
:103A500082E090E00E94E8121B9861E0CE0101969E
:103A60000E94F7121B9A0E94061321960FB6F89433
:103A7000DEBF0FBECDBFDF91CF910895CF93DF930F
:103A8000CDB7DEB721970FB6F894DEBF0FBECDBF1E
:103A90000E940B1382EE898360E082E090E00E9436
:103AA000E8121B9861E0CE0101960E94F7121B9A62
:103AB0000E94061321960FB6F894DEBF0FBECDBF4D
:103AC000DF91CF910895CF93DF93CDB7DEB72197E4
:103AD0000FB6F894DEBF0FBECDBF0E940B1381EE70
:103AE000898360E082E090E00E94E8121B9861E028
:103AF000CE0101960E94F7121B9A0E94061321968E
:103B00000FB6F894DEBF0FBECDBFDF91CF91089501
:103B1000FF920F931F93CF93DF93CDB7DEB7299713
:103B20000FB6F894DEBF0FBECDBF8C01F62E0E94FB
:103B30000B1381E6898360E082E090E00E94E81246
:103B40001B986F2D6F5FCE0101960E94F7121B9A92
:103B50000E940613DE011296F80190E003C08D91D9
:103B600081939F5F9F15D9F729960FB6F894DEBF12
:103B70000FBECDBFDF91CF911F910F91FF900895A0
:103B8000CF93DF93CDB7DEB722970FB6F894DEBFA1
:103B90000FBECDBF0E940B1380E6898360E082E0F8
:103BA00090E00E94E8121B9862E0CE0101960E940C
:103BB000F7121B9A0E9406138A81992722960FB644
:103BC000F894DEBF0FBECDBFDF91CF910895EF9285
:103BD000FF920F931F93CF93DF93CDB7DEB7269756
:103BE0000FB6F894DEBF0FBECDBF182F7B01042F98
:103BF0000E940B1310621983D701FE01319690E0E9
:103C000004C08D9181839F5F31969017D1F760E05A
:103C100082E090E00E94E8121B980F5F602FCE01B7
:103C200001960E94F7121B9A0E94061326960FB661
:103C3000F894DEBF0FBECDBFDF91CF911F910F91E2
:103C4000FF90EF9008950F931F93CF93DF93CDB71D
:103C5000DEB722970FB6F894DEBF0FBECDBF182F88
:103C6000062F0E940B13106219830A8360E082E022
:103C700090E00E94E8121B9862E0CE0101960E943B
:103C8000F7121B9A0E94061322960FB6F894DEBF15
:103C90000FBECDBFDF91CF911F910F9108950E946C
:103CA0000B1360E081E00E94231E61E082E00E942D
:103CB000231E67E081E10E94231E6BE080E00E94EA
:103CC000231E0E9406130895EF92FF920F931F93F5
:103CD000CF93DF93CDB7DEB726970FB6F894DEBF4C
:103CE0000FBECDBF182F7B01042F0E940B13198329
:103CF00060E082E090E00E94E8121B98602F6F5F06
:103D0000CE0101960E94F7121B9A0E940613DE0153
:103D10001296F70190E003C08D9181939F5F9017F9
:103D2000D9F726960FB6F894DEBF0FBECDBFDF9150
:103D3000CF911F910F91FF90EF9008951F93CF9314
:103D4000DF93CDB7DEB722970FB6F894DEBF0FBE74
:103D5000CDBF182F0E940B13198360E082E090E022
:103D60000E94E8121B9862E0CE0101960E94F712B1
:103D70001B9A0E9406138A81992722960FB6F894FF
:103D8000DEBF0FBECDBFDF91CF911F910895A1E19E
:103D9000B0E0EDECFEE10C9455283C017F876E8786
:103DA0006A01FC0117821682838181FD03C06FEFD7
:103DB0007FEF71C39E012F5F3F4F398B288BF3013B
:103DC0002381EE85FF8523FD859123FF8191FF8768
:103DD000EE87882309F45CC3853251F4EE85FF85B4
:103DE00023FD859123FF8191FF87EE87853229F49A
:103DF00090E0B3010E949024E2CF982F10E0882435
:103E000099241032B0F49B3269F09C3228F490323D
:103E100051F0933271F40BC09D3239F0903349F474
:103E2000116028C01260146025C0186023C01061A2
:103E300021C017FD2AC0892F80538A3078F416FFDD
:103E400006C0FAE09F9E902C1124980E13C03AE011
:103E5000839E802C1124880E10620CC09E3221F4A7
:103E600016FD16C3106406C09C3611F4106802C01B
:103E7000983659F4EE85FF8523FD959123FF9191A6
:103E8000FF87EE87992309F0BCCF892F85548330B3
:103E900020F4812F8061905E07C0892F8556833082
:103EA00008F0A1C1812F8F7E86FD02C076E0972E9B
:103EB0006FE3F62EF822953619F4F0E4FF2A07C0D6
:103EC000963619F420E8F22A02C091109A94F7FE6F
:103ED0000BC03BE3391520F427E05CE3B52E0EC0A0
:103EE000B92CB39427E00AC047E0491528F427E02D
:103EF000BB2447E0942E02C0292DBB24C6010496A2
:103F00009D878C87F6016081718182819381AE01EA
:103F10004F5F5F4F0B2D0E9452236C010981202EB1
:103F2000332400FF04C003FD02C01DE209C0F1FEFE
:103F300002C01BE205C0F2FC02C010E001C010E2AA
:103F4000C1018C709070892BB9F1112311F483E0B9
:103F500001C084E0881510F088240AC0881AF3FC98
:103F600007C080E290E0B3010E9490248A94C9F7D0
:103F7000112329F0812F90E0B3010E94902423FEA9
:103F800003C007E016E00EC00BE016E00BC0E11422
:103F9000F10409F0805290E0B3010E9490240F5F79
:103FA0001F4F05C0EF2CFF24F0E1EF22FF24F801A2
:103FB0008491882361F714C1F7FE12C0BC0C24FE63
:103FC00004C08A81813309F4BA941B141CF0BB2409
:103FD000B3942DC0F8E0FB1550F538E0B32E27C0A0
:103FE000F6FC25C0892D90E08C159D054CF02CEF3A
:103FF000C2162FEFD20624F030E8F32A01C09A94BB
:10400000992049F0E2E0F0E0EC0FFD1FE90DF11D11
:1040100080818033A1F3F7FE0AC0B92CB394892DB7
:1040200090E0C816D90614F0992401C09C18F7FC3A
:1040300003C025E030E009C01C141D041CF021E081
:1040400030E003C096012F5F3F4F112311F02F5F27
:104050003F4F992029F0892D90E00196280F391FB4
:10406000882D90E02817390714F0882401C0821A9F
:104070004F2C5524C20189709070892B39F008C0EB
:1040800080E290E0B3010E9490248A948820C1F7D6
:10409000112329F0812F90E0B3010E94902443FE68
:1040A00007C008C080E390E0B3010E9490248A9486
:1040B0008820C1F7F7FE46C08601D7FE02C000E0A7
:1040C00010E076010894E11CF11CE01AF10A41E0CD
:1040D00050E04C0F5D1FE40EF51E26014B185108F1
:1040E000892D90E0AA24BB24A81AB90A5FEF0F3FDC
:1040F000150729F48EE290E0B3010E949024C016C7
:10410000D10634F0401651061CF4F701808101C03D
:1041100080E3015010400894E11CF11C0A151B05B6
:104120002CF090E0B3010E949024E0CF0C151D0507
:1041300039F49A81963318F4953311F424FE81E30F
:1041400090E04BC08A81813309F00F7E90E0B3018B
:104150000E9490249920A1F08EE290E0B3010E9489
:10416000902412E0E1E0F0E0EC0FFD1FE10FF11D03
:104170001F5F808190E0B3010E9490249A9491F790
:1041800044FC03C085E690E002C085E490E0B30102
:104190000E949024D7FC05C0C114D10441F404FF4F
:1041A00006C0D094C194D108D3948DE201C08BE2B3
:1041B00090E0B3010E94902480E305C08F5F26EF5A
:1041C0003FEFC20ED31E3AE0C316D104BCF790E015
:1041D000B3010E949024C601C096B3010E949024AE
:1041E000CC84DD8452C1933631F0933799F0933506
:1041F00009F059C023C0F601808189835E010894CB
:10420000A11CB11C22E030E0C20ED31E21E0E22E40
:10421000F12C12C0F601A080B18016FD03C06FEF33
:104220007FEF02C0692D70E022E030E0C20ED31EA5
:10423000C5010E9485247C011F7713C0F601A08070
:10424000B18016FD03C06FEF7FEF02C0692D70E0F3
:1042500022E030E0C20ED31EC5010E947A247C0108
:10426000106813FF07C01BC080E290E0B3010E94FA
:1042700090248A94882D90E0E816F906A8F30FC0E0
:10428000F50117FD859117FF81915F0190E0B30162
:104290000E94902481108A940894E108F108E114A6
:1042A000F10471F7F2C0943611F0993689F517FFD1
:1042B00008C0F601208131814281538184E090E081
:1042C0000AC0F601808191819C01442737FD409509
:1042D000542F82E090E0C80ED91E9FE6F92EF122FD
:1042E00057FF09C050954095309521953F4F4F4F4E
:1042F0005F4F90E8F92ACA01B901AE014F5F5F4FE5
:104300002AE030E00E94CD24E82EE889EE1A41C070
:10431000953721F41F7E2AE030E01CC0197F9F36BC
:1043200061F0903720F4983509F0B2C00FC0903793
:1043300039F0983709F0ACC004C028E030E00AC07A
:10434000106114FD146020E130E004C014FD16601B
:1043500020E132E017FF08C0F6016081718182819F
:10436000938144E050E008C0F60180819181BC0156
:1043700080E090E042E050E0C40ED51EAE014F5FF9
:104380005F4F0E94CD24E82E5889E51A8FE7F82E5A
:10439000F122F6FE0BC08EEFF822E91438F4F4FE99
:1043A00007C0F2FC05C09FEEF92202C01E2D01C01D
:1043B000192DF4FE0DC0FE01EE0DF11D808180333C
:1043C00019F4E9EEFE2208C01F5FF2FE05C003C02B
:1043D0008F2D867809F01F5F0F2DF3FC14C0F0FEBF
:1043E0000FC0181510F09E2C0BC09E2C980C911A23
:1043F000182D06C080E290E0B3010E9490241F5F58
:104400001815C0F304C0181510F4811A01C08824CF
:1044100004FF0FC080E390E0B3010E94902402FFEC
:104420001DC001FD03C088E790E00EC088E590E064
:104430000BC0802F867891F001FF02C08BE201C093
:1044400080E2F7FC8DE290E0B3010E94902406C068
:1044500080E390E0B3010E9490249A94E914C0F3A1
:10446000EA94E1E0F0E0EC0FFD1FEE0DF11D80811C
:1044700090E0B3010E949024EE2091F706C080E204
:1044800090E0B3010E9490248A948820C1F797CCD1
:10449000F30166817781CB016196E2E10C9471288A
:1044A000CF93DF93BC018230910510F462E070E09D
:1044B000A091F403B091F503ED01E0E0F0E040E0FD
:1044C00050E021C0888199818617970769F48A8115
:1044D0009B81309719F09383828304C09093F503F6
:1044E0008093F403FE0134C06817790738F441154E
:1044F000510519F08417950708F4AC01FE018A8173
:104500009B819C01E9012097E9F641155105A9F12C
:10451000CA01861B970B049708F4BA01E0E0F0E0AB
:104520002AC08D919C91119784179507F9F464170F
:10453000750781F412968D919C911397309719F01D
:104540009383828304C09093F5038093F403FD0169
:1045500032964CC0CA01861B970BFD01E80FF91F6C
:104560006193719302978D939C9340C0FD0182816A
:1045700093819C01D9011097A1F68091F20390914B
:10458000F303892B41F480912002909121029093B2
:10459000F3038093F20340912202509123024115CC
:1045A000510541F44DB75EB780911E0290911F02F4
:1045B000481B590B2091F2033091F303CA01821B6F
:1045C000930B8617970780F0AB014E5F5F4F841700
:1045D000950750F0420F531F5093F3034093F2039B
:1045E000F9016193719302C0E0E0F0E0CF01DF9147
:1045F000CF910895CF93DF93009709F450C0EC0159
:1046000022971B821A82A091F403B091F5031097B0
:1046100009F140E050E0AC17BD0708F1BB83AA8365
:10462000FE0121913191E20FF31FAE17BF0779F41C
:104630008D919C911197280F391F2E5F3F4F398321
:10464000288312968D919C9113979B838A834115A1
:10465000510571F4D093F503C093F40320C0129672
:104660008D919C911397AD01009711F0DC01D3CF90
:10467000FA01D383C28321913191E20FF31FCE1748
:10468000DF0769F488819981280F391F2E5F3F4F1A
:10469000FA01318320838A819B8193838283DF9116
:1046A000CF910895283008F027E03327DA01990FD9
:1046B000311D87FD916000966105710539F4326006
:1046C0002E5F3D9330E32A95E1F708959F3F30F048
:1046D00080387105610509F03C5F3C5F3D93913086
:1046E00008F08068911DDF93CF931F930F93FF9283
:1046F000EF92192F987F9695E92F96959695E90F49
:10470000FF27E759F94F99273327EE24FF24A70104
:10471000E70105900894079428F4360FE71EF81E69
:10472000491F511D660F771F881F991F0694A1F717
:104730000590079428F4E70EF81E491F561FC11D67
:10474000770F881F991F661F0694A1F7059007949D
:1047500028F4F80E491F561FC71FD11D880F991F37
:10476000661F771F0694A1F70590079420F4490F60
:10477000561FC71FD81F990F661F771F881F0694E3
:10478000A9F784911095177041F0D695C795579564
:104790004795F794E7941A95C1F7EFE0F6E068942F
:1047A0001590159135916591959105907FE27395DE
:1047B000E118F10A430B560BC90BD009C0F7E10C05
:1047C000F11E431F561FC91FD01D7EF4703311F414
:1047D0008A95E6CFE894015030F0080F0AF40027DC
:1047E000021708F4202F2395022F7A3328F079E35B
:1047F0007D932A95E9F710C07D932A9589F6069452
:1048000097956795379517951794E118F10A430B1B
:10481000560BC90BD00998F023957E9173957A3386
:1048200008F070E37C932013B8F77E9170617D935C
:1048300030F0839571E37D9370E32A95E1F71124BD
:10484000EF90FF900F911F91CF91DF91992787FDF6
:1048500090950895DC012D923D924D925D926D925E
:104860007D928D929D92AD92BD92CD92DD92ED9210
:10487000FD920D931D93CD93DD93FF91EF918DB735
:104880008D938EB78D938FB78D93ED93FD9388277E
:1048900099270994DC01CB0181309105811D2D9070
:1048A0003D904D905D906D907D908D909D90AD90E0
:1048B000BD90CD90DD90ED90FD900D911D91CD912D
:1048C000DD91ED91FD910D90F894FEBF0FBEEDBF0F
:1048D000ED91FD910994FB01DC014150504048F0FD
:1048E00005900D920020C9F701C01D924150504023
:1048F000E0F70895FC010590615070400110D8F771
:10490000809590958E0F9F1F0895FC016150704017
:1049100001900110D8F7809590958E0F9F1F0895F4
:104920000F931F93CF93DF938C01EB018B8181FF5A
:104930001BC082FF0DC02E813F818C819D81281775
:10494000390764F4E881F9810193F983E88306C0AB
:10495000E885F985802F0995892B31F48E819F8117
:1049600001969F838E8302C00FEF1FEFC801DF9176
:10497000CF911F910F9108950F931F938C01FC010C
:10498000838188608383C8010E94C71EF801238148
:10499000277F23831F910F910895FA01AA272830BA
:1049A00051F1203181F1E8946F936E7F6E5F7F4FFC
:1049B0008F4F9F4FAF4FB1E03ED0B4E03CD0670F78
:1049C000781F891F9A1FA11D680F791F8A1F911DCB
:1049D000A11D6A0F711D811D911DA11D20D009F41B
:1049E00068943F912AE0269F11243019305D31935D
:1049F000DEF6CF010895462F4770405D4193B3E046
:104A00000FD0C9F7F6CF462F4F70405D4A3318F0EC
:104A1000495D31FD4052419302D0A9F7EACFB4E09D
:104A2000A6959795879577956795BA95C9F7009755
:104A30006105710508959B01AC010A2E06945795F6
:104A4000479537952795BA95C9F7620F731F841F4D
:104A5000951FA01D08955058BB27AA270ED001C24C
:104A6000F2D130F0F7D120F031F49F3F11F41EF471
:104A7000D7C10EF4E095E7FBCDC1E92F03D280F357
:104A8000BA17620773078407950718F071F49EF54B
:104A90001BC20EF4E0950B2EBA2FA02D0B01B9010D
:104AA00090010C01CA01A0011124FF27591B99F0A4
:104AB000593F50F4503E68F11A16F040A22F232FB0
:104AC000342F4427585FF3CF469537952795A79500
:104AD000F0405395C9F77EF41F16BA0B620B730BA7
:104AE000840BBAF09150A1F0FF0FBB1F661F771F18
:104AF000881FC2F70EC0BA0F621F731F841F48F4CD
:104B0000879577956795B795F7959E3F08F0B3CF52
:104B10009395880F08F09927EE0F9795879508953C
:104B200055D108F481E008950CD09BC193D140F099
:104B30008AD130F021F45F3F19F06CC15111C5C129
:104B40006FC1A0D198F39923C9F35523B1F3951BF5
:104B5000550BBB27AA2762177307840738F09F5F9E
:104B60005F4F220F331F441FAA1FA9F333D00E2E0D
:104B70003AF0E0E830D091505040E695001CCAF77A
:104B800029D0FE2F27D0660F771F881FBB1F26173F
:104B900037074807AB07B0E809F0BB0B802DBF0112
:104BA000FF2793585F4F2AF09E3F510568F032C1AE
:104BB0008CC15F3FECF3983EDCF386957795679563
:104BC000B795F7959F5FC9F7880F911D96958795C3
:104BD00097F90895E1E0660F771F881FBB1F6217E2
:104BE00073078407BA0720F0621B730B840BBA0BA0
:104BF000EE1F88F7E0950895BEE304D008F490E82E
:104C00000895BFE322273327A90144D158F19F57C4
:104C100040F1B91738F1BFE3B91B9927B8503AF4FE
:104C2000660F771F881F991FB395D2F316C0B8502F
:104C30004AF0232F342F452F562F672F782F8827A0
:104C4000B850BAF7B85F49F086957795679557954C
:104C5000479537952795BA95B9F70EF4E4D088941F
:104C60000895889460E070E0CB01089504D06894C2
:104C7000B1112BC108950ED188F09F5790F0B92F34
:104C80009927B751A0F0D1F0660F771F881F991FA1
:104C90001AF0BA95C9F712C0B13081F015D1B1E060
:104CA000089512C1672F782F8827B85F39F0B93F70
:104CB000CCF3869577956795B395D9F73EF49095A3
:104CC0008095709561957F4F8F4F9F4F089597FB0B
:104CD0000EF4A9D03EC0E89409C097FB3EF490952D
:104CE0008095709561957F4F8F4F9F4F9923A9F0C5
:104CF000F92F96E9BB279395F69587957795679554
:104D0000B795F111F8CFFAF4BB0F11F460FF1BC097
:104D10006F5F7F4F8F4F9F4F16C0882311F096E92A
:104D200011C0772321F09EE8872F762F05C06623D8
:104D300071F096E8862F70E060E02AF09A95660F91
:104D4000771F881FDAF7880F9695879597F908954A
:104D5000E894F92F96EBFF2381F012161306140640
:104D6000440B9395F69587957795679557954040B1
:104D7000FF23B9F71BC099270895882351F4985051
:104D8000D2F7872B762F652F542F432F322F20E019
:104D9000B1F3121613061406440B88233AF09A95C1
:104DA000440F551F661F771F881FCAF755234AF403
:104DB000440F551F11F460FF04C06F5F7F4F8F4F8A
:104DC0009F4F880F9695879597F90895990F00083A
:104DD000550FAA0BE0E8FEEF16161706E807F907CD
:104DE000C0F012161306E407F50798F0621B730B68
:104DF000840B950B39F40A2661F0232B242B252BE9
:104E000021F408950A2609F4A140A6958FEF811D8B
:104E1000811D089597F99F6780E870E060E008952C
:104E20009FEF80EC089590958095709560955095D2
:104E30004095309521953F4F4F4F5F4F6F4F7F4FBC
:104E40008F4F9F4F089500240A94161617061806D0
:104E50000906089500240A9412161306140605067E
:104E60000895092E0394000C11F4882352F0BB0F0F
:104E700040F4BF2B11F460FF04C06F5F7F4F8F4F72
:104E80009F4F089557FD9058440F551F59F05F3FAD
:104E900071F04795880F97FB991F61F09F3F79F05C
:104EA00087950895121613061406551FF2CF4695DE
:104EB000F1DF08C0161617061806991FF1CF869560
:104EC0007105610508940895E894BB276627772744
:104ED000CB0197F908957ADF08F48FEF08950BD08E
:104EE000C0CFB1DF28F0B6DF18F0952309F092CFDC
:104EF00097CF1124EACFC6DFA0F3959FD1F3950F8A
:104F000050E0551F629FF001729FBB27F00DB11D4D
:104F1000639FAA27F00DB11DAA1F649F6627B00DDD
:104F2000A11D661F829F2227B00DA11D621F739FC6
:104F3000B00DA11D621F839FA00D611D221F749FD4
:104F40003327A00D611D231F849F600D211D822F1B
:104F5000762F6A2F11249F5750408AF0E1F0882362
:104F60004AF0EE0FFF1FBB1F661F771F881F91506F
:104F70005040A9F79E3F510570F04CCFA6CF5F3F40
:104F8000ECF3983EDCF3869577956795B795F795A2
:104F9000E7959F5FC1F7FE2B880F911D969587952A
:104FA00097F90895629FD001739FF001829FE00DF1
:104FB000F11D649FE00DF11D929FF00D839FF00D98
:104FC000749FF00D659FF00D9927729FB00DE11D44
:104FD000F91F639FB00DE11DF91FBD01CF01112421
:104FE0000895AA1BBB1B51E107C0AA1FBB1FA61730
:104FF000B70710F0A61BB70B881F991F5A95A9F782
:1050000080959095BC01CD01089597FB092E072648
:105010000AD077FD04D0E5DF06D000201AF47095A1
:1050200061957F4F0895F6F7909581959F4F08956C
:10503000A1E21A2EAA1BBB1BFD010DC0AA1FBB1F9C
:10504000EE1FFF1FA217B307E407F50720F0A21B0E
:10505000B30BE40BF50B661F771F881F991F1A947B
:1050600069F760957095809590959B01AC01BD01A5
:10507000CF01089597FB092E05260ED057FD04D0C9
:10508000D7DF0AD0001C38F4509540953095219513
:105090003F4F4F4F5F4F0895F6F79095809570956D
:1050A00061957F4F8F4F9F4F08952F923F924F9260
:1050B0005F926F927F928F929F92AF92BF92CF92A8
:1050C000DF92EF92FF920F931F93CF93DF93CDB7B1
:1050D000DEB7CA1BDB0B0FB6F894DEBF0FBECDBF29
:1050E00009942A88398848885F846E847D848C84FA
:1050F0009B84AA84B984C884DF80EE80FD800C8103
:105100001B81AA81B981CE0FD11D0FB6F894DEBFE5
:085110000FBECDBFED010895B3
:105118000A783D25642C20793D2564000A25642001
:10512800202564000A507265737320676F000A5364
:10513800746162696C697A696E67000A496E69749C
:1051480069616C697A696E67000300736572766FCE
:10515800206C6F636B006D6F746F72206C6F636B84
:10516800000405020300016779726F206C6F636B9E
:10517800006779726F000B726F626F74206D6F6ECB
:1051880069746F720075736572206D61696E0001D4
:105198004861707079626F617264207625582E2597
:1051A800303258202020202020202020202020209D
:1051B800202005000069646C6500756E6B6E6F7762
:1051C8006E20696E7465727275707400257300259F
:1051D800730A00616463206C6F636B0073706920ED
:1051E8006C6F636B0055415254206C6F636B000009
:1051F800000002000000002213000000004C43449D
:10520800206C6F636B0000000002000000004B1967
:10521800000000006469676974616C206C6F636BDF
:1052280000656E636F646572206C6F636B002000AD
:04523800FC03000073
:00000001FF
