:100000000C946A030C948A030C948A030C948A035C
:100010000C948A030C948A030C948A030C948A032C
:100020000C948A030C948A030C9457110C948A0341
:100030000C948A030C948A030C948A030C948A030C
:100040000C948A030C948A030C948A030C948A03FC
:100050000C948A030C948A030C948A030C948A03EC
:100060000C948A030C948A030C948A030C948A03DC
:100070000C948A030C948A030C948A030C948A03CC
:100080000C948A030C948A030C948A03616E616C4D
:100090006F675F72656164006D6370333030382064
:1000A0006661696C006D6370333030382066616959
:1000B0006C006D61696E000A004A6F794F532076BB
:1000C000302E322E3320202020507265737320474B
:1000D0004F002020202020202020206D656D6F7291
:1000E000792066756C6C00686561702073697A654B
:1000F0003A2025642062797465730A005F5F6D6140
:100100006C6C6F635F686561705F656E64203D2035
:1001100025700A005F5F6D616C6C6F635F6865617D
:10012000705F7374617274203D2025700A007275CF
:100130006E6177617920636F6465000A526F756E36
:100140006420656E64000A526F626F74207265618C
:1001500064792E2020202050726573732027476F0A
:1001600027006C6F636B2068656C64206279206186
:100170006E6F746865720072656C65617365207579
:100180006E68656C64206C6F636B0072656C656192
:100190007365206E756C6C206C6F636B0069735FA8
:1001A00068656C64206E756C6C206C6F636B0061AD
:1001B0006371756972656420746F6F206D616E790B
:1001C0002074696D65730061637175697265206E75
:1001D000756C6C206C6F636B00696E6974206E7552
:1001E0006C6C206C6F636B00496E6974206661698A
:1001F0006C3A2025730A0D005541525430206F701F
:10020000656E65642061742025640A0D0048617084
:100210007079626F61726420696E697420737461B1
:10022000727465640A0D00486172647761726520BA
:1002300076657273696F6E2025582E253032580A04
:100240000D00426F61726420494420253034580A01
:100250000D00426F61726420636F6E666967204FA4
:100260004B0A0D0042617474657279204F4B3A203D
:1002700025646D560A0D0046504741207625642EB0
:1002800025640A0D0046504741206661696C75720D
:1002900065004C6F77206261747465727900426109
:1002A0006420436F6E666967000A70616E69633A25
:1002B0002025730070616E69633A2025730A00205F
:1002C000746872656164202874696420256429203B
:1002D0002725732720737461747573202564207239
:1002E000756E732025750A0020746872656164203C
:1002F000287469642025642920756E616C6C6F63B5
:10030000617465640A0044756D70696E6720746875
:1003100072656164207374617465733A0A002050D9
:10032000432020203A20253038700A0020535245BF
:1003300047203A20253032700A00205350202020D8
:100340003A20253034700A002046502020203A20E0
:10035000253034700A00203C6F6D697474696E67D3
:100360002072302D7233313E0A0044756D70696E13
:1003700067206A6D705F6275663A0A006F75742057
:100380006F66207468726561647300736C65657074
:10039000007969656C64006E6F2063757272656EBA
:1003A000745F74687265616400737461636B206F5D
:1003B000766572666C6F77007265736572766564D8
:1003C0002073706163653A20257020746F2025705A
:1003D0000A00737461636B746F703A2025700A00B1
:1003E00070632061742025700A007370206F66208E
:1003F0002725732720286964202564292069732014
:1004000025700A000A737461636B206F76657266EB
:100410006C6F770A0053502061626F7665006E6FD3
:100420002069646C65006D616C6C6F632073706132
:100430006365205B25702C25705D0A007468726509
:100440006164735B305D2E74685F7374617475737F
:100450002061742025700A00746872656164735BA2
:10046000305D2061742025700A0074696D65202557
:1004700064002D2D206E6F2069646C652074687295
:10048000656164202D2D0A007363686564756C6571
:10049000004F6F70732E2E2E20746865726527735F
:1004A00020612072756E6E61626C65207468726581
:1004B0006164207468617473206E6F742069646C69
:1004C000650A00207468726561642028746964207C
:1004D0002564292027257327207374617475732080
:1004E00025640A0020746872656164202874696458
:1004F0002025642920756E616C6C6F63617465647E
:100500000A0069646C65206672656500286964206C
:1005100025642920737461636B205B25702C257022
:10052000290A00746872656164207461626C6520D8
:10053000656E642061742025700A007468726561BC
:1005400064207461626C65207374617274206174DC
:100550002025700A002520356420202025347020B5
:100560002020253032780A003D3D3D3D3D3D3D3D5A
:100570003D3D3D3D3D3D3D3D3D3D3D3D0A00494EFE
:100580004445582020204144445220202056414CCC
:1005900055450A0000000A0000110E0000000A0084
:1005A00000111F0000000A00000E1100000E1F11B4
:1005B00011111F000000000000001500000E0E0EBB
:1005C0001F0E04006469676974616C5F7265616421
:1005D000006E616E00696E660000407A10F35A008A
:1005E000A0724E18090010A5D4E80000E87648175C
:1005F0000000E40B54020000CA9A3B000000E1F541
:1006000005000080969800000040420F000000A006
:100610008601000000102700000000E80300000031
:10062000006400000000000A00000000000100005B
:100630000000002C76D888DC674F0823DFC1DFAECE
:1006400059E1B1B796E5E3E453C63AE65199769697
:10065000E8E6C28426EB898C9B62ED407C6FFCEF60
:10066000BC9C9F40F2BAA56FA5F490055A2AF75C8E
:10067000936B6CF9676DC11BFCE0E40D47FEF52040
:10068000E6B500D0ED902E03009435770500808408
:100690001E080000204E0A000000C80C333333331C
:1006A0000F986E12831141EF8D2114893BE6551688
:1006B000CFFEE6DB18D1844B381BF77C1D901DA4C0
:1006C000BBE424203284725E228100C9F124ECA1B3
:1006D000E53D270011241FBECFEFD0E1DEBFCDBF27
:1006E00012E0A0E0B1E0EEEFF4E400E00BBF02C0E6
:1006F00007900D92A035B107D9F71BBE14E0A0E515
:10070000B2E001C01D92AB31B107E1F70E94CB0905
:100710000C94CF0F0C9431116F927F928F929F9215
:10072000AF92BF92CF92DF92EF92FF920F931F93FF
:10073000962E872E782E692E59016A010E942A2052
:1007400087FD11C0692D782D872D962D9701A80161
:100750000E94792118162CF0A92CB82CC72CD62C65
:1007600002C057016801B501C6011F910F91FF90AA
:10077000EF90DF90CF90BF90AF909F908F907F9041
:100780006F900895DF92EF92FF920F931F93CF9394
:10079000DF93282F853131F0873111F001E003C05C
:1007A00000E001C002E0C02FD0E0CE01880F991F09
:1007B000FC0133E0EE0FFF1F3A95E1F7E81BF90B60
:1007C000E359FD4FD08081E08D1510F092E0D92ED5
:1007D0008E0183E0000F111F8A95E1F70C1B1D0BA2
:1007E000F801EE0FFF1FE159FD4FE080F180822FED
:1007F0000E942B084D2D50E0F801E40FF51FEE0F7D
:10080000FF1FE359FD4F11821082E816F90620F40C
:1008100081E090E091838083CE01880F991F9C0135
:1008200063E0220F331F6A95E1F7281B390BF901AA
:10083000E359FD4FCA01019765E070E00E94FF2176
:100840008E5F80831182F901EF58FD4F30E022E086
:1008500080819181892B09F03F5F2F5F329627308D
:10086000B9F780E0333008F081E0DF91CF911F913C
:100870000F91FF90EF90DF9008950F931F9385E104
:100880000E94C203182F86E10E94C203082F87E14D
:100890000E94C203110F110F000F100F180F1093B9
:1008A0006A02882321F000D080E091E003C000D0EC
:1008B00087E091E0EDB7FEB7928381830E949011AB
:1008C0000F900F901F910F9108952F923F924F928A
:1008D0005F926F927F928F929F92AF92BF92CF92D0
:1008E000DF92EF92FF920F931F93DF93CF93CDB7D9
:1008F000DEB7A0970FB6F894DEBF0FBECDBF20E0E5
:1009000030E00BC011921192019687309105D1F71A
:100910002F5F3F4F2330310581F0C901880F991FA8
:10092000FC0153E0EE0FFF1F5A95E1F7E81BF90BAE
:10093000E359FD4F80E090E0E5CF00D08EE091E0FC
:10094000ADB7BEB712969C938E9311970E949011EB
:100950000F900F900E94130900E010E080E090E0FB
:10096000A0E0B0E08D8F9E8FAF8FB8A3898F9A8F54
:10097000AB8FBC8F8D8B9E8BAF8BB88FC3C085E147
:100980000E942B087C0186E10E942B083C0187E134
:100990000E942B0898878F83D8011196BC83AB8364
:1009A000B80180E090E00E94C7201B012C016D8DF2
:1009B0007E8D8F8D98A1A20191010E947D215B0106
:1009C0006C0100E010E0C801B7010E94C7209B0144
:1009D000AC01C601B5010E94C61F7B018C01EB81F1
:1009E000FC81BF0180E090E00E94C7205B016C01A8
:1009F000C801B701A60195010E942E206D8F7E8F40
:100A00008F8F98A3698D7A8D8B8D9C8DA20191011A
:100A10000E947D217B018C0188249924C401B301AB
:100A20000E94C7209B01AC01C801B7010E94C61FEC
:100A3000A60195010E942E20698F7A8F8B8F9C8F43
:100A40006D897E898F89988DA20191010E947D21F7
:100A50007B018C012F813885B90180E090E00E94F4
:100A6000C7209B01AC01C801B7010E94C61FA601A7
:100A700095010E942E206D8B7E8B8F8B988F8DB76A
:100A80009EB708970FB6F8949EBF0FBE8DBF0DB7E7
:100A90001EB70F5F1F4FEAE3F1E0ADB7BEB7129686
:100AA000FC93EE9311976D8D7E8D8F8D98A10E9492
:100AB0009620D80113967C936E931297698D7A8D48
:100AC0008B8D9C8D0E949620F801758364836D89BF
:100AD0007E898F89988D0E949620D80117967C93E5
:100AE0006E9316970E949011EDB7FEB738960FB629
:100AF000F894FEBF0FBEEDBF82E390E00E94ED0FC1
:100B00000B811C810E948408882309F438CF00D00F
:100B10008CE491E0ADB7BEB712969C938E9311977B
:100B20000E9490110F900F900E94130900E010E0B6
:100B300080E090E0A0E0B0E0898B9A8BAB8BBC8B1F
:100B40008D879E87AF87B88B89879A87AB87BC874D
:100B5000C3C085E10E942B087C0186E10E942B081E
:100B60003C0187E10E942B089E838D83D80111965A
:100B7000BA83A983B80180E090E00E94C7201B01DE
:100B80002C0169897A898B899C89A20191010E9433
:100B90007D215B016C0100E010E0C801B7010E94FB
:100BA000C7209B01AC01C601B5010E94C61F7B0195
:100BB0008C01E981FA81BF0180E090E00E94C720AA
:100BC0005B016C01C801B701A60195010E942E20AE
:100BD000698B7A8B8B8B9C8B6D857E858F859889B5
:100BE000A20191010E947D217B018C01882499241E
:100BF000C401B3010E94C7209B01AC01C801B70129
:100C00000E94C61FA60195010E942E206D877E8737
:100C10008F87988B69857A858B859C85A201910148
:100C20000E947D217B018C012D813E81B90180E0F4
:100C300090E00E94C7209B01AC01C801B7010E944F
:100C4000C61FA60195010E942E2069877A878B878F
:100C50009C878DB79EB708970FB6F8949EBF0FBEBE
:100C60008DBF0DB71EB70F5F1F4FEAE3F1E0ADB7C1
:100C7000BEB71296FC93EE93119769897A898B8996
:100C80009C890E949620D80113967C936E931297AC
:100C90006D857E858F8598890E949620F8017583E1
:100CA000648369857A858B859C850E949620D8010E
:100CB00017967C936E9316970E949011EDB7FEB72E
:100CC00038960FB6F894FEBF0FBEEDBF82E390E0FA
:100CD0000E94ED0F09811A810E948408882309F47B
:100CE00038CF69897A898B899C892D8D3E8D4F8D6E
:100CF00058A10E94C61F20E030E040E05FE30E9460
:100D00007D210E949B2070938C0260938B026D85E5
:100D10007E858F859889298D3A8D4B8D5C8D0E94BB
:100D2000C61F20E030E040E05FE30E947D210E948A
:100D30009B2070937E0260937D0269857A858B8506
:100D40009C852D893E894F89588D0E94C61F20E0C1
:100D500030E040E05FE30E947D210E949B20709381
:100D6000700260936F02A0960FB6F894DEBF0FBEBC
:100D7000CDBFCF91DF911F910F91FF90EF90DF904A
:100D8000CF90BF90AF909F908F907F906F905F902B
:100D90004F903F902F9008950E948408882331F04F
:100DA00082E090E090936C0280936B02089504C0FF
:100DB0000E9465040E94CC0680916B0290916C02A7
:100DC000892BB1F308950F931F938C0180E060E0AD
:100DD00070E00E94F20781E060E070E00E94F2079C
:100DE000C8010E94ED0F1F910F91089510926A02A1
:100DF00044C080916A028330F1F0843028F481305D
:100E000041F08230A1F50EC08430F1F0863079F5E2
:100E100024C081E06AE470E00E94F20780E066E3AB
:100E200070E023C081E060E470E00E94F20780E09F
:100E300060E470E01AC081E065E470E00E94F207AF
:100E400080E06BE370E011C081E066E370E00E9437
:100E5000F20780E06AE470E008C081E06BE370E0D4
:100E60000E94F20780E065E470E00E94F2078AE0E9
:100E700090E00E94ED0F0E943D0480916B029091E2
:100E80006C02029709F4B5CF08950E947808882370
:100E900031F082E090E090936C0280936B020895B1
:100EA00082E390E00E94E30606C082E390E00E94A5
:100EB000ED0F0E94450780916B0290916C020197A3
:100EC000A1F3089510926C0210926B0280916B0254
:100ED00090916C028130910569F08130910520F08C
:100EE00082309105B9F703C00E94D706EFCF0E9468
:100EF000F606ECCF0E945007E9CF80E00E94C809B7
:100F000080E090E008951F93CF93DF93CDB7DEB7D5
:100F100028970FB6F894DEBF0FBECDBF182F8BE910
:100F200092E00E94EA0ADE011396E2E8F1E086E030
:100F300001900D928150E1F7FE01E10FF11D6381F7
:100F40007727685F7F4FAE014F5F5F4F80E090E093
:100F50000E9416148BE992E00E94840A89819A818A
:100F600028960FB6F894DEBF0FBECDBFDF91CF91AC
:100F70001F9108950F931F930E9483078C01B8015E
:100F8000882777FD8095982F0E94C92017FF06C0FB
:100F900020E030E040E857E40E94C61F28E431EE2C
:100FA00040E851E40E947D210E949B20DC01CB019E
:100FB0001F910F910895FF920F931F93F82E0BE945
:100FC00012E0C8010E94EA0AFF0CEF2DFF27E05053
:100FD000FF4E83E08083C8010E94840A1F910F9115
:100FE000FF9008951F93CF93DF93182FEB018BE9A8
:100FF00092E00E94EA0A110F1C161D0634F4E12F3C
:10100000FF27E050FF4E81E007C0E12FFF27209728
:1010100029F0E050FF4E82E0808303C0E050FF4E95
:101020001082E12FFF27EF5FFE4EBE01D7FF03C006
:10103000709561957F4F60838BE992E00E94840AEE
:10104000DF91CF911F91089567E771E08BE992E0FE
:101050000E94D40A08951F93CF93DF93CDB7DEB7D4
:1010600022970FB6F894DEBF0FBECDBF182F885061
:10107000883038F014C085EA90E00E94630C0E942A
:10108000A40F67E170E0611B7109AE014F5F5F4F14
:1010900081E090E00E941614882369F71DC0812F1B
:1010A0008051883038F014C088E990E00E94630CC9
:1010B0000E94A40F6FE170E0611B7109AE014F5FE8
:1010C0005F4F82E090E00E941614882369F704C005
:1010D0008CE890E00E94630C89819A8122960FB679
:1010E000F894DEBF0FBECDBFDF91CF911F91089561
:1010F00081B1992725E0969587952A95E1F7809506
:10110000909581709070089581B1992734E09695FB
:1011100087953A95E1F78095909581709070089544
:101120000F931F93CF93DF93CDB7DEB722970FB600
:10113000F894DEBF0FBECDBFAE014F5F5F4F6FE0D3
:1011400070E080E090E00E94161409811A81B801D5
:10115000882777FD8095982F0E94C92017FF06C029
:1011600020E030E040E857E40E94C61F2CE135E45F
:1011700041E251E40E947D210E949B20DC01CB01D1
:1011800022960FB6F894DEBF0FBECDBFDF91CF9190
:101190001F910F910895CF93DF93CDB7DEB72297BC
:1011A0000FB6F894DEBF0FBECDBFAE014F5F5F4FED
:1011B00061E070E080E090E00E94581289819A819D
:1011C00022960FB6F894DEBF0FBECDBFDF91CF9150
:1011D0000895CF92DF92EF92FF920F931F936C01CD
:1011E0007B010E94CB08AA27BB27EC18FD080894B6
:1011F000E11CF11C00271127BC01CD01A8019701BA
:101200000E94E0214AE096958795779567954A95E3
:10121000D1F7C60ED71EC6011F910F91FF90EF9018
:10122000DF90CF9008950D99FECF80E08A95F1F779
:101230000D9BFECF08950C99FECF80E08A95F1F7C3
:101240000C9BFECF08952F923F924F925F926F9228
:101250007F928F929F92AF92BF92CF92DF92EF9246
:10126000FF920F931F93CF93DF937B019C01442741
:10127000552760E874E88EE190E00E941222E901AF
:10128000C90196958795969587951C014424552408
:1012900000271127C801B7012CE231E040E050E0FF
:1012A0000E94E0213B014C01AA24BB24650157C0E8
:1012B000C49ABE01882777FD8095982F0E94C92087
:1012C000D7FF06C020E030E040E857E40E94C61F88
:1012D0002BEA3AEA4AE250E40E947D217B018C012C
:1012E00020E030E040E85FE30E942A20882314F4E5
:1012F00061E010C020E030E04FE753E4C801B701DF
:101300000E947921181614F460E004C0C801B701E6
:101310000E949B206A95F1F7C49820E030E040E8F5
:101320005FE3C801B7010E942A20882314F461E01A
:1013300010C020E030E04FE753E4C801B7010E943D
:101340007921181614F460E004C0C801B7010E94A6
:101350009B206A95F1F7A20CB31CC41CD51CA614E3
:10136000B704C804D90408F4A3CFDF91CF911F912B
:101370000F91FF90EF90DF90CF90BF90AF909F9034
:101380008F907F906F905F904F903F902F90089537
:101390008093A0010895CFEFD0E1DEBFCDBF809153
:1013A000500290915102892B21F08EE291E00E942F
:1013B000630C83E897E090934F0280934E020E9463
:1013C000930B80914C0290914D029F938F9384E1F7
:1013D00091E09F938F930E943E1380914E029091D3
:1013E0004F029F938F938CEF90E09F938F930E9477
:1013F0003E1380914E0290914F0220914C02309109
:101400004D02821B930B880F991F9F938F9387EE3A
:1014100090E09F938F930E943E138DB79EB70C96DA
:101420000FB6F8949EBF0FBE8DBF20914C02309135
:101430004D0280914E0290914F022817390720F0FB
:1014400082ED90E00E94630C0E94101709EB10E0FF
:101450001F930F930E94ED171F930F930E943E134B
:1014600087EB90E09F938F930E943E130E94130995
:101470000E94B81028E831E040E060E071E085E5C6
:101480009AE00E945B100E94B10E82EB90E00E94F5
:10149000630C8DB79EB706960FB6F8949EBF0FBE2D
:1014A0008DBF80E090E00C94CF0F0E947D0786E412
:1014B00091E09F938F930E94ED170E9413090E9461
:1014C000101726E931E040E060E071E082E697E045
:1014D0000E945B100F900F908091A001882319F457
:1014E0000E94A40FFDCF80E69AEE0E94ED0F8BE3E1
:1014F00091E09F938F930E94ED170E94B70D0F907C
:101500000F9080E090E008951F93CF93DF93EC015C
:10151000892B21F48BE891E00E94630C1FB7F894AB
:101520008881882321F487E791E00E94630C2B8156
:101530003C8180915002909151022817390721F087
:1015400082E691E00E94630C888181508883882321
:1015500011F41C821B828FB71078812B8FBFDF9113
:10156000CF911F910895CF93DF93EC01892B21F444
:101570008DE991E00E94630C20915002309151025C
:101580008B819C812817390719F080E090E009C011
:1015900090E08881882309F491E081E09827892FE1
:1015A0009927DF91CF9108950F931F93CF93DF93E6
:1015B000EC018B01892B21F489ED91E00E94630CF1
:1015C00018821A8309831C821B82DF91CF911F919D
:1015D0000F910895CF93DF93EC01892B21F487ECD1
:1015E00091E00E94630C88818F3F21F48FEA91E0A3
:1015F0000E94630C5FB75078F8942B813C818091F6
:1016000050029091510248812817390719F44F5F11
:1016100048830AC0442361F481E0888380915002AA
:10162000909151029C838B838FB7852B8FBF06C00F
:101630008FB7852B8FBF0E94A40FDCCFDF91CF9196
:1016400008950F931F93CF93DF93CDB7DEB76197C4
:101650000FB6F894DEBF0FBECDBF8C0141E150E064
:10166000BC01CE0101960E94051F198A1F930F939A
:1016700088EE91E09F938F930E943E1380E10E9439
:1016800027171F930F930E942A188FE10E94271794
:1016900060E070E083E00E943D178DB79EB706962C
:1016A0000FB6F8949EBF0FBE8DBFFFCF60E070E015
:1016B00080E090E00E94121560E672E08AE090E01F
:1016C0000E94C6140E942916E0E6F2E020E030E015
:1016D00081913827032E0294902D9F709327832F9A
:1016E0008025880F807E9827802D8327807F869590
:1016F000032E000C881F3695369536953F71382796
:101700003227292F82E0E836F80711F740E050E051
:1017100080916802909169022817390711F441E01D
:1017200050E0CA0108950E942D121F9A80E09BE4A8
:101730000E94F31280E092E090931A0480931904BF
:1017400080E09BE49F938F9388EF91E09F938F932A
:101750000E943E138DE092E09F938F930E943E1370
:101760000E9419190E945A190E94BB120E94240853
:101770000E94D0180E94461887E192E090931804C6
:10178000809317040E9487120E9430110E94560B0A
:101790002DB73EB72A5F3F4F0FB6F8943EBF0FBE3E
:1017A0002DBF882321F48EE992E00E94210B82E56F
:1017B00092E09F938F930E943E13809160029091DC
:1017C00061029C0130703F932F93892F99279F933B
:1017D0008F9387E292E09F938F930E943E138091B4
:1017E0006202909163029F938F9382E492E09F93B1
:1017F0008F930E943E1380916002909161029C0140
:1018000030703F932F93892F99279F938F9381EA6D
:1018100091E09F938F930E942A180E9490082DB701
:101820003EB72E5E3F4F0FB6F8943EBF0FBE2DBFA2
:101830008C549D4120F482E992E00E94210B0E9489
:1018400090089F938F9384E692E09F938F930E94DA
:101850003E13609166027091670280E091E00E9401
:1018600097130F900F900F900F90882321F485E825
:1018700092E00E94210B8091FF112091FE11992787
:101880009F938F9333273F932F9387E792E09F9304
:101890008F930E943E138FE10E94271760E070E053
:1018A00081E00E943D171E9864EC79E082EC91E0A3
:1018B0000E9423098DB79EB706960FB6F8949EBF77
:1018C0000FBE8DBF0895CF93DF93CDB7DEB76A9774
:1018D0000FB6F894DEBF0FBECDBFBC01F894892BC4
:1018E00041F04AE150E0CE0101960E94051F1A8E98
:1018F00001C019821092FD0310920104109200049D
:10190000CE0101969F938F9389EA92E09F938F93E4
:101910000E94ED170E94B70D0F900F900F900F903F
:101920006A960FB6F894DEBF0FBECDBFDF91CF91A0
:101930000895CF93DF93EC01F8941092FD03109279
:101940000104109200040E941017209711F4C5ECB6
:10195000D1E0DF93CF9384EB92E09F938F930E942B
:10196000ED170E94B70D0F900F900F900F90DF9121
:10197000CF91089583E085BD83E884BD86B78064F8
:1019800086BF87B7806487BF08952FB7F8946091AA
:1019900052027091530280915402909155023FB7C8
:1019A0002078322B3FBF08953FB7F89460915202E0
:1019B0007091530280915402909155022FB7307864
:1019C000232B2FBF28EE33E040E050E00E94E021BF
:1019D00008959C01F894EAEEF2E041E080818330C2
:1019E00031F4828593858217930709F44083BC966E
:1019F00083E0E23FF80791F77894089577278CE227
:101A000091E0689F9001699F300D789F300D1124FF
:101A100087EB9FE0821B930B0895FF920F931F9318
:101A2000CF93DF93FFB6F89486E093E09F938F9374
:101A30000E943E1300E010E0CEEBD2E00F900F903A
:101A40002881222369F41F930F9388EE92E09F93DD
:101A50008F930E943E130F900F900F900F9020C015
:101A60008A819B81AC81BD81BF93AF939F938F93FC
:101A7000822F99279F938F938C859D859F938F931A
:101A80001F930F938FEB92E09F938F930E943E13CF
:101A90008DB79EB70C960FB6F8949EBF0FBE8DBF44
:101AA0000F5F1F4FAC960730110551F68FB790E8C6
:101AB000F9228F298FBFDF91CF911F910F91FF9056
:101AC00008950F931F938C018AE693E09F938F9361
:101AD0000E943E1386E593E09F938F930E943E13EE
:101AE000F80180899189AA27BB27BF93AF939F9361
:101AF0008F9388E493E09F938F930E943E13F801A5
:101B000082899389AA27BB27BF93AF939F938F9313
:101B10008AE393E09F938F930E943E13F801848998
:101B20009927AA27BB27BF93AF939F938F938CE2EC
:101B300093E09F938F930E943E13F80185899689C5
:101B4000AA27BB27BF93AF939F938F938EE193E018
:101B50009F938F930E943E138DB79EB74C960FB6FE
:101B6000F8949EBF0FBE8DBF1F910F910895CF9324
:101B7000DF93F89410929B0210929F0210929E02A3
:101B8000C0E0D0E08C2F0E94DB072196C630D10543
:101B9000C9F7FFCF0F931F93CF93DF93EC010EEBA9
:101BA00012E08091BE02813009F44BC082E794E0DC
:101BB0009F938F930E943E13809152029091530203
:101BC000A0915402B0915502BF93AF939F938F930E
:101BD0008AE694E09F938F930E943E130E5110402B
:101BE0001F930F93025E1F4F88E594E09F938F939E
:101BF0000E943E131F930F938CE394E09F938F9367
:101C00000E943E1380914E0290914F029F938F93BA
:101C100080914C0290914D029F938F9386E294E0C5
:101C20009F938F930E943E138EE194E00E94630C79
:101C30004DB75EB74A5E5F4F0FB6F8945EBF0FBEFA
:101C40004DBF8D8D99272CE231E0A901849F900131
:101C5000859F300D949F300D112487EB9FE0821BF0
:101C6000930B2A893B898217930720F485E194E03E
:101C70000E94630C898D9A8D2A893B89821B930B64
:101C80002B8D3C8D2817390708F04CC084E094E078
:101C90009F938F930E943E138A899B899F938F9372
:101CA0008D8D99279F938F938AA59BA59F938F9343
:101CB0008AEE93E09F938F930E943E13CE010E9481
:101CC000610D8D899E899F938F9380EE93E09F9302
:101CD0008F930E943E13898D9A8D9F938F9382EDEF
:101CE00093E09F938F930E943E13898D9A8D9F93CB
:101CF0008F932B8D3C8D821B930B01969F938F931B
:101D000088EB93E09F938F930E943E1389EA93E0C0
:101D10000E94630C8DB79EB748960FB6F8949EBF8D
:101D20000FBE8DBFDF91CF911F910F9108959093BA
:101D30005102809350020E94CA0DE0915002F0912E
:101D4000510280A191A1A2A1B3A10196A11DB11D33
:101D500080A391A3A2A3B3A361E070E0CF010E948E
:101D6000E41EAF92BF92CF92DF92EF92FF920F9359
:101D70001F93CF93DF93E0915002F091510230977F
:101D800019F4AA24BB2403C0858DA82EBB2481E0AE
:101D9000C82ED12C75010894E11CF11CC70167E025
:101DA00070E00E94FF218C01892B09F455C08CE260
:101DB00090E0089FE001099FD00D189FD00D1124DD
:101DC000C056DD4F8E8D8430B1F420915202309197
:101DD000530240915402509155028CA19DA1AEA195
:101DE000BFA1281739074A075B0750F081E08E8FA3
:101DF000CE010E94970E8E8D813011F4CE012AC043
:101E00006CE270E0A69EF001A79EF00DB69EF00D6C
:101E10001124E056FD4F868D8430F1F4209152025A
:101E200030915302409154025091550284A195A1E2
:101E3000A6A1B7A1281739074A075B0768F081E018
:101E4000868F069FC001079F900D169F900D11244D
:101E500080569D4F0E94970E0894C11CD11C089477
:101E6000E11CF11C88E0C816D10409F097CF8091DD
:101E7000BE02813021F480EA92E00E94970EF8942D
:101E800000E010E0CEEBD2E08881882369F41F9354
:101E90000F9384EE94E09F938F930E943E130F90D4
:101EA0000F900F900F9022C099279F938F938C854E
:101EB0009D859F938F931F930F9383EC94E09F9343
:101EC0008F930E943E138DB79EB708960FB6F89475
:101ED0009EBF0FBE8DBF8881813041F481E994E0BF
:101EE0009F938F930E943E130F900F900F5F1F4F91
:101EF000AC960730110541F688E894E00E94630C27
:101F0000DF91CF911F910F91FF90EF90DF90CF90D5
:101F1000BF90AF9008958091500290915102892B0B
:101F200021F487E993E00E94630C80915002909124
:101F300051020E94C41E892B31F461E070E084EDEF
:101F400093E00E94E41E0895F8941F920F922F933D
:101F50003F934F935F936F937F938F939F93AF9331
:101F6000BF93EF93FF938091500290915102892B80
:101F700021F481E993E00E94630C0E948B0FFF9192
:101F8000EF91BF91AF919F918F917F916F915F91F1
:101F90004F913F912F910F901F90789408950E9438
:101FA000A40FFDCFCF93DF93EC01F8948091500202
:101FB00090915102892B21F48BE893E00E94630CED
:101FC000E0915002F0915102D1A7C0A783E0868F23
:101FD0000E94A40FDF91CF910895EF92FF920F938B
:101FE0001F938C010FB607FC37C0B801882777FD17
:101FF0008095982F0E94C92017FF06C020E030E08E
:1020000040E857E40E94C61F20E030E04AEF54E465
:102010000E947D217B018C0120E030E040E85FE3FD
:102020000E942A2088231CF481E090E012C020E066
:102030003FEF4FE757E4C801B7010E947921181616
:102040001CF480E090E005C0C801B7010E949B200D
:10205000CB010197F1F720C0F894E0915002F09184
:10206000510284E0868F8091520290915302A09198
:102070005402B0915502E0915002F0915102980142
:1020800044275527820F931FA41FB51F84A395A330
:10209000A6A3B7A30E94A40F1F910F91FF90EF90EA
:1020A00008950E940D0D88EB9BE00E94ED0FF9CF83
:1020B0000E94A40FFDCF0F931F93CF93DF938C014A
:1020C0006FB7F89440E050E0EEEBF2E080818823B7
:1020D00059F04F5F5F4FBC9647305105B9F78CE719
:1020E00093E00E94630CFFCF8CE290E0489FD00108
:1020F000499FB00D589FB00D1124A056BD4F81E0EF
:10210000ED018E8F3BA72AA7FD0110A211A212A2FA
:1021100013A22CE231E0348F238F89E119928A9542
:10212000E9F7842F9927F9018E9F90018F9F300D39
:102130009E9F300D1124E7EBFFE0E21BF30B2FEC29
:102140003FE020833197232F332720833197ED0100
:10215000FB8BEA8B1E8B0D8B2C8920682C8B2FB769
:102160006078262B2FBFDF91CF911F910F9108959B
:10217000EF92FF920F931F93CF93DF9300EA12E049
:102180001F930F938BE395E09F938F930E943E13D1
:1021900084ED93E09F938F9383E295E09F938F93D9
:1021A0000E943E13E801EE24FF2407EB1FE08DB7E9
:1021B0009EB708960FB6F8949EBF0FBE8DBFED8EEA
:1021C0001E8EC8011A8F098F18A219A21AA21BA26B
:1021D0000C5211401F930F939F938F93FF92EF9296
:1021E0008CE095E09F938F930E943E130894E11C2E
:1021F000F11CAC968DB79EB708960FB6F8949EBFAB
:102200000FBE8DBF97E0E916F104C9F626EC31E068
:1022100040E060E071E088E590E10E945B10809111
:10222000BE02882321F482E095E00E94630C84EDD5
:1022300093E00E94C41E8FEF90E19093E703809398
:10224000E60381EB9EE09093EA038093E9030E940A
:10225000BA0CDF91CF911F910F91FF90EF900895ED
:1022600008951F920F920FB60F9211242F933F9350
:102270004F935F936F937F938F939F93AF93BF938E
:10228000EF93FF938BEC91E00E94630CFF91EF9131
:10229000BF91AF919F918F917F916F915F914F917E
:1022A0003F912F910F900FBE0F901F9018951F9286
:1022B0000F920FB60F9211242F933F934F935F937A
:1022C0006F937F938F939F93AF93BF93EF93FF93FE
:1022D00083E884BD8091520290915302A0915402F0
:1022E000B09155020196A11DB11D809352029093A9
:1022F0005302A0935402B09355020E948B0FFF919A
:10230000EF91BF91AF919F918F917F916F915F916D
:102310004F913F912F910F900FBE0F901F901895E6
:10232000CF92DF92EF92FF920F931F93CF93DF93A1
:10233000CDB7DEB722970FB6F894DEBF0FBECDBF84
:102340008E01035F1F4FF801E190F1908F018DEF37
:10235000C82E83E0D82EC6010E94EA0A1A83098398
:10236000A801B70187E192E00E9461198C01C601C2
:102370000E94840AC80122960FB6F894DEBF0FBEF1
:10238000CDBFDF91CF911F910F91FF90EF90DF9024
:10239000CF900895FF920F931F93CF93DF938C01FB
:1023A000F62E8EE795E09F938F930E943E1388E66A
:1023B00095E09F938F930E943E13E80100E010E0A8
:1023C0000F900F900F900F9019C0888199279F93BD
:1023D0008F93DF93CF931F930F9385E595E09F93A2
:1023E0008F930E943E130F5F1F4F21968DB79EB7AC
:1023F00008960FB6F8949EBF0FBE8DBF8F2D9927FC
:102400000817190714F3DF91CF911F910F91FF90D7
:102410000895CF93DF93EC01892BD1F00E94101720
:10242000DF93CF938DED91E09F938F930E942A18B5
:10243000DF93CF9380EE91E09F938F930E947B1365
:102440008DB79EB708960FB6F8949EBF0FBE8DBF8E
:102450000E941309DF91CF91089585B7806885BFE9
:10246000ECE6F0E080818F778083EDE6F0E080811C
:102470008D7F808385B78F7B85BF83EF87BBC69AAF
:102480008CEF81BB8EEC82B983B1806383B98DE020
:102490008093610010926400E2E6F0E08081846045
:1024A00080831A9AC09A8081816080831B9A0895E4
:1024B000EF92FF920F931F93CF93DF938C017B01D9
:1024C000EA018DEE93E00E94EA0A0795002707953E
:1024D00000640E2907B987ED86B9349BFECF349A84
:1024E00024B185B133279927982F8827282B392B9A
:1024F000398328838DEE93E00E94840A80E090E087
:10250000DF91CF911F910F91FF90EF90089564EEAE
:1025100071E08DEE93E00E94D40A08959C013695F7
:1025200027956065622B6DB980FF02C0709A01C06B
:10253000709887B3876087BB0895AC0120E00AC01C
:10254000FA01E20FF11D80818FB9779BFECF8FB129
:1025500080832F5F2617A1F780E090E0089582EF37
:1025600093E00E94840A089582EF93E00E94EA0AB1
:1025700080E090E008956DEE71E082EF93E00E94BC
:10258000D40A08951E9A5D9BFECF8CB91E98992798
:1025900087FD909508951F93182F8A3019F48DE0C8
:1025A0000E94CB12812F0E94C2121F910895CF93D7
:1025B000DF93EC0103C021960E94C2128881882318
:1025C000D1F7DF91CF9108951E9A5F9BFECF1E98A1
:1025D0008CB1992787FD909508958BB180789927C4
:1025E00087FD909508959C014427552794E0220F7C
:1025F000331F441F551F9A95D1F760E072E18AE7B7
:1026000090E00E941222822F815089B921503040DF
:1026100040405040232F342F452F552720939000C2
:102620001BB886E08093950088E18AB966EF71E077
:1026300087EF93E00E94D40A0895CF92DF92EF9241
:10264000FF920F931F936C018B0127EFE22E23E083
:10265000F22EC7010E94EA0AA801B60180E092E0CA
:102660000E94561F8C01C7010E94840AC8011F9155
:102670000F91FF90EF90DF90CF900895CF93DF936D
:10268000CDB7DEB722970FB6F894DEBF0FBECDBF31
:10269000FE01379681919191FA83E983BF010E94EF
:1026A0001D1322960FB6F894DEBF0FBECDBFDF918B
:1026B000CF910895CF92DF92EF92FF920F931F93E5
:1026C0006C018B0137EFE32E33E0F32EC7010E943C
:1026D000EA0AA801B60180E092E00E9461198C012B
:1026E000C7010E94840AC8011F910F91FF90EF90CB
:1026F000DF90CF900895CF93DF93CDB7DEB72297C9
:102700000FB6F894DEBF0FBECDBFFE0137968191A4
:102710009191FA83E983BF010E945A1322960FB662
:10272000F894DEBF0FBECDBFDF91CF910895DF9249
:10273000EF92FF920F931F93CF93DF93CDB7DEB746
:1027400028970FB6F894DEBF0FBECDBF8C017B017A
:10275000B801882799270E9412158F3FC9F3C698A0
:1027600080E08A95F1F7C69A00E010E041C00E942F
:102770009814682F0F5F1F4F807C803C19F041E058
:10278000D42E08C03FE3D32ED6220E949814682F7F
:102790000F5F1F4F40E050E0A1E0B0E0FE01319636
:1027A00027E030E0CD01022E02C0880F991F0A9465
:1027B000E2F7862381934F5F5F4F215030404830CE
:1027C000510581F790E012C0FE0131969E01275F0E
:1027D0003F4F8081882311F0C59A01C0C598C79AE0
:1027E000C7983196E217F307A1F79F5F9D1561F730
:1027F0000E151F0508F4BBCF0E94291680916300B7
:10280000992723E0969587952A95E1F78170907036
:1028100028960FB6F894DEBF0FBECDBFDF91CF91E3
:102820001F910F91FF90EF90DF900895CF92DF926C
:10283000EF92FF920F931F93CF93DF93CDB7DEB745
:1028400023970FB6F894DEBF0FBECDBF8C017B017E
:102850006A010E94B4128F3F19F48FEF9FEF59C0A5
:102860008E2D880F880F8064898360E082E090E07D
:102870000E948E120130110571F00130110520F017
:1028800002301105D1F40EC01A9863E0CE01019612
:102890000E949D1221C0C09863E0CE0101960E9463
:1028A0009D121CC0809162008E7F8093620063E065
:1028B000CE0101960E949D1213C063E0CE010196E5
:1028C0000E949D120130110549F00130110520F0E0
:1028D0000230110551F404C01A9A07C0C09A05C00D
:1028E000809162008160809362008A819927982F8D
:1028F00088272B813327822B932B26E0969587956B
:102900002A95E1F7F601918380830E94AF1280E05F
:1029100090E023960FB6F894DEBF0FBECDBFDF91D7
:10292000CF911F910F91FF90EF90DF90CF9008957E
:102930001F93CF93DF93CDB7DEB722970FB6F894EE
:10294000DEBF0FBECDBF61E0CE0101960E949D1299
:102950008091FC038F3F49F410E061E0CE010296C4
:102960000E949D121F5F1830C1F78091FC038F5F9A
:102970008093FC038981992722960FB6F894DEBFD5
:102980000FBECDBFDF91CF911F910895EF92FF92BF
:102990000F931F93CF93DF937C01C0E0D0E08B01B6
:1029A00006C00E949814F80181938F012196CE15DC
:1029B000DF05B9F780E090E0DF91CF911F910F9193
:1029C000FF90EF900895CF93DF93CDB7DEB72197B7
:1029D0000FB6F894DEBF0FBECDBF87ED898380911F
:1029E00062008B7F8093620061E0CE0101960E94BD
:1029F0009D1261E0CE0101960E949D12898187FFA0
:102A0000F8CF8091620084608093620082E08A95B2
:102A1000F1F721960FB6F894DEBF0FBECDBFDF9160
:102A2000CF910895EF92FF920F931F93CF93DF936F
:102A3000CDB7DEB724970FB6F894DEBF0FBECDBF7B
:102A40007B018C010E94B4128F3F19F48FEF9FEF2E
:102A50002EC060E081E090E00E948E1288EE8983B3
:102A6000D801C7012FE0B695A795979587952A9528
:102A7000D1F78A83BB27A12F902F8F2D880F8B83AF
:102A8000E092FC03EC820E94E314809162008B7F51
:102A90008093620064E08E010F5F1F4FC8010E94A7
:102AA0009D1264E0C8010E949D1280E090E024968F
:102AB0000FB6F894DEBF0FBECDBFDF91CF911F914F
:102AC0000F91FF90EF9008958F929F92AF92BF92D7
:102AD000CF92DF92EF92FF920F931F93CF93DF93EA
:102AE000CDB7DEB724970FB6F894DEBF0FBECDBFCB
:102AF0006B017C014A0159010E94B4128F3F19F405
:102B00002FEF3FEF3EC060E081E090E00E948E1228
:102B100084E889831A821B82CC82809162008B7F39
:102B20008093620064E0CE0101960E949D122C2DDC
:102B30003327C9018A0D9B1D8150914028F0A12C9B
:102B400041E0B42EA21AB30A00E010E074010BC0F9
:102B5000F70181917F01898361E0CE0101960E9496
:102B60009D120F5F1F4F0A151B0591F780916200A0
:102B700084608093620082E08A95F1F70E94AF1230
:102B80009501C90124960FB6F894DEBF0FBECDBFE4
:102B9000DF91CF911F910F91FF90EF90DF90CF9039
:102BA000BF90AF909F908F900895EF92FF920F93F8
:102BB0001F93CF93DF93CDB7DEB724970FB6F8946A
:102BC000DEBF0FBECDBF7B018C010E94B4128F3FD0
:102BD00019F48FEF9FEF30C060E081E090E00E9439
:102BE0008E1283E58983D801C7016FE0B695A7955A
:102BF000979587956A95D1F78A83BB27A12F902F48
:102C00008F2D880F8B831C820E94E31480916200B9
:102C10008B7F8093620064E0CE0101960E949D123A
:102C20008091620084608093620082E08A95F1F76F
:102C30000E94AF1280E090E024960FB6F894DEBFB9
:102C40000FBECDBFDF91CF911F910F91FF90EF90FD
:102C50000895E2E6F0E080818460808382E08A95D6
:102C6000F1F70E94AF1208950F931F93CF93DF9354
:102C7000CDB7DEB722970FB6F894DEBF0FBECDBF3B
:102C80008C0187ED89831A820E94B4128F3F19F458
:102C90008FEF9FEF1EC060E081E090E00E948E12F7
:102CA000809162008B7F8093620062E0CE0101968A
:102CB0000E949D128091620084608093620082E095
:102CC0008A95F1F70E94AF128A81F801808380E033
:102CD00090E022960FB6F894DEBF0FBECDBFDF9115
:102CE000CF911F910F910895EF92FF920F931F9331
:102CF000CF93DF93CDB7DEB724970FB6F894DEBF3E
:102D00000FBECDBF7B018C010E94B4128F3F19F41E
:102D10008FEF9FEF30C060E081E090E00E948E1264
:102D200083E88983D801C701EFE0B695A795979509
:102D30008795EA95D1F78A83BB27A12F902F8F2DF6
:102D4000880F8B831C820E94E314809162008B7F2A
:102D50008093620064E0CE0101960E949D128091F2
:102D6000620084608093620082E08A95F1F70E949D
:102D7000AF1280E090E024960FB6F894DEBF0FBE4D
:102D8000CDBFDF91CF911F910F91FF90EF900895EC
:102D900080915602992708950F931F93082F162F9D
:102DA0008DEF93E00E94EA0A812F82958F700023B5
:102DB00029F0979A880F880F806C04C09798880F25
:102DC000880F806482BB80ED97E0FC013197F1F7BA
:102DD00096980197F1F7612F7727002349F06F70DC
:102DE0007070660F771F660F771F862F806C08C084
:102DF0006F707070660F771F660F771F862F806465
:102E000082BB80ED97E0FC013197F1F7969801972E
:102E1000F1F78DEF93E00E94840A1F910F910895BE
:102E20000F931F930DEF13E0C8010E94EA0A61E0BF
:102E300080E00E94CC1662E080E00E94CC161092E6
:102E40005602C8010E94840A1F910F9108951F9392
:102E5000182F8DEF93E00E94EA0A1093560210316A
:102E600008F0105D1068612F80E00E94CC168DEF95
:102E700093E00E94840A1F9108951F93182F8DEFED
:102E800093E00E94EA0A80915702882339F00E9459
:102E9000101780E00E942717109257021A3031F461
:102EA00081E0809357021092560211C0612F81E099
:102EB0000E94CC16809156028F3021F460EC80E0A5
:102EC0000E94CC16809156028F5F809356028DEF40
:102ED00093E00E94840A812F992787FD90951F9186
:102EE00008950F931F93CF93DF93EC018DEF93E041
:102EF0000E94EA0A00E010E01AC021966A3039F414
:102F000060E880E00E94CC161092560203C081E077
:102F10000E94CC160F3021F460EC80E00E94CC16A9
:102F2000809156028F5F809356020F5F1F4F68811A
:102F3000662319F78DEF93E00E94840ADF91CF9109
:102F40001F910F910895FF920F931F93CF93DF93DB
:102F5000F82E8B018DEF93E00E94EA0AFF0CFF0C24
:102F6000FF0CE80100E06F2D600F606480E00E94BC
:102F7000CC16FE01649181E00E94CC160F5F219671
:102F8000083089F78DEF93E00E94840ADF91CF919A
:102F90001F910F91FF900895CF92DF92EF92FF92D1
:102FA0000F931F936C018B012DEFE22E23E0F22E85
:102FB000C7010E94EA0AA801B60187E192E00E94D7
:102FC000561F8C01C7010E94840AC8011F910F91EE
:102FD000FF90EF90DF90CF900895CF93DF93CDB720
:102FE000DEB722970FB6F894DEBF0FBECDBFFE014D
:102FF000379681919191FA83E983BF010E94CC17A2
:1030000022960FB6F894DEBF0FBECDBFDF91CF91F1
:103010000895CF92DF92EF92FF920F931F936C016E
:103020008B013DEFE32E33E0F32EC7010E94EA0A45
:10303000A801B60187E192E00E9461198C01C701E5
:103040000E94840AC8011F910F91FF90EF90DF90BA
:10305000CF900895CF93DF93CDB7DEB722970FB609
:10306000F894DEBF0FBECDBFFE01379681919191DE
:10307000FA83E983BF010E94091822960FB6F894DB
:10308000DEBF0FBECDBFDF91CF91089580E090E00D
:103090000197F1F763E380E00E94CC1662E380E0E1
:1030A0000E94CC1664E975E081E00E94A3176CE9E8
:1030B00075E082E00E94A31764EA75E083E00E9455
:1030C000A3176CEA75E084E00E94A31764EB75E037
:1030D00085E00E94A3176CEB75E086E00E94A317C1
:1030E00061E080E00E94CC1662E080E00E94CC1695
:1030F00066E080E00E94CC166CE080E00E94CC1676
:103100006EE072E08DEF93E00E94D40A0895089576
:10311000CF92DF92EF92FF920F931F93082F7B01C4
:1031200092E0C92E94E0D92EC6010E94EA0A000F4F
:10313000005E112700501F4EF801E192EF2CFF2492
:10314000E082C6010E94840A1F910F91FF90EF90C8
:10315000DF90CF900895FF920F931F93F82E8B016D
:10316000B801882777FD8095982F0E94C92017FF06
:1031700006C020E030E040E857E40E94C61F21E688
:1031800032EC44E85FE30E947D210E949B206F5B4C
:103190007F4F8F2D0E9488181F910F91FF900895E7
:1031A00065E272E082E094E00E94D40A0895EF9212
:1031B000FF921F9387E0E82E84E0F82EC7010E945B
:1031C000EA0A10911E11C7010E94840A1095812FEE
:1031D00099271F91FF90EF9008951F93182F883023
:1031E000A8F487E094E00E94EA0A80911E119927D2
:1031F0008095909502C0959587951A95E2F7182FBE
:10320000117087E094E00E94840A0FC0883140F476
:103210000E942B0810E08150924038F011E005C068
:1032200084EC95E00E94630C10E0812F99271F9198
:10323000089560E372E087E094E00E94D40A089564
:10324000EF92FF920F931F93082F3CE0E32E34E0A0
:10325000F32EC7010E94EA0AA02FBB27AA0FBB1FAB
:10326000EA2FE452FF27E050FF4E819100811127A1
:10327000102F00279927082B192BA85DBD4F8D9182
:103280009C91081B190BC7010E94840AC8011F9159
:103290000F91FF90EF9008951F93182F0E9420190F
:1032A000E12FFF27EE0FFF1FE85DFD4F9183808325
:1032B0001F9108956DE372E08CE094E00E94D40ABF
:1032C0000895A1E1B0E0E7E6F9E10C9434223C0175
:1032D0007F876E876A01FC0117821682838181FDD8
:1032E00003C06FEF7FEF71C39E012F5F3F4F398B9C
:1032F000288BF3012381EE85FF8523FD859123FF34
:103300008191FF87EE87882309F45CC3853251F4ED
:10331000EE85FF8523FD859123FF8191FF87EE8751
:10332000853229F490E0B3010E942A1FE2CF982F42
:1033300010E0882499241032B0F49B3269F09C325A
:1033400028F4903251F0933271F40BC09D3239F071
:10335000903349F4116028C01260146025C01860D1
:1033600023C0106121C017FD2AC0892F80538A30E5
:1033700078F416FF06C0FAE09F9E902C1124980E58
:1033800013C03AE0839E802C1124880E10620CC07A
:103390009E3221F416FD16C3106406C09C3611F44B
:1033A000106802C0983659F4EE85FF8523FD95918B
:1033B00023FF9191FF87EE87992309F0BCCF892FD6
:1033C0008554833020F4812F8061905E07C0892F5F
:1033D0008556833008F0A1C1812F8F7E86FD02C003
:1033E00076E0972E6FE3F62EF822953619F4F0E486
:1033F000FF2A07C0963619F420E8F22A02C091107D
:103400009A94F7FE0BC03BE3391520F427E05CE308
:10341000B52E0EC0B92CB39427E00AC047E0491579
:1034200028F427E0BB2447E0942E02C0292DBB24BA
:10343000C60104969D878C87F60160817181828127
:103440009381AE014F5F5F4F0B2D0E94EC1D6C010D
:103450000981202E332400FF04C003FD02C01DE2B9
:1034600009C0F1FE02C01BE205C0F2FC02C010E080
:1034700001C010E2C1018C709070892BB9F1112349
:1034800011F483E001C084E0881510F088240AC09C
:10349000881AF3FC07C080E290E0B3010E942A1F63
:1034A0008A94C9F7112329F0812F90E0B3010E947B
:1034B0002A1F23FE03C001ED15E00EC005ED15E047
:1034C0000BC0E114F10409F0805290E0B3010E94B6
:1034D0002A1F0F5F1F4F05C0EF2CFF24F0E1EF22E2
:1034E000FF24F8018491882361F714C1F7FE12C00C
:1034F000BC0C24FE04C08A81813309F4BA941B14E5
:103500001CF0BB24B3942DC0F8E0FB1550F538E057
:10351000B32E27C0F6FC25C0892D90E08C159D05A3
:103520004CF02CEFC2162FEFD20624F030E8F32A2D
:1035300001C09A94992049F0E2E0F0E0EC0FFD1F01
:10354000E90DF11D80818033A1F3F7FE0AC0B92C8B
:10355000B394892D90E0C816D90614F0992401C0BF
:103560009C18F7FC03C025E030E009C01C141D04C2
:103570001CF021E030E003C096012F5F3F4F112384
:1035800011F02F5F3F4F992029F0892D90E001968F
:10359000280F391F882D90E02817390714F0882448
:1035A00001C0821A4F2C5524C20189709070892B5A
:1035B00039F008C080E290E0B3010E942A1F8A948B
:1035C0008820C1F7112329F0812F90E0B3010E94D8
:1035D0002A1F43FE07C008C080E390E0B3010E94A9
:1035E0002A1F8A948820C1F7F7FE46C08601D7FEBD
:1035F00002C000E010E076010894E11CF11CE01A22
:10360000F10A41E050E04C0F5D1FE40EF51E26016B
:103610004B185108892D90E0AA24BB24A81AB90A96
:103620005FEF0F3F150729F48EE290E0B3010E948F
:103630002A1FC016D10634F0401651061CF4F701BB
:10364000808101C080E3015010400894E11CF11C0E
:103650000A151B052CF090E0B3010E942A1FE0CF51
:103660000C151D0539F49A81963318F4953311F42D
:1036700024FE81E390E04BC08A81813309F00F7E04
:1036800090E0B3010E942A1F9920A1F08EE290E001
:10369000B3010E942A1F12E0E1E0F0E0EC0FFD1FF1
:1036A000E10FF11D1F5F808190E0B3010E942A1F8E
:1036B0009A9491F744FC03C085E690E002C085E44B
:1036C00090E0B3010E942A1FD7FC05C0C114D104A9
:1036D00041F404FF06C0D094C194D108D3948DE284
:1036E00001C08BE290E0B3010E942A1F80E305C075
:1036F0008F5F26EF3FEFC20ED31E3AE0C316D10410
:10370000BCF790E0B3010E942A1FC601C096B30126
:103710000E942A1FCC84DD8452C1933631F0933746
:1037200099F0933509F059C023C0F601808189834F
:103730005E010894A11CB11C22E030E0C20ED31E31
:1037400021E0E22EF12C12C0F601A080B18016FD1E
:1037500003C06FEF7FEF02C0692D70E022E030E020
:10376000C20ED31EC5010E941F1F7C011F7713C00C
:10377000F601A080B18016FD03C06FEF7FEF02C09D
:10378000692D70E022E030E0C20ED31EC5010E9418
:10379000141F7C01106813FF07C01BC080E290E07B
:1037A000B3010E942A1F8A94882D90E0E816F9063A
:1037B000A8F30FC0F50117FD859117FF81915F01F7
:1037C00090E0B3010E942A1F81108A940894E108B6
:1037D000F108E114F10471F7F2C0943611F0993652
:1037E00089F517FF08C0F60120813181428153819C
:1037F00084E090E00AC0F601808191819C01442719
:1038000037FD4095542F82E090E0C80ED91E9FE608
:10381000F92EF12257FF09C050954095309521951A
:103820003F4F4F4F5F4F90E8F92ACA01B901AE01EF
:103830004F5F5F4F2AE030E00E94671FE82EE88963
:10384000EE1A41C0953721F41F7E2AE030E01CC0FB
:10385000197F9F3661F0903720F4983509F0B2C097
:103860000FC0903739F0983709F0ACC004C028E099
:1038700030E00AC0106114FD146020E130E004C0A3
:1038800014FD166020E132E017FF08C0F6016081E8
:1038900071818281938144E050E008C0F60180810B
:1038A0009181BC0180E090E042E050E0C40ED51E62
:1038B000AE014F5F5F4F0E94671FE82E5889E51ADF
:1038C0008FE7F82EF122F6FE0BC08EEFF822E914F6
:1038D00038F4F4FE07C0F2FC05C09FEEF92202C0E6
:1038E0001E2D01C0192DF4FE0DC0FE01EE0DF11DBF
:1038F0008081803319F4E9EEFE2208C01F5FF2FEDA
:1039000005C003C08F2D867809F01F5F0F2DF3FCD3
:1039100014C0F0FE0FC0181510F09E2C0BC09E2C8A
:10392000980C911A182D06C080E290E0B3010E9415
:103930002A1F1F5F1815C0F304C0181510F4811A50
:1039400001C0882404FF0FC080E390E0B3010E940F
:103950002A1F02FF1DC001FD03C088E790E00EC0D2
:1039600088E590E00BC0802F867891F001FF02C0BF
:103970008BE201C080E2F7FC8DE290E0B3010E948F
:103980002A1F06C080E390E0B3010E942A1F9A9488
:10399000E914C0F3EA94E1E0F0E0EC0FFD1FEE0D56
:1039A000F11D808190E0B3010E942A1FEE2091F763
:1039B00006C080E290E0B3010E942A1F8A9488200A
:1039C000C1F797CCF30166817781CB016196E2E183
:1039D0000C945022CF93DF93BC018230910510F4F8
:1039E00062E070E0A0911304B0911404ED01E0E0F6
:1039F000F0E040E050E021C0888199818617970768
:103A000069F48A819B81309719F09383828304C083
:103A10009093140480931304FE0134C0681779074F
:103A200038F44115510519F08417950708F4AC01D5
:103A3000FE018A819B819C01E9012097E9F64115ED
:103A40005105A9F1CA01861B970B049708F4BA0126
:103A5000E0E0F0E02AC08D919C91119784179507C2
:103A6000F9F46417750781F412968D919C91139760
:103A7000309719F09383828304C090931404809349
:103A80001304FD0132964CC0CA01861B970BFD0141
:103A9000E80FF91F6193719302978D939C9340C037
:103AA000FD01828193819C01D9011097A1F680913B
:103AB000110490911204892B41F480914C02909151
:103AC0004D02909312048093110440914E02509144
:103AD0004F024115510541F44DB75EB780914A023E
:103AE00090914B02481B590B209111043091120404
:103AF000CA01821B930B8617970780F0AB014E5FBC
:103B00005F4F8417950750F0420F531F50931204D4
:103B100040931104F9016193719302C0E0E0F0E079
:103B2000CF01DF91CF910895CF93DF93009709F4F0
:103B300050C0EC0122971B821A82A0911304B0910D
:103B40001404109709F140E050E0AC17BD0708F1EC
:103B5000BB83AA83FE0121913191E20FF31FAE17BF
:103B6000BF0779F48D919C911197280F391F2E5F13
:103B70003F4F3983288312968D919C9113979B8395
:103B80008A834115510571F4D0931404C093130432
:103B900020C012968D919C911397AD01009711F062
:103BA000DC01D3CFFA01D383C28321913191E20F9B
:103BB000F31FCE17DF0769F488819981280F391F19
:103BC0002E5F3F4FFA01318320838A819B8193834B
:103BD0008283DF91CF910895283008F027E03327C2
:103BE000DA01990F311D87FD91600096610571051D
:103BF00039F432602E5F3D9330E32A95E1F7089562
:103C00009F3F30F080387105610509F03C5F3C5FF3
:103C10003D93913008F08068911DDF93CF931F93FF
:103C20000F93FF92EF92192F987F9695E92F969513
:103C30009695E90FFF27ED5CF94F99273327EE247E
:103C4000FF24A701E70105900894079428F4360F94
:103C5000E71EF81E491F511D660F771F881F991F09
:103C60000694A1F70590079428F4E70EF81E491F63
:103C7000561FC11D770F881F991F661F0694A1F755
:103C80000590079428F4F80E491F561FC71FD11D31
:103C9000880F991F661F771F0694A1F70590079458
:103CA00020F4490F561FC71FD81F990F661F771F93
:103CB000881F0694A9F784911095177041F0D69546
:103CC000C79557954795F794E7941A95C1F7E9ED8D
:103CD000F5E0689415901591359165919591059051
:103CE0007FE27395E118F10A430B560BC90BD0091B
:103CF000C0F7E10CF11E431F561FC91FD01D7EF4F3
:103D0000703311F48A95E6CFE894015030F0080F33
:103D10000AF40027021708F4202F2395022F7A3384
:103D200028F079E37D932A95E9F710C07D932A95D1
:103D300089F6069497956795379517951794E11826
:103D4000F10A430B560BC90BD00998F023957E91CD
:103D500073957A3308F070E37C932013B8F77E9163
:103D600070617D9330F0839571E37D9370E32A95C4
:103D7000E1F71124EF90FF900F911F91CF91DF9108
:103D8000992787FD90950895DC012D923D924D92E3
:103D90005D926D927D928D929D92AD92BD92CD92EB
:103DA000DD92ED92FD920D931D93CD93DD93FF91E6
:103DB000EF918DB78D938EB78D938FB78D93ED93D4
:103DC000FD93882799270994DC01CB018130910567
:103DD000811D2D903D904D905D906D907D908D90CA
:103DE0009D90AD90BD90CD90DD90ED90FD900D91AA
:103DF0001D91CD91DD91ED91FD910D90F894FEBF57
:103E00000FBEEDBFED91FD910994FB01DC01415026
:103E1000504048F005900D920020C9F701C01D9256
:103E200041505040E0F70895FC010590615070400A
:103E30000110D8F7809590958E0F9F1F0895FC0173
:103E40006150704001900110D8F7809590958E0FC9
:103E50009F1F08950F931F93CF93DF938C01EB0166
:103E60008B8181FF1BC082FF0DC02E813F818C8121
:103E70009D812817390764F4E881F9810193F9835A
:103E8000E88306C0E885F985802F0995892B31F4F0
:103E90008E819F8101969F838E8302C00FEF1FEF5B
:103EA000C801DF91CF911F910F9108950F931F9338
:103EB0008C01FC01838188608383C8010E946119A1
:103EC000F8012381277F23831F910F910895FA0121
:103ED000AA27283051F1203181F1E8946F936E7F49
:103EE0006E5F7F4F8F4F9F4FAF4FB1E03ED0B4E03A
:103EF0003CD0670F781F891F9A1FA11D680F791F7B
:103F00008A1F911DA11D6A0F711D811D911DA11D8B
:103F100020D009F468943F912AE0269F112430199B
:103F2000305D3193DEF6CF010895462F4770405D36
:103F30004193B3E00FD0C9F7F6CF462F4F70405DE5
:103F40004A3318F0495D31FD4052419302D0A9F740
:103F5000EACFB4E0A6959795879577956795BA953A
:103F6000C9F700976105710508959B01AC010A2E00
:103F700006945795479537952795BA95C9F7620FD7
:103F8000731F841F951FA01D08955058BB27AA2793
:103F90000ED075C166D130F06BD120F031F49F3F67
:103FA00011F41EF45BC10EF4E095E7FB51C1E92F5B
:103FB00077D180F3BA17620773078407950718F063
:103FC00071F49EF58FC10EF4E0950B2EBA2FA02D43
:103FD0000B01B90190010C01CA01A0011124FF27B6
:103FE000591B99F0593F50F4503E68F11A16F040B1
:103FF000A22F232F342F4427585FF3CF46953795B0
:104000002795A795F0405395C9F77EF41F16BA0B74
:10401000620B730B840BBAF09150A1F0FF0FBB1F22
:10402000661F771F881FC2F70EC0BA0F621F731F6B
:10403000841F48F4879577956795B795F7959E3FC8
:1040400008F0B3CF9395880F08F09927EE0F979556
:1040500087950895D9D008F481E008950CD00FC158
:1040600007D140F0FED030F021F45F3F19F0F0C0EE
:10407000511139C1F3C014D198F39923C9F35523D1
:10408000B1F3951B550BBB27AA276217730784074B
:1040900038F09F5F5F4F220F331F441FAA1FA9F301
:1040A00033D00E2E3AF0E0E830D091505040E695F3
:1040B000001CCAF729D0FE2F27D0660F771F881F54
:1040C000BB1F261737074807AB07B0E809F0BB0B43
:1040D000802DBF01FF2793585F4F2AF09E3F510567
:1040E00068F0B6C000C15F3FECF3983EDCF3869504
:1040F00077956795B795F7959F5FC9F7880F911DDD
:104100009695879597F90895E1E0660F771F881FC8
:10411000BB1F621773078407BA0720F0621B730B7B
:10412000840BBA0BEE1F88F7E095089504D06894CD
:10413000B111D9C00895BCD088F09F5790F0B92F25
:104140009927B751A0F0D1F0660F771F881F991FEC
:104150001AF0BA95C9F712C0B13081F0C3D0B1E0FE
:104160000895C0C0672F782F8827B85F39F0B93F0E
:10417000CCF3869577956795B395D9F73EF49095EE
:104180008095709561957F4F8F4F9F4F0895E8946C
:1041900009C097FB3EF490958095709561957F4F8F
:1041A0008F4F9F4F9923A9F0F92F96E9BB2793953D
:1041B000F695879577956795B795F111F8CFFAF44D
:1041C000BB0F11F460FF1BC06F5F7F4F8F4F9F4F7E
:1041D00016C0882311F096E911C0772321F09EE8DC
:1041E000872F762F05C0662371F096E8862F70E042
:1041F00060E02AF09A95660F771F881FDAF7880F1C
:104200009695879597F90895990F0008550FAA0B71
:10421000E0E8FEEF16161706E807F907C0F01216D9
:104220001306E407F50798F0621B730B840B950BDC
:1042300039F40A2661F0232B242B252B21F4089531
:104240000A2609F4A140A6958FEF811D811D0895CE
:1042500097F99F6780E870E060E008959FEF80EC39
:10426000089500240A9416161706180609060895DC
:1042700000240A9412161306140605060895092E42
:104280000394000C11F4882352F0BB0F40F4BF2BB1
:1042900011F460FF04C06F5F7F4F8F4F9F4F0895F1
:1042A00057FD9058440F551F59F05F3F71F04795E7
:1042B000880F97FB991F61F09F3F79F087950895CC
:1042C000121613061406551FF2CF4695F1DF08C0EB
:1042D000161617061806991FF1CF86957105610508
:1042E00008940895E894BB2766277727CB0197F9B0
:1042F00008958ADF08F48FEF08950BD0C0CFB1DFA7
:1043000028F0B6DF18F0952309F0A2CFA7CF11242B
:10431000EACFC6DFA0F3959FD1F3950F50E0551F6C
:10432000629FF001729FBB27F00DB11D639FAA270A
:10433000F00DB11DAA1F649F6627B00DA11D661F59
:10434000829F2227B00DA11D621F739FB00DA11D7A
:10435000621F839FA00D611D221F749F3327A00D34
:10436000611D231F849F600D211D822F762F6A2FD0
:1043700011249F5750408AF0E1F088234AF0EE0F55
:10438000FF1FBB1F661F771F881F91505040A9F762
:104390009E3F510570F05CCFA6CF5F3FECF3983E97
:1043A000DCF3869577956795B795F795E7959F5FC9
:1043B000C1F7FE2B880F911D9695879597F9089563
:1043C000629FD001739FF001829FE00DF11D649FF9
:1043D000E00DF11D929FF00D839FF00D749FF00D85
:1043E000659FF00D9927729FB00DE11DF91F639F26
:1043F000B00DE11DF91FBD01CF011124089597FBF8
:10440000092E07260AD077FD04D065D006D00020FB
:104410001AF4709561957F4F0895F6F79095819500
:104420009F4F0895A1E21A2EAA1BBB1BFD010DC0D0
:10443000AA1FBB1FEE1FFF1FA217B307E407F50754
:1044400020F0A21BB30BE40BF50B661F771F881F30
:10445000991F1A9469F760957095809590959B01C6
:10446000AC01BD01CF0108952F923F924F925F9210
:104470006F927F928F929F92AF92BF92CF92DF9274
:10448000EF92FF920F931F93CF93DF93CDB7DEB7D9
:10449000CA1BDB0B0FB6F894DEBF0FBECDBF09946D
:1044A0002A88398848885F846E847D848C849B84C4
:1044B000AA84B984C884DF80EE80FD800C811B81D2
:1044C000AA81B981CE0FD11D0FB6F894DEBF0FBE01
:1044D000CDBFED010895AA1BBB1B51E107C0AA1F68
:1044E000BB1FA617B70710F0A61BB70B881F991F95
:0E44F0005A95A9F780959095BC01CD010895CD
:1044FE000A424C41434B000A5748495445000A5062
:10450E006C616365204C454473206F6E206C696747
:10451E00687420737572666163652C207468656EAD
:10452E0020707265737320676F000A4C3A25642001
:10453E00204D3A25642020523A2564000A506C61C1
:10454E006365204C454473206F6E206461726B204E
:10455E00737572666163652C207468656E20707267
:10456E0065737320676F006D6F746F72206C6F636D
:10457E006B00040502030001726F626F74206D6F91
:10458E006E69746F720075736572206D61696E006D
:10459E00014861707079626F617264207625582EC1
:1045AE00253032582020202020202020202020209E
:1045BE0020202005000069646C6500756E6B6E6FBF
:1045CE00776E20696E746572727570740025730053
:1045DE0025730A00616463206C6F636B00737069EE
:1045EE00206C6F636B0055415254206C6F636B00EF
:1045FE000000000200000000CB12000000004C433F
:10460E0044206C6F636B0000000002000000003D50
:10461E001700000000736572766F206C6F636B007D
:10462E006469676974616C206C6F636B00656E639F
:10463E006F646572206C6F636B0020001B040000BA
:00000001FF
