:100000000C949B030C94BB030C94BB030C94BB0398
:100010000C94BB030C94BB030C94BB030C94BB0368
:100020000C94BB030C94BB030C9438150C94BB03C9
:100030000C94BB030C94BB030C94BB030C94BB0348
:100040000C94BB030C94BB030C94BB030C94BB0338
:100050000C94BB030C94BB030C94BB030C94BB0328
:100060000C94BB030C94BB030C94BB030C94BB0318
:100070000C94BB030C94BB030C94BB030C94BB0308
:100080000C94BB030C94BB030C94BB0375706461AC
:1000900074655F7069643A206E6F20696E70757464
:1000A000007570646174655F7069643A207069649A
:1000B0002064697361626C6564006572726F72209E
:1000C00025302E33660A0063757272656E74207671
:1000D000616C75652025302E33660A00696E69747F
:1000E0005F7069643A20706964206E756C6C006D95
:1000F00061696E000A004A6F794F532076302E32C4
:100100002E3320202020507265737320474F00202B
:1001100020202020202020206D656D6F72792066C0
:10012000756C6C00686561702073697A653A20258A
:10013000642062797465730A005F5F6D616C6C6F37
:10014000635F686561705F656E64203D2025700A9D
:10015000005F5F6D616C6C6F635F686561705F739A
:1001600074617274203D2025700A0072756E61778B
:10017000617920636F6465000A526F756E64206553
:100180006E64000A526F626F742072656164792E2A
:100190002020202050726573732027476F27006C42
:1001A0006F636B2068656C6420627920616E6F7488
:1001B0006865720072656C6561736520756E68654F
:1001C0006C64206C6F636B0072656C656173652095
:1001D0006E756C6C206C6F636B0069735F68656C27
:1001E00064206E756C6C206C6F636B00616371755D
:1001F0006972656420746F6F206D616E7920746917
:100200006D65730061637175697265206E756C6CE4
:10021000206C6F636B00696E6974206E756C6C2066
:100220006C6F636B00496E6974206661696C3A207B
:1002300025730A0D005541525430206F70656E656C
:10024000642061742025640A0D0048617070796231
:100250006F61726420696E69742073746172746571
:10026000640A0D0048617264776172652076657278
:1002700073696F6E2025582E253032580A0D0042C2
:100280006F61726420494420253034580A0D0042C1
:100290006F61726420636F6E666967204F4B0A0D51
:1002A0000042617474657279204F4B3A2025646D69
:1002B000560A0D0046504741207625642E25640AD3
:1002C0000D0046504741206661696C757265004CAF
:1002D0006F772062617474657279004261642043B3
:1002E0006F6E666967000A70616E69633A202573F4
:1002F0000070616E69633A2025730A002074687289
:100300006561642028746964202564292027257389
:1003100027207374617475732025642072756E7361
:100320002025750A0020746872656164202874694C
:10033000642025642920756E616C6C6F636174653F
:10034000640A0044756D70696E6720746872656137
:1003500064207374617465733A0A0020504320204E
:10036000203A20253038700A002053524547203A61
:1003700020253032700A002053502020203A2025BA
:100380003034700A002046502020203A2025303496
:10039000700A00203C6F6D697474696E672072305A
:1003A0002D7233313E0A0044756D70696E67206AA4
:1003B0006D705F6275663A0A006F7574206F662013
:1003C0007468726561647300736C65657000796947
:1003D000656C64006E6F2063757272656E745F7415
:1003E000687265616400737461636B206F76657217
:1003F000666C6F77007265736572766564207370E2
:100400006163653A20257020746F2025700A00739F
:100410007461636B746F703A2025700A00706320FA
:1004200061742025700A007370206F662027257381
:100430002720286964202564292069732025700AF3
:10044000000A737461636B206F766572666C6F77F8
:100450000A0053502061626F7665006E6F206964F8
:100460006C65006D616C6C6F6320737061636520F7
:100470005B25702C25705D0A007468726561647379
:100480005B305D2E74685F73746174757320617482
:100490002025700A00746872656164735B305D20AA
:1004A00061742025700A0074696D65202564002D33
:1004B0002D206E6F2069646C6520746872656164BC
:1004C000202D2D0A007363686564756C65004F6F9D
:1004D00070732E2E2E20746865726527732061203C
:1004E00072756E6E61626C652074687265616420FD
:1004F0007468617473206E6F742069646C650A009F
:1005000020746872656164202874696420256429F8
:100510002027257327207374617475732025640A5E
:100520000020746872656164202874696420256401
:100530002920756E616C6C6F63617465640A006973
:10054000646C6520667265650028696420256429ED
:1005500020737461636B205B25702C2570290A0061
:10056000746872656164207461626C6520656E6494
:100570002061742025700A007468726561642074BB
:1005800061626C65207374617274206174202570DF
:100590000A002520356420202025347020202025C5
:1005A0003032780A003D3D3D3D3D3D3D3D3D3D3DC8
:1005B0003D3D3D3D3D3D3D3D3D0A00494E44455894
:1005C0002020204144445220202056414C55450AC9
:1005D0000000000A0000110E0000000A0000111FB8
:1005E0000000000A00000E1100000E1F1111111F63
:1005F000000000000000001500000E0E0E1F0E048B
:1006000000616E616C6F675F72656164006D63703D
:1006100033303038206661696C006D637033303080
:1006200038206661696C006469676974616C5F7227
:10063000656164006E616E00696E660000407A104C
:10064000F35A00A0724E18090010A5D4E80000E883
:100650007648170000E40B54020000CA9A3B0000E1
:1006600000E1F505000080969800000040420F0070
:100670000000A08601000000102700000000E80331
:10068000000000006400000000000A0000000000FC
:100690000100000000002C76D888DC674F0823DFBB
:1006A000C1DFAE59E1B1B796E5E3E453C63AE6518E
:1006B000997696E8E6C28426EB898C9B62ED407CB5
:1006C0006FFCEFBC9C9F40F2BAA56FA5F490055A51
:1006D0002AF75C936B6CF9676DC11BFCE0E40D4776
:1006E000FEF520E6B500D0ED902E03009435770599
:1006F0000080841E080000204E0A000000C80C3351
:100700003333330F986E12831141EF8D2114893BDF
:10071000E65516CFFEE6DB18D1844B381BF77C1D5F
:10072000901DA4BBE424203284725E228100C9F1B2
:1007300024ECA1E53D2711241FBECFEFD0E1DEBFA1
:10074000CDBF12E0A0E0B1E0E8EDFCE400E00BBFBB
:1007500002C007900D92AC33B107D9F71BBE14E06D
:10076000ACE3B2E001C01D92A831B107E1F70E94ED
:10077000AC0D0C94B0130C94121520917D023091A5
:100780007E0240917F0250918002B901CA01089512
:100790006F927F928F929F92AF92BF92CF92DF9291
:1007A000EF92FF920F931F93962E872E782E692E2D
:1007B00059016A010E94172487FD11C0692D782D07
:1007C000872D962D9701A8010E94662518162CF0FA
:1007D000A92CB82CC72CD62C02C057016801B50132
:1007E000C6011F910F91FF90EF90DF90CF90BF90C7
:1007F000AF909F908F907F906F9008958EE692E0DB
:1008000064E670E00E94740B84E690E00E94CE13D0
:100810008EE692E064E670E00E94740B84E690E05D
:100820000E94CE138EE692E068EC70E00E94740B9A
:1008300088EC90E00E94CE138EE692E064E670E0D1
:100840000E94740B84E690E00E94CE138EE692E044
:1008500064E670E00E94740B84E690E00E94CE1380
:100860008EE692E068EC70E00E94740B88EC90E0F9
:100870000E94CE138BE092E060E971E00E94740B5D
:1008800080E991E00E94CE138BE092E064E670E094
:100890000E94740B84E690E00E94CE138BE092E0FD
:1008A00064E670E00E94740B84E690E00E94CE1330
:1008B0008EE692E068EC70E00E94740B88EC90E0A9
:1008C0000E94CE138EE692E064E670E00E94740B04
:1008D00084E690E00E94CE138EE692E064E670E03B
:1008E0000E94740B84E690E00E94CE138EE692E0A4
:1008F00068EC70E00E94740B88EC90E00E94CE13CC
:100900008BE092E060E971E00E94740B80E991E075
:100910000E94CE1380E193E068EC70E00E94740BBB
:1009200088EC90E00E94CE138BEB92E068EC70E0D4
:100930000E94740B88EC90E00E94CE1380E193E05B
:1009400060E971E00E94740B80E991E00E94CE138F
:1009500055CF0F931F938C0180E060E070E00E9400
:100960004F0A81E060E070E00E944F0AC8010E94D7
:10097000CE131F910F9108950E94C90A882331F068
:1009800081E090E090936C0280936B0208950E9446
:10099000D50A882319F083E090E00CC00E94A610CD
:1009A00060935D0270935E0280935F029093600299
:1009B00081E090E090936C0280936B020895EF9237
:1009C000FF920F931F930E94D50A882339F083E08A
:1009D00090E090936C0280936B0238C089E10E9492
:1009E000880A8C01E0909102F090920288E10E94C6
:1009F000880A20918F02309190020E191F09021B64
:100A0000130B080F191F0E57124000F16091590285
:100A100070915A0280915B0290915C0220E030E07C
:100A200044EB52E40E94B3236093590270935A023C
:100A300080935B0290935C0282E090E090936C0262
:100A400080936B0288EC90E00E94A9041F910F91A3
:100A5000FF90EF9008954F925F926F927F928F92E6
:100A60009F92AF92BF92CF92DF92EF92FF920F933D
:100A70001F932B013C018DE692E040E050E060ECDA
:100A80007FE30DEC1CEC2CE43DE30F2EF0E0CF2EC9
:100A9000F0E0DF2EF0E0EF2EF0E0FF2EF02DAA24A4
:100AA000BB24882499240E94820840927D0250929F
:100AB0007E0260927F02709280021F910F91FF90E0
:100AC000EF90DF90CF90BF90AF909F908F907F90EE
:100AD0006F905F904F9008954F925F926F927F92C8
:100AE0008F929F92AF92BF92CF92DF92EF92FF923E
:100AF0000F931F930E94D50A882309F07AC00E94A1
:100B0000460C7B018C016091590270915A028091D0
:100B10005B0290915C0220E030E040E050E40E94F3
:100B2000B2239B01AC01C801B7010E9466251816CB
:100B30000CF06AC00E94460C7B018C014090590267
:100B400050905A0260905B0270905C02C301B20147
:100B500020E030E040E050E40E94B3239B01AC0170
:100B6000C801B7010E94172488230CF04DC08DE600
:100B700092E040E050E060EC7FE30DEC1CEC2CE4F4
:100B80003DE30F2EF0E0CF2EF0E0DF2EF0E0EF2E71
:100B9000F0E0FF2EF02DAA24BB24882499240E9483
:100BA000820840927D0250927E0260927F02709293
:100BB00080020E94A61060935D0270935E02809393
:100BC0005F029093600281E090E090936C028093CA
:100BD0006B026091590270915A0280915B02909170
:100BE0005C0220E030E044EB53E40E9417248823A9
:100BF00039F483E090E090936C0280936B0204C020
:100C000084EF91E00E94A9041F910F91FF90EF9053
:100C1000DF90CF90BF90AF909F908F907F906F901C
:100C20005F904F900895CF93DF9382E390E00E940E
:100C3000A904C0E0D1E01DC00E94460C00D000D045
:100C400000D0EDB7FEB7D283C183638374838583FD
:100C500096830E9471158DB79EB706960FB6F894CD
:100C60009EBF0FBE8DBF82E390E00E94CE130E9414
:100C7000BC0480916B0290916C020397E9F2DF91C2
:100C8000CF910895AF92BF92CF92DF92EF92FF92F1
:100C90000F931F9300D084E091E0EDB7FEB79283ED
:100CA00081830E9471150F900F9009C10E94460C1C
:100CB0005B016C01E0905902F0905A0200915B02D6
:100CC00010915C02C801B701A60195010E9466253A
:100CD00018160CF05EC0C801B701A60195010E946C
:100CE000B22320E030E040E05FE30E946A2520E08C
:100CF00030E040E252E40E94B3237B018C0120E00B
:100D000030E040E852EC0E94172488235CF40F2E58
:100D1000F0E0EF2EF0E0FF2EF0E80F2FF2EC1F2FA7
:100D2000F02D14C0C801B70120E030E040E852E4E3
:100D30000E946625181654F40F2EF0E0EF2EF0E016
:100D4000FF2EF0E80F2FF2E41F2FF02DC801B7019E
:100D50000E9483249B01AC0180E0B9010E944F0AEC
:100D6000C601B5012091590230915A0240915B02AF
:100D700050915C020E94B22320E030E040E05FE34B
:100D80000E946A2520E030E040E252E40E94B22353
:100D90005DC0C801B701A60195010E94B22320E001
:100DA00030E040E05FE30E946A2520E030E040E26E
:100DB00052E40E94B2237B018C0120E030E040E845
:100DC00052EC0E94172488235CF40F2EF0E0EF2EE3
:100DD000F0E0FF2EF0E80F2FF2EC1F2FF02D14C0E3
:100DE000C801B70120E030E040E852E40E946625E7
:100DF000181654F40F2EF0E0EF2EF0E0FF2EF0E87E
:100E00000F2FF2E41F2FF02DC801B7010E94832499
:100E10009B01AC0180E0B9010E944F0AC601B501F7
:100E20002091590230915A0240915B0250915C022C
:100E30000E94B22320E030E040E05FE30E946A2598
:100E400020E030E040E252E40E94B3237B018C01B9
:100E500020E030E040E852EC0E94172488235CF444
:100E60000F2EF0E0EF2EF0E0FF2EF0E80F2FF2EC67
:100E70001F2FF02D14C0C801B70120E030E040E87A
:100E800052E40E946625181654F40F2EF0E0EF2E5F
:100E9000F0E0FF2EF0E80F2FF2E41F2FF02DC80135
:100EA000B7010E9483249B01AC0181E0B9010E943B
:100EB0004F0A82E390E00E94CE130E946C0580915D
:100EC0006B0290916C02029709F4F0CE1F910F9182
:100ED000FF90EF90DF90CF90BF90AF900895EF928A
:100EE000FF920F931F93CF93DF9300D083E191E0A4
:100EF000EDB7FEB7928381830E9471150F900F901A
:100F000089E10E94880A909392028093910288E17D
:100F10000E94880A9093900280938F02CEE3D0E0E3
:100F20001DC00E94460CAB01BC018DE692E00E9400
:100F3000E4080E9483247B018C016E5B7F4F80E07C
:100F40000E944F0ABE016E197F0981E00E944F0A7C
:100F500082E390E00E94CE130E94DF0480916B0236
:100F600090916C020197E9F2DF91CF911F910F915F
:100F7000FF90EF9008952F923F924F925F926F9261
:100F80007F928F929F92AF92BF92CF92DF92EF9219
:100F9000FF920F931F93CF93DF9387E3282E81E077
:100FA000382EC4E4D1E00F2EF0E04F2EF0E05F2E9B
:100FB000F0E06F2EF0E07F2EF02D63C08EEF93E017
:100FC00060E470E04FE721E231E00E943C1400D081
:100FD0008DE291E0EDB7FEB7928381830E94711597
:100FE0000F900F900E94640B00D0EDB7FEB73282D5
:100FF00021820E9471150F900F9088EE93E00E945D
:10100000CE1300D0EDB7FEB7D283C1830E94711515
:101010000F900F9088E04BE15DE26CEA74E408E821
:1010200013E120E030E00E94E60C40925902509219
:101030005A0260925B0270925C028DE692E040E0A0
:1010400050E060EC7FE30DEC1CEC2CE43DE30F2E54
:10105000F0E0CF2EF0E0DF2EF0E0EF2EF0E0FF2EFC
:10106000F02DAA24BB24882499240E94820840924F
:101070007D0250927E0260927F02709280020E94F6
:10108000C70480916B0290916C02892B09F496CF72
:10109000DF91CF911F910F91FF90EF90DF90CF9054
:1010A000BF90AF909F908F907F906F905F904F9088
:1010B0003F902F90089510926C0210926B028091D5
:1010C0006B0290916C028130910569F0813091053D
:1010D00038F08230910551F083309105A1F709C0B5
:1010E0000E94BB07ECCF0E946F07E9CF0E94420627
:1010F000E6CF0E941306E3CF80E00E94A90D80E0B6
:1011000090E008952F923F924F925F926F927F925C
:101110008F929F92AF92BF92CF92DF92EF92FF9207
:101120000F931F93DF93CF9300D000D0CDB7DEB7DE
:101130003C011A012B0109831A832B833C830097FE
:1011400021F48CED90E00E944410D3012D923D9249
:101150004D925C92139789819A81AB81BC81F30196
:1011600084839583A683B783D3011896CD92DD92AD
:10117000ED92FC921B971D96BC92AE921C971F9607
:101180009C928E921E9780E090E0A0E0B0E0848B6D
:10119000958BA68BB78B108E11A20F900F900F908E
:1011A0000F90CF91DF911F910F91FF90EF90DF9003
:1011B000CF90BF90AF909F908F907F906F905F90F7
:1011C0004F903F902F9008952F923F924F925F92B1
:1011D0006F927F928F929F92AF92BF92CF92DF9247
:1011E000EF92FF920F931F93CF93DF93EC011A01BD
:1011F0002B0100D000D000D087EC90E0EDB7FEB717
:101200009283818343835483658376830E941F176F
:10121000688979898A899B89A20191010E94B223F8
:101220005B016C018AEB90E0EDB7FEB7928381839E
:10123000A382B482C582D6820E941F17C601B5015F
:10124000288139814A815B810E946A257B018C015A
:101250008DB79EB706960FB6F8949EBF0FBE8DBF92
:10126000888D882359F40F2EF0E0AF2EF0E0BF2ECA
:10127000F0E0CF2EF0E0DF2EF02D52C00E94A6103D
:101280002D8D3E8D4F8D58A1621B730B840B950BDA
:101290000E94B4242FE632E143E85AE30E946A2513
:1012A0003B014C01A60195010E946A252C893D89CC
:1012B0004E895F890E94B3235B016C012C813D81C3
:1012C0004E815F810E946A259B01AC01C801B70174
:1012D0000E94B3237B018C01C401B30120E030E004
:1012E00040E050E00E9417248823D1F0C201B101F0
:1012F000298D3A8D4B8D5C8D0E94B22328853985CE
:101300004A855B850E946A25A40193010E941B24E3
:101310009B01AC01C801B7010E94B3237B018C0182
:1013200081E0888FAC8ABD8ACE8ADF8A298E3A8E88
:101330004B8E5C8E0E94A6106D8F7E8F8F8F98A330
:10134000EE85FF85309719F0C801B7010995B701FF
:10135000C801DF91CF911F910F91FF90EF90DF9027
:10136000CF90BF90AF909F908F907F906F905F9045
:101370004F903F902F900895CF93DF93EC0189A178
:10138000882321F481EA90E00E9444108C859D8599
:10139000892B21F48CE890E00E944410EC85FD85B7
:1013A0000995AB01BC01CE010E94E408DF91CF9109
:1013B0000895CF93DF93EC01CE010E94BC09FCCFCE
:1013C0001F93CF93DF93CDB7DEB728970FB6F8946E
:1013D000DEBF0FBECDBF182F83E992E00E94CB0E77
:1013E000DE011396EDE5F1E086E001900D9281506B
:1013F000E1F7FE01E10FF11D63817727685F7F4F01
:10140000AE014F5F5F4F80E090E00E94F71783E9E5
:1014100092E00E94650E89819A8128960FB6F89411
:10142000DEBF0FBECDBFDF91CF911F9108950F9307
:101430001F930E94E0098C01B801882777FD8095F1
:10144000982F0E94B62417FF06C020E030E040E845
:1014500057E40E94B32328E431EE40E851E40E94AF
:101460006A250E948824DC01CB011F910F91089509
:10147000FF920F931F93F82E03E912E0C8010E9418
:10148000CB0EFF0CEF2DFF27E050FF4E83E0808353
:10149000C8010E94650E1F910F91FF9008951F9340
:1014A000CF93DF93182FEB0183E992E00E94CB0EDC
:1014B000110F1C161D0634F4E12FFF27E050FF4EDC
:1014C00081E007C0E12FFF27209729F0E050FF4E71
:1014D00082E0808303C0E050FF4E1082E12FFF279F
:1014E000EF5FFE4EBE01D7FF03C0709561957F4F41
:1014F000608383E992E00E94650EDF91CF911F9196
:10150000089562E571E083E992E00E94B50E0895C6
:10151000EF92FF920F931F93082F38E9E32E32E0EA
:10152000F32EC7010E94CB0EA02FBB27AA0FBB1F13
:10153000EA2FE452FF27E050FF4E819100811127EE
:10154000102F00279927082B192BA45FBD4F8D91D1
:101550009C91081B190BC7010E94650EC8011F91C1
:101560000F91FF90EF9008951F93182F0E94880A03
:10157000E12FFF27EE0FFF1FE45FFD4F9183808374
:101580001F91089563E671E088E992E00E94B50E2C
:10159000089581B1992725E0969587952A95E1F7D9
:1015A0008095909581709070089581B1992734E06D
:1015B000969587953A95E1F7809590958170907012
:1015C00008950F931F93CF93DF93CDB7DEB7229784
:1015D0000FB6F894DEBF0FBECDBFAE014F5F5F4FB9
:1015E0006FE070E080E090E00E94F71709811A81B7
:1015F000B801882777FD8095982F0E94B62417FFA1
:1016000006C020E030E040E857E40E94B3232CE11C
:1016100035E441E251E40E946A250E948824DC01FD
:10162000CB0122960FB6F894DEBF0FBECDBFDF917F
:10163000CF911F910F910895CF93DF93CDB7DEB770
:1016400022970FB6F894DEBF0FBECDBFAE014F5F3D
:101650005F4F61E070E080E090E00E943916898180
:101660009A8122960FB6F894DEBF0FBECDBFDF91F0
:10167000CF910895CF92DF92EF92FF920F931F9335
:101680006C017B010E941C0BAA27BB27EC18FD08EC
:101690000894E11CF11C00271127BC01CD01A80111
:1016A00097010E94CD254AE0969587957795679595
:1016B0004A95D1F7C60ED71EC6011F910F91FF9014
:1016C000EF90DF90CF9008950D99FECF80E08A953E
:1016D000F1F70D9BFECF08950C99FECF80E08A951F
:1016E000F1F70C9BFECF08952F923F924F925F929D
:1016F0006F927F928F929F92AF92BF92CF92DF9222
:10170000EF92FF920F931F93CF93DF937B019C0186
:101710004427552760E874E88EE190E00E94FF2599
:10172000E901C90196958795969587951C014424F2
:10173000552400271127C801B7012CE231E040E011
:1017400050E00E94CD253B014C01AA24BB24650139
:1017500057C0C49ABE01882777FD8095982F0E94B4
:10176000B624D7FF06C020E030E040E857E40E94EE
:10177000B3232BEA3AEA4AE250E40E946A257B014D
:101780008C0120E030E040E85FE30E9417248823CA
:1017900014F461E010C020E030E04FE753E4C801EA
:1017A000B7010E946625181614F460E004C0C80151
:1017B000B7010E9488246A95F1F7C49820E030E0D0
:1017C00040E85FE3C801B7010E941724882314F49E
:1017D00061E010C020E030E04FE753E4C801B701FA
:1017E0000E946625181614F460E004C0C801B70111
:1017F0000E9488246A95F1F7A20CB31CC41CD51C66
:10180000A614B704C804D90408F4A3CFDF91CF917C
:101810001F910F91FF90EF90DF90CF90BF90AF900E
:101820009F908F907F906F905F904F903F902F9000
:101830000895CF92DF92EF92FF920F931F937B0157
:101840008C018DE9C82E82E0D82EC6010E94CB0EF5
:101850002091440230914502409146025091470246
:10186000C801B7010E946A2560934802709349023B
:1018700080934A0290934B02C6010E94650E1F910D
:101880000F91FF90EF90DF90CF900895CF92DF926D
:10189000EF92FF920F931F930DE912E0C8010E948F
:1018A000CB0E609148027091490280914A0290915A
:1018B0004B022091440230914502409146025091E2
:1018C00047020E941B246B017C01C8010E94650E27
:1018D000C701B6011F910F91FF90EF90DF90CF905D
:1018E00008956F927F928F929F92AF92BF92CF9204
:1018F000DF92EF92FF920F931F930E94A6105B015D
:101900006C0180917F010E94B81C7C010E94A6108E
:101910003B014C0100271127C801B7010E94B624E2
:1019200020914D0230914E0240914F025091500251
:101930000E94B2237B018C01A40193012A193B0967
:101940004C095D0957FD05C0CA01B9010E94B624C2
:1019500014C0CA01B90161707070807090705695A2
:10196000479537952795622B732B842B952B0E94D7
:10197000B6249B01AC010E94B3239B01AC01C801BA
:10198000B7010E946A257B018C018DE992E00E94DB
:10199000CB0E609148027091490280914A02909169
:1019A0004B02A80197010E94B223609348027093F2
:1019B000490280934A0290934B028DE992E00E9483
:1019C000650E0E948513640153019BCF4F925F9275
:1019D0006F927F928F929F92AF92BF92CF92DF923F
:1019E000EF92FF920F931F93CF93DF93CDB7DEB7A4
:1019F00024970FB6F894DEBF0FBECDBF09831A83BC
:101A00002B833C8380937F01409344025093450293
:101A100060934602709347020E94A6102B013C017E
:101A2000CC24DD2476010F2EF0E08F2EF0E09F2EE7
:101A3000F0E0AF2EF0E0BF2EF02D21C080917F01AD
:101A40000E94B81C8C01B801882777FD8095982FDB
:101A50000E94B62417FF06C020E030E040E857E4BB
:101A60000E94B3239B01AC01C501B4010E94B323C2
:101A70004B015C010894C11CD11CE11CF11C0E94AB
:101A8000A610641975098609970929813A814B8145
:101A90005C81621773078407950780F2F7FC05C025
:101AA000C701B6010E94B62414C0C701B601617017
:101AB000707080709070F694E794D794C7946C29F6
:101AC0007D298E299F290E94B6249B01AC010E948A
:101AD000B3239B01AC01C501B4010E941B24609398
:101AE0004D0270934E0280934F029093500280E01B
:101AF00090E0A0E0B0E08093480290934902A09368
:101B00004A02B0934B0260E771E08DE992E00E94D7
:101B1000B50E2AE731E040E060E071E081E79CE04B
:101B20000E943C1424960FB6F894DEBF0FBECDBFC2
:101B3000DF91CF911F910F91FF90EF90DF90CF90A9
:101B4000BF90AF909F908F907F906F905F904F90DD
:101B50000895809398010895CFEFD0E1DEBFCDBF07
:101B60008091510290915202892B21F08BE691E0F5
:101B70000E94441083E897E090933A0280933902E0
:101B80000E94740F80913702909138029F938F9337
:101B900081E591E09F938F930E941F1780913902F6
:101BA00090913A029F938F9389E391E09F938F9353
:101BB0000E941F178091390290913A0220913702BA
:101BC00030913802821B930B880F991F9F938F933C
:101BD00084E291E09F938F930E941F178DB79EB769
:101BE0000C960FB6F8949EBF0FBE8DBF20913702A2
:101BF000309138028091390290913A0228173907C2
:101C000020F08FE091E00E9444100E94F11A06EF4C
:101C100010E01F930F930E94CE1B1F930F930E94FF
:101C20001F1784EF90E09F938F930E941F170E94CD
:101C3000640B0E94991420E831E040E060E071E01C
:101C400086E39EE00E943C140E9492128FEE90E088
:101C50000E9444108DB79EB706960FB6F8949EBFAB
:101C60000FBE8DBF80E090E00C94B0130E947C0802
:101C700083E891E09F938F930E94CE1B0E94640B98
:101C80000E94F11A2EE831E040E060E071E08BE55F
:101C900098E00E943C140F900F9080919801882347
:101CA00019F40E948513FDCF80E69AEE0E94CE13B0
:101CB00088E791E09F938F930E94CE1B0E9498111A
:101CC0000F900F9080E090E008951F93CF93DF93E3
:101CD000EC01892B21F488EC91E00E9444101FB79D
:101CE000F8948881882321F484EB91E00E944410C9
:101CF0002B813C8180915102909152022817390723
:101D000021F08FE991E00E944410888181508883FE
:101D1000882311F41C821B828FB71078812B8FBF10
:101D2000DF91CF911F910895CF93DF93EC01892B21
:101D300021F48AED91E00E944410209151023091EB
:101D400052028B819C812817390719F080E090E0BE
:101D500009C090E08881882309F491E081E0982708
:101D6000892F9927DF91CF9108950F931F93CF93D8
:101D7000DF93EC018B01892B21F486E192E00E9434
:101D8000441018821A8309831C821B82DF91CF9131
:101D90001F910F910895CF93DF93EC01892B21F4CC
:101DA00084E092E00E94441088818F3F21F48CEE01
:101DB00091E00E9444105FB75078F8942B813C81E9
:101DC000809151029091520248812817390719F4E5
:101DD0004F5F48830AC0442361F481E08883809187
:101DE0005102909152029C838B838FB7852B8FBFBA
:101DF00006C08FB7852B8FBF0E948513DCCFDF9184
:101E0000CF9108950F931F93CF93DF93CDB7DEB794
:101E100061970FB6F894DEBF0FBECDBF8C0141E1D4
:101E200050E0BC01CE0101960E94F222198A1F9354
:101E30000F9385E292E09F938F930E941F1780E19A
:101E40000E94081B1F930F930E940B1C8FE10E949E
:101E5000081B60E070E083E00E941E1B8DB79EB7F8
:101E600006960FB6F8949EBF0FBE8DBFFFCF60E001
:101E700070E080E090E00E94F31861E672E08AE092
:101E800090E00E94A7180E940A1AE1E6F2E020E022
:101E900030E081913827032E0294902D9F70932774
:101EA000832F8025880F807E9827802D8327807F31
:101EB0008695032E000C881F3695369536953F7112
:101EC00038273227292F82E0E936F80711F740E05A
:101ED00050E08091690290916A022817390711F445
:101EE00041E050E0CA0108950E940E161F9A80E05A
:101EF0009BE40E94D41688EF91E09093170480939E
:101F0000160480E09BE49F938F9385E392E09F9378
:101F10008F930E941F178AE492E09F938F930E94F1
:101F20001F170E94471D0E94C20A0E949C160E9411
:101F3000810A0E94B11C0E94271C8FE092E09093BE
:101F40001504809314040E9468160E9411150E94C3
:101F5000370F2DB73EB72A5F3F4F0FB6F8943EBFFD
:101F60000FBE2DBF882321F48BED92E00E94020F5B
:101F70008FE892E09F938F930E941F1780916102D8
:101F8000909162029C0130703F932F93892F992783
:101F90009F938F9384E692E09F938F930E941F17E5
:101FA00080916302909164029F938F938FE792E0F8
:101FB0009F938F930E941F178091610290916202FC
:101FC0009C0130703F932F93892F99279F938F9374
:101FD00089E991E09F938F930E940B1C0E94E10A74
:101FE0002DB73EB72E5E3F4F0FB6F8943EBF0FBEE3
:101FF0002DBF8C549D4120F48FEC92E00E94020F83
:102000000E94E10A9F938F9381EA92E09F938F93BE
:102010000E941F17609167027091680280E091E052
:102020000E9478170F900F900F900F90882321F443
:1020300082EC92E00E94020F8091FF112091FE112C
:1020400099279F938F9333273F932F9384EB92E0AD
:102050009F938F930E941F178FE10E94081B60E0DF
:1020600070E081E00E941E1B1E9864EC79E082EC17
:1020700091E00E94740B8DB79EB706960FB6F89448
:102080009EBF0FBE8DBF0895CF93DF93CDB7DEB750
:102090006A970FB6F894DEBF0FBECDBFBC01F894AF
:1020A000892B41F04AE150E0CE0101960E94F222D4
:1020B0001A8E01C019821092FF031092030410922D
:1020C0000204CE0101969F938F9386EE92E09F9338
:1020D0008F930E94CE1B0E9498110F900F900F902B
:1020E0000F906A960FB6F894DEBF0FBECDBFDF919A
:1020F000CF910895CF93DF93EC01F8941092FF03F2
:1021000010920304109202040E94F11A209711F415
:10211000CDEBD1E0DF93CF9381EF92E09F938F934C
:102120000E94CE1B0E9498110F900F900F900F905D
:10213000DF91CF91089583E085BD83E884BD86B7A4
:10214000806486BF87B7806487BF08952FB7F894EF
:102150006091530270915402809155029091560201
:102160003FB72078322B3FBF08953FB7F894609176
:1021700053027091540280915502909156022FB7EC
:102180003078232B2FBF28EE33E040E050E00E9450
:10219000CD2508959C01F894ECEEF2E041E08081B9
:1021A000833031F4828593858217930709F4408345
:1021B000BC9683E0E43FF80791F778940895772779
:1021C0008CE291E0689F9001699F300D789F300DFF
:1021D000112487EB9FE0821B930B0895FF920F93CE
:1021E0001F93CF93DF93FFB6F89483E493E09F931C
:1021F0008F930E941F1700E010E0C0ECD2E00F9018
:102200000F902881222369F41F930F9385E293E0B6
:102210009F938F930E941F170F900F900F900F9016
:1022200020C08A819B81AC81BD81BF93AF939F9376
:102230008F93822F99279F938F938C859D859F9352
:102240008F931F930F938CEF92E09F938F930E9435
:102250001F178DB79EB70C960FB6F8949EBF0FBE92
:102260008DBF0F5F1F4FAC960730110551F68FB72A
:1022700090E8F9228F298FBFDF91CF911F910F91A5
:10228000FF9008950F931F938C0187EA93E09F932B
:102290008F930E941F1783E993E09F938F930E946F
:1022A0001F17F80180899189AA27BB27BF93AF9395
:1022B0009F938F9385E893E09F938F930E941F17BE
:1022C000F80182899389AA27BB27BF93AF939F9375
:1022D0008F9387E793E09F938F930E941F17F801D6
:1022E00084899927AA27BB27BF93AF939F938F9386
:1022F00089E693E09F938F930E941F17F8018589C9
:102300009689AA27BB27BF93AF939F938F938BE5A3
:1023100093E09F938F930E941F178DB79EB74C96A3
:102320000FB6F8949EBF0FBE8DBF1F910F910895F9
:10233000CF93DF93F8941092930210929702109229
:102340009602C0E0D0E08C2F0E94380A2196C63059
:10235000D105C9F7FFCF0F931F93CF93DF93EC0104
:1023600000EC12E08091C002813009F44BC08FEA8A
:1023700094E09F938F930E941F1780915302909136
:102380005402A0915502B0915602BF93AF939F9310
:102390008F9387EA94E09F938F930E941F170E51AB
:1023A00010401F930F93025E1F4F85E994E09F93A7
:1023B0008F930E941F171F930F9389E794E09F93B9
:1023C0008F930E941F178091390290913A029F9338
:1023D0008F9380913702909138029F938F9383E679
:1023E00094E09F938F930E941F178BE594E00E94C7
:1023F00044104DB75EB74A5E5F4F0FB6F8945EBFAC
:102400000FBE4DBF8D8D99272CE231E0A901849F2D
:102410009001859F300D949F300D112487EB9FE034
:10242000821B930B2A893B898217930720F482E54C
:1024300094E00E944410898D9A8D2A893B89821BE1
:10244000930B2B8D3C8D2817390708F04CC081E485
:1024500094E09F938F930E941F178A899B899F9373
:102460008F938D8D99279F938F938AA59BA59F937B
:102470008F9387E294E09F938F930E941F17CE0162
:102480000E9442118D899E899F938F938DE194E0E4
:102490009F938F930E941F17898D9A8D9F938F937F
:1024A0008FE094E09F938F930E941F17898D9A8DE0
:1024B0009F938F932B8D3C8D821B930B01969F9343
:1024C0008F9385EF93E09F938F930E941F1786EE63
:1024D00093E00E9444108DB79EB748960FB6F894CB
:1024E0009EBF0FBE8DBFDF91CF911F910F910895B9
:1024F00090935202809351020E94AB11E0915102DD
:10250000F091520280A191A1A2A1B3A10196A11DB7
:10251000B11D80A391A3A2A3B3A361E070E0CF019A
:102520000E94D122AF92BF92CF92DF92EF92FF92A0
:102530000F931F93CF93DF93E0915102F0915202DA
:10254000309719F4AA24BB2403C0858DA82EBB2480
:1025500081E0C82ED12C75010894E11CF11CC70143
:1025600067E070E00E94EC258C01892B09F455C0CE
:102570008CE290E0089FE001099FD00D189FD00DDC
:102580001124CE55DD4F8E8D8430B1F4209153024D
:102590003091540240915502509156028CA19DA158
:1025A000AEA1BFA1281739074A075B0750F081E0A9
:1025B0008E8FCE010E9478128E8D813011F4CE0163
:1025C0002AC06CE270E0A69EF001A79EF00DB69EB8
:1025D000F00D1124EE55FD4F868D8430F1F42091DD
:1025E000530230915402409155025091560284A1F9
:1025F00095A1A6A1B7A1281739074A075B0768F07C
:1026000081E0868F069FC001079F900D169F900D59
:1026100011248E559D4F0E9478120894C11CD11C24
:102620000894E11CF11C88E0C816D10409F097CF8A
:102630008091C002813021F482EA92E00E947812F7
:10264000F89400E010E0C0ECD2E08881882369F4BF
:102650001F930F9381E295E09F938F930E941F1722
:102660000F900F900F900F9022C099279F938F93F8
:102670008C859D859F938F931F930F9380E095E0AA
:102680009F938F930E941F178DB79EB708960FB622
:10269000F8949EBF0FBE8DBF8881813041F48EECCF
:1026A00094E09F938F930E941F170F900F900F5FDE
:1026B0001F4FAC960730110541F685EC94E00E945F
:1026C0004410DF91CF911F910F91FF90EF90DF9019
:1026D000CF90BF90AF900895809151029091520297
:1026E000892B21F484ED93E00E94441080915102E3
:1026F000909152020E94B122892B31F461E070E086
:1027000086ED93E00E94D1220895F8941F920F92D3
:102710002F933F934F935F936F937F938F939F93E9
:10272000AF93BF93EF93FF93809151029091520228
:10273000892B21F48EEC93E00E9444100E946C13CC
:10274000FF91EF91BF91AF919F918F917F916F9189
:102750005F914F913F912F910F901F907894089522
:102760000E948513FDCFCF93DF93EC01F894809105
:10277000510290915202892B21F488EC93E00E943F
:102780004410E0915102F0915202D1A7C0A783E01A
:10279000868F0E948513DF91CF910895EF92FF926B
:1027A0000F931F938C010FB607FC37C0B801882721
:1027B00077FD8095982F0E94B62417FF06C020E071
:1027C00030E040E857E40E94B32320E030E04AEFD5
:1027D00054E40E946A257B018C0120E030E040E84F
:1027E0005FE30E94172488231CF481E090E012C06C
:1027F00020E03FEF4FE757E4C801B7010E9466258C
:1028000018161CF480E090E005C0C801B7010E94D2
:102810008824CB010197F1F720C0F894E091510290
:10282000F091520284E0868F80915302909154027D
:10283000A0915502B0915602E0915102F0915202DE
:10284000980144275527820F931FA41FB51F84A307
:1028500095A3A6A3B7A30E9485131F910F91FF9084
:10286000EF9008950E94EE1088EB9BE00E94CE133B
:10287000F9CF0E948513FDCF0F931F93CF93DF9362
:102880008C016FB7F89440E050E0E0ECF2E080811A
:10289000882359F04F5F5F4FBC9647305105B9F719
:1028A00089EB93E00E944410FFCF8CE290E0489FB8
:1028B000D001499FB00D589FB00D1124AE55BD4FAA
:1028C00081E0ED018E8F3BA72AA7FD0110A211A286
:1028D00012A213A22CE231E0348F238F89E11992E6
:1028E0008A95E9F7842F9927F9018E9F90018F9F90
:1028F000300D9E9F300D1124E7EBFFE0E21BF30B40
:1029000020EB33E120833197232F33272083319726
:10291000ED01FB8BEA8B1E8B0D8B2C8920682C8B99
:102920002FB76078262B2FBFDF91CF911F910F918A
:102930000895EF92FF920F931F93CF93DF9302EAD4
:1029400012E01F930F9388E795E09F938F930E9467
:102950001F1786ED93E09F938F9380E695E09F93FA
:102960008F930E941F17E801EE24FF2407EB1FE05E
:102970008DB79EB708960FB6F8949EBF0FBE8DBF59
:10298000ED8E1E8EC8011A8F098F18A219A21AA2E5
:102990001BA20C5211401F930F939F938F93FF9292
:1029A000EF9289E495E09F938F930E941F170894FC
:1029B000E11CF11CAC968DB79EB708960FB6F89443
:1029C0009EBF0FBE8DBF97E0E916F104C9F62EEB4E
:1029D00031E040E060E071E089E394E10E943C1462
:1029E0008091C002882321F48FE395E00E94441077
:1029F00086ED93E00E94B1228FEF90E19093E9037E
:102A00008093E80382E992E19093EC038093EB03D7
:102A10000E949B10DF91CF911F910F91FF90EF903B
:102A2000089508951F920F920FB60F9211242F93BD
:102A30003F934F935F936F937F938F939F93AF9346
:102A4000BF93EF93FF9383EC91E00E944410FF91BA
:102A5000EF91BF91AF919F918F917F916F915F9116
:102A60004F913F912F910F900FBE0F901F9018958F
:102A70001F920F920FB60F9211242F933F934F93F3
:102A80005F936F937F938F939F93AF93BF93EF93D6
:102A9000FF9383E884BD8091530290915402A091EA
:102AA0005502B09156020196A11DB11D80935302AB
:102AB00090935402A0935502B09356020E946C1357
:102AC000FF91EF91BF91AF919F918F917F916F9106
:102AD0005F914F913F912F910F900FBE0F901F90DC
:102AE0001895CF92DF92EF92FF920F931F93CF939F
:102AF000DF93CDB7DEB722970FB6F894DEBF0FBED7
:102B0000CDBF8E01035F1F4FF801E190F1908F015F
:102B10008FEFC82E83E0D82EC6010E94CB0E1A83F9
:102B20000983A801B7018FE092E00E944E1D8C013D
:102B3000C6010E94650EC80122960FB6F894DEBF4A
:102B40000FBECDBFDF91CF911F910F91FF90EF90FE
:102B5000DF90CF900895FF920F931F93CF93DF9351
:102B60008C01F62E8BEB95E09F938F930E941F179D
:102B700085EA95E09F938F930E941F17E80100E07C
:102B800010E00F900F900F900F9019C08881992737
:102B90009F938F93DF93CF931F930F9382E995E0D9
:102BA0009F938F930E941F170F5F1F4F21968DB722
:102BB0009EB708960FB6F8949EBF0FBE8DBF8F2D9F
:102BC00099270817190714F3DF91CF911F910F91DF
:102BD000FF900895CF93DF93EC01892BD1F00E94F1
:102BE000F11ADF93CF9385ED91E09F938F930E942D
:102BF0000B1CDF93CF9388ED91E09F938F930E94FE
:102C00005C178DB79EB708960FB6F8949EBF0FBE9F
:102C10008DBF0E94640BDF91CF91089585B78068C6
:102C200085BFECE6F0E080818F778083EDE6F0E011
:102C300080818D7F808385B78F7B85BF83EF87BB46
:102C4000C69A8CEF81BB8EEC82B983B1806383B965
:102C50008DE08093610010926400E2E6F0E08081F4
:102C6000846080831A9AC09A8081816080831B9AD5
:102C70000895EF92FF920F931F93CF93DF938C01F0
:102C80007B01EA018FEE93E00E94CB0E07950027AF
:102C9000079500640E2907B987ED86B9349BFECFEE
:102CA000349A24B185B133279927982F8827282B68
:102CB000392B398328838FEE93E00E94650E80E0E4
:102CC00090E0DF91CF911F910F91FF90EF900895C9
:102CD0006CED71E08FEE93E00E94B50E08959C01BB
:102CE000369527956065622B6DB980FF02C0709A9A
:102CF00001C0709887B3876087BB0895AC0120E05E
:102D00000AC0FA01E20FF11D80818FB9779BFECFD7
:102D10008FB180832F5F2617A1F780E090E00895A0
:102D200084EF93E00E94650E089584EF93E00E9483
:102D3000CB0E80E090E0089565EE71E084EF93E0C3
:102D40000E94B50E08951E9A5D9BFECF8CB91E9809
:102D5000992787FD909508951F93182F8A3019F4AD
:102D60008DE00E94AC16812F0E94A3161F9108953A
:102D7000CF93DF93EC0103C021960E94A3168881B4
:102D80008823D1F7DF91CF9108951E9A5F9BFECFE4
:102D90001E988CB1992787FD909508958BB1807806
:102DA000992787FD909508959C014427552794E025
:102DB000220F331F441F551F9A95D1F760E072E12F
:102DC0008AE790E00E94FF25822F815089B9215027
:102DD000304040405040232F342F452F552720931B
:102DE00090001BB886E08093950088E18AB96EEE6A
:102DF00071E089EF93E00E94B50E0895CF92DF92C3
:102E0000EF92FF920F931F936C018B0129EFE22E3B
:102E100023E0F22EC7010E94CB0EA801B60188EF75
:102E200091E00E9443238C01C7010E94650EC801F6
:102E30001F910F91FF90EF90DF90CF900895CF9367
:102E4000DF93CDB7DEB722970FB6F894DEBF0FBE83
:102E5000CDBFFE01379681919191FA83E983BF013D
:102E60000E94FE1622960FB6F894DEBF0FBECDBFAD
:102E7000DF91CF910895CF92DF92EF92FF920F935F
:102E80001F936C018B0139EFE32E33E0F32EC70162
:102E90000E94CB0EA801B60188EF91E00E944E1D62
:102EA0008C01C7010E94650EC8011F910F91FF9010
:102EB000EF90DF90CF900895CF93DF93CDB7DEB73B
:102EC00022970FB6F894DEBF0FBECDBFFE01379636
:102ED00081919191FA83E983BF010E943B17229669
:102EE0000FB6F894DEBF0FBECDBFDF91CF9108952E
:102EF000DF92EF92FF920F931F93CF93DF93CDB7A3
:102F0000DEB728970FB6F894DEBF0FBECDBF8C0199
:102F10007B01B801882799270E94F3188F3FC9F3D6
:102F2000C69880E08A95F1F7C69A00E010E041C0AB
:102F30000E947918682F0F5F1F4F807C803C19F02A
:102F400041E0D42E08C03FE3D32ED6220E94791848
:102F5000682F0F5F1F4F40E050E0A1E0B0E0FE019E
:102F6000319627E030E0CD01022E02C0880F991F74
:102F70000A94E2F7862381934F5F5F4F21503040E0
:102F80004830510581F790E012C0FE0131969E0154
:102F9000275F3F4F8081882311F0C59A01C0C598F3
:102FA000C79AC7983196E217F307A1F79F5F9D155F
:102FB00061F70E151F0508F4BBCF0E940A1A809115
:102FC0006300992723E0969587952A95E1F781700C
:102FD000907028960FB6F894DEBF0FBECDBFDF917C
:102FE000CF911F910F91FF90EF90DF900895CF92B6
:102FF000DF92EF92FF920F931F93CF93DF93CDB7A2
:10300000DEB723970FB6F894DEBF0FBECDBF8C019D
:103010007B016A010E9495168F3F19F48FEF9FEF95
:1030200059C08E2D880F880F8064898360E082E00C
:1030300090E00E946F160130110571F0013011050A
:1030400020F002301105D1F40EC01A9863E0CE01D1
:1030500001960E947E1621C0C09863E0CE010196C1
:103060000E947E161CC0809162008E7F8093620059
:1030700063E0CE0101960E947E1613C063E0CE018C
:1030800001960E947E160130110549F001301105AC
:1030900020F00230110551F404C01A9A07C0C09AFA
:1030A00005C0809162008160809362008A819927C7
:1030B000982F88272B813327822B932B26E09695F8
:1030C00087952A95E1F7F601918380830E949016F7
:1030D00080E090E023960FB6F894DEBF0FBECDBF20
:1030E000DF91CF911F910F91FF90EF90DF90CF90E4
:1030F00008951F93CF93DF93CDB7DEB722970FB616
:10310000F894DEBF0FBECDBF61E0CE0101960E94F4
:103110007E168091FE038F3F49F410E061E0CE01FE
:1031200002960E947E161F5F1830C1F78091FE0341
:103130008F5F8093FE038981992722960FB6F894BA
:10314000DEBF0FBECDBFDF91CF911F910895EF92EB
:10315000FF920F931F93CF93DF937C01C0E0D0E0E9
:103160008B0106C00E947918F80181938F01219686
:10317000CE15DF05B9F780E090E0DF91CF911F9188
:103180000F91FF90EF900895CF93DF93CDB7DEB707
:1031900021970FB6F894DEBF0FBECDBF87ED8983B0
:1031A000809162008B7F8093620061E0CE01019686
:1031B0000E947E1661E0CE0101960E947E168981F2
:1031C00087FFF8CF8091620084608093620082E084
:1031D0008A95F1F721960FB6F894DEBF0FBECDBFEA
:1031E000DF91CF910895EF92FF920F931F93CF93AA
:1031F000DF93CDB7DEB724970FB6F894DEBF0FBECE
:10320000CDBF7B018C010E9495168F3F19F48FEF83
:103210009FEF2EC060E081E090E00E946F1688EE84
:103220008983D801C7012FE0B695A7959795879513
:103230002A95D1F78A83BB27A12F902F8F2D880F36
:103240008B83E092FE03EC820E94C418809162009E
:103250008B7F8093620064E08E010F5F1F4FC80177
:103260000E947E1664E0C8010E947E1680E090E015
:1032700024960FB6F894DEBF0FBECDBFDF91CF917D
:103280001F910F91FF90EF9008958F929F92AF92B0
:10329000BF92CF92DF92EF92FF920F931F93CF9343
:1032A000DF93CDB7DEB724970FB6F894DEBF0FBE1D
:1032B000CDBF6B017C014A0159010E9495168F3FD9
:1032C00019F42FEF3FEF3EC060E081E090E00E94F4
:1032D0006F1684E889831A821B82CC8280916200F7
:1032E0008B7F8093620064E0CE0101960E947E167F
:1032F0002C2D3327C9018A0D9B1D8150914028F048
:10330000A12C41E0B42EA21AB30A00E010E074012F
:103310000BC0F70181917F01898361E0CE010196A5
:103320000E947E160F5F1F4F0A151B0591F78091B3
:10333000620084608093620082E08A95F1F70E94C7
:1033400090169501C90124960FB6F894DEBF0FBE02
:10335000CDBFDF91CF911F910F91FF90EF90DF9044
:10336000CF90BF90AF909F908F900895EF92FF9273
:103370000F931F93CF93DF93CDB7DEB724970FB68C
:10338000F894DEBF0FBECDBF7B018C010E94951665
:103390008F3F19F48FEF9FEF30C060E081E090E045
:1033A0000E946F1683E58983D801C7016FE0B69547
:1033B000A795979587956A95D1F78A83BB27A12F03
:1033C000902F8F2D880F8B831C820E94C4188091B0
:1033D00062008B7F8093620064E0CE0101960E94C0
:1033E0007E168091620084608093620082E08A95FC
:1033F000F1F70E94901680E090E024960FB6F894C2
:10340000DEBF0FBECDBFDF91CF911F910F91FF9017
:10341000EF900895E2E6F0E080818460808382E0AE
:103420008A95F1F70E94901608950F931F93CF93FA
:10343000DF93CDB7DEB722970FB6F894DEBF0FBE8D
:10344000CDBF8C0187ED89831A820E9495168F3F2C
:1034500019F48FEF9FEF1EC060E081E090E00E94C2
:103460006F16809162008B7F8093620062E0CE01D4
:1034700001960E947E1680916200846080936200B3
:1034800082E08A95F1F70E9490168A81F801808384
:1034900080E090E022960FB6F894DEBF0FBECDBF5D
:1034A000DF91CF911F910F910895EF92FF920F93AB
:1034B0001F93CF93DF93CDB7DEB724970FB6F89461
:1034C000DEBF0FBECDBF7B018C010E9495168F3FE2
:1034D00019F48FEF9FEF30C060E081E090E00E9430
:1034E0006F1683E88983D801C701EFE0B695A795E9
:1034F00097958795EA95D1F78A83BB27A12F902FBF
:103500008F2D880F8B831C820E94C41880916200CB
:103510008B7F8093620064E0CE0101960E947E164C
:103520008091620084608093620082E08A95F1F766
:103530000E94901680E090E024960FB6F894DEBFCB
:103540000FBECDBFDF91CF911F910F91FF90EF90F4
:10355000089580915702992708950F931F93082F7C
:10356000162F8FEF93E00E94CB0E812F82958F70E4
:10357000002329F0979A880F880F806C04C09798D1
:10358000880F880F806482BB80ED97E0FC01319743
:10359000F1F796980197F1F7612F7727002349F00B
:1035A0006F707070660F771F660F771F862F806CA5
:1035B00008C06F707070660F771F660F771F862FB9
:1035C000806482BB80ED97E0FC013197F1F796981B
:1035D0000197F1F78FEF93E00E94650E1F910F9115
:1035E00008950F931F930FEF13E0C8010E94CB0EB5
:1035F00061E080E00E94AD1A62E080E00E94AD1AB6
:1036000010925702C8010E94650E1F910F910895F4
:103610001F93182F8FEF93E00E94CB0E1093570249
:10362000103108F0105D1068612F80E00E94AD1A23
:103630008FEF93E00E94650E1F9108951F93182F3E
:103640008FEF93E00E94CB0E80915802882339F0CF
:103650000E94F11A80E00E94081B109258021A3052
:1036600031F481E0809358021092570211C0612F0B
:1036700081E00E94AD1A809157028F3021F460ECF6
:1036800080E00E94AD1A809157028F5F80935702AD
:103690008FEF93E00E94650E812F992787FD90950B
:1036A0001F9108950F931F93CF93DF93EC018FEF3A
:1036B00093E00E94CB0E00E010E01AC021966A3021
:1036C00039F460E880E00E94AD1A1092570203C0FE
:1036D00081E00E94AD1A0F3021F460EC80E00E947E
:1036E000AD1A809157028F5F809357020F5F1F4F73
:1036F0006881662319F78FEF93E00E94650EDF91D2
:10370000CF911F910F910895FF920F931F93CF9325
:10371000DF93F82E8B018FEF93E00E94CB0EFF0C0E
:10372000FF0CFF0CE80100E06F2D600F606480E08B
:103730000E94AD1AFE01649181E00E94AD1A0F5FF4
:103740002196083089F78FEF93E00E94650EDF9194
:10375000CF911F910F91FF900895CF92DF92EF923A
:10376000FF920F931F936C018B012FEFE22E23E04A
:10377000F22EC7010E94CB0EA801B6018FE092E0A5
:103780000E9443238C01C7010E94650EC8011F914E
:103790000F91FF90EF90DF90CF900895CF93DF933C
:1037A000CDB7DEB722970FB6F894DEBF0FBECDBF00
:1037B000FE01379681919191FA83E983BF010E94BE
:1037C000AD1B22960FB6F894DEBF0FBECDBFDF91C2
:1037D000CF910895CF92DF92EF92FF920F931F93B4
:1037E0006C018B013FEFE32E33E0F32EC7010E9403
:1037F000CB0EA801B6018FE092E00E944E1D8C0115
:10380000C7010E94650EC8011F910F91FF90EF90B4
:10381000DF90CF900895CF93DF93CDB7DEB7229797
:103820000FB6F894DEBF0FBECDBFFE013796819173
:103830009191FA83E983BF010E94EA1B22960FB699
:10384000F894DEBF0FBECDBFDF91CF91089580E029
:1038500090E00197F1F763E380E00E94AD1A62E324
:1038600080E00E94AD1A61ED75E081E00E94841B4A
:1038700069ED75E082E00E94841B61EE75E083E0F3
:103880000E94841B69EE75E084E00E94841B61EF56
:1038900075E085E00E94841B69EF75E086E00E9478
:1038A000841B61E080E00E94AD1A62E080E00E942B
:1038B000AD1A66E080E00E94AD1A6CE080E00E94E4
:1038C000AD1A66E072E08FEF93E00E94B50E0895A6
:1038D0000895CF92DF92EF92FF920F931F93082FDC
:1038E0007B0194E0C92E94E0D92EC6010E94CB0E34
:1038F000000F005E112700501F4EF801E192EF2CDF
:10390000FF24E082C6010E94650E1F910F91FF9077
:10391000EF90DF90CF900895FF920F931F93F82EB2
:103920008B01B801882777FD8095982F0E94B624D7
:1039300017FF06C020E030E040E857E40E94B323C0
:1039400021E632EC44E85FE30E946A250E94882465
:103950006F5B7F4F8F2D0E94691C1F910F91FF900D
:1039600008956DE172E084E094E00E94B50E089540
:103970001F93CF93DF93CDB7DEB722970FB6F8949E
:10398000DEBF0FBECDBF182F8850883038F014C06E
:103990008AE196E00E9444100E94851367E170E07E
:1039A000611B7109AE014F5F5F4F81E090E00E94A3
:1039B000F717882369F71DC0812F8051883038F0B0
:1039C00014C08DE096E00E9444100E9485136FE1C0
:1039D00070E0611B7109AE014F5F5F4F82E090E0C4
:1039E0000E94F717882369F704C081E096E00E94DF
:1039F000441089819A8122960FB6F894DEBF0FBEDB
:103A0000CDBFDF91CF911F910895EF92FF921F9349
:103A100089E0E82E84E0F82EC7010E94CB0E1091B9
:103A20001E11C7010E94650E1095812F99271F91C5
:103A3000FF90EF9008951F93182F8830A8F489E025
:103A400094E00E94CB0E80911E119927809590954D
:103A500002C0959587951A95E2F7182F117089E0A5
:103A600094E00E94650E0FC0883140F40E94B81C9B
:103A700010E08150924038F011E005C087E296E0F6
:103A80000E94441010E0812F99271F91089568E249
:103A900072E089E094E00E94B50E0895A1E1B0E0E3
:103AA000E4E5FDE10C9421263C017F876E876A01E5
:103AB000FC0117821682838181FD03C06FEF7FEFC7
:103AC00071C39E012F5F3F4F398B288BF3012381F8
:103AD000EE85FF8523FD859123FF8191FF87EE878A
:103AE000882309F45CC3853251F4EE85FF8523FDFC
:103AF000859123FF8191FF87EE87853229F490E03D
:103B0000B3010E941723E2CF982F10E08824992454
:103B10001032B0F49B3269F09C3228F4903251F0AC
:103B2000933271F40BC09D3239F0903349F4116037
:103B300028C01260146025C0186023C0106121C025
:103B400017FD2AC0892F80538A3078F416FF06C0EB
:103B5000FAE09F9E902C1124980E13C03AE0839EA9
:103B6000802C1124880E10620CC09E3221F416FDA8
:103B700016C3106406C09C3611F4106802C0983653
:103B800059F4EE85FF8523FD959123FF9191FF87E1
:103B9000EE87992309F0BCCF892F8554833020F418
:103BA000812F8061905E07C0892F8556833008F091
:103BB000A1C1812F8F7E86FD02C076E0972E6FE334
:103BC000F62EF822953619F4F0E4FF2A07C096364F
:103BD00019F420E8F22A02C091109A94F7FE0BC063
:103BE0003BE3391520F427E05CE3B52E0EC0B92C79
:103BF000B39427E00AC047E0491528F427E0BB2426
:103C000047E0942E02C0292DBB24C60104969D874F
:103C10008C87F6016081718182819381AE014F5F53
:103C20005F4F0B2D0E94D9216C010981202E332476
:103C300000FF04C003FD02C01DE209C0F1FE02C086
:103C40001BE205C0F2FC02C010E001C010E2C1019D
:103C50008C709070892BB9F1112311F483E001C0AD
:103C600084E0881510F088240AC0881AF3FC07C085
:103C700080E290E0B3010E9417238A94C9F71123D0
:103C800029F0812F90E0B3010E94172323FE03C087
:103C900004E316E00EC008E316E00BC0E114F104E3
:103CA00009F0805290E0B3010E9417230F5F1F4F6D
:103CB00005C0EF2CFF24F0E1EF22FF24F8018491EE
:103CC000882361F714C1F7FE12C0BC0C24FE04C0A7
:103CD0008A81813309F4BA941B141CF0BB24B39479
:103CE0002DC0F8E0FB1550F538E0B32E27C0F6FCE8
:103CF00025C0892D90E08C159D054CF02CEFC21647
:103D00002FEFD20624F030E8F32A01C09A949920CC
:103D100049F0E2E0F0E0EC0FFD1FE90DF11D8081BC
:103D20008033A1F3F7FE0AC0B92CB394892D90E03B
:103D3000C816D90614F0992401C09C18F7FC03C0DA
:103D400025E030E009C01C141D041CF021E030E027
:103D500003C096012F5F3F4F112311F02F5F3F4F9C
:103D6000992029F0892D90E00196280F391F882D80
:103D700090E02817390714F0882401C0821A4F2CCC
:103D80005524C20189709070892B39F008C080E2F7
:103D900090E0B3010E9417238A948820C1F7112371
:103DA00029F0812F90E0B3010E94172343FE07C042
:103DB00008C080E390E0B3010E9417238A94882012
:103DC000C1F7F7FE46C08601D7FE02C000E010E052
:103DD00076010894E11CF11CE01AF10A41E050E080
:103DE0004C0F5D1FE40EF51E26014B185108892D5E
:103DF00090E0AA24BB24A81AB90A5FEF0F3F150769
:103E000029F48EE290E0B3010E941723C016D10678
:103E100034F0401651061CF4F701808101C080E3A4
:103E2000015010400894E11CF11C0A151B052CF0F0
:103E300090E0B3010E941723E0CF0C151D0539F463
:103E40009A81963318F4953311F424FE81E390E0BF
:103E50004BC08A81813309F00F7E90E0B3010E944C
:103E600017239920A1F08EE290E0B3010E9417235E
:103E700012E0E1E0F0E0EC0FFD1FE10FF11D1F5F2C
:103E8000808190E0B3010E9417239A9491F744FC3B
:103E900003C085E690E002C085E490E0B3010E9493
:103EA0001723D7FC05C0C114D10441F404FF06C098
:103EB000D094C194D108D3948DE201C08BE290E0FC
:103EC000B3010E94172380E305C08F5F26EF3FEF09
:103ED000C20ED31E3AE0C316D104BCF790E0B30182
:103EE0000E941723C601C096B3010E941723CC84F9
:103EF000DD8452C1933631F0933799F0933509F050
:103F000059C023C0F601808189835E010894A11CF9
:103F1000B11C22E030E0C20ED31E21E0E22EF12CD3
:103F200012C0F601A080B18016FD03C06FEF7FEFD5
:103F300002C0692D70E022E030E0C20ED31EC50140
:103F40000E940C237C011F7713C0F601A080B18072
:103F500016FD03C06FEF7FEF02C0692D70E022E015
:103F600030E0C20ED31EC5010E9401237C011068FF
:103F700013FF07C01BC080E290E0B3010E9417232B
:103F80008A94882D90E0E816F906A8F30FC0F50191
:103F900017FD859117FF81915F0190E0B3010E94A9
:103FA000172381108A940894E108F108E114F104C0
:103FB00071F7F2C0943611F0993689F517FF08C0F1
:103FC000F601208131814281538184E090E00AC072
:103FD000F601808191819C01442737FD4095542F43
:103FE00082E090E0C80ED91E9FE6F92EF12257FF1D
:103FF00009C050954095309521953F4F4F4F5F4FE9
:1040000090E8F92ACA01B901AE014F5F5F4F2AE07B
:1040100030E00E945423E82EE889EE1A41C095371B
:1040200021F41F7E2AE030E01CC0197F9F3661F02A
:10403000903720F4983509F0B2C00FC0903739F0AE
:10404000983709F0ACC004C028E030E00AC0106125
:1040500014FD146020E130E004C014FD166020E17E
:1040600032E017FF08C0F60160817181828193817F
:1040700044E050E008C0F60180819181BC0180E0FD
:1040800090E042E050E0C40ED51EAE014F5F5F4F9E
:104090000E945423E82E5889E51A8FE7F82EF12262
:1040A000F6FE0BC08EEFF822E91438F4F4FE07C0D8
:1040B000F2FC05C09FEEF92202C01E2D01C0192D91
:1040C000F4FE0DC0FE01EE0DF11D8081803319F468
:1040D000E9EEFE2208C01F5FF2FE05C003C08F2D6F
:1040E000867809F01F5F0F2DF3FC14C0F0FE0FC09F
:1040F000181510F09E2C0BC09E2C980C911A182DA0
:1041000006C080E290E0B3010E9417231F5F1815DC
:10411000C0F304C0181510F4811A01C0882404FFEC
:104120000FC080E390E0B3010E94172302FF1DC07F
:1041300001FD03C088E790E00EC088E590E00BC069
:10414000802F867891F001FF02C08BE201C080E2EF
:10415000F7FC8DE290E0B3010E94172306C080E3D4
:1041600090E0B3010E9417239A94E914C0F3EA94F3
:10417000E1E0F0E0EC0FFD1FEE0DF11D808190E01D
:10418000B3010E941723EE2091F706C080E290E071
:10419000B3010E9417238A948820C1F797CCF301BA
:1041A00066817781CB016196E2E10C943D26CF9345
:1041B000DF93BC018230910510F462E070E0A091C1
:1041C0001004B0911104ED01E0E0F0E040E050E0B7
:1041D00021C0888199818617970769F48A819B811C
:1041E000309719F09383828304C0909311048093D5
:1041F0001004FE0134C06817790738F441155105E1
:1042000019F08417950708F4AC01FE018A819B819F
:104210009C01E9012097E9F641155105A9F1CA0170
:10422000861B970B049708F4BA01E0E0F0E02AC07F
:104230008D919C91119784179507F9F46417750770
:1042400081F412968D919C911397309719F0938376
:10425000828304C09093110480931004FD01329670
:104260004CC0CA01861B970BFD01E80FF91F619333
:10427000719302978D939C9340C0FD01828193813D
:104280009C01D9011097A1F680910E0490910F0422
:10429000892B41F4809137029091380290930F045A
:1042A00080930E044091390250913A024115510514
:1042B00041F44DB75EB78091350290913602481BAC
:1042C000590B20910E0430910F04CA01821B930BED
:1042D0008617970780F0AB014E5F5F4F84179507F5
:1042E00050F0420F531F50930F0440930E04F901F6
:1042F0006193719302C0E0E0F0E0CF01DF91CF91D4
:104300000895CF93DF93009709F450C0EC012297F2
:104310001B821A82A0911004B0911104109709F128
:1043200040E050E0AC17BD0708F1BB83AA83FE0153
:1043300021913191E20FF31FAE17BF0779F48D91F0
:104340009C911197280F391F2E5F3F4F3983288387
:1043500012968D919C9113979B838A8341155105E9
:1043600071F4D0931104C093100420C012968D9163
:104370009C911397AD01009711F0DC01D3CFFA01A6
:10438000D383C28321913191E20FF31FCE17DF0750
:1043900069F488819981280F391F2E5F3F4FFA01F8
:1043A000318320838A819B8193838283DF91CF91A4
:1043B0000895283008F027E03327DA01990F311DDE
:1043C00087FD916000966105710539F432602E5FBA
:1043D0003D9330E32A95E1F708959F3F30F0803810
:1043E0007105610509F03C5F3C5F3D93913008F039
:1043F0008068911DDF93CF931F930F93FF92EF92ED
:10440000192F987F9695E92F96959695E90FFF2796
:10441000EA56F94F99273327EE24FF24A701E70135
:1044200005900894079428F4360FE71EF81E491FDC
:10443000511D660F771F881F991F0694A1F70590DD
:10444000079428F4E70EF81E491F561FC11D770F69
:10445000881F991F661F0694A1F70590079428F4FA
:10446000F80E491F561FC71FD11D880F991F661FC1
:10447000771F0694A1F70590079420F4490F561F63
:10448000C71FD81F990F661F771F881F0694A9F7AB
:1044900084911095177041F0D695C795579547951B
:1044A000F794E7941A95C1F7ECE3F6E06894159059
:1044B000159135916591959105907FE27395E1187D
:1044C000F10A430B560BC90BD009C0F7E10CF11EE2
:1044D000431F561FC91FD01D7EF4703311F48A95F7
:1044E000E6CFE894015030F0080F0AF400270217D5
:1044F00008F4202F2395022F7A3328F079E37D9357
:104500002A95E9F710C07D932A9589F60694979528
:104510006795379517951794E118F10A430B560BD9
:10452000C90BD00998F023957E9173957A3308F0E2
:1045300070E37C932013B8F77E9170617D9330F027
:10454000839571E37D9370E32A95E1F71124EF9051
:10455000FF900F911F91CF91DF91992787FD909543
:104560000895DC012D923D924D925D926D927D9267
:104570008D929D92AD92BD92CD92DD92ED92FD9283
:104580000D931D93CD93DD93FF91EF918DB78D9397
:104590008EB78D938FB78D93ED93FD9388279927D1
:1045A0000994DC01CB0181309105811D2D903D9056
:1045B0004D905D906D907D908D909D90AD90BD9053
:1045C000CD90DD90ED90FD900D911D91CD91DD91FF
:1045D000ED91FD910D90F894FEBF0FBEEDBFED91F2
:1045E000FD910994FB01DC014150504048F00590D9
:1045F0000D920020C9F701C01D9241505040E0F7D4
:104600000895FC010590615070400110D8F7809525
:1046100090958E0F9F1F0895FC016150704001908E
:104620000110D8F7809590958E0F9F1F08950F93D6
:104630001F93CF93DF938C01EB018B8181FF1BC014
:1046400082FF0DC02E813F818C819D812817390703
:1046500064F4E881F9810193F983E88306C0E88571
:10466000F985802F0995892B31F48E819F810196E0
:104670009F838E8302C00FEF1FEFC801DF91CF91A0
:104680001F910F9108950F931F938C01FC0183815B
:1046900088608383C8010E944E1DF8012381277F13
:1046A00023831F910F910895FA01AA27283051F111
:1046B000203181F1E8946F936E7F6E5F7F4F8F4F53
:1046C0009F4FAF4FB1E03ED0B4E03CD0670F781FB2
:1046D000891F9A1FA11D680F791F8A1F911DA11D97
:1046E0006A0F711D811D911DA11D20D009F46894D0
:1046F0003F912AE0269F11243019305D3193DEF678
:10470000CF010895462F4770405D4193B3E00FD02D
:10471000C9F7F6CF462F4F70405D4A3318F0495D18
:1047200031FD4052419302D0A9F7EACFB4E0A695FB
:104730009795879577956795BA95C9F7009761051D
:10474000710508959B01AC010A2E06945795479573
:1047500037952795BA95C9F7620F731F841F951F68
:10476000A01D08955058BB27AA270ED075C166D149
:1047700030F06BD120F031F49F3F11F41EF45BC197
:104780000EF4E095E7FB51C1E92F77D180F3BA171A
:10479000620773078407950718F071F49EF58FC1BF
:1047A0000EF4E0950B2EBA2FA02D0B01B90190014C
:1047B0000C01CA01A0011124FF27591B99F0593F90
:1047C00050F4503E68F11A16F040A22F232F342FD8
:1047D0004427585FF3CF469537952795A795F04026
:1047E0005395C9F77EF41F16BA0B620B730B840B3B
:1047F000BAF09150A1F0FF0FBB1F661F771F881FF3
:10480000C2F70EC0BA0F621F731F841F48F487954A
:1048100077956795B795F7959E3F08F0B3CF939539
:10482000880F08F09927EE0F979587950895D9D0AE
:1048300008F481E008950CD00FC107D140F0FED0FC
:1048400030F021F45F3F19F0F0C0511139C1F3C0CD
:1048500014D198F39923C9F35523B1F3951B550B44
:10486000BB27AA2762177307840738F09F5F5F4F43
:10487000220F331F441FAA1FA9F333D00E2E3AF084
:10488000E0E830D091505040E695001CCAF729D09E
:10489000FE2F27D0660F771F881FBB1F26173707ED
:1048A0004807AB07B0E809F0BB0B802DBF01FF271D
:1048B00093585F4F2AF09E3F510568F0B6C000C183
:1048C0005F3FECF3983EDCF3869577956795B79557
:1048D000F7959F5FC9F7880F911D9695879597F972
:1048E0000895E1E0660F771F881FBB1F62177307EB
:1048F0008407BA0720F0621B730B840BBA0BEE1F00
:1049000088F7E095089504D06894B111D9C008954E
:10491000BCD088F09F5790F0B92F9927B751A0F0DD
:10492000D1F0660F771F881F991F1AF0BA95C9F743
:1049300012C0B13081F0C3D0B1E00895C0C0672F7C
:10494000782F8827B85F39F0B93FCCF386957795F3
:104950006795B395D9F73EF49095809570956195DC
:104960007F4F8F4F9F4F0895E89409C097FB3EF407
:1049700090958095709561957F4F8F4F9F4F9923AC
:10498000A9F0F92F96E9BB279395F695879577952A
:104990006795B795F111F8CFFAF4BB0F11F460FFEA
:1049A0001BC06F5F7F4F8F4F9F4F16C0882311F042
:1049B00096E911C0772321F09EE8872F762F05C056
:1049C000662371F096E8862F70E060E02AF09A95F1
:1049D000660F771F881FDAF7880F9695879597F9E6
:1049E0000895990F0008550FAA0BE0E8FEEF161680
:1049F0001706E807F907C0F012161306E407F507D3
:104A000098F0621B730B840B950B39F40A2661F046
:104A1000232B242B252B21F408950A2609F4A140E9
:104A2000A6958FEF811D811D089597F99F6780E8F6
:104A300070E060E008959FEF80EC089500240A94F0
:104A40001616170618060906089500240A94121669
:104A50001306140605060895092E0394000C11F49C
:104A6000882352F0BB0F40F4BF2B11F460FF04C049
:104A70006F5F7F4F8F4F9F4F089557FD9058440FA2
:104A8000551F59F05F3F71F04795880F97FB991FAD
:104A900061F09F3F79F0879508951216130614066A
:104AA000551FF2CF4695F1DF08C0161617061806F7
:104AB000991FF1CF86957105610508940895E894D2
:104AC000BB2766277727CB0197F908958ADF08F47B
:104AD0008FEF08950BD0C0CFB1DF28F0B6DF18F00C
:104AE000952309F0A2CFA7CF1124EACFC6DFA0F308
:104AF000959FD1F3950F50E0551F629FF001729F73
:104B0000BB27F00DB11D639FAA27F00DB11DAA1F91
:104B1000649F6627B00DA11D661F829F2227B00DDE
:104B2000A11D621F739FB00DA11D621F839FA00D69
:104B3000611D221F749F3327A00D611D231F849FB9
:104B4000600D211D822F762F6A2F11249F57504010
:104B50008AF0E1F088234AF0EE0FFF1FBB1F661FAB
:104B6000771F881F91505040A9F79E3F510570F064
:104B70005CCFA6CF5F3FECF3983EDCF3869577954C
:104B80006795B795F795E7959F5FC1F7FE2B880F5F
:104B9000911D9695879597F90895629FD001739F0F
:104BA000F001829FE00DF11D649FE00DF11D929FC9
:104BB000F00D839FF00D749FF00D659FF00D992708
:104BC000729FB00DE11DF91F639FB00DE11DF91F2C
:104BD000BD01CF011124089597FB092E07260AD0A5
:104BE00077FD04D065D006D000201AF47095619549
:104BF0007F4F0895F6F7909581959F4F0895A1E214
:104C00001A2EAA1BBB1BFD010DC0AA1FBB1FEE1F46
:104C1000FF1FA217B307E407F50720F0A21BB30B91
:104C2000E40BF50B661F771F881F991F1A9469F70D
:104C300060957095809590959B01AC01BD01CF0169
:104C400008952F923F924F925F926F927F928F9230
:104C50009F92AF92BF92CF92DF92EF92FF920F930B
:104C60001F93CF93DF93CDB7DEB7CA1BDB0B0FB615
:104C7000F894DEBF0FBECDBF09942A8839884888D2
:104C80005F846E847D848C849B84AA84B984C88468
:104C9000DF80EE80FD800C811B81AA81B981CE0F5F
:104CA000D11D0FB6F894DEBF0FBECDBFED01089544
:104CB000AA1BBB1B51E107C0AA1FBB1FA617B70742
:104CC00010F0A61BB70B881F991F5A95A9F780955E
:084CD0009095BC01CD0108958F
:104CD8000A2566000A5475726E696E6720737461DE
:104CE8007465000A4D6F76696E6720737461746528
:104CF8000073696E675F746872656164000A507258
:104D080065737320676F000A53746162696C697A0E
:104D1800696E67000A496E697469616C697A696EBF
:104D280067006D6F746F72206C6F636B000405020F
:104D3800030001656E636F646572206C6F636B00BE
:104D48006779726F206C6F636B006779726F000B05
:104D5800726F626F74206D6F6E69746F7200757315
:104D68006572206D61696E00014861707079626FCB
:104D7800617264207625582E253032582020202054
:104D880020202020202020202020200500006964E9
:104D98006C6500756E6B6E6F776E20696E746572E8
:104DA800727570740025730025730A0061646320AE
:104DB8006C6F636B00737069206C6F636B00554197
:104DC8005254206C6F636B0000000002000000006A
:104DD800AC16000000004C4344206C6F636B00006D
:104DE800000002000000001E1B0000000073657236
:104DF800766F206C6F636B006469676974616C20FF
:0C4E08006C6F636B0020001804000000B9
:00000001FF
