:100000000C949B030C94BB030C94BB030C94BB0398
:100010000C94BB030C94BB030C94BB030C94BB0368
:100020000C94BB030C94BB030C94C6120C94BB033E
:100030000C94BB030C94BB030C94BB030C94BB0348
:100040000C94BB030C94BB030C94BB030C94BB0338
:100050000C94BB030C94BB030C94BB030C94BB0328
:100060000C94BB030C94BB030C94BB030C94BB0318
:100070000C94BB030C94BB030C94BB030C94BB0308
:100080000C94BB030C94BB030C94BB0375706461AC
:1000900074655F7069643A206E6F20696E70757464
:1000A000007570646174655F7069643A207069649A
:1000B0002064697361626C6564006572726F72209E
:1000C00025302E33660A0063757272656E74207671
:1000D000616C75652025302E33660A00696E69747F
:1000E0005F7069643A20706964206E756C6C006D95
:1000F00061696E000A004A6F794F532076302E32C4
:100100002E3320202020507265737320474F00202B
:1001100020202020202020206D656D6F72792066C0
:10012000756C6C00686561702073697A653A20258A
:10013000642062797465730A005F5F6D616C6C6F37
:10014000635F686561705F656E64203D2025700A9D
:10015000005F5F6D616C6C6F635F686561705F739A
:1001600074617274203D2025700A0072756E61778B
:10017000617920636F6465000A526F756E64206553
:100180006E64000A526F626F742072656164792E2A
:100190002020202050726573732027476F27006C42
:1001A0006F636B2068656C6420627920616E6F7488
:1001B0006865720072656C6561736520756E68654F
:1001C0006C64206C6F636B0072656C656173652095
:1001D0006E756C6C206C6F636B0069735F68656C27
:1001E00064206E756C6C206C6F636B00616371755D
:1001F0006972656420746F6F206D616E7920746917
:100200006D65730061637175697265206E756C6CE4
:10021000206C6F636B00696E6974206E756C6C2066
:100220006C6F636B00496E6974206661696C3A207B
:1002300025730A0D005541525430206F70656E656C
:10024000642061742025640A0D0048617070796231
:100250006F61726420696E69742073746172746571
:10026000640A0D0048617264776172652076657278
:1002700073696F6E2025582E253032580A0D0042C2
:100280006F61726420494420253034580A0D0042C1
:100290006F61726420636F6E666967204F4B0A0D51
:1002A0000042617474657279204F4B3A2025646D69
:1002B000560A0D0046504741207625642E25640AD3
:1002C0000D0046504741206661696C757265004CAF
:1002D0006F772062617474657279004261642043B3
:1002E0006F6E666967000A70616E69633A202573F4
:1002F0000070616E69633A2025730A002074687289
:100300006561642028746964202564292027257389
:1003100027207374617475732025642072756E7361
:100320002025750A0020746872656164202874694C
:10033000642025642920756E616C6C6F636174653F
:10034000640A0044756D70696E6720746872656137
:1003500064207374617465733A0A0020504320204E
:10036000203A20253038700A002053524547203A61
:1003700020253032700A002053502020203A2025BA
:100380003034700A002046502020203A2025303496
:10039000700A00203C6F6D697474696E672072305A
:1003A0002D7233313E0A0044756D70696E67206AA4
:1003B0006D705F6275663A0A006F7574206F662013
:1003C0007468726561647300736C65657000796947
:1003D000656C64006E6F2063757272656E745F7415
:1003E000687265616400737461636B206F76657217
:1003F000666C6F77007265736572766564207370E2
:100400006163653A20257020746F2025700A00739F
:100410007461636B746F703A2025700A00706320FA
:1004200061742025700A007370206F662027257381
:100430002720286964202564292069732025700AF3
:10044000000A737461636B206F766572666C6F77F8
:100450000A0053502061626F7665006E6F206964F8
:100460006C65006D616C6C6F6320737061636520F7
:100470005B25702C25705D0A007468726561647379
:100480005B305D2E74685F73746174757320617482
:100490002025700A00746872656164735B305D20AA
:1004A00061742025700A0074696D65202564002D33
:1004B0002D206E6F2069646C6520746872656164BC
:1004C000202D2D0A007363686564756C65004F6F9D
:1004D00070732E2E2E20746865726527732061203C
:1004E00072756E6E61626C652074687265616420FD
:1004F0007468617473206E6F742069646C650A009F
:1005000020746872656164202874696420256429F8
:100510002027257327207374617475732025640A5E
:100520000020746872656164202874696420256401
:100530002920756E616C6C6F63617465640A006973
:10054000646C6520667265650028696420256429ED
:1005500020737461636B205B25702C2570290A0061
:10056000746872656164207461626C6520656E6494
:100570002061742025700A007468726561642074BB
:1005800061626C65207374617274206174202570DF
:100590000A002520356420202025347020202025C5
:1005A0003032780A003D3D3D3D3D3D3D3D3D3D3DC8
:1005B0003D3D3D3D3D3D3D3D3D0A00494E44455894
:1005C0002020204144445220202056414C55450AC9
:1005D0000000000A0000110E0000000A0000111FB8
:1005E0000000000A00000E1100000E1F1111111F63
:1005F000000000000000001500000E0E0E1F0E048B
:1006000000616E616C6F675F72656164006D63703D
:1006100033303038206661696C006D637033303080
:1006200038206661696C006469676974616C5F7227
:10063000656164006E616E00696E660000407A104C
:10064000F35A00A0724E18090010A5D4E80000E883
:100650007648170000E40B54020000CA9A3B0000E1
:1006600000E1F505000080969800000040420F0070
:100670000000A08601000000102700000000E80331
:10068000000000006400000000000A0000000000FC
:100690000100000000002C76D888DC674F0823DFBB
:1006A000C1DFAE59E1B1B796E5E3E453C63AE6518E
:1006B000997696E8E6C28426EB898C9B62ED407CB5
:1006C0006FFCEFBC9C9F40F2BAA56FA5F490055A51
:1006D0002AF75C936B6CF9676DC11BFCE0E40D4776
:1006E000FEF520E6B500D0ED902E03009435770599
:1006F0000080841E080000204E0A000000C80C3351
:100700003333330F986E12831141EF8D2114893BDF
:10071000E65516CFFEE6DB18D1844B381BF77C1D5F
:10072000901DA4BBE424203284725E228100C9F1B2
:1007300024ECA1E53D2711241FBECFEFD0E1DEBFA1
:10074000CDBF12E0A0E0B1E0E6E7F8E400E00BBFC7
:1007500002C007900D92A433B107D9F71BBE14E075
:10076000A4E3B2E001C01D92AC30B107E1F70E94F2
:100770003A0B0C943E110C94A0122091750230910A
:1007800076024091770250917802B901CA0108952A
:100790000F931F938C0180E060E070E00E941E08C0
:1007A00081E060E070E00E941E08C8010E945C11B8
:1007B0001F910F9108950E94340E2091550230919F
:1007C00056024091570250915802621B730B840BE2
:1007D000950B615A7F408040904000F1609151023A
:1007E00070915202809153029091540220E030E0C7
:1007F00044EB52E40E9482216093510270935202B2
:10080000809353029093540282E090E090936402AC
:100810008093630288EC90E00E94C80308950E94D0
:10082000340E609355027093560280935702909352
:10083000580281E090E090936402809363020895EF
:100840004F925F926F927F928F929F92AF92BF92E0
:10085000CF92DF92EF92FF920F931F932B013C01F7
:1008600085E692E040E050E060EC7FE30DEC1CECAC
:100870002CE43DE30F2EF0E0CF2EF0E0DF2EF0E091
:10088000EF2EF0E0FF2EF02DAA24BB24882499241B
:100890000E94510640927502509276026092770251
:1008A000709278021F910F91FF90EF90DF90CF90A0
:1008B000BF90AF909F908F907F906F905F904F9080
:1008C00008954F925F926F927F928F929F92AF9214
:1008D000BF92CF92DF92EF92FF920F931F930E94ED
:1008E000D40940905102509052026090530270908F
:1008F0005402A30192010E9435231816B4F585E62F
:1009000092E040E050E060EC7FE30DEC1CEC2CE466
:100910003DE30F2EF0E0CF2EF0E0DF2EF0E0EF2EE3
:10092000F0E0FF2EF02DAA24BB24882499240E94F5
:100930005106409275025092760260927702709250
:1009400078020E94340E6093550270935602809391
:1009500057029093580281E090E090936402809354
:10096000630284EF91E00E94C8031F910F91FF90F2
:10097000EF90DF90CF90BF90AF909F908F907F903F
:100980006F905F904F900895EF92FF920F931F9397
:10099000CF93DF9300D080E091E0ADB7BEB7129661
:1009A0009C938E9311970E94FF120F900F90CFE0AF
:1009B000D1E073C00E94D4097B018C01EDB7FEB772
:1009C0003A970FB6F894FEBF0FBEEDBF3196ADB7A4
:1009D000BEB71296DC93CE931197628373838483A0
:1009E00095838091510290915202A0915302B0914F
:1009F000540286839783A087B1870E94FF12EDB7C8
:100A0000FEB73A960FB6F894FEBF0FBEEDBF6091E9
:100A10005102709152028091530290915402A801A8
:100A200097010E94812120E030E040EC5FE30E94CA
:100A3000EA2120E030E040EF51E40E9482210E9450
:100A400052229B01AC0180E0B9010E941E08C8013E
:100A5000B7012091510230915202409153025091BE
:100A600054020E94812120E030E040EC5FE30E94CC
:100A7000EA2120E030E040EF51E40E9481210E9411
:100A800052229B01AC0181E0B9010E941E0882E361
:100A900090E00E945C110E94610480916302909139
:100AA0006402029709F486CFDF91CF911F910F91D5
:100AB000FF90EF900895EF92FF920F931F93CF93C3
:100AC000DF9300D087E191E0EDB7FEB79283818399
:100AD0000E94FF120F900F90CCE3D0E01DC00E9447
:100AE000D409AB01BC0185E692E00E94B3060E94E6
:100AF00052227B018C016C5B7F4F80E00E941E08BC
:100B0000BE016E197F0981E00E941E0882E390E019
:100B10000E945C110E94DB03809163029091640249
:100B20000197E9F2DF91CF911F910F91FF90EF9024
:100B300008952F923F924F925F926F927F928F9281
:100B40009F92AF92BF92CF92DF92EF92FF920F935C
:100B50001F93CF93DF938FE2282E81E0382ECCE3D2
:100B6000D1E00F2EF0E04F2EF0E05F2EF0E06F2E80
:100B7000F0E07F2EF02D5AC000D085E291E0EDB775
:100B8000FEB7928381830E94FF120F900F900E9404
:100B9000F20800D0EDB7FEB7328221820E94FF1228
:100BA0000F900F9088EE93E00E945C1100D0EDB79B
:100BB000FEB7D283C1830E94FF120F900F9088E08E
:100BC0004FEA52EE64EB74E408E813E120E030E011
:100BD0000E94740A40925102509252026092530253
:100BE0007092540285E692E040E050E060EC7FE3D2
:100BF0000DEC1CEC2CE43DE30F2EF0E0CF2EF0E0EA
:100C0000DF2EF0E0EF2EF0E0FF2EF02DAA24BB2423
:100C1000882499240E9451064092750250927602CF
:100C200060927702709278020E940F0480916302B2
:100C300090916402892B09F49FCFDF91CF911F918E
:100C40000F91FF90EF90DF90CF90BF90AF909F906B
:100C50008F907F906F905F904F903F902F9008956E
:100C60001092640210926302809163029091640278
:100C70008130910551F08130910520F0823091054D
:100C8000B9F706C00E949905EFCF0E945B05ECCF33
:100C90000E94C404E9CF80E00E94370B80E090E01E
:100CA00008952F923F924F925F926F927F928F9210
:100CB0009F92AF92BF92CF92DF92EF92FF920F93EB
:100CC0001F93DF93CF9300D000D0CDB7DEB73C01A8
:100CD0001A012B0109831A832B833C83009721F48B
:100CE0008CED90E00E94D20DD3012D923D924D9259
:100CF0005C92139789819A81AB81BC81F3018483D3
:100D00009583A683B783D3011896CD92DD92ED9299
:100D1000FC921B971D96BC92AE921C971F969C92BC
:100D20008E921E9780E090E0A0E0B0E0848B958BDF
:100D3000A68BB78B108E11A20F900F900F900F9073
:100D4000CF91DF911F910F91FF90EF90DF90CF90A7
:100D5000BF90AF909F908F907F906F905F904F90DB
:100D60003F902F9008952F923F924F925F926F92F3
:100D70007F928F929F92AF92BF92CF92DF92EF922B
:100D8000FF920F931F93CF93DF93EC011A012B0176
:100D900000D000D000D087EC90E0EDB7FEB7928392
:100DA000818343835483658376830E94AD1468896D
:100DB00079898A899B89A20191010E9481215B0125
:100DC0006C018AEB90E0EDB7FEB792838183A3823A
:100DD000B482C582D6820E94AD14C601B5012881B5
:100DE00039814A815B810E9439237B018C018DB757
:100DF0009EB706960FB6F8949EBF0FBE8DBF888D26
:100E0000882359F40F2EF0E0AF2EF0E0BF2EF0E073
:100E1000CF2EF0E0DF2EF02D52C00E94340E2D8D2B
:100E20003E8D4F8D58A1621B730B840B950B0E9456
:100E300083222FE632E143E85AE30E9439233B0143
:100E40004C01A60195010E9439232C893D894E89C8
:100E50005F890E9482215B016C012C813D814E8162
:100E60005F810E9439239B01AC01C801B7010E9438
:100E700082217B018C01C401B30120E030E040E01D
:100E800050E00E94E6218823D1F0C201B101298DF2
:100E90003A8D4B8D5C8D0E948121288539854A854C
:100EA0005B850E943923A40193010E94EA219B01E2
:100EB000AC01C801B7010E9482217B018C0181E055
:100EC000888FAC8ABD8ACE8ADF8A298E3A8E4B8E75
:100ED0005C8E0E94340E6D8F7E8F8F8F98A3EE856F
:100EE000FF85309719F0C801B7010995B701C8010E
:100EF000DF91CF911F910F91FF90EF90DF90CF90F6
:100F0000BF90AF909F908F907F906F905F904F9029
:100F10003F902F900895CF93DF93EC0189A1882310
:100F200021F481EA90E00E94D20D8C859D85892B69
:100F300021F48CE890E00E94D20DEC85FD850995A6
:100F4000AB01BC01CE010E94B306DF91CF910895A1
:100F5000CF93DF93EC01CE010E948B07FCCF1F9350
:100F6000CF93DF93CDB7DEB728970FB6F894DEBFE7
:100F70000FBECDBF182F87E892E00E94590CDE010A
:100F80001396E5E5F1E086E001900D928150E1F7DE
:100F9000FE01E10FF11D63817727685F7F4FAE018E
:100FA0004F5F5F4F80E090E00E94851587E892E0F8
:100FB0000E94F30B89819A8128960FB6F894DEBFC0
:100FC0000FBECDBFDF91CF911F9108950F931F9357
:100FD0000E94AF078C01B801882777FD8095982F74
:100FE0000E94852217FF06C020E030E040E857E469
:100FF0000E94822128E431EE40E851E40E94392326
:101000000E945722DC01CB011F910F910895FF929E
:101010000F931F93F82E07E812E0C8010E94590CA5
:10102000FF0CEF2DFF27E050FF4E83E08083C801C7
:101030000E94F30B1F910F91FF9008951F93CF9380
:10104000DF93182FEB0187E892E00E94590C110FF3
:101050001C161D0634F4E12FFF27E050FF4E81E0FF
:1010600007C0E12FFF27209729F0E050FF4E82E0D4
:10107000808303C0E050FF4E1082E12FFF27EF5F17
:10108000FE4EBE01D7FF03C0709561957F4F608310
:1010900087E892E00E94F30BDF91CF911F910895B2
:1010A0006AE471E087E892E00E94430C089581B100
:1010B000992725E0969587952A95E1F78095909553
:1010C00081709070089581B1992734E09695879545
:1010D0003A95E1F7809590958170907008950F93FF
:1010E0001F93CF93DF93CDB7DEB722970FB6F89457
:1010F000DEBF0FBECDBFAE014F5F5F4F6FE070E050
:1011000080E090E00E94851509811A81B801882746
:1011100077FD8095982F0E94852217FF06C020E05A
:1011200030E040E857E40E9482212CE135E441E2BE
:1011300051E40E9439230E945722DC01CB01229600
:101140000FB6F894DEBF0FBECDBFDF91CF911F91D8
:101150000F910895CF93DF93CDB7DEB722970FB6E7
:10116000F894DEBF0FBECDBFAE014F5F5F4F61E0B1
:1011700070E080E090E00E94C71389819A812296F6
:101180000FB6F894DEBF0FBECDBFDF91CF910895AB
:10119000CF92DF92EF92FF920F931F936C017B012E
:1011A0000E94AA08AA27BB27EC18FD080894E11C96
:1011B000F11C00271127BC01CD01A80197010E9455
:1011C0009C234AE096958795779567954A95D1F740
:1011D000C60ED71EC6011F910F91FF90EF90DF90B2
:1011E000CF9008950D99FECF80E08A95F1F70D9B81
:1011F000FECF08950C99FECF80E08A95F1F70C9B05
:10120000FECF08952F923F924F925F926F927F92FE
:101210008F929F92AF92BF92CF92DF92EF92FF9206
:101220000F931F93CF93DF937B019C014427552796
:1012300060E874E88EE190E00E94CE23E901C901E4
:1012400096958795969587951C01442455240027EB
:101250001127C801B7012CE231E040E050E00E94C4
:101260009C233B014C01AA24BB24650157C0C49AAE
:10127000BE01882777FD8095982F0E948522D7FF91
:1012800006C020E030E040E857E40E9482212BEACB
:101290003AEA4AE250E40E9439237B018C0120E0C3
:1012A00030E040E85FE30E94E621882314F461E027
:1012B00010C020E030E04FE753E4C801B7010E94BE
:1012C0003523181614F460E004C0C801B7010E9469
:1012D00057226A95F1F7C49820E030E040E85FE3D8
:1012E000C801B7010E94E621882314F461E010C010
:1012F00020E030E04FE753E4C801B7010E943523F6
:10130000181614F460E004C0C801B7010E94572207
:101310006A95F1F7A20CB31CC41CD51CA614B70423
:10132000C804D90408F4A3CFDF91CF911F910F9186
:10133000FF90EF90DF90CF90BF90AF909F908F90F5
:101340007F906F905F904F903F902F900895CF9235
:10135000DF92EF92FF920F931F937B018C018CE839
:10136000C82E82E0D82EC6010E94590C209134026A
:10137000309135024091360250913702C801B701D1
:101380000E943923609338027093390280933A02A5
:1013900090933B02C6010E94F30B1F910F91FF90A7
:1013A000EF90DF90CF900895CF92DF92EF92FF926F
:1013B0000F931F930CE812E0C8010E94590C609132
:1013C00038027091390280913A0290913B0220914B
:1013D00034023091350240913602509137020E941A
:1013E000EA216B017C01C8010E94F30BC701B60121
:1013F0001F910F91FF90EF90DF90CF9008956F9223
:101400007F928F929F92AF92BF92CF92DF92EF9294
:10141000FF920F931F930E94340E5B016C01809129
:101420006A010E94461A7C010E94340E3B014C0165
:1014300000271127C801B7010E94852220913D0293
:1014400030913E0240913F02509140020E94812122
:101450007B018C01A40193012A193B094C095D0908
:1014600057FD05C0CA01B9010E94852214C0CA01F6
:10147000B90161707070807090705695479537957E
:101480002795622B732B842B952B0E9485229B0121
:10149000AC010E9482219B01AC01C801B7010E94EE
:1014A00039237B018C018CE892E00E94590C6091F9
:1014B00038027091390280913A0290913B02A80162
:1014C00097010E94812160933802709339028093C2
:1014D0003A0290933B028CE892E00E94F30B0E9448
:1014E0001311640153019BCF4F925F926F927F92D1
:1014F0008F929F92AF92BF92CF92DF92EF92FF9224
:101500000F931F93CF93DF93CDB7DEB724970FB61A
:10151000F894DEBF0FBECDBF09831A832B833C83B3
:1015200080936A01409334025093350260933602EF
:10153000709337020E94340E2B013C01CC24DD2431
:1015400076010F2EF0E08F2EF0E09F2EF0E0AF2E10
:10155000F0E0BF2EF02D21C080916A010E94461A52
:101560008C01B801882777FD8095982F0E948522ED
:1015700017FF06C020E030E040E857E40E948221D7
:101580009B01AC01C501B4010E9482214B015C01A9
:101590000894C11CD11CE11CF11C0E94340E64197A
:1015A00075098609970929813A814B815C81621707
:1015B00073078407950780F2F7FC05C0C701B601E1
:1015C0000E94852214C0C701B601617070708070DE
:1015D0009070F694E794D794C7946C297D298E294E
:1015E0009F290E9485229B01AC010E9482219B01C0
:1015F000AC01C501B4010E94EA2160933D027093E1
:101600003E0280933F029093400280E090E0A0E091
:10161000B0E08093380290933902A0933A02B093DD
:101620003B026BE571E08CE892E00E94430C25E6FA
:1016300031E040E060E071E08FEF99E00E94CA1174
:1016400024960FB6F894DEBF0FBECDBFDF91CF91C9
:101650001F910F91FF90EF90DF90CF90BF90AF90D0
:101660009F908F907F906F905F904F9008958093A0
:1016700083010895CFEFD0E1DEBFCDBF809141025D
:1016800090914202892B21F08BE691E00E94D20DCD
:1016900083E897E090933202809331020E94020D1A
:1016A00080912F02909130029F938F9381E591E07A
:1016B0009F938F930E94AD148091310290913202DA
:1016C0009F938F9389E391E09F938F930E94AD1432
:1016D000809131029091320220912F02309130029C
:1016E000821B930B880F991F9F938F9384E291E045
:1016F0009F938F930E94AD148DB79EB70C960FB633
:10170000F8949EBF0FBE8DBF20912F023091300202
:1017100080913102909132022817390720F08FE032
:1017200091E00E94D20D0E947F1806EF10E01F93F7
:101730000F930E945C191F930F930E94AD1484EFC6
:1017400090E09F938F930E94AD140E94F2080E9434
:1017500027122BE631E040E060E071E084EC9BE092
:101760000E94CA110E9420108FEE90E00E94D20DBC
:101770008DB79EB706960FB6F8949EBF0FBE8DBF6D
:1017800080E090E00C943E110E944B0683E891E0CB
:101790009F938F930E945C190E94F2080E947F1809
:1017A00029E731E040E060E071E080E396E00E94EC
:1017B000CA110F900F9080918301882319F40E9421
:1017C0001311FDCF80E69AEE0E945C1188E791E04C
:1017D0009F938F930E945C190E94260F0F900F9089
:1017E00080E090E008951F93CF93DF93EC01892B65
:1017F00021F488EC91E00E94D20D1FB7F894888103
:10180000882321F484EB91E00E94D20D2B813C814E
:1018100080914102909142022817390721F08FE907
:1018200091E00E94D20D888181508883882311F431
:101830001C821B828FB71078812B8FBFDF91CF91D5
:101840001F910895CF93DF93EC01892B21F48AED4A
:1018500091E00E94D20D20914102309142028B8191
:101860009C812817390719F080E090E009C090E0CA
:101870008881882309F491E081E09827892F9927AE
:10188000DF91CF9108950F931F93CF93DF93EC01D6
:101890008B01892B21F486E192E00E94D20D1882FF
:1018A0001A8309831C821B82DF91CF911F910F91B4
:1018B0000895CF93DF93EC01892B21F484E092E02B
:1018C0000E94D20D88818F3F21F48CEE91E00E941E
:1018D000D20D5FB75078F8942B813C818091410202
:1018E0009091420248812817390719F44F5F4883C5
:1018F0000AC0442361F481E0888380914102909181
:1019000042029C838B838FB7852B8FBF06C08FB716
:10191000852B8FBF0E941311DCCFDF91CF910895EB
:101920000F931F93CF93DF93CDB7DEB761970FB6B9
:10193000F894DEBF0FBECDBF8C0141E150E0BC0189
:10194000CE0101960E94C120198A1F930F9385E250
:1019500092E09F938F930E94AD1480E10E949618AD
:101960001F930F930E9499198FE10E94961860E0CF
:1019700070E083E00E94AC188DB79EB706960FB654
:10198000F8949EBF0FBE8DBFFFCF60E070E080E097
:1019900090E00E94811669E572E08AE090E00E9482
:1019A00035160E949817E9E5F2E020E030E08191D9
:1019B0003827032E0294902D9F709327832F802524
:1019C000880F807E9827802D8327807F8695032E21
:1019D000000C881F3695369536953F71382732278B
:1019E000292F82E0E136F80711F740E050E08091BE
:1019F0006102909162022817390711F441E050E02A
:101A0000CA0108950E949C131F9A80E09BE40E94E3
:101A1000621483EE91E090930B0480930A0480E0BB
:101A20009BE49F938F9385E392E09F938F930E9413
:101A3000AD148AE492E09F938F930E94AD140E94AC
:101A4000D51A0E94161B0E942A140E9450080E9458
:101A50003F1A0E94B5198AEF91E090930904809390
:101A600008040E94F6130E949F120E94C50C2DB715
:101A70003EB72A5F3F4F0FB6F8943EBF0FBE2DBF53
:101A8000882321F48BED92E00E94900C8FE892E085
:101A90009F938F930E94AD148091590290915A02A6
:101AA0009C0130703F932F93892F99279F938F9399
:101AB00084E692E09F938F930E94AD1480915B0225
:101AC00090915C029F938F938FE792E09F938F9307
:101AD0000E94AD148091590290915A029C0130707D
:101AE0003F932F93892F99279F938F9384E891E0B9
:101AF0009F938F930E9499190E946F082DB73EB74C
:101B00002E5E3F4F0FB6F8943EBF0FBE2DBF8C54D4
:101B10009D4120F48FEC92E00E94900C0E946F088F
:101B20009F938F9381EA92E09F938F930E94AD14CD
:101B300060915F027091600280E091E00E94061562
:101B40000F900F900F900F90882321F482EC92E079
:101B50000E94900C8091FF112091FE1199279F9374
:101B60008F9333273F932F9384EB92E09F938F9330
:101B70000E94AD148FE10E94961860E070E081E051
:101B80000E94AC181E9864EC79E082EC91E00E940F
:101B900002098DB79EB706960FB6F8949EBF0FBE8A
:101BA0008DBF0895CF93DF93CDB7DEB76A970FB699
:101BB000F894DEBF0FBECDBFBC01F894892B41F075
:101BC0004AE150E0CE0101960E94C1201A8E01C068
:101BD00019821092EE031092F2031092F103CE01DB
:101BE00001969F938F9386EE92E09F938F930E942E
:101BF0005C190E94260F0F900F900F900F906A961D
:101C00000FB6F894DEBF0FBECDBFDF91CF91089520
:101C1000CF93DF93EC01F8941092EE031092F2034D
:101C20001092F1030E947F18209711F4C8EAD1E0C6
:101C3000DF93CF9381EF92E09F938F930E945C1983
:101C40000E94260F0F900F900F900F90DF91CF9171
:101C5000089583E085BD83E884BD86B7806486BF30
:101C600087B7806487BF08952FB7F89460914302C7
:101C70007091440280914502909146023FB72078CE
:101C8000322B3FBF08953FB7F894609143027091A3
:101C9000440280914502909146022FB73078232B61
:101CA0002FBF28EE33E040E050E00E949C230895CF
:101CB0009C01F894EBEDF2E041E08081833031F457
:101CC000828593858217930709F44083BC9683E04D
:101CD000E33EF80791F77894089577278CE291E036
:101CE000689F9001699F300D789F300D112487EB1C
:101CF0009FE0821B930B0895FF920F931F93CF9346
:101D0000DF93FFB6F89483E493E09F938F930E9450
:101D1000AD1400E010E0CFEAD2E00F900F902881E0
:101D2000222369F41F930F9385E293E09F938F938F
:101D30000E94AD140F900F900F900F9020C08A81D9
:101D40009B81AC81BD81BF93AF939F938F93822F73
:101D500099279F938F938C859D859F938F931F9336
:101D60000F938CEF92E09F938F930E94AD148DB7E9
:101D70009EB70C960FB6F8949EBF0FBE8DBF0F5F37
:101D80001F4FAC960730110551F68FB790E8F92236
:101D90008F298FBFDF91CF911F910F91FF900895F1
:101DA0000F931F938C0187EA93E09F938F930E9478
:101DB000AD1483E993E09F938F930E94AD14F801D3
:101DC00080899189AA27BB27BF93AF939F938F9355
:101DD00085E893E09F938F930E94AD14F801828968
:101DE0009389AA27BB27BF93AF939F938F9387E7CE
:101DF00093E09F938F930E94AD14F80184899927F3
:101E0000AA27BB27BF93AF939F938F9389E693E055
:101E10009F938F930E94AD14F80185899689AA2714
:101E2000BB27BF93AF939F938F938BE593E09F93D3
:101E30008F930E94AD148DB79EB74C960FB6F89451
:101E40009EBF0FBE8DBF1F910F910895CF93DF935B
:101E5000F8941092870210928B0210928A02C0E0CE
:101E6000D0E08C2F0E9407082196C630D105C9F713
:101E7000FFCF0F931F93CF93DF93EC010FEA12E094
:101E80008091AF02813009F44BC08FEA94E09F93B8
:101E90008F930E94AD148091430290914402A091CF
:101EA0004502B0914602BF93AF939F938F9387EA09
:101EB00094E09F938F930E94AD140E5110401F9396
:101EC0000F93025E1F4F85E994E09F938F930E94CA
:101ED000AD141F930F9389E794E09F938F930E9413
:101EE000AD1480913102909132029F938F93809133
:101EF0002F02909130029F938F9383E694E09F93FB
:101F00008F930E94AD148BE594E00E94D20D4DB7E3
:101F10005EB74A5E5F4F0FB6F8945EBF0FBE4DBF0F
:101F20008D8D99272CE231E0A901849F9001859F36
:101F3000300D949F300D112487EB9FE0821B930B93
:101F40002A893B898217930720F482E594E00E9456
:101F5000D20D898D9A8D2A893B89821B930B2B8DFB
:101F60003C8D2817390708F04CC081E494E09F931A
:101F70008F930E94AD148A899B899F938F938D8D37
:101F800099279F938F938AA59BA59F938F9387E211
:101F900094E09F938F930E94AD14CE010E94D00EC7
:101FA0008D899E899F938F938DE194E09F938F936A
:101FB0000E94AD14898D9A8D9F938F938FE094E04A
:101FC0009F938F930E94AD14898D9A8D9F938F93C9
:101FD0002B8D3C8D821B930B01969F938F9385EFE6
:101FE00093E09F938F930E94AD1486EE93E00E943E
:101FF000D20D8DB79EB748960FB6F8949EBF0FBE10
:102000008DBFDF91CF911F910F9108959093420260
:10201000809341020E94390FE0914102F091420207
:1020200080A191A1A2A1B3A10196A11DB11D80A380
:1020300091A3A2A3B3A361E070E0CF010E94A0200E
:10204000AF92BF92CF92DF92EF92FF920F931F93C6
:10205000CF93DF93E0914102F0914202309719F45F
:10206000AA24BB2403C0858DA82EBB2481E0C82EE2
:10207000D12C75010894E11CF11CC70167E070E0E8
:102080000E94BB238C01892B09F455C08CE290E09F
:10209000089FE001099FD00D189FD00D1124CF5645
:1020A000DD4F8E8D8430B1F4209143023091440293
:1020B00040914502509146028CA19DA1AEA1BFA1C5
:1020C000281739074A075B0750F081E08E8FCE0151
:1020D0000E9406108E8D813011F4CE012AC06CE270
:1020E00070E0A69EF001A79EF00DB69EF00D1124A3
:1020F000EF56FD4F868D8430F1F4209143023091EC
:102100004402409145025091460284A195A1A6A1A6
:10211000B7A1281739074A075B0768F081E0868F67
:10212000069FC001079F900D169F900D11248F569A
:102130009D4F0E9406100894C11CD11C0894E11CFC
:10214000F11C88E0C816D10409F097CF8091AF0246
:10215000813021F481E992E00E940610F89400E0B9
:1021600010E0CFEAD2E08881882369F41F930F93AF
:1021700081E295E09F938F930E94AD140F900F9092
:102180000F900F9022C099279F938F938C859D85E8
:102190009F938F931F930F9380E095E09F938F936E
:1021A0000E94AD148DB79EB708960FB6F8949EBFE7
:1021B0000FBE8DBF8881813041F48EEC94E09F93F7
:1021C0008F930E94AD140F900F900F5F1F4FAC962E
:1021D0000730110541F685EC94E00E94D20DDF91A5
:1021E000CF911F910F91FF90EF90DF90CF90BF9014
:1021F000AF9008958091410290914202892B21F481
:1022000084ED93E00E94D20D8091410290914202B0
:102210000E948020892B31F461E070E085EC93E02E
:102220000E94A0200895F8941F920F922F933F933D
:102230004F935F936F937F938F939F93AF93BF93CE
:10224000EF93FF938091410290914202892B21F4F8
:102250008EEC93E00E94D20D0E94FA10FF91EF9154
:10226000BF91AF919F918F917F916F915F914F91AE
:102270003F912F910F901F90789408950E94131111
:10228000FDCFCF93DF93EC01F894809141029091C0
:102290004202892B21F488EC93E00E94D20DE09158
:1022A0004102F0914202D1A7C0A783E0868F0E942D
:1022B0001311DF91CF910895EF92FF920F931F9327
:1022C0008C010FB607FC37C0B801882777FD8095D1
:1022D000982F0E94852217FF06C020E030E040E8DA
:1022E00057E40E94822120E030E04AEF54E40E944B
:1022F00039237B018C0120E030E040E85FE30E945D
:10230000E62188231CF481E090E012C020E03FEF3A
:102310004FE757E4C801B7010E94352318161CF493
:1023200080E090E005C0C801B7010E945722CB01B0
:102330000197F1F720C0F894E0914102F091420238
:1023400084E0868F8091430290914402A0914502DF
:10235000B0914602E0914102F09142029801442777
:102360005527820F931FA41FB51F84A395A3A6A36F
:10237000B7A30E9413111F910F91FF90EF90089542
:102380000E947C0E88EB9BE00E945C11F9CF0E94BA
:102390001311FDCF0F931F93CF93DF938C016FB772
:1023A000F89440E050E0EFEAF2E08081882359F0B1
:1023B0004F5F5F4FBC9647305105B9F789EB93E00B
:1023C0000E94D20DFFCF8CE290E0489FD001499F40
:1023D000B00D589FB00D1124AF56BD4F81E0ED01F7
:1023E0008E8F3BA72AA7FD0110A211A212A213A251
:1023F0002CE231E0348F238F89E119928A95E9F735
:10240000842F9927F9018E9F90018F9F300D9E9FF9
:10241000300D1124E7EBFFE0E21BF30B2EE331E17B
:1024200020833197232F332720833197ED01FB8BB6
:10243000EA8B1E8B0D8B2C8920682C8B2FB7607834
:10244000262B2FBFDF91CF911F910F910895EF920F
:10245000FF920F931F93CF93DF9301E912E01F9335
:102460000F9388E795E09F938F930E94AD1485ECBE
:1024700093E09F938F9380E695E09F938F930E94C4
:10248000AD14E801EE24FF2407EB1FE08DB79EB7E3
:1024900008960FB6F8949EBF0FBE8DBFED8E1E8EB0
:1024A000C8011A8F098F18A219A21AA21BA20C52D6
:1024B00011401F930F939F938F93FF92EF9289E4A4
:1024C00095E09F938F930E94AD140894E11CF11C3A
:1024D000AC968DB79EB708960FB6F8949EBF0FBE08
:1024E0008DBF97E0E916F104C9F629EA31E040E032
:1024F00060E071E087EC91E10E94CA118091AF0227
:10250000882321F48FE395E00E94D20D85EC93E0BF
:102510000E9480208FEF90E19093D8038093D7039F
:1025200080E290E19093DB038093DA030E94290E0E
:10253000DF91CF911F910F91FF90EF900895089533
:102540001F920F920FB60F9211242F933F934F9328
:102550005F936F937F938F939F93AF93BF93EF930B
:10256000FF938EEA91E00E94D20DFF91EF91BF910F
:10257000AF919F918F917F916F915F914F913F911B
:102580002F910F900FBE0F901F9018951F920F92D2
:102590000FB60F9211242F933F934F935F936F9336
:1025A0007F938F939F93AF93BF93EF93FF9383E8B2
:1025B00084BD8091430290914402A0914502B09164
:1025C00046020196A11DB11D8093430290934402DF
:1025D000A0934502B09346020E94FA10FF91EF913A
:1025E000BF91AF919F918F917F916F915F914F912B
:1025F0003F912F910F900FBE0F901F901895CF9283
:10260000DF92EF92FF920F931F93CF93DF93CDB79B
:10261000DEB722970FB6F894DEBF0FBECDBF8E0196
:10262000035F1F4FF801E190F1908F018EEEC82EED
:1026300083E0D82EC6010E94590C1A830983A80191
:10264000B7018AEF91E00E941D1B8C01C6010E9418
:10265000F30BC80122960FB6F894DEBF0FBECDBFB4
:10266000DF91CF911F910F91FF90EF90DF90CF906E
:102670000895FF920F931F93CF93DF938C01F62E53
:102680008BEB95E09F938F930E94AD1485EA95E0C4
:102690009F938F930E94AD14E80100E010E00F902B
:1026A0000F900F900F9019C0888199279F938F9357
:1026B000DF93CF931F930F9382E995E09F938F93BE
:1026C0000E94AD140F5F1F4F21968DB79EB70896DD
:1026D0000FB6F8949EBF0FBE8DBF8F2D9927081798
:1026E000190714F3DF91CF911F910F91FF90089577
:1026F000CF93DF93EC01892BD1F00E947F18DF93F9
:10270000CF9380EC91E09F938F930E949919DF9370
:10271000CF9383EC91E09F938F930E94EA148DB73F
:102720009EB708960FB6F8949EBF0FBE8DBF0E944D
:10273000F208DF91CF91089585B7806885BFECE6F8
:10274000F0E080818F778083EDE6F0E080818D7FFF
:10275000808385B78F7B85BF83EF87BBC69A8CEF5D
:1027600081BB8EEC82B983B1806383B98DE08093A5
:10277000610010926400E2E6F0E080818460808372
:102780001A9AC09A8081816080831B9A0895EF9283
:10279000FF920F931F93CF93DF938C017B01EA018C
:1027A0008EED93E00E94590C079500270795006471
:1027B0000E2907B987ED86B9349BFECF349A24B130
:1027C00085B133279927982F8827282B392B3983D0
:1027D00028838EED93E00E94F30B80E090E0DF9180
:1027E000CF911F910F91FF90EF90089567EC71E0EA
:1027F0008EED93E00E94430C08959C013695279539
:102800006065622B6DB980FF02C0709A01C070983C
:1028100087B3876087BB0895AC0120E00AC0FA0146
:10282000E20FF11D80818FB9779BFECF8FB180833E
:102830002F5F2617A1F780E090E0089583EE93E0E4
:102840000E94F30B089583EE93E00E94590C80E000
:1028500090E0089560ED71E083EE93E00E94430CF8
:1028600008951E9A5D9BFECF8CB91E98992787FD0F
:10287000909508951F93182F8A3019F48DE00E94C7
:102880003A14812F0E9431141F910895CF93DF9342
:10289000EC0103C021960E94311488818823D1F76E
:1028A000DF91CF9108951E9A5F9BFECF1E988CB149
:1028B000992787FD909508958BB18078992787FD9A
:1028C000909508959C014427552794E0220F331FCB
:1028D000441F551F9A95D1F760E072E18AE790E0B6
:1028E0000E94CE23822F815089B921503040404030
:1028F0005040232F342F452F5527209390001BB88D
:1029000086E08093950088E18AB969ED71E088EEF0
:1029100093E00E94430C0895CF92DF92EF92FF92D2
:102920000F931F936C018B0128EEE22E23E0F22E11
:10293000C7010E94590CA801B60183EE91E00E94E4
:1029400012218C01C7010E94F30BC8011F910F9146
:10295000FF90EF90DF90CF900895CF93DF93CDB7A6
:10296000DEB722970FB6F894DEBF0FBECDBFFE01D3
:10297000379681919191FA83E983BF010E948C146B
:1029800022960FB6F894DEBF0FBECDBFDF91CF9178
:102990000895CF92DF92EF92FF920F931F936C01F5
:1029A0008B0138EEE32E33E0F32EC7010E94590C61
:1029B000A801B60183EE91E00E941D1B8C01C701A6
:1029C0000E94F30BC8011F910F91FF90EF90DF90D1
:1029D000CF900895CF93DF93CDB7DEB722970FB690
:1029E000F894DEBF0FBECDBFFE0137968191919165
:1029F000FA83E983BF010E94C91422960FB6F894A6
:102A0000DEBF0FBECDBFDF91CF910895DF92EF9271
:102A1000FF920F931F93CF93DF93CDB7DEB7289725
:102A20000FB6F894DEBF0FBECDBF8C017B01B8019D
:102A3000882799270E9481168F3FC9F3C69880E0A6
:102A40008A95F1F7C69A00E010E041C00E9407168F
:102A5000682F0F5F1F4F807C803C19F041E0D42E1F
:102A600008C03FE3D32ED6220E940716682F0F5FBF
:102A70001F4F40E050E0A1E0B0E0FE01319627E0BA
:102A800030E0CD01022E02C0880F991F0A94E2F7B0
:102A9000862381934F5F5F4F21503040483051056E
:102AA00081F790E012C0FE0131969E01275F3F4FF3
:102AB0008081882311F0C59A01C0C598C79AC7982C
:102AC0003196E217F307A1F79F5F9D1561F70E1589
:102AD0001F0508F4BBCF0E949817809163009927C7
:102AE00023E0969587952A95E1F781709070289656
:102AF0000FB6F894DEBF0FBECDBFDF91CF911F910F
:102B00000F91FF90EF90DF900895CF92DF92EF92B8
:102B1000FF920F931F93CF93DF93CDB7DEB7239729
:102B20000FB6F894DEBF0FBECDBF8C017B016A01EA
:102B30000E9423148F3F19F48FEF9FEF59C08E2D01
:102B4000880F880F8064898360E082E090E00E94B3
:102B5000FD130130110571F00130110520F0023034
:102B60001105D1F40EC01A9863E0CE0101960E94BF
:102B70000C1421C0C09863E0CE0101960E940C1491
:102B80001CC0809162008E7F8093620063E0CE0162
:102B900001960E940C1413C063E0CE0101960E94BE
:102BA0000C140130110549F00130110520F00230FC
:102BB000110551F404C01A9A07C0C09A05C080914B
:102BC00062008160809362008A819927982F88270C
:102BD0002B813327822B932B26E0969587952A9578
:102BE000E1F7F601918380830E941E1480E090E05B
:102BF00023960FB6F894DEBF0FBECDBFDF91CF9105
:102C00001F910F91FF90EF90DF90CF9008951F9349
:102C1000CF93DF93CDB7DEB722970FB6F894DEBF20
:102C20000FBECDBF61E0CE0101960E940C148091D1
:102C3000ED038F3F49F410E061E0CE0102960E945F
:102C40000C141F5F1830C1F78091ED038F5F8093E4
:102C5000ED038981992722960FB6F894DEBF0FBE47
:102C6000CDBFDF91CF911F910895EF92FF920F9307
:102C70001F93CF93DF937C01C0E0D0E08B0106C0AF
:102C80000E940716F80181938F012196CE15DF056A
:102C9000B9F780E090E0DF91CF911F910F91FF9005
:102CA000EF900895CF93DF93CDB7DEB721970FB69E
:102CB000F894DEBF0FBECDBF87ED8983809162009F
:102CC0008B7F8093620061E0CE0101960E940C141C
:102CD00061E0CE0101960E940C14898187FFF8CF34
:102CE0008091620084608093620082E08A95F1F7AF
:102CF00021960FB6F894DEBF0FBECDBFDF91CF9106
:102D00000895EF92FF920F931F93CF93DF93CDB768
:102D1000DEB724970FB6F894DEBF0FBECDBF7B01A0
:102D20008C010E9423148F3F19F48FEF9FEF2EC068
:102D300060E081E090E00E94FD1388EE8983D80175
:102D4000C7012FE0B695A795979587952A95D1F756
:102D50008A83BB27A12F902F8F2D880F8B83E09222
:102D6000ED03EC820E945216809162008B7F80936B
:102D7000620064E08E010F5F1F4FC8010E940C14B7
:102D800064E0C8010E940C1480E090E024960FB625
:102D9000F894DEBF0FBECDBFDF91CF911F910F9191
:102DA000FF90EF9008958F929F92AF92BF92CF9233
:102DB000DF92EF92FF920F931F93CF93DF93CDB7E4
:102DC000DEB724970FB6F894DEBF0FBECDBF6B0100
:102DD0007C014A0159010E9423148F3F19F42FEFFF
:102DE0003FEF3EC060E081E090E00E94FD1384E888
:102DF00089831A821B82CC82809162008B7F8093B0
:102E0000620064E0CE0101960E940C142C2D332741
:102E1000C9018A0D9B1D8150914028F0A12C41E0F1
:102E2000B42EA21AB30A00E010E074010BC0F7013F
:102E300081917F01898361E0CE0101960E940C148B
:102E40000F5F1F4F0A151B0591F780916200846088
:102E50008093620082E08A95F1F70E941E1495012A
:102E6000C90124960FB6F894DEBF0FBECDBFDF9127
:102E7000CF911F910F91FF90EF90DF90CF90BF9077
:102E8000AF909F908F900895EF92FF920F931F93B2
:102E9000CF93DF93CDB7DEB724970FB6F894DEBF9C
:102EA0000FBECDBF7B018C010E9423148F3F19F40C
:102EB0008FEF9FEF30C060E081E090E00E94FD1353
:102EC00083E58983D801C7016FE0B695A7959795EB
:102ED00087956A95D1F78A83BB27A12F902F8F2DD5
:102EE000880F8B831C820E945216809162008B7F18
:102EF0008093620064E0CE0101960E940C148091E0
:102F0000620084608093620082E08A95F1F70E94FB
:102F10001E1480E090E024960FB6F894DEBF0FBE3A
:102F2000CDBFDF91CF911F910F91FF90EF9008954A
:102F3000E2E6F0E080818460808382E08A95F1F7A8
:102F40000E941E1408950F931F93CF93DF93CDB764
:102F5000DEB722970FB6F894DEBF0FBECDBF8C014F
:102F600087ED89831A820E9423148F3F19F48FEF13
:102F70009FEF1EC060E081E090E00E94FD13809111
:102F800062008B7F8093620062E0CE0101960E9416
:102F90000C148091620084608093620082E08A95C4
:102FA000F1F70E941E148A81F801808380E090E08E
:102FB00022960FB6F894DEBF0FBECDBFDF91CF9142
:102FC0001F910F910895EF92FF920F931F93CF934C
:102FD000DF93CDB7DEB724970FB6F894DEBF0FBEF0
:102FE000CDBF7B018C010E9423148F3F19F48FEF1A
:102FF0009FEF30C060E081E090E00E94FD1383E825
:103000008983D801C701EFE0B695A7959795879575
:10301000EA95D1F78A83BB27A12F902F8F2D880F98
:103020008B831C820E945216809162008B7F80935A
:10303000620064E0CE0101960E940C14809162004F
:1030400084608093620082E08A95F1F70E941E14EA
:1030500080E090E024960FB6F894DEBF0FBECDBF9F
:10306000DF91CF911F910F91FF90EF900895809184
:103070004702992708950F931F93082F162F8EEE5E
:1030800093E00E94590C812F82958F70002329F0C4
:10309000979A880F880F806C04C09798880F880FC4
:1030A000806482BB80ED97E0FC013197F1F7969840
:1030B0000197F1F7612F7727002349F06F70707047
:1030C000660F771F660F771F862F806C08C06F70A2
:1030D0007070660F771F660F771F862F806482BB24
:1030E00080ED97E0FC013197F1F796980197F1F7A1
:1030F0008EEE93E00E94F30B1F910F9108950F93B2
:103100001F930EEE13E0C8010E94590C61E080E0AD
:103110000E943B1862E080E00E943B181092470238
:10312000C8010E94F30B1F910F9108951F93182F50
:103130008EEE93E00E94590C10934702103108F074
:10314000105D1068612F80E00E943B188EEE93E0C6
:103150000E94F30B1F9108951F93182F8EEE93E09A
:103160000E94590C80914802882339F00E947F18F0
:1031700080E00E949618109248021A3031F481E0E3
:10318000809348021092470211C0612F81E00E9493
:103190003B18809147028F3021F460EC80E00E9460
:1031A0003B18809147028F5F809347028EEE93E039
:1031B0000E94F30B812F992787FD90951F91089509
:1031C0000F931F93CF93DF93EC018EEE93E00E9459
:1031D000590C00E010E01AC021966A3039F460E81A
:1031E00080E00E943B181092470203C081E00E94D9
:1031F0003B180F3021F460EC80E00E943B18809176
:1032000047028F5F809347020F5F1F4F68816623DD
:1032100019F78EEE93E00E94F30BDF91CF911F918F
:103220000F910895FF920F931F93CF93DF93F82E82
:103230008B018EEE93E00E94590CFF0CFF0CFF0CEB
:10324000E80100E06F2D600F606480E00E943B1891
:10325000FE01649181E00E943B180F5F21960830C7
:1032600089F78EEE93E00E94F30BDF91CF911F91CF
:103270000F91FF900895CF92DF92EF92FF920F93FC
:103280001F936C018B012EEEE22E23E0F22EC7017C
:103290000E94590CA801B6018AEF91E00E94122108
:1032A0008C01C7010E94F30BC8011F910F91FF9081
:1032B000EF90DF90CF900895CF93DF93CDB7DEB737
:1032C00022970FB6F894DEBF0FBECDBFFE01379632
:1032D00081919191FA83E983BF010E943B19229663
:1032E0000FB6F894DEBF0FBECDBFDF91CF9108952A
:1032F000CF92DF92EF92FF920F931F936C018B019D
:103300003EEEE32E33E0F32EC7010E94590CA801D4
:10331000B6018AEF91E00E941D1B8C01C7010E943B
:10332000F30BC8011F910F91FF90EF90DF90CF90AA
:103330000895CF93DF93CDB7DEB722970FB6F894F9
:10334000DEBF0FBECDBFFE01379681919191FA830A
:10335000E983BF010E94781922960FB6F894DEBF68
:103360000FBECDBFDF91CF91089580E090E001972F
:10337000F1F763E380E00E943B1862E380E00E9483
:103380003B1861ED75E081E00E94121969ED75E06E
:1033900082E00E94121961EE75E083E00E9412192A
:1033A00069EE75E084E00E94121961EF75E085E036
:1033B0000E94121969EF75E086E00E94121961E01F
:1033C00080E00E943B1862E080E00E943B1866E0CB
:1033D00080E00E943B186CE080E00E943B1861EFA7
:1033E00071E08EEE93E00E94430C08950895CF9211
:1033F000DF92EF92FF920F931F93082F7B0193EFC1
:10340000C92E93E0D92EC6010E94590C000F005E10
:10341000112700501F4EF801E192EF2CFF24E082AB
:10342000C6010E94F30B1F910F91FF90EF90DF9068
:10343000CF900895FF920F931F93F82E8B01B80140
:10344000882777FD8095982F0E94852217FF06C058
:1034500020E030E040E857E40E94822121E632EC8F
:1034600044E85FE30E9439230E9457226F5B7F4F3D
:103470008F2D0E94F7191F910F91FF90089568E01A
:1034800072E083EF93E00E94430C08951F93CF9363
:10349000DF93CDB7DEB722970FB6F894DEBF0FBE2D
:1034A000CDBF182F8850883038F014C08AE196E0DC
:1034B0000E94D20D0E94131167E170E0611B710937
:1034C000AE014F5F5F4F81E090E00E948515882339
:1034D00069F71DC0812F8051883038F014C08DE00D
:1034E00096E00E94D20D0E9413116FE170E0611B03
:1034F0007109AE014F5F5F4F82E090E00E94851539
:10350000882369F704C081E096E00E94D20D89818A
:103510009A8122960FB6F894DEBF0FBECDBFDF9121
:10352000CF911F910895EF92FF921F9388EFE82E9D
:1035300083E0F82EC7010E94590C10911E11C7019B
:103540000E94F30B1095812F99271F91FF90EF9008
:1035500008951F93182F8830A8F488EF93E00E94F5
:10356000590C80911E1199278095909502C09595D0
:1035700087951A95E2F7182F117088EF93E00E9453
:10358000F30B0FC0883140F40E94461A10E08150BE
:10359000924038F011E005C087E296E00E94D20D1B
:1035A00010E0812F99271F91089563E172E088EF61
:1035B00093E00E94430C0895EF92FF920F931F93A4
:1035C000082F3DEFE32E33E0F32EC7010E94590C84
:1035D000A02FBB27AA0FBB1FEA2FE452FF27E05002
:1035E000FF4E819100811127102F00279927082B6A
:1035F000192BA75EBD4F8D919C91081B190BC7011C
:103600000E94F30BC8011F910F91FF90EF90089556
:103610001F93182F0E94DC1AE12FFF27EE0FFF1FC8
:10362000E75EFD4F918380831F91089560E272E011
:103630008DEF93E00E94430C0895A1E1B0E0E3E236
:10364000FBE10C94F0233C017F876E876A01FC014B
:1036500017821682838181FD03C06FEF7FEF71C3F4
:103660009E012F5F3F4F398B288BF3012381EE851D
:10367000FF8523FD859123FF8191FF87EE878823B6
:1036800009F45CC3853251F4EE85FF8523FD8591F5
:1036900023FF8191FF87EE87853229F490E0B30103
:1036A0000E94E620E2CF982F10E08824992410325F
:1036B000B0F49B3269F09C3228F4903251F093328E
:1036C00071F40BC09D3239F0903349F4116028C079
:1036D0001260146025C0186023C0106121C017FD5E
:1036E0002AC0892F80538A3078F416FF06C0FAE08A
:1036F0009F9E902C1124980E13C03AE0839E802C3C
:103700001124880E10620CC09E3221F416FD16C3DF
:10371000106406C09C3611F4106802C0983659F443
:10372000EE85FF8523FD959123FF9191FF87EE871D
:10373000992309F0BCCF892F8554833020F4812F41
:103740008061905E07C0892F8556833008F0A1C143
:10375000812F8F7E86FD02C076E0972E6FE3F62ED6
:10376000F822953619F4F0E4FF2A07C0963619F4CA
:1037700020E8F22A02C091109A94F7FE0BC03BE3B6
:10378000391520F427E05CE3B52E0EC0B92CB394B4
:1037900027E00AC047E0491528F427E0BB2447E0AA
:1037A000942E02C0292DBB24C60104969D878C87C8
:1037B000F6016081718182819381AE014F5F5F4F1D
:1037C0000B2D0E94A81F6C010981202E332400FFBD
:1037D00004C003FD02C01DE209C0F1FE02C01BE2ED
:1037E00005C0F2FC02C010E001C010E2C1018C7003
:1037F0009070892BB9F1112311F483E001C084E0AA
:10380000881510F088240AC0881AF3FC07C080E2EB
:1038100090E0B3010E94E6208A94C9F7112329F0B1
:10382000812F90E0B3010E94E62023FE03C004E351
:1038300016E00EC008E316E00BC0E114F10409F035
:10384000805290E0B3010E94E6200F5F1F4F05C039
:10385000EF2CFF24F0E1EF22FF24F801849188236C
:1038600061F714C1F7FE12C0BC0C24FE04C08A81AB
:10387000813309F4BA941B141CF0BB24B3942DC0FB
:10388000F8E0FB1550F538E0B32E27C0F6FC25C054
:10389000892D90E08C159D054CF02CEFC2162FEF72
:1038A000D20624F030E8F32A01C09A94992049F016
:1038B000E2E0F0E0EC0FFD1FE90DF11D80818033A7
:1038C000A1F3F7FE0AC0B92CB394892D90E0C81675
:1038D000D90614F0992401C09C18F7FC03C025E018
:1038E00030E009C01C141D041CF021E030E003C0CE
:1038F00096012F5F3F4F112311F02F5F3F4F99200B
:1039000029F0892D90E00196280F391F882D90E02D
:103910002817390714F0882401C0821A4F2C552427
:10392000C20189709070892B39F008C080E290E064
:10393000B3010E94E6208A948820C1F7112329F060
:10394000812F90E0B3010E94E62043FE07C008C02B
:1039500080E390E0B3010E94E6208A948820C1F7BA
:10396000F7FE46C08601D7FE02C000E010E07601F7
:103970000894E11CF11CE01AF10A41E050E04C0F00
:103980005D1FE40EF51E26014B185108892D90E0AD
:10399000AA24BB24A81AB90A5FEF0F3F150729F420
:1039A0008EE290E0B3010E94E620C016D10634F00A
:1039B000401651061CF4F701808101C080E30150DC
:1039C00010400894E11CF11C0A151B052CF090E036
:1039D000B3010E94E620E0CF0C151D0539F49A8151
:1039E000963318F4953311F424FE81E390E04BC034
:1039F0008A81813309F00F7E90E0B3010E94E620B6
:103A00009920A1F08EE290E0B3010E94E62012E03E
:103A1000E1E0F0E0EC0FFD1FE10FF11D1F5F808181
:103A200090E0B3010E94E6209A9491F744FC03C011
:103A300085E690E002C085E490E0B3010E94E620B4
:103A4000D7FC05C0C114D10441F404FF06C0D094D2
:103A5000C194D108D3948DE201C08BE290E0B30110
:103A60000E94E62080E305C08F5F26EF3FEFC20E85
:103A7000D31E3AE0C316D104BCF790E0B3010E9414
:103A8000E620C601C096B3010E94E620CC84DD8406
:103A900052C1933631F0933799F0933509F059C0FC
:103AA00023C0F601808189835E010894A11CB11CAA
:103AB00022E030E0C20ED31E21E0E22EF12C12C033
:103AC000F601A080B18016FD03C06FEF7FEF02C04A
:103AD000692D70E022E030E0C20ED31EC5010E94C5
:103AE000DB207C011F7713C0F601A080B18016FD9A
:103AF00003C06FEF7FEF02C0692D70E022E030E07D
:103B0000C20ED31EC5010E94D0207C01106813FF95
:103B100007C01BC080E290E0B3010E94E6208A94B7
:103B2000882D90E0E816F906A8F30FC0F50117FDFF
:103B3000859117FF81915F0190E0B3010E94E6201B
:103B400081108A940894E108F108E114F10471F7F6
:103B5000F2C0943611F0993689F517FF08C0F601C6
:103B6000208131814281538184E090E00AC0F601D6
:103B7000808191819C01442737FD4095542F82E03C
:103B800090E0C80ED91E9FE6F92EF12257FF09C01A
:103B900050954095309521953F4F4F4F5F4F90E89E
:103BA000F92ACA01B901AE014F5F5F4F2AE030E048
:103BB0000E942321E82EE889EE1A41C0953721F4AE
:103BC0001F7E2AE030E01CC0197F9F3661F09037DD
:103BD00020F4983509F0B2C00FC0903739F098370B
:103BE00009F0ACC004C028E030E00AC0106114FD48
:103BF000146020E130E004C014FD166020E132E0E2
:103C000017FF08C0F601608171818281938144E0D1
:103C100050E008C0F60180819181BC0180E090E015
:103C200042E050E0C40ED51EAE014F5F5F4F0E94D0
:103C30002321E82E5889E51A8FE7F82EF122F6FEA7
:103C40000BC08EEFF822E91438F4F4FE07C0F2FC42
:103C500005C09FEEF92202C01E2D01C0192DF4FEF1
:103C60000DC0FE01EE0DF11D8081803319F4E9EEE7
:103C7000FE2208C01F5FF2FE05C003C08F2D8678AC
:103C800009F01F5F0F2DF3FC14C0F0FE0FC01815D4
:103C900010F09E2C0BC09E2C980C911A182D06C06B
:103CA00080E290E0B3010E94E6201F5F1815C0F388
:103CB00004C0181510F4811A01C0882404FF0FC035
:103CC00080E390E0B3010E94E62002FF1DC001FDE9
:103CD00003C088E790E00EC088E590E00BC0802F1D
:103CE000867891F001FF02C08BE201C080E2F7FC10
:103CF0008DE290E0B3010E94E62006C080E390E0F0
:103D0000B3010E94E6209A94E914C0F3EA94E1E03A
:103D1000F0E0EC0FFD1FEE0DF11D808190E0B3018E
:103D20000E94E620EE2091F706C080E290E0B30109
:103D30000E94E6208A948820C1F797CCF30166811F
:103D40007781CB016196E2E10C940C24CF93DF9351
:103D5000BC018230910510F462E070E0A09104048F
:103D6000B0910504ED01E0E0F0E040E050E021C05A
:103D7000888199818617970769F48A819B8130979A
:103D800019F09383828304C0909305048093040404
:103D9000FE0134C06817790738F44115510519F050
:103DA0008417950708F4AC01FE018A819B819C0170
:103DB000E9012097E9F641155105A9F1CA01861BD1
:103DC000970B049708F4BA01E0E0F0E02AC08D9167
:103DD0009C91119784179507F9F46417750781F47E
:103DE00012968D919C911397309719F0938382834B
:103DF00004C09093050480930404FD0132964CC0E6
:103E0000CA01861B970BFD01E80FF91F619371939F
:103E100002978D939C9340C0FD01828193819C0108
:103E2000D9011097A1F68091020490910304892B87
:103E300041F480912F02909130029093030480937B
:103E4000020440913102509132024115510541F472
:103E50004DB75EB780912D0290912E02481B590BF1
:103E60002091020430910304CA01821B930B861730
:103E7000970780F0AB014E5F5F4F8417950750F0B6
:103E8000420F531F5093030440930204F9016193BE
:103E9000719302C0E0E0F0E0CF01DF91CF9108958F
:103EA000CF93DF93009709F450C0EC0122971B8257
:103EB0001A82A0910404B0910504109709F140E022
:103EC00050E0AC17BD0708F1BB83AA83FE01219126
:103ED0003191E20FF31FAE17BF0779F48D919C91DA
:103EE0001197280F391F2E5F3F4F39832883129671
:103EF0008D919C9113979B838A834115510571F491
:103F0000D0930504C093040420C012968D919C9117
:103F10001397AD01009711F0DC01D3CFFA01D383E1
:103F2000C28321913191E20FF31FCE17DF0769F4AD
:103F300088819981280F391F2E5F3F4FFA01318305
:103F400020838A819B8193838283DF91CF9108951F
:103F5000283008F027E03327DA01990F311D87FD5B
:103F6000916000966105710539F432602E5F3D93D2
:103F700030E32A95E1F708959F3F30F080387105CE
:103F8000610509F03C5F3C5F3D93913008F080682B
:103F9000911DDF93CF931F930F93FF92EF92192FF1
:103FA000987F9695E92F96959695E90FFF27EA5603
:103FB000F94F99273327EE24FF24A701E701059045
:103FC0000894079428F4360FE71EF81E491F511D68
:103FD000660F771F881F991F0694A1F70590079415
:103FE00028F4E70EF81E491F561FC11D770F881FC2
:103FF000991F661F0694A1F70590079428F4F80E00
:10400000491F561FC71FD11D880F991F661F771F95
:104010000694A1F70590079420F4490F561FC71F77
:10402000D81F990F661F771F881F0694A9F78491E0
:104030001095177041F0D695C79557954795F79409
:10404000E7941A95C1F7ECE3F6E0689415901591A2
:1040500035916591959105907FE27395E118F10A8C
:10406000430B560BC90BD009C0F7E10CF11E431FDF
:10407000561FC91FD01D7EF4703311F48A95E6CF08
:10408000E894015030F0080F0AF40027021708F4F2
:10409000202F2395022F7A3328F079E37D932A95F8
:1040A000E9F710C07D932A9589F606949795679550
:1040B000379517951794E118F10A430B560BC90B66
:1040C000D00998F023957E9173957A3308F070E3C8
:1040D0007C932013B8F77E9170617D9330F08395C7
:1040E00071E37D9370E32A95E1F71124EF90FF903F
:1040F0000F911F91CF91DF91992787FD909508959A
:10410000DC012D923D924D925D926D927D928D9249
:104110009D92AD92BD92CD92DD92ED92FD920D9366
:104120001D93CD93DD93FF91EF918DB78D938EB756
:104130008D938FB78D93ED93FD93882799270994DD
:10414000DC01CB0181309105811D2D903D904D907A
:104150005D906D907D908D909D90AD90BD90CD9037
:10416000DD90ED90FD900D911D91CD91DD91ED9142
:10417000FD910D90F894FEBF0FBEEDBFED91FD9146
:104180000994FB01DC014150504048F005900D922C
:104190000020C9F701C01D9241505040E0F708953A
:1041A000FC010590615070400110D8F78095909502
:1041B0008E0F9F1F0895FC01615070400190011007
:1041C000D8F7809590958E0F9F1F08950F931F939A
:1041D000CF93DF938C01EB018B8181FF1BC082FFAA
:1041E0000DC02E813F818C819D812817390764F491
:1041F000E881F9810193F983E88306C0E885F985B0
:10420000802F0995892B31F48E819F8101969F83A0
:104210008E8302C00FEF1FEFC801DF91CF911F9176
:104220000F9108950F931F938C01FC018381886087
:104230008383C8010E941D1BF8012381277F2383EC
:104240001F910F910895FA01AA27283051F12031CA
:1042500081F1E8946F936E7F6E5F7F4F8F4F9F4F1A
:10426000AF4FB1E03ED0B4E03CD0670F781F891F5C
:104270009A1FA11D680F791F8A1F911DA11D6A0F2A
:10428000711D811D911DA11D20D009F468943F91DD
:104290002AE0269F11243019305D3193DEF6CF01DC
:1042A0000895462F4770405D4193B3E00FD0C9F7A2
:1042B000F6CF462F4F70405D4A3318F0495D31FD0F
:1042C0004052419302D0A9F7EACFB4E0A695979562
:1042D000879577956795BA95C9F700976105710538
:1042E00008959B01AC010A2E069457954795379582
:1042F0002795BA95C9F7620F731F841F951FA01DDC
:1043000008955058BB27AA270ED075C166D130F04A
:104310006BD120F031F49F3F11F41EF45BC10EF419
:10432000E095E7FB51C1E92F77D180F3BA17620717
:1043300073078407950718F071F49EF58FC10EF48A
:10434000E0950B2EBA2FA02D0B01B90190010C01A5
:10435000CA01A0011124FF27591B99F0593F50F4BD
:10436000503E68F11A16F040A22F232F342F442715
:10437000585FF3CF469537952795A795F04053950D
:10438000C9F77EF41F16BA0B620B730B840BBAF0DD
:104390009150A1F0FF0FBB1F661F771F881FC2F748
:1043A0000EC0BA0F621F731F841F48F4879577955C
:1043B0006795B795F7959E3F08F0B3CF9395880F13
:1043C00008F09927EE0F979587950895D9D008F4AE
:1043D00081E008950CD00FC107D140F0FED030F03D
:1043E00021F45F3F19F0F0C0511139C1F3C014D16D
:1043F00098F39923C9F35523B1F3951B550BBB27AC
:10440000AA2762177307840738F09F5F5F4F220F58
:10441000331F441FAA1FA9F333D00E2E3AF0E0E851
:1044200030D091505040E695001CCAF729D0FE2F9D
:1044300027D0660F771F881FBB1F2617370748072F
:10444000AB07B0E809F0BB0B802DBF01FF279358E5
:104450005F4F2AF09E3F510568F0B6C000C15F3F34
:10446000ECF3983EDCF3869577956795B795F795CD
:104470009F5FC9F7880F911D9695879597F90895C5
:10448000E1E0660F771F881FBB1F62177307840761
:10449000BA0720F0621B730B840BBA0BEE1F88F770
:1044A000E095089504D06894B111D9C00895BCD0A6
:1044B00088F09F5790F0B92F9927B751A0F0D1F00D
:1044C000660F771F881F991F1AF0BA95C9F712C097
:1044D000B13081F0C3D0B1E00895C0C0672F782F0C
:1044E0008827B85F39F0B93FCCF386957795679503
:1044F000B395D9F73EF490958095709561957F4F6F
:104500008F4F9F4F0895E89409C097FB3EF4909514
:104510008095709561957F4F8F4F9F4F9923A9F09C
:10452000F92F96E9BB279395F6958795779567952B
:10453000B795F111F8CFFAF4BB0F11F460FF1BC06F
:104540006F5F7F4F8F4F9F4F16C0882311F096E902
:1045500011C0772321F09EE8872F762F05C06623B0
:1045600071F096E8862F70E060E02AF09A95660F69
:10457000771F881FDAF7880F9695879597F9089522
:10458000990F0008550FAA0BE0E8FEEF1616170664
:10459000E807F907C0F012161306E407F50798F0CC
:1045A000621B730B840B950B39F40A2661F0232BE5
:1045B000242B252B21F408950A2609F4A140A69561
:1045C0008FEF811D811D089597F99F6780E870E046
:1045D00060E008959FEF80EC089500240A94161679
:1045E000170618060906089500240A9412161306E1
:1045F000140605060895092E0394000C11F488236F
:1046000052F0BB0F40F4BF2B11F460FF04C06F5F8A
:104610007F4F8F4F9F4F089557FD9058440F551F60
:1046200059F05F3F71F04795880F97FB991F61F034
:104630009F3F79F087950895121613061406551FAB
:10464000F2CF4695F1DF08C0161617061806991F17
:10465000F1CF86957105610508940895E894BB270C
:1046600066277727CB0197F908958ADF08F48FEF43
:1046700008950BD0C0CFB1DF28F0B6DF18F0952336
:1046800009F0A2CFA7CF1124EACFC6DFA0F3959FF0
:10469000D1F3950F50E0551F629FF001729FBB2729
:1046A000F00DB11D639FAA27F00DB11DAA1F649FD5
:1046B0006627B00DA11D661F829F2227B00DA11D88
:1046C000621F739FB00DA11D621F839FA00D611D0E
:1046D000221F749F3327A00D611D231F849F600D2F
:1046E000211D822F762F6A2F11249F5750408AF068
:1046F000E1F088234AF0EE0FFF1FBB1F661F771FF4
:10470000881F91505040A9F79E3F510570F05CCF33
:10471000A6CF5F3FECF3983EDCF3869577956795DF
:10472000B795F795E7959F5FC1F7FE2B880F911D11
:104730009695879597F90895629FD001739FF00130
:10474000829FE00DF11D649FE00DF11D929FF00D21
:10475000839FF00D749FF00D659FF00D9927729F58
:10476000B00DE11DF91F639FB00DE11DF91FBD01E3
:10477000CF011124089597FB092E07260AD077FD53
:1047800004D065D006D000201AF4709561957F4F53
:104790000895F6F7909581959F4F0895A1E21A2EFE
:1047A000AA1BBB1BFD010DC0AA1FBB1FEE1FFF1FD5
:1047B000A217B307E407F50720F0A21BB30BE40B25
:1047C000F50B661F771F881F991F1A9469F760956C
:1047D0007095809590959B01AC01BD01CF01089526
:1047E0002F923F924F925F926F927F928F929F9201
:1047F000AF92BF92CF92DF92EF92FF920F931F93EF
:10480000CF93DF93CDB7DEB7CA1BDB0B0FB6F8949F
:10481000DEBF0FBECDBF09942A88398848885F84DF
:104820006E847D848C849B84AA84B984C884DF8050
:10483000EE80FD800C811B81AA81B981CE0FD11D34
:104840000FB6F894DEBF0FBECDBFED010895AA1BD1
:10485000BB1B51E107C0AA1FBB1FA617B70710F06B
:10486000A61BB70B881F991F5A95A9F7809590959D
:06487000BC01CD0108951A
:104876000A5475726E696E67207374617465000AF6
:10488600256620202566000A4D6F76696E672073BF
:1048960074617465000A507265737320676F000A4D
:1048A60053746162696C697A696E67000A496E6958
:1048B6007469616C697A696E67006D6F746F7220D6
:1048C6006C6F636B000405020300016779726F2049
:1048D6006C6F636B006779726F000B726F626F7437
:1048E600206D6F6E69746F720075736572206D61ED
:1048F600696E00014861707079626F61726420763A
:1049060025582E25303258202020202020202020F7
:1049160020202020202005000069646C6500756E4B
:104926006B6E6F776E20696E746572727570740047
:1049360025730025730A00616463206C6F636B0046
:10494600737069206C6F636B0055415254206C6F15
:10495600636B0000000002000000003A1400000033
:10496600004C4344206C6F636B00000000020000A3
:104976000000AC1800000000736572766F206C6F43
:10498600636B006469676974616C206C6F636B00AC
:10499600656E636F646572206C6F636B0020000C3C
:0449A6000400000009
:00000001FF
