:100000000C94AF030C94CF030C94CF030C94CF0348
:100010000C94CF030C94CF030C94CF030C94CF0318
:100020000C94CF030C94CF030C9459180C94CF0369
:100030000C94CF030C94CF030C94CF030C94CF03F8
:100040000C94CF030C94CF030C94CF030C94CF03E8
:100050000C94CF030C94CF030C94CF030C94CF03D8
:100060000C94CF030C94CF030C94CF030C94CF03C8
:100070000C94CF030C94CF030C94CF030C94CF03B8
:100080000C94CF030C94CF030C94CF03072C7AA5C8
:10009000BA6CC590DA3B9365FC8BBC53F810FD3C01
:1000A0005692834DBD879D3AB63DCBC9BF5BBE73AB
:1000B000DA0FC93F7570646174655F7069643A20D6
:1000C0006E6F20696E707574007570646174655F21
:1000D0007069643A207069642064697361626C6558
:1000E00064006572726F722025302E33660A0063D9
:1000F000757272656E742076616C75652025302E80
:1001000033660A00696E69745F7069643A207069C9
:1001100064206E756C6C006D61696E000A004A6F38
:10012000794F532076302E322E33202020205072EB
:1001300065737320474F002020202020202020209E
:100140006D656D6F72792066756C6C0068656170A5
:100150002073697A653A2025642062797465730A90
:10016000005F5F6D616C6C6F635F686561705F6598
:100170006E64203D2025700A005F5F6D616C6C6FBE
:10018000635F686561705F7374617274203D2025E0
:10019000700A0072756E6177617920636F64650023
:1001A0000A526F756E6420656E64000A526F626F4A
:1001B000742072656164792E20202020507265734E
:1001C000732027476F27006C6F636B2068656C6432
:1001D00020627920616E6F746865720072656C656B
:1001E00061736520756E68656C64206C6F636B006D
:1001F00072656C65617365206E756C6C206C6F63E5
:100200006B0069735F68656C64206E756C6C206C44
:100210006F636B00616371756972656420746F6FE1
:10022000206D616E792074696D657300616371750D
:10023000697265206E756C6C206C6F636B00696E03
:100240006974206E756C6C206C6F636B00496E690D
:1002500074206661696C3A2025730A0D005541527D
:100260005430206F70656E65642061742025640AC7
:100270000D004861707079626F61726420696E6907
:100280007420737461727465640A0D00486172644D
:10029000776172652076657273696F6E2025582EBE
:1002A000253032580A0D00426F61726420494420A3
:1002B000253034580A0D00426F61726420636F6EFE
:1002C000666967204F4B0A0D00426174746572794C
:1002D000204F4B3A2025646D560A0D004650474189
:1002E000207625642E25640A0D004650474120667D
:1002F00061696C757265004C6F772062617474651A
:1003000072790042616420436F6E666967000A700B
:10031000616E69633A2025730070616E69633A20EB
:1003200025730A002074687265616420287469640A
:100330002025642920272573272073746174757321
:100340002025642072756E732025750A002074685C
:100350007265616420287469642025642920756EA3
:10036000616C6C6F63617465640A0044756D7069DB
:100370006E6720746872656164207374617465735C
:100380003A0A002050432020203A20253038700AB5
:10039000002053524547203A20253032700A002071
:1003A00053502020203A20253034700A0020465037
:1003B0002020203A20253034700A00203C6F6D69DF
:1003C0007474696E672072302D7233313E0A0044B6
:1003D000756D70696E67206A6D705F6275663A0A46
:1003E000006F7574206F66207468726561647300B5
:1003F000736C656570007969656C64006E6F20636D
:10040000757272656E745F7468726561640073748E
:1004100061636B206F766572666C6F7700726573CF
:1004200065727665642073706163653A202570207B
:10043000746F2025700A00737461636B746F703A77
:100440002025700A0070632061742025700A0073F3
:1004500070206F6620272573272028696420256473
:10046000292069732025700A000A737461636B2068
:100470006F766572666C6F770A0053502061626F09
:100480007665006E6F2069646C65006D616C6C6FE1
:1004900063207370616365205B25702C25705D0A95
:1004A00000746872656164735B305D2E74685F739D
:1004B00074617475732061742025700A0074687209
:1004C000656164735B305D2061742025700A00747F
:1004D000696D65202564002D2D206E6F2069646C88
:1004E0006520746872656164202D2D0A007363684D
:1004F0006564756C65004F6F70732E2E2E207468C6
:10050000657265277320612072756E6E61626C651D
:1005100020746872656164207468617473206E6F02
:10052000742069646C650A002074687265616420D7
:100530002874696420256429202725732720737473
:10054000617475732025640A0020746872656164A3
:1005500020287469642025642920756E616C6C6F95
:1005600063617465640A0069646C65206672656520
:10057000002869642025642920737461636B205B03
:1005800025702C2570290A007468726561642074D6
:1005900061626C6520656E642061742025700A00BC
:1005A000746872656164207461626C652073746143
:1005B00072742061742025700A0025203564202083
:1005C00020253470202020253032780A003D3D3D22
:1005D0003D3D3D3D3D3D3D3D3D3D3D3D3D3D3D3D4B
:1005E0003D0A00494E4445582020204144445220B1
:1005F000202056414C55450A0000000A0000110E0B
:100600000000000A0000111F0000000A00000E1187
:1006100000000E1F1111111F000000000000001546
:1006200000000E0E0E1F0E0400616E616C6F675F9E
:1006300072656164006D63703330303820666169C3
:100640006C006D637033303038206661696C006413
:1006500069676974616C5F72656164006E616E00E8
:10066000696E660000407A10F35A00A0724E1809B5
:100670000010A5D4E80000E87648170000E40B5409
:10068000020000CA9A3B000000E1F50500008096D8
:100690009800000040420F000000A086010000000A
:1006A000102700000000E8030000000064000000C4
:1006B00000000A00000000000100000000002C768D
:1006C000D888DC674F0823DFC1DFAE59E1B1B796A8
:1006D000E5E3E453C63AE651997696E8E6C2842605
:1006E000EB898C9B62ED407C6FFCEFBC9C9F40F2E1
:1006F000BAA56FA5F490055A2AF75C936B6CF9675D
:100700006DC11BFCE0E40D47FEF520E6B500D0ED21
:10071000902E0300943577050080841E0800002089
:100720004E0A000000C80C333333330F986E128327
:100730001141EF8D2114893BE65516CFFEE6DB18FB
:10074000D1844B381BF77C1D901DA4BBE4242032C0
:1007500084725E228100C9F124ECA1E53D271124B9
:100760001FBECFEFD0E1DEBFCDBF12E0A0E0B1E011
:10077000E0E8F4E500E00BBF02C007900D92A43B57
:10078000B107D9F71BBE14E0A4EBB2E001C01D9283
:10079000A23BB107E1F70E94CD100C94D1160C9446
:1007A000331820910B0330910C0340910D035091AD
:1007B0000E03B901CA0108956F927F928F929F92A2
:1007C000AF92BF92CF92DF92EF92FF920F931F935F
:1007D000962E872E782E692E59016A010E9446278F
:1007E00087FD11C0692D782D872D962D9701A801C1
:1007F0000E94D52818162CF0A92CB82CC72CD62C62
:1008000002C057016801B501C6011F910F91FF9009
:10081000EF90DF90CF90BF90AF909F908F907F90A0
:100820006F900895AF92BF92CF92DF92EF92FF92B6
:100830000F931F935B016C0179018A010E94462787
:1008400018162CF0C801B701A60195010CC0C6010D
:10085000B501A80197010E94E1269B01AC0160E06F
:1008600070E084EB93E40E94E1267B018C0120E0A0
:1008700030E044E353E40E94D528181654F4C8012C
:10088000B70120E030E044EB53E40E94E1267B0115
:100890008C01B701C8011F910F91FF90EF90DF907D
:1008A000CF90BF90AF900895EF92FF920F931F9358
:1008B0000E94D32621EE3EE245E652E40E94D9286A
:1008C0007B018C0120E030E040E050E00E944627B0
:1008D000882354F4C801B70120E030E044EB53E42E
:1008E0000E94E2267B018C01B701C8011F910F9184
:1008F000FF90EF9008952F923F924F925F926F92E8
:100900007F928F929F92AF92BF92CF92DF92EF929F
:10091000FF920F931F93DF93CF9300D000D000D0AE
:10092000CDB7DEB76C017E836D83DC0118962D9008
:100930003D904D905C901B976D917D918D919C9118
:10094000ED81FE8120813181428153810E94E12627
:100950009B01AC010E94D9287B018C01D601149621
:100960006D907D908D909C901797ED81FE81A48075
:10097000B580C680D780C401B301A60195010E944D
:10098000E1269B01AC010E94D9289B01AC01C80162
:10099000B7010E94E2260E94402969837A838B83F3
:1009A0009C83C601B501A40193010E94E12629811F
:1009B0003A814B815C810E944A270E9454045B016A
:1009C0006C0100D000D000D080E091E0ADB7BEB7A0
:1009D00012969C938E931197EDB7FEB723823482C3
:1009E000458256820E9492188DB79EB706960FB622
:1009F000F8949EBF0FBE8DBF88EE93E00E94EF1665
:100A000000D000D000D08FE091E0ADB7BEB7129615
:100A10009C938E931197EDB7FEB7A382B482C582E3
:100A2000D6820E9492188DB79EB706960FB6F8949C
:100A30009EBF0FBE8DBF88EE93E00E94EF16C201ED
:100A4000B101A60195010E94462718162CF0C60197
:100A5000B501A20191010CC0C201B101A60195012D
:100A60000E94E1269B01AC0160E070E084EB93E41E
:100A70000E94E1267B018C0120E030E044E353E456
:100A80000E94D528181654F4C801B70120E030E0C0
:100A900044EB53E40E94E1267B018C0100D000D09E
:100AA00000D080E291E0ADB7BEB712969C938E93D2
:100AB0001197EDB7FEB7E382F482058316830E9497
:100AC00092188DB79EB706960FB6F8949EBF0FBECC
:100AD0008DBF88EE93E00E94EF1600D000D000D0CA
:100AE00081E391E0ADB7BEB712969C938E931197B8
:100AF00089819A81AB81BC81EDB7FEB783839483F2
:100B0000A583B6830E9492188DB79EB706960FB63E
:100B1000F8949EBF0FBE8DBF88EE93E00E94EF1643
:100B2000AD81BE811896ED90FD900D911C911B97A3
:100B3000C601B501A80197010E94462718162CF09E
:100B4000C801B701A60195010CC0C601B501A801F5
:100B500097010E94E1269B01AC0160E070E084EB0C
:100B600093E40E94E1267B018C0120E030E044E325
:100B700053E40E94D528181654F4C801B70120E0A8
:100B800030E044EB53E40E94E1267B018C0100D06D
:100B900000D000D080E291E0EDB7FEB79283818370
:100BA000ADB7BEB71396ED92FD920D931C931697B9
:100BB0000E949218EDB7FEB736960FB6F894FEBFB6
:100BC0000FBEEDBF88EE93E00E94EF1626960FB69B
:100BD000F894DEBF0FBECDBFCF91DF911F910F9173
:100BE000FF90EF90DF90CF90BF90AF909F908F904D
:100BF0007F906F905F904F903F902F9008952F922D
:100C00003F924F925F926F927F928F929F92AF929C
:100C1000BF92CF92DF92EF92FF920F931F93CF93E9
:100C2000DF9339014A0197E4292E91E0392EC3E080
:100C3000D0E082E0482E512C87C02130310579F177
:100C40002130310520F022303105B9F754C000D0F1
:100C500000D000D0EDB7FEB732822182E382F48269
:100C6000058316830E9492188DB79EB706960FB61D
:100C7000F8949EBF0FBE8DBF88EE93E00E94EF16E2
:100C8000E092D102F092D2020093D3021093D402E8
:100C9000E1E0F0E0F093DE02E093DD0251C000D02D
:100CA00000D000D08BE591E0EDB7FEB79283818351
:100CB00063827482858296820E9492188DB79EB755
:100CC00006960FB6F8949EBF0FBE8DBF88EE93E0D8
:100CD0000E94EF165092DE024092DD026092F7020F
:100CE0007092F8028092F9029092FA025092EA020F
:100CF0004092E90229C000D000D000D0EDB7FEB785
:100D000032822182A382B482C582D6820E94921846
:100D10008DB79EB706960FB6F8949EBF0FBE8DBFD7
:100D200088EE93E00E94EF16A092D102B092D20218
:100D3000C092D302D092D402D093DE02C093DD02DF
:100D4000D093EA02C093E9022091DD023091DE02E5
:100D50008091E9029091EA02019709F46ECFDF9148
:100D6000CF911F910F91FF90EF90DF90CF90BF90A8
:100D7000AF909F908F907F906F905F904F903F903B
:100D80002F9008952F923F924F925F926F927F9291
:100D90008F929F92AF92BF92CF92DF92EF92FF928B
:100DA0000F931F93DF93CF9300D000D0CDB7DEB762
:100DB0007FC000D0E4E7F1E0ADB7BEB71296FC9378
:100DC000EE9311970E9492180F900F9088EE93E087
:100DD0000E94EF168091290390912A03A0912B0382
:100DE000B0912C0389839A83AB83BC8360912103E8
:100DF0007091220380912303909124032091EB02B0
:100E00003091EC024091ED025091EE020E94E126F9
:100E10009B01AC010E94D9287B018C012090250305
:100E2000309026034090270350902803A090EF02B3
:100E3000B090F002C090F102D090F202C201B10174
:100E4000A60195010E94E1269B01AC010E94D928D0
:100E50009B01AC01C801B7010E94E2260E94402913
:100E60003B014C01C601B501A20191010E94E1269E
:100E7000A40193010E944A270E9454047B018C0123
:100E80006092F7027092F8028092F9029092FA0250
:100E9000A090F302B090F402C090F502D090F60258
:100EA00069817A818B819C81A40193010E94FF0555
:100EB0008091E9029091EA02019709F47ACF0F90AC
:100EC0000F900F900F90CF91DF911F910F91FF9096
:100ED000EF90DF90CF90BF90AF909F908F907F90DA
:100EE0006F905F904F903F902F9008950F931F93B6
:100EF0008C0180E060E070E00E94700D81E060E0B5
:100F000070E00E94700DC8010E94EF161F910F91B2
:100F100008950E94EA0D882331F082E090E09093DA
:100F2000EA028093E9020895CF93DF9382E390E091
:100F30000E947607C4E8D1E01DC00E94670F00D070
:100F400000D000D0EDB7FEB7D283C1836383748332
:100F5000858396830E9492188DB79EB706960FB62A
:100F6000F8949EBF0FBE8DBF82E390E00E94EF1603
:100F70000E9489078091E9029091EA020497E9F2C0
:100F8000DF91CF9108950E94F60D882319F084E037
:100F900090E00CC00E94C7136093D7027093D802F0
:100FA0008093D9029093DA0281E090E09093EA0274
:100FB0008093E9020895CF92DF92EF92FF920F9310
:100FC0001F930E94F60D882339F084E090E09093FF
:100FD000EA028093E9023EC089E10E94A90D7C01EA
:100FE000C0901F03D090200388E10E94A90D20919A
:100FF0001D0330911E03EC18FD08E21AF30AE80EF7
:10100000F91EF694E79400E010E06091F702709109
:10101000F8028091F9029091FA0220E030E040EF6E
:1010200051E40E94D9282CE33AE94FE550E40E94AC
:10103000D9280E94B727E616F7060807190750F0C7
:1010400081E090E09093EA028093E90288EC90E0DE
:101050000E9476071F910F91FF90EF90DF90CF9045
:1010600008954F925F926F927F928F929F92AF926C
:10107000BF92CF92DF92EF92FF920F931F932B01BB
:101080003C018BEF92E040E050E060EC7FE30DEC40
:101090001CEC2CE43DE30F2EF0E0CF2EF0E0DF2E31
:1010A000F0E0EF2EF0E0FF2EF02DAA24BB248824E0
:1010B00099240E94A30B40920B0350920C03609260
:1010C0000D0370920E031F910F91FF90EF90DF9030
:1010D000CF90BF90AF909F908F907F906F905F90D8
:1010E0004F9008954F925F926F927F928F929F924E
:1010F000AF92BF92CF92DF92EF92FF920F931F9326
:101100000E94F60D882309F070C00E94670F7B01D2
:101110008C016091D1027091D2028091D3029091A2
:10112000D40220E030E040E050E40E94E1269B0140
:10113000AC01C801B7010E94D52818160CF060C098
:101140000E94670F7B018C014090D1025090D20227
:101150006090D3027090D402C301B20120E030E06D
:1011600040E050E40E94E2269B01AC01C801B701B7
:101170000E94462788230CF043C08BEF92E040E0AA
:1011800050E060EC7FE30DEC1CEC2CE43DE30F2E13
:10119000F0E0CF2EF0E0DF2EF0E0EF2EF0E0FF2EBB
:1011A000F02DAA24BB24882499240E94A30B4092EA
:1011B0000B0350920C0360920D0370920E030E9479
:1011C000C7136093D7027093D8028093D90290938B
:1011D000DA0281E090E09093EA028093E902809144
:1011E000DD029091DE02039739F484E090E0909361
:1011F000EA028093E90204C084EF91E00E9476073E
:101200001F910F91FF90EF90DF90CF90BF90AF9024
:101210009F908F907F906F905F904F900895AF92C6
:10122000BF92CF92DF92EF92FF920F931F9300D065
:1012300088E891E0EDB7FEB7928381830E9492180F
:101240000F900F9009C10E94670F5B016C01E09045
:10125000D102F090D2020091D3021091D402C801C1
:10126000B701A60195010E94D52818160CF05EC0A2
:10127000C801B701A60195010E94E12620E030E0F7
:1012800040E05FE30E94D92820E030E040E252E4F1
:101290000E94E2267B018C0120E030E040E852EC25
:1012A0000E94462788235CF40F2EF0E0EF2EF0E03A
:1012B000FF2EF0E80F2FF2EC1F2FF02D14C0C80105
:1012C000B70120E030E040E852E40E94D52818162B
:1012D00054F40F2EF0E0EF2EF0E0FF2EF0E80F2F89
:1012E000F2E41F2FF02DC801B7010E94B2279B0125
:1012F000AC0180E0B9010E94700DC601B5012091DA
:10130000D1023091D2024091D3025091D4020E9476
:10131000E12620E030E040E05FE30E94D92820E0B1
:1013200030E040E252E40E94E1265DC0C801B7010E
:10133000A60195010E94E12620E030E040E05FE355
:101340000E94D92820E030E040E252E40E94E126E9
:101350007B018C0120E030E040E852EC0E944627FF
:1013600088235CF40F2EF0E0EF2EF0E0FF2EF0E883
:101370000F2FF2EC1F2FF02D14C0C801B70120E091
:1013800030E040E852E40E94D528181654F40F2E9D
:10139000F0E0EF2EF0E0FF2EF0E80F2FF2E41F2F29
:1013A000F02DC801B7010E94B2279B01AC0180E07B
:1013B000B9010E94700DC601B5012091D102309192
:1013C000D2024091D3025091D4020E94E12620E043
:1013D00030E040E05FE30E94D92820E030E040E2C6
:1013E00052E40E94E2267B018C0120E030E040E8DC
:1013F00052EC0E94462788235CF40F2EF0E0EF2E7B
:10140000F0E0FF2EF0E80F2FF2EC1F2FF02D14C0AC
:10141000C801B70120E030E040E852E40E94D5283E
:10142000181654F40F2EF0E0EF2EF0E0FF2EF0E847
:101430000F2FF2E41F2FF02DC801B7010E94B22731
:101440009B01AC0181E0B9010E94700D82E390E044
:101450000E94EF160E9472088091E9029091EA02C0
:10146000039709F4F0CE1F910F91FF90EF90DF905A
:10147000CF90BF90AF900895EF92FF920F931F937C
:10148000CF93DF9300D087E991E0EDB7FEB7928369
:1014900081830E9492180F900F9089E10E94A90DFC
:1014A0009093200380931F0388E10E94A90D9093DD
:1014B0001E0380931D03CEE3D0E01DC00E94670F82
:1014C000AB01BC018BEF92E00E94050C0E94B22799
:1014D0007B018C016E5B7F4F80E00E94700DBE012E
:1014E0006E197F0981E00E94700D82E390E00E94F6
:1014F000EF160E94DB078091E9029091EA020297C1
:10150000E9F2DF91CF911F910F91FF90EF90089535
:101510002F923F924F925F926F927F928F929F9203
:10152000AF92BF92CF92DF92EF92FF920F931F93F1
:10153000CF93DF933FEA232E31E0332ECCEBD1E083
:101540000F2EF0E04F2EF0E05F2EF0E06F2EF0E077
:101550007F2EF02D5AC000D085EA91E0EDB7FEB79E
:10156000928381830E9492180F900F900E94850EA3
:1015700000D0EDB7FEB7328221820E9492180F9000
:101580000F9088EE93E00E94EF1600D0EDB7FEB703
:10159000D283C1830E9492180F900F9088E04BE194
:1015A0005DE26CEA74E408E813E120E030E00E94B8
:1015B00007104092D1025092D2026092D3027092F0
:1015C000D4028BEF92E040E050E060EC7FE30DEC62
:1015D0001CEC2CE43DE30F2EF0E0CF2EF0E0DF2EEC
:1015E000F0E0EF2EF0E0FF2EF02DAA24BB2488249B
:1015F00099240E94A30B40920B0350920C0360921B
:101600000D0370920E030E94C3078091E90290912E
:10161000EA02892B09F49FCFDF91CF911F910F919F
:10162000FF90EF90DF90CF90BF90AF909F908F9002
:101630007F906F905F904F903F902F90089581E240
:1016400093E09093D6028093D5028BEE92E0909334
:10165000DC028093DB0280E090E0A0E0BFE38093B7
:10166000210390932203A0932303B0932403809338
:10167000250390932603A0932703B093280380E0CB
:1016800090E0A0EAB1E48093290390932A03A09309
:101690002B03B0932C0380E090E0A0E0B0E48093B3
:1016A000EB029093EC02A093ED02B093EE0280E087
:1016B00090E0A0E4B0E48093EF029093F002A09356
:1016C000F102B093F20280E090E0A0E0B0E08093FD
:1016D000F3029093F402A093F502B093F6021092F5
:1016E000EA021092E9021092DE021092DD0280916D
:1016F000E9029091EA0282309105B1F083309105C0
:1017000030F4009759F081309105A9F70AC0833071
:10171000910569F08430910571F70CC00E94880A28
:10172000E6CF0E94C206E3CF0E943C0AE0CF0E94AF
:101730000F09DDCF0E949407DACF80E00E94CA1023
:1017400080E090E008952F923F924F925F926F92C7
:101750007F928F929F92AF92BF92CF92DF92EF9241
:10176000FF920F931F93DF93CF9300D000D0CDB79C
:10177000DEB73C011A012B0109831A832B833C83BA
:10178000009721F484E091E00E946513D3012D922B
:101790003D924D925C92139789819A81AB81BC8175
:1017A000F30184839583A683B783D3011896CD92E2
:1017B000DD92ED92FC921B971D96BC92AE921C9707
:1017C0001F969C928E921E9780E090E0A0E0B0E081
:1017D000848B958BA68BB78B108E11A20F900F90D8
:1017E0000F900F90CF91DF911F910F91FF90EF908D
:1017F000DF90CF90BF90AF909F908F907F906F9031
:101800005F904F903F902F9008952F923F924F926C
:101810005F926F927F928F929F92AF92BF92CF9280
:10182000DF92EF92FF920F931F93CF93DF93EC0120
:101830001A012B0100D000D000D08FEE90E0EDB760
:10184000FEB79283818343835483658376830E94AA
:10185000401A688979898A899B89A20191010E942D
:10186000E1265B016C0182EE90E0EDB7FEB792835A
:101870008183A382B482C582D6820E94401AC601A7
:10188000B501288139814A815B810E94D9287B0179
:101890008C018DB79EB706960FB6F8949EBF0FBE0B
:1018A0008DBF888D882359F40F2EF0E0AF2EF0E025
:1018B000BF2EF0E0CF2EF0E0DF2EF02D52C00E94C0
:1018C000C7132D8D3E8D4F8D58A1621B730B840B5A
:1018D000950B0E94E3272FE632E143E85AE30E948A
:1018E000D9283B014C01A60195010E94D9282C89D9
:1018F0003D894E895F890E94E2265B016C012C8143
:101900003D814E815F810E94D9289B01AC01C801B5
:10191000B7010E94E2267B018C01C401B30120E0E3
:1019200030E040E050E00E9446278823D1F0C20119
:10193000B101298D3A8D4B8D5C8D0E94E126288561
:1019400039854A855B850E94D928A40193010E94AC
:101950004A279B01AC01C801B7010E94E2267B0126
:101960008C0181E0888FAC8ABD8ACE8ADF8A298E7D
:101970003A8E4B8E5C8E0E94C7136D8F7E8F8F8F39
:1019800098A3EE85FF85309719F0C801B701099536
:10199000B701C801DF91CF911F910F91FF90EF9098
:1019A000DF90CF90BF90AF909F908F907F906F907F
:1019B0005F904F903F902F900895CF93DF93EC016D
:1019C00089A1882321F489EC90E00E9465138C851D
:1019D0009D85892B21F484EB90E00E946513EC85B2
:1019E000FD850995AB01BC01CE010E94050CDF917C
:1019F000CF910895CF93DF93EC01CE010E94DD0CCF
:101A0000FCCF1F93CF93DF93CDB7DEB728970FB6E8
:101A1000F894DEBF0FBECDBF182F8DE293E00E9479
:101A2000EC11DE011396E5EDF1E086E001900D92F8
:101A30008150E1F7FE01E10FF11D63817727685FB7
:101A40007F4FAE014F5F5F4F80E090E00E94181B18
:101A50008DE293E00E94861189819A8128960FB6C3
:101A6000F894DEBF0FBECDBFDF91CF911F910895D7
:101A70000F931F930E94010D8C01B801882777FDF9
:101A80008095982F0E94E52717FF06C020E030E0E0
:101A900040E857E40E94E22628E431EE40E851E4B1
:101AA0000E94D9280E94B727DC01CB011F910F911A
:101AB0000895FF920F931F93F82E0DE213E0C801D3
:101AC0000E94EC11FF0CEF2DFF27E050FF4E83E04A
:101AD0008083C8010E9486111F910F91FF90089585
:101AE0001F93CF93DF93182FEB018DE293E00E94B9
:101AF000EC11110F1C161D0634F4E12FFF27E050E6
:101B0000FF4E81E007C0E12FFF27209729F0E0502A
:101B1000FF4E82E0808303C0E050FF4E1082E12F31
:101B2000FF27EF5FFE4EBE01D7FF03C070956195A2
:101B30007F4F60838DE293E00E948611DF91CF9109
:101B40001F9108956AEC71E08DE293E00E94D61136
:101B50000895EF92FF920F931F93082F32E3E32E25
:101B600033E0F32EC7010E94EC11A02FBB27AA0F70
:101B7000BB1FEA2FE452FF27E050FF4E8191008106
:101B80001127102F00279927082B192BAC57BD4F71
:101B90008D919C91081B190BC7010E948611C801E9
:101BA0001F910F91FF90EF9008951F93182F0E949F
:101BB000A90DE12FFF27EE0FFF1FEC57FD4F91837B
:101BC00080831F9108956BED71E082E393E00E94A2
:101BD000D611089581B1992725E0969587952A9584
:101BE000E1F78095909581709070089581B1992763
:101BF00034E0969587953A95E1F7809590958170B8
:101C0000907008950F931F93CF93DF93CDB7DEB7F6
:101C100022970FB6F894DEBF0FBECDBFAE014F5F67
:101C20005F4F6FE070E080E090E00E94181B098138
:101C30001A81B801882777FD8095982F0E94E527A3
:101C400017FF06C020E030E040E857E40E94E2269B
:101C50002CE135E441E251E40E94D9280E94B727E3
:101C6000DC01CB0122960FB6F894DEBF0FBECDBFCC
:101C7000DF91CF911F910F910895CF93DF93CDB74F
:101C8000DEB722970FB6F894DEBF0FBECDBFAE0110
:101C90004F5F5F4F61E070E080E090E00E945A1972
:101CA00089819A8122960FB6F894DEBF0FBECDBF10
:101CB000DF91CF910895CF92DF92EF92FF920F9331
:101CC0001F936C017B010E943D0EAA27BB27EC18D5
:101CD000FD080894E11CF11C00271127BC01CD016F
:101CE000A80197010E94A1294AE0969587957795CA
:101CF00067954A95D1F7C60ED71EC6011F910F9161
:101D0000FF90EF90DF90CF9008950D99FECF80E087
:101D10008A95F1F70D9BFECF08950C99FECF80E0D8
:101D20008A95F1F70C9BFECF08952F923F924F9228
:101D30005F926F927F928F929F92AF92BF92CF925B
:101D4000DF92EF92FF920F931F93CF93DF937B016C
:101D50009C014427552760E874E88EE190E00E94DA
:101D6000D329E901C90196958795969587951C0118
:101D70004424552400271127C801B7012CE231E083
:101D800040E050E00E94A1293B014C01AA24BB2461
:101D9000650157C0C49ABE01882777FD8095982FAA
:101DA0000E94E527D7FF06C020E030E040E857E476
:101DB0000E94E2262BEA3AEA4AE250E40E94D9283D
:101DC0007B018C0120E030E040E85FE30E94462781
:101DD000882314F461E010C020E030E04FE753E4C2
:101DE000C801B7010E94D528181614F460E004C099
:101DF000C801B7010E94B7276A95F1F7C49820E09F
:101E000030E040E85FE3C801B7010E94462788231D
:101E100014F461E010C020E030E04FE753E4C80163
:101E2000B7010E94D528181614F460E004C0C80158
:101E3000B7010E94B7276A95F1F7A20CB31CC41C26
:101E4000D51CA614B704C804D90408F4A3CFDF91A5
:101E5000CF911F910F91FF90EF90DF90CF90BF90A7
:101E6000AF909F908F907F906F905F904F903F903A
:101E70002F900895CF92DF92EF92FF920F931F93CE
:101E80007B018C0187E3C82E83E0D82EC6010E9417
:101E9000EC112091BC023091BD024091BE025091E4
:101EA000BF02C801B7010E94D9286093C002709395
:101EB000C1028093C2029093C302C6010E948611A0
:101EC0001F910F91FF90EF90DF90CF900895CF92E8
:101ED000DF92EF92FF920F931F9307E313E0C80185
:101EE0000E94EC116091C0027091C1028091C20207
:101EF0009091C3022091BC023091BD024091BE027C
:101F00005091BF020E944A276B017C01C8010E94C8
:101F10008611C701B6011F910F91FF90EF90DF90DE
:101F2000CF9008956F927F928F929F92AF92BF92BF
:101F3000CF92DF92EF92FF920F931F930E94C713ED
:101F40005B016C018091F7010E94D91F7C010E9406
:101F5000C7133B014C0100271127C801B7010E949C
:101F6000E5272091C5023091C6024091C7025091E9
:101F7000C8020E94E1267B018C01A40193012A1969
:101F80003B094C095D0957FD05C0CA01B9010E9412
:101F9000E52714C0CA01B90161707070807090703B
:101FA0005695479537952795622B732B842B952B48
:101FB0000E94E5279B01AC010E94E2269B01AC0137
:101FC000C801B7010E94D9287B018C0187E393E007
:101FD0000E94EC116091C0027091C1028091C20216
:101FE0009091C302A80197010E94E1266093C0026C
:101FF0007093C1028093C2029093C30287E393E07F
:102000000E9486110E94A616640153019BCF4F9235
:102010005F926F927F928F929F92AF92BF92CF9278
:10202000DF92EF92FF920F931F93CF93DF93CDB781
:10203000DEB724970FB6F894DEBF0FBECDBF09837D
:102040001A832B833C838093F7014093BC02509307
:10205000BD026093BE027093BF020E94C7132B01A2
:102060003C01CC24DD2476010F2EF0E08F2EF0E031
:102070009F2EF0E0AF2EF0E0BF2EF02D21C080911A
:10208000F7010E94D91F8C01B801882777FD809540
:10209000982F0E94E52717FF06C020E030E040E8B7
:1020A00057E40E94E2269B01AC01C501B4010E94E5
:1020B000E2264B015C010894C11CD11CE11CF11CFF
:1020C0000E94C713641975098609970929813A8105
:1020D0004B815C81621773078407950780F2F7FCD8
:1020E00005C0C701B6010E94E52714C0C701B601AB
:1020F0006170707080709070F694E794D794C79474
:102100006C297D298E299F290E94E5279B01AC011E
:102110000E94E2269B01AC01C501B4010E944A273E
:102120006093C5027093C6028093C7029093C80261
:1021300080E090E0A0E0B0E08093C0029093C10204
:10214000A093C202B093C30268EE71E087E393E00C
:102150000E94D61122EF31E040E060E071E082E9B8
:102160009FE00E945D1724960FB6F894DEBF0FBE65
:10217000CDBFDF91CF911F910F91FF90EF90DF9036
:10218000CF90BF90AF909F908F907F906F905F9017
:102190004F900895809310020895CFEFD0E1DEBFF5
:1021A000CDBF8091C9029091CA02892B21F083E9A9
:1021B00091E00E94651383E897E09093B2028093C8
:1021C000B1020E9495128091AF029091B0029F934C
:1021D0008F9389E791E09F938F930E94401A80919B
:1021E000B1029091B2029F938F9381E691E09F9309
:1021F0008F930E94401A8091B1029091B202209177
:10220000AF023091B002821B930B880F991F9F93EE
:102210008F938CE491E09F938F930E94401A8DB727
:102220009EB70C960FB6F8949EBF0FBE8DBF20913F
:10223000AF023091B0028091B1029091B2022817A2
:10224000390720F087E391E00E9465130E94121E77
:102250000EE111E01F930F930E94EF1E1F930F9347
:102260000E94401A8CE191E09F938F930E94401A44
:102270000E94850E0E94BA1728EF31E040E060E02E
:1022800071E087E591E10E945D170E94B31587E137
:1022900091E00E9465138DB79EB706960FB6F8942D
:1022A0009EBF0FBE8DBF80E090E00C94D1160E94BF
:1022B0009D0B8BEA91E09F938F930E94EF1E0E94EB
:1022C000850E0E94121E26E032E040E060E071E0E0
:1022D0008FE19BE00E945D170F900F90809110029C
:1022E000882319F40E94A616FDCF80E69AEE0E947C
:1022F000EF1680EA91E09F938F930E94EF1E0E9459
:10230000B9140F900F9080E090E008951F93CF9341
:10231000DF93EC01892B21F480EF91E00E9465139B
:102320001FB7F8948881882321F48CED91E00E94F6
:1023300065132B813C818091C9029091CA022817B4
:10234000390721F087EC91E00E9465138881815064
:102350008883882311F41C821B828FB71078812B0D
:102360008FBFDF91CF911F910895CF93DF93EC0141
:10237000892B21F482E092E00E9465132091C9022A
:102380003091CA028B819C812817390719F080E0AF
:1023900090E009C090E08881882309F491E081E011
:1023A0009827892F9927DF91CF9108950F931F9335
:1023B000CF93DF93EC018B01892B21F48EE392E024
:1023C0000E94651318821A8309831C821B82DF9185
:1023D000CF911F910F910895CF93DF93EC01892B3B
:1023E00021F48CE292E00E94651388818F3F21F4F2
:1023F00084E192E00E9465135FB75078F8942B81D6
:102400003C818091C9029091CA02488128173907FE
:1024100019F44F5F48830AC0442361F481E0888344
:102420008091C9029091CA029C838B838FB7852BC0
:102430008FBF06C08FB7852B8FBF0E94A616DCCF3B
:10244000DF91CF9108950F931F93CF93DF93CDB773
:10245000DEB761970FB6F894DEBF0FBECDBF8C011B
:1024600041E150E0BC01CE0101960E941326198A79
:102470001F930F938DE492E09F938F930E94401AD5
:1024800080E10E94291E1F930F930E942C1F8FE151
:102490000E94291E60E070E083E00E943F1E8DB71D
:1024A0009EB706960FB6F8949EBF0FBE8DBFFFCFA6
:1024B00060E070E080E090E00E94141C6FED72E03C
:1024C0008AE090E00E94C81B0E942B1DEFEDF2E015
:1024D00020E030E081913827032E0294902D9F70E8
:1024E0009327832F8025880F807E9827802D832730
:1024F000807F8695032E000C881F3695369536957D
:102500003F7138273227292F82E0E73EF80711F77D
:1025100040E050E08091E7029091E80228173907E7
:1025200011F441E050E0CA0108950E942F191F9A4A
:1025300080E09BE40E94F51980E792E09093B1045B
:102540008093B00480E09BE49F938F938DE592E0AD
:102550009F938F930E94401A82E792E09F938F93FC
:102560000E94401A0E9468200E94E30D0E94BD193B
:102570000E94A20D0E94D21F0E94481F87E892E08D
:102580009093AF048093AE040E9489190E94321880
:102590000E9458122DB73EB72A5F3F4F0FB6F894EE
:1025A0003EBF0FBE2DBF882321F483E093E00E943D
:1025B000231287EB92E09F938F930E94401A8091A1
:1025C000DF029091E0029C0130703F932F93892F9E
:1025D00099279F938F938CE892E09F938F930E940B
:1025E000401A8091E1029091E2029F938F9387EAD3
:1025F00092E09F938F930E94401A8091DF02909106
:10260000E0029C0130703F932F93892F99279F936D
:102610008F9381E192E09F938F930E942C1F0E94E1
:10262000020E2DB73EB72E5E3F4F0FB6F8943EBF59
:102630000FBE2DBF8C549D4120F487EF92E00E9485
:1026400023120E94020E9F938F9389EC92E09F9336
:102650008F930E94401A6091E5027091E60280E03B
:1026600091E00E94991A0F900F900F900F9088237D
:1026700021F48AEE92E00E9423128091FF112091B2
:10268000FE1199279F938F9333273F932F938CEDC0
:1026900092E09F938F930E94401A8FE10E94291E1F
:1026A00060E070E081E00E943F1E1E9864EC79E0DB
:1026B00082EC91E00E94950E8DB79EB706960FB6FC
:1026C000F8949EBF0FBE8DBF0895CF93DF93CDB713
:1026D000DEB76A970FB6F894DEBF0FBECDBFBC0160
:1026E000F894892B41F04AE150E0CE0101960E9416
:1026F00013261A8E01C019821092990410929D041B
:1027000010929C04CE0101969F938F938EE093E0EC
:102710009F938F930E94EF1E0E94B9140F900F9009
:102720000F900F906A960FB6F894DEBF0FBECDBF24
:10273000DF91CF910895CF93DF93EC01F89410923D
:10274000990410929D0410929C040E94121E2097DE
:1027500011F4C5E3D2E0DF93CF9389E193E09F9337
:102760008F930E94EF1E0E94B9140F900F900F904C
:102770000F90DF91CF91089583E085BD83E884BDFC
:1027800086B7806486BF87B7806487BF08952FB7F8
:10279000F8946091CB027091CC028091CD0290911F
:1027A000CE023FB72078322B3FBF08953FB7F89451
:1027B0006091CB027091CC028091CD029091CE02BB
:1027C0002FB73078232B2FBF28EE33E040E050E0C6
:1027D0000E94A12908959C01F894E6E8F3E041E005
:1027E0008081833031F4828593858217930709F4C1
:1027F0004083BC9684E0EE38F80791F7789408950A
:1028000077278CE291E0689F9001699F300D789F57
:10281000300D112487EB9FE0821B930B0895FF92EC
:102820000F931F93CF93DF93FFB6F8948BE693E05B
:102830009F938F930E94401A00E010E0CAE5D3E016
:102840000F900F902881222369F41F930F938DE43A
:1028500093E09F938F930E94401A0F900F900F90D8
:102860000F9020C08A819B81AC81BD81BF93AF93C3
:102870009F938F93822F99279F938F938C859D850C
:102880009F938F931F930F9384E293E09F938F9373
:102890000E94401A8DB79EB70C960FB6F8949EBF53
:1028A0000FBE8DBF0F5F1F4FAC960730110551F65D
:1028B0008FB790E8F9228F298FBFDF91CF911F91B9
:1028C0000F91FF9008950F931F938C018FEC93E06D
:1028D0009F938F930E94401A8BEB93E09F938F936B
:1028E0000E94401AF80180899189AA27BB27BF93CB
:1028F000AF939F938F938DEA93E09F938F930E9462
:10290000401AF80182899389AA27BB27BF93AF9306
:102910009F938F938FE993E09F938F930E94401A28
:10292000F80184899927AA27BB27BF93AF939F9368
:102930008F9381E993E09F938F930E94401AF8014F
:1029400085899689AA27BB27BF93AF939F938F93BF
:1029500083E893E09F938F930E94401A8DB79EB7B0
:102960004C960FB6F8949EBF0FBE8DBF1F910F916E
:102970000895CF93DF93F89410922D0310923103B2
:1029800010923003C0E0D0E08C2F0E94590D2196A8
:10299000C630D105C9F7FFCF0F931F93CF93DF93B5
:1029A000EC010AE513E080915A03813009F44BC031
:1029B00087ED94E09F938F930E94401A8091CB0201
:1029C0009091CC02A091CD02B091CE02BF93AF9373
:1029D0009F938F938FEC94E09F938F930E94401A64
:1029E0000E5110401F930F93025E1F4F8DEB94E02A
:1029F0009F938F930E94401A1F930F9381EA94E054
:102A00009F938F930E94401A8091B1029091B202DD
:102A10009F938F938091AF029091B0029F938F9379
:102A20008BE894E09F938F930E94401A83E894E090
:102A30000E9465134DB75EB74A5E5F4F0FB6F894BC
:102A40005EBF0FBE4DBF8D8D99272CE231E0A901ED
:102A5000849F9001859F300D949F300D112487EB4A
:102A60009FE0821B930B2A893B898217930720F4EE
:102A70008AE794E00E946513898D9A8D2A893B89A3
:102A8000821B930B2B8D3C8D2817390708F04CC007
:102A900089E694E09F938F930E94401A8A899B89CC
:102AA0009F938F938D8D99279F938F938AA59BA535
:102AB0009F938F938FE494E09F938F930E94401A8B
:102AC000CE010E9463148D899E899F938F9385E424
:102AD00094E09F938F930E94401A898D9A8D9F93C3
:102AE0008F9387E394E09F938F930E94401A898D80
:102AF0009A8D9F938F932B8D3C8D821B930B019608
:102B00009F938F938DE194E09F938F930E94401A3F
:102B10008EE094E00E9465138DB79EB748960FB67D
:102B2000F8949EBF0FBE8DBFDF91CF911F910F9183
:102B300008959093CA028093C9020E94CC14E09138
:102B4000C902F091CA0280A191A1A2A1B3A10196EC
:102B5000A11DB11D80A391A3A2A3B3A361E070E066
:102B6000CF010E94F225AF92BF92CF92DF92EF92F7
:102B7000FF920F931F93CF93DF93E091C902F091DF
:102B8000CA02309719F4AA24BB2403C0858DA82E4D
:102B9000BB2481E0C82ED12C75010894E11CF11CE6
:102BA000C70167E070E00E94C0298C01892B09F4FD
:102BB00055C08CE290E0089FE001099FD00D189F5E
:102BC000D00D1124C45CDC4F8E8D8430B1F4209183
:102BD000CB023091CC024091CD025091CE028CA11B
:102BE0009DA1AEA1BFA1281739074A075B0750F086
:102BF00081E08E8FCE010E9499158E8D813011F467
:102C0000CE012AC06CE270E0A69EF001A79EF00DF6
:102C1000B69EF00D1124E45CFC4F868D8430F1F4F7
:102C20002091CB023091CC024091CD025091CE0246
:102C300084A195A1A6A1B7A1281739074A075B0768
:102C400068F081E0868F069FC001079F900D169F58
:102C5000900D1124845C9C4F0E9499150894C11C0E
:102C6000D11C0894E11CF11C88E0C816D10409F0BD
:102C700097CF80915A03813021F48CE393E00E9436
:102C80009915F89400E010E0CAE5D3E08881882324
:102C900069F41F930F9389E495E09F938F930E94AB
:102CA000401A0F900F900F900F9022C099279F937A
:102CB0008F938C859D859F938F931F930F9388E2AD
:102CC00095E09F938F930E94401A8DB79EB7089608
:102CD0000FB6F8949EBF0FBE8DBF8881813041F43E
:102CE00086EF94E09F938F930E94401A0F900F906D
:102CF0000F5F1F4FAC960730110541F68DEE94E043
:102D00000E946513DF91CF911F910F91FF90EF907B
:102D1000DF90CF90BF90AF9008958091C9029091BD
:102D2000CA02892B21F48CEF93E00E9465138091F5
:102D3000C9029091CA020E94D225892B31F461E028
:102D400070E080E794E00E94F2250895F8941F92C5
:102D50000F922F933F934F935F936F937F938F9334
:102D60009F93AF93BF93EF93FF938091C90290918C
:102D7000CA02892B21F486EF93E00E9465130E941A
:102D80008D16FF91EF91BF91AF919F918F917F91A0
:102D90006F915F914F913F912F910F901F90789479
:102DA00008950E94A616FDCFCF93DF93EC01F8940F
:102DB0008091C9029091CA02892B21F480EF93E09F
:102DC0000E946513E091C902F091CA02D1A7C0A781
:102DD00083E0868F0E94A616DF91CF910895EF922F
:102DE000FF920F931F938C010FB607FC37C0B801F9
:102DF000882777FD8095982F0E94E52717FF06C04A
:102E000020E030E040E857E40E94E22620E030E095
:102E10004AEF54E40E94D9287B018C0120E030E085
:102E200040E85FE30E94462788231CF481E090E09D
:102E300012C020E03FEF4FE757E4C801B7010E94FE
:102E4000D52818161CF480E090E005C0C801B70131
:102E50000E94B727CB010197F1F720C0F894E091C9
:102E6000C902F091CA0284E0868F8091CB029091D2
:102E7000CC02A091CD02B091CE02E091C902F091B6
:102E8000CA02980144275527820F931FA41FB51F1C
:102E900084A395A3A6A3B7A30E94A6161F910F9182
:102EA000FF90EF9008950E940F1488EB9BE00E9422
:102EB000EF16F9CF0E94A616FDCF0F931F93CF9365
:102EC000DF938C016FB7F89440E050E0EAE5F3E05F
:102ED0008081882359F04F5F5F4FBC964730510582
:102EE000B9F781EE93E00E946513FFCF8CE290E08A
:102EF000489FD001499FB00D589FB00D1124A45C8C
:102F0000BC4F81E0ED018E8F3BA72AA7FD0110A2E7
:102F100011A212A213A22CE231E0348F238F89E197
:102F200019928A95E9F7842F9927F9018E9F9001CC
:102F30008F9F300D9E9F300D1124E7EBFFE0E21BC9
:102F4000F30B21ED36E120833197232F33272083A4
:102F50003197ED01FB8BEA8B1E8B0D8B2C89206842
:102F60002C8B2FB76078262B2FBFDF91CF911F912D
:102F70000F910895EF92FF920F931F93CF93DF93DA
:102F80000CE313E01F930F9380EA95E09F938F93D8
:102F90000E94401A80E794E09F938F9388E895E021
:102FA0009F938F930E94401AE801EE24FF2407EBC1
:102FB0001FE08DB79EB708960FB6F8949EBF0FBE60
:102FC0008DBFED8E1E8EC8011A8F098F18A219A20F
:102FD0001AA21BA20C5211401F930F939F938F9321
:102FE000FF92EF9281E795E09F938F930E94401AA2
:102FF0000894E11CF11CAC968DB79EB708960FB6ED
:10300000F8949EBF0FBE8DBF97E0E916F104C9F694
:1030100026E332E040E060E071E08AE597E10E945B
:103020005D1780915A03882321F487E695E00E947A
:10303000651380E794E00E94D2258FEF90E1909392
:1030400083048093820483EB95E1909386048093BC
:1030500085040E94BC13DF91CF911F910F91FF90C7
:10306000EF90089508951F920F920FB60F921124BA
:103070002F933F934F935F936F937F938F939F9380
:10308000AF93BF93EF93FF938BE392E00E9465139E
:10309000FF91EF91BF91AF919F918F917F916F9130
:1030A0005F914F913F912F910F900FBE0F901F9006
:1030B00018951F920F920FB60F9211242F933F93E2
:1030C0004F935F936F937F938F939F93AF93BF9330
:1030D000EF93FF9383E884BD8091CB029091CC0263
:1030E000A091CD02B091CE020196A11DB11D809399
:1030F000CB029093CC02A093CD02B093CE020E945B
:103100008D16FF91EF91BF91AF919F918F917F911C
:103110006F915F914F913F912F910F900FBE0F9044
:103120001F901895CF92DF92EF92FF920F931F930B
:10313000CF93DF93CDB7DEB722970FB6F894DEBFFB
:103140000FBECDBF8E01035F1F4FF801E190F190DC
:103150008F0189E9C82E84E0D82EC6010E94EC11A7
:103160001A830983A801B70187E892E00E946F20C3
:103170008C01C6010E948611C80122960FB6F894F0
:10318000DEBF0FBECDBFDF91CF911F910F91FF909A
:10319000EF90DF90CF900895FF920F931F93CF93FE
:1031A000DF938C01F62E83EE95E09F938F930E9420
:1031B000401A8DEC95E09F938F930E94401AE8018E
:1031C00000E010E00F900F900F900F9019C08881D1
:1031D00099279F938F93DF93CF931F930F938AEB3E
:1031E00095E09F938F930E94401A0F5F1F4F219687
:1031F0008DB79EB708960FB6F8949EBF0FBE8DBFD1
:103200008F2D99270817190714F3DF91CF911F917C
:103210000F91FF900895CF93DF93EC01892BD1F0AC
:103220000E94121EDF93CF938DE492E09F938F93C1
:103230000E942C1FDF93CF9380E592E09F938F93A2
:103240000E947D1A8DB79EB708960FB6F8949EBF60
:103250000FBE8DBF0E94850EDF91CF91089585B777
:10326000806885BFECE6F0E080818F778083EDE6B3
:10327000F0E080818D7F808385B78F7B85BF83EF72
:1032800087BBC69A8CEF81BB8EEC82B983B1806319
:1032900083B98DE08093610010926400E2E6F0E073
:1032A0008081846080831A9AC09A80818160808343
:1032B0001B9A0895EF92FF920F931F93CF93DF9382
:1032C0008C017B01EA0189E894E00E94EC110795EA
:1032D0000027079500640E2907B987ED86B9349B4E
:1032E000FECF349A24B185B133279927982F8827A8
:1032F000282B392B3983288389E894E00E94861192
:1033000080E090E0DF91CF911F910F91FF90EF90BF
:10331000089564E572E089E894E00E94D61108956A
:103320009C01369527956065622B6DB980FF02C0C0
:10333000709A01C0709887B3876087BB0895AC010D
:1033400020E00AC0FA01E20FF11D80818FB9779B5E
:10335000FECF8FB180832F5F2617A1F780E090E02A
:1033600008958EE894E00E94861108958EE894E016
:103370000E94EC1180E090E008956DE572E08EE827
:1033800094E00E94D61108951E9A5D9BFECF8CB9E1
:103390001E98992787FD909508951F93182F8A30BE
:1033A00019F48DE00E94CD19812F0E94C4191F913C
:1033B0000895CF93DF93EC0103C021960E94C419B6
:1033C00088818823D1F7DF91CF9108951E9A5F9B62
:1033D000FECF1E988CB1992787FD909508958BB1EB
:1033E0008078992787FD909508959C01442755275B
:1033F00094E0220F331F441F551F9A95D1F760E0C8
:1034000072E18AE790E00E94D329822F815089B926
:103410002150304040405040232F342F452F552716
:10342000209390001BB886E08093950088E18AB9CC
:1034300066E672E083E994E00E94D6110895CF9287
:10344000DF92EF92FF920F931F936C018B0123E9A0
:10345000E22E24E0F22EC7010E94EC11A801B60171
:1034600080E792E00E9464268C01C7010E948611C9
:10347000C8011F910F91FF90EF90DF90CF900895BA
:10348000CF93DF93CDB7DEB722970FB6F894DEBFA8
:103490000FBECDBFFE01379681919191FA83E983EA
:1034A000BF010E941F1A22960FB6F894DEBF0FBE0E
:1034B000CDBFDF91CF910895CF92DF92EF92FF922F
:1034C0000F931F936C018B0133E9E32E34E0F32E4D
:1034D000C7010E94EC11A801B60180E792E00E94AA
:1034E0006F208C01C7010E948611C8011F910F91A6
:1034F000FF90EF90DF90CF900895CF93DF93CDB7FB
:10350000DEB722970FB6F894DEBF0FBECDBFFE0127
:10351000379681919191FA83E983BF010E945C1AE9
:1035200022960FB6F894DEBF0FBECDBFDF91CF91CC
:103530000895DF92EF92FF920F931F93CF93DF9343
:10354000CDB7DEB728970FB6F894DEBF0FBECDBF5C
:103550008C017B01B801882799270E94141C8F3F9A
:10356000C9F3C69880E08A95F1F7C69A00E010E0AA
:1035700041C00E949A1B682F0F5F1F4F807C803CC8
:1035800019F041E0D42E08C03FE3D32ED6220E948A
:103590009A1B682F0F5F1F4F40E050E0A1E0B0E0A2
:1035A000FE01319627E030E0CD01022E02C0880FE7
:1035B000991F0A94E2F7862381934F5F5F4F215052
:1035C00030404830510581F790E012C0FE0131963D
:1035D0009E01275F3F4F8081882311F0C59A01C06B
:1035E000C598C79AC7983196E217F307A1F79F5F6E
:1035F0009D1561F70E151F0508F4BBCF0E942B1D0A
:1036000080916300992723E0969587952A95E1F7A5
:103610008170907028960FB6F894DEBF0FBECDBFB4
:10362000DF91CF911F910F91FF90EF90DF90089560
:10363000CF92DF92EF92FF920F931F93CF93DF937E
:10364000CDB7DEB723970FB6F894DEBF0FBECDBF60
:103650008C017B016A010E94B6198F3F19F48FEF2C
:103660009FEF59C08E2D880F880F8064898360E09A
:1036700082E090E00E9490190130110571F0013054
:10368000110520F002301105D1F40EC01A9863E044
:10369000CE0101960E949F1921C0C09863E0CE011F
:1036A00001960E949F191CC0809162008E7F8093BA
:1036B000620063E0CE0101960E949F1913C063E08F
:1036C000CE0101960E949F190130110549F0013089
:1036D000110520F00230110551F404C01A9A07C0F8
:1036E000C09A05C0809162008160809362008A81E7
:1036F0009927982F88272B813327822B932B26E01D
:10370000969587952A95E1F7F601918380830E942B
:10371000B11980E090E023960FB6F894DEBF0FBE9B
:10372000CDBFDF91CF911F910F91FF90EF90DF9070
:10373000CF9008951F93CF93DF93CDB7DEB7229735
:103740000FB6F894DEBF0FBECDBF61E0CE0101968B
:103750000E949F19809198048F3F49F410E061E026
:10376000CE0102960E949F191F5F1830C1F7809109
:1037700098048F5F809398048981992722960FB6C9
:10378000F894DEBF0FBECDBFDF91CF911F9108959A
:10379000EF92FF920F931F93CF93DF937C01C0E0D2
:1037A000D0E08B0106C00E949A1BF80181938F0123
:1037B0002196CE15DF05B9F780E090E0DF91CF913B
:1037C0001F910F91FF90EF900895CF93DF93CDB7A6
:1037D000DEB721970FB6F894DEBF0FBECDBF87EDE1
:1037E0008983809162008B7F8093620061E0CE01CB
:1037F00001960E949F1961E0CE0101960E949F19D7
:10380000898187FFF8CF8091620084608093620095
:1038100082E08A95F1F721960FB6F894DEBF0FBECD
:10382000CDBFDF91CF910895EF92FF920F931F9339
:10383000CF93DF93CDB7DEB724970FB6F894DEBFF2
:103840000FBECDBF7B018C010E94B6198F3F19F4CA
:103850008FEF9FEF2EC060E081E090E00E94901912
:1038600088EE8983D801C7012FE0B695A795979573
:1038700087952A95D1F78A83BB27A12F902F8F2D6B
:10388000880F8B83E0929804EC820E94E51B809164
:1038900062008B7F8093620064E08E010F5F1F4F98
:1038A000C8010E949F1964E0C8010E949F1980E02E
:1038B00090E024960FB6F894DEBF0FBECDBFDF9127
:1038C000CF911F910F91FF90EF9008958F929F924B
:1038D000AF92BF92CF92DF92EF92FF920F931F931E
:1038E000CF93DF93CDB7DEB724970FB6F894DEBF42
:1038F0000FBECDBF6B017C014A0159010E94B61970
:103900008F3F19F42FEF3FEF3EC060E081E090E081
:103910000E94901984E889831A821B82CC8280914C
:1039200062008B7F8093620064E0CE0101960E946A
:103930009F192C2D3327C9018A0D9B1D8150914061
:1039400028F0A12C41E0B42EA21AB30A00E010E046
:1039500074010BC0F70181917F01898361E0CE0181
:1039600001960E949F190F5F1F4F0A151B0591F7C3
:103970008091620084608093620082E08A95F1F712
:103980000E94B1199501C90124960FB6F894DEBFC3
:103990000FBECDBFDF91CF911F910F91FF90EF90A0
:1039A000DF90CF90BF90AF909F908F900895EF924F
:1039B000FF920F931F93CF93DF93CDB7DEB724977A
:1039C0000FB6F894DEBF0FBECDBF7B018C010E9405
:1039D000B6198F3F19F48FEF9FEF30C060E081E0A0
:1039E00090E00E94901983E58983D801C7016FE0B8
:1039F000B695A795979587956A95D1F78A83BB2742
:103A0000A12F902F8F2D880F8B831C820E94E51B86
:103A1000809162008B7F8093620064E0CE0101960A
:103A20000E949F198091620084608093620082E00E
:103A30008A95F1F70E94B11980E090E024960FB6C4
:103A4000F894DEBF0FBECDBFDF91CF911F910F91D4
:103A5000FF90EF900895E2E6F0E08081846080833B
:103A600082E08A95F1F70E94B11908950F931F9390
:103A7000CF93DF93CDB7DEB722970FB6F894DEBFB2
:103A80000FBECDBF8C0187ED89831A820E94B619C3
:103A90008F3F19F48FEF9FEF1EC060E081E090E050
:103AA0000E949019809162008B7F8093620062E097
:103AB000CE0101960E949F198091620084608093DC
:103AC000620082E08A95F1F70E94B1198A81F801BB
:103AD000808380E090E022960FB6F894DEBF0FBEA0
:103AE000CDBFDF91CF911F910F910895EF92FF927B
:103AF0000F931F93CF93DF93CDB7DEB724970FB605
:103B0000F894DEBF0FBECDBF7B018C010E94B619B9
:103B10008F3F19F48FEF9FEF30C060E081E090E0BD
:103B20000E94901983E88983D801C701EFE0B69518
:103B3000A79597958795EA95D1F78A83BB27A12FFB
:103B4000902F8F2D880F8B831C820E94E51B809104
:103B500062008B7F8093620064E0CE0101960E9438
:103B60009F198091620084608093620082E08A9550
:103B7000F1F70E94B11980E090E024960FB6F89416
:103B8000DEBF0FBECDBFDF91CF911F910F91FF9090
:103B9000EF9008958091CF02992708950F931F9376
:103BA000082F162F89E994E00E94EC11812F82954D
:103BB0008F70002329F0979A880F880F806C04C0BB
:103BC0009798880F880F806482BB80ED97E0FC0196
:103BD0003197F1F796980197F1F7612F7727002336
:103BE00049F06F707070660F771F660F771F862F12
:103BF000806C08C06F707070660F771F660F771F3C
:103C0000862F806482BB80ED97E0FC013197F1F74D
:103C100096980197F1F789E994E00E9486111F9127
:103C20000F9108950F931F9309E914E0C8010E94B2
:103C3000EC1161E080E00E94CE1D62E080E00E9415
:103C4000CE1D1092CF02C8010E9486111F910F91C4
:103C500008951F93182F89E994E00E94EC111093A6
:103C6000CF02103108F0105D1068612F80E00E94D3
:103C7000CE1D89E994E00E9486111F9108951F933B
:103C8000182F89E994E00E94EC118091D0028823DA
:103C900039F00E94121E80E00E94291E1092D0026C
:103CA0001A3031F481E08093D0021092CF0211C01B
:103CB000612F81E00E94CE1D8091CF028F3021F4D0
:103CC00060EC80E00E94CE1D8091CF028F5F8093D8
:103CD000CF0289E994E00E948611812F992787FD00
:103CE00090951F9108950F931F93CF93DF93EC014D
:103CF00089E994E00E94EC1100E010E01AC02196DE
:103D00006A3039F460E880E00E94CE1D1092CF0244
:103D100003C081E00E94CE1D0F3021F460EC80E0F2
:103D20000E94CE1D8091CF028F5F8093CF020F5FE4
:103D30001F4F6881662319F789E994E00E94861174
:103D4000DF91CF911F910F910895FF920F931F93D1
:103D5000CF93DF93F82E8B0189E994E00E94EC1158
:103D6000FF0CFF0CFF0CE80100E06F2D600F60649A
:103D700080E00E94CE1DFE01649181E00E94CE1D74
:103D80000F5F2196083089F789E994E00E94861137
:103D9000DF91CF911F910F91FF900895CF92DF9205
:103DA000EF92FF920F931F936C018B0129E9E22E92
:103DB00024E0F22EC7010E94EC11A801B60187E8A9
:103DC00092E00E9464268C01C7010E948611C801FE
:103DD0001F910F91FF90EF90DF90CF900895CF93B8
:103DE000DF93CDB7DEB722970FB6F894DEBF0FBED4
:103DF000CDBFFE01379681919191FA83E983BF018E
:103E00000E94CE1E22960FB6F894DEBF0FBECDBF25
:103E1000DF91CF910895CF92DF92EF92FF920F93AF
:103E20001F936C018B0139E9E32E34E0F32EC701B7
:103E30000E94EC11A801B60187E892E00E946F2071
:103E40008C01C7010E948611C8011F910F91FF903C
:103E5000EF90DF90CF900895CF93DF93CDB7DEB78B
:103E600022970FB6F894DEBF0FBECDBFFE01379686
:103E700081919191FA83E983BF010E940B1F2296E1
:103E80000FB6F894DEBF0FBECDBFDF91CF9108957E
:103E900080E090E00197F1F763E380E00E94CE1D9F
:103EA00062E380E00E94CE1D69EF75E081E00E9430
:103EB000A51E61E076E082E00E94A51E69E076E042
:103EC00083E00E94A51E61E176E084E00E94A51EC9
:103ED00069E176E085E00E94A51E61E276E086E079
:103EE0000E94A51E61E080E00E94CE1D62E080E09D
:103EF0000E94CE1D66E080E00E94CE1D6CE080E056
:103F00000E94CE1D6EE772E089E994E00E94D6110E
:103F100008950895CF92DF92EF92FF920F931F932F
:103F2000082F7B019EE9C92E94E0D92EC6010E947C
:103F3000EC11000F005E112700501F4EF801E192B6
:103F4000EF2CFF24E082C6010E9486111F910F9181
:103F5000FF90EF90DF90CF900895FF920F931F9303
:103F6000F82E8B01B801882777FD8095982F0E9445
:103F7000E52717FF06C020E030E040E857E40E9444
:103F8000E22621E632EC44E85FE30E94D9280E9451
:103F9000B7276F5B7F4F8F2D0E948A1F1F910F9154
:103FA000FF90089565E972E08EE994E00E94D611D1
:103FB00008951F93CF93DF93CDB7DEB722970FB647
:103FC000F894DEBF0FBECDBF182F8850883038F070
:103FD00014C082E496E00E9465130E94A61667E171
:103FE00070E0611B7109AE014F5F5F4F81E090E0AF
:103FF0000E94181B882369F71DC0812F80518830CB
:1040000038F014C085E396E00E9465130E94A6165E
:104010006FE170E0611B7109AE014F5F5F4F82E09D
:1040200090E00E94181B882369F704C089E296E09B
:104030000E94651389819A8122960FB6F894DEBF9B
:104040000FBECDBFDF91CF911F910895EF92FF92E8
:104050001F9383EAE82E84E0F82EC7010E94EC113A
:1040600010911E11C7010E9486111095812F99276A
:104070001F91FF90EF9008951F93182F8830A8F498
:1040800083EA94E00E94EC1180911E11992780959B
:10409000909502C0959587951A95E2F7182F1170A3
:1040A00083EA94E00E9486110FC0883140F40E9498
:1040B000D91F10E08150924038F011E005C08FE424
:1040C00096E00E94651310E0812F99271F910895B3
:1040D00060EA72E083EA94E00E94D6110895A1E1BB
:1040E000B0E0E5E7F0E20C94F5293C017F876E87AC
:1040F0006A01FC0117821682838181FD03C06FEF84
:104100007FEF71C39E012F5F3F4F398B288BF301E7
:104110002381EE85FF8523FD859123FF8191FF8714
:10412000EE87882309F45CC3853251F4EE85FF8560
:1041300023FD859123FF8191FF87EE87853229F446
:1041400090E0B3010E943826E2CF982F10E0882437
:1041500099241032B0F49B3269F09C3228F49032EA
:1041600051F0933271F40BC09D3239F0903349F421
:10417000116028C01260146025C0186023C010614F
:1041800021C017FD2AC0892F80538A3078F416FF8A
:1041900006C0FAE09F9E902C1124980E13C03AE0BE
:1041A000839E802C1124880E10620CC09E3221F454
:1041B00016FD16C3106406C09C3611F4106802C0C8
:1041C000983659F4EE85FF8523FD959123FF919153
:1041D000FF87EE87992309F0BCCF892F8554833060
:1041E00020F4812F8061905E07C0892F855683302F
:1041F00008F0A1C1812F8F7E86FD02C076E0972E48
:104200006FE3F62EF822953619F4F0E4FF2A07C082
:10421000963619F420E8F22A02C091109A94F7FE1B
:104220000BC03BE3391520F427E05CE3B52E0EC04C
:10423000B92CB39427E00AC047E0491528F427E0D9
:10424000BB2447E0942E02C0292DBB24C60104964E
:104250009D878C87F6016081718182819381AE0197
:104260004F5F5F4F0B2D0E94FA246C010981202EB5
:10427000332400FF04C003FD02C01DE209C0F1FEAB
:1042800002C01BE205C0F2FC02C010E001C010E257
:10429000C1018C709070892BB9F1112311F483E066
:1042A00001C084E0881510F088240AC0881AF3FC45
:1042B00007C080E290E0B3010E9438268A94C9F7D3
:1042C000112329F0812F90E0B3010E94382623FEAC
:1042D00003C00CE516E00EC000E616E00BC0E114CA
:1042E000F10409F0805290E0B3010E9438260F5F7C
:1042F0001F4F05C0EF2CFF24F0E1EF22FF24F8014F
:104300008491882361F714C1F7FE12C0BC0C24FE0F
:1043100004C08A81813309F4BA941B141CF0BB24B5
:10432000B3942DC0F8E0FB1550F538E0B32E27C04C
:10433000F6FC25C0892D90E08C159D054CF02CEFE6
:10434000C2162FEFD20624F030E8F32A01C09A9467
:10435000992049F0E2E0F0E0EC0FFD1FE90DF11DBE
:1043600080818033A1F3F7FE0AC0B92CB394892D64
:1043700090E0C816D90614F0992401C09C18F7FCE7
:1043800003C025E030E009C01C141D041CF021E02E
:1043900030E003C096012F5F3F4F112311F02F5FD4
:1043A0003F4F992029F0892D90E00196280F391F61
:1043B000882D90E02817390714F0882401C0821A4C
:1043C0004F2C5524C20189709070892B39F008C098
:1043D00080E290E0B3010E9438268A948820C1F7D9
:1043E000112329F0812F90E0B3010E94382643FE6B
:1043F00007C008C080E390E0B3010E9438268A9489
:104400008820C1F7F7FE46C08601D7FE02C000E053
:1044100010E076010894E11CF11CE01AF10A41E079
:1044200050E04C0F5D1FE40EF51E26014B1851089D
:10443000892D90E0AA24BB24A81AB90A5FEF0F3F88
:10444000150729F48EE290E0B3010E943826C016C9
:10445000D10634F0401651061CF4F701808101C0EA
:1044600080E3015010400894E11CF11C0A151B0563
:104470002CF090E0B3010E943826E0CF0C151D050A
:1044800039F49A81963318F4953311F424FE81E3BC
:1044900090E04BC08A81813309F00F7E90E0B30138
:1044A0000E9438269920A1F08EE290E0B3010E948C
:1044B000382612E0E1E0F0E0EC0FFD1FE10FF11D06
:1044C0001F5F808190E0B3010E9438269A9491F793
:1044D00044FC03C085E690E002C085E490E0B301AF
:1044E0000E943826D7FC05C0C114D10441F404FF52
:1044F00006C0D094C194D108D3948DE201C08BE260
:1045000090E0B3010E94382680E305C08F5F26EF5C
:104510003FEFC20ED31E3AE0C316D104BCF790E0C1
:10452000B3010E943826C601C096B3010E94382606
:10453000CC84DD8452C1933631F0933799F09335B2
:1045400009F059C023C0F601808189835E01089477
:10455000A11CB11C22E030E0C20ED31E21E0E22EED
:10456000F12C12C0F601A080B18016FD03C06FEFE0
:104570007FEF02C0692D70E022E030E0C20ED31E52
:10458000C5010E942D267C011F7713C0F601A08073
:10459000B18016FD03C06FEF7FEF02C0692D70E0A0
:1045A00022E030E0C20ED31EC5010E9422267C010B
:1045B000106813FF07C01BC080E290E0B3010E94A7
:1045C00038268A94882D90E0E816F906A8F30FC0E3
:1045D000F50117FD859117FF81915F0190E0B3010F
:1045E0000E94382681108A940894E108F108E114A9
:1045F000F10471F7F2C0943611F0993689F517FF7E
:1046000008C0F601208131814281538184E090E02D
:104610000AC0F601808191819C01442737FD4095B5
:10462000542F82E090E0C80ED91E9FE6F92EF122A9
:1046300057FF09C050954095309521953F4F4F4FFA
:104640005F4F90E8F92ACA01B901AE014F5F5F4F91
:104650002AE030E00E947526E82EE889EE1A41C073
:10466000953721F41F7E2AE030E01CC0197F9F3669
:1046700061F0903720F4983509F0B2C00FC0903740
:1046800039F0983709F0ACC004C028E030E00AC027
:10469000106114FD146020E130E004C014FD1660C8
:1046A00020E132E017FF08C0F6016081718182814C
:1046B000938144E050E008C0F60180819181BC0103
:1046C00080E090E042E050E0C40ED51EAE014F5FA6
:1046D0005F4F0E947526E82E5889E51A8FE7F82E5D
:1046E000F122F6FE0BC08EEFF822E91438F4F4FE46
:1046F00007C0F2FC05C09FEEF92202C01E2D01C0CA
:10470000192DF4FE0DC0FE01EE0DF11D80818033E8
:1047100019F4E9EEFE2208C01F5FF2FE05C003C0D7
:104720008F2D867809F01F5F0F2DF3FC14C0F0FE6B
:104730000FC0181510F09E2C0BC09E2C980C911ACF
:10474000182D06C080E290E0B3010E9438261F5F5A
:104750001815C0F304C0181510F4811A01C088247C
:1047600004FF0FC080E390E0B3010E94382602FFEF
:104770001DC001FD03C088E790E00EC088E590E011
:104780000BC0802F867891F001FF02C08BE201C040
:1047900080E2F7FC8DE290E0B3010E94382606C06B
:1047A00080E390E0B3010E9438269A94E914C0F3A4
:1047B000EA94E1E0F0E0EC0FFD1FEE0DF11D8081C9
:1047C00090E0B3010E943826EE2091F706C080E207
:1047D00090E0B3010E9438268A948820C1F797CCD4
:1047E000F30166817781CB016196E2E10C94112A95
:1047F000CF93DF93BC018230910510F462E070E04A
:10480000A091AA04B091AB04ED01E0E0F0E040E03B
:1048100050E021C0888199818617970769F48A81C1
:104820009B81309719F09383828304C09093AB04EB
:104830008093AA04FE0134C06817790738F4411543
:10484000510519F08417950708F4AC01FE018A811F
:104850009B819C01E9012097E9F641155105A9F1D9
:10486000CA01861B970B049708F4BA01E0E0F0E058
:104870002AC08D919C91119784179507F9F46417BC
:10488000750781F412968D919C911397309719F0CA
:104890009383828304C09093AB048093AA04FD01A8
:1048A00032964CC0CA01861B970BFD01E80FF91F19
:1048B0006193719302978D939C9340C0FD01828117
:1048C00093819C01D9011097A1F68091A804909141
:1048D000A904892B41F48091AF029091B00290938A
:1048E000A9048093A8044091B1025091B2024115ED
:1048F000510541F44DB75EB78091AD029091AE0283
:10490000481B590B2091A8043091A904CA01821BAD
:10491000930B8617970780F0AB014E5F5F4F8417AC
:10492000950750F0420F531F5093A9044093A804D9
:10493000F9016193719302C0E0E0F0E0CF01DF91F3
:10494000CF910895CF93DF93009709F450C0EC0105
:1049500022971B821A82A091AA04B091AB041097EF
:1049600009F140E050E0AC17BD0708F1BB83AA8312
:10497000FE0121913191E20FF31FAE17BF0779F4C9
:104980008D919C911197280F391F2E5F3F4F3983CE
:10499000288312968D919C9113979B838A8341154E
:1049A000510571F4D093AB04C093AA0420C01296B1
:1049B0008D919C911397AD01009711F0DC01D3CF3D
:1049C000FA01D383C28321913191E20FF31FCE17F5
:1049D000DF0769F488819981280F391F2E5F3F4FC7
:1049E000FA01318320838A819B8193838283DF91C3
:1049F000CF910895283008F027E03327DA01990F86
:104A0000311D87FD916000966105710539F43260B2
:104A10002E5F3D9330E32A95E1F708959F3F30F0F4
:104A200080387105610509F03C5F3C5F3D93913032
:104A300008F08068911DDF93CF931F930F93FF922F
:104A4000EF92192F987F9695E92F96959695E90FF5
:104A5000FF27E254F94F99273327EE24FF24A701BB
:104A6000E70105900894079428F4360FE71EF81E16
:104A7000491F511D660F771F881F991F0694A1F7C4
:104A80000590079428F4E70EF81E491F561FC11D14
:104A9000770F881F991F661F0694A1F7059007944A
:104AA00028F4F80E491F561FC71FD11D880F991FE4
:104AB000661F771F0694A1F70590079420F4490F0D
:104AC000561FC71FD81F990F661F771F881F069490
:104AD000A9F784911095177041F0D695C795579511
:104AE0004795F794E7941A95C1F7E4E6F6E06894E1
:104AF0001590159135916591959105907FE273958B
:104B0000E118F10A430B560BC90BD009C0F7E10CB1
:104B1000F11E431F561FC91FD01D7EF4703311F4C0
:104B20008A95E6CFE894015030F0080F0AF4002788
:104B3000021708F4202F2395022F7A3328F079E307
:104B40007D932A95E9F710C07D932A9589F60694FE
:104B500097956795379517951794E118F10A430BC8
:104B6000560BC90BD00998F023957E9173957A3333
:104B700008F070E37C932013B8F77E9170617D9309
:104B800030F0839571E37D9370E32A95E1F711246A
:104B9000EF90FF900F911F91CF91DF91992787FDA3
:104BA00090950895DC012D923D924D925D926D920B
:104BB0007D928D929D92AD92BD92CD92DD92ED92BD
:104BC000FD920D931D93CD93DD93FF91EF918DB7E2
:104BD0008D938EB78D938FB78D93ED93FD9388272B
:104BE00099270994DC01CB0181309105811D2D901D
:104BF0003D904D905D906D907D908D909D90AD908D
:104C0000BD90CD90DD90ED90FD900D911D91CD91D9
:104C1000DD91ED91FD910D90F894FEBF0FBEEDBFBB
:104C2000ED91FD910994FB01DC014150504048F0A9
:104C300005900D920020C9F701C01D9241505040CF
:104C4000E0F70895FC010590615070400110D8F71D
:104C5000809590958E0F9F1F0895FC0161507040C4
:104C600001900110D8F7809590958E0F9F1F0895A1
:104C70000F931F93CF93DF938C01EB018B8181FF07
:104C80001BC082FF0DC02E813F818C819D81281722
:104C9000390764F4E881F9810193F983E88306C058
:104CA000E885F985802F0995892B31F48E819F81C4
:104CB00001969F838E8302C00FEF1FEFC801DF9123
:104CC000CF911F910F9108950F931F938C01FC01B9
:104CD000838188608383C8010E946F20F80123814B
:104CE000277F23831F910F910895FA01AA27283067
:104CF00051F1203181F1E8946F936E7F6E5F7F4FA9
:104D00008F4F9F4FAF4FB1E03ED0B4E03CD0670F24
:104D1000781F891F9A1FA11D680F791F8A1F911D77
:104D2000A11D6A0F711D811D911DA11D20D009F4C7
:104D300068943F912AE0269F11243019305D319309
:104D4000DEF6CF010895462F4770405D4193B3E0F2
:104D50000FD0C9F7F6CF462F4F70405D4A3318F099
:104D6000495D31FD4052419302D0A9F7EACFB4E04A
:104D7000A6959795879577956795BA95C9F7009702
:104D80006105710508959B01AC010A2E06945795A3
:104D9000479537952795BA95C9F7620F731F841FFA
:104DA000951FA01D08959F939F774AD10F900020D3
:104DB0003AF49058A2EA2AED3FE049E450E413D0D7
:104DC000BAC15058BB27AA270ED0B5C1A6D130F022
:104DD000ABD120F031F49F3F11F41EF476C10EF4F4
:104DE000E095E7FB6CC1E92FB7D180F3BA176207F2
:104DF00073078407950718F071F49EF5CFC10EF480
:104E0000E0950B2EBA2FA02D0B01B90190010C01DA
:104E1000CA01A0011124FF27591B99F0593F50F4F2
:104E2000503E68F11A16F040A22F232F342F44274A
:104E3000585FF3CF469537952795A795F040539542
:104E4000C9F77EF41F16BA0B620B730B840BBAF012
:104E50009150A1F0FF0FBB1F661F771F881FC2F77D
:104E60000EC0BA0F621F731F841F48F48795779591
:104E70006795B795F7959E3F08F0B3CF9395880F48
:104E800008F09927EE0F979587950895F4D008F4C8
:104E900081E008950CD04FC147D140F03ED130F0B1
:104EA00021F45F3F19F00BC1511179C10EC154D1EA
:104EB00098F39923C9F35523B1F3951B550BBB27E1
:104EC000AA2762177307840738F09F5F5F4F220F8E
:104ED000331F441FAA1FA9F333D00E2E3AF0E0E887
:104EE00030D091505040E695001CCAF729D0FE2FD3
:104EF00027D0660F771F881FBB1F26173707480765
:104F0000AB07B0E809F0BB0B802DBF01FF2793581A
:104F10005F4F2AF09E3F510568F0D1C040C15F3F0E
:104F2000ECF3983EDCF3869577956795B795F79502
:104F30009F5FC9F7880F911D9695879597F90895FA
:104F4000E1E0660F771F881FBB1F62177307840796
:104F5000BA0720F0621B730B840BBA0BEE1F88F7A5
:104F6000E095089504D06894B11119C10895FCD05A
:104F700088F09F5790F0B92F9927B751A0F0D1F042
:104F8000660F771F881F991F1AF0BA95C9F712C0CC
:104F9000B13081F003D1B1E0089500C1672F782FBF
:104FA0008827B85F39F0B93FCCF386957795679538
:104FB000B395D9F73EF490958095709561957F4FA4
:104FC0008F4F9F4F0895E89409C097FB3EF490954A
:104FD0008095709561957F4F8F4F9F4F9923A9F0D2
:104FE000F92F96E9BB279395F69587957795679561
:104FF000B795F111F8CFFAF4BB0F11F460FF1BC0A5
:105000006F5F7F4F8F4F9F4F16C0882311F096E937
:1050100011C0772321F09EE8872F762F05C06623E5
:1050200071F096E8862F70E060E02AF09A95660F9E
:10503000771F881FDAF7880F9695879597F9089557
:10504000DF93CF931F930F938B01EC01ECE8F0E01B
:105050003FD071D09801AE018B01EC0160E070E0AF
:1050600080E89FE3AEDE0CD19801AE010F911F9155
:10507000CF91DF91AAC0990F0008550FAA0BE0E865
:10508000FEEF16161706E807F907C0F0121613060A
:10509000E407F50798F0621B730B840B950B39F44A
:1050A0000A2661F0232B242B252B21F408950A26B0
:1050B00009F4A140A6958FEF811D811D089597F9F0
:1050C0009F6780E870E060E008959FEF80EC0895AE
:1050D000DF93CF931F930F93FF92EF92DF927B01A9
:1050E0008C01689405C0DA2EEF016FD0FE01E894C0
:1050F000A5912591359145915591AEF3EF0173DE60
:10510000FE019701A801DA9479F7DF90EF90FF9004
:105110000F911F91CF91DF91089500240A941616E4
:10512000170618060906089500240A941216130695
:10513000140605060895092E0394000C11F4882323
:1051400052F0BB0F40F4BF2B11F460FF04C06F5F3F
:105150007F4F8F4F9F4F089557FD9058440F551F15
:1051600059F05F3F71F04795880F97FB991F61F0E9
:105170009F3F79F087950895121613061406551F60
:10518000F2CF4695F1DF08C0161617061806991FCC
:10519000F1CF86957105610508940895E894BB27C1
:1051A00066277727CB0197F9089565DF08F48FEF1D
:1051B00008950BD0C0CFB1DF28F0B6DF18F09523EB
:1051C00009F07DCF82CF1124EACFC6DFA0F3959FEF
:1051D000D1F3950F50E0551F629FF001729FBB27DE
:1051E000F00DB11D639FAA27F00DB11DAA1F649F8A
:1051F0006627B00DA11D661F829F2227B00DA11D3D
:10520000621F739FB00DA11D621F839FA00D611DC2
:10521000221F749F3327A00D611D231F849F600DE3
:10522000211D822F762F6A2F11249F5750408AF01C
:10523000E1F088234AF0EE0FFF1FBB1F661F771FA8
:10524000881F91505040A9F79E3F510570F037CF0D
:10525000A6CF5F3FECF3983EDCF386957795679594
:10526000B795F795E7959F5FC1F7FE2B880F911DC6
:105270009695879597F9089511F40EF426CF4AC0B4
:1052800073DFD0F39923D9F3CEF39F57550B87FFE4
:1052900051D056959795B0E020F4660F771F881F80
:1052A000BB1F1F930F9300249001A0018001F00108
:1052B000A0E80E0F1F1F0A1E511D601B710B8009F5
:1052C000B50B48F4600F711F801DB51F0E1B1F0B1F
:1052D0000A0A510907C02E0F3F1F4A1F0E0F1F1F3A
:1052E0000A1E511D660F771F881FBB1FA695F795D5
:1052F000E795F8F60617170708065B07211D311D0D
:10530000411D0F911F91B901842F9158880F9695D7
:10531000879508959F3F49F0915028F48695779599
:105320006795B7959F5F80389F4F880F96958795B3
:1053300097F9089591505040660F771F881FD2F754
:105340000895629FD001739FF001829FE00DF11DCF
:10535000649FE00DF11D929FF00D839FF00D749FEF
:10536000F00D659FF00D9927729FB00DE11DF91F9B
:10537000639FB00DE11DF91FBD01CF0111240895F8
:1053800097FB092E07260AD077FD04D065D006D0FA
:1053900000201AF4709561957F4F0895F6F7909567
:1053A00081959F4F0895A1E21A2EAA1BBB1BFD01F8
:1053B0000DC0AA1FBB1FEE1FFF1FA217B307E407F4
:1053C000F50720F0A21BB30BE40BF50B661F771F4C
:1053D000881F991F1A9469F760957095809590952C
:1053E0009B01AC01BD01CF0108952F923F924F92D6
:1053F0005F926F927F928F929F92AF92BF92CF9265
:10540000DF92EF92FF920F931F93CF93DF93CDB76D
:10541000DEB7CA1BDB0B0FB6F894DEBF0FBECDBFE5
:1054200009942A88398848885F846E847D848C84B6
:105430009B84AA84B984C884DF80EE80FD800C81BF
:105440001B81AA81B981CE0FD11D0FB6F894DEBFA2
:105450000FBECDBFED010895AA1BBB1B51E107C0D4
:10546000AA1FBB1FA617B70710F0A61BB70B881FF4
:10547000991F5A95A9F780959095BC01CD01089583
:105480000A696E697420616E676C65202566000A82
:10549000506F6C69776869726C20697320256600AB
:1054A0000A5475726E20256620646567726565739F
:1054B000000A4D6F766520666F72776172642025F1
:1054C000662066656574000A57414E5420544F208B
:1054D0005455524E20544F202566000A57414E54D1
:1054E00020544F204D4F564520464F52574152446D
:1054F000202566000A506C616E6E696E67207374B9
:10550000617465000A2566000A5475726E696E67DB
:10551000207374617465000A4D6F76696E6720733D
:1055200074617465000A507265737320676F000AB6
:1055300053746162696C697A696E67000A496E69C1
:105540007469616C697A696E67006D6F746F72203F
:105550006C6F636B00040502030001656E636F648A
:105560006572206C6F636B006779726F206C6F637C
:105570006B006779726F000B726F626F74206D6FD2
:105580006E69746F720075736572206D61696E006B
:10559000014861707079626F617264207625582EBF
:1055A000253032582020202020202020202020209C
:1055B00020202005000069646C6500756E6B6E6FBD
:1055C000776E20696E746572727570740025730051
:1055D00025730A00616463206C6F636B00737069EC
:1055E000206C6F636B0055415254206C6F636B00ED
:1055F0000000000200000000CD19000000004C4334
:1056000044206C6F636B0000000002000000003F4C
:105610001E00000000736572766F206C6F636B0074
:105620006469676974616C206C6F636B002000B201
:045630000400000072
:00000001FF
