:100000000C94B6030C94D6030C94D6030C94D6032C
:100010000C94D6030C94D6030C94D6030C94D603FC
:100020000C94D6030C94D6030C94DD150C94D603D3
:100030000C94D6030C94D6030C94D6030C94D603DC
:100040000C94D6030C94D6030C94D6030C94D603CC
:100050000C94D6030C94D6030C94D6030C94D603BC
:100060000C94D6030C94D6030C94D6030C94D603AC
:100070000C94D6030C94D6030C94D6030C94D6039C
:100080000C94D6030C94D6030C94D603757064615B
:1000900074655F7069643A206E6F20696E70757464
:1000A000007570646174655F7069643A207069649A
:1000B0002064697361626C6564006572726F72209E
:1000C00025302E33660A0063757272656E74207671
:1000D000616C75652025302E33660A00696E69747F
:1000E0005F7069643A20706964206E756C6C006D95
:1000F00061696E000A004A6F794F532076302E32C4
:100100002E342D52433420202020507265737320EA
:10011000474F002020202020202020206D656D6F7B
:1001200072792066756C6C00686561702073697AFD
:10013000653A2025642062797465730A005F5F6DFB
:10014000616C6C6F635F686561705F656E64203DB4
:100150002025700A005F5F6D616C6C6F635F68657E
:1001600061705F7374617274203D2025700A0072A3
:10017000756E6177617920636F6465000A526F75EF
:100180006E6420656E64000A526F626F742072653F
:100190006164792E202020205072657373202747D8
:1001A0006F27006C6F636B2068656C642062792038
:1001B000616E6F746865720072656C65617365204D
:1001C000756E68656C64206C6F636B0072656C653E
:1001D000617365206E756C6C206C6F636B00697366
:1001E0005F68656C64206E756C6C206C6F636B006F
:1001F000616371756972656420746F6F206D616EE3
:10020000792074696D657300616371756972652029
:100210006E756C6C206C6F636B00696E6974206E18
:10022000756C6C206C6F636B00496E69742066613D
:10023000696C3A2025730A0D005541525430206FE5
:1002400070656E65642061742025640A0D00486144
:10025000707079626F61726420696E697420737462
:1002600061727465640A0D00486172647761726539
:100270002076657273696F6E2025582E25303258AE
:100280000A0D00426F6172642049442025303458C1
:100290000A0D00426F61726420636F6E66696720A9
:1002A0004F4B0A0D0042617474657279204F4B3ACE
:1002B0002025646D560A0D0046504741207625647E
:1002C0002E25640A0D0046504741206661696C7511
:1002D0007265004C6F7720626174746572790042B8
:1002E000616420436F6E666967000A70616E6963BE
:1002F0003A2025730070616E69633A2025730A0005
:1003000020746872656164202874696420256429FA
:10031000202725732720737461747573202564204A
:1003200072756E732025750A0020746872656164A9
:1003300020287469642025642920756E616C6C6FB7
:1003400063617465640A0044756D70696E6720743A
:100350006872656164207374617465733A0A002081
:1003600050432020203A20253038700A0020535274
:100370004547203A20253032700A00205350202073
:10038000203A20253034700A002046502020203AA0
:1003900020253034700A00203C6F6D697474696EDA
:1003A000672072302D7233313E0A0044756D7069DA
:1003B0006E67206A6D705F6275663A0A006F7574C9
:1003C000206F66207468726561647300736C656584
:1003D00070007969656C64006E6F20637572726578
:1003E0006E745F74687265616400737461636B201E
:1003F0006F766572666C6F7700726573657276658D
:10040000642073706163653A20257020746F202525
:10041000700A00737461636B746F703A2025700A00
:100420000070632061742025700A007370206F666D
:1004300020272573272028696420256429206973D3
:100440002025700A000A737461636B206F766572F1
:10045000666C6F770A0053502061626F7665006E9C
:100460006F2069646C65006D616C6C6F63207370E4
:10047000616365205B25702C25705D0A00746872CD
:10048000656164735B305D2E74685F73746174754D
:10049000732061742025700A00746872656164734A
:1004A0005B305D2061742025700A0074696D6520E1
:1004B0002564002D2D206E6F2069646C65207468A2
:1004C00072656164202D2D0A007363686564756C24
:1004D00065004F6F70732E2E2E207468657265272D
:1004E0007320612072756E6E61626C652074687233
:1004F000656164207468617473206E6F7420696430
:100500006C650A00207468726561642028746964EF
:10051000202564292027257327207374617475733F
:100520002025640A0020746872656164202874695B
:10053000642025642920756E616C6C6F636174653D
:10054000640A0069646C65206672656500286964E8
:100550002025642920737461636B205B25702C2532
:1005600070290A00746872656164207461626C6548
:1005700020656E642061742025700A0074687265BD
:100580006164207461626C652073746172742061AF
:10059000742025700A002520356420202025347021
:1005A000202020253032780A003D3D3D3D3D3D3D37
:1005B0003D3D3D3D3D3D3D3D3D3D3D3D3D0A0049CF
:1005C0004E4445582020204144445220202056418A
:1005D0004C55450A0000000A0000110E0000000AF8
:1005E0000000111F0000000A00000E1100000E1F85
:1005F0001111111F000000000000001500000E0E78
:100600000E1F0E0400616E616C6F675F726561643E
:10061000006D637033303038206661696C006D6343
:100620007033303038206661696C006469676974C2
:10063000616C5F72656164005258206C656E3A208F
:10064000253032580A00525820706970653A2025CA
:100650003032580A0054582041434B20737461745F
:1006600075733A20253032580A006E616E00696E4B
:10067000660000407A10F35A00A0724E180900106C
:10068000A5D4E80000E87648170000E40B54020007
:1006900000CA9A3B000000E1F50500008096980032
:1006A000000040420F000000A0860100000010275B
:1006B00000000000E80300000000640000000000EB
:1006C0000A00000000000100000000002C76D8881D
:1006D000DC674F0823DFC1DFAE59E1B1B796E5E330
:1006E000E453C63AE651997696E8E6C28426EB8949
:1006F0008C9B62ED407C6FFCEFBC9C9F40F2BAA5E6
:100700006FA5F490055A2AF75C936B6CF9676DC17D
:100710001BFCE0E40D47FEF520E6B500D0ED902E81
:100720000300943577050080841E080000204E0ADF
:10073000000000C80C333333330F986E128311411D
:10074000EF8D2114893BE65516CFFEE6DB18D184E8
:100750004B381BF77C1D901DA4BBE424203284720F
:100760005E228100C9F124ECA1E53D2711241FBEC2
:10077000CFEFD0E1DEBFCDBF12E0A0E0B1E0E2E319
:10078000FAE500E00BBF02C007900D92AE33B1074F
:10079000D9F71BBE14E0AEE3B2E001C01D92AC334A
:1007A000B107E1F70E94500E0C94E5140C94B715B4
:1007B000209188023091890240918A0250918B02E7
:1007C000B901CA0108956F927F928F929F92AF9262
:1007D000BF92CF92DF92EF92FF920F931F93962ECC
:1007E000872E782E692E59016A010E941D2A87FDE5
:1007F00011C0692D782D872D962D9701A8010E9493
:10080000F82B18162CF0A92CB82CC72CD62C02C00B
:1008100057016801B501C6011F910F91FF90EF903C
:10082000DF90CF90BF90AF909F908F907F906F9010
:1008300008958EE692E069E170E00E942C0B69E178
:1008400070E080E090E00E9403158EE692E069E19E
:1008500070E00E942C0B69E170E080E090E00E9463
:1008600003158EE692E062E370E00E942C0B62E3D7
:1008700070E080E090E00E9403158EE692E069E16E
:1008800070E00E942C0B69E170E080E090E00E9433
:1008900003158EE692E069E170E00E942C0B69E19D
:1008A00070E080E090E00E9403158EE692E062E343
:1008B00070E00E942C0B62E370E080E090E00E9408
:1008C00003158BE092E064E670E00E942C0B64E676
:1008D00070E080E090E00E9403158BE092E069E117
:1008E00070E00E942C0B69E170E080E090E00E94D3
:1008F00003158BE092E069E170E00E942C0B69E146
:1009000070E080E090E00E9403158EE692E062E3E2
:1009100070E00E942C0B62E370E080E090E00E94A7
:1009200003158EE692E069E170E00E942C0B69E10C
:1009300070E080E090E00E9403158EE692E069E1AD
:1009400070E00E942C0B69E170E080E090E00E9472
:1009500003158EE692E062E370E00E942C0B62E3E6
:1009600070E080E090E00E9403158BE092E064E686
:1009700070E00E942C0B64E670E080E090E00E9442
:10098000031580E193E062E370E00E942C0B62E3C8
:1009900070E080E090E00E9403158BEB92E062E350
:1009A00070E00E942C0B62E370E080E090E00E9417
:1009B000031580E193E064E670E00E942C0B64E68E
:1009C00070E080E090E00E94031533CFEF92FF9239
:1009D0000F931F937C0180E060E070E00E948F0A1B
:1009E00081E060E070E00E948F0A0027F7FC00952C
:1009F000102FC801B7010E9403151F910F91FF909E
:100A0000EF9008950E94140B882331F081E090E06C
:100A1000909377028093760208950E94200B88239A
:100A200019F083E090E00CC00E944E1160936802C0
:100A30007093690280936A0290936B0281E090E068
:100A400090937702809376020895EF92FF920F932E
:100A50001F930E94200B882339F083E090E090934D
:100A600077028093760238C089E10E94EF0A8C01F8
:100A7000E0909C02F0909D0288E10E94EF0A209194
:100A80009A0230919B020E191F09021B130B080FCB
:100A9000191F0E57124000F16091640270916502B7
:100AA000809166029091670220E030E044EB52E4CE
:100AB0000E94B92960936402709365028093660274
:100AC0009093670282E090E09093770280937602A1
:100AD00088EC90E00E94E6041F910F91FF90EF9048
:100AE00008954F925F926F927F928F929F92AF92F2
:100AF000BF92CF92DF92EF92FF920F931F932B0141
:100B00003C0188E792E040E050E060EC7FE30DECD0
:100B10001CEC2CE43DE30F2EF0E0CF2EF0E0DF2EB6
:100B2000F0E0EF2EF0E0FF2EF02DAA24BB24882465
:100B300099240E94D00840928802509289026092C3
:100B40008A0270928B021F910F91FF90EF90DF90BD
:100B5000CF90BF90AF909F908F907F906F905F905D
:100B60004F9008954F925F926F927F928F929F92D3
:100B7000AF92BF92CF92DF92EF92FF920F931F93AB
:100B80000E94200B882309F07AC00E943E0C7B0152
:100B90008C0160916402709165028091660290916F
:100BA000670220E030E040E050E40E94B8299B0159
:100BB000AC01C801B7010E94F82B18160CF06AC0EE
:100BC0000E943E0C7B018C014090640250906502B3
:100BD0006090660270906702C301B20120E030E0CD
:100BE00040E050E40E94B9299B01AC01C801B70163
:100BF0000E941D2A88230CF04DC088E792E040E057
:100C000050E060EC7FE30DEC1CEC2CE43DE30F2E98
:100C1000F0E0CF2EF0E0DF2EF0E0EF2EF0E0FF2E40
:100C2000F02DAA24BB24882499240E94D008409245
:100C300088025092890260928A0270928B020E940E
:100C40004E11609368027093690280936A029093D8
:100C50006B0281E090E0909377028093760260913E
:100C6000640270916502809166029091670220E0B3
:100C700030E044EB53E40E941D2A882339F483E0DA
:100C800090E0909377028093760204C084EF91E025
:100C90000E94E6041F910F91FF90EF90DF90CF909C
:100CA000BF90AF909F908F907F906F905F904F908C
:100CB0000895CF93DF9382E390E00E94E604C0E0C2
:100CC000D1E01FC00E943E0C00D000D000D0EDB794
:100CD000FEB7D283C18363837483858396830E9426
:100CE00016168DB79EB706960FB6F8949EBF0FBE28
:100CF0008DBF62E370E080E090E00E9403150E94E7
:100D0000020580917602909177020397D9F2DF91E4
:100D1000CF910895AF92BF92CF92DF92EF92FF9260
:100D20000F931F9300D084E091E0EDB7FEB792835C
:100D300081830E9416160F900F900BC10E943E0CEB
:100D40005B016C01E0906402F09065020091660224
:100D500010916702C801B701A60195010E94F82B06
:100D600018160CF05EC0C801B701A60195010E94DB
:100D7000B82920E030E040E05FE30E94FC2B20E057
:100D800030E040E252E40E94B9297B018C0120E06E
:100D900030E040E852EC0E941D2A88235CF40F2EBC
:100DA000F0E0EF2EF0E0FF2EF0E80F2FF2EC1F2F17
:100DB000F02D14C0C801B70120E030E040E852E453
:100DC0000E94F82B181654F40F2EF0E0EF2EF0E0EE
:100DD000FF2EF0E80F2FF2E41F2FF02DC801B7010E
:100DE0000E94C32A9B01AC0180E0B9010E948F0AD6
:100DF000C601B501209164023091650240916602FE
:100E0000509167020E94B82920E030E040E05FE3A3
:100E10000E94FC2B20E030E040E252E40E94B8291E
:100E20005DC0C801B701A60195010E94B82920E064
:100E300030E040E05FE30E94FC2B20E030E040E245
:100E400052E40E94B8297B018C0120E030E040E8A8
:100E500052EC0E941D2A88235CF40F2EF0E0EF2E46
:100E6000F0E0FF2EF0E80F2FF2EC1F2FF02D14C052
:100E7000C801B70120E030E040E852E40E94F82BBE
:100E8000181654F40F2EF0E0EF2EF0E0FF2EF0E8ED
:100E90000F2FF2E41F2FF02DC801B7010E94C32AC3
:100EA0009B01AC0180E0B9010E948F0AC601B50127
:100EB0002091640230916502409166025091670270
:100EC0000E94B82920E030E040E05FE30E94FC2B64
:100ED00020E030E040E252E40E94B9297B018C011D
:100EE00020E030E040E852EC0E941D2A88235CF4A8
:100EF0000F2EF0E0EF2EF0E0FF2EF0E80F2FF2ECD7
:100F00001F2FF02D14C0C801B70120E030E040E8E9
:100F100052E40E94F82B181654F40F2EF0E0EF2E36
:100F2000F0E0FF2EF0E80F2FF2E41F2FF02DC801A4
:100F3000B7010E94C32A9B01AC0181E0B9010E9464
:100F40008F0A62E370E080E090E00E9403150E9447
:100F5000B2058091760290917702029709F4EECE65
:100F60001F910F91FF90EF90DF90CF90BF90AF90C7
:100F70000895EF92FF920F931F93CF93DF9300D0CA
:100F800083E191E0EDB7FEB7928381830E9416164C
:100F90000F900F9089E10E94EF0A90939D02809339
:100FA0009C0288E10E94EF0A90939B0280939A0230
:100FB000CEE3D0E01FC00E943E0CAB01BC0188E72D
:100FC00092E00E9432090E94C32A7B018C016E5B71
:100FD0007F4F80E00E948F0ABE016E197F0981E079
:100FE0000E948F0A62E370E080E090E00E940315A7
:100FF0000E94250580917602909177020197D9F29F
:10100000DF91CF911F910F91FF90EF9008952F9254
:101010003F924F925F926F927F928F929F92AF9288
:10102000BF92CF92DF92EF92FF920F931F93CF93D5
:10103000DF9387E3282E81E0382EC4E4D1E00F2E21
:10104000F0E04F2EF0E05F2EF0E06F2EF0E07F2E0C
:10105000F02D65C089E194E060E470E04FE721E2A3
:1010600031E00E947F1200D08DE291E0EDB7FEB733
:10107000928381830E9416160F900F900E94800B1E
:1010800000D0EDB7FEB7328221820E9416160F9073
:101090000F9068EE73E080E090E00E94031500D0AE
:1010A000EDB7FEB7D283C1830E9416160F900F9042
:1010B00088E04BE15DE26CEA74E408E813E120E0CB
:1010C00030E00E94C40D409264025092650260922A
:1010D00066027092670288E792E040E050E060ECC0
:1010E0007FE30DEC1CEC2CE43DE30F2EF0E0CF2E63
:1010F000F0E0DF2EF0E0EF2EF0E0FF2EF02DAA243E
:10110000BB24882499240E94D008409288025092DF
:10111000890260928A0270928B020E940D05809172
:10112000760290917702892B09F494CFDF91CF91C9
:101130001F910F91FF90EF90DF90CF90BF90AF90F5
:101140009F908F907F906F905F904F903F902F90E7
:101150000895109277021092760280917602909113
:1011600077028130910569F08130910538F0823045
:10117000910551F083309105A1F709C00E9407083D
:10118000ECCF0E94B907E9CF0E948A06E6CF0E9401
:101190005906E3CF80E00E944D0E80E090E0089574
:1011A0002F923F924F925F926F927F928F929F9277
:1011B000AF92BF92CF92DF92EF92FF920F931F9365
:1011C000DF93CF9300D000D0CDB7DEB73C011A013A
:1011D0002B0109831A832B833C83009721F48CED28
:1011E00090E00E94EC10D3012D923D924D925C92C2
:1011F000139789819A81AB81BC81F30184839583A4
:10120000A683B783D3011896CD92DD92ED92FC921E
:101210001B971D96BC92AE921C971F969C928E9225
:101220001E9780E090E0A0E0B0E0848B958BA68BC9
:10123000B78B108E11A20F900F900F900F90CF913F
:10124000DF911F910F91FF90EF90DF90CF90BF90B3
:10125000AF909F908F907F906F905F904F903F9056
:101260002F9008952F923F924F925F926F927F92AC
:101270008F929F92AF92BF92CF92DF92EF92FF92A6
:101280000F931F93CF93DF93EC011A012B0100D032
:1012900000D000D087EC90E0EDB7FEB79283818359
:1012A00043835483658376830E94C917688979894B
:1012B0008A899B89A20191010E94B8295B016C0176
:1012C0008AEB90E0EDB7FEB792838183A382B4826C
:1012D000C582D6820E94C917C601B501288139810D
:1012E0004A815B810E94FC2B7B018C018DB79EB7EC
:1012F00006960FB6F8949EBF0FBE8DBF888D8823CB
:1013000059F40F2EF0E0AF2EF0E0BF2EF0E0CF2E1C
:10131000F0E0DF2EF02D52C00E944E112D8D3E8D3B
:101320004F8D58A1621B730B840B950B0E94F82AFA
:101330002FE632E143E85AE30E94FC2B3B014C01CB
:10134000A60195010E94FC2B2C893D894E895F895D
:101350000E94B9295B016C012C813D814E815F8126
:101360000E94FC2B9B01AC01C801B7010E94B92966
:101370007B018C01C401B30120E030E040E050E08B
:101380000E941D2A8823D1F0C201B101298D3A8D16
:101390004B8D5C8D0E94B829288539854A855B85EF
:1013A0000E94FC2BA40193010E94212A9B01AC0105
:1013B000C801B7010E94B9297B018C0181E0888FA7
:1013C000AC8ABD8ACE8ADF8A298E3A8E4B8E5C8E9D
:1013D0000E944E116D8F7E8F8F8F98A3EE85FF85B3
:1013E000309719F0C801B7010995B701C801DF911D
:1013F000CF911F910F91FF90EF90DF90CF90BF9012
:10140000AF909F908F907F906F905F904F903F90A4
:101410002F900895CF93DF93EC0189A1882321F4C5
:1014200081EA90E00E94EC108C859D85892B21F447
:101430008CE890E00E94EC10EC85FD850995AB01ED
:10144000BC01CE010E943209DF91CF910895CF9364
:10145000DF93EC01CE010E940A0AFCCF1F93CF93C9
:10146000DF93CDB7DEB728970FB6F894DEBF0FBE77
:10147000CDBF182F8EE992E00E94710FDE01139606
:10148000EFE5F1E086E001900D928150E1F7FE0179
:10149000E10FF11D63817727685F7F4FAE014F5FDA
:1014A0005F4F80E090E00E94F5188EE992E00E9484
:1014B0000B0F89819A8128960FB6F894DEBF0FBE74
:1014C000CDBFDF91CF911F9108950E942E0AAA27C8
:1014D000BB27BC01CD010E94F82A28E431EE40E888
:1014E00051E40E94FC2B0E94C82ADC01CB01089524
:1014F000FF920F931F93F82E0EE912E0C8010E948D
:10150000710FFF0CEF2DFF27E050FF4E83E080832B
:10151000C8010E940B0F1F910F91FF9008951F9318
:10152000CF93DF93182FEB018EE992E00E94710FA9
:10153000110F1C161D0634F4E12FFF27E050FF4E5B
:1015400081E007C0E12FFF27209729F0E050FF4EF0
:1015500082E0808303C0E050FF4E1082E12FFF271E
:10156000EF5FFE4EBE01D7FF03C0709561957F4FC0
:1015700060838EE992E00E940B0FDF91CF911F9163
:10158000089564E571E08EE992E00E945B0F089592
:10159000CF92DF92EF92FF920F931F93082F93EA5F
:1015A000C92E92E0D92EC6010E94710F000F04527D
:1015B000112700501F4EF801E1900081C6010E94E2
:1015C0000B0F1127102F0027FF24C8018E299F29F8
:1015D0001F910F91FF90EF90DF90CF9008951F9390
:1015E000182F0E94C80AE12FFF27EE0FFF1FE25FAE
:1015F000FD4F20813181821B930B1F9108951F9312
:10160000182F0E94C80AE12FFF27EE0FFF1FE25F8D
:10161000FD4F918380831F91089565E671E083EA11
:1016200092E00E945B0F089581B1992725E096957D
:1016300087952A95E1F7809590958170907008952F
:1016400081B1992734E0969587953A95E1F7809591
:101650009095817090700895AF92BF92CF92DF9273
:10166000EF92FF920F931F939B017C01002711279C
:1016700044275527CA01B901A80197010E945F2C90
:1016800028EE33E040E050E00E94912C59016A01BD
:1016900060E271EA87E090E0A80197010E94912C36
:1016A0007901002711270AC0C49AC801B7010E9416
:1016B0002218C498C801B7010E9422180894A108F2
:1016C000B108C108D1088FEFA8168FEFB8068FEFC9
:1016D000C8068FEFD80641F71F910F91FF90EF904A
:1016E000DF90CF90BF90AF9008950C99FECF64E645
:1016F00070E080E090E00E9422180C9BFECF0895DD
:101700000D99FECF64E670E080E090E00E94221820
:101710000D9BFECF0895CF93DF93CDB7DEB7229711
:101720000FB6F894DEBF0FBECDBFAE014F5F5F4F67
:101730006FE070E080E090E00E94F51869817A81A6
:10174000882799270E94F82A2CE135E441E251E4E8
:101750000E94FC2B0E94C82ADC01CB0122960FB606
:10176000F894DEBF0FBECDBFDF91CF910895CF9328
:10177000DF93CDB7DEB722970FB6F894DEBF0FBE6A
:10178000CDBFAE014F5F5F4F61E070E080E090E061
:101790000E94E61689819A8122960FB6F894DEBFE0
:1017A0000FBECDBFDF91CF910895CF92DF92EF9220
:1017B000FF920F931F936C017B010E94B70BAA2726
:1017C000BB27EC18FD080894E11CF11C0027112729
:1017D000BC01CD01A80197010E945F2C4AE09695BB
:1017E0008795779567954A95D1F7C60ED71EC6019E
:1017F0001F910F91FF90EF90DF90CF9008958F92FF
:101800009F92AF92BF92CF92DF92EF92FF920F938F
:101810001F937B018C0188EA882E82E0982EC401F8
:101820000E94710F20914602309147024091480278
:1018300050914902C801B7010E94FC2B0E94892ADD
:1018400020934A0230934B0240934C0250934D0236
:1018500060934E0270934F02809350029093510216
:10186000C4010E940B0F1F910F91FF90EF90DF902A
:10187000CF90BF90AF909F908F9008958F929F923E
:10188000AF92BF92CF92DF92EF92FF920F931F938E
:1018900098EA892E92E0992EC4010E94710FA090BF
:1018A0004A02B0904B02C0904C02D0904D02E090A2
:1018B0004E02F0904F0200915002109151022A2DD9
:1018C0003B2D4C2D5D2D6E2D7F2D802F912F0E9455
:1018D000F42A2091460230914702409148025091EB
:1018E00049020E94212A7B018C01C4010E940B0F36
:1018F000C801B7011F910F91FF90EF90DF90CF903B
:10190000BF90AF909F908F9008952F923F924F92EB
:101910005F926F927F928F929F92AF92BF92CF927F
:10192000DF92EF92FF920F931F93CF93DF93CDB788
:10193000DEB760970FB6F894DEBF0FBECDBF0E9432
:101940005D115B016C01809181010E94AC1E7C01E4
:10195000002711278091570290915802AA27BB2790
:10196000E81AF90A0A0B1B0B0E945D111B012C01DE
:10197000DC01CB018A199B09AC09BD095C016D0131
:10198000C801B701A60195010E945F2C3B014C01E3
:101990002091590230915A0244275527C601B501BA
:1019A0000E945F2C7B018C0188EA92E00E94710FFB
:1019B0008091520290915302A0915402B09155022D
:1019C0008E0D9F1DA01FB11F809352029093530252
:1019D000A0935402B0935502A0905202B0905302CB
:1019E000C0905402D0905502E090AD02F090AE024B
:1019F0000027112760915202709153028091540286
:101A000090915502A80197010E94B32C6093520255
:101A100070935302809354029093550290914A021E
:101A20009983A0914B02AA83B0914C02BB83E091B1
:101A30004D02EC83F0914E02FD8380914F028E8324
:101A4000909150029F83A0915102A887C601B501D1
:101A5000A80197010E94B32C621A730A840A950A9E
:101A6000D401C301BB0F880B982FDC0169867A86ED
:101A70008B869C868D878E878F87888BA980B9857A
:101A8000AB1A81E0E981EA1508F080E0BA80FA85B6
:101A9000BF1A21E09A819B1508F020E0AB2DA81B0E
:101AA0008A2F91E0BA1608F090E0292BB82ECB804F
:101AB000BB85CB1A31E0EB81EC1508F030E08C2DC2
:101AC000821B91E0C81608F090E0392BC82EDC800C
:101AD000FC85DF1A21E08C818D1508F020E08D2D2A
:101AE000831B91E0D81608F090E0292BD82EED80CA
:101AF0009D85E91A31E0AD81AE1508F030E08E2DFC
:101B0000821B91E0E81608F090E0392BE82EFE8069
:101B1000BE85FB1A21E0EE81EF1508F020E08F2D45
:101B2000831B91E0F81608F090E0292BF82E0F8126
:101B3000FF850F1B91E08F81801708F090E0802FC8
:101B4000821B21E0081708F020E0922B1885A88955
:101B50001A1BE12FE91BA0924A02B0924B02C092DD
:101B60004C02D0924D02E0924E02F0924F028093CE
:101B70005002E093510288EA92E00E940B0F0E940B
:101B8000BA1462015101DFCE2F923F924F925F92C1
:101B90006F927F928F929F92AF92BF92CF92DF927D
:101BA000EF92FF920F931F931801290180938101F7
:101BB0004093460250934702609348027093490253
:101BC0000E944E113B014C01AA24BB246501EE2466
:101BD000FF2487010FC0809181010E94AC1EAA27BB
:101BE000BB27E80EF91E0A1F1B1F0894A11CB11C7D
:101BF000C11CD11C0E944E116619770988099909E8
:101C0000621573058405950530F3C801B701A60177
:101C100095010E94912C3093580220935702C801DD
:101C2000B701A60195010E94912C70935A0260930E
:101C30005902B092AE02A092AD0210924A021092E6
:101C40004B0210924C0210924D0210924E021092D2
:101C50004F02109250021092510262E771E088EA3E
:101C600092E00E945B0F2CE731E040E060E071E021
:101C700085E89CE00E947F121F910F91FF90EF90EA
:101C8000DF90CF90BF90AF909F908F907F906F909C
:101C90005F904F903F902F90089580939A01089500
:101CA000CFEFD0E1DEBFCDBF80915B0290915C02AF
:101CB000892B21F08FE691E00E94EC1083E897E0F9
:101CC00090933C0280933B020E941A10809139024B
:101CD00090913A029F938F9385E591E09F938F9324
:101CE0000E94C91780913B0290913C029F938F9371
:101CF0008DE391E09F938F930E94C91780913B02DF
:101D000090913C022091390230913A02821B930B50
:101D1000880F991F9F938F9388E291E09F938F93F1
:101D20000E94C9178DB79EB70C960FB6F8949EBF48
:101D30000FBE8DBF2091390230913A0280913B0253
:101D400090913C022817390720F083E191E00E942E
:101D5000EC100E94461D06EF10E01F930F930E94A7
:101D6000DF1B1F930F930E94C91784EF90E09F938E
:101D70008F930E94C9170E94800B0E94351522E89C
:101D800031E040E060E071E08AED9EE00E947F1269
:101D90000E94C4138FEE90E00E94EC108DB79EB7A6
:101DA00006960FB6F8949EBF0FBE8DBF80E090E000
:101DB0000C94E5140E94CA0887E891E09F938F93E2
:101DC0000E94DF1B0E94800B0E94461D20E931E02B
:101DD00040E060E071E089EA98E00E947F120F9095
:101DE0000F9080919A01882319F40E94BA14FDCFB4
:101DF00060E97FE581E090E00E9403158CE791E0C7
:101E00009F938F930E94DF1B0E946C120F900F9084
:101E100080E090E008951F93CF93DF93EC01892B2E
:101E200021F48CEC91E00E94EC101FB7F8948881AB
:101E3000882321F488EB91E00E94EC102B813C81F7
:101E400080915B0290915C022817390721F083EAA8
:101E500091E00E94EC10888181508883882311F4DE
:101E60001C821B828FB71078182B1FBFDF91CF9178
:101E70001F910895CF93DF93EC01892B21F48EED10
:101E800091E00E94EC1020915B0230915C028B810A
:101E90009C812817390719F080E090E009C090E094
:101EA0008881882309F491E081E09827892F992778
:101EB000DF91CF9108950F931F93CF93DF93EC01A0
:101EC0008B01892B21F48AE192E00E94EC101882A8
:101ED0001A8309831C821B82DF91CF911F910F917E
:101EE0000895CF93DF93EC01892B21F488E092E0F1
:101EF0000E94EC1088818F3F21F480EF91E00E94D6
:101F0000EC105FB75078F8942B813C8180915B0294
:101F100090915C0248812817390719F44F5F488374
:101F20000AC0442361F481E0888380915B02909130
:101F30005C029C838B838FB7582B5FBF06C08FB723
:101F4000582B5FBF0E94BA14DCCFDF91CF91089568
:101F50000F931F93CF93DF93CDB7DEB761970FB683
:101F6000F894DEBF0FBECDBF8C0141E150E0BC0153
:101F7000CE0101960E94F828198A1F930F9389E2D7
:101F800092E09F938F930E94C91780E10E94631D86
:101F90001F930F930E941C1C8FE10E94631D60E041
:101FA00070E083E00E947F1D8DB79EB706960FB646
:101FB000F8949EBF0FBE8DBFFFCF60E070E080E061
:101FC00090E00E94F2196CE672E08AE090E00E94D4
:101FD0009D190E94551BECE6F2E020E030E0819173
:101FE0003827032E0294902D9F709327832F8025EE
:101FF000880F807E9827802D8327807F8695032EEB
:10200000000C881F3695369536953F713827322754
:10201000292F82E0E437F80711F740E050E0809183
:102020007402909175022817390711F441E050E0CD
:10203000CA0108950E94BB161F9A80E09BE40E948B
:102040007E178AEF91E090933B0480933A0480E0FE
:102050009BE49F938F9389E392E09F938F930E94D9
:10206000C9178EE492E09F938F930E94C9170E9434
:10207000531F0E940D0B0E9446170E94C10A0E9426
:10208000A51E0E94211E81E192E090933904809365
:1020900038040E9415170E94B4200E94B6150E94B1
:1020A000DD0F2DB73EB72A5F3F4F0FB6F8943EBF06
:1020B0000FBE2DBF882321F48FED92E00E94A80F60
:1020C00083E992E09F938F930E94C91780916C02DD
:1020D00090916D029C0130703F932F93892F992727
:1020E0009F938F9388E692E09F938F930E94C917E6
:1020F00080916E0290916F029F938F9383E892E09C
:102100009F938F930E94C91780916C0290916D02EA
:102110009C0130703F932F93892F99279F938F9322
:102120008BE991E09F938F930E941C1C0E948B0B64
:102130002DB73EB72E5E3F4F0FB6F8943EBF0FBE91
:102140002DBF8C549D4120F483ED92E00E94A80F96
:102150000E948B0B9F938F9385EA92E09F938F93BE
:102160000E94C917609172027091730280E091E041
:102170000E9465180F900F900F900F90882321F404
:1021800086EC92E00E94A80F8091FF112091FE1131
:1021900099279F938F9333273F932F9388EB92E058
:1021A0009F938F930E94C9178FE10E94631D60E087
:1021B00070E081E00E947F1D1E9868EE73E080E76A
:1021C00093E00E942C0B8DB79EB706960FB6F8943D
:1021D0009EBF0FBE8DBF0895CF93DF93CDB7DEB7FF
:1021E0006A970FB6F894DEBF0FBECDBFBC01F8945E
:1021F000892B41F04AE150E0CE0101960E94F82877
:102200001A8E01C019821092FC03109200041092E1
:10221000FF03CE0101969F938F938AEE92E09F93E6
:102220008F930E94DF1B0E946C120F900F900F90F3
:102230000F906A960FB6F894DEBF0FBECDBFDF9148
:10224000CF910895CF93DF93EC01F8941092FC03A3
:10225000109200041092FF030E94461D209711F473
:10226000CFEBD1E0DF93CF9385EF92E09F938F93F5
:102270000E94DF1B0E946C120F900F900F900F9026
:10228000DF91CF91089583E085BD83E884BD86B753
:10229000806486BF87B7806487BF08952FB7F8949E
:1022A00060915D0270915E0280915F029091600288
:1022B0003FB72078232B2FBF0895EF92FF920F9303
:1022C0001F932FB7F89460915D0270915E02809128
:1022D0005F029091600244B53FB72078232B2FBF57
:1022E000242F33272358304079010027F7FC00952D
:1022F000102F2DE730E040E050E00E945F2CE60E0A
:10230000F71E081F191F83E0EE0CFF1C001F111F92
:102310008A95D1F7C801B7011F910F91FF90EF90F7
:1023200008959C01F894E5EFF2E08081833039F460
:10233000828593858217930711F481E08083BA9692
:1023400083E0E13FF80789F77894089577278CE2D6
:1023500091E0689F9001699F300D789F300D1124A6
:1023600087EB9FE0821B930B0895AF92BF92CF92B1
:10237000DF92FF920F931F93CF93DF93FFB6F894F2
:1023800087E493E09F938F930E94C9170BEC12E0B0
:10239000C0E0D0E00F900F9020E0A22E23E0B22EFC
:1023A00099E2C92E93E0D92EF8012081222359F415
:1023B000DF93CF93DF92CF920E94C9170F900F90B7
:1023C0000F900F901EC0F80182819381A481B58186
:1023D000332744855585BF93AF939F938F933F9346
:1023E0002F935F934F93DF93CF93BF92AF920E944F
:1023F000C9178DB79EB70C960FB6F8949EBF0FBE47
:102400008DBF2196065D1F4FC730D10569F68FB786
:1024100090E8F922F82AFFBEDF91CF911F910F912A
:10242000FF90DF90CF90BF90AF9008950F931F93D0
:102430008C018BEA93E09F938F930E94C91787E9E1
:1024400093E09F938F930E94C917F8018089918927
:10245000AA27BB27BF93AF939F938F9389E893E0FD
:102460009F938F930E94C917F80182899389AA27A5
:10247000BB27BF93AF939F938F938BE793E09F937B
:102480008F930E94C917F80184899927AA27BB272F
:10249000BF93AF939F938F938DE693E09F938F931A
:1024A0000E94C917F80185899689AA27BB27BF937F
:1024B000AF939F938F938FE593E09F938F930E94A9
:1024C000C9178DB79EB74C960FB6F8949EBF0FBE36
:1024D0008DBF1F910F910895CF93DF93F8941092C1
:1024E0009E021092A2021092A102C0E0D0E08C2FB6
:1024F0000E94780A2196C630D105C9F7FFCF0F9305
:102500001F93CF93DF938C016FB7F894EBECF2E05D
:1025100040E050E08081882359F04F5F5F4FBA96CA
:1025200047305105B9F78DEB93E00E94EC10FFCFD7
:102530008AE290E0489FD001499FB00D589FB00DAE
:102540001124A155BD4F81E0ED018C8F39A728A73B
:10255000FD01168E178E10A211A22CE231E0328FEF
:10256000218F87E119928A95E9F7842F9927F9013C
:102570008E9F90018F9F300D9E9F300D1124E7EBB1
:10258000FFE0E21BF30B25EE34E120833197232F8C
:10259000332720833197ED01FB8BEA8B1E8B0D8B4C
:1025A0002C8920682C8B2FB76078622B6FBFDF914E
:1025B000CF911F910F9108950F931F93CF93DF93A6
:1025C000EC010BEC12E08091CB02813009F44BC09E
:1025D00083EB94E09F938F930E94C91780915D02D3
:1025E00090915E02A0915F02B0916002BF93AF93A1
:1025F0009F938F938BEA94E09F938F930E94C917C8
:102600000C5110401F930F93045E1F4F89E994E013
:102610009F938F930E94C9171F930F938DE794E0A8
:102620009F938F930E94C91780913B0290913C0227
:102630002091390230913A029F938F933F932F93C9
:1026400087E694E09F938F930E94C9178FE594E0EB
:102650000E94EC104DB75EB74A5E5F4F0FB6F8941C
:102660005EBF0FBE4DBF8B8D99272CE231E0A901D3
:10267000849F9001859F300D949F300D112487EB2E
:102680009FE0821B930B2A893B898217930720F4D2
:1026900086E594E00E94EC108F89988D2A893B8909
:1026A000821B930B298D3A8D2817390708F04DC0EE
:1026B00085E494E09F938F930E94C9174A895B89B0
:1026C0008B8D992728A539A55F934F939F938F935F
:1026D0003F932F938BE294E09F938F930E94C917AF
:1026E000CE010E9416128D899E899F938F9381E25D
:1026F00094E09F938F930E94C9178F89988D9F9321
:102700008F9383E194E09F938F930E94C9174F8921
:10271000588DCA010196298D3A8D821B930B5F93C8
:102720004F939F938F9389EF93E09F938F930E9492
:10273000C9178AEE93E00E94EC108DB79EB74896B9
:102740000FB6F8949EBF0FBE8DBFDF91CF911F9142
:102750000F91089590935C0280935B020E94DC12BB
:10276000E0915B02F0915C02868D978DA0A1B1A1F2
:102770000196A11DB11D868F978FA0A3B1A361E023
:1027800070E0CF010E94D728AF92BF92CF92DF9224
:10279000EF92FF920F931F93CF93DF93E0915B0231
:1027A000F0915C02309719F4AA24BB2403C0838DF6
:1027B000A82EBB24F1E0EF2EF12CEAE2CE2ED12C94
:1027C000AC9C8001AD9C100DBC9C100D11240155DA
:1027D0001D4FC7018A0D9B1D67E070E00E947E2C93
:1027E000EC01009709F448C08C9DF0018D9DF00D1F
:1027F0009C9DF00D1124E155FD4F848D8430B1F482
:1028000020915D0230915E0240915F025091600222
:1028100082A193A1A4A1B5A1281739074A075B0794
:1028200028F081E0848FCF010E94AA13CC9DF00193
:10283000CD9DF00DDC9DF00D1124E155FD4F848DF3
:102840008130B9F0E8018C8D8430B1F420915D02C3
:1028500030915E0240915F02509160028AA19BA17B
:10286000ACA1BDA1281739074A075B0728F081E012
:102870008C8FCF010E94AA130894E11CF11CE8E0A0
:10288000EE16F10409F0A5CF8091CB02813021F43E
:102890008FEA92E00E94AA13F8940BEC12E0C0E0D9
:1028A000D0E074E0A72E75E0B72E62EDC62E64E08E
:1028B000D62E55E2E52E55E0F52EF80180818823CD
:1028C00059F4DF93CF93FF92EF920E94C9170F90B4
:1028D0000F900F900F9020C09927F801248535851F
:1028E0009F938F933F932F93DF93CF93BF92AF929A
:1028F0000E94C9178DB79EB708960FB6F8949EBF71
:102900000FBE8DBFF8018081813031F4DF92CF920C
:102910000E94C9170F900F902196065D1F4FC73078
:10292000D10559F689EC94E00E94EC10DF91CF912B
:102930001F910F91FF90EF90DF90CF90BF90AF90DD
:10294000089580915B0290915C02892B21F488EDBF
:1029500093E00E94EC1080915B0290915C020E94D7
:10296000B728892B31F461E070E085ED93E00E9497
:10297000D7280895F8941F920F922F933F934F9367
:102980005F936F937F938F939F93AF93BF93EF93D7
:10299000FF9380915B0290915C02892B21F482ED80
:1029A00093E00E94EC100E94A114FF91EF91BF915F
:1029B000AF919F918F917F916F915F914F913F91D7
:1029C0002F910F901F90789408950E94BA14FDCF14
:1029D000CF93DF93EC01F89480915B0290915C02BD
:1029E000892B21F48CEC93E00E94EC10E0915B02C7
:1029F000F0915C02D7A3C6A383E0848F0E94BA142F
:102A0000DF91CF9108959B01AC010FB607FC03C085
:102A10000E9442180895F894E0915B02F0915C02E4
:102A200084E0848F80915D0290915E02A0915F02AC
:102A3000B0916002E0915B02F0915C02820F931F03
:102A4000A41FB51F82A393A3A4A3B5A30E94BA1485
:102A500008950E94B51168EB7BE080E090E00E9451
:102A60000315F7CF0E94BA14FDCFCF92DF92EF92F9
:102A7000FF920F931F93CF93DF930FEA12E01F9300
:102A80000F938CE795E09F938F930E94C91785ED74
:102A900093E09F938F9384E695E09F938F930E949A
:102AA000C917E80120E030E007EB1FE08DB79EB7C3
:102AB00008960FB6F8949EBF0FBE8DBFADE4CA2E28
:102AC000A5E0DA2E2B8F1C8EC801188F0F8B1E8E5F
:102AD0001F8E18A219A279010894E11CF11C0C5256
:102AE00011401F930F939F938F933F932F93DF92E8
:102AF000CF920E94C917AA968DB79EB708960FB6B7
:102B0000F8949EBF0FBE8DBF97E0E916F10411F057
:102B10009701D8CF20EC31E040E060E071E082E343
:102B200095E10E947F128091CB02882321F483E4F7
:102B300095E00E94EC1085ED93E00E94B7288FEF9E
:102B400090E19093E8038093E70384EC93E1909302
:102B5000EB038093EA030E944311DF91CF911F9111
:102B60000F91FF90EF90DF90CF90089508951F92FE
:102B70000F920FB60F9211242F933F934F935F93B1
:102B80006F937F938F939F93AF93BF93EF93FF9335
:102B900085EC91E00E94EC10FF91EF91BF91AF9115
:102BA0009F918F917F916F915F914F913F912F9165
:102BB0000F900FBE0F901F9018951F920F920FB697
:102BC0000F9211242F933F934F935F936F937F93B3
:102BD0008F939F93AF93BF93EF93FF9383E884BD4D
:102BE00080915D0290915E02A0915F02B0916002BF
:102BF0000196A11DB11D80935D0290935E02A0938A
:102C00005F02B09360020E94A114FF91EF91BF9107
:102C1000AF919F918F917F916F915F914F913F9174
:102C20002F910F900FBE0F901F901895CF92DF92AB
:102C3000EF92FF920F931F93CF93DF93CDB7DEB741
:102C400022970FB6F894DEBF0FBECDBF8E01035F93
:102C50001F4FF801E190F1908F018CEFC82E83E0B7
:102C6000D82EC6010E94710F1A830983A801B701EB
:102C700081E192E00E9454238C01C6010E940B0F57
:102C8000C80122960FB6F894DEBF0FBECDBFDF910C
:102C9000CF911F910F91FF90EF90DF90CF9008950B
:102CA000CF92DF92EF92FF920F931F93CF93DF9318
:102CB0008C01F62E8FEB95E09F938F930E94C9179E
:102CC00089EA95E09F938F930E94C917E80100E07D
:102CD00010E00F900F900F900F90EF2CFF2496E9CB
:102CE000C92E95E0D92E17C0888199279F938F937D
:102CF000DF93CF931F930F93DF92CF920E94C91758
:102D00000F5F1F4F21968DB79EB708960FB6F894A8
:102D10009EBF0FBE8DBF0E151F0531F7DF91CF91FE
:102D20001F910F91FF90EF90DF90CF900895CF9378
:102D3000DF93EC01892BD1F00E94461DDF93CF93E6
:102D400087ED91E09F938F930E941C1CDF93CF939C
:102D50008AED91E09F938F930E9406188DB79EB7DE
:102D600008960FB6F8949EBF0FBE8DBF0E94800BD1
:102D7000DF91CF91089585B7806885BFECE6F0E0DC
:102D800080818F778083EDE6F0E080818D7F808386
:102D900085B78F7B85BF83EF87BBC69A8CEF81BBDE
:102DA0008EEC82B983B1806383B98DE0809361003A
:102DB00010926400E2E6F0E08081846080831A9AD9
:102DC000C09A8081816080831B9A0895EF92FF9260
:102DD0000F931F93CF93DF938C017B01EA018CEE5D
:102DE00093E00E94710F0795002707950E29006454
:102DF00007B987ED86B9349BFECF349A24B185B1EB
:102E00009927982F88273327822B932B99838883A0
:102E10008CEE93E00E940B0F80E090E0DF91CF9169
:102E20001F910F91FF90EF9008956EED71E08CEE81
:102E300093E00E945B0F089560659C01369527958D
:102E4000622B6DB980FF02C0709A01C0709887B381
:102E5000876087BB0895FC0190E007C080818FB92F
:102E6000779BFECF8FB181939F5F9617B9F780E074
:102E700090E0089581EF93E00E940B0F089581EF99
:102E800093E00E94710F80E090E0089567EE71E09A
:102E900081EF93E00E945B0F08951E9A5D9BFECF29
:102EA0008CB91E98992787FD909508951F93182F28
:102EB0008A3019F48DE00E945617812F0E944D1719
:102EC0001F910895CF93DF93EC0103C021960E94D8
:102ED0004D1788818823D1F7DF91CF9108951E9AED
:102EE0005F9BFECF1E988CB1992787FD9095089522
:102EF0008BB18078992787FD909508959C01442790
:102F0000552794E0220F331F441F551F9A95D1F780
:102F100060E072E18AE790E00E94912C822F81505C
:102F200089B92150304040405040232F342F452F45
:102F30005527209390001BB886E08093950088E188
:102F40008AB960EF71E086EF93E00E945B0F08950D
:102F5000CF92DF92EF92FF920F931F936C018B0140
:102F600026EFE22E23E0F22EC7010E94710FA80186
:102F7000B6018AEF91E00E9449298C01C7010E94A5
:102F80000B0FC8011F910F91FF90EF90DF90CF9032
:102F90000895CF93DF93CDB7DEB722970FB6F8949D
:102FA000DEBF0FBECDBFFE01379681919191FA83AE
:102FB000E983BF010E94A81722960FB6F894DEBFDE
:102FC0000FBECDBFDF91CF910895CF92DF92EF92E8
:102FD000FF920F931F936C018B0136EFE32E33E0CA
:102FE000F32EC7010E94710FA801B6018AEF91E08C
:102FF0000E9454238C01C7010E940B0FC8011F912E
:103000000F91FF90EF90DF90CF900895CF93DF93D3
:10301000CDB7DEB722970FB6F894DEBF0FBECDBF97
:10302000FE01379681919191FA83E983BF010E9455
:10303000E51722960FB6F894DEBF0FBECDBFDF9125
:10304000CF9108959B01AC0107C080E08A95F1F70C
:103050002056304040405040213631054105510551
:10306000A0F7CA01B90120E032E14AE750E00E942E
:103070005F2C20EC36EC4DE250E00E94912C2A951A
:10308000F1F708959B01AC0108C080E09AEF019729
:10309000F1F7205230404040504021323105410587
:1030A000510598F7CA01B90120E032E14AE750E042
:1030B0000E945F2C20EA3FE040E050E00E94912C0B
:1030C000DA01C9010197F1F708959F92AF92BF927B
:1030D000CF92DF92EF92FF920F931F93CF93DF93E4
:1030E000CDB7DEB728970FB6F894DEBF0FBECDBFC1
:1030F0006B017C0100271127C801B7010E94F2195A
:103100008F3FD1F3C69864E670E080E090E00E94C3
:103110002218C69A00E010E07E010894E11CF11C20
:1031200049E0A42EB12CAC0EBD1E3DC00E94671913
:10313000682F0F5F1F4F807C803C19F09924939477
:1031400008C03FE3932E96220E946719682F0F5FF5
:103150001F4F40E050E0F701E40FF51F27E030E09B
:10316000241B350B81E090E002C0880F991F2A953F
:10317000E2F7862380834F5F5F4F4830510559F750
:1031800090E00DC08081882311F0C59A01C0C598D8
:10319000C79AC7983196EA15FB05A1F79F5F991565
:1031A00011F0F701EFCF0C151D0508F4BFCF0E94F9
:1031B000551B80916300992723E0969587952A9562
:1031C000E1F78170907028960FB6F894DEBF0FBEBD
:1031D000CDBFDF91CF911F910F91FF90EF90DF90C6
:1031E000CF90BF90AF909F900895CF92DF92EF92D3
:1031F000FF920F931F93CF93DF93CDB7DEB7239743
:103200000FB6F894DEBF0FBECDBF8C017B016A0103
:103210000E943F178F3F19F48FEF9FEF49C08E2D0B
:10322000880F880F8064898360E082E090E00E94CC
:103230001C170130110549F00130110520F0023052
:10324000110551F404C01A9807C0C09805C08091B8
:1032500062008E7F8093620063E0CE0101960E943F
:103260002B170130110549F00130110520F0023013
:10327000110551F404C01A9A07C0C09A05C0809184
:1032800062008160809362008A819927982F882745
:103290002B813327822B932B26E0969587952A95B1
:1032A000E1F7F601918380830E943A1780E090E075
:1032B00023960FB6F894DEBF0FBECDBFDF91CF913E
:1032C0001F910F91FF90EF90DF90CF900895EF92B4
:1032D000FF921F93CF93DF93CDB7DEB722970FB640
:1032E000F894DEBF0FBECDBF61E0CE0101960E9413
:1032F0002B178091FB038F3F69F410E082E0E82EEA
:10330000F12CEC0EFD1E61E0C7010E942B171F5F20
:103310001830C9F78091FB038F5F8093FB0389818D
:10332000992722960FB6F894DEBF0FBECDBFDF916E
:10333000CF911F91FF90EF900895EF92FF920F931E
:103340001F93CF93DF937C018B01C0E0D0E007C0D7
:103350000E946719F801EC0FFD1F80832196CE159E
:10336000DF05B1F780E090E0DF91CF911F910F91E1
:10337000FF90EF9008950F931F93CF93DF93CDB7F6
:10338000DEB721970FB6F894DEBF0FBECDBF87ED35
:103390008983809162008B7F8093620061E08E015F
:1033A0000F5F1F4FC8010E942B1761E0C8010E94E8
:1033B0002B17898187FFF9CF809162008460809309
:1033C000620061E070E080E090E00E9422182196A7
:1033D0000FB6F894DEBF0FBECDBFDF91CF911F9126
:1033E0000F910895EF92FF920F931F93CF93DF9366
:1033F000CDB7DEB724970FB6F894DEBF0FBECDBFB2
:103400007B018C010E943F178F3F19F48FEF9FEFD4
:103410002EC060E081E090E00E941C1788EE898356
:10342000D801C7012FE0B695A795979587952A955E
:10343000D1F78A83BB27A12F902F8F2D880F8B83E5
:10344000E092FB03EC820E94BB19809162008B7FAB
:103450008093620064E08E010F5F1F4FC8010E94DD
:103460002B1764E0C8010E942B1780E090E024969F
:103470000FB6F894DEBF0FBECDBFDF91CF911F9185
:103480000F91FF90EF9008958F929F92AF92BF920D
:10349000CF92DF92EF92FF920F931F93CF93DF9320
:1034A000CDB7DEB724970FB6F894DEBF0FBECDBF01
:1034B0006B017C014A0159010E943F178F3F19F4AB
:1034C0002FEF3FEF44C060E081E090E00E941C17C6
:1034D00084E889831A821B821C2DCC828091620031
:1034E0008B7F8093620064E07E010894E11CF11CF4
:1034F000C7010E942B17212F3327C501820F931F6D
:103500008150914028F0A12C41E0B42EA21AB30AB8
:1035100000E010E00BC0F401E00FF11F808189830F
:1035200061E0C7010E942B170F5F1F4F0A151B0593
:1035300091F78091620084608093620061E070E0A6
:1035400080E090E00E9422180E943A179501C9017C
:1035500024960FB6F894DEBF0FBECDBFDF91CF919A
:103560001F910F91FF90EF90DF90CF90BF90AF90A1
:103570009F908F900895EF92FF920F931F93CF9398
:10358000DF93CDB7DEB724970FB6F894DEBF0FBE3A
:10359000CDBF7B018C010E943F178F3F19F48FEF45
:1035A0009FEF33C060E081E090E00E941C1783E849
:1035B0008983D801C7016FE0B695A7959795879540
:1035C0006A95D1F78A83BB27A12F902F8F2D880F63
:1035D0008B831C820E94BB19809162008B7F809339
:1035E000620064E0CE0101960E942B178091620078
:1035F00084608093620061E070E080E090E00E946F
:1036000022180E943A1780E090E024960FB6F894B2
:10361000DEBF0FBECDBFDF91CF911F910F91FF9005
:10362000EF9008950F931F93CF93DF93CDB7DEB73D
:1036300022970FB6F894DEBF0FBECDBF8C0187ED89
:1036400089831A820E943F178F3F19F48FEF9FEFF3
:1036500021C060E081E090E00E941C178091620030
:103660008B7F8093620062E0CE0101960E942B174F
:103670008091620084608093620061E070E080E08D
:1036800090E00E9422180E943A178A81F8018083F4
:1036900080E090E022960FB6F894DEBF0FBECDBF5B
:1036A000DF91CF911F910F910895E2E6F0E08081C4
:1036B0008460808361E070E080E090E00E942218E6
:1036C0000E943A170895EF92FF920F931F93CF93A2
:1036D000DF93CDB7DEB724970FB6F894DEBF0FBEE9
:1036E000CDBF7B018C010E943F178F3F19F48FEFF4
:1036F0009FEF33C060E081E090E00E941C1783E5FB
:103700008983D801C701EFE0B695A795979587956E
:10371000EA95D1F78A83BB27A12F902F8F2D880F91
:103720008B831C820E94BB19809162008B7F8093E7
:10373000620064E0CE0101960E942B178091620026
:1037400084608093620061E070E080E090E00E941D
:1037500022180E943A1780E090E024960FB6F89461
:10376000DEBF0FBECDBFDF91CF911F910F91FF90B4
:10377000EF9008958091610299270895CF92DF928A
:10378000EF92FF920F931F936C018B018CEFE82E49
:1037900083E0F82EC7010E94710FA801B60181E1F4
:1037A00092E00E9449298C01C7010E940B0FC801B9
:1037B0001F910F91FF90EF90DF90CF900895CF93DE
:1037C000DF93CDB7DEB722970FB6F894DEBF0FBEFA
:1037D000CDBFFE01379681919191FA83E983BF01B4
:1037E0000E94BE1B22960FB6F894DEBF0FBECDBF5F
:1037F000DF91CF910895CF92DF92EF92FF920F93D6
:103800001F936C018B019CEFE92E93E0F92EC70109
:103810000E94710FA801B60181E192E00E94542339
:103820008C01C7010E940B0FC8011F910F91FF90DF
:10383000EF90DF90CF900895CF93DF93CDB7DEB7B1
:1038400022970FB6F894DEBF0FBECDBFFE013796AC
:1038500081919191FA83E983BF010E94FB1B22961B
:103860000FB6F894DEBF0FBECDBFDF91CF910895A4
:103870000F931F93082F162F8CEF93E00E94710F68
:10388000912F92959F70002329F0979A82B38370AD
:10389000806C04C0979882B383708064990F990FED
:1038A000982B92BB60E670E080E090E00E942218C6
:1038B00060E670E080E090E00E94221860E670E030
:1038C00080E090E00E94221860E670E080E090E0E6
:1038D0000E94221860E670E080E090E00E942218CA
:1038E00060E670E080E090E00E94221860E670E000
:1038F00080E090E00E94221860E670E080E090E0B6
:103900000E94221860E370E080E090E00E9422189C
:10391000969860E670E080E090E00E94221860E6F1
:1039200070E080E090E00E94221860E670E080E0A5
:1039300090E00E94221860E670E080E090E00E9433
:10394000221860E670E080E090E00E94221860E6B5
:1039500070E080E090E00E94221860E670E080E075
:1039600090E00E94221860E670E080E090E00E9403
:10397000221860E370E080E090E00E942218612F3E
:103980007727002321F082B38370806C03C082B359
:10399000837080646F707070660F771F660F771F7B
:1039A000862B82BB60E670E080E090E00E942218E7
:1039B00060E670E080E090E00E94221860E670E02F
:1039C00080E090E00E94221860E670E080E090E0E5
:1039D0000E94221860E670E080E090E00E942218C9
:1039E00060E670E080E090E00E94221860E670E0FF
:1039F00080E090E00E94221860E670E080E090E0B5
:103A00000E94221860E370E080E090E00E9422189B
:103A1000969860E670E080E090E00E94221860E6F0
:103A200070E080E090E00E94221860E670E080E0A4
:103A300090E00E94221860E670E080E090E00E9432
:103A4000221860E670E080E090E00E94221860E6B4
:103A500070E080E090E00E94221860E670E080E074
:103A600090E00E94221860E670E080E090E00E9402
:103A7000221860E370E080E090E00E9422188CEF52
:103A800093E00E940B0F1F910F9108958CEF93E02C
:103A90000E94710F61E080E00E94381C62E080E0CB
:103AA0000E94381CE1E0F4E080E2819384E0E1329E
:103AB000F807D1F710926102109262028CEF93E046
:103AC0000E940B0F08951F93182F8CEF93E00E9414
:103AD000710F1093610280916202181751F01093D8
:103AE0006202103108F0105D1068612F80E00E94C2
:103AF000381C8CEF93E00E940B0F1F9108951F93C9
:103B0000182F8CEF93E00E94710F8091630288233D
:103B100021F00E94461D1092630280916102803262
:103B200011F4109261021A3021F481E08093630253
:103B300024C090916102903119F48FEF809362025A
:103B4000E92FFF27EF5FFB4F8081811789F01083FA
:103B500080916202891719F0892F0E94631D612FDD
:103B600081E00E94381C809162028F5F8093620224
:103B7000809161028F5F809361028CEF93E00E94DD
:103B80000B0F812F992787FD90951F9108950F9313
:103B90001F93CF93DF938C018CEF93E00E94710F02
:103BA000E8011AC06A3039F460E880E00E94381CED
:103BB0001092610203C081E00E94381C9E01201B0C
:103BC0002F3021F460EC80E00E94381C809161026B
:103BD0008F5F8093610221966881662319F78CEFCD
:103BE00093E00E940B0FDF91CF911F910F910895E9
:103BF000FF920F931F93CF93DF93F82E8B018CEFDF
:103C000093E00E94710FFF0CFF0CFF0CE80100E035
:103C1000602F6F0D606480E00E94381CFE0164918B
:103C200081E00E94381C0F5F2196083089F78CEFE5
:103C300093E00E940B0FDF91CF911F910F91FF90A6
:103C4000089564E670E080E090E00E94421863E32B
:103C500080E00E94381C62E380E00E94381C65ED21
:103C600075E081E00E94F81D6DED75E082E00E9434
:103C7000F81D65EE75E083E00E94F81D6DEE75E0BD
:103C800084E00E94F81D65EF75E085E00E94F81D54
:103C90006DEF75E086E00E94F81D61E080E00E9413
:103CA000381C62E080E00E94381CE1E0F4E080E231
:103CB000819384E0E132F807D1F766E080E00E946A
:103CC000381C6CE080E00E94381C68E072E08CEFE9
:103CD00093E00E945B0F08950895CF92DF92EF92D8
:103CE000FF920F931F93082F7B0191E2C92E94E05E
:103CF000D92EC6010E94710F000F005E11270050DF
:103D00001F4EF801E192EF2CFF24E082C6010E94D1
:103D10000B0F1F910F91FF90EF90DF90CF900895C0
:103D20001F93182F882799270E94F82A21E632EC42
:103D300044E85FE30E94FC2B0E94C82A6F5B7F4F20
:103D4000812F0E946D1E1F9108956FE172E081E244
:103D500094E00E945B0F0895CF92DF92EF92FF9262
:103D60000F931F93CF93DF93CDB7DEB722970FB694
:103D7000F894DEBF0FBECDBF982F88508830E0F496
:103D800006C0C7010E94EC100E94BA140CC007E1E3
:103D900010E0091B11096E010894C11CD11C9EE1A1
:103DA000E92E96E0F92EA601B80181E090E00E948C
:103DB000F518882331F724C0892F8051883038F0D6
:103DC0001BC0C7010E94EC100E94BA140CC00FE186
:103DD00010E0091B11096E010894C11CD11C81E17E
:103DE000E82E86E0F82EA601B80182E090E00E945D
:103DF000F518882331F704C085E096E00E94EC10A6
:103E000089819A8122960FB6F894DEBF0FBECDBF8E
:103E1000DF91CF911F910F91FF90EF90DF90CF90A6
:103E20000895EF92FF921F9386E2E82E84E0F82E29
:103E3000C7010E94710F10911E11C7010E940B0F44
:103E40001095812F99271F91FF90EF9008951F9350
:103E5000182F8830A8F486E294E00E94710F8091B8
:103E60001E1199278095909502C0959587951A9572
:103E7000E2F7182F117086E294E00E940B0F0FC03A
:103E8000883140F40E94AC1E10E08150924038F01E
:103E900011E005C08BE296E00E94EC1010E0812F4B
:103EA00099271F9108956AE272E086E294E00E94E9
:103EB0005B0F0895E2E6F0E08081877F808366E90A
:103EC00070E080E090E00E9422186EE080E00E94A6
:103ED000B02208950F931F9302E610E0F80180814D
:103EE000877F808366E970E080E090E00E9422187E
:103EF0006FE080E00E94B022F801808188608083BA
:103F000066E970E080E090E00E9422181F910F9116
:103F10000895CF92DF92FF920F931F93CF93DF9379
:103F20006C018B01EA01F22E0E946A1F87E00E9459
:103F30002B23982F96959770988386FD04C0973011
:103F400011F4FF2099F7892F99279F938F9386E487
:103F500096E09F938F930E94C91748810F900F900E
:103F60000F900F90463030F5842F8F5E0E942B23E8
:103F7000F801808399279F938F9388E396E09F931E
:103F80008F930E94C917F80160810F900F900F90D6
:103F90000F90613218F00E94CB210CC0662351F0C3
:103FA000C6010E94152260E487E00E94B02281E0F1
:103FB00090E002C080E090E0DF91CF911F910F91DF
:103FC000FF90DF90CF900895CF93DF93CDB7DEB70A
:103FD00021970FB6F894DEBF0FBECDBF20E0AE0133
:103FE0004F5F5F4F0E94891F992721960FB6F89463
:103FF000DEBF0FBECDBFDF91CF910895DF92EF926C
:10400000FF920F931F93F82E8B01E42E0E945A1FEC
:104010008AE00E942B23D82E6F2D8AE00E94B022C6
:104020006F2D80E10E94B0226E2DC8010E946D218B
:104030008091620088608093620064E170E080E0BB
:1040400090E00E94221880916200877F8093620036
:1040500002C00E94BA1487E00E942B23082FE82E8A
:10406000FF24C70180739070892B99F3FF92EF9220
:1040700085E596E09F938F930E94C9170073602F88
:1040800087E00E94B0226D2D8AE00E94B0220E943B
:10409000F0210E946A1F85E0F694E7948A95E1F783
:1040A0000F900F900F900F90C701817090701F912B
:1040B0000F91FF90EF90DF900895DF92EF92FF92C3
:1040C0000F931F93CF93DF93D82E7B01042F10E023
:1040D000C42FDD2710C0612F7727AE01461B570B79
:1040E0004132510514F040E250E06E0D7F1D8D2DE0
:1040F0000E94FE1F105E101770F381E090E0DF91C8
:10410000CF911F910F91FF90EF90DF9008950F9343
:104110001F930E945A1F66EB86E00E94B02266E958
:1041200070E080E090E00E94221802E610E0F801C2
:1041300080818860808364E670E080E090E00E9487
:104140004218F8018081877F808366E970E080E013
:1041500090E00E94221866E286E00E94B0220E944F
:104160006A1F1F910F9108950F931F93CF93DF93B1
:10417000CDB7DEB723970FB6F894DEBF0FBECDBF25
:1041800090912B04E92FFF27EE5AFE4F80819F5F0D
:104190008823C1F7915090932B049F5F20E030E07B
:1041A00040E008C0F901E55DFB4FD901AF5ABE4FB1
:1041B0008C9180832F5F3F4F4F5F491799F764E6DB
:1041C00070E080E090E00E94421863E080E00E948E
:1041D000B02265E070E080E090E00E94421801E0CB
:1041E00010E0B80100902B0402C0660F771F0A94FC
:1041F000E2F7615081E00E94B02261E083E00E941A
:10420000B0226FE184E00E94B02262E085E00E946B
:10421000B02266E286E00E94B02264E08DE10E9456
:10422000B02200902B0402C0000F111F0A94E2F785
:104230000150602F8CE10E94B02280912C04898370
:1042400080E78A8382E68B8343E08E010F5F1F4FF6
:10425000B8018AE00E94742280912B04823040F0E1
:1042600080912D04898343E0B8018BE00E94742281
:1042700000E010E008C0FF27E45DFB4F6081802F65
:10428000855F0E94B022E02FEE5F0F5F1F4F80918D
:104290002B04E81780F3198243E0BE016F5F7F4F64
:1042A00080E10E94742261E070E000902B0402C063
:1042B000660F771F0A94E2F7615082E00E94B022F5
:1042C0000E946A1F23960FB6F894DEBF0FBECDBFC3
:1042D000DF91CF911F910F910895FF920F931F933C
:1042E000CF93DF93CDB7DEB729970FB6F894DEBF33
:1042F0000FBECDBF8C01F62E0E943F1780EA898346
:10430000D801FE01319690E004C08D9181839F5FBA
:1043100031969F15D1F760E082E090E00E941C1773
:104320001B98F3946F2DCE0101960E942B171B9AB8
:104330000E943A1729960FB6F894DEBF0FBECDBF84
:10434000DF91CF911F910F91FF900895CF93DF934D
:10435000CDB7DEB721970FB6F894DEBF0FBECDBF45
:104360000E943F1783EE898360E082E090E00E9424
:104370001C171B9861E0CE0101960E942B171B9A17
:104380000E943A1721960FB6F894DEBF0FBECDBF3C
:10439000DF91CF910895CF93DF93CDB7DEB721970B
:1043A0000FB6F894DEBF0FBECDBF0E943F1782EE5E
:1043B000898360E082E090E00E941C171B9861E016
:1043C000CE0101960E942B171B9A0E943A17219644
:1043D0000FB6F894DEBF0FBECDBFDF91CF91089529
:1043E000CF93DF93CDB7DEB721970FB6F894DEBF3A
:1043F0000FBECDBF0E943F1781EE898360E082E04F
:1044000090E00E941C171B9861E0CE0101960E946B
:104410002B171B9A0E943A1721960FB6F894DEBF0D
:104420000FBECDBFDF91CF910895FF920F931F93E1
:10443000CF93DF93CDB7DEB729970FB6F894DEBFE1
:104440000FBECDBF8C01F62E0E943F1781E68983F7
:1044500060E082E090E00E941C171B986F2D6F5F58
:10446000CE0101960E942B171B9A0E943A17DE017B
:104470001296F80190E003C08D9181939F5F9F1584
:10448000D9F729960FB6F894DEBF0FBECDBFDF91E6
:10449000CF911F910F91FF900895CF93DF93CDB7E8
:1044A000DEB722970FB6F894DEBF0FBECDBF0E94D5
:1044B0003F1780E6898360E082E090E00E941C174D
:1044C0001B9862E0CE0101960E942B171B9A0E9456
:1044D0003A178A81992722960FB6F894DEBF0FBE4D
:1044E000CDBFDF91CF910895EF92FF920F931F936D
:1044F000CF93DF93CDB7DEB726970FB6F894DEBF24
:104500000FBECDBF182F7B01042F0E943F171062F2
:104510001983D701FE01319690E004C08D9181830B
:104520009F5F31969017D1F760E082E090E00E94A3
:104530001C171B980F5F602FCE0101960E942B174E
:104540001B9A0E943A1726960FB6F894DEBF0FBE4C
:10455000CDBFDF91CF911F910F91FF90EF90089504
:104560000F931F93CF93DF93CDB7DEB722970FB68C
:10457000F894DEBF0FBECDBF182F062F0E943F1745
:10458000106219830A8360E082E090E00E941C17A9
:104590001B9862E0CE0101960E942B171B9A0E9485
:1045A0003A1722960FB6F894DEBF0FBECDBFDF914B
:1045B000CF911F910F9108950E943F1760E081E015
:1045C0000E94B02261E082E00E94B02267E081E1B7
:1045D0000E94B0226BE080E00E94B0220E943A1755
:1045E0000895EF92FF920F931F93CF93DF93CDB770
:1045F000DEB726970FB6F894DEBF0FBECDBF182FDB
:104600007B01042F0E943F17198360E082E090E055
:104610000E941C171B98602F6F5FCE0101960E94AD
:104620002B171B9A0E943A17DE011296F70190E0B1
:1046300003C08D9181939F5F9017D9F726960FB68F
:10464000F894DEBF0FBECDBFDF91CF911F910F91C8
:10465000FF90EF9008951F93CF93DF93CDB7DEB710
:1046600022970FB6F894DEBF0FBECDBF182F0E9461
:104670003F17198360E082E090E00E941C171B98AE
:1046800062E0CE0101960E942B171B9A0E943A17F6
:104690008A81992722960FB6F894DEBF0FBECDBF50
:1046A000DF91CF911F910895A1E1B0E0EAE5F3E237
:1046B0000C94CE2C3C017F876E876A01FC01178227
:1046C0001682838181FD03C06FEF7FEF71C39E016E
:1046D0002F5F3F4F398B288BF3012381EE85FF85B8
:1046E00023FD859123FF8191FF87EE87882309F4BD
:1046F0005CC3853251F4EE85FF8523FD859123FF50
:104700008191FF87EE87853229F490E0B3010E9402
:104710001D29E2CF982F10E0882499241032B0F49C
:104720009B3269F09C3228F4903251F0933271F44C
:104730000BC09D3239F0903349F4116028C01260EB
:10474000146025C0186023C0106121C017FD2AC065
:10475000892F80538A3078F416FF06C0FAE09F9EB6
:10476000902C1124980E13C03AE0839E802C1124C3
:10477000880E10620CC09E3221F416FD16C3106420
:1047800006C09C3611F4106802C0983659F4EE85C4
:10479000FF8523FD959123FF9191FF87EE87992354
:1047A00009F0BCCF892F8554833020F4812F80619C
:1047B000905E07C0892F8556833008F0A1C1812FF4
:1047C0008F7E86FD02C076E0972E6FE3F62EF822EC
:1047D000953619F4F0E4FF2A07C0963619F420E85C
:1047E000F22A02C091109A94F7FE0BC03BE33915F0
:1047F00020F427E05CE3B52E0EC0B92CB39427E07B
:104800000AC047E0491528F427E0BB2447E0942E6E
:1048100002C0292DBB24C60104969D878C87F60112
:104820006081718182819381AE014F5F5F4F0B2D5B
:104830000E94DF276C010981202E332400FF04C071
:1048400003FD02C01DE209C0F1FE02C01BE205C06B
:10485000F2FC02C010E001C010E2C1018C70907047
:10486000892BB9F1112311F483E001C084E088158C
:1048700010F088240AC0881AF3FC07C080E290E098
:10488000B3010E941D298A94C9F7112329F0812FB1
:1048900090E0B3010E941D2923FE03C00AE616E042
:1048A0000EC00EE616E00BC0E114F10409F08052D0
:1048B00090E0B3010E941D290F5F1F4F05C0EF2C30
:1048C000FF24F0E1EF22FF24F8018491882361F7AF
:1048D00014C1F7FE12C0BC0C24FE04C08A818133CF
:1048E00009F4BA941B141CF0BB24B3942DC0F8E057
:1048F000FB1550F538E0B32E27C0F6FC25C0892DF6
:1049000090E08C159D054CF02CEFC2162FEFD206CF
:1049100024F030E8F32A01C09A94992049F0E2E0AB
:10492000F0E0EC0FFD1FE90DF11D80818033A1F354
:10493000F7FE0AC0B92CB394892D90E0C816D906A9
:1049400014F0992401C09C18F7FC03C025E030E066
:1049500009C01C141D041CF021E030E003C09601C6
:104960002F5F3F4F112311F02F5F3F4F992029F008
:10497000892D90E00196280F391F882D90E0281787
:10498000390714F0882401C0821A4F2C5524C20123
:1049900089709070892B39F008C080E290E0B301F3
:1049A0000E941D298A948820C1F7112329F0812FA4
:1049B00090E0B3010E941D2943FE07C008C080E3B8
:1049C00090E0B3010E941D298A948820C1F7F7FE68
:1049D00046C08601D7FE02C000E010E076010894D0
:1049E000E11CF11CE01AF10A41E050E04C0F5D1FA0
:1049F000E40EF51E26014B185108892D90E0AA24DB
:104A0000BB24A81AB90A5FEF0F3F150729F48EE2FD
:104A100090E0B3010E941D29C016D10634F0401663
:104A200051061CF4F701808101C080E30150104061
:104A30000894E11CF11C0A151B052CF090E0B30151
:104A40000E941D29E0CF0C151D0539F49A8196337B
:104A500018F4953311F424FE81E390E04BC08A8171
:104A6000813309F00F7E90E0B3010E941D29992047
:104A7000A1F08EE290E0B3010E941D2912E0E1E076
:104A8000F0E0EC0FFD1FE10FF11D1F5F808190E052
:104A9000B3010E941D299A9491F744FC03C085E656
:104AA00090E002C085E490E0B3010E941D29D7FC8C
:104AB00005C0C114D10441F404FF06C0D094C194D0
:104AC000D108D3948DE201C08BE290E0B3010E9443
:104AD0001D2980E305C08F5F26EF3FEFC20ED31E76
:104AE0003AE0C316D104BCF790E0B3010E941D293F
:104AF000C601C096B3010E941D29CC84DD8452C139
:104B0000933631F0933799F0933509F059C023C0AB
:104B1000F601808189835E010894A11CB11C22E00A
:104B200030E0C20ED31E21E0E22EF12C12C0F601BD
:104B3000A080B18016FD03C06FEF7FEF02C0692D2A
:104B400070E022E030E0C20ED31EC5010E9412299F
:104B50007C011F7713C0F601A080B18016FD03C051
:104B60006FEF7FEF02C0692D70E022E030E0C20EEF
:104B7000D31EC5010E9407297C01106813FF07C0DE
:104B80001BC080E290E0B3010E941D298A94882D09
:104B900090E0E816F906A8F30FC0F50117FD85911E
:104BA00017FF81915F0190E0B3010E941D298110E0
:104BB0008A940894E108F108E114F10471F7F2C055
:104BC000943611F0993689F517FF08C0F601208157
:104BD00031814281538184E090E00AC0F6018081F6
:104BE00091819C01442737FD4095542F82E090E04D
:104BF000C80ED91E9FE6F92EF12257FF09C0509525
:104C00004095309521953F4F4F4F5F4F90E8F92ADF
:104C1000CA01B901AE014F5F5F4F2AE030E00E9448
:104C20005A29E82EE889EE1A41C0953721F41F7EF3
:104C30002AE030E01CC0197F9F3661F0903720F4E5
:104C4000983509F0B2C00FC0903739F0983709F0A5
:104C5000ACC004C028E030E00AC0106114FD14604C
:104C600020E130E004C014FD166020E132E017FFBF
:104C700008C0F601608171818281938144E050E037
:104C800008C0F60180819181BC0180E090E042E0A3
:104C900050E0C40ED51EAE014F5F5F4F0E945A29EF
:104CA000E82E5889E51A8FE7F82EF122F6FE0BC0A0
:104CB0008EEFF822E91438F4F4FE07C0F2FC05C0C8
:104CC0009FEEF92202C01E2D01C0192DF4FE0DC069
:104CD000FE01EE0DF11D8081803319F4E9EEFE2214
:104CE00008C01F5FF2FE05C003C08F2D867809F053
:104CF0001F5F0F2DF3FC14C0F0FE0FC0181510F04D
:104D00009E2C0BC09E2C980C911A182D06C080E288
:104D100090E0B3010E941D291F5F1815C0F304C065
:104D2000181510F4811A01C0882404FF0FC080E315
:104D300090E0B3010E941D2902FF1DC001FD03C0C8
:104D400088E790E00EC088E590E00BC0802F867861
:104D500091F001FF02C08BE201C080E2F7FC8DE21E
:104D600090E0B3010E941D2906C080E390E0B301EA
:104D70000E941D299A94E914C0F3EA94E1E0F0E05E
:104D8000EC0FFD1FEE0DF11D808190E0B3010E943C
:104D90001D29EE2091F706C080E290E0B3010E9449
:104DA0001D298A948820C1F797CCF3016681778109
:104DB000CB016196E2E10C94EA2CCF93DF93BC0126
:104DC0008230910510F462E070E0A0913404B0915B
:104DD0003504ED01E0E0F0E040E050E021C08881E2
:104DE00099818617970769F48A819B81309719F01A
:104DF0009383828304C09093350480933404FE012E
:104E000034C06817790738F44115510519F0841733
:104E1000950708F4AC01FE018A819B819C01E901A0
:104E20002097E9F641155105A9F1CA01861B970B98
:104E3000049708F4BA01E0E0F0E02AC08D919C915B
:104E4000119784179507F9F46417750781F4129682
:104E50008D919C911397309719F09383828304C0AE
:104E60009093350480933404FD0132964CC0CA01FE
:104E7000861B970BFD01E80FF91F61937193029751
:104E80008D939C9340C0FD01828193819C01D90147
:104E90001097A1F68091320490913304892B41F44C
:104EA0008091390290913A029093330480933204B6
:104EB00040913B0250913C024115510541F44DB7E0
:104EC0005EB78091370290913802481B590B2091B0
:104ED000320430913304CA01821B930B8617970763
:104EE00080F0AB014E5F5F4F8417950750F0420F83
:104EF000531F5093330440933204F901619371932B
:104F000002C0E0E0F0E0CF01DF91CF910895CF93B0
:104F1000DF93009709F450C0EC0122971B821A829C
:104F2000A0913404B0913504109709F140E050E0AD
:104F3000AC17BD0708F1BB83AA83FE012191319113
:104F4000E20FF31FAE17BF0779F48D919C91119773
:104F5000280F391F2E5F3F4F3983288312968D917A
:104F60009C9113979B838A834115510571F4D093CB
:104F70003504C093340420C012968D919C911397F0
:104F8000AD01009711F0DC01D3CFFA01D383C283C6
:104F900021913191E20FF31FCE17DF0769F4888169
:104FA0009981280F391F2E5F3F4FFA0131832083EB
:104FB0008A819B8193838283DF91CF9108952830EA
:104FC00008F027E03327DA01990F311D87FD916042
:104FD00000966105710539F432602E5F3D9330E330
:104FE0002A95E1F708959F3F30F0803871056105FB
:104FF00009F03C5F3C5F3D93913008F08068911D63
:10500000DF93CF931F930F93FF92EF92192F987F07
:105010009695E92F96959695E90FFF27E453F94F5A
:1050200099273327EE24FF24A701E7010590089470
:10503000079428F4360FE71EF81E491F511D660F0E
:10504000771F881F991F0694A1F70590079428F4ED
:10505000E70EF81E491F561FC11D770F881F991FA5
:10506000661F0694A1F70590079428F4F80E491FCF
:10507000561FC71FD11D880F991F661F771F0694E3
:10508000A1F70590079420F4490F561FC71FD81F9A
:10509000990F661F771F881F0694A9F784911095B2
:1050A000177041F0D695C79557954795F794E794B3
:1050B0001A95C1F7E2E7F6E06894159015913591DD
:1050C0006591959105907FE27395E118F10A430B84
:1050D000560BC90BD009C0F7E10CF11E431F561F38
:1050E000C91FD01D7EF4703311F48A95E6CFE89481
:1050F000015030F0080F0AF40027021708F4202F9F
:105100002395022F7A3328F079E37D932A95E9F7E6
:1051100010C07D932A9589F60694979567953795E3
:1051200017951794E118F10A430B560BC90BD009D8
:1051300098F023957E9173957A3308F070E37C9311
:105140002013B8F77E9170617D9330F0839571E301
:105150007D9370E32A95E1F71124EF90FF900F9172
:105160001F91CF91DF91992787FD90950895DC01DC
:105170002D923D924D925D926D927D928D929D9277
:10518000AD92BD92CD92DD92ED92FD920D931D9365
:10519000CD93DD93FF91EF918DB78D938EB78D9366
:1051A0008FB78D93ED93FD93882799270994DC01A0
:1051B000CB0181309105811D2D903D904D905D90EA
:1051C0006D907D908D909D90AD90BD90CD90DD9037
:1051D000ED90FD900D911D91CD91DD91ED91FD91A1
:1051E0000D90F894FEBF0FBEEDBFED91FD910994B7
:1051F000FB01DC014150504048F005900D92002029
:10520000C9F701C01D9241505040E0F70895FC01DC
:105210000590615070400110D8F7809590958E0FE1
:105220009F1F0895FC016150704001900110D8F754
:10523000809590958E0F9F1F08950F931F93CF9386
:10524000DF938C01EB018B8181FF1BC082FF0DC0BE
:105250002E813F818C819D812817390764F4E88174
:10526000F9810193F983E88306C0E885F985802FE9
:105270000995892B31F48E819F8101969F838E83BE
:1052800002C00FEF1FEFC801DF91CF911F910F9167
:1052900008950F931F938C01FC01838188608383A1
:1052A000C8010E945423F8012381277F23831F9183
:1052B0000F910895FA01AA27283051F1203181F188
:1052C000E8946F936E7F6E5F7F4F8F4F9F4FAF4F0E
:1052D000B1E03ED0B4E03CD0670F781F891F9A1F21
:1052E000A11D680F791F8A1F911DA11D6A0F711DD5
:1052F000811D911DA11D20D009F468943F912AE0E1
:10530000269F11243019305D3193DEF6CF010895C8
:10531000462F4770405D4193B3E00FD0C9F7F6CFF9
:10532000462F4F70405D4A3318F0495D31FD4052C1
:10533000419302D0A9F7EACFB4E0A6959795879557
:1053400077956795BA95C9F7009761057105089536
:105350009B01AC010A2E06945795479537952795E2
:10536000BA95C9F7620F731F841F951FA01D08957A
:105370005058BB27AA270ED001C2F2D130F0F7D186
:1053800020F031F49F3F11F41EF4D7C10EF4E095E4
:10539000E7FBCDC1E92F03D280F3BA176207730789
:1053A0008407950718F071F49EF51BC20EF4E09582
:1053B0000B2EBA2FA02D0B01B90190010C01CA01CF
:1053C000A0011124FF27591B99F0593F50F4503E7A
:1053D00068F11A16F040A22F232F342F4427585F6C
:1053E000F3CF469537952795A795F0405395C9F784
:1053F0007EF41F16BA0B620B730B840BBAF091503C
:10540000A1F0FF0FBB1F661F771F881FC2F70EC0DA
:10541000BA0F621F731F841F48F4879577956795AD
:10542000B795F7959E3F08F0B3CF9395880F08F096
:105430009927EE0F97958795089555D108F481E047
:1054400008950CD09BC193D140F08AD130F021F463
:105450005F3F19F06CC15111C5C16FC1A0D198F364
:105460009923C9F35523B1F3951B550BBB27AA27E5
:1054700062177307840738F09F5F5F4F220F331F57
:10548000441FAA1FA9F333D00E2E3AF0E0E830D023
:1054900091505040E695001CCAF729D0FE2F27D026
:1054A000660F771F881FBB1F261737074807AB07F4
:1054B000B0E809F0BB0B802DBF01FF2793585F4F69
:1054C0002AF09E3F510568F032C18CC15F3FECF37A
:1054D000983EDCF3869577956795B795F7959F5F2E
:1054E000C9F7880F911D9695879597F90895E1E082
:1054F000660F771F881FBB1F621773078407BA07E1
:1055000020F0621B730B840BBA0BEE1F88F7E0953B
:105510000895BEE304D008F490E80895BFE322277D
:105520003327A90144D158F19F5740F1B91738F1F9
:10553000BFE3B91B9927B8503AF4660F771F881F4D
:10554000991FB395D2F316C0B8504AF0232F342FC9
:10555000452F562F672F782F8827B850BAF7B85F96
:1055600049F086957795679557954795379527958F
:10557000BA95B9F70EF4E4D088940895889460E061
:1055800070E0CB01089504D06894B1112BC1089547
:105590000ED188F09F5790F0B92F9927B751A0F0FE
:1055A000D1F0660F771F881F991F1AF0BA95C9F7B7
:1055B00012C0B13081F015D1B1E0089512C1672F4A
:1055C000782F8827B85F39F0B93FCCF38695779567
:1055D0006795B395D9F73EF4909580957095619550
:1055E0007F4F8F4F9F4F089597FB0EF4A9D03EC079
:1055F000E89409C097FB3EF490958095709561956D
:105600007F4F8F4F9F4F9923A9F0F92F96E9BB2722
:105610009395F695879577956795B795F111F8CF9E
:10562000FAF4BB0F11F460FF1BC06F5F7F4F8F4F09
:105630009F4F16C0882311F096E911C0772321F0FF
:105640009EE8872F762F05C0662371F096E8862F97
:1056500070E060E02AF09A95660F771F881FDAF7EE
:10566000880F9695879597F90895E894F92F96EB0A
:10567000FF2381F0121613061406440B9395F6953A
:1056800087957795679557954040FF23B9F71BC0DD
:1056900099270895882351F49850D2F7872B762FB5
:1056A000652F542F432F322F20E0B1F3121613062B
:1056B0001406440B88233AF09A95440F551F661F31
:1056C000771F881FCAF755234AF4440F551F11F45A
:1056D00060FF04C06F5F7F4F8F4F9F4F880F96957D
:1056E000879597F90895990F0008550FAA0BE0E8E0
:1056F000FEEF16161706E807F907C0F01216130694
:10570000E407F50798F0621B730B840B950B39F4D3
:105710000A2661F0232B242B252B21F408950A2639
:1057200009F4A140A6958FEF811D811D089597F979
:105730009F6780E870E060E008959FEF80EC089537
:1057400090958095709560955095409530952195F0
:105750003F4F4F4F5F4F6F4F7F4F8F4F9F4F08957A
:1057600000240A9416161706180609060895002440
:105770000A9412161306140605060895092E0394BA
:10578000000C11F4882352F0BB0F40F4BF2B11F42E
:1057900060FF04C06F5F7F4F8F4F9F4F089557FD8D
:1057A0009058440F551F59F05F3F71F04795880F8F
:1057B00097FB991F61F09F3F79F087950895121626
:1057C00013061406551FF2CF4695F1DF08C01616D2
:1057D00017061806991FF1CF869571056105089483
:1057E0000895E894BB2766277727CB0197F908959A
:1057F0007ADF08F48FEF08950BD0C0CFB1DF28F027
:10580000B6DF18F0952309F092CF97CF1124EACF95
:10581000C6DFA0F3959FD1F3950F50E0551F629F0F
:10582000F001729FBB27F00DB11D639FAA27F00DF9
:10583000B11DAA1F649F6627B00DA11D661F829F20
:105840002227B00DA11D621F739FB00DA11D621F05
:10585000839FA00D611D221F749F3327A00D611D22
:10586000231F849F600D211D822F762F6A2F112404
:105870009F5750408AF0E1F088234AF0EE0FFF1F57
:10588000BB1F661F771F881F91505040A9F79E3F8E
:10589000510570F04CCFA6CF5F3FECF3983EDCF3A0
:1058A000869577956795B795F795E7959F5FC1F7CB
:1058B000FE2B880F911D9695879597F90895629F05
:1058C000D001739FF001829FE00DF11D649FE00DF8
:1058D000F11D929FF00D839FF00D749FF00D659F59
:1058E000F00D9927729FB00DE11DF91F639FB00D58
:1058F000E11DF91FBD01CF011124089597FB092E69
:1059000007260AD077FD04D080D006D000201AF4F4
:10591000709561957F4F0895F6F7909581959F4F0B
:105920000895A1E21A2EAA1BBB1BFD010DC0AA1FE0
:10593000BB1FEE1FFF1FA217B307E407F50720F0F8
:10594000A21BB30BE40BF50B661F771F881F991F73
:105950001A9469F760957095809590959B01AC01BC
:10596000BD01CF01089597FB092E05260ED057FDE6
:1059700004D0D7DF0AD0001C38F4509540953095FC
:1059800021953F4F4F4F5F4F0895F6F790958095C3
:10599000709561957F4F8F4F9F4F08952F923F9243
:1059A0004F925F926F927F928F929F92AF92BF922F
:1059B000CF92DF92EF92FF920F931F93CF93DF93DB
:1059C000CDB7DEB7CA1BDB0B0FB6F894DEBF0FBE38
:1059D000CDBF09942A88398848885F846E847D8485
:1059E0008C849B84AA84B984C884DF80EE80FD8087
:1059F0000C811B81AA81B981CE0FD11D0FB6F894FD
:105A0000DEBF0FBECDBFED010895AA1BBB1B51E148
:105A100007C0AA1FBB1FA617B70710F0A61BB70B1E
:105A2000881F991F5A95A9F780959095BC01CD01C3
:025A30000895D7
:105A32000A2566000A5475726E696E672073746176
:105A42007465000A4D6F76696E67207374617465C0
:105A52000073696E675F746872656164000A5072F0
:105A620065737320676F000A53746162696C697AA7
:105A7200696E67000A496E697469616C697A696E58
:105A8200670003006D6F746F72206C6F636B0004AC
:105A92000502030001656E636F646572206C6F63BB
:105AA2006B006779726F206C6F636B006779726F3E
:105AB200000B726F626F74206D6F6E69746F72008B
:105AC20075736572206D61696E000148617070794D
:105AD200626F617264207625582E2530325820205C
